{
	"data": {
		"bytecode": {
			"linkReferences": {},
			"object": "60806040523480156200001157600080fd5b506200005d6040518060400160405280601681526020017f45524331343030546f6b656e7356616c696461746f72000000000000000000008152506200006360201b6200236b1760201c565b620000f1565b600160076000836040516020016200007c9190620000b3565b60408051808303601f19018152918152815160209283012083529082019290925201600020805460ff191691151591909117905550565b6000825160005b81811015620000d65760208186018101518583015201620000ba565b81811115620000e6576000828501525b509190910192915050565b61563280620001016000396000f3fe608060405234801561001057600080fd5b506004361061030c5760003560e01c80636eb6ad8f1161019d578063b090bee7116100e9578063e323e671116100a2578063eb5314bd1161007c578063eb5314bd14610844578063ebf42f7714610857578063ed2f90951461086a578063fa061ca01461087d57600080fd5b8063e323e671146107dd578063e34a11ec146107f0578063e81ea5411461083157600080fd5b8063b090bee71461076b578063c1c60fe21461077e578063c428b20214610791578063c69664bb146107a4578063d47ac02a146107b7578063dfe15da0146107ca57600080fd5b806398a53ef511610156578063a28e7c0211610130578063a28e7c02146106ea578063a4aa023f146106fd578063a54cdf6a14610710578063accf61751461074657600080fd5b806398a53ef5146106b15780639bd483ec146106c45780639e59ceba146106d757600080fd5b80636eb6ad8f1461063f578063732c916b1461065257806373e7b1601461066557806376a67a511461067857806389d3a6391461068b5780639672d64b1461069e57600080fd5b806341eb24bb1161025c57806354c6f08c1161021557806361aed064116101ef57806361aed064146105cd57806361c2e2811461060657806362e93ffa14610619578063685e25191461062c57600080fd5b806354c6f08c1461059457806357b001f9146105a75780635b4b2fd3146105ba57600080fd5b806341eb24bb146104ff5780634261699f1461051257806342be578714610525578063450999a014610538578063520faa761461056e578063530b8edd1461058157600080fd5b8063249cb3fa116102c95780632c55b05f116102a35780632c55b05f1461049a5780632e48152c146104ad5780632fd33398146104d95780633bddaf8f146104ec57600080fd5b8063249cb3fa1461043b5780632744cc271461044e578063279f00dd1461048757600080fd5b80630d21cdd814610311578063118fa5db1461032657806312da4de6146103395780631529371f146103ce5780631db9c180146104055780632174e43514610418575b600080fd5b61032461031f366004614bd9565b610890565b005b610324610334366004614f08565b61089d565b6103b0610347366004614c4c565b6001600160a01b039182166000908152601260209081526040808320938352929052208054600182015460028301546003840154600485015460058601546006870154600788015460089098015496999589169894851697939094169591949093929160ff1690565b6040516103c5999897969594939291906151ed565b60405180910390f35b6103f76103dc366004614bd9565b6001600160a01b031660009081526016602052604090205490565b6040519081526020016103c5565b6103f7610413366004614c13565b610a66565b61042b610426366004614cba565b610a93565b60405190151581526020016103c5565b6103f7610449366004615027565b610b1b565b6103f761045c366004614c13565b6001600160a01b039182166000908152600d6020908152604080832093909416825291909152205490565b61042b610495366004614d7e565b610b7a565b6103246104a8366004614c13565b610ba1565b61042b6104bb366004614bd9565b6001600160a01b031660009081526001602052604090205460ff1690565b61042b6104e7366004614c13565b610ca3565b6103246104fa366004614bd9565b610ccc565b61032461050d366004614bd9565b610cd6565b610324610520366004614c13565b610ce0565b61042b610533366004614c13565b610ddd565b6103f7610546366004614c4c565b6001600160a01b03919091166000908152601560209081526040808320938352929052205490565b61032461057c36600461504c565b610dff565b61042b61058f366004614d7e565b611055565b61042b6105a2366004614e63565b6110a9565b6103246105b5366004614bd9565b6110c5565b6103f76105c8366004614c13565b611239565b61042b6105db366004614c4c565b6001600160a01b03919091166000908152600e60209081526040808320938352929052205460ff1690565b61042b610614366004614c13565b611245565b610324610627366004614e2e565b611267565b61032461063a366004614c13565b611371565b61042b61064d366004614e63565b61146e565b6103f7610660366004614c78565b61147f565b61042b610673366004614d7e565b61148c565b610324610686366004614bd9565b6114a1565b61042b610699366004614d7e565b611611565b61042b6106ac366004614cba565b611664565b61042b6106bf36600461512f565b6116dd565b6103246106d2366004614c13565b611899565b61042b6106e5366004614c13565b611996565b61042b6106f8366004614c13565b6119b8565b61042b61070b366004614c13565b6119da565b6103f761071e366004614c4c565b6001600160a01b03919091166000908152601160209081526040808320938352929052205490565b610759610754366004614bd9565b6119fc565b6040516103c596959493929190615252565b61042b610779366004614e9e565b611aca565b61042b61078c366004614c4c565b611b21565b61032461079f366004614c13565b611b2d565b6103246107b2366004614c13565b611c2a565b61042b6107c5366004614e9e565b611d27565b6103246107d8366004614c13565b611d73565b6103246107eb366004614bd9565b611e70565b6103f76107fe366004614c78565b6001600160a01b039283166000908152601460209081526040808320939095168252918252838120928152919052205490565b61032461083f366004614c13565b611e7a565b610324610852366004614c13565b611f77565b610324610865366004614c13565b612074565b610324610878366004614c13565b612171565b61032461088b366004614c13565b61226e565b61089a81336123b9565b50565b87336001600160a01b03821614806109365750806001600160a01b0316638da5cb5b6040518163ffffffff1660e01b815260040160206040518083038186803b1580156108e957600080fd5b505afa1580156108fd573d6000803e3d6000fd5b505050506040513d601f19601f820116820180604052508101906109219190614bf6565b6001600160a01b0316336001600160a01b0316145b8061096457506001600160a01b038116600090815260096020908152604080832033845290915290205460ff165b6109895760405162461bcd60e51b81526004016109809061541d565b60405180910390fd5b6001600160a01b0389166000908152600c60205260409020805489919060ff191660018360028111156109be576109be615597565b02179055506001600160a01b0389166000908152600a60209081526040808320805460ff199081168c151517909155600b8352818420805482168b1515179055600f8352818420805482168a1515179055601083529281902080549093168715151790925581518482028082018301909352848152610a5b928c928791879182919085019084908082843760009201919091525061241f92505050565b505050505050505050565b6001600160a01b038083166000908152601360209081526040808320938516835292905220545b92915050565b60006001600160a01b038a16610abb5760405162461bcd60e51b815260040161098090615329565b610b0b8c8c8c8c8c8c8c610ace8d61256a565b8c8c8c8080601f01602080910402602001604051908101604052809392919081815260200183838082843760009201919091525061257d92505050565b9c9b505050505050505050505050565b60008281526007602052604081205460ff1615610b725760405173455243313832305f4143434550545f4d4147494360601b6020820152603401604051602081830303815290604052805190602001209050610a8d565b506000610a8d565b6000610b908b8b60008c8c8c8c610ace8d61256a565b90505b9a9950505050505050505050565b81336001600160a01b0382161480610c3a5750806001600160a01b0316638da5cb5b6040518163ffffffff1660e01b815260040160206040518083038186803b158015610bed57600080fd5b505afa158015610c01573d6000803e3d6000fd5b505050506040513d601f19601f82011682018060405250810190610c259190614bf6565b6001600160a01b0316336001600160a01b0316145b80610c6857506001600160a01b038116600090815260096020908152604080832033845290915290205460ff165b80610c785750610c7881336119b8565b610c945760405162461bcd60e51b81526004016109809061536f565b610c9e8383612924565b505050565b6001600160a01b0382166000908152602081905260408120610cc5908361298a565b9392505050565b61089a8133612a0d565b61089a8133612a73565b81336001600160a01b0382161480610d795750806001600160a01b0316638da5cb5b6040518163ffffffff1660e01b815260040160206040518083038186803b158015610d2c57600080fd5b505afa158015610d40573d6000803e3d6000fd5b505050506040513d601f19601f82011682018060405250810190610d649190614bf6565b6001600160a01b0316336001600160a01b0316145b80610da757506001600160a01b038116600090815260096020908152604080832033845290915290205460ff165b80610db75750610db78133610ddd565b610dd35760405162461bcd60e51b8152600401610980906153e8565b610c9e8383612ad9565b6001600160a01b0382166000908152600360205260408120610cc5908361298a565b6000806000610e9e338f8f8080601f016020809104026020016040519081016040528093929190818152602001838380828437600081840152601f19601f820116905080830192505050505050508d8888905060001415610e61578a8a610e64565b88885b8080601f016020809104026020016040519081016040528093929190818152602001838380828437600092019190915250612b3f92505050565b92509250925082610ec15760405162461bcd60e51b8152600401610980906152dd565b610ecd33838d84612c65565b505050610f14338c8c8080601f0160208091040260200160405190810160405280939291908181526020018383808284376000920191909152508c92508b9150612d119050565b610f305760405162461bcd60e51b8152600401610980906152dd565b3360009081526001602052604090205460ff1615610f605760405162461bcd60e51b8152600401610980906152dd565b610f6b338a87612e50565b610f9c5760405162461bcd60e51b8152602060048201526002602482015261035360f41b6044820152606401610980565b610faa338a8a8a8a8a612ee5565b610fdb5760405162461bcd60e51b8152602060048201526002602482015261353560f01b6044820152606401610980565b6000610feb338b8b8b8b8b61303b565b3360009081526010602052604090205490925060ff169050801561100e57508015155b1561104757336000818152601260209081526040808320858452909152812060048101549092611045929091849186918c916130b8565b505b505050505050505050505050565b60006110608561314f565b610b908b8b60008c8c8c8c8c8c8c8c8080601f01602080910402602001604051908101604052809392919081815260200183838082843760009201919091525061257d92505050565b60006110ba858533868660006131cd565b90505b949350505050565b80336001600160a01b038216148061115e5750806001600160a01b0316638da5cb5b6040518163ffffffff1660e01b815260040160206040518083038186803b15801561111157600080fd5b505afa158015611125573d6000803e3d6000fd5b505050506040513d601f19601f820116820180604052508101906111499190614bf6565b6001600160a01b0316336001600160a01b0316145b8061118c57506001600160a01b038116600090815260096020908152604080832033845290915290205460ff165b8061119c575061119c8133610ca3565b6111b85760405162461bcd60e51b8152600401610980906152f9565b6001600160a01b038216600090815260016020526040902054829060ff166111df57600080fd5b6001600160a01b038316600081815260016020908152604091829020805460ff1916905590513381527f3d072963433794eb417a69355df67d08bbd73d5076ef653d6863861161d60af391015b60405180910390a2505050565b6000610cc58383613424565b6001600160a01b0382166000908152600460205260408120610cc5908361298a565b82336001600160a01b03821614806113005750806001600160a01b0316638da5cb5b6040518163ffffffff1660e01b815260040160206040518083038186803b1580156112b357600080fd5b505afa1580156112c7573d6000803e3d6000fd5b505050506040513d601f19601f820116820180604052508101906112eb9190614bf6565b6001600160a01b0316336001600160a01b0316145b8061132e57506001600160a01b038116600090815260096020908152604080832033845290915290205460ff165b61134a5760405162461bcd60e51b81526004016109809061541d565b506001600160a01b0390921660009081526011602090815260408083209383529290522055565b81336001600160a01b038216148061140a5750806001600160a01b0316638da5cb5b6040518163ffffffff1660e01b815260040160206040518083038186803b1580156113bd57600080fd5b505afa1580156113d1573d6000803e3d6000fd5b505050506040513d601f19601f820116820180604052508101906113f59190614bf6565b6001600160a01b0316336001600160a01b0316145b8061143857506001600160a01b038116600090815260096020908152604080832033845290915290205460ff165b8061144857506114488133610ddd565b6114645760405162461bcd60e51b8152600401610980906153e8565b610c9e83836134ca565b60006110ba858533868660016131cd565b60006110bd848484613530565b6000610b908b8b338c8c8c8c610ace8d61256a565b80336001600160a01b038216148061153a5750806001600160a01b0316638da5cb5b6040518163ffffffff1660e01b815260040160206040518083038186803b1580156114ed57600080fd5b505afa158015611501573d6000803e3d6000fd5b505050506040513d601f19601f820116820180604052508101906115259190614bf6565b6001600160a01b0316336001600160a01b0316145b8061156857506001600160a01b038116600090815260096020908152604080832033845290915290205460ff165b8061157857506115788133610ca3565b6115945760405162461bcd60e51b8152600401610980906152f9565b6001600160a01b038216600090815260016020526040902054829060ff16156115bc57600080fd5b6001600160a01b038316600081815260016020818152604092839020805460ff191690921790915590513381527f3dd4f37ca5eaf6c357698a52c806820426d7c9a26adb0991c3bebb09cf23352a910161122c565b600061161c8561314f565b610b908b8b338c8c8c8c8c8c8c8c8080601f01602080910402602001604051908101604052809392919081815260200183838082843760009201919091525061257d92505050565b600061166f8561314f565b6001600160a01b038a166116955760405162461bcd60e51b815260040161098090615329565b610b0b8c8c8c8c8c8c8c8c8c8c8c8080601f01602080910402602001604051908101604052809392919081815260200183838082843760009201919091525061257d92505050565b6000806117786116f06020850185614bd9565b6116fd602086018661545e565b8080601f016020809104026020016040519081016040528093929190818152602001838380828437600092019190915250611742925050506080870160608801614bd9565b61175061010088018861545e565b1515905061176a5761176560e088018861545e565b610e64565b610e6461010088018861545e565b505090508080156117fb57506117fb6117946020850185614bd9565b6117a1602086018661545e565b8080601f0160208091040260200160405190810160405280939291908181526020018383808284376000920191909152506117e69250505060a0870160808801614bd9565b6117f660c0880160a08901614bd9565b612d11565b905080801561181757506118156104bb6020850185614bd9565b155b905080801561184057506118406118316020850185614bd9565b84604001358560c00135612e50565b9050808015610cc55750610cc561185a6020850185614bd9565b604085013561186f6080870160608801614bd9565b61187f60a0880160808901614bd9565b61188f60c0890160a08a01614bd9565b8860c00135612ee5565b81336001600160a01b03821614806119325750806001600160a01b0316638da5cb5b6040518163ffffffff1660e01b815260040160206040518083038186803b1580156118e557600080fd5b505afa1580156118f9573d6000803e3d6000fd5b505050506040513d601f19601f8201168201806040525081019061191d9190614bf6565b6001600160a01b0316336001600160a01b0316145b8061196057506001600160a01b038116600090815260096020908152604080832033845290915290205460ff165b80611970575061197081336119b8565b61198c5760405162461bcd60e51b81526004016109809061536f565b610c9e83836135e5565b6001600160a01b0382166000908152600260205260408120610cc5908361298a565b6001600160a01b0382166000908152600560205260408120610cc5908361298a565b6001600160a01b0382166000908152600660205260408120610cc5908361298a565b6001600160a01b0381166000908152600c6020908152604080832054600a835281842054600b845282852054600f85528386205460108652848720546008875285882080548751818a0281018a01909852808852899889988998899860609860ff928316989183169790831696918316959216939092918391830182828015611aae57602002820191906000526020600020905b81546001600160a01b03168152600190910190602001808311611a90575b5050505050905095509550955095509550955091939550919395565b6000611ad58461314f565b611b1786868686868080601f01602080910402602001604051908101604052809392919081815260200183838082843760009201919091525061364b92505050565b9695505050505050565b6000610cc58383613883565b81336001600160a01b0382161480611bc65750806001600160a01b0316638da5cb5b6040518163ffffffff1660e01b815260040160206040518083038186803b158015611b7957600080fd5b505afa158015611b8d573d6000803e3d6000fd5b505050506040513d601f19601f82011682018060405250810190611bb19190614bf6565b6001600160a01b0316336001600160a01b0316145b80611bf457506001600160a01b038116600090815260096020908152604080832033845290915290205460ff165b80611c045750611c0481336119b8565b611c205760405162461bcd60e51b81526004016109809061536f565b610c9e8383613b54565b81336001600160a01b0382161480611cc35750806001600160a01b0316638da5cb5b6040518163ffffffff1660e01b815260040160206040518083038186803b158015611c7657600080fd5b505afa158015611c8a573d6000803e3d6000fd5b505050506040513d601f19601f82011682018060405250810190611cae9190614bf6565b6001600160a01b0316336001600160a01b0316145b80611cf157506001600160a01b038116600090815260096020908152604080832033845290915290205460ff165b80611d015750611d018133611996565b611d1d5760405162461bcd60e51b8152600401610980906153a6565b610c9e8383613bba565b6000611b178686611d378761256a565b86868080601f01602080910402602001604051908101604052809392919081815260200183838082843760009201919091525061364b92505050565b81336001600160a01b0382161480611e0c5750806001600160a01b0316638da5cb5b6040518163ffffffff1660e01b815260040160206040518083038186803b158015611dbf57600080fd5b505afa158015611dd3573d6000803e3d6000fd5b505050506040513d601f19601f82011682018060405250810190611df79190614bf6565b6001600160a01b0316336001600160a01b0316145b80611e3a57506001600160a01b038116600090815260096020908152604080832033845290915290205460ff165b80611e4a5750611e4a8133610ddd565b611e665760405162461bcd60e51b8152600401610980906153e8565b610c9e83836123b9565b61089a8133613c20565b81336001600160a01b0382161480611f135750806001600160a01b0316638da5cb5b6040518163ffffffff1660e01b815260040160206040518083038186803b158015611ec657600080fd5b505afa158015611eda573d6000803e3d6000fd5b505050506040513d601f19601f82011682018060405250810190611efe9190614bf6565b6001600160a01b0316336001600160a01b0316145b80611f4157506001600160a01b038116600090815260096020908152604080832033845290915290205460ff165b80611f515750611f518133611996565b611f6d5760405162461bcd60e51b8152600401610980906153a6565b610c9e8383612a0d565b81336001600160a01b03821614806120105750806001600160a01b0316638da5cb5b6040518163ffffffff1660e01b815260040160206040518083038186803b158015611fc357600080fd5b505afa158015611fd7573d6000803e3d6000fd5b505050506040513d601f19601f82011682018060405250810190611ffb9190614bf6565b6001600160a01b0316336001600160a01b0316145b8061203e57506001600160a01b038116600090815260096020908152604080832033845290915290205460ff165b8061204e575061204e8133610ca3565b61206a5760405162461bcd60e51b8152600401610980906152f9565b610c9e8383613c86565b81336001600160a01b038216148061210d5750806001600160a01b0316638da5cb5b6040518163ffffffff1660e01b815260040160206040518083038186803b1580156120c057600080fd5b505afa1580156120d4573d6000803e3d6000fd5b505050506040513d601f19601f820116820180604052508101906120f89190614bf6565b6001600160a01b0316336001600160a01b0316145b8061213b57506001600160a01b038116600090815260096020908152604080832033845290915290205460ff165b8061214b575061214b81336119b8565b6121675760405162461bcd60e51b81526004016109809061536f565b610c9e8383613c20565b81336001600160a01b038216148061220a5750806001600160a01b0316638da5cb5b6040518163ffffffff1660e01b815260040160206040518083038186803b1580156121bd57600080fd5b505afa1580156121d1573d6000803e3d6000fd5b505050506040513d601f19601f820116820180604052508101906121f59190614bf6565b6001600160a01b0316336001600160a01b0316145b8061223857506001600160a01b038116600090815260096020908152604080832033845290915290205460ff165b8061224857506122488133610ca3565b6122645760405162461bcd60e51b8152600401610980906152f9565b610c9e8383612a73565b81336001600160a01b03821614806123075750806001600160a01b0316638da5cb5b6040518163ffffffff1660e01b815260040160206040518083038186803b1580156122ba57600080fd5b505afa1580156122ce573d6000803e3d6000fd5b505050506040513d601f19601f820116820180604052508101906122f29190614bf6565b6001600160a01b0316336001600160a01b0316145b8061233557506001600160a01b038116600090815260096020908152604080832033845290915290205460ff165b8061234557506123458133610ddd565b6123615760405162461bcd60e51b8152600401610980906153e8565b610c9e8383613cec565b6001600760008360405160200161238291906151d1565b60408051808303601f19018152918152815160209283012083529082019290925201600020805460ff191691151591909117905550565b6001600160a01b03821660009081526003602052604090206123db9082613d52565b806001600160a01b0316826001600160a01b03167f84c618afa7439d9985b8c707a18637a9c6b0128399c0f5dee2ca90254d66fc3a60405160405180910390a35050565b60005b6001600160a01b0383166000908152600860205260409020548110156124bf576001600160a01b038316600090815260096020908152604080832060089092528220805483919085908110612479576124796155ad565b6000918252602080832091909101546001600160a01b031683528201929092526040019020805460ff1916911515919091179055806124b781615566565b915050612422565b5060005b8151811015612540576001600160a01b03831660009081526009602052604081208351600192908590859081106124fc576124fc6155ad565b6020908102919091018101516001600160a01b03168252810191909152604001600020805460ff19169115159190911790558061253881615566565b9150506124c3565b506001600160a01b03821660009081526008602090815260409091208251610c9e92840190614b06565b6000808215610a8d57610cc54284613dd4565b6001600160a01b03808b1660009081526012602090815260408083208d84529091528120909189166126005760405162461bcd60e51b815260206004820152602660248201527f50617965652061646472657373206d757374206e6f74206265207a65726f206160448201526564647265737360d01b6064820152608401610980565b8561264d5760405162461bcd60e51b815260206004820152601f60248201527f56616c7565206d7573742062652067726561746572207468616e207a65726f006044820152606401610980565b60048101541561269f5760405162461bcd60e51b815260206004820152601a60248201527f5468697320686f6c64496420616c7265616479206578697374730000000000006044820152606401610980565b6126ab8c338c86613de0565b6127165760405162461bcd60e51b815260206004820152603660248201527f4120686f6c642063616e206f6e6c7920626520637265617465642077697468206044820152756164617074656420617574686f72697a6174696f6e7360501b6064820152608401610980565b6001600160a01b038a16156127ba576127308c888c613530565b8611156127ba5760405162461bcd60e51b815260206004820152604c60248201527f416d6f756e74206f662074686520686f6c642063616e2774206265206772656160448201527f746572207468616e20746865207370656e6461626c652062616c616e6365206f60648201526b33103a34329039b2b73232b960a11b608482015260a401610980565b868155600180820180546001600160a01b038d81166001600160a01b031992831681179093556002850180548e8316908416179055600385018054918d169190921617905560048301889055600583018790556006830186905560088301805460ff1916909217909155156128a5576128348c828d613f24565b60006128918d83600001548460030160009054906101000a90046001600160a01b03168560010160009054906101000a90046001600160a01b03168660020160009054906101000a90046001600160a01b0316876004015461303b565b5060009081526017602052604090208c9055505b604080518881526001600160a01b038c811660208301528b811692820192909252606081018890526080810187905260a08101869052818a16918d91908f16907fe6adc59c6b5c7a2129126ae891955f416cc5837e1489b17e7fb03dd67d2ef4d19060c00160405180910390a45060019b9a5050505050505050505050565b6001600160a01b0382166000908152600660205260409020612946908261407f565b806001600160a01b0316826001600160a01b03167f4eef79dfdff8d6b9485c6a01d5caac6413488fc1036c03867dbf75558a3b3a3660405160405180910390a35050565b60006001600160a01b0382166129ed5760405162461bcd60e51b815260206004820152602260248201527f526f6c65733a206163636f756e7420697320746865207a65726f206164647265604482015261737360f01b6064820152608401610980565b506001600160a01b03166000908152602091909152604090205460ff1690565b6001600160a01b0382166000908152600260205260409020612a2f9082613d52565b806001600160a01b0316826001600160a01b03167f795a3a12ab7aa35ee8d4681ead2986eae8de69f5491d9dccfeca0442f644db8160405160405180910390a35050565b6001600160a01b0382166000908152602081905260409020612a959082613d52565b806001600160a01b0316826001600160a01b03167fb75903ade4a0fdb07d60c882c22c779e2e1c751883c37aecdcc92a8ec72b046e60405160405180910390a35050565b6001600160a01b0382166000908152600460205260409020612afb908261407f565b806001600160a01b0316826001600160a01b03167ff537a4c39a5575220902fda69b79909e02d44c8a7146b1a1c3b936f86aa71e3860405160405180910390a35050565b60008080806001600160a01b0388166000908152600c602052604090205460ff166002811115612b7157612b71615597565b118015612b825750612b82866140fb565b8015612b955750612b938786611996565b155b8015612baa5750306001600160a01b03861614155b15612c505760026001600160a01b0388166000908152600c602052604090205460ff166002811115612bde57612bde615597565b1415612c2157600080612bf389888a8961414f565b915091508115612c0e5760019450600293509150612c5b9050565b6000600260009450945094505050612c5b565b612c2d87868887614446565b15612c415750600191508190506000612c5b565b50600091506001905081612c5b565b506001915060009050805b9450945094915050565b6001836002811115612c7957612c79615597565b1415612cc2576001600160a01b038085166000908152600d602090815260408083209386168352929052908120805460019290612cb79084906154a5565b90915550612d0b9050565b6002836002811115612cd657612cd6615597565b1415612d0b576001600160a01b0384166000908152600e602090815260408083208484529091529020805460ff191660011790555b50505050565b6000612d1c846140fb565b1580612d5257506001600160a01b0385166000908152600c602052604081205460ff166002811115612d5057612d50615597565b145b15612e45576001600160a01b0385166000908152600a602052604090205460ff1615612dd0576001600160a01b03831615801590612d975750612d958584611245565b155b15612da4575060006110bd565b6001600160a01b03821615801590612dc35750612dc18583611245565b155b15612dd0575060006110bd565b6001600160a01b0385166000908152600b602052604090205460ff1615612e45576001600160a01b03831615801590612e0e5750612e0e85846119da565b15612e1b575060006110bd565b6001600160a01b03821615801590612e385750612e3885836119da565b15612e45575060006110bd565b506001949350505050565b6001600160a01b0383166000908152600f602052604081205460ff1615612edb576001600160a01b038416600090815260116020908152604080832086845290915290205415801590612ece57506001600160a01b0384166000908152601160209081526040808320868452909152902054612ecc90836146da565b155b15612edb57506000610cc5565b5060019392505050565b6001600160a01b03861660009081526010602052604081205460ff168015612f1557506001600160a01b03841615155b1561302e57836001600160a01b0316856001600160a01b031614613014576000612f4388888888888861303b565b6001600160a01b038a16600090815260126020908152604080832084845290915290209092509050612f768188866146f9565b801561300157506040516330e8280360e01b8152600481018990526001600160a01b0387811660248301528a16906330e828039060440160206040518083038186803b158015612fc557600080fd5b505afa158015612fd9573d6000803e3d6000fd5b505050506040513d601f19601f82011682018060405250810190612ffd919061500e565b8411155b1561301157600192505050611b17565b50505b61301f878786613530565b82111561302e57506000611b17565b5060019695505050505050565b604080516bffffffffffffffffffffffff19606098891b8116602080840191909152603483019890985294881b8516605482015292871b841660688401529390951b909116607c8201526090808201949094528151808203909401845260b001815282519282019290922060008181526017909252919020549091565b60018501546001600160a01b0316156130d6576130d6868684614735565b60088501805460ff19166002179055600385015460048601546040805187815260208101929092528101859052606081018390526001600160a01b03918216918816907ff684696c1680054513509ee7893b2a90bda386e071a6fdf7c462c7539ff816a4906080015b60405180910390a3505050505050565b4281118061315b575080155b61089a5760405162461bcd60e51b815260206004820152603c60248201527f45787069726174696f6e2064617465206d75737420626520677265617465722060448201527f7468616e20626c6f636b2074696d657374616d70206f72207a65726f000000006064820152608401610980565b6001600160a01b038616600090815260126020908152604080832088845290915281208184158015906132065750613206828787614850565b1561321a575060078101849055600161322e565b6132258288886146f9565b1561322e575060015b80156133d0578380156132505750600086836004015461324e9190615523565b115b156132685761326389838a898a8a61486d565b61327a565b61327a89838a8986600401548a6130b8565b60018201546001600160a01b031661331057815460028301546040516367c8491960e01b815260048101929092526001600160a01b0390811660248301526044820188905260806064830152600060848301528a16906367c849199060a401600060405180830381600087803b1580156132f357600080fd5b505af1158015613307573d6000803e3d6000fd5b50505050613418565b8154600183015460028401546040516323037ba760e21b815260048101939093526001600160a01b039182166024840152811660448301526064820188905260c06084830152600060c4830181905260e060a484015260e48301528a1690638c0dee9c9061010401602060405180830381600087803b15801561339257600080fd5b505af11580156133a6573d6000803e3d6000fd5b505050506040513d601f19601f820116820180604052508101906133ca919061500e565b50613418565b60405162461bcd60e51b815260206004820152601860248201527f686f6c642063616e206e6f7420626520657865637574656400000000000000006044820152606401610980565b50509695505050505050565b6001600160a01b038281166000818152601360209081526040808320948616808452949091528082205490516370a0823160e01b8152600481019490945290929091906370a082319060240160206040518083038186803b15801561348857600080fd5b505afa15801561349c573d6000803e3d6000fd5b505050506040513d601f19601f820116820180604052508101906134c0919061500e565b610cc59190615523565b6001600160a01b03821660009081526004602052604090206134ec9082613d52565b806001600160a01b0316826001600160a01b03167f99c45157365b22d82f22eea7bc8cff76cb53628113f4b52b10f83db3b404001660405160405180910390a35050565b6001600160a01b0383811660008181526014602090815260408083209486168084529482528083208784529091528082205490516330e8280360e01b815260048101879052602481019490945290929091906330e828039060440160206040518083038186803b1580156135a357600080fd5b505afa1580156135b7573d6000803e3d6000fd5b505050506040513d601f19601f820116820180604052508101906135db919061500e565b6110bd9190615523565b6001600160a01b03821660009081526006602052604090206136079082613d52565b806001600160a01b0316826001600160a01b03167fd3e42d12ae7dae2e960401c63b158173cc9987f9ee213374eff6471eed4062e360405160405180910390a35050565b6001600160a01b038416600090815260126020908152604080832086845290915281206001600882015460ff16600681111561368957613689615597565b14806136ad57506003600882015460ff1660068111156136ab576136ab615597565b145b61372b5760405162461bcd60e51b815260206004820152604360248201527f4120686f6c642063616e206f6e6c792062652072656e6577656420696e20737460448201527f61747573204f726465726564206f72204578656375746564416e644b6570744f6064820152623832b760e91b608482015260a401610980565b613738816005015461490a565b156137905760405162461bcd60e51b815260206004820152602260248201527f416e206578706972656420686f6c642063616e206e6f742062652072656e6577604482015261195960f21b6064820152608401610980565b60018101546137ac90879033906001600160a01b031686613de0565b6138175760405162461bcd60e51b815260206004820152603660248201527f4120686f6c642063616e206f6e6c792062652072656e657765642077697468206044820152756164617074656420617574686f72697a6174696f6e7360501b6064820152608401610980565b60058101805490859055600382015460408051888152602081018490529081018790526001600160a01b03918216918916907fa0bc54a9dd12fde7c7d2647b3f98b13480b32abe8b5b2a448102d90750e4abe29060600160405180910390a35060019695505050505050565b6001600160a01b038216600090815260126020908152604080832084845290915281206001600882015460ff1660068111156138c1576138c1615597565b14806138e557506003600882015460ff1660068111156138e3576138e3615597565b145b6139655760405162461bcd60e51b8152602060048201526044602482018190527f4120686f6c642063616e206f6e6c792062652072656c656173656420696e2073908201527f7461747573204f726465726564206f72204578656375746564416e644b65707460648201526327b832b760e11b608482015260a401610980565b613972816005015461490a565b80613989575060038101546001600160a01b031633145b806139a0575060028101546001600160a01b031633145b613a1d5760405162461bcd60e51b815260206004820152604260248201527f41206e6f74206578706972656420686f6c642063616e206f6e6c79206265207260448201527f656c656173656420627920746865206e6f74617279206f722074686520706179606482015261656560f01b608482015260a401610980565b613a2a816005015461490a565b15613a4b576008810180546006919060ff19166001835b0217905550613a86565b60038101546001600160a01b0316331415613a76576008810180546004919060ff1916600183613a41565b60088101805460ff191660051790555b60018101546001600160a01b031615613af357613aa884828360040154614735565b80546003820154600183015460028401546004850154600094613ae1948a9491936001600160a01b03918216939282169291169061303b565b50600090815260176020526040812055505b600381015460088201546040516001600160a01b03928316928716917ff443be38655a05232d021221bd7a13d2901adb2a897ac88b77af9ca9c6938aa991613b4291889160ff9091169061523e565b60405180910390a35060019392505050565b6001600160a01b0382166000908152600560205260409020613b76908261407f565b806001600160a01b0316826001600160a01b03167fc52e3252244a1a2a298f7b5a9f8e964ab8737811b620a1426c0b95e3037bba9e60405160405180910390a35050565b6001600160a01b0382166000908152600260205260409020613bdc908261407f565b806001600160a01b0316826001600160a01b03167f9a01aee9f656aba8760d771cf21d803168ecc664c252c9374f4a3252481fbf3560405160405180910390a35050565b6001600160a01b0382166000908152600560205260409020613c429082613d52565b806001600160a01b0316826001600160a01b03167f2e4e5dc902da1dd9425aa2acf081cc51d589443784af4c3fd7d5fe60d5915cd060405160405180910390a35050565b6001600160a01b0382166000908152602081905260409020613ca8908261407f565b806001600160a01b0316826001600160a01b03167fe0953c403a52f9dc1fef4202a8d33975c958b727bee0d7b5b328965ddad98d8160405160405180910390a35050565b6001600160a01b0382166000908152600360205260409020613d0e908261407f565b806001600160a01b0316826001600160a01b03167f7a247cc00caf875946bd4af440d6b1776fe6bb625e25cad7626bedf5e6a1c37060405160405180910390a35050565b613d5c828261298a565b613db25760405162461bcd60e51b815260206004820152602160248201527f526f6c65733a206163636f756e7420646f6573206e6f74206861766520726f6c6044820152606560f81b6064820152608401610980565b6001600160a01b0316600090815260209190915260409020805460ff19169055565b6000610cc582846154a5565b600080600080613e2b886000368080601f0160208091040260200160405190810160405280939291908181526020018383808284376000920191909152508c92508a9150612b3f9050565b925092509250613e3d88838984612c65565b6001600160a01b03861615613ea357828015613e9957506001600160a01b038089166000908152600960209081526040808320938b168352929052205460ff1680613e995750856001600160a01b0316876001600160a01b0316145b93505050506110bd565b828015613e9957506040516355138f0d60e11b81526001600160a01b03888116600483015289169063aa271e1a9060240160206040518083038186803b158015613eec57600080fd5b505afa158015613f00573d6000803e3d6000fd5b505050506040513d601f19601f82011682018060405250810190613e999190614ff1565b60048201546001600160a01b038085166000908152601360209081526040808320600188015490941683529290522054613f5d91613dd4565b6001600160a01b038085166000818152601360209081526040808320600189015490951683529381528382209490945560048601549181526016909352912054613fa691613dd4565b6001600160a01b03808516600090815260166020908152604080832094909455600486015460148252848320600188015490941683529281528382208654835290529190912054613ff691613dd4565b6001600160a01b03808516600081815260146020908152604080832060018901549095168352938152838220875483528152838220949094556004860154918152601584528281208654825290935291205461405191613dd4565b6001600160a01b03909316600090815260156020908152604080832094548352939052919091209190915550565b614089828261298a565b156140d65760405162461bcd60e51b815260206004820152601f60248201527f526f6c65733a206163636f756e7420616c72656164792068617320726f6c65006044820152606401610980565b6001600160a01b0316600090815260209190915260409020805460ff19166001179055565b6000806141078361491d565b90506001600160e01b0319811663a9059cbb60e01b148061413857506001600160e01b031981166323b872dd60e01b145b156141465750600092915050565b50600192915050565b60008082516081146141665750600090508061443d565b6020830151604084015160a085015160001a4282101561418f576000809450945050505061443d565b601b8160ff1610156141a9576141a6601b826154bd565b90505b8060ff16601b14806141be57508060ff16601c145b156144325786516000906141d39060c06149ce565b67ffffffffffffffff8111156141eb576141eb6155c3565b6040519080825280601f01601f191660200182016040528015614215576020820181803683370190505b50905060005b88516142289060c06149ce565b81101561428757888181518110614241576142416155ad565b602001015160f81c60f81b82828151811061425e5761425e6155ad565b60200101906001600160f81b031916908160001a9053508061427f81615566565b91505061421b565b506000898b8386886040516020016142a395949392919061517f565b604051602081830303815290604052905060008b6001600160a01b031663a8082cb06040518163ffffffff1660e01b815260040160206040518083038186803b1580156142ef57600080fd5b505afa158015614303573d6000803e3d6000fd5b505050506040513d601f19601f82011682018060405250810190614327919061500e565b8280519060200120604051602001614349929190918252602082015260400190565b60405160208183030381529060405280519060200120905060008060608b0151915060808b015190506143e38e600185898686604051600081526020016040526040516143b2949392919093845260ff9290921660208401526040830152606082015260800190565b6020604051602081039080840390855afa1580156143d4573d6000803e3d6000fd5b50505060206040510351611996565b801561441357506001600160a01b038e166000908152600e602090815260408083208b845290915290205460ff16155b1561442c5760018899509950505050505050505061443d565b50505050505b600080945094505050505b94509492505050565b60008151606114614459575060006110bd565b6020820151608083015160001a42821015614479576000925050506110bd565b601b8160ff16101561449357614490601b826154bd565b90505b8060ff16601b14806144a857508060ff16601c145b156146cd5784516000906144bd9060a06149ce565b67ffffffffffffffff8111156144d5576144d56155c3565b6040519080825280601f01601f1916602001820160405280156144ff576020820181803683370190505b50905060005b86516145129060a06149ce565b8110156145715786818151811061452b5761452b6155ad565b602001015160f81c60f81b828281518110614548576145486155ad565b60200101906001600160f81b031916908160001a9053508061456981615566565b915050614505565b506001600160a01b038089166000908152600d60209081526040808320938b16835292815282822054925191926145b0928b928d9287928a920161517f565b60405160208183030381529060405290506000896001600160a01b031663a8082cb06040518163ffffffff1660e01b815260040160206040518083038186803b1580156145fc57600080fd5b505afa158015614610573d6000803e3d6000fd5b505050506040513d601f19601f82011682018060405250810190614634919061500e565b8280519060200120604051602001614656929190918252602082015260400190565b60408051601f1981840301815282825280516020918201208a8301516060808d01516000875293860180865283905260ff8a169486019490945292840183905260808401829052935090916146b2908d9060019060a0016143b2565b156146c75760019750505050505050506110bd565b50505050505b5060009695505050505050565b6000816146f1846146eb83826149da565b906149e6565b149392505050565b60038301546000906001600160a01b038481169116148015614720575061472084836149f2565b1561472d57506001610cc5565b506000610cc5565b6001600160a01b03808416600090815260136020908152604080832060018701549094168352929052205461476a90826149ce565b6001600160a01b038085166000818152601360209081526040808320600189015490951683529381528382209490945590815260169092529020546147af90826149ce565b6001600160a01b0380851660009081526016602090815260408083209490945560148152838220600187015490931682529182528281208554825290915220546147f990826149ce565b6001600160a01b0380851660008181526014602090815260408083206001890154909516835293815283822087548352815283822094909455908152601583528181208554825290925290205461405190826149ce565b600061485c8483614a82565b8015614720575061472084846149f2565b60018501546001600160a01b03161561488b5761488b868684614735565b60088501805460ff1916600317905560048501546148a990846149ce565b6004860181905560038601546040805187815260208101939093528201859052606082018390526001600160a01b0390811691908816907f4d230199a8973380b96ad366f3dd8665b4dc0309b3fc73f02137159ae4bd229f9060800161313f565b60008115801590610a8d57505042101590565b6000601882600381518110614934576149346155ad565b016020015183516001600160f81b031990911690911c9060109084906002908110614961576149616155ad565b016020015184516001600160f81b031990911690911c906008908590600190811061498e5761498e6155ad565b016020015185516001600160f81b031990911690911c9085906000906149b6576149b66155ad565b01602001516001600160f81b03191617171792915050565b6000610cc58284615523565b6000610cc582846154e2565b6000610cc58284615504565b60006001600884015460ff166006811115614a0f57614a0f615597565b1480614a3357506003600884015460ff166006811115614a3157614a31615597565b145b614a3f57506000610a8d565b81614a4c57506000610a8d565b614a59836005015461490a565b15614a6657506000610a8d565b8260040154821115614a7a57506000610a8d565b506001610a8d565b6000600282604051602001614a9991815260200190565b60408051601f1981840301815290829052614ab3916151d1565b602060405180830381855afa158015614ad0573d6000803e3d6000fd5b5050506040513d601f19601f82011682018060405250810190614af3919061500e565b83600601541415610b7257506001610a8d565b828054828255906000526020600020908101928215614b5b579160200282015b82811115614b5b57825182546001600160a01b0319166001600160a01b03909116178255602090920191600190910190614b26565b50614b67929150614b6b565b5090565b5b80821115614b675760008155600101614b6c565b8035614b8b816155d9565b919050565b60008083601f840112614ba257600080fd5b50813567ffffffffffffffff811115614bba57600080fd5b602083019150836020828501011115614bd257600080fd5b9250929050565b600060208284031215614beb57600080fd5b8135610cc5816155d9565b600060208284031215614c0857600080fd5b8151610cc5816155d9565b60008060408385031215614c2657600080fd5b8235614c31816155d9565b91506020830135614c41816155d9565b809150509250929050565b60008060408385031215614c5f57600080fd5b8235614c6a816155d9565b946020939093013593505050565b600080600060608486031215614c8d57600080fd5b8335614c98816155d9565b9250602084013591506040840135614caf816155d9565b809150509250925092565b60008060008060008060008060008060006101408c8e031215614cdc57600080fd5b8b35614ce7816155d9565b9a5060208c0135995060408c0135614cfe816155d9565b985060608c0135614d0e816155d9565b975060808c0135614d1e816155d9565b965060a08c0135955060c08c0135945060e08c013593506101008c013592506101208c013567ffffffffffffffff811115614d5857600080fd5b614d648e828f01614b90565b915080935050809150509295989b509295989b9093969950565b6000806000806000806000806000806101208b8d031215614d9e57600080fd5b8a35614da9816155d9565b995060208b0135985060408b0135614dc0816155d9565b975060608b0135614dd0816155d9565b965060808b0135955060a08b0135945060c08b0135935060e08b013592506101008b013567ffffffffffffffff811115614e0957600080fd5b614e158d828e01614b90565b915080935050809150509295989b9194979a5092959850565b600080600060608486031215614e4357600080fd5b8335614e4e816155d9565b95602085013595506040909401359392505050565b60008060008060808587031215614e7957600080fd5b8435614e84816155d9565b966020860135965060408601359560600135945092505050565b600080600080600060808688031215614eb657600080fd5b8535614ec1816155d9565b94506020860135935060408601359250606086013567ffffffffffffffff811115614eeb57600080fd5b614ef788828901614b90565b969995985093965092949392505050565b60008060008060008060008060e0898b031215614f2457600080fd5b8835614f2f816155d9565b9750602089013560038110614f4357600080fd5b96506040890135614f53816155ee565b95506060890135614f63816155ee565b94506080890135614f73816155ee565b935060a0890135614f83816155ee565b925060c089013567ffffffffffffffff80821115614fa057600080fd5b818b0191508b601f830112614fb457600080fd5b813581811115614fc357600080fd5b8c60208260051b8501011115614fd857600080fd5b6020830194508093505050509295985092959890939650565b60006020828403121561500357600080fd5b8151610cc5816155ee565b60006020828403121561502057600080fd5b5051919050565b6000806040838503121561503a57600080fd5b823591506020830135614c41816155d9565b60008060008060008060008060008060006101008c8e03121561506e57600080fd5b67ffffffffffffffff808d35111561508557600080fd5b6150928e8e358f01614b90565b909c509a5060208d013599506150aa60408e01614b80565b98506150b860608e01614b80565b97506150c660808e01614b80565b965060a08d013595508060c08e013511156150e057600080fd5b6150f08e60c08f01358f01614b90565b909550935060e08d013581101561510657600080fd5b506151178d60e08e01358e01614b90565b81935080925050509295989b509295989b9093969950565b60006020828403121561514157600080fd5b813567ffffffffffffffff81111561515857600080fd5b82016101208185031215610cc557600080fd5b6007811061517b5761517b615597565b9052565b60006bffffffffffffffffffffffff19808860601b168352808760601b1660148401525084516151b681602885016020890161553a565b90910160288101939093525060488201526068019392505050565b600082516151e381846020870161553a565b9190910192915050565b8981526001600160a01b0389811660208301528881166040830152871660608201526080810186905260a0810185905260c0810184905260e081018390526101208101610b9361010083018461516b565b82815260408101610cc5602083018461516b565b600060c082016003891061526857615268615597565b88835260208815158185015287151560408501528615156060850152851515608085015260c060a085015281855180845260e086019150828701935060005b818110156152cc5784516001600160a01b0316835293830193918301916001016152a7565b50909b9a5050505050505050505050565b6020808252600290820152610d4d60f21b604082015260600190565b60208082526016908201527529b2b73232b91034b9903737ba1030903830bab9b2b960511b604082015260600190565b60208082526026908201527f50617965722061646472657373206d757374206e6f74206265207a65726f206160408201526564647265737360d01b606082015260800190565b6020808252601f908201527f53656e646572206973206e6f74206120626c6f636b6c6973742061646d696e00604082015260600190565b60208082526022908201527f53656e646572206973206e6f742061206365727469666963617465207369676e60408201526132b960f11b606082015260800190565b6020808252818101527f53656e646572206973206e6f7420616e20616c6c6f776c6973742061646d696e604082015260600190565b60208082526021908201527f53656e646572206973206e6f74206120746f6b656e20636f6e74726f6c6c65726040820152601760f91b606082015260800190565b6000808335601e1984360301811261547557600080fd5b83018035915067ffffffffffffffff82111561549057600080fd5b602001915036819003821315614bd257600080fd5b600082198211156154b8576154b8615581565b500190565b600060ff821660ff84168060ff038211156154da576154da615581565b019392505050565b6000826154ff57634e487b7160e01b600052601260045260246000fd5b500490565b600081600019048311821515161561551e5761551e615581565b500290565b60008282101561553557615535615581565b500390565b60005b8381101561555557818101518382015260200161553d565b83811115612d0b5750506000910152565b600060001982141561557a5761557a615581565b5060010190565b634e487b7160e01b600052601160045260246000fd5b634e487b7160e01b600052602160045260246000fd5b634e487b7160e01b600052603260045260246000fd5b634e487b7160e01b600052604160045260246000fd5b6001600160a01b038116811461089a57600080fd5b801515811461089a57600080fdfea2646970667358221220ed62af5b5cb0d64366fad18f5c1e48e634e8915016aa0b843e2ed680e598776a64736f6c63430008070033",
			"opcodes": "PUSH1 0x80 PUSH1 0x40 MSTORE CALLVALUE DUP1 ISZERO PUSH3 0x11 JUMPI PUSH1 0x0 DUP1 REVERT JUMPDEST POP PUSH3 0x5D PUSH1 0x40 MLOAD DUP1 PUSH1 0x40 ADD PUSH1 0x40 MSTORE DUP1 PUSH1 0x16 DUP2 MSTORE PUSH1 0x20 ADD PUSH32 0x45524331343030546F6B656E7356616C696461746F7200000000000000000000 DUP2 MSTORE POP PUSH3 0x63 PUSH1 0x20 SHL PUSH3 0x236B OR PUSH1 0x20 SHR JUMP JUMPDEST PUSH3 0xF1 JUMP JUMPDEST PUSH1 0x1 PUSH1 0x7 PUSH1 0x0 DUP4 PUSH1 0x40 MLOAD PUSH1 0x20 ADD PUSH3 0x7C SWAP2 SWAP1 PUSH3 0xB3 JUMP JUMPDEST PUSH1 0x40 DUP1 MLOAD DUP1 DUP4 SUB PUSH1 0x1F NOT ADD DUP2 MSTORE SWAP2 DUP2 MSTORE DUP2 MLOAD PUSH1 0x20 SWAP3 DUP4 ADD KECCAK256 DUP4 MSTORE SWAP1 DUP3 ADD SWAP3 SWAP1 SWAP3 MSTORE ADD PUSH1 0x0 KECCAK256 DUP1 SLOAD PUSH1 0xFF NOT AND SWAP2 ISZERO ISZERO SWAP2 SWAP1 SWAP2 OR SWAP1 SSTORE POP JUMP JUMPDEST PUSH1 0x0 DUP3 MLOAD PUSH1 0x0 JUMPDEST DUP2 DUP2 LT ISZERO PUSH3 0xD6 JUMPI PUSH1 0x20 DUP2 DUP7 ADD DUP2 ADD MLOAD DUP6 DUP4 ADD MSTORE ADD PUSH3 0xBA JUMP JUMPDEST DUP2 DUP2 GT ISZERO PUSH3 0xE6 JUMPI PUSH1 0x0 DUP3 DUP6 ADD MSTORE JUMPDEST POP SWAP2 SWAP1 SWAP2 ADD SWAP3 SWAP2 POP POP JUMP JUMPDEST PUSH2 0x5632 DUP1 PUSH3 0x101 PUSH1 0x0 CODECOPY PUSH1 0x0 RETURN INVALID PUSH1 0x80 PUSH1 0x40 MSTORE CALLVALUE DUP1 ISZERO PUSH2 0x10 JUMPI PUSH1 0x0 DUP1 REVERT JUMPDEST POP PUSH1 0x4 CALLDATASIZE LT PUSH2 0x30C JUMPI PUSH1 0x0 CALLDATALOAD PUSH1 0xE0 SHR DUP1 PUSH4 0x6EB6AD8F GT PUSH2 0x19D JUMPI DUP1 PUSH4 0xB090BEE7 GT PUSH2 0xE9 JUMPI DUP1 PUSH4 0xE323E671 GT PUSH2 0xA2 JUMPI DUP1 PUSH4 0xEB5314BD GT PUSH2 0x7C JUMPI DUP1 PUSH4 0xEB5314BD EQ PUSH2 0x844 JUMPI DUP1 PUSH4 0xEBF42F77 EQ PUSH2 0x857 JUMPI DUP1 PUSH4 0xED2F9095 EQ PUSH2 0x86A JUMPI DUP1 PUSH4 0xFA061CA0 EQ PUSH2 0x87D JUMPI PUSH1 0x0 DUP1 REVERT JUMPDEST DUP1 PUSH4 0xE323E671 EQ PUSH2 0x7DD JUMPI DUP1 PUSH4 0xE34A11EC EQ PUSH2 0x7F0 JUMPI DUP1 PUSH4 0xE81EA541 EQ PUSH2 0x831 JUMPI PUSH1 0x0 DUP1 REVERT JUMPDEST DUP1 PUSH4 0xB090BEE7 EQ PUSH2 0x76B JUMPI DUP1 PUSH4 0xC1C60FE2 EQ PUSH2 0x77E JUMPI DUP1 PUSH4 0xC428B202 EQ PUSH2 0x791 JUMPI DUP1 PUSH4 0xC69664BB EQ PUSH2 0x7A4 JUMPI DUP1 PUSH4 0xD47AC02A EQ PUSH2 0x7B7 JUMPI DUP1 PUSH4 0xDFE15DA0 EQ PUSH2 0x7CA JUMPI PUSH1 0x0 DUP1 REVERT JUMPDEST DUP1 PUSH4 0x98A53EF5 GT PUSH2 0x156 JUMPI DUP1 PUSH4 0xA28E7C02 GT PUSH2 0x130 JUMPI DUP1 PUSH4 0xA28E7C02 EQ PUSH2 0x6EA JUMPI DUP1 PUSH4 0xA4AA023F EQ PUSH2 0x6FD JUMPI DUP1 PUSH4 0xA54CDF6A EQ PUSH2 0x710 JUMPI DUP1 PUSH4 0xACCF6175 EQ PUSH2 0x746 JUMPI PUSH1 0x0 DUP1 REVERT JUMPDEST DUP1 PUSH4 0x98A53EF5 EQ PUSH2 0x6B1 JUMPI DUP1 PUSH4 0x9BD483EC EQ PUSH2 0x6C4 JUMPI DUP1 PUSH4 0x9E59CEBA EQ PUSH2 0x6D7 JUMPI PUSH1 0x0 DUP1 REVERT JUMPDEST DUP1 PUSH4 0x6EB6AD8F EQ PUSH2 0x63F JUMPI DUP1 PUSH4 0x732C916B EQ PUSH2 0x652 JUMPI DUP1 PUSH4 0x73E7B160 EQ PUSH2 0x665 JUMPI DUP1 PUSH4 0x76A67A51 EQ PUSH2 0x678 JUMPI DUP1 PUSH4 0x89D3A639 EQ PUSH2 0x68B JUMPI DUP1 PUSH4 0x9672D64B EQ PUSH2 0x69E JUMPI PUSH1 0x0 DUP1 REVERT JUMPDEST DUP1 PUSH4 0x41EB24BB GT PUSH2 0x25C JUMPI DUP1 PUSH4 0x54C6F08C GT PUSH2 0x215 JUMPI DUP1 PUSH4 0x61AED064 GT PUSH2 0x1EF JUMPI DUP1 PUSH4 0x61AED064 EQ PUSH2 0x5CD JUMPI DUP1 PUSH4 0x61C2E281 EQ PUSH2 0x606 JUMPI DUP1 PUSH4 0x62E93FFA EQ PUSH2 0x619 JUMPI DUP1 PUSH4 0x685E2519 EQ PUSH2 0x62C JUMPI PUSH1 0x0 DUP1 REVERT JUMPDEST DUP1 PUSH4 0x54C6F08C EQ PUSH2 0x594 JUMPI DUP1 PUSH4 0x57B001F9 EQ PUSH2 0x5A7 JUMPI DUP1 PUSH4 0x5B4B2FD3 EQ PUSH2 0x5BA JUMPI PUSH1 0x0 DUP1 REVERT JUMPDEST DUP1 PUSH4 0x41EB24BB EQ PUSH2 0x4FF JUMPI DUP1 PUSH4 0x4261699F EQ PUSH2 0x512 JUMPI DUP1 PUSH4 0x42BE5787 EQ PUSH2 0x525 JUMPI DUP1 PUSH4 0x450999A0 EQ PUSH2 0x538 JUMPI DUP1 PUSH4 0x520FAA76 EQ PUSH2 0x56E JUMPI DUP1 PUSH4 0x530B8EDD EQ PUSH2 0x581 JUMPI PUSH1 0x0 DUP1 REVERT JUMPDEST DUP1 PUSH4 0x249CB3FA GT PUSH2 0x2C9 JUMPI DUP1 PUSH4 0x2C55B05F GT PUSH2 0x2A3 JUMPI DUP1 PUSH4 0x2C55B05F EQ PUSH2 0x49A JUMPI DUP1 PUSH4 0x2E48152C EQ PUSH2 0x4AD JUMPI DUP1 PUSH4 0x2FD33398 EQ PUSH2 0x4D9 JUMPI DUP1 PUSH4 0x3BDDAF8F EQ PUSH2 0x4EC JUMPI PUSH1 0x0 DUP1 REVERT JUMPDEST DUP1 PUSH4 0x249CB3FA EQ PUSH2 0x43B JUMPI DUP1 PUSH4 0x2744CC27 EQ PUSH2 0x44E JUMPI DUP1 PUSH4 0x279F00DD EQ PUSH2 0x487 JUMPI PUSH1 0x0 DUP1 REVERT JUMPDEST DUP1 PUSH4 0xD21CDD8 EQ PUSH2 0x311 JUMPI DUP1 PUSH4 0x118FA5DB EQ PUSH2 0x326 JUMPI DUP1 PUSH4 0x12DA4DE6 EQ PUSH2 0x339 JUMPI DUP1 PUSH4 0x1529371F EQ PUSH2 0x3CE JUMPI DUP1 PUSH4 0x1DB9C180 EQ PUSH2 0x405 JUMPI DUP1 PUSH4 0x2174E435 EQ PUSH2 0x418 JUMPI JUMPDEST PUSH1 0x0 DUP1 REVERT JUMPDEST PUSH2 0x324 PUSH2 0x31F CALLDATASIZE PUSH1 0x4 PUSH2 0x4BD9 JUMP JUMPDEST PUSH2 0x890 JUMP JUMPDEST STOP JUMPDEST PUSH2 0x324 PUSH2 0x334 CALLDATASIZE PUSH1 0x4 PUSH2 0x4F08 JUMP JUMPDEST PUSH2 0x89D JUMP JUMPDEST PUSH2 0x3B0 PUSH2 0x347 CALLDATASIZE PUSH1 0x4 PUSH2 0x4C4C JUMP JUMPDEST PUSH1 0x1 PUSH1 0x1 PUSH1 0xA0 SHL SUB SWAP2 DUP3 AND PUSH1 0x0 SWAP1 DUP2 MSTORE PUSH1 0x12 PUSH1 0x20 SWAP1 DUP2 MSTORE PUSH1 0x40 DUP1 DUP4 KECCAK256 SWAP4 DUP4 MSTORE SWAP3 SWAP1 MSTORE KECCAK256 DUP1 SLOAD PUSH1 0x1 DUP3 ADD SLOAD PUSH1 0x2 DUP4 ADD SLOAD PUSH1 0x3 DUP5 ADD SLOAD PUSH1 0x4 DUP6 ADD SLOAD PUSH1 0x5 DUP7 ADD SLOAD PUSH1 0x6 DUP8 ADD SLOAD PUSH1 0x7 DUP9 ADD SLOAD PUSH1 0x8 SWAP1 SWAP9 ADD SLOAD SWAP7 SWAP10 SWAP6 DUP10 AND SWAP9 SWAP5 DUP6 AND SWAP8 SWAP4 SWAP1 SWAP5 AND SWAP6 SWAP2 SWAP5 SWAP1 SWAP4 SWAP3 SWAP2 PUSH1 0xFF AND SWAP1 JUMP JUMPDEST PUSH1 0x40 MLOAD PUSH2 0x3C5 SWAP10 SWAP9 SWAP8 SWAP7 SWAP6 SWAP5 SWAP4 SWAP3 SWAP2 SWAP1 PUSH2 0x51ED JUMP JUMPDEST PUSH1 0x40 MLOAD DUP1 SWAP2 SUB SWAP1 RETURN JUMPDEST PUSH2 0x3F7 PUSH2 0x3DC CALLDATASIZE PUSH1 0x4 PUSH2 0x4BD9 JUMP JUMPDEST PUSH1 0x1 PUSH1 0x1 PUSH1 0xA0 SHL SUB AND PUSH1 0x0 SWAP1 DUP2 MSTORE PUSH1 0x16 PUSH1 0x20 MSTORE PUSH1 0x40 SWAP1 KECCAK256 SLOAD SWAP1 JUMP JUMPDEST PUSH1 0x40 MLOAD SWAP1 DUP2 MSTORE PUSH1 0x20 ADD PUSH2 0x3C5 JUMP JUMPDEST PUSH2 0x3F7 PUSH2 0x413 CALLDATASIZE PUSH1 0x4 PUSH2 0x4C13 JUMP JUMPDEST PUSH2 0xA66 JUMP JUMPDEST PUSH2 0x42B PUSH2 0x426 CALLDATASIZE PUSH1 0x4 PUSH2 0x4CBA JUMP JUMPDEST PUSH2 0xA93 JUMP JUMPDEST PUSH1 0x40 MLOAD SWAP1 ISZERO ISZERO DUP2 MSTORE PUSH1 0x20 ADD PUSH2 0x3C5 JUMP JUMPDEST PUSH2 0x3F7 PUSH2 0x449 CALLDATASIZE PUSH1 0x4 PUSH2 0x5027 JUMP JUMPDEST PUSH2 0xB1B JUMP JUMPDEST PUSH2 0x3F7 PUSH2 0x45C CALLDATASIZE PUSH1 0x4 PUSH2 0x4C13 JUMP JUMPDEST PUSH1 0x1 PUSH1 0x1 PUSH1 0xA0 SHL SUB SWAP2 DUP3 AND PUSH1 0x0 SWAP1 DUP2 MSTORE PUSH1 0xD PUSH1 0x20 SWAP1 DUP2 MSTORE PUSH1 0x40 DUP1 DUP4 KECCAK256 SWAP4 SWAP1 SWAP5 AND DUP3 MSTORE SWAP2 SWAP1 SWAP2 MSTORE KECCAK256 SLOAD SWAP1 JUMP JUMPDEST PUSH2 0x42B PUSH2 0x495 CALLDATASIZE PUSH1 0x4 PUSH2 0x4D7E JUMP JUMPDEST PUSH2 0xB7A JUMP JUMPDEST PUSH2 0x324 PUSH2 0x4A8 CALLDATASIZE PUSH1 0x4 PUSH2 0x4C13 JUMP JUMPDEST PUSH2 0xBA1 JUMP JUMPDEST PUSH2 0x42B PUSH2 0x4BB CALLDATASIZE PUSH1 0x4 PUSH2 0x4BD9 JUMP JUMPDEST PUSH1 0x1 PUSH1 0x1 PUSH1 0xA0 SHL SUB AND PUSH1 0x0 SWAP1 DUP2 MSTORE PUSH1 0x1 PUSH1 0x20 MSTORE PUSH1 0x40 SWAP1 KECCAK256 SLOAD PUSH1 0xFF AND SWAP1 JUMP JUMPDEST PUSH2 0x42B PUSH2 0x4E7 CALLDATASIZE PUSH1 0x4 PUSH2 0x4C13 JUMP JUMPDEST PUSH2 0xCA3 JUMP JUMPDEST PUSH2 0x324 PUSH2 0x4FA CALLDATASIZE PUSH1 0x4 PUSH2 0x4BD9 JUMP JUMPDEST PUSH2 0xCCC JUMP JUMPDEST PUSH2 0x324 PUSH2 0x50D CALLDATASIZE PUSH1 0x4 PUSH2 0x4BD9 JUMP JUMPDEST PUSH2 0xCD6 JUMP JUMPDEST PUSH2 0x324 PUSH2 0x520 CALLDATASIZE PUSH1 0x4 PUSH2 0x4C13 JUMP JUMPDEST PUSH2 0xCE0 JUMP JUMPDEST PUSH2 0x42B PUSH2 0x533 CALLDATASIZE PUSH1 0x4 PUSH2 0x4C13 JUMP JUMPDEST PUSH2 0xDDD JUMP JUMPDEST PUSH2 0x3F7 PUSH2 0x546 CALLDATASIZE PUSH1 0x4 PUSH2 0x4C4C JUMP JUMPDEST PUSH1 0x1 PUSH1 0x1 PUSH1 0xA0 SHL SUB SWAP2 SWAP1 SWAP2 AND PUSH1 0x0 SWAP1 DUP2 MSTORE PUSH1 0x15 PUSH1 0x20 SWAP1 DUP2 MSTORE PUSH1 0x40 DUP1 DUP4 KECCAK256 SWAP4 DUP4 MSTORE SWAP3 SWAP1 MSTORE KECCAK256 SLOAD SWAP1 JUMP JUMPDEST PUSH2 0x324 PUSH2 0x57C CALLDATASIZE PUSH1 0x4 PUSH2 0x504C JUMP JUMPDEST PUSH2 0xDFF JUMP JUMPDEST PUSH2 0x42B PUSH2 0x58F CALLDATASIZE PUSH1 0x4 PUSH2 0x4D7E JUMP JUMPDEST PUSH2 0x1055 JUMP JUMPDEST PUSH2 0x42B PUSH2 0x5A2 CALLDATASIZE PUSH1 0x4 PUSH2 0x4E63 JUMP JUMPDEST PUSH2 0x10A9 JUMP JUMPDEST PUSH2 0x324 PUSH2 0x5B5 CALLDATASIZE PUSH1 0x4 PUSH2 0x4BD9 JUMP JUMPDEST PUSH2 0x10C5 JUMP JUMPDEST PUSH2 0x3F7 PUSH2 0x5C8 CALLDATASIZE PUSH1 0x4 PUSH2 0x4C13 JUMP JUMPDEST PUSH2 0x1239 JUMP JUMPDEST PUSH2 0x42B PUSH2 0x5DB CALLDATASIZE PUSH1 0x4 PUSH2 0x4C4C JUMP JUMPDEST PUSH1 0x1 PUSH1 0x1 PUSH1 0xA0 SHL SUB SWAP2 SWAP1 SWAP2 AND PUSH1 0x0 SWAP1 DUP2 MSTORE PUSH1 0xE PUSH1 0x20 SWAP1 DUP2 MSTORE PUSH1 0x40 DUP1 DUP4 KECCAK256 SWAP4 DUP4 MSTORE SWAP3 SWAP1 MSTORE KECCAK256 SLOAD PUSH1 0xFF AND SWAP1 JUMP JUMPDEST PUSH2 0x42B PUSH2 0x614 CALLDATASIZE PUSH1 0x4 PUSH2 0x4C13 JUMP JUMPDEST PUSH2 0x1245 JUMP JUMPDEST PUSH2 0x324 PUSH2 0x627 CALLDATASIZE PUSH1 0x4 PUSH2 0x4E2E JUMP JUMPDEST PUSH2 0x1267 JUMP JUMPDEST PUSH2 0x324 PUSH2 0x63A CALLDATASIZE PUSH1 0x4 PUSH2 0x4C13 JUMP JUMPDEST PUSH2 0x1371 JUMP JUMPDEST PUSH2 0x42B PUSH2 0x64D CALLDATASIZE PUSH1 0x4 PUSH2 0x4E63 JUMP JUMPDEST PUSH2 0x146E JUMP JUMPDEST PUSH2 0x3F7 PUSH2 0x660 CALLDATASIZE PUSH1 0x4 PUSH2 0x4C78 JUMP JUMPDEST PUSH2 0x147F JUMP JUMPDEST PUSH2 0x42B PUSH2 0x673 CALLDATASIZE PUSH1 0x4 PUSH2 0x4D7E JUMP JUMPDEST PUSH2 0x148C JUMP JUMPDEST PUSH2 0x324 PUSH2 0x686 CALLDATASIZE PUSH1 0x4 PUSH2 0x4BD9 JUMP JUMPDEST PUSH2 0x14A1 JUMP JUMPDEST PUSH2 0x42B PUSH2 0x699 CALLDATASIZE PUSH1 0x4 PUSH2 0x4D7E JUMP JUMPDEST PUSH2 0x1611 JUMP JUMPDEST PUSH2 0x42B PUSH2 0x6AC CALLDATASIZE PUSH1 0x4 PUSH2 0x4CBA JUMP JUMPDEST PUSH2 0x1664 JUMP JUMPDEST PUSH2 0x42B PUSH2 0x6BF CALLDATASIZE PUSH1 0x4 PUSH2 0x512F JUMP JUMPDEST PUSH2 0x16DD JUMP JUMPDEST PUSH2 0x324 PUSH2 0x6D2 CALLDATASIZE PUSH1 0x4 PUSH2 0x4C13 JUMP JUMPDEST PUSH2 0x1899 JUMP JUMPDEST PUSH2 0x42B PUSH2 0x6E5 CALLDATASIZE PUSH1 0x4 PUSH2 0x4C13 JUMP JUMPDEST PUSH2 0x1996 JUMP JUMPDEST PUSH2 0x42B PUSH2 0x6F8 CALLDATASIZE PUSH1 0x4 PUSH2 0x4C13 JUMP JUMPDEST PUSH2 0x19B8 JUMP JUMPDEST PUSH2 0x42B PUSH2 0x70B CALLDATASIZE PUSH1 0x4 PUSH2 0x4C13 JUMP JUMPDEST PUSH2 0x19DA JUMP JUMPDEST PUSH2 0x3F7 PUSH2 0x71E CALLDATASIZE PUSH1 0x4 PUSH2 0x4C4C JUMP JUMPDEST PUSH1 0x1 PUSH1 0x1 PUSH1 0xA0 SHL SUB SWAP2 SWAP1 SWAP2 AND PUSH1 0x0 SWAP1 DUP2 MSTORE PUSH1 0x11 PUSH1 0x20 SWAP1 DUP2 MSTORE PUSH1 0x40 DUP1 DUP4 KECCAK256 SWAP4 DUP4 MSTORE SWAP3 SWAP1 MSTORE KECCAK256 SLOAD SWAP1 JUMP JUMPDEST PUSH2 0x759 PUSH2 0x754 CALLDATASIZE PUSH1 0x4 PUSH2 0x4BD9 JUMP JUMPDEST PUSH2 0x19FC JUMP JUMPDEST PUSH1 0x40 MLOAD PUSH2 0x3C5 SWAP7 SWAP6 SWAP5 SWAP4 SWAP3 SWAP2 SWAP1 PUSH2 0x5252 JUMP JUMPDEST PUSH2 0x42B PUSH2 0x779 CALLDATASIZE PUSH1 0x4 PUSH2 0x4E9E JUMP JUMPDEST PUSH2 0x1ACA JUMP JUMPDEST PUSH2 0x42B PUSH2 0x78C CALLDATASIZE PUSH1 0x4 PUSH2 0x4C4C JUMP JUMPDEST PUSH2 0x1B21 JUMP JUMPDEST PUSH2 0x324 PUSH2 0x79F CALLDATASIZE PUSH1 0x4 PUSH2 0x4C13 JUMP JUMPDEST PUSH2 0x1B2D JUMP JUMPDEST PUSH2 0x324 PUSH2 0x7B2 CALLDATASIZE PUSH1 0x4 PUSH2 0x4C13 JUMP JUMPDEST PUSH2 0x1C2A JUMP JUMPDEST PUSH2 0x42B PUSH2 0x7C5 CALLDATASIZE PUSH1 0x4 PUSH2 0x4E9E JUMP JUMPDEST PUSH2 0x1D27 JUMP JUMPDEST PUSH2 0x324 PUSH2 0x7D8 CALLDATASIZE PUSH1 0x4 PUSH2 0x4C13 JUMP JUMPDEST PUSH2 0x1D73 JUMP JUMPDEST PUSH2 0x324 PUSH2 0x7EB CALLDATASIZE PUSH1 0x4 PUSH2 0x4BD9 JUMP JUMPDEST PUSH2 0x1E70 JUMP JUMPDEST PUSH2 0x3F7 PUSH2 0x7FE CALLDATASIZE PUSH1 0x4 PUSH2 0x4C78 JUMP JUMPDEST PUSH1 0x1 PUSH1 0x1 PUSH1 0xA0 SHL SUB SWAP3 DUP4 AND PUSH1 0x0 SWAP1 DUP2 MSTORE PUSH1 0x14 PUSH1 0x20 SWAP1 DUP2 MSTORE PUSH1 0x40 DUP1 DUP4 KECCAK256 SWAP4 SWAP1 SWAP6 AND DUP3 MSTORE SWAP2 DUP3 MSTORE DUP4 DUP2 KECCAK256 SWAP3 DUP2 MSTORE SWAP2 SWAP1 MSTORE KECCAK256 SLOAD SWAP1 JUMP JUMPDEST PUSH2 0x324 PUSH2 0x83F CALLDATASIZE PUSH1 0x4 PUSH2 0x4C13 JUMP JUMPDEST PUSH2 0x1E7A JUMP JUMPDEST PUSH2 0x324 PUSH2 0x852 CALLDATASIZE PUSH1 0x4 PUSH2 0x4C13 JUMP JUMPDEST PUSH2 0x1F77 JUMP JUMPDEST PUSH2 0x324 PUSH2 0x865 CALLDATASIZE PUSH1 0x4 PUSH2 0x4C13 JUMP JUMPDEST PUSH2 0x2074 JUMP JUMPDEST PUSH2 0x324 PUSH2 0x878 CALLDATASIZE PUSH1 0x4 PUSH2 0x4C13 JUMP JUMPDEST PUSH2 0x2171 JUMP JUMPDEST PUSH2 0x324 PUSH2 0x88B CALLDATASIZE PUSH1 0x4 PUSH2 0x4C13 JUMP JUMPDEST PUSH2 0x226E JUMP JUMPDEST PUSH2 0x89A DUP2 CALLER PUSH2 0x23B9 JUMP JUMPDEST POP JUMP JUMPDEST DUP8 CALLER PUSH1 0x1 PUSH1 0x1 PUSH1 0xA0 SHL SUB DUP3 AND EQ DUP1 PUSH2 0x936 JUMPI POP DUP1 PUSH1 0x1 PUSH1 0x1 PUSH1 0xA0 SHL SUB AND PUSH4 0x8DA5CB5B PUSH1 0x40 MLOAD DUP2 PUSH4 0xFFFFFFFF AND PUSH1 0xE0 SHL DUP2 MSTORE PUSH1 0x4 ADD PUSH1 0x20 PUSH1 0x40 MLOAD DUP1 DUP4 SUB DUP2 DUP7 DUP1 EXTCODESIZE ISZERO DUP1 ISZERO PUSH2 0x8E9 JUMPI PUSH1 0x0 DUP1 REVERT JUMPDEST POP GAS STATICCALL ISZERO DUP1 ISZERO PUSH2 0x8FD JUMPI RETURNDATASIZE PUSH1 0x0 DUP1 RETURNDATACOPY RETURNDATASIZE PUSH1 0x0 REVERT JUMPDEST POP POP POP POP PUSH1 0x40 MLOAD RETURNDATASIZE PUSH1 0x1F NOT PUSH1 0x1F DUP3 ADD AND DUP3 ADD DUP1 PUSH1 0x40 MSTORE POP DUP2 ADD SWAP1 PUSH2 0x921 SWAP2 SWAP1 PUSH2 0x4BF6 JUMP JUMPDEST PUSH1 0x1 PUSH1 0x1 PUSH1 0xA0 SHL SUB AND CALLER PUSH1 0x1 PUSH1 0x1 PUSH1 0xA0 SHL SUB AND EQ JUMPDEST DUP1 PUSH2 0x964 JUMPI POP PUSH1 0x1 PUSH1 0x1 PUSH1 0xA0 SHL SUB DUP2 AND PUSH1 0x0 SWAP1 DUP2 MSTORE PUSH1 0x9 PUSH1 0x20 SWAP1 DUP2 MSTORE PUSH1 0x40 DUP1 DUP4 KECCAK256 CALLER DUP5 MSTORE SWAP1 SWAP2 MSTORE SWAP1 KECCAK256 SLOAD PUSH1 0xFF AND JUMPDEST PUSH2 0x989 JUMPI PUSH1 0x40 MLOAD PUSH3 0x461BCD PUSH1 0xE5 SHL DUP2 MSTORE PUSH1 0x4 ADD PUSH2 0x980 SWAP1 PUSH2 0x541D JUMP JUMPDEST PUSH1 0x40 MLOAD DUP1 SWAP2 SUB SWAP1 REVERT JUMPDEST PUSH1 0x1 PUSH1 0x1 PUSH1 0xA0 SHL SUB DUP10 AND PUSH1 0x0 SWAP1 DUP2 MSTORE PUSH1 0xC PUSH1 0x20 MSTORE PUSH1 0x40 SWAP1 KECCAK256 DUP1 SLOAD DUP10 SWAP2 SWAP1 PUSH1 0xFF NOT AND PUSH1 0x1 DUP4 PUSH1 0x2 DUP2 GT ISZERO PUSH2 0x9BE JUMPI PUSH2 0x9BE PUSH2 0x5597 JUMP JUMPDEST MUL OR SWAP1 SSTORE POP PUSH1 0x1 PUSH1 0x1 PUSH1 0xA0 SHL SUB DUP10 AND PUSH1 0x0 SWAP1 DUP2 MSTORE PUSH1 0xA PUSH1 0x20 SWAP1 DUP2 MSTORE PUSH1 0x40 DUP1 DUP4 KECCAK256 DUP1 SLOAD PUSH1 0xFF NOT SWAP1 DUP2 AND DUP13 ISZERO ISZERO OR SWAP1 SWAP2 SSTORE PUSH1 0xB DUP4 MSTORE DUP2 DUP5 KECCAK256 DUP1 SLOAD DUP3 AND DUP12 ISZERO ISZERO OR SWAP1 SSTORE PUSH1 0xF DUP4 MSTORE DUP2 DUP5 KECCAK256 DUP1 SLOAD DUP3 AND DUP11 ISZERO ISZERO OR SWAP1 SSTORE PUSH1 0x10 DUP4 MSTORE SWAP3 DUP2 SWAP1 KECCAK256 DUP1 SLOAD SWAP1 SWAP4 AND DUP8 ISZERO ISZERO OR SWAP1 SWAP3 SSTORE DUP2 MLOAD DUP5 DUP3 MUL DUP1 DUP3 ADD DUP4 ADD SWAP1 SWAP4 MSTORE DUP5 DUP2 MSTORE PUSH2 0xA5B SWAP3 DUP13 SWAP3 DUP8 SWAP2 DUP8 SWAP2 DUP3 SWAP2 SWAP1 DUP6 ADD SWAP1 DUP5 SWAP1 DUP1 DUP3 DUP5 CALLDATACOPY PUSH1 0x0 SWAP3 ADD SWAP2 SWAP1 SWAP2 MSTORE POP PUSH2 0x241F SWAP3 POP POP POP JUMP JUMPDEST POP POP POP POP POP POP POP POP POP JUMP JUMPDEST PUSH1 0x1 PUSH1 0x1 PUSH1 0xA0 SHL SUB DUP1 DUP4 AND PUSH1 0x0 SWAP1 DUP2 MSTORE PUSH1 0x13 PUSH1 0x20 SWAP1 DUP2 MSTORE PUSH1 0x40 DUP1 DUP4 KECCAK256 SWAP4 DUP6 AND DUP4 MSTORE SWAP3 SWAP1 MSTORE KECCAK256 SLOAD JUMPDEST SWAP3 SWAP2 POP POP JUMP JUMPDEST PUSH1 0x0 PUSH1 0x1 PUSH1 0x1 PUSH1 0xA0 SHL SUB DUP11 AND PUSH2 0xABB JUMPI PUSH1 0x40 MLOAD PUSH3 0x461BCD PUSH1 0xE5 SHL DUP2 MSTORE PUSH1 0x4 ADD PUSH2 0x980 SWAP1 PUSH2 0x5329 JUMP JUMPDEST PUSH2 0xB0B DUP13 DUP13 DUP13 DUP13 DUP13 DUP13 DUP13 PUSH2 0xACE DUP14 PUSH2 0x256A JUMP JUMPDEST DUP13 DUP13 DUP13 DUP1 DUP1 PUSH1 0x1F ADD PUSH1 0x20 DUP1 SWAP2 DIV MUL PUSH1 0x20 ADD PUSH1 0x40 MLOAD SWAP1 DUP2 ADD PUSH1 0x40 MSTORE DUP1 SWAP4 SWAP3 SWAP2 SWAP1 DUP2 DUP2 MSTORE PUSH1 0x20 ADD DUP4 DUP4 DUP1 DUP3 DUP5 CALLDATACOPY PUSH1 0x0 SWAP3 ADD SWAP2 SWAP1 SWAP2 MSTORE POP PUSH2 0x257D SWAP3 POP POP POP JUMP JUMPDEST SWAP13 SWAP12 POP POP POP POP POP POP POP POP POP POP POP POP JUMP JUMPDEST PUSH1 0x0 DUP3 DUP2 MSTORE PUSH1 0x7 PUSH1 0x20 MSTORE PUSH1 0x40 DUP2 KECCAK256 SLOAD PUSH1 0xFF AND ISZERO PUSH2 0xB72 JUMPI PUSH1 0x40 MLOAD PUSH20 0x455243313832305F4143434550545F4D41474943 PUSH1 0x60 SHL PUSH1 0x20 DUP3 ADD MSTORE PUSH1 0x34 ADD PUSH1 0x40 MLOAD PUSH1 0x20 DUP2 DUP4 SUB SUB DUP2 MSTORE SWAP1 PUSH1 0x40 MSTORE DUP1 MLOAD SWAP1 PUSH1 0x20 ADD KECCAK256 SWAP1 POP PUSH2 0xA8D JUMP JUMPDEST POP PUSH1 0x0 PUSH2 0xA8D JUMP JUMPDEST PUSH1 0x0 PUSH2 0xB90 DUP12 DUP12 PUSH1 0x0 DUP13 DUP13 DUP13 DUP13 PUSH2 0xACE DUP14 PUSH2 0x256A JUMP JUMPDEST SWAP1 POP JUMPDEST SWAP11 SWAP10 POP POP POP POP POP POP POP POP POP POP JUMP JUMPDEST DUP2 CALLER PUSH1 0x1 PUSH1 0x1 PUSH1 0xA0 SHL SUB DUP3 AND EQ DUP1 PUSH2 0xC3A JUMPI POP DUP1 PUSH1 0x1 PUSH1 0x1 PUSH1 0xA0 SHL SUB AND PUSH4 0x8DA5CB5B PUSH1 0x40 MLOAD DUP2 PUSH4 0xFFFFFFFF AND PUSH1 0xE0 SHL DUP2 MSTORE PUSH1 0x4 ADD PUSH1 0x20 PUSH1 0x40 MLOAD DUP1 DUP4 SUB DUP2 DUP7 DUP1 EXTCODESIZE ISZERO DUP1 ISZERO PUSH2 0xBED JUMPI PUSH1 0x0 DUP1 REVERT JUMPDEST POP GAS STATICCALL ISZERO DUP1 ISZERO PUSH2 0xC01 JUMPI RETURNDATASIZE PUSH1 0x0 DUP1 RETURNDATACOPY RETURNDATASIZE PUSH1 0x0 REVERT JUMPDEST POP POP POP POP PUSH1 0x40 MLOAD RETURNDATASIZE PUSH1 0x1F NOT PUSH1 0x1F DUP3 ADD AND DUP3 ADD DUP1 PUSH1 0x40 MSTORE POP DUP2 ADD SWAP1 PUSH2 0xC25 SWAP2 SWAP1 PUSH2 0x4BF6 JUMP JUMPDEST PUSH1 0x1 PUSH1 0x1 PUSH1 0xA0 SHL SUB AND CALLER PUSH1 0x1 PUSH1 0x1 PUSH1 0xA0 SHL SUB AND EQ JUMPDEST DUP1 PUSH2 0xC68 JUMPI POP PUSH1 0x1 PUSH1 0x1 PUSH1 0xA0 SHL SUB DUP2 AND PUSH1 0x0 SWAP1 DUP2 MSTORE PUSH1 0x9 PUSH1 0x20 SWAP1 DUP2 MSTORE PUSH1 0x40 DUP1 DUP4 KECCAK256 CALLER DUP5 MSTORE SWAP1 SWAP2 MSTORE SWAP1 KECCAK256 SLOAD PUSH1 0xFF AND JUMPDEST DUP1 PUSH2 0xC78 JUMPI POP PUSH2 0xC78 DUP2 CALLER PUSH2 0x19B8 JUMP JUMPDEST PUSH2 0xC94 JUMPI PUSH1 0x40 MLOAD PUSH3 0x461BCD PUSH1 0xE5 SHL DUP2 MSTORE PUSH1 0x4 ADD PUSH2 0x980 SWAP1 PUSH2 0x536F JUMP JUMPDEST PUSH2 0xC9E DUP4 DUP4 PUSH2 0x2924 JUMP JUMPDEST POP POP POP JUMP JUMPDEST PUSH1 0x1 PUSH1 0x1 PUSH1 0xA0 SHL SUB DUP3 AND PUSH1 0x0 SWAP1 DUP2 MSTORE PUSH1 0x20 DUP2 SWAP1 MSTORE PUSH1 0x40 DUP2 KECCAK256 PUSH2 0xCC5 SWAP1 DUP4 PUSH2 0x298A JUMP JUMPDEST SWAP4 SWAP3 POP POP POP JUMP JUMPDEST PUSH2 0x89A DUP2 CALLER PUSH2 0x2A0D JUMP JUMPDEST PUSH2 0x89A DUP2 CALLER PUSH2 0x2A73 JUMP JUMPDEST DUP2 CALLER PUSH1 0x1 PUSH1 0x1 PUSH1 0xA0 SHL SUB DUP3 AND EQ DUP1 PUSH2 0xD79 JUMPI POP DUP1 PUSH1 0x1 PUSH1 0x1 PUSH1 0xA0 SHL SUB AND PUSH4 0x8DA5CB5B PUSH1 0x40 MLOAD DUP2 PUSH4 0xFFFFFFFF AND PUSH1 0xE0 SHL DUP2 MSTORE PUSH1 0x4 ADD PUSH1 0x20 PUSH1 0x40 MLOAD DUP1 DUP4 SUB DUP2 DUP7 DUP1 EXTCODESIZE ISZERO DUP1 ISZERO PUSH2 0xD2C JUMPI PUSH1 0x0 DUP1 REVERT JUMPDEST POP GAS STATICCALL ISZERO DUP1 ISZERO PUSH2 0xD40 JUMPI RETURNDATASIZE PUSH1 0x0 DUP1 RETURNDATACOPY RETURNDATASIZE PUSH1 0x0 REVERT JUMPDEST POP POP POP POP PUSH1 0x40 MLOAD RETURNDATASIZE PUSH1 0x1F NOT PUSH1 0x1F DUP3 ADD AND DUP3 ADD DUP1 PUSH1 0x40 MSTORE POP DUP2 ADD SWAP1 PUSH2 0xD64 SWAP2 SWAP1 PUSH2 0x4BF6 JUMP JUMPDEST PUSH1 0x1 PUSH1 0x1 PUSH1 0xA0 SHL SUB AND CALLER PUSH1 0x1 PUSH1 0x1 PUSH1 0xA0 SHL SUB AND EQ JUMPDEST DUP1 PUSH2 0xDA7 JUMPI POP PUSH1 0x1 PUSH1 0x1 PUSH1 0xA0 SHL SUB DUP2 AND PUSH1 0x0 SWAP1 DUP2 MSTORE PUSH1 0x9 PUSH1 0x20 SWAP1 DUP2 MSTORE PUSH1 0x40 DUP1 DUP4 KECCAK256 CALLER DUP5 MSTORE SWAP1 SWAP2 MSTORE SWAP1 KECCAK256 SLOAD PUSH1 0xFF AND JUMPDEST DUP1 PUSH2 0xDB7 JUMPI POP PUSH2 0xDB7 DUP2 CALLER PUSH2 0xDDD JUMP JUMPDEST PUSH2 0xDD3 JUMPI PUSH1 0x40 MLOAD PUSH3 0x461BCD PUSH1 0xE5 SHL DUP2 MSTORE PUSH1 0x4 ADD PUSH2 0x980 SWAP1 PUSH2 0x53E8 JUMP JUMPDEST PUSH2 0xC9E DUP4 DUP4 PUSH2 0x2AD9 JUMP JUMPDEST PUSH1 0x1 PUSH1 0x1 PUSH1 0xA0 SHL SUB DUP3 AND PUSH1 0x0 SWAP1 DUP2 MSTORE PUSH1 0x3 PUSH1 0x20 MSTORE PUSH1 0x40 DUP2 KECCAK256 PUSH2 0xCC5 SWAP1 DUP4 PUSH2 0x298A JUMP JUMPDEST PUSH1 0x0 DUP1 PUSH1 0x0 PUSH2 0xE9E CALLER DUP16 DUP16 DUP1 DUP1 PUSH1 0x1F ADD PUSH1 0x20 DUP1 SWAP2 DIV MUL PUSH1 0x20 ADD PUSH1 0x40 MLOAD SWAP1 DUP2 ADD PUSH1 0x40 MSTORE DUP1 SWAP4 SWAP3 SWAP2 SWAP1 DUP2 DUP2 MSTORE PUSH1 0x20 ADD DUP4 DUP4 DUP1 DUP3 DUP5 CALLDATACOPY PUSH1 0x0 DUP2 DUP5 ADD MSTORE PUSH1 0x1F NOT PUSH1 0x1F DUP3 ADD AND SWAP1 POP DUP1 DUP4 ADD SWAP3 POP POP POP POP POP POP POP DUP14 DUP9 DUP9 SWAP1 POP PUSH1 0x0 EQ ISZERO PUSH2 0xE61 JUMPI DUP11 DUP11 PUSH2 0xE64 JUMP JUMPDEST DUP9 DUP9 JUMPDEST DUP1 DUP1 PUSH1 0x1F ADD PUSH1 0x20 DUP1 SWAP2 DIV MUL PUSH1 0x20 ADD PUSH1 0x40 MLOAD SWAP1 DUP2 ADD PUSH1 0x40 MSTORE DUP1 SWAP4 SWAP3 SWAP2 SWAP1 DUP2 DUP2 MSTORE PUSH1 0x20 ADD DUP4 DUP4 DUP1 DUP3 DUP5 CALLDATACOPY PUSH1 0x0 SWAP3 ADD SWAP2 SWAP1 SWAP2 MSTORE POP PUSH2 0x2B3F SWAP3 POP POP POP JUMP JUMPDEST SWAP3 POP SWAP3 POP SWAP3 POP DUP3 PUSH2 0xEC1 JUMPI PUSH1 0x40 MLOAD PUSH3 0x461BCD PUSH1 0xE5 SHL DUP2 MSTORE PUSH1 0x4 ADD PUSH2 0x980 SWAP1 PUSH2 0x52DD JUMP JUMPDEST PUSH2 0xECD CALLER DUP4 DUP14 DUP5 PUSH2 0x2C65 JUMP JUMPDEST POP POP POP PUSH2 0xF14 CALLER DUP13 DUP13 DUP1 DUP1 PUSH1 0x1F ADD PUSH1 0x20 DUP1 SWAP2 DIV MUL PUSH1 0x20 ADD PUSH1 0x40 MLOAD SWAP1 DUP2 ADD PUSH1 0x40 MSTORE DUP1 SWAP4 SWAP3 SWAP2 SWAP1 DUP2 DUP2 MSTORE PUSH1 0x20 ADD DUP4 DUP4 DUP1 DUP3 DUP5 CALLDATACOPY PUSH1 0x0 SWAP3 ADD SWAP2 SWAP1 SWAP2 MSTORE POP DUP13 SWAP3 POP DUP12 SWAP2 POP PUSH2 0x2D11 SWAP1 POP JUMP JUMPDEST PUSH2 0xF30 JUMPI PUSH1 0x40 MLOAD PUSH3 0x461BCD PUSH1 0xE5 SHL DUP2 MSTORE PUSH1 0x4 ADD PUSH2 0x980 SWAP1 PUSH2 0x52DD JUMP JUMPDEST CALLER PUSH1 0x0 SWAP1 DUP2 MSTORE PUSH1 0x1 PUSH1 0x20 MSTORE PUSH1 0x40 SWAP1 KECCAK256 SLOAD PUSH1 0xFF AND ISZERO PUSH2 0xF60 JUMPI PUSH1 0x40 MLOAD PUSH3 0x461BCD PUSH1 0xE5 SHL DUP2 MSTORE PUSH1 0x4 ADD PUSH2 0x980 SWAP1 PUSH2 0x52DD JUMP JUMPDEST PUSH2 0xF6B CALLER DUP11 DUP8 PUSH2 0x2E50 JUMP JUMPDEST PUSH2 0xF9C JUMPI PUSH1 0x40 MLOAD PUSH3 0x461BCD PUSH1 0xE5 SHL DUP2 MSTORE PUSH1 0x20 PUSH1 0x4 DUP3 ADD MSTORE PUSH1 0x2 PUSH1 0x24 DUP3 ADD MSTORE PUSH2 0x353 PUSH1 0xF4 SHL PUSH1 0x44 DUP3 ADD MSTORE PUSH1 0x64 ADD PUSH2 0x980 JUMP JUMPDEST PUSH2 0xFAA CALLER DUP11 DUP11 DUP11 DUP11 DUP11 PUSH2 0x2EE5 JUMP JUMPDEST PUSH2 0xFDB JUMPI PUSH1 0x40 MLOAD PUSH3 0x461BCD PUSH1 0xE5 SHL DUP2 MSTORE PUSH1 0x20 PUSH1 0x4 DUP3 ADD MSTORE PUSH1 0x2 PUSH1 0x24 DUP3 ADD MSTORE PUSH2 0x3535 PUSH1 0xF0 SHL PUSH1 0x44 DUP3 ADD MSTORE PUSH1 0x64 ADD PUSH2 0x980 JUMP JUMPDEST PUSH1 0x0 PUSH2 0xFEB CALLER DUP12 DUP12 DUP12 DUP12 DUP12 PUSH2 0x303B JUMP JUMPDEST CALLER PUSH1 0x0 SWAP1 DUP2 MSTORE PUSH1 0x10 PUSH1 0x20 MSTORE PUSH1 0x40 SWAP1 KECCAK256 SLOAD SWAP1 SWAP3 POP PUSH1 0xFF AND SWAP1 POP DUP1 ISZERO PUSH2 0x100E JUMPI POP DUP1 ISZERO ISZERO JUMPDEST ISZERO PUSH2 0x1047 JUMPI CALLER PUSH1 0x0 DUP2 DUP2 MSTORE PUSH1 0x12 PUSH1 0x20 SWAP1 DUP2 MSTORE PUSH1 0x40 DUP1 DUP4 KECCAK256 DUP6 DUP5 MSTORE SWAP1 SWAP2 MSTORE DUP2 KECCAK256 PUSH1 0x4 DUP2 ADD SLOAD SWAP1 SWAP3 PUSH2 0x1045 SWAP3 SWAP1 SWAP2 DUP5 SWAP2 DUP7 SWAP2 DUP13 SWAP2 PUSH2 0x30B8 JUMP JUMPDEST POP JUMPDEST POP POP POP POP POP POP POP POP POP POP POP POP JUMP JUMPDEST PUSH1 0x0 PUSH2 0x1060 DUP6 PUSH2 0x314F JUMP JUMPDEST PUSH2 0xB90 DUP12 DUP12 PUSH1 0x0 DUP13 DUP13 DUP13 DUP13 DUP13 DUP13 DUP13 DUP13 DUP1 DUP1 PUSH1 0x1F ADD PUSH1 0x20 DUP1 SWAP2 DIV MUL PUSH1 0x20 ADD PUSH1 0x40 MLOAD SWAP1 DUP2 ADD PUSH1 0x40 MSTORE DUP1 SWAP4 SWAP3 SWAP2 SWAP1 DUP2 DUP2 MSTORE PUSH1 0x20 ADD DUP4 DUP4 DUP1 DUP3 DUP5 CALLDATACOPY PUSH1 0x0 SWAP3 ADD SWAP2 SWAP1 SWAP2 MSTORE POP PUSH2 0x257D SWAP3 POP POP POP JUMP JUMPDEST PUSH1 0x0 PUSH2 0x10BA DUP6 DUP6 CALLER DUP7 DUP7 PUSH1 0x0 PUSH2 0x31CD JUMP JUMPDEST SWAP1 POP JUMPDEST SWAP5 SWAP4 POP POP POP POP JUMP JUMPDEST DUP1 CALLER PUSH1 0x1 PUSH1 0x1 PUSH1 0xA0 SHL SUB DUP3 AND EQ DUP1 PUSH2 0x115E JUMPI POP DUP1 PUSH1 0x1 PUSH1 0x1 PUSH1 0xA0 SHL SUB AND PUSH4 0x8DA5CB5B PUSH1 0x40 MLOAD DUP2 PUSH4 0xFFFFFFFF AND PUSH1 0xE0 SHL DUP2 MSTORE PUSH1 0x4 ADD PUSH1 0x20 PUSH1 0x40 MLOAD DUP1 DUP4 SUB DUP2 DUP7 DUP1 EXTCODESIZE ISZERO DUP1 ISZERO PUSH2 0x1111 JUMPI PUSH1 0x0 DUP1 REVERT JUMPDEST POP GAS STATICCALL ISZERO DUP1 ISZERO PUSH2 0x1125 JUMPI RETURNDATASIZE PUSH1 0x0 DUP1 RETURNDATACOPY RETURNDATASIZE PUSH1 0x0 REVERT JUMPDEST POP POP POP POP PUSH1 0x40 MLOAD RETURNDATASIZE PUSH1 0x1F NOT PUSH1 0x1F DUP3 ADD AND DUP3 ADD DUP1 PUSH1 0x40 MSTORE POP DUP2 ADD SWAP1 PUSH2 0x1149 SWAP2 SWAP1 PUSH2 0x4BF6 JUMP JUMPDEST PUSH1 0x1 PUSH1 0x1 PUSH1 0xA0 SHL SUB AND CALLER PUSH1 0x1 PUSH1 0x1 PUSH1 0xA0 SHL SUB AND EQ JUMPDEST DUP1 PUSH2 0x118C JUMPI POP PUSH1 0x1 PUSH1 0x1 PUSH1 0xA0 SHL SUB DUP2 AND PUSH1 0x0 SWAP1 DUP2 MSTORE PUSH1 0x9 PUSH1 0x20 SWAP1 DUP2 MSTORE PUSH1 0x40 DUP1 DUP4 KECCAK256 CALLER DUP5 MSTORE SWAP1 SWAP2 MSTORE SWAP1 KECCAK256 SLOAD PUSH1 0xFF AND JUMPDEST DUP1 PUSH2 0x119C JUMPI POP PUSH2 0x119C DUP2 CALLER PUSH2 0xCA3 JUMP JUMPDEST PUSH2 0x11B8 JUMPI PUSH1 0x40 MLOAD PUSH3 0x461BCD PUSH1 0xE5 SHL DUP2 MSTORE PUSH1 0x4 ADD PUSH2 0x980 SWAP1 PUSH2 0x52F9 JUMP JUMPDEST PUSH1 0x1 PUSH1 0x1 PUSH1 0xA0 SHL SUB DUP3 AND PUSH1 0x0 SWAP1 DUP2 MSTORE PUSH1 0x1 PUSH1 0x20 MSTORE PUSH1 0x40 SWAP1 KECCAK256 SLOAD DUP3 SWAP1 PUSH1 0xFF AND PUSH2 0x11DF JUMPI PUSH1 0x0 DUP1 REVERT JUMPDEST PUSH1 0x1 PUSH1 0x1 PUSH1 0xA0 SHL SUB DUP4 AND PUSH1 0x0 DUP2 DUP2 MSTORE PUSH1 0x1 PUSH1 0x20 SWAP1 DUP2 MSTORE PUSH1 0x40 SWAP2 DUP3 SWAP1 KECCAK256 DUP1 SLOAD PUSH1 0xFF NOT AND SWAP1 SSTORE SWAP1 MLOAD CALLER DUP2 MSTORE PUSH32 0x3D072963433794EB417A69355DF67D08BBD73D5076EF653D6863861161D60AF3 SWAP2 ADD JUMPDEST PUSH1 0x40 MLOAD DUP1 SWAP2 SUB SWAP1 LOG2 POP POP POP JUMP JUMPDEST PUSH1 0x0 PUSH2 0xCC5 DUP4 DUP4 PUSH2 0x3424 JUMP JUMPDEST PUSH1 0x1 PUSH1 0x1 PUSH1 0xA0 SHL SUB DUP3 AND PUSH1 0x0 SWAP1 DUP2 MSTORE PUSH1 0x4 PUSH1 0x20 MSTORE PUSH1 0x40 DUP2 KECCAK256 PUSH2 0xCC5 SWAP1 DUP4 PUSH2 0x298A JUMP JUMPDEST DUP3 CALLER PUSH1 0x1 PUSH1 0x1 PUSH1 0xA0 SHL SUB DUP3 AND EQ DUP1 PUSH2 0x1300 JUMPI POP DUP1 PUSH1 0x1 PUSH1 0x1 PUSH1 0xA0 SHL SUB AND PUSH4 0x8DA5CB5B PUSH1 0x40 MLOAD DUP2 PUSH4 0xFFFFFFFF AND PUSH1 0xE0 SHL DUP2 MSTORE PUSH1 0x4 ADD PUSH1 0x20 PUSH1 0x40 MLOAD DUP1 DUP4 SUB DUP2 DUP7 DUP1 EXTCODESIZE ISZERO DUP1 ISZERO PUSH2 0x12B3 JUMPI PUSH1 0x0 DUP1 REVERT JUMPDEST POP GAS STATICCALL ISZERO DUP1 ISZERO PUSH2 0x12C7 JUMPI RETURNDATASIZE PUSH1 0x0 DUP1 RETURNDATACOPY RETURNDATASIZE PUSH1 0x0 REVERT JUMPDEST POP POP POP POP PUSH1 0x40 MLOAD RETURNDATASIZE PUSH1 0x1F NOT PUSH1 0x1F DUP3 ADD AND DUP3 ADD DUP1 PUSH1 0x40 MSTORE POP DUP2 ADD SWAP1 PUSH2 0x12EB SWAP2 SWAP1 PUSH2 0x4BF6 JUMP JUMPDEST PUSH1 0x1 PUSH1 0x1 PUSH1 0xA0 SHL SUB AND CALLER PUSH1 0x1 PUSH1 0x1 PUSH1 0xA0 SHL SUB AND EQ JUMPDEST DUP1 PUSH2 0x132E JUMPI POP PUSH1 0x1 PUSH1 0x1 PUSH1 0xA0 SHL SUB DUP2 AND PUSH1 0x0 SWAP1 DUP2 MSTORE PUSH1 0x9 PUSH1 0x20 SWAP1 DUP2 MSTORE PUSH1 0x40 DUP1 DUP4 KECCAK256 CALLER DUP5 MSTORE SWAP1 SWAP2 MSTORE SWAP1 KECCAK256 SLOAD PUSH1 0xFF AND JUMPDEST PUSH2 0x134A JUMPI PUSH1 0x40 MLOAD PUSH3 0x461BCD PUSH1 0xE5 SHL DUP2 MSTORE PUSH1 0x4 ADD PUSH2 0x980 SWAP1 PUSH2 0x541D JUMP JUMPDEST POP PUSH1 0x1 PUSH1 0x1 PUSH1 0xA0 SHL SUB SWAP1 SWAP3 AND PUSH1 0x0 SWAP1 DUP2 MSTORE PUSH1 0x11 PUSH1 0x20 SWAP1 DUP2 MSTORE PUSH1 0x40 DUP1 DUP4 KECCAK256 SWAP4 DUP4 MSTORE SWAP3 SWAP1 MSTORE KECCAK256 SSTORE JUMP JUMPDEST DUP2 CALLER PUSH1 0x1 PUSH1 0x1 PUSH1 0xA0 SHL SUB DUP3 AND EQ DUP1 PUSH2 0x140A JUMPI POP DUP1 PUSH1 0x1 PUSH1 0x1 PUSH1 0xA0 SHL SUB AND PUSH4 0x8DA5CB5B PUSH1 0x40 MLOAD DUP2 PUSH4 0xFFFFFFFF AND PUSH1 0xE0 SHL DUP2 MSTORE PUSH1 0x4 ADD PUSH1 0x20 PUSH1 0x40 MLOAD DUP1 DUP4 SUB DUP2 DUP7 DUP1 EXTCODESIZE ISZERO DUP1 ISZERO PUSH2 0x13BD JUMPI PUSH1 0x0 DUP1 REVERT JUMPDEST POP GAS STATICCALL ISZERO DUP1 ISZERO PUSH2 0x13D1 JUMPI RETURNDATASIZE PUSH1 0x0 DUP1 RETURNDATACOPY RETURNDATASIZE PUSH1 0x0 REVERT JUMPDEST POP POP POP POP PUSH1 0x40 MLOAD RETURNDATASIZE PUSH1 0x1F NOT PUSH1 0x1F DUP3 ADD AND DUP3 ADD DUP1 PUSH1 0x40 MSTORE POP DUP2 ADD SWAP1 PUSH2 0x13F5 SWAP2 SWAP1 PUSH2 0x4BF6 JUMP JUMPDEST PUSH1 0x1 PUSH1 0x1 PUSH1 0xA0 SHL SUB AND CALLER PUSH1 0x1 PUSH1 0x1 PUSH1 0xA0 SHL SUB AND EQ JUMPDEST DUP1 PUSH2 0x1438 JUMPI POP PUSH1 0x1 PUSH1 0x1 PUSH1 0xA0 SHL SUB DUP2 AND PUSH1 0x0 SWAP1 DUP2 MSTORE PUSH1 0x9 PUSH1 0x20 SWAP1 DUP2 MSTORE PUSH1 0x40 DUP1 DUP4 KECCAK256 CALLER DUP5 MSTORE SWAP1 SWAP2 MSTORE SWAP1 KECCAK256 SLOAD PUSH1 0xFF AND JUMPDEST DUP1 PUSH2 0x1448 JUMPI POP PUSH2 0x1448 DUP2 CALLER PUSH2 0xDDD JUMP JUMPDEST PUSH2 0x1464 JUMPI PUSH1 0x40 MLOAD PUSH3 0x461BCD PUSH1 0xE5 SHL DUP2 MSTORE PUSH1 0x4 ADD PUSH2 0x980 SWAP1 PUSH2 0x53E8 JUMP JUMPDEST PUSH2 0xC9E DUP4 DUP4 PUSH2 0x34CA JUMP JUMPDEST PUSH1 0x0 PUSH2 0x10BA DUP6 DUP6 CALLER DUP7 DUP7 PUSH1 0x1 PUSH2 0x31CD JUMP JUMPDEST PUSH1 0x0 PUSH2 0x10BD DUP5 DUP5 DUP5 PUSH2 0x3530 JUMP JUMPDEST PUSH1 0x0 PUSH2 0xB90 DUP12 DUP12 CALLER DUP13 DUP13 DUP13 DUP13 PUSH2 0xACE DUP14 PUSH2 0x256A JUMP JUMPDEST DUP1 CALLER PUSH1 0x1 PUSH1 0x1 PUSH1 0xA0 SHL SUB DUP3 AND EQ DUP1 PUSH2 0x153A JUMPI POP DUP1 PUSH1 0x1 PUSH1 0x1 PUSH1 0xA0 SHL SUB AND PUSH4 0x8DA5CB5B PUSH1 0x40 MLOAD DUP2 PUSH4 0xFFFFFFFF AND PUSH1 0xE0 SHL DUP2 MSTORE PUSH1 0x4 ADD PUSH1 0x20 PUSH1 0x40 MLOAD DUP1 DUP4 SUB DUP2 DUP7 DUP1 EXTCODESIZE ISZERO DUP1 ISZERO PUSH2 0x14ED JUMPI PUSH1 0x0 DUP1 REVERT JUMPDEST POP GAS STATICCALL ISZERO DUP1 ISZERO PUSH2 0x1501 JUMPI RETURNDATASIZE PUSH1 0x0 DUP1 RETURNDATACOPY RETURNDATASIZE PUSH1 0x0 REVERT JUMPDEST POP POP POP POP PUSH1 0x40 MLOAD RETURNDATASIZE PUSH1 0x1F NOT PUSH1 0x1F DUP3 ADD AND DUP3 ADD DUP1 PUSH1 0x40 MSTORE POP DUP2 ADD SWAP1 PUSH2 0x1525 SWAP2 SWAP1 PUSH2 0x4BF6 JUMP JUMPDEST PUSH1 0x1 PUSH1 0x1 PUSH1 0xA0 SHL SUB AND CALLER PUSH1 0x1 PUSH1 0x1 PUSH1 0xA0 SHL SUB AND EQ JUMPDEST DUP1 PUSH2 0x1568 JUMPI POP PUSH1 0x1 PUSH1 0x1 PUSH1 0xA0 SHL SUB DUP2 AND PUSH1 0x0 SWAP1 DUP2 MSTORE PUSH1 0x9 PUSH1 0x20 SWAP1 DUP2 MSTORE PUSH1 0x40 DUP1 DUP4 KECCAK256 CALLER DUP5 MSTORE SWAP1 SWAP2 MSTORE SWAP1 KECCAK256 SLOAD PUSH1 0xFF AND JUMPDEST DUP1 PUSH2 0x1578 JUMPI POP PUSH2 0x1578 DUP2 CALLER PUSH2 0xCA3 JUMP JUMPDEST PUSH2 0x1594 JUMPI PUSH1 0x40 MLOAD PUSH3 0x461BCD PUSH1 0xE5 SHL DUP2 MSTORE PUSH1 0x4 ADD PUSH2 0x980 SWAP1 PUSH2 0x52F9 JUMP JUMPDEST PUSH1 0x1 PUSH1 0x1 PUSH1 0xA0 SHL SUB DUP3 AND PUSH1 0x0 SWAP1 DUP2 MSTORE PUSH1 0x1 PUSH1 0x20 MSTORE PUSH1 0x40 SWAP1 KECCAK256 SLOAD DUP3 SWAP1 PUSH1 0xFF AND ISZERO PUSH2 0x15BC JUMPI PUSH1 0x0 DUP1 REVERT JUMPDEST PUSH1 0x1 PUSH1 0x1 PUSH1 0xA0 SHL SUB DUP4 AND PUSH1 0x0 DUP2 DUP2 MSTORE PUSH1 0x1 PUSH1 0x20 DUP2 DUP2 MSTORE PUSH1 0x40 SWAP3 DUP4 SWAP1 KECCAK256 DUP1 SLOAD PUSH1 0xFF NOT AND SWAP1 SWAP3 OR SWAP1 SWAP2 SSTORE SWAP1 MLOAD CALLER DUP2 MSTORE PUSH32 0x3DD4F37CA5EAF6C357698A52C806820426D7C9A26ADB0991C3BEBB09CF23352A SWAP2 ADD PUSH2 0x122C JUMP JUMPDEST PUSH1 0x0 PUSH2 0x161C DUP6 PUSH2 0x314F JUMP JUMPDEST PUSH2 0xB90 DUP12 DUP12 CALLER DUP13 DUP13 DUP13 DUP13 DUP13 DUP13 DUP13 DUP13 DUP1 DUP1 PUSH1 0x1F ADD PUSH1 0x20 DUP1 SWAP2 DIV MUL PUSH1 0x20 ADD PUSH1 0x40 MLOAD SWAP1 DUP2 ADD PUSH1 0x40 MSTORE DUP1 SWAP4 SWAP3 SWAP2 SWAP1 DUP2 DUP2 MSTORE PUSH1 0x20 ADD DUP4 DUP4 DUP1 DUP3 DUP5 CALLDATACOPY PUSH1 0x0 SWAP3 ADD SWAP2 SWAP1 SWAP2 MSTORE POP PUSH2 0x257D SWAP3 POP POP POP JUMP JUMPDEST PUSH1 0x0 PUSH2 0x166F DUP6 PUSH2 0x314F JUMP JUMPDEST PUSH1 0x1 PUSH1 0x1 PUSH1 0xA0 SHL SUB DUP11 AND PUSH2 0x1695 JUMPI PUSH1 0x40 MLOAD PUSH3 0x461BCD PUSH1 0xE5 SHL DUP2 MSTORE PUSH1 0x4 ADD PUSH2 0x980 SWAP1 PUSH2 0x5329 JUMP JUMPDEST PUSH2 0xB0B DUP13 DUP13 DUP13 DUP13 DUP13 DUP13 DUP13 DUP13 DUP13 DUP13 DUP13 DUP1 DUP1 PUSH1 0x1F ADD PUSH1 0x20 DUP1 SWAP2 DIV MUL PUSH1 0x20 ADD PUSH1 0x40 MLOAD SWAP1 DUP2 ADD PUSH1 0x40 MSTORE DUP1 SWAP4 SWAP3 SWAP2 SWAP1 DUP2 DUP2 MSTORE PUSH1 0x20 ADD DUP4 DUP4 DUP1 DUP3 DUP5 CALLDATACOPY PUSH1 0x0 SWAP3 ADD SWAP2 SWAP1 SWAP2 MSTORE POP PUSH2 0x257D SWAP3 POP POP POP JUMP JUMPDEST PUSH1 0x0 DUP1 PUSH2 0x1778 PUSH2 0x16F0 PUSH1 0x20 DUP6 ADD DUP6 PUSH2 0x4BD9 JUMP JUMPDEST PUSH2 0x16FD PUSH1 0x20 DUP7 ADD DUP7 PUSH2 0x545E JUMP JUMPDEST DUP1 DUP1 PUSH1 0x1F ADD PUSH1 0x20 DUP1 SWAP2 DIV MUL PUSH1 0x20 ADD PUSH1 0x40 MLOAD SWAP1 DUP2 ADD PUSH1 0x40 MSTORE DUP1 SWAP4 SWAP3 SWAP2 SWAP1 DUP2 DUP2 MSTORE PUSH1 0x20 ADD DUP4 DUP4 DUP1 DUP3 DUP5 CALLDATACOPY PUSH1 0x0 SWAP3 ADD SWAP2 SWAP1 SWAP2 MSTORE POP PUSH2 0x1742 SWAP3 POP POP POP PUSH1 0x80 DUP8 ADD PUSH1 0x60 DUP9 ADD PUSH2 0x4BD9 JUMP JUMPDEST PUSH2 0x1750 PUSH2 0x100 DUP9 ADD DUP9 PUSH2 0x545E JUMP JUMPDEST ISZERO ISZERO SWAP1 POP PUSH2 0x176A JUMPI PUSH2 0x1765 PUSH1 0xE0 DUP9 ADD DUP9 PUSH2 0x545E JUMP JUMPDEST PUSH2 0xE64 JUMP JUMPDEST PUSH2 0xE64 PUSH2 0x100 DUP9 ADD DUP9 PUSH2 0x545E JUMP JUMPDEST POP POP SWAP1 POP DUP1 DUP1 ISZERO PUSH2 0x17FB JUMPI POP PUSH2 0x17FB PUSH2 0x1794 PUSH1 0x20 DUP6 ADD DUP6 PUSH2 0x4BD9 JUMP JUMPDEST PUSH2 0x17A1 PUSH1 0x20 DUP7 ADD DUP7 PUSH2 0x545E JUMP JUMPDEST DUP1 DUP1 PUSH1 0x1F ADD PUSH1 0x20 DUP1 SWAP2 DIV MUL PUSH1 0x20 ADD PUSH1 0x40 MLOAD SWAP1 DUP2 ADD PUSH1 0x40 MSTORE DUP1 SWAP4 SWAP3 SWAP2 SWAP1 DUP2 DUP2 MSTORE PUSH1 0x20 ADD DUP4 DUP4 DUP1 DUP3 DUP5 CALLDATACOPY PUSH1 0x0 SWAP3 ADD SWAP2 SWAP1 SWAP2 MSTORE POP PUSH2 0x17E6 SWAP3 POP POP POP PUSH1 0xA0 DUP8 ADD PUSH1 0x80 DUP9 ADD PUSH2 0x4BD9 JUMP JUMPDEST PUSH2 0x17F6 PUSH1 0xC0 DUP9 ADD PUSH1 0xA0 DUP10 ADD PUSH2 0x4BD9 JUMP JUMPDEST PUSH2 0x2D11 JUMP JUMPDEST SWAP1 POP DUP1 DUP1 ISZERO PUSH2 0x1817 JUMPI POP PUSH2 0x1815 PUSH2 0x4BB PUSH1 0x20 DUP6 ADD DUP6 PUSH2 0x4BD9 JUMP JUMPDEST ISZERO JUMPDEST SWAP1 POP DUP1 DUP1 ISZERO PUSH2 0x1840 JUMPI POP PUSH2 0x1840 PUSH2 0x1831 PUSH1 0x20 DUP6 ADD DUP6 PUSH2 0x4BD9 JUMP JUMPDEST DUP5 PUSH1 0x40 ADD CALLDATALOAD DUP6 PUSH1 0xC0 ADD CALLDATALOAD PUSH2 0x2E50 JUMP JUMPDEST SWAP1 POP DUP1 DUP1 ISZERO PUSH2 0xCC5 JUMPI POP PUSH2 0xCC5 PUSH2 0x185A PUSH1 0x20 DUP6 ADD DUP6 PUSH2 0x4BD9 JUMP JUMPDEST PUSH1 0x40 DUP6 ADD CALLDATALOAD PUSH2 0x186F PUSH1 0x80 DUP8 ADD PUSH1 0x60 DUP9 ADD PUSH2 0x4BD9 JUMP JUMPDEST PUSH2 0x187F PUSH1 0xA0 DUP9 ADD PUSH1 0x80 DUP10 ADD PUSH2 0x4BD9 JUMP JUMPDEST PUSH2 0x188F PUSH1 0xC0 DUP10 ADD PUSH1 0xA0 DUP11 ADD PUSH2 0x4BD9 JUMP JUMPDEST DUP9 PUSH1 0xC0 ADD CALLDATALOAD PUSH2 0x2EE5 JUMP JUMPDEST DUP2 CALLER PUSH1 0x1 PUSH1 0x1 PUSH1 0xA0 SHL SUB DUP3 AND EQ DUP1 PUSH2 0x1932 JUMPI POP DUP1 PUSH1 0x1 PUSH1 0x1 PUSH1 0xA0 SHL SUB AND PUSH4 0x8DA5CB5B PUSH1 0x40 MLOAD DUP2 PUSH4 0xFFFFFFFF AND PUSH1 0xE0 SHL DUP2 MSTORE PUSH1 0x4 ADD PUSH1 0x20 PUSH1 0x40 MLOAD DUP1 DUP4 SUB DUP2 DUP7 DUP1 EXTCODESIZE ISZERO DUP1 ISZERO PUSH2 0x18E5 JUMPI PUSH1 0x0 DUP1 REVERT JUMPDEST POP GAS STATICCALL ISZERO DUP1 ISZERO PUSH2 0x18F9 JUMPI RETURNDATASIZE PUSH1 0x0 DUP1 RETURNDATACOPY RETURNDATASIZE PUSH1 0x0 REVERT JUMPDEST POP POP POP POP PUSH1 0x40 MLOAD RETURNDATASIZE PUSH1 0x1F NOT PUSH1 0x1F DUP3 ADD AND DUP3 ADD DUP1 PUSH1 0x40 MSTORE POP DUP2 ADD SWAP1 PUSH2 0x191D SWAP2 SWAP1 PUSH2 0x4BF6 JUMP JUMPDEST PUSH1 0x1 PUSH1 0x1 PUSH1 0xA0 SHL SUB AND CALLER PUSH1 0x1 PUSH1 0x1 PUSH1 0xA0 SHL SUB AND EQ JUMPDEST DUP1 PUSH2 0x1960 JUMPI POP PUSH1 0x1 PUSH1 0x1 PUSH1 0xA0 SHL SUB DUP2 AND PUSH1 0x0 SWAP1 DUP2 MSTORE PUSH1 0x9 PUSH1 0x20 SWAP1 DUP2 MSTORE PUSH1 0x40 DUP1 DUP4 KECCAK256 CALLER DUP5 MSTORE SWAP1 SWAP2 MSTORE SWAP1 KECCAK256 SLOAD PUSH1 0xFF AND JUMPDEST DUP1 PUSH2 0x1970 JUMPI POP PUSH2 0x1970 DUP2 CALLER PUSH2 0x19B8 JUMP JUMPDEST PUSH2 0x198C JUMPI PUSH1 0x40 MLOAD PUSH3 0x461BCD PUSH1 0xE5 SHL DUP2 MSTORE PUSH1 0x4 ADD PUSH2 0x980 SWAP1 PUSH2 0x536F JUMP JUMPDEST PUSH2 0xC9E DUP4 DUP4 PUSH2 0x35E5 JUMP JUMPDEST PUSH1 0x1 PUSH1 0x1 PUSH1 0xA0 SHL SUB DUP3 AND PUSH1 0x0 SWAP1 DUP2 MSTORE PUSH1 0x2 PUSH1 0x20 MSTORE PUSH1 0x40 DUP2 KECCAK256 PUSH2 0xCC5 SWAP1 DUP4 PUSH2 0x298A JUMP JUMPDEST PUSH1 0x1 PUSH1 0x1 PUSH1 0xA0 SHL SUB DUP3 AND PUSH1 0x0 SWAP1 DUP2 MSTORE PUSH1 0x5 PUSH1 0x20 MSTORE PUSH1 0x40 DUP2 KECCAK256 PUSH2 0xCC5 SWAP1 DUP4 PUSH2 0x298A JUMP JUMPDEST PUSH1 0x1 PUSH1 0x1 PUSH1 0xA0 SHL SUB DUP3 AND PUSH1 0x0 SWAP1 DUP2 MSTORE PUSH1 0x6 PUSH1 0x20 MSTORE PUSH1 0x40 DUP2 KECCAK256 PUSH2 0xCC5 SWAP1 DUP4 PUSH2 0x298A JUMP JUMPDEST PUSH1 0x1 PUSH1 0x1 PUSH1 0xA0 SHL SUB DUP2 AND PUSH1 0x0 SWAP1 DUP2 MSTORE PUSH1 0xC PUSH1 0x20 SWAP1 DUP2 MSTORE PUSH1 0x40 DUP1 DUP4 KECCAK256 SLOAD PUSH1 0xA DUP4 MSTORE DUP2 DUP5 KECCAK256 SLOAD PUSH1 0xB DUP5 MSTORE DUP3 DUP6 KECCAK256 SLOAD PUSH1 0xF DUP6 MSTORE DUP4 DUP7 KECCAK256 SLOAD PUSH1 0x10 DUP7 MSTORE DUP5 DUP8 KECCAK256 SLOAD PUSH1 0x8 DUP8 MSTORE DUP6 DUP9 KECCAK256 DUP1 SLOAD DUP8 MLOAD DUP2 DUP11 MUL DUP2 ADD DUP11 ADD SWAP1 SWAP9 MSTORE DUP1 DUP9 MSTORE DUP10 SWAP9 DUP10 SWAP9 DUP10 SWAP9 DUP10 SWAP9 PUSH1 0x60 SWAP9 PUSH1 0xFF SWAP3 DUP4 AND SWAP9 SWAP2 DUP4 AND SWAP8 SWAP1 DUP4 AND SWAP7 SWAP2 DUP4 AND SWAP6 SWAP3 AND SWAP4 SWAP1 SWAP3 SWAP2 DUP4 SWAP2 DUP4 ADD DUP3 DUP3 DUP1 ISZERO PUSH2 0x1AAE JUMPI PUSH1 0x20 MUL DUP3 ADD SWAP2 SWAP1 PUSH1 0x0 MSTORE PUSH1 0x20 PUSH1 0x0 KECCAK256 SWAP1 JUMPDEST DUP2 SLOAD PUSH1 0x1 PUSH1 0x1 PUSH1 0xA0 SHL SUB AND DUP2 MSTORE PUSH1 0x1 SWAP1 SWAP2 ADD SWAP1 PUSH1 0x20 ADD DUP1 DUP4 GT PUSH2 0x1A90 JUMPI JUMPDEST POP POP POP POP POP SWAP1 POP SWAP6 POP SWAP6 POP SWAP6 POP SWAP6 POP SWAP6 POP SWAP6 POP SWAP2 SWAP4 SWAP6 POP SWAP2 SWAP4 SWAP6 JUMP JUMPDEST PUSH1 0x0 PUSH2 0x1AD5 DUP5 PUSH2 0x314F JUMP JUMPDEST PUSH2 0x1B17 DUP7 DUP7 DUP7 DUP7 DUP7 DUP1 DUP1 PUSH1 0x1F ADD PUSH1 0x20 DUP1 SWAP2 DIV MUL PUSH1 0x20 ADD PUSH1 0x40 MLOAD SWAP1 DUP2 ADD PUSH1 0x40 MSTORE DUP1 SWAP4 SWAP3 SWAP2 SWAP1 DUP2 DUP2 MSTORE PUSH1 0x20 ADD DUP4 DUP4 DUP1 DUP3 DUP5 CALLDATACOPY PUSH1 0x0 SWAP3 ADD SWAP2 SWAP1 SWAP2 MSTORE POP PUSH2 0x364B SWAP3 POP POP POP JUMP JUMPDEST SWAP7 SWAP6 POP POP POP POP POP POP JUMP JUMPDEST PUSH1 0x0 PUSH2 0xCC5 DUP4 DUP4 PUSH2 0x3883 JUMP JUMPDEST DUP2 CALLER PUSH1 0x1 PUSH1 0x1 PUSH1 0xA0 SHL SUB DUP3 AND EQ DUP1 PUSH2 0x1BC6 JUMPI POP DUP1 PUSH1 0x1 PUSH1 0x1 PUSH1 0xA0 SHL SUB AND PUSH4 0x8DA5CB5B PUSH1 0x40 MLOAD DUP2 PUSH4 0xFFFFFFFF AND PUSH1 0xE0 SHL DUP2 MSTORE PUSH1 0x4 ADD PUSH1 0x20 PUSH1 0x40 MLOAD DUP1 DUP4 SUB DUP2 DUP7 DUP1 EXTCODESIZE ISZERO DUP1 ISZERO PUSH2 0x1B79 JUMPI PUSH1 0x0 DUP1 REVERT JUMPDEST POP GAS STATICCALL ISZERO DUP1 ISZERO PUSH2 0x1B8D JUMPI RETURNDATASIZE PUSH1 0x0 DUP1 RETURNDATACOPY RETURNDATASIZE PUSH1 0x0 REVERT JUMPDEST POP POP POP POP PUSH1 0x40 MLOAD RETURNDATASIZE PUSH1 0x1F NOT PUSH1 0x1F DUP3 ADD AND DUP3 ADD DUP1 PUSH1 0x40 MSTORE POP DUP2 ADD SWAP1 PUSH2 0x1BB1 SWAP2 SWAP1 PUSH2 0x4BF6 JUMP JUMPDEST PUSH1 0x1 PUSH1 0x1 PUSH1 0xA0 SHL SUB AND CALLER PUSH1 0x1 PUSH1 0x1 PUSH1 0xA0 SHL SUB AND EQ JUMPDEST DUP1 PUSH2 0x1BF4 JUMPI POP PUSH1 0x1 PUSH1 0x1 PUSH1 0xA0 SHL SUB DUP2 AND PUSH1 0x0 SWAP1 DUP2 MSTORE PUSH1 0x9 PUSH1 0x20 SWAP1 DUP2 MSTORE PUSH1 0x40 DUP1 DUP4 KECCAK256 CALLER DUP5 MSTORE SWAP1 SWAP2 MSTORE SWAP1 KECCAK256 SLOAD PUSH1 0xFF AND JUMPDEST DUP1 PUSH2 0x1C04 JUMPI POP PUSH2 0x1C04 DUP2 CALLER PUSH2 0x19B8 JUMP JUMPDEST PUSH2 0x1C20 JUMPI PUSH1 0x40 MLOAD PUSH3 0x461BCD PUSH1 0xE5 SHL DUP2 MSTORE PUSH1 0x4 ADD PUSH2 0x980 SWAP1 PUSH2 0x536F JUMP JUMPDEST PUSH2 0xC9E DUP4 DUP4 PUSH2 0x3B54 JUMP JUMPDEST DUP2 CALLER PUSH1 0x1 PUSH1 0x1 PUSH1 0xA0 SHL SUB DUP3 AND EQ DUP1 PUSH2 0x1CC3 JUMPI POP DUP1 PUSH1 0x1 PUSH1 0x1 PUSH1 0xA0 SHL SUB AND PUSH4 0x8DA5CB5B PUSH1 0x40 MLOAD DUP2 PUSH4 0xFFFFFFFF AND PUSH1 0xE0 SHL DUP2 MSTORE PUSH1 0x4 ADD PUSH1 0x20 PUSH1 0x40 MLOAD DUP1 DUP4 SUB DUP2 DUP7 DUP1 EXTCODESIZE ISZERO DUP1 ISZERO PUSH2 0x1C76 JUMPI PUSH1 0x0 DUP1 REVERT JUMPDEST POP GAS STATICCALL ISZERO DUP1 ISZERO PUSH2 0x1C8A JUMPI RETURNDATASIZE PUSH1 0x0 DUP1 RETURNDATACOPY RETURNDATASIZE PUSH1 0x0 REVERT JUMPDEST POP POP POP POP PUSH1 0x40 MLOAD RETURNDATASIZE PUSH1 0x1F NOT PUSH1 0x1F DUP3 ADD AND DUP3 ADD DUP1 PUSH1 0x40 MSTORE POP DUP2 ADD SWAP1 PUSH2 0x1CAE SWAP2 SWAP1 PUSH2 0x4BF6 JUMP JUMPDEST PUSH1 0x1 PUSH1 0x1 PUSH1 0xA0 SHL SUB AND CALLER PUSH1 0x1 PUSH1 0x1 PUSH1 0xA0 SHL SUB AND EQ JUMPDEST DUP1 PUSH2 0x1CF1 JUMPI POP PUSH1 0x1 PUSH1 0x1 PUSH1 0xA0 SHL SUB DUP2 AND PUSH1 0x0 SWAP1 DUP2 MSTORE PUSH1 0x9 PUSH1 0x20 SWAP1 DUP2 MSTORE PUSH1 0x40 DUP1 DUP4 KECCAK256 CALLER DUP5 MSTORE SWAP1 SWAP2 MSTORE SWAP1 KECCAK256 SLOAD PUSH1 0xFF AND JUMPDEST DUP1 PUSH2 0x1D01 JUMPI POP PUSH2 0x1D01 DUP2 CALLER PUSH2 0x1996 JUMP JUMPDEST PUSH2 0x1D1D JUMPI PUSH1 0x40 MLOAD PUSH3 0x461BCD PUSH1 0xE5 SHL DUP2 MSTORE PUSH1 0x4 ADD PUSH2 0x980 SWAP1 PUSH2 0x53A6 JUMP JUMPDEST PUSH2 0xC9E DUP4 DUP4 PUSH2 0x3BBA JUMP JUMPDEST PUSH1 0x0 PUSH2 0x1B17 DUP7 DUP7 PUSH2 0x1D37 DUP8 PUSH2 0x256A JUMP JUMPDEST DUP7 DUP7 DUP1 DUP1 PUSH1 0x1F ADD PUSH1 0x20 DUP1 SWAP2 DIV MUL PUSH1 0x20 ADD PUSH1 0x40 MLOAD SWAP1 DUP2 ADD PUSH1 0x40 MSTORE DUP1 SWAP4 SWAP3 SWAP2 SWAP1 DUP2 DUP2 MSTORE PUSH1 0x20 ADD DUP4 DUP4 DUP1 DUP3 DUP5 CALLDATACOPY PUSH1 0x0 SWAP3 ADD SWAP2 SWAP1 SWAP2 MSTORE POP PUSH2 0x364B SWAP3 POP POP POP JUMP JUMPDEST DUP2 CALLER PUSH1 0x1 PUSH1 0x1 PUSH1 0xA0 SHL SUB DUP3 AND EQ DUP1 PUSH2 0x1E0C JUMPI POP DUP1 PUSH1 0x1 PUSH1 0x1 PUSH1 0xA0 SHL SUB AND PUSH4 0x8DA5CB5B PUSH1 0x40 MLOAD DUP2 PUSH4 0xFFFFFFFF AND PUSH1 0xE0 SHL DUP2 MSTORE PUSH1 0x4 ADD PUSH1 0x20 PUSH1 0x40 MLOAD DUP1 DUP4 SUB DUP2 DUP7 DUP1 EXTCODESIZE ISZERO DUP1 ISZERO PUSH2 0x1DBF JUMPI PUSH1 0x0 DUP1 REVERT JUMPDEST POP GAS STATICCALL ISZERO DUP1 ISZERO PUSH2 0x1DD3 JUMPI RETURNDATASIZE PUSH1 0x0 DUP1 RETURNDATACOPY RETURNDATASIZE PUSH1 0x0 REVERT JUMPDEST POP POP POP POP PUSH1 0x40 MLOAD RETURNDATASIZE PUSH1 0x1F NOT PUSH1 0x1F DUP3 ADD AND DUP3 ADD DUP1 PUSH1 0x40 MSTORE POP DUP2 ADD SWAP1 PUSH2 0x1DF7 SWAP2 SWAP1 PUSH2 0x4BF6 JUMP JUMPDEST PUSH1 0x1 PUSH1 0x1 PUSH1 0xA0 SHL SUB AND CALLER PUSH1 0x1 PUSH1 0x1 PUSH1 0xA0 SHL SUB AND EQ JUMPDEST DUP1 PUSH2 0x1E3A JUMPI POP PUSH1 0x1 PUSH1 0x1 PUSH1 0xA0 SHL SUB DUP2 AND PUSH1 0x0 SWAP1 DUP2 MSTORE PUSH1 0x9 PUSH1 0x20 SWAP1 DUP2 MSTORE PUSH1 0x40 DUP1 DUP4 KECCAK256 CALLER DUP5 MSTORE SWAP1 SWAP2 MSTORE SWAP1 KECCAK256 SLOAD PUSH1 0xFF AND JUMPDEST DUP1 PUSH2 0x1E4A JUMPI POP PUSH2 0x1E4A DUP2 CALLER PUSH2 0xDDD JUMP JUMPDEST PUSH2 0x1E66 JUMPI PUSH1 0x40 MLOAD PUSH3 0x461BCD PUSH1 0xE5 SHL DUP2 MSTORE PUSH1 0x4 ADD PUSH2 0x980 SWAP1 PUSH2 0x53E8 JUMP JUMPDEST PUSH2 0xC9E DUP4 DUP4 PUSH2 0x23B9 JUMP JUMPDEST PUSH2 0x89A DUP2 CALLER PUSH2 0x3C20 JUMP JUMPDEST DUP2 CALLER PUSH1 0x1 PUSH1 0x1 PUSH1 0xA0 SHL SUB DUP3 AND EQ DUP1 PUSH2 0x1F13 JUMPI POP DUP1 PUSH1 0x1 PUSH1 0x1 PUSH1 0xA0 SHL SUB AND PUSH4 0x8DA5CB5B PUSH1 0x40 MLOAD DUP2 PUSH4 0xFFFFFFFF AND PUSH1 0xE0 SHL DUP2 MSTORE PUSH1 0x4 ADD PUSH1 0x20 PUSH1 0x40 MLOAD DUP1 DUP4 SUB DUP2 DUP7 DUP1 EXTCODESIZE ISZERO DUP1 ISZERO PUSH2 0x1EC6 JUMPI PUSH1 0x0 DUP1 REVERT JUMPDEST POP GAS STATICCALL ISZERO DUP1 ISZERO PUSH2 0x1EDA JUMPI RETURNDATASIZE PUSH1 0x0 DUP1 RETURNDATACOPY RETURNDATASIZE PUSH1 0x0 REVERT JUMPDEST POP POP POP POP PUSH1 0x40 MLOAD RETURNDATASIZE PUSH1 0x1F NOT PUSH1 0x1F DUP3 ADD AND DUP3 ADD DUP1 PUSH1 0x40 MSTORE POP DUP2 ADD SWAP1 PUSH2 0x1EFE SWAP2 SWAP1 PUSH2 0x4BF6 JUMP JUMPDEST PUSH1 0x1 PUSH1 0x1 PUSH1 0xA0 SHL SUB AND CALLER PUSH1 0x1 PUSH1 0x1 PUSH1 0xA0 SHL SUB AND EQ JUMPDEST DUP1 PUSH2 0x1F41 JUMPI POP PUSH1 0x1 PUSH1 0x1 PUSH1 0xA0 SHL SUB DUP2 AND PUSH1 0x0 SWAP1 DUP2 MSTORE PUSH1 0x9 PUSH1 0x20 SWAP1 DUP2 MSTORE PUSH1 0x40 DUP1 DUP4 KECCAK256 CALLER DUP5 MSTORE SWAP1 SWAP2 MSTORE SWAP1 KECCAK256 SLOAD PUSH1 0xFF AND JUMPDEST DUP1 PUSH2 0x1F51 JUMPI POP PUSH2 0x1F51 DUP2 CALLER PUSH2 0x1996 JUMP JUMPDEST PUSH2 0x1F6D JUMPI PUSH1 0x40 MLOAD PUSH3 0x461BCD PUSH1 0xE5 SHL DUP2 MSTORE PUSH1 0x4 ADD PUSH2 0x980 SWAP1 PUSH2 0x53A6 JUMP JUMPDEST PUSH2 0xC9E DUP4 DUP4 PUSH2 0x2A0D JUMP JUMPDEST DUP2 CALLER PUSH1 0x1 PUSH1 0x1 PUSH1 0xA0 SHL SUB DUP3 AND EQ DUP1 PUSH2 0x2010 JUMPI POP DUP1 PUSH1 0x1 PUSH1 0x1 PUSH1 0xA0 SHL SUB AND PUSH4 0x8DA5CB5B PUSH1 0x40 MLOAD DUP2 PUSH4 0xFFFFFFFF AND PUSH1 0xE0 SHL DUP2 MSTORE PUSH1 0x4 ADD PUSH1 0x20 PUSH1 0x40 MLOAD DUP1 DUP4 SUB DUP2 DUP7 DUP1 EXTCODESIZE ISZERO DUP1 ISZERO PUSH2 0x1FC3 JUMPI PUSH1 0x0 DUP1 REVERT JUMPDEST POP GAS STATICCALL ISZERO DUP1 ISZERO PUSH2 0x1FD7 JUMPI RETURNDATASIZE PUSH1 0x0 DUP1 RETURNDATACOPY RETURNDATASIZE PUSH1 0x0 REVERT JUMPDEST POP POP POP POP PUSH1 0x40 MLOAD RETURNDATASIZE PUSH1 0x1F NOT PUSH1 0x1F DUP3 ADD AND DUP3 ADD DUP1 PUSH1 0x40 MSTORE POP DUP2 ADD SWAP1 PUSH2 0x1FFB SWAP2 SWAP1 PUSH2 0x4BF6 JUMP JUMPDEST PUSH1 0x1 PUSH1 0x1 PUSH1 0xA0 SHL SUB AND CALLER PUSH1 0x1 PUSH1 0x1 PUSH1 0xA0 SHL SUB AND EQ JUMPDEST DUP1 PUSH2 0x203E JUMPI POP PUSH1 0x1 PUSH1 0x1 PUSH1 0xA0 SHL SUB DUP2 AND PUSH1 0x0 SWAP1 DUP2 MSTORE PUSH1 0x9 PUSH1 0x20 SWAP1 DUP2 MSTORE PUSH1 0x40 DUP1 DUP4 KECCAK256 CALLER DUP5 MSTORE SWAP1 SWAP2 MSTORE SWAP1 KECCAK256 SLOAD PUSH1 0xFF AND JUMPDEST DUP1 PUSH2 0x204E JUMPI POP PUSH2 0x204E DUP2 CALLER PUSH2 0xCA3 JUMP JUMPDEST PUSH2 0x206A JUMPI PUSH1 0x40 MLOAD PUSH3 0x461BCD PUSH1 0xE5 SHL DUP2 MSTORE PUSH1 0x4 ADD PUSH2 0x980 SWAP1 PUSH2 0x52F9 JUMP JUMPDEST PUSH2 0xC9E DUP4 DUP4 PUSH2 0x3C86 JUMP JUMPDEST DUP2 CALLER PUSH1 0x1 PUSH1 0x1 PUSH1 0xA0 SHL SUB DUP3 AND EQ DUP1 PUSH2 0x210D JUMPI POP DUP1 PUSH1 0x1 PUSH1 0x1 PUSH1 0xA0 SHL SUB AND PUSH4 0x8DA5CB5B PUSH1 0x40 MLOAD DUP2 PUSH4 0xFFFFFFFF AND PUSH1 0xE0 SHL DUP2 MSTORE PUSH1 0x4 ADD PUSH1 0x20 PUSH1 0x40 MLOAD DUP1 DUP4 SUB DUP2 DUP7 DUP1 EXTCODESIZE ISZERO DUP1 ISZERO PUSH2 0x20C0 JUMPI PUSH1 0x0 DUP1 REVERT JUMPDEST POP GAS STATICCALL ISZERO DUP1 ISZERO PUSH2 0x20D4 JUMPI RETURNDATASIZE PUSH1 0x0 DUP1 RETURNDATACOPY RETURNDATASIZE PUSH1 0x0 REVERT JUMPDEST POP POP POP POP PUSH1 0x40 MLOAD RETURNDATASIZE PUSH1 0x1F NOT PUSH1 0x1F DUP3 ADD AND DUP3 ADD DUP1 PUSH1 0x40 MSTORE POP DUP2 ADD SWAP1 PUSH2 0x20F8 SWAP2 SWAP1 PUSH2 0x4BF6 JUMP JUMPDEST PUSH1 0x1 PUSH1 0x1 PUSH1 0xA0 SHL SUB AND CALLER PUSH1 0x1 PUSH1 0x1 PUSH1 0xA0 SHL SUB AND EQ JUMPDEST DUP1 PUSH2 0x213B JUMPI POP PUSH1 0x1 PUSH1 0x1 PUSH1 0xA0 SHL SUB DUP2 AND PUSH1 0x0 SWAP1 DUP2 MSTORE PUSH1 0x9 PUSH1 0x20 SWAP1 DUP2 MSTORE PUSH1 0x40 DUP1 DUP4 KECCAK256 CALLER DUP5 MSTORE SWAP1 SWAP2 MSTORE SWAP1 KECCAK256 SLOAD PUSH1 0xFF AND JUMPDEST DUP1 PUSH2 0x214B JUMPI POP PUSH2 0x214B DUP2 CALLER PUSH2 0x19B8 JUMP JUMPDEST PUSH2 0x2167 JUMPI PUSH1 0x40 MLOAD PUSH3 0x461BCD PUSH1 0xE5 SHL DUP2 MSTORE PUSH1 0x4 ADD PUSH2 0x980 SWAP1 PUSH2 0x536F JUMP JUMPDEST PUSH2 0xC9E DUP4 DUP4 PUSH2 0x3C20 JUMP JUMPDEST DUP2 CALLER PUSH1 0x1 PUSH1 0x1 PUSH1 0xA0 SHL SUB DUP3 AND EQ DUP1 PUSH2 0x220A JUMPI POP DUP1 PUSH1 0x1 PUSH1 0x1 PUSH1 0xA0 SHL SUB AND PUSH4 0x8DA5CB5B PUSH1 0x40 MLOAD DUP2 PUSH4 0xFFFFFFFF AND PUSH1 0xE0 SHL DUP2 MSTORE PUSH1 0x4 ADD PUSH1 0x20 PUSH1 0x40 MLOAD DUP1 DUP4 SUB DUP2 DUP7 DUP1 EXTCODESIZE ISZERO DUP1 ISZERO PUSH2 0x21BD JUMPI PUSH1 0x0 DUP1 REVERT JUMPDEST POP GAS STATICCALL ISZERO DUP1 ISZERO PUSH2 0x21D1 JUMPI RETURNDATASIZE PUSH1 0x0 DUP1 RETURNDATACOPY RETURNDATASIZE PUSH1 0x0 REVERT JUMPDEST POP POP POP POP PUSH1 0x40 MLOAD RETURNDATASIZE PUSH1 0x1F NOT PUSH1 0x1F DUP3 ADD AND DUP3 ADD DUP1 PUSH1 0x40 MSTORE POP DUP2 ADD SWAP1 PUSH2 0x21F5 SWAP2 SWAP1 PUSH2 0x4BF6 JUMP JUMPDEST PUSH1 0x1 PUSH1 0x1 PUSH1 0xA0 SHL SUB AND CALLER PUSH1 0x1 PUSH1 0x1 PUSH1 0xA0 SHL SUB AND EQ JUMPDEST DUP1 PUSH2 0x2238 JUMPI POP PUSH1 0x1 PUSH1 0x1 PUSH1 0xA0 SHL SUB DUP2 AND PUSH1 0x0 SWAP1 DUP2 MSTORE PUSH1 0x9 PUSH1 0x20 SWAP1 DUP2 MSTORE PUSH1 0x40 DUP1 DUP4 KECCAK256 CALLER DUP5 MSTORE SWAP1 SWAP2 MSTORE SWAP1 KECCAK256 SLOAD PUSH1 0xFF AND JUMPDEST DUP1 PUSH2 0x2248 JUMPI POP PUSH2 0x2248 DUP2 CALLER PUSH2 0xCA3 JUMP JUMPDEST PUSH2 0x2264 JUMPI PUSH1 0x40 MLOAD PUSH3 0x461BCD PUSH1 0xE5 SHL DUP2 MSTORE PUSH1 0x4 ADD PUSH2 0x980 SWAP1 PUSH2 0x52F9 JUMP JUMPDEST PUSH2 0xC9E DUP4 DUP4 PUSH2 0x2A73 JUMP JUMPDEST DUP2 CALLER PUSH1 0x1 PUSH1 0x1 PUSH1 0xA0 SHL SUB DUP3 AND EQ DUP1 PUSH2 0x2307 JUMPI POP DUP1 PUSH1 0x1 PUSH1 0x1 PUSH1 0xA0 SHL SUB AND PUSH4 0x8DA5CB5B PUSH1 0x40 MLOAD DUP2 PUSH4 0xFFFFFFFF AND PUSH1 0xE0 SHL DUP2 MSTORE PUSH1 0x4 ADD PUSH1 0x20 PUSH1 0x40 MLOAD DUP1 DUP4 SUB DUP2 DUP7 DUP1 EXTCODESIZE ISZERO DUP1 ISZERO PUSH2 0x22BA JUMPI PUSH1 0x0 DUP1 REVERT JUMPDEST POP GAS STATICCALL ISZERO DUP1 ISZERO PUSH2 0x22CE JUMPI RETURNDATASIZE PUSH1 0x0 DUP1 RETURNDATACOPY RETURNDATASIZE PUSH1 0x0 REVERT JUMPDEST POP POP POP POP PUSH1 0x40 MLOAD RETURNDATASIZE PUSH1 0x1F NOT PUSH1 0x1F DUP3 ADD AND DUP3 ADD DUP1 PUSH1 0x40 MSTORE POP DUP2 ADD SWAP1 PUSH2 0x22F2 SWAP2 SWAP1 PUSH2 0x4BF6 JUMP JUMPDEST PUSH1 0x1 PUSH1 0x1 PUSH1 0xA0 SHL SUB AND CALLER PUSH1 0x1 PUSH1 0x1 PUSH1 0xA0 SHL SUB AND EQ JUMPDEST DUP1 PUSH2 0x2335 JUMPI POP PUSH1 0x1 PUSH1 0x1 PUSH1 0xA0 SHL SUB DUP2 AND PUSH1 0x0 SWAP1 DUP2 MSTORE PUSH1 0x9 PUSH1 0x20 SWAP1 DUP2 MSTORE PUSH1 0x40 DUP1 DUP4 KECCAK256 CALLER DUP5 MSTORE SWAP1 SWAP2 MSTORE SWAP1 KECCAK256 SLOAD PUSH1 0xFF AND JUMPDEST DUP1 PUSH2 0x2345 JUMPI POP PUSH2 0x2345 DUP2 CALLER PUSH2 0xDDD JUMP JUMPDEST PUSH2 0x2361 JUMPI PUSH1 0x40 MLOAD PUSH3 0x461BCD PUSH1 0xE5 SHL DUP2 MSTORE PUSH1 0x4 ADD PUSH2 0x980 SWAP1 PUSH2 0x53E8 JUMP JUMPDEST PUSH2 0xC9E DUP4 DUP4 PUSH2 0x3CEC JUMP JUMPDEST PUSH1 0x1 PUSH1 0x7 PUSH1 0x0 DUP4 PUSH1 0x40 MLOAD PUSH1 0x20 ADD PUSH2 0x2382 SWAP2 SWAP1 PUSH2 0x51D1 JUMP JUMPDEST PUSH1 0x40 DUP1 MLOAD DUP1 DUP4 SUB PUSH1 0x1F NOT ADD DUP2 MSTORE SWAP2 DUP2 MSTORE DUP2 MLOAD PUSH1 0x20 SWAP3 DUP4 ADD KECCAK256 DUP4 MSTORE SWAP1 DUP3 ADD SWAP3 SWAP1 SWAP3 MSTORE ADD PUSH1 0x0 KECCAK256 DUP1 SLOAD PUSH1 0xFF NOT AND SWAP2 ISZERO ISZERO SWAP2 SWAP1 SWAP2 OR SWAP1 SSTORE POP JUMP JUMPDEST PUSH1 0x1 PUSH1 0x1 PUSH1 0xA0 SHL SUB DUP3 AND PUSH1 0x0 SWAP1 DUP2 MSTORE PUSH1 0x3 PUSH1 0x20 MSTORE PUSH1 0x40 SWAP1 KECCAK256 PUSH2 0x23DB SWAP1 DUP3 PUSH2 0x3D52 JUMP JUMPDEST DUP1 PUSH1 0x1 PUSH1 0x1 PUSH1 0xA0 SHL SUB AND DUP3 PUSH1 0x1 PUSH1 0x1 PUSH1 0xA0 SHL SUB AND PUSH32 0x84C618AFA7439D9985B8C707A18637A9C6B0128399C0F5DEE2CA90254D66FC3A PUSH1 0x40 MLOAD PUSH1 0x40 MLOAD DUP1 SWAP2 SUB SWAP1 LOG3 POP POP JUMP JUMPDEST PUSH1 0x0 JUMPDEST PUSH1 0x1 PUSH1 0x1 PUSH1 0xA0 SHL SUB DUP4 AND PUSH1 0x0 SWAP1 DUP2 MSTORE PUSH1 0x8 PUSH1 0x20 MSTORE PUSH1 0x40 SWAP1 KECCAK256 SLOAD DUP2 LT ISZERO PUSH2 0x24BF JUMPI PUSH1 0x1 PUSH1 0x1 PUSH1 0xA0 SHL SUB DUP4 AND PUSH1 0x0 SWAP1 DUP2 MSTORE PUSH1 0x9 PUSH1 0x20 SWAP1 DUP2 MSTORE PUSH1 0x40 DUP1 DUP4 KECCAK256 PUSH1 0x8 SWAP1 SWAP3 MSTORE DUP3 KECCAK256 DUP1 SLOAD DUP4 SWAP2 SWAP1 DUP6 SWAP1 DUP2 LT PUSH2 0x2479 JUMPI PUSH2 0x2479 PUSH2 0x55AD JUMP JUMPDEST PUSH1 0x0 SWAP2 DUP3 MSTORE PUSH1 0x20 DUP1 DUP4 KECCAK256 SWAP2 SWAP1 SWAP2 ADD SLOAD PUSH1 0x1 PUSH1 0x1 PUSH1 0xA0 SHL SUB AND DUP4 MSTORE DUP3 ADD SWAP3 SWAP1 SWAP3 MSTORE PUSH1 0x40 ADD SWAP1 KECCAK256 DUP1 SLOAD PUSH1 0xFF NOT AND SWAP2 ISZERO ISZERO SWAP2 SWAP1 SWAP2 OR SWAP1 SSTORE DUP1 PUSH2 0x24B7 DUP2 PUSH2 0x5566 JUMP JUMPDEST SWAP2 POP POP PUSH2 0x2422 JUMP JUMPDEST POP PUSH1 0x0 JUMPDEST DUP2 MLOAD DUP2 LT ISZERO PUSH2 0x2540 JUMPI PUSH1 0x1 PUSH1 0x1 PUSH1 0xA0 SHL SUB DUP4 AND PUSH1 0x0 SWAP1 DUP2 MSTORE PUSH1 0x9 PUSH1 0x20 MSTORE PUSH1 0x40 DUP2 KECCAK256 DUP4 MLOAD PUSH1 0x1 SWAP3 SWAP1 DUP6 SWAP1 DUP6 SWAP1 DUP2 LT PUSH2 0x24FC JUMPI PUSH2 0x24FC PUSH2 0x55AD JUMP JUMPDEST PUSH1 0x20 SWAP1 DUP2 MUL SWAP2 SWAP1 SWAP2 ADD DUP2 ADD MLOAD PUSH1 0x1 PUSH1 0x1 PUSH1 0xA0 SHL SUB AND DUP3 MSTORE DUP2 ADD SWAP2 SWAP1 SWAP2 MSTORE PUSH1 0x40 ADD PUSH1 0x0 KECCAK256 DUP1 SLOAD PUSH1 0xFF NOT AND SWAP2 ISZERO ISZERO SWAP2 SWAP1 SWAP2 OR SWAP1 SSTORE DUP1 PUSH2 0x2538 DUP2 PUSH2 0x5566 JUMP JUMPDEST SWAP2 POP POP PUSH2 0x24C3 JUMP JUMPDEST POP PUSH1 0x1 PUSH1 0x1 PUSH1 0xA0 SHL SUB DUP3 AND PUSH1 0x0 SWAP1 DUP2 MSTORE PUSH1 0x8 PUSH1 0x20 SWAP1 DUP2 MSTORE PUSH1 0x40 SWAP1 SWAP2 KECCAK256 DUP3 MLOAD PUSH2 0xC9E SWAP3 DUP5 ADD SWAP1 PUSH2 0x4B06 JUMP JUMPDEST PUSH1 0x0 DUP1 DUP3 ISZERO PUSH2 0xA8D JUMPI PUSH2 0xCC5 TIMESTAMP DUP5 PUSH2 0x3DD4 JUMP JUMPDEST PUSH1 0x1 PUSH1 0x1 PUSH1 0xA0 SHL SUB DUP1 DUP12 AND PUSH1 0x0 SWAP1 DUP2 MSTORE PUSH1 0x12 PUSH1 0x20 SWAP1 DUP2 MSTORE PUSH1 0x40 DUP1 DUP4 KECCAK256 DUP14 DUP5 MSTORE SWAP1 SWAP2 MSTORE DUP2 KECCAK256 SWAP1 SWAP2 DUP10 AND PUSH2 0x2600 JUMPI PUSH1 0x40 MLOAD PUSH3 0x461BCD PUSH1 0xE5 SHL DUP2 MSTORE PUSH1 0x20 PUSH1 0x4 DUP3 ADD MSTORE PUSH1 0x26 PUSH1 0x24 DUP3 ADD MSTORE PUSH32 0x50617965652061646472657373206D757374206E6F74206265207A65726F2061 PUSH1 0x44 DUP3 ADD MSTORE PUSH6 0x646472657373 PUSH1 0xD0 SHL PUSH1 0x64 DUP3 ADD MSTORE PUSH1 0x84 ADD PUSH2 0x980 JUMP JUMPDEST DUP6 PUSH2 0x264D JUMPI PUSH1 0x40 MLOAD PUSH3 0x461BCD PUSH1 0xE5 SHL DUP2 MSTORE PUSH1 0x20 PUSH1 0x4 DUP3 ADD MSTORE PUSH1 0x1F PUSH1 0x24 DUP3 ADD MSTORE PUSH32 0x56616C7565206D7573742062652067726561746572207468616E207A65726F00 PUSH1 0x44 DUP3 ADD MSTORE PUSH1 0x64 ADD PUSH2 0x980 JUMP JUMPDEST PUSH1 0x4 DUP2 ADD SLOAD ISZERO PUSH2 0x269F JUMPI PUSH1 0x40 MLOAD PUSH3 0x461BCD PUSH1 0xE5 SHL DUP2 MSTORE PUSH1 0x20 PUSH1 0x4 DUP3 ADD MSTORE PUSH1 0x1A PUSH1 0x24 DUP3 ADD MSTORE PUSH32 0x5468697320686F6C64496420616C726561647920657869737473000000000000 PUSH1 0x44 DUP3 ADD MSTORE PUSH1 0x64 ADD PUSH2 0x980 JUMP JUMPDEST PUSH2 0x26AB DUP13 CALLER DUP13 DUP7 PUSH2 0x3DE0 JUMP JUMPDEST PUSH2 0x2716 JUMPI PUSH1 0x40 MLOAD PUSH3 0x461BCD PUSH1 0xE5 SHL DUP2 MSTORE PUSH1 0x20 PUSH1 0x4 DUP3 ADD MSTORE PUSH1 0x36 PUSH1 0x24 DUP3 ADD MSTORE PUSH32 0x4120686F6C642063616E206F6E6C792062652063726561746564207769746820 PUSH1 0x44 DUP3 ADD MSTORE PUSH22 0x6164617074656420617574686F72697A6174696F6E73 PUSH1 0x50 SHL PUSH1 0x64 DUP3 ADD MSTORE PUSH1 0x84 ADD PUSH2 0x980 JUMP JUMPDEST PUSH1 0x1 PUSH1 0x1 PUSH1 0xA0 SHL SUB DUP11 AND ISZERO PUSH2 0x27BA JUMPI PUSH2 0x2730 DUP13 DUP9 DUP13 PUSH2 0x3530 JUMP JUMPDEST DUP7 GT ISZERO PUSH2 0x27BA JUMPI PUSH1 0x40 MLOAD PUSH3 0x461BCD PUSH1 0xE5 SHL DUP2 MSTORE PUSH1 0x20 PUSH1 0x4 DUP3 ADD MSTORE PUSH1 0x4C PUSH1 0x24 DUP3 ADD MSTORE PUSH32 0x416D6F756E74206F662074686520686F6C642063616E27742062652067726561 PUSH1 0x44 DUP3 ADD MSTORE PUSH32 0x746572207468616E20746865207370656E6461626C652062616C616E6365206F PUSH1 0x64 DUP3 ADD MSTORE PUSH12 0x33103A34329039B2B73232B9 PUSH1 0xA1 SHL PUSH1 0x84 DUP3 ADD MSTORE PUSH1 0xA4 ADD PUSH2 0x980 JUMP JUMPDEST DUP7 DUP2 SSTORE PUSH1 0x1 DUP1 DUP3 ADD DUP1 SLOAD PUSH1 0x1 PUSH1 0x1 PUSH1 0xA0 SHL SUB DUP14 DUP2 AND PUSH1 0x1 PUSH1 0x1 PUSH1 0xA0 SHL SUB NOT SWAP3 DUP4 AND DUP2 OR SWAP1 SWAP4 SSTORE PUSH1 0x2 DUP6 ADD DUP1 SLOAD DUP15 DUP4 AND SWAP1 DUP5 AND OR SWAP1 SSTORE PUSH1 0x3 DUP6 ADD DUP1 SLOAD SWAP2 DUP14 AND SWAP2 SWAP1 SWAP3 AND OR SWAP1 SSTORE PUSH1 0x4 DUP4 ADD DUP9 SWAP1 SSTORE PUSH1 0x5 DUP4 ADD DUP8 SWAP1 SSTORE PUSH1 0x6 DUP4 ADD DUP7 SWAP1 SSTORE PUSH1 0x8 DUP4 ADD DUP1 SLOAD PUSH1 0xFF NOT AND SWAP1 SWAP3 OR SWAP1 SWAP2 SSTORE ISZERO PUSH2 0x28A5 JUMPI PUSH2 0x2834 DUP13 DUP3 DUP14 PUSH2 0x3F24 JUMP JUMPDEST PUSH1 0x0 PUSH2 0x2891 DUP14 DUP4 PUSH1 0x0 ADD SLOAD DUP5 PUSH1 0x3 ADD PUSH1 0x0 SWAP1 SLOAD SWAP1 PUSH2 0x100 EXP SWAP1 DIV PUSH1 0x1 PUSH1 0x1 PUSH1 0xA0 SHL SUB AND DUP6 PUSH1 0x1 ADD PUSH1 0x0 SWAP1 SLOAD SWAP1 PUSH2 0x100 EXP SWAP1 DIV PUSH1 0x1 PUSH1 0x1 PUSH1 0xA0 SHL SUB AND DUP7 PUSH1 0x2 ADD PUSH1 0x0 SWAP1 SLOAD SWAP1 PUSH2 0x100 EXP SWAP1 DIV PUSH1 0x1 PUSH1 0x1 PUSH1 0xA0 SHL SUB AND DUP8 PUSH1 0x4 ADD SLOAD PUSH2 0x303B JUMP JUMPDEST POP PUSH1 0x0 SWAP1 DUP2 MSTORE PUSH1 0x17 PUSH1 0x20 MSTORE PUSH1 0x40 SWAP1 KECCAK256 DUP13 SWAP1 SSTORE POP JUMPDEST PUSH1 0x40 DUP1 MLOAD DUP9 DUP2 MSTORE PUSH1 0x1 PUSH1 0x1 PUSH1 0xA0 SHL SUB DUP13 DUP2 AND PUSH1 0x20 DUP4 ADD MSTORE DUP12 DUP2 AND SWAP3 DUP3 ADD SWAP3 SWAP1 SWAP3 MSTORE PUSH1 0x60 DUP2 ADD DUP9 SWAP1 MSTORE PUSH1 0x80 DUP2 ADD DUP8 SWAP1 MSTORE PUSH1 0xA0 DUP2 ADD DUP7 SWAP1 MSTORE DUP2 DUP11 AND SWAP2 DUP14 SWAP2 SWAP1 DUP16 AND SWAP1 PUSH32 0xE6ADC59C6B5C7A2129126AE891955F416CC5837E1489B17E7FB03DD67D2EF4D1 SWAP1 PUSH1 0xC0 ADD PUSH1 0x40 MLOAD DUP1 SWAP2 SUB SWAP1 LOG4 POP PUSH1 0x1 SWAP12 SWAP11 POP POP POP POP POP POP POP POP POP POP POP JUMP JUMPDEST PUSH1 0x1 PUSH1 0x1 PUSH1 0xA0 SHL SUB DUP3 AND PUSH1 0x0 SWAP1 DUP2 MSTORE PUSH1 0x6 PUSH1 0x20 MSTORE PUSH1 0x40 SWAP1 KECCAK256 PUSH2 0x2946 SWAP1 DUP3 PUSH2 0x407F JUMP JUMPDEST DUP1 PUSH1 0x1 PUSH1 0x1 PUSH1 0xA0 SHL SUB AND DUP3 PUSH1 0x1 PUSH1 0x1 PUSH1 0xA0 SHL SUB AND PUSH32 0x4EEF79DFDFF8D6B9485C6A01D5CAAC6413488FC1036C03867DBF75558A3B3A36 PUSH1 0x40 MLOAD PUSH1 0x40 MLOAD DUP1 SWAP2 SUB SWAP1 LOG3 POP POP JUMP JUMPDEST PUSH1 0x0 PUSH1 0x1 PUSH1 0x1 PUSH1 0xA0 SHL SUB DUP3 AND PUSH2 0x29ED JUMPI PUSH1 0x40 MLOAD PUSH3 0x461BCD PUSH1 0xE5 SHL DUP2 MSTORE PUSH1 0x20 PUSH1 0x4 DUP3 ADD MSTORE PUSH1 0x22 PUSH1 0x24 DUP3 ADD MSTORE PUSH32 0x526F6C65733A206163636F756E7420697320746865207A65726F206164647265 PUSH1 0x44 DUP3 ADD MSTORE PUSH2 0x7373 PUSH1 0xF0 SHL PUSH1 0x64 DUP3 ADD MSTORE PUSH1 0x84 ADD PUSH2 0x980 JUMP JUMPDEST POP PUSH1 0x1 PUSH1 0x1 PUSH1 0xA0 SHL SUB AND PUSH1 0x0 SWAP1 DUP2 MSTORE PUSH1 0x20 SWAP2 SWAP1 SWAP2 MSTORE PUSH1 0x40 SWAP1 KECCAK256 SLOAD PUSH1 0xFF AND SWAP1 JUMP JUMPDEST PUSH1 0x1 PUSH1 0x1 PUSH1 0xA0 SHL SUB DUP3 AND PUSH1 0x0 SWAP1 DUP2 MSTORE PUSH1 0x2 PUSH1 0x20 MSTORE PUSH1 0x40 SWAP1 KECCAK256 PUSH2 0x2A2F SWAP1 DUP3 PUSH2 0x3D52 JUMP JUMPDEST DUP1 PUSH1 0x1 PUSH1 0x1 PUSH1 0xA0 SHL SUB AND DUP3 PUSH1 0x1 PUSH1 0x1 PUSH1 0xA0 SHL SUB AND PUSH32 0x795A3A12AB7AA35EE8D4681EAD2986EAE8DE69F5491D9DCCFECA0442F644DB81 PUSH1 0x40 MLOAD PUSH1 0x40 MLOAD DUP1 SWAP2 SUB SWAP1 LOG3 POP POP JUMP JUMPDEST PUSH1 0x1 PUSH1 0x1 PUSH1 0xA0 SHL SUB DUP3 AND PUSH1 0x0 SWAP1 DUP2 MSTORE PUSH1 0x20 DUP2 SWAP1 MSTORE PUSH1 0x40 SWAP1 KECCAK256 PUSH2 0x2A95 SWAP1 DUP3 PUSH2 0x3D52 JUMP JUMPDEST DUP1 PUSH1 0x1 PUSH1 0x1 PUSH1 0xA0 SHL SUB AND DUP3 PUSH1 0x1 PUSH1 0x1 PUSH1 0xA0 SHL SUB AND PUSH32 0xB75903ADE4A0FDB07D60C882C22C779E2E1C751883C37AECDCC92A8EC72B046E PUSH1 0x40 MLOAD PUSH1 0x40 MLOAD DUP1 SWAP2 SUB SWAP1 LOG3 POP POP JUMP JUMPDEST PUSH1 0x1 PUSH1 0x1 PUSH1 0xA0 SHL SUB DUP3 AND PUSH1 0x0 SWAP1 DUP2 MSTORE PUSH1 0x4 PUSH1 0x20 MSTORE PUSH1 0x40 SWAP1 KECCAK256 PUSH2 0x2AFB SWAP1 DUP3 PUSH2 0x407F JUMP JUMPDEST DUP1 PUSH1 0x1 PUSH1 0x1 PUSH1 0xA0 SHL SUB AND DUP3 PUSH1 0x1 PUSH1 0x1 PUSH1 0xA0 SHL SUB AND PUSH32 0xF537A4C39A5575220902FDA69B79909E02D44C8A7146B1A1C3B936F86AA71E38 PUSH1 0x40 MLOAD PUSH1 0x40 MLOAD DUP1 SWAP2 SUB SWAP1 LOG3 POP POP JUMP JUMPDEST PUSH1 0x0 DUP1 DUP1 DUP1 PUSH1 0x1 PUSH1 0x1 PUSH1 0xA0 SHL SUB DUP9 AND PUSH1 0x0 SWAP1 DUP2 MSTORE PUSH1 0xC PUSH1 0x20 MSTORE PUSH1 0x40 SWAP1 KECCAK256 SLOAD PUSH1 0xFF AND PUSH1 0x2 DUP2 GT ISZERO PUSH2 0x2B71 JUMPI PUSH2 0x2B71 PUSH2 0x5597 JUMP JUMPDEST GT DUP1 ISZERO PUSH2 0x2B82 JUMPI POP PUSH2 0x2B82 DUP7 PUSH2 0x40FB JUMP JUMPDEST DUP1 ISZERO PUSH2 0x2B95 JUMPI POP PUSH2 0x2B93 DUP8 DUP7 PUSH2 0x1996 JUMP JUMPDEST ISZERO JUMPDEST DUP1 ISZERO PUSH2 0x2BAA JUMPI POP ADDRESS PUSH1 0x1 PUSH1 0x1 PUSH1 0xA0 SHL SUB DUP7 AND EQ ISZERO JUMPDEST ISZERO PUSH2 0x2C50 JUMPI PUSH1 0x2 PUSH1 0x1 PUSH1 0x1 PUSH1 0xA0 SHL SUB DUP9 AND PUSH1 0x0 SWAP1 DUP2 MSTORE PUSH1 0xC PUSH1 0x20 MSTORE PUSH1 0x40 SWAP1 KECCAK256 SLOAD PUSH1 0xFF AND PUSH1 0x2 DUP2 GT ISZERO PUSH2 0x2BDE JUMPI PUSH2 0x2BDE PUSH2 0x5597 JUMP JUMPDEST EQ ISZERO PUSH2 0x2C21 JUMPI PUSH1 0x0 DUP1 PUSH2 0x2BF3 DUP10 DUP9 DUP11 DUP10 PUSH2 0x414F JUMP JUMPDEST SWAP2 POP SWAP2 POP DUP2 ISZERO PUSH2 0x2C0E JUMPI PUSH1 0x1 SWAP5 POP PUSH1 0x2 SWAP4 POP SWAP2 POP PUSH2 0x2C5B SWAP1 POP JUMP JUMPDEST PUSH1 0x0 PUSH1 0x2 PUSH1 0x0 SWAP5 POP SWAP5 POP SWAP5 POP POP POP PUSH2 0x2C5B JUMP JUMPDEST PUSH2 0x2C2D DUP8 DUP7 DUP9 DUP8 PUSH2 0x4446 JUMP JUMPDEST ISZERO PUSH2 0x2C41 JUMPI POP PUSH1 0x1 SWAP2 POP DUP2 SWAP1 POP PUSH1 0x0 PUSH2 0x2C5B JUMP JUMPDEST POP PUSH1 0x0 SWAP2 POP PUSH1 0x1 SWAP1 POP DUP2 PUSH2 0x2C5B JUMP JUMPDEST POP PUSH1 0x1 SWAP2 POP PUSH1 0x0 SWAP1 POP DUP1 JUMPDEST SWAP5 POP SWAP5 POP SWAP5 SWAP2 POP POP JUMP JUMPDEST PUSH1 0x1 DUP4 PUSH1 0x2 DUP2 GT ISZERO PUSH2 0x2C79 JUMPI PUSH2 0x2C79 PUSH2 0x5597 JUMP JUMPDEST EQ ISZERO PUSH2 0x2CC2 JUMPI PUSH1 0x1 PUSH1 0x1 PUSH1 0xA0 SHL SUB DUP1 DUP6 AND PUSH1 0x0 SWAP1 DUP2 MSTORE PUSH1 0xD PUSH1 0x20 SWAP1 DUP2 MSTORE PUSH1 0x40 DUP1 DUP4 KECCAK256 SWAP4 DUP7 AND DUP4 MSTORE SWAP3 SWAP1 MSTORE SWAP1 DUP2 KECCAK256 DUP1 SLOAD PUSH1 0x1 SWAP3 SWAP1 PUSH2 0x2CB7 SWAP1 DUP5 SWAP1 PUSH2 0x54A5 JUMP JUMPDEST SWAP1 SWAP2 SSTORE POP PUSH2 0x2D0B SWAP1 POP JUMP JUMPDEST PUSH1 0x2 DUP4 PUSH1 0x2 DUP2 GT ISZERO PUSH2 0x2CD6 JUMPI PUSH2 0x2CD6 PUSH2 0x5597 JUMP JUMPDEST EQ ISZERO PUSH2 0x2D0B JUMPI PUSH1 0x1 PUSH1 0x1 PUSH1 0xA0 SHL SUB DUP5 AND PUSH1 0x0 SWAP1 DUP2 MSTORE PUSH1 0xE PUSH1 0x20 SWAP1 DUP2 MSTORE PUSH1 0x40 DUP1 DUP4 KECCAK256 DUP5 DUP5 MSTORE SWAP1 SWAP2 MSTORE SWAP1 KECCAK256 DUP1 SLOAD PUSH1 0xFF NOT AND PUSH1 0x1 OR SWAP1 SSTORE JUMPDEST POP POP POP POP JUMP JUMPDEST PUSH1 0x0 PUSH2 0x2D1C DUP5 PUSH2 0x40FB JUMP JUMPDEST ISZERO DUP1 PUSH2 0x2D52 JUMPI POP PUSH1 0x1 PUSH1 0x1 PUSH1 0xA0 SHL SUB DUP6 AND PUSH1 0x0 SWAP1 DUP2 MSTORE PUSH1 0xC PUSH1 0x20 MSTORE PUSH1 0x40 DUP2 KECCAK256 SLOAD PUSH1 0xFF AND PUSH1 0x2 DUP2 GT ISZERO PUSH2 0x2D50 JUMPI PUSH2 0x2D50 PUSH2 0x5597 JUMP JUMPDEST EQ JUMPDEST ISZERO PUSH2 0x2E45 JUMPI PUSH1 0x1 PUSH1 0x1 PUSH1 0xA0 SHL SUB DUP6 AND PUSH1 0x0 SWAP1 DUP2 MSTORE PUSH1 0xA PUSH1 0x20 MSTORE PUSH1 0x40 SWAP1 KECCAK256 SLOAD PUSH1 0xFF AND ISZERO PUSH2 0x2DD0 JUMPI PUSH1 0x1 PUSH1 0x1 PUSH1 0xA0 SHL SUB DUP4 AND ISZERO DUP1 ISZERO SWAP1 PUSH2 0x2D97 JUMPI POP PUSH2 0x2D95 DUP6 DUP5 PUSH2 0x1245 JUMP JUMPDEST ISZERO JUMPDEST ISZERO PUSH2 0x2DA4 JUMPI POP PUSH1 0x0 PUSH2 0x10BD JUMP JUMPDEST PUSH1 0x1 PUSH1 0x1 PUSH1 0xA0 SHL SUB DUP3 AND ISZERO DUP1 ISZERO SWAP1 PUSH2 0x2DC3 JUMPI POP PUSH2 0x2DC1 DUP6 DUP4 PUSH2 0x1245 JUMP JUMPDEST ISZERO JUMPDEST ISZERO PUSH2 0x2DD0 JUMPI POP PUSH1 0x0 PUSH2 0x10BD JUMP JUMPDEST PUSH1 0x1 PUSH1 0x1 PUSH1 0xA0 SHL SUB DUP6 AND PUSH1 0x0 SWAP1 DUP2 MSTORE PUSH1 0xB PUSH1 0x20 MSTORE PUSH1 0x40 SWAP1 KECCAK256 SLOAD PUSH1 0xFF AND ISZERO PUSH2 0x2E45 JUMPI PUSH1 0x1 PUSH1 0x1 PUSH1 0xA0 SHL SUB DUP4 AND ISZERO DUP1 ISZERO SWAP1 PUSH2 0x2E0E JUMPI POP PUSH2 0x2E0E DUP6 DUP5 PUSH2 0x19DA JUMP JUMPDEST ISZERO PUSH2 0x2E1B JUMPI POP PUSH1 0x0 PUSH2 0x10BD JUMP JUMPDEST PUSH1 0x1 PUSH1 0x1 PUSH1 0xA0 SHL SUB DUP3 AND ISZERO DUP1 ISZERO SWAP1 PUSH2 0x2E38 JUMPI POP PUSH2 0x2E38 DUP6 DUP4 PUSH2 0x19DA JUMP JUMPDEST ISZERO PUSH2 0x2E45 JUMPI POP PUSH1 0x0 PUSH2 0x10BD JUMP JUMPDEST POP PUSH1 0x1 SWAP5 SWAP4 POP POP POP POP JUMP JUMPDEST PUSH1 0x1 PUSH1 0x1 PUSH1 0xA0 SHL SUB DUP4 AND PUSH1 0x0 SWAP1 DUP2 MSTORE PUSH1 0xF PUSH1 0x20 MSTORE PUSH1 0x40 DUP2 KECCAK256 SLOAD PUSH1 0xFF AND ISZERO PUSH2 0x2EDB JUMPI PUSH1 0x1 PUSH1 0x1 PUSH1 0xA0 SHL SUB DUP5 AND PUSH1 0x0 SWAP1 DUP2 MSTORE PUSH1 0x11 PUSH1 0x20 SWAP1 DUP2 MSTORE PUSH1 0x40 DUP1 DUP4 KECCAK256 DUP7 DUP5 MSTORE SWAP1 SWAP2 MSTORE SWAP1 KECCAK256 SLOAD ISZERO DUP1 ISZERO SWAP1 PUSH2 0x2ECE JUMPI POP PUSH1 0x1 PUSH1 0x1 PUSH1 0xA0 SHL SUB DUP5 AND PUSH1 0x0 SWAP1 DUP2 MSTORE PUSH1 0x11 PUSH1 0x20 SWAP1 DUP2 MSTORE PUSH1 0x40 DUP1 DUP4 KECCAK256 DUP7 DUP5 MSTORE SWAP1 SWAP2 MSTORE SWAP1 KECCAK256 SLOAD PUSH2 0x2ECC SWAP1 DUP4 PUSH2 0x46DA JUMP JUMPDEST ISZERO JUMPDEST ISZERO PUSH2 0x2EDB JUMPI POP PUSH1 0x0 PUSH2 0xCC5 JUMP JUMPDEST POP PUSH1 0x1 SWAP4 SWAP3 POP POP POP JUMP JUMPDEST PUSH1 0x1 PUSH1 0x1 PUSH1 0xA0 SHL SUB DUP7 AND PUSH1 0x0 SWAP1 DUP2 MSTORE PUSH1 0x10 PUSH1 0x20 MSTORE PUSH1 0x40 DUP2 KECCAK256 SLOAD PUSH1 0xFF AND DUP1 ISZERO PUSH2 0x2F15 JUMPI POP PUSH1 0x1 PUSH1 0x1 PUSH1 0xA0 SHL SUB DUP5 AND ISZERO ISZERO JUMPDEST ISZERO PUSH2 0x302E JUMPI DUP4 PUSH1 0x1 PUSH1 0x1 PUSH1 0xA0 SHL SUB AND DUP6 PUSH1 0x1 PUSH1 0x1 PUSH1 0xA0 SHL SUB AND EQ PUSH2 0x3014 JUMPI PUSH1 0x0 PUSH2 0x2F43 DUP9 DUP9 DUP9 DUP9 DUP9 DUP9 PUSH2 0x303B JUMP JUMPDEST PUSH1 0x1 PUSH1 0x1 PUSH1 0xA0 SHL SUB DUP11 AND PUSH1 0x0 SWAP1 DUP2 MSTORE PUSH1 0x12 PUSH1 0x20 SWAP1 DUP2 MSTORE PUSH1 0x40 DUP1 DUP4 KECCAK256 DUP5 DUP5 MSTORE SWAP1 SWAP2 MSTORE SWAP1 KECCAK256 SWAP1 SWAP3 POP SWAP1 POP PUSH2 0x2F76 DUP2 DUP9 DUP7 PUSH2 0x46F9 JUMP JUMPDEST DUP1 ISZERO PUSH2 0x3001 JUMPI POP PUSH1 0x40 MLOAD PUSH4 0x30E82803 PUSH1 0xE0 SHL DUP2 MSTORE PUSH1 0x4 DUP2 ADD DUP10 SWAP1 MSTORE PUSH1 0x1 PUSH1 0x1 PUSH1 0xA0 SHL SUB DUP8 DUP2 AND PUSH1 0x24 DUP4 ADD MSTORE DUP11 AND SWAP1 PUSH4 0x30E82803 SWAP1 PUSH1 0x44 ADD PUSH1 0x20 PUSH1 0x40 MLOAD DUP1 DUP4 SUB DUP2 DUP7 DUP1 EXTCODESIZE ISZERO DUP1 ISZERO PUSH2 0x2FC5 JUMPI PUSH1 0x0 DUP1 REVERT JUMPDEST POP GAS STATICCALL ISZERO DUP1 ISZERO PUSH2 0x2FD9 JUMPI RETURNDATASIZE PUSH1 0x0 DUP1 RETURNDATACOPY RETURNDATASIZE PUSH1 0x0 REVERT JUMPDEST POP POP POP POP PUSH1 0x40 MLOAD RETURNDATASIZE PUSH1 0x1F NOT PUSH1 0x1F DUP3 ADD AND DUP3 ADD DUP1 PUSH1 0x40 MSTORE POP DUP2 ADD SWAP1 PUSH2 0x2FFD SWAP2 SWAP1 PUSH2 0x500E JUMP JUMPDEST DUP5 GT ISZERO JUMPDEST ISZERO PUSH2 0x3011 JUMPI PUSH1 0x1 SWAP3 POP POP POP PUSH2 0x1B17 JUMP JUMPDEST POP POP JUMPDEST PUSH2 0x301F DUP8 DUP8 DUP7 PUSH2 0x3530 JUMP JUMPDEST DUP3 GT ISZERO PUSH2 0x302E JUMPI POP PUSH1 0x0 PUSH2 0x1B17 JUMP JUMPDEST POP PUSH1 0x1 SWAP7 SWAP6 POP POP POP POP POP POP JUMP JUMPDEST PUSH1 0x40 DUP1 MLOAD PUSH12 0xFFFFFFFFFFFFFFFFFFFFFFFF NOT PUSH1 0x60 SWAP9 DUP10 SHL DUP2 AND PUSH1 0x20 DUP1 DUP5 ADD SWAP2 SWAP1 SWAP2 MSTORE PUSH1 0x34 DUP4 ADD SWAP9 SWAP1 SWAP9 MSTORE SWAP5 DUP9 SHL DUP6 AND PUSH1 0x54 DUP3 ADD MSTORE SWAP3 DUP8 SHL DUP5 AND PUSH1 0x68 DUP5 ADD MSTORE SWAP4 SWAP1 SWAP6 SHL SWAP1 SWAP2 AND PUSH1 0x7C DUP3 ADD MSTORE PUSH1 0x90 DUP1 DUP3 ADD SWAP5 SWAP1 SWAP5 MSTORE DUP2 MLOAD DUP1 DUP3 SUB SWAP1 SWAP5 ADD DUP5 MSTORE PUSH1 0xB0 ADD DUP2 MSTORE DUP3 MLOAD SWAP3 DUP3 ADD SWAP3 SWAP1 SWAP3 KECCAK256 PUSH1 0x0 DUP2 DUP2 MSTORE PUSH1 0x17 SWAP1 SWAP3 MSTORE SWAP2 SWAP1 KECCAK256 SLOAD SWAP1 SWAP2 JUMP JUMPDEST PUSH1 0x1 DUP6 ADD SLOAD PUSH1 0x1 PUSH1 0x1 PUSH1 0xA0 SHL SUB AND ISZERO PUSH2 0x30D6 JUMPI PUSH2 0x30D6 DUP7 DUP7 DUP5 PUSH2 0x4735 JUMP JUMPDEST PUSH1 0x8 DUP6 ADD DUP1 SLOAD PUSH1 0xFF NOT AND PUSH1 0x2 OR SWAP1 SSTORE PUSH1 0x3 DUP6 ADD SLOAD PUSH1 0x4 DUP7 ADD SLOAD PUSH1 0x40 DUP1 MLOAD DUP8 DUP2 MSTORE PUSH1 0x20 DUP2 ADD SWAP3 SWAP1 SWAP3 MSTORE DUP2 ADD DUP6 SWAP1 MSTORE PUSH1 0x60 DUP2 ADD DUP4 SWAP1 MSTORE PUSH1 0x1 PUSH1 0x1 PUSH1 0xA0 SHL SUB SWAP2 DUP3 AND SWAP2 DUP9 AND SWAP1 PUSH32 0xF684696C1680054513509EE7893B2A90BDA386E071A6FDF7C462C7539FF816A4 SWAP1 PUSH1 0x80 ADD JUMPDEST PUSH1 0x40 MLOAD DUP1 SWAP2 SUB SWAP1 LOG3 POP POP POP POP POP POP JUMP JUMPDEST TIMESTAMP DUP2 GT DUP1 PUSH2 0x315B JUMPI POP DUP1 ISZERO JUMPDEST PUSH2 0x89A JUMPI PUSH1 0x40 MLOAD PUSH3 0x461BCD PUSH1 0xE5 SHL DUP2 MSTORE PUSH1 0x20 PUSH1 0x4 DUP3 ADD MSTORE PUSH1 0x3C PUSH1 0x24 DUP3 ADD MSTORE PUSH32 0x45787069726174696F6E2064617465206D757374206265206772656174657220 PUSH1 0x44 DUP3 ADD MSTORE PUSH32 0x7468616E20626C6F636B2074696D657374616D70206F72207A65726F00000000 PUSH1 0x64 DUP3 ADD MSTORE PUSH1 0x84 ADD PUSH2 0x980 JUMP JUMPDEST PUSH1 0x1 PUSH1 0x1 PUSH1 0xA0 SHL SUB DUP7 AND PUSH1 0x0 SWAP1 DUP2 MSTORE PUSH1 0x12 PUSH1 0x20 SWAP1 DUP2 MSTORE PUSH1 0x40 DUP1 DUP4 KECCAK256 DUP9 DUP5 MSTORE SWAP1 SWAP2 MSTORE DUP2 KECCAK256 DUP2 DUP5 ISZERO DUP1 ISZERO SWAP1 PUSH2 0x3206 JUMPI POP PUSH2 0x3206 DUP3 DUP8 DUP8 PUSH2 0x4850 JUMP JUMPDEST ISZERO PUSH2 0x321A JUMPI POP PUSH1 0x7 DUP2 ADD DUP5 SWAP1 SSTORE PUSH1 0x1 PUSH2 0x322E JUMP JUMPDEST PUSH2 0x3225 DUP3 DUP9 DUP9 PUSH2 0x46F9 JUMP JUMPDEST ISZERO PUSH2 0x322E JUMPI POP PUSH1 0x1 JUMPDEST DUP1 ISZERO PUSH2 0x33D0 JUMPI DUP4 DUP1 ISZERO PUSH2 0x3250 JUMPI POP PUSH1 0x0 DUP7 DUP4 PUSH1 0x4 ADD SLOAD PUSH2 0x324E SWAP2 SWAP1 PUSH2 0x5523 JUMP JUMPDEST GT JUMPDEST ISZERO PUSH2 0x3268 JUMPI PUSH2 0x3263 DUP10 DUP4 DUP11 DUP10 DUP11 DUP11 PUSH2 0x486D JUMP JUMPDEST PUSH2 0x327A JUMP JUMPDEST PUSH2 0x327A DUP10 DUP4 DUP11 DUP10 DUP7 PUSH1 0x4 ADD SLOAD DUP11 PUSH2 0x30B8 JUMP JUMPDEST PUSH1 0x1 DUP3 ADD SLOAD PUSH1 0x1 PUSH1 0x1 PUSH1 0xA0 SHL SUB AND PUSH2 0x3310 JUMPI DUP2 SLOAD PUSH1 0x2 DUP4 ADD SLOAD PUSH1 0x40 MLOAD PUSH4 0x67C84919 PUSH1 0xE0 SHL DUP2 MSTORE PUSH1 0x4 DUP2 ADD SWAP3 SWAP1 SWAP3 MSTORE PUSH1 0x1 PUSH1 0x1 PUSH1 0xA0 SHL SUB SWAP1 DUP2 AND PUSH1 0x24 DUP4 ADD MSTORE PUSH1 0x44 DUP3 ADD DUP9 SWAP1 MSTORE PUSH1 0x80 PUSH1 0x64 DUP4 ADD MSTORE PUSH1 0x0 PUSH1 0x84 DUP4 ADD MSTORE DUP11 AND SWAP1 PUSH4 0x67C84919 SWAP1 PUSH1 0xA4 ADD PUSH1 0x0 PUSH1 0x40 MLOAD DUP1 DUP4 SUB DUP2 PUSH1 0x0 DUP8 DUP1 EXTCODESIZE ISZERO DUP1 ISZERO PUSH2 0x32F3 JUMPI PUSH1 0x0 DUP1 REVERT JUMPDEST POP GAS CALL ISZERO DUP1 ISZERO PUSH2 0x3307 JUMPI RETURNDATASIZE PUSH1 0x0 DUP1 RETURNDATACOPY RETURNDATASIZE PUSH1 0x0 REVERT JUMPDEST POP POP POP POP PUSH2 0x3418 JUMP JUMPDEST DUP2 SLOAD PUSH1 0x1 DUP4 ADD SLOAD PUSH1 0x2 DUP5 ADD SLOAD PUSH1 0x40 MLOAD PUSH4 0x23037BA7 PUSH1 0xE2 SHL DUP2 MSTORE PUSH1 0x4 DUP2 ADD SWAP4 SWAP1 SWAP4 MSTORE PUSH1 0x1 PUSH1 0x1 PUSH1 0xA0 SHL SUB SWAP2 DUP3 AND PUSH1 0x24 DUP5 ADD MSTORE DUP2 AND PUSH1 0x44 DUP4 ADD MSTORE PUSH1 0x64 DUP3 ADD DUP9 SWAP1 MSTORE PUSH1 0xC0 PUSH1 0x84 DUP4 ADD MSTORE PUSH1 0x0 PUSH1 0xC4 DUP4 ADD DUP2 SWAP1 MSTORE PUSH1 0xE0 PUSH1 0xA4 DUP5 ADD MSTORE PUSH1 0xE4 DUP4 ADD MSTORE DUP11 AND SWAP1 PUSH4 0x8C0DEE9C SWAP1 PUSH2 0x104 ADD PUSH1 0x20 PUSH1 0x40 MLOAD DUP1 DUP4 SUB DUP2 PUSH1 0x0 DUP8 DUP1 EXTCODESIZE ISZERO DUP1 ISZERO PUSH2 0x3392 JUMPI PUSH1 0x0 DUP1 REVERT JUMPDEST POP GAS CALL ISZERO DUP1 ISZERO PUSH2 0x33A6 JUMPI RETURNDATASIZE PUSH1 0x0 DUP1 RETURNDATACOPY RETURNDATASIZE PUSH1 0x0 REVERT JUMPDEST POP POP POP POP PUSH1 0x40 MLOAD RETURNDATASIZE PUSH1 0x1F NOT PUSH1 0x1F DUP3 ADD AND DUP3 ADD DUP1 PUSH1 0x40 MSTORE POP DUP2 ADD SWAP1 PUSH2 0x33CA SWAP2 SWAP1 PUSH2 0x500E JUMP JUMPDEST POP PUSH2 0x3418 JUMP JUMPDEST PUSH1 0x40 MLOAD PUSH3 0x461BCD PUSH1 0xE5 SHL DUP2 MSTORE PUSH1 0x20 PUSH1 0x4 DUP3 ADD MSTORE PUSH1 0x18 PUSH1 0x24 DUP3 ADD MSTORE PUSH32 0x686F6C642063616E206E6F742062652065786563757465640000000000000000 PUSH1 0x44 DUP3 ADD MSTORE PUSH1 0x64 ADD PUSH2 0x980 JUMP JUMPDEST POP POP SWAP7 SWAP6 POP POP POP POP POP POP JUMP JUMPDEST PUSH1 0x1 PUSH1 0x1 PUSH1 0xA0 SHL SUB DUP3 DUP2 AND PUSH1 0x0 DUP2 DUP2 MSTORE PUSH1 0x13 PUSH1 0x20 SWAP1 DUP2 MSTORE PUSH1 0x40 DUP1 DUP4 KECCAK256 SWAP5 DUP7 AND DUP1 DUP5 MSTORE SWAP5 SWAP1 SWAP2 MSTORE DUP1 DUP3 KECCAK256 SLOAD SWAP1 MLOAD PUSH4 0x70A08231 PUSH1 0xE0 SHL DUP2 MSTORE PUSH1 0x4 DUP2 ADD SWAP5 SWAP1 SWAP5 MSTORE SWAP1 SWAP3 SWAP1 SWAP2 SWAP1 PUSH4 0x70A08231 SWAP1 PUSH1 0x24 ADD PUSH1 0x20 PUSH1 0x40 MLOAD DUP1 DUP4 SUB DUP2 DUP7 DUP1 EXTCODESIZE ISZERO DUP1 ISZERO PUSH2 0x3488 JUMPI PUSH1 0x0 DUP1 REVERT JUMPDEST POP GAS STATICCALL ISZERO DUP1 ISZERO PUSH2 0x349C JUMPI RETURNDATASIZE PUSH1 0x0 DUP1 RETURNDATACOPY RETURNDATASIZE PUSH1 0x0 REVERT JUMPDEST POP POP POP POP PUSH1 0x40 MLOAD RETURNDATASIZE PUSH1 0x1F NOT PUSH1 0x1F DUP3 ADD AND DUP3 ADD DUP1 PUSH1 0x40 MSTORE POP DUP2 ADD SWAP1 PUSH2 0x34C0 SWAP2 SWAP1 PUSH2 0x500E JUMP JUMPDEST PUSH2 0xCC5 SWAP2 SWAP1 PUSH2 0x5523 JUMP JUMPDEST PUSH1 0x1 PUSH1 0x1 PUSH1 0xA0 SHL SUB DUP3 AND PUSH1 0x0 SWAP1 DUP2 MSTORE PUSH1 0x4 PUSH1 0x20 MSTORE PUSH1 0x40 SWAP1 KECCAK256 PUSH2 0x34EC SWAP1 DUP3 PUSH2 0x3D52 JUMP JUMPDEST DUP1 PUSH1 0x1 PUSH1 0x1 PUSH1 0xA0 SHL SUB AND DUP3 PUSH1 0x1 PUSH1 0x1 PUSH1 0xA0 SHL SUB AND PUSH32 0x99C45157365B22D82F22EEA7BC8CFF76CB53628113F4B52B10F83DB3B4040016 PUSH1 0x40 MLOAD PUSH1 0x40 MLOAD DUP1 SWAP2 SUB SWAP1 LOG3 POP POP JUMP JUMPDEST PUSH1 0x1 PUSH1 0x1 PUSH1 0xA0 SHL SUB DUP4 DUP2 AND PUSH1 0x0 DUP2 DUP2 MSTORE PUSH1 0x14 PUSH1 0x20 SWAP1 DUP2 MSTORE PUSH1 0x40 DUP1 DUP4 KECCAK256 SWAP5 DUP7 AND DUP1 DUP5 MSTORE SWAP5 DUP3 MSTORE DUP1 DUP4 KECCAK256 DUP8 DUP5 MSTORE SWAP1 SWAP2 MSTORE DUP1 DUP3 KECCAK256 SLOAD SWAP1 MLOAD PUSH4 0x30E82803 PUSH1 0xE0 SHL DUP2 MSTORE PUSH1 0x4 DUP2 ADD DUP8 SWAP1 MSTORE PUSH1 0x24 DUP2 ADD SWAP5 SWAP1 SWAP5 MSTORE SWAP1 SWAP3 SWAP1 SWAP2 SWAP1 PUSH4 0x30E82803 SWAP1 PUSH1 0x44 ADD PUSH1 0x20 PUSH1 0x40 MLOAD DUP1 DUP4 SUB DUP2 DUP7 DUP1 EXTCODESIZE ISZERO DUP1 ISZERO PUSH2 0x35A3 JUMPI PUSH1 0x0 DUP1 REVERT JUMPDEST POP GAS STATICCALL ISZERO DUP1 ISZERO PUSH2 0x35B7 JUMPI RETURNDATASIZE PUSH1 0x0 DUP1 RETURNDATACOPY RETURNDATASIZE PUSH1 0x0 REVERT JUMPDEST POP POP POP POP PUSH1 0x40 MLOAD RETURNDATASIZE PUSH1 0x1F NOT PUSH1 0x1F DUP3 ADD AND DUP3 ADD DUP1 PUSH1 0x40 MSTORE POP DUP2 ADD SWAP1 PUSH2 0x35DB SWAP2 SWAP1 PUSH2 0x500E JUMP JUMPDEST PUSH2 0x10BD SWAP2 SWAP1 PUSH2 0x5523 JUMP JUMPDEST PUSH1 0x1 PUSH1 0x1 PUSH1 0xA0 SHL SUB DUP3 AND PUSH1 0x0 SWAP1 DUP2 MSTORE PUSH1 0x6 PUSH1 0x20 MSTORE PUSH1 0x40 SWAP1 KECCAK256 PUSH2 0x3607 SWAP1 DUP3 PUSH2 0x3D52 JUMP JUMPDEST DUP1 PUSH1 0x1 PUSH1 0x1 PUSH1 0xA0 SHL SUB AND DUP3 PUSH1 0x1 PUSH1 0x1 PUSH1 0xA0 SHL SUB AND PUSH32 0xD3E42D12AE7DAE2E960401C63B158173CC9987F9EE213374EFF6471EED4062E3 PUSH1 0x40 MLOAD PUSH1 0x40 MLOAD DUP1 SWAP2 SUB SWAP1 LOG3 POP POP JUMP JUMPDEST PUSH1 0x1 PUSH1 0x1 PUSH1 0xA0 SHL SUB DUP5 AND PUSH1 0x0 SWAP1 DUP2 MSTORE PUSH1 0x12 PUSH1 0x20 SWAP1 DUP2 MSTORE PUSH1 0x40 DUP1 DUP4 KECCAK256 DUP7 DUP5 MSTORE SWAP1 SWAP2 MSTORE DUP2 KECCAK256 PUSH1 0x1 PUSH1 0x8 DUP3 ADD SLOAD PUSH1 0xFF AND PUSH1 0x6 DUP2 GT ISZERO PUSH2 0x3689 JUMPI PUSH2 0x3689 PUSH2 0x5597 JUMP JUMPDEST EQ DUP1 PUSH2 0x36AD JUMPI POP PUSH1 0x3 PUSH1 0x8 DUP3 ADD SLOAD PUSH1 0xFF AND PUSH1 0x6 DUP2 GT ISZERO PUSH2 0x36AB JUMPI PUSH2 0x36AB PUSH2 0x5597 JUMP JUMPDEST EQ JUMPDEST PUSH2 0x372B JUMPI PUSH1 0x40 MLOAD PUSH3 0x461BCD PUSH1 0xE5 SHL DUP2 MSTORE PUSH1 0x20 PUSH1 0x4 DUP3 ADD MSTORE PUSH1 0x43 PUSH1 0x24 DUP3 ADD MSTORE PUSH32 0x4120686F6C642063616E206F6E6C792062652072656E6577656420696E207374 PUSH1 0x44 DUP3 ADD MSTORE PUSH32 0x61747573204F726465726564206F72204578656375746564416E644B6570744F PUSH1 0x64 DUP3 ADD MSTORE PUSH3 0x3832B7 PUSH1 0xE9 SHL PUSH1 0x84 DUP3 ADD MSTORE PUSH1 0xA4 ADD PUSH2 0x980 JUMP JUMPDEST PUSH2 0x3738 DUP2 PUSH1 0x5 ADD SLOAD PUSH2 0x490A JUMP JUMPDEST ISZERO PUSH2 0x3790 JUMPI PUSH1 0x40 MLOAD PUSH3 0x461BCD PUSH1 0xE5 SHL DUP2 MSTORE PUSH1 0x20 PUSH1 0x4 DUP3 ADD MSTORE PUSH1 0x22 PUSH1 0x24 DUP3 ADD MSTORE PUSH32 0x416E206578706972656420686F6C642063616E206E6F742062652072656E6577 PUSH1 0x44 DUP3 ADD MSTORE PUSH2 0x1959 PUSH1 0xF2 SHL PUSH1 0x64 DUP3 ADD MSTORE PUSH1 0x84 ADD PUSH2 0x980 JUMP JUMPDEST PUSH1 0x1 DUP2 ADD SLOAD PUSH2 0x37AC SWAP1 DUP8 SWAP1 CALLER SWAP1 PUSH1 0x1 PUSH1 0x1 PUSH1 0xA0 SHL SUB AND DUP7 PUSH2 0x3DE0 JUMP JUMPDEST PUSH2 0x3817 JUMPI PUSH1 0x40 MLOAD PUSH3 0x461BCD PUSH1 0xE5 SHL DUP2 MSTORE PUSH1 0x20 PUSH1 0x4 DUP3 ADD MSTORE PUSH1 0x36 PUSH1 0x24 DUP3 ADD MSTORE PUSH32 0x4120686F6C642063616E206F6E6C792062652072656E65776564207769746820 PUSH1 0x44 DUP3 ADD MSTORE PUSH22 0x6164617074656420617574686F72697A6174696F6E73 PUSH1 0x50 SHL PUSH1 0x64 DUP3 ADD MSTORE PUSH1 0x84 ADD PUSH2 0x980 JUMP JUMPDEST PUSH1 0x5 DUP2 ADD DUP1 SLOAD SWAP1 DUP6 SWAP1 SSTORE PUSH1 0x3 DUP3 ADD SLOAD PUSH1 0x40 DUP1 MLOAD DUP9 DUP2 MSTORE PUSH1 0x20 DUP2 ADD DUP5 SWAP1 MSTORE SWAP1 DUP2 ADD DUP8 SWAP1 MSTORE PUSH1 0x1 PUSH1 0x1 PUSH1 0xA0 SHL SUB SWAP2 DUP3 AND SWAP2 DUP10 AND SWAP1 PUSH32 0xA0BC54A9DD12FDE7C7D2647B3F98B13480B32ABE8B5B2A448102D90750E4ABE2 SWAP1 PUSH1 0x60 ADD PUSH1 0x40 MLOAD DUP1 SWAP2 SUB SWAP1 LOG3 POP PUSH1 0x1 SWAP7 SWAP6 POP POP POP POP POP POP JUMP JUMPDEST PUSH1 0x1 PUSH1 0x1 PUSH1 0xA0 SHL SUB DUP3 AND PUSH1 0x0 SWAP1 DUP2 MSTORE PUSH1 0x12 PUSH1 0x20 SWAP1 DUP2 MSTORE PUSH1 0x40 DUP1 DUP4 KECCAK256 DUP5 DUP5 MSTORE SWAP1 SWAP2 MSTORE DUP2 KECCAK256 PUSH1 0x1 PUSH1 0x8 DUP3 ADD SLOAD PUSH1 0xFF AND PUSH1 0x6 DUP2 GT ISZERO PUSH2 0x38C1 JUMPI PUSH2 0x38C1 PUSH2 0x5597 JUMP JUMPDEST EQ DUP1 PUSH2 0x38E5 JUMPI POP PUSH1 0x3 PUSH1 0x8 DUP3 ADD SLOAD PUSH1 0xFF AND PUSH1 0x6 DUP2 GT ISZERO PUSH2 0x38E3 JUMPI PUSH2 0x38E3 PUSH2 0x5597 JUMP JUMPDEST EQ JUMPDEST PUSH2 0x3965 JUMPI PUSH1 0x40 MLOAD PUSH3 0x461BCD PUSH1 0xE5 SHL DUP2 MSTORE PUSH1 0x20 PUSH1 0x4 DUP3 ADD MSTORE PUSH1 0x44 PUSH1 0x24 DUP3 ADD DUP2 SWAP1 MSTORE PUSH32 0x4120686F6C642063616E206F6E6C792062652072656C656173656420696E2073 SWAP1 DUP3 ADD MSTORE PUSH32 0x7461747573204F726465726564206F72204578656375746564416E644B657074 PUSH1 0x64 DUP3 ADD MSTORE PUSH4 0x27B832B7 PUSH1 0xE1 SHL PUSH1 0x84 DUP3 ADD MSTORE PUSH1 0xA4 ADD PUSH2 0x980 JUMP JUMPDEST PUSH2 0x3972 DUP2 PUSH1 0x5 ADD SLOAD PUSH2 0x490A JUMP JUMPDEST DUP1 PUSH2 0x3989 JUMPI POP PUSH1 0x3 DUP2 ADD SLOAD PUSH1 0x1 PUSH1 0x1 PUSH1 0xA0 SHL SUB AND CALLER EQ JUMPDEST DUP1 PUSH2 0x39A0 JUMPI POP PUSH1 0x2 DUP2 ADD SLOAD PUSH1 0x1 PUSH1 0x1 PUSH1 0xA0 SHL SUB AND CALLER EQ JUMPDEST PUSH2 0x3A1D JUMPI PUSH1 0x40 MLOAD PUSH3 0x461BCD PUSH1 0xE5 SHL DUP2 MSTORE PUSH1 0x20 PUSH1 0x4 DUP3 ADD MSTORE PUSH1 0x42 PUSH1 0x24 DUP3 ADD MSTORE PUSH32 0x41206E6F74206578706972656420686F6C642063616E206F6E6C792062652072 PUSH1 0x44 DUP3 ADD MSTORE PUSH32 0x656C656173656420627920746865206E6F74617279206F722074686520706179 PUSH1 0x64 DUP3 ADD MSTORE PUSH2 0x6565 PUSH1 0xF0 SHL PUSH1 0x84 DUP3 ADD MSTORE PUSH1 0xA4 ADD PUSH2 0x980 JUMP JUMPDEST PUSH2 0x3A2A DUP2 PUSH1 0x5 ADD SLOAD PUSH2 0x490A JUMP JUMPDEST ISZERO PUSH2 0x3A4B JUMPI PUSH1 0x8 DUP2 ADD DUP1 SLOAD PUSH1 0x6 SWAP2 SWAP1 PUSH1 0xFF NOT AND PUSH1 0x1 DUP4 JUMPDEST MUL OR SWAP1 SSTORE POP PUSH2 0x3A86 JUMP JUMPDEST PUSH1 0x3 DUP2 ADD SLOAD PUSH1 0x1 PUSH1 0x1 PUSH1 0xA0 SHL SUB AND CALLER EQ ISZERO PUSH2 0x3A76 JUMPI PUSH1 0x8 DUP2 ADD DUP1 SLOAD PUSH1 0x4 SWAP2 SWAP1 PUSH1 0xFF NOT AND PUSH1 0x1 DUP4 PUSH2 0x3A41 JUMP JUMPDEST PUSH1 0x8 DUP2 ADD DUP1 SLOAD PUSH1 0xFF NOT AND PUSH1 0x5 OR SWAP1 SSTORE JUMPDEST PUSH1 0x1 DUP2 ADD SLOAD PUSH1 0x1 PUSH1 0x1 PUSH1 0xA0 SHL SUB AND ISZERO PUSH2 0x3AF3 JUMPI PUSH2 0x3AA8 DUP5 DUP3 DUP4 PUSH1 0x4 ADD SLOAD PUSH2 0x4735 JUMP JUMPDEST DUP1 SLOAD PUSH1 0x3 DUP3 ADD SLOAD PUSH1 0x1 DUP4 ADD SLOAD PUSH1 0x2 DUP5 ADD SLOAD PUSH1 0x4 DUP6 ADD SLOAD PUSH1 0x0 SWAP5 PUSH2 0x3AE1 SWAP5 DUP11 SWAP5 SWAP2 SWAP4 PUSH1 0x1 PUSH1 0x1 PUSH1 0xA0 SHL SUB SWAP2 DUP3 AND SWAP4 SWAP3 DUP3 AND SWAP3 SWAP2 AND SWAP1 PUSH2 0x303B JUMP JUMPDEST POP PUSH1 0x0 SWAP1 DUP2 MSTORE PUSH1 0x17 PUSH1 0x20 MSTORE PUSH1 0x40 DUP2 KECCAK256 SSTORE POP JUMPDEST PUSH1 0x3 DUP2 ADD SLOAD PUSH1 0x8 DUP3 ADD SLOAD PUSH1 0x40 MLOAD PUSH1 0x1 PUSH1 0x1 PUSH1 0xA0 SHL SUB SWAP3 DUP4 AND SWAP3 DUP8 AND SWAP2 PUSH32 0xF443BE38655A05232D021221BD7A13D2901ADB2A897AC88B77AF9CA9C6938AA9 SWAP2 PUSH2 0x3B42 SWAP2 DUP9 SWAP2 PUSH1 0xFF SWAP1 SWAP2 AND SWAP1 PUSH2 0x523E JUMP JUMPDEST PUSH1 0x40 MLOAD DUP1 SWAP2 SUB SWAP1 LOG3 POP PUSH1 0x1 SWAP4 SWAP3 POP POP POP JUMP JUMPDEST PUSH1 0x1 PUSH1 0x1 PUSH1 0xA0 SHL SUB DUP3 AND PUSH1 0x0 SWAP1 DUP2 MSTORE PUSH1 0x5 PUSH1 0x20 MSTORE PUSH1 0x40 SWAP1 KECCAK256 PUSH2 0x3B76 SWAP1 DUP3 PUSH2 0x407F JUMP JUMPDEST DUP1 PUSH1 0x1 PUSH1 0x1 PUSH1 0xA0 SHL SUB AND DUP3 PUSH1 0x1 PUSH1 0x1 PUSH1 0xA0 SHL SUB AND PUSH32 0xC52E3252244A1A2A298F7B5A9F8E964AB8737811B620A1426C0B95E3037BBA9E PUSH1 0x40 MLOAD PUSH1 0x40 MLOAD DUP1 SWAP2 SUB SWAP1 LOG3 POP POP JUMP JUMPDEST PUSH1 0x1 PUSH1 0x1 PUSH1 0xA0 SHL SUB DUP3 AND PUSH1 0x0 SWAP1 DUP2 MSTORE PUSH1 0x2 PUSH1 0x20 MSTORE PUSH1 0x40 SWAP1 KECCAK256 PUSH2 0x3BDC SWAP1 DUP3 PUSH2 0x407F JUMP JUMPDEST DUP1 PUSH1 0x1 PUSH1 0x1 PUSH1 0xA0 SHL SUB AND DUP3 PUSH1 0x1 PUSH1 0x1 PUSH1 0xA0 SHL SUB AND PUSH32 0x9A01AEE9F656ABA8760D771CF21D803168ECC664C252C9374F4A3252481FBF35 PUSH1 0x40 MLOAD PUSH1 0x40 MLOAD DUP1 SWAP2 SUB SWAP1 LOG3 POP POP JUMP JUMPDEST PUSH1 0x1 PUSH1 0x1 PUSH1 0xA0 SHL SUB DUP3 AND PUSH1 0x0 SWAP1 DUP2 MSTORE PUSH1 0x5 PUSH1 0x20 MSTORE PUSH1 0x40 SWAP1 KECCAK256 PUSH2 0x3C42 SWAP1 DUP3 PUSH2 0x3D52 JUMP JUMPDEST DUP1 PUSH1 0x1 PUSH1 0x1 PUSH1 0xA0 SHL SUB AND DUP3 PUSH1 0x1 PUSH1 0x1 PUSH1 0xA0 SHL SUB AND PUSH32 0x2E4E5DC902DA1DD9425AA2ACF081CC51D589443784AF4C3FD7D5FE60D5915CD0 PUSH1 0x40 MLOAD PUSH1 0x40 MLOAD DUP1 SWAP2 SUB SWAP1 LOG3 POP POP JUMP JUMPDEST PUSH1 0x1 PUSH1 0x1 PUSH1 0xA0 SHL SUB DUP3 AND PUSH1 0x0 SWAP1 DUP2 MSTORE PUSH1 0x20 DUP2 SWAP1 MSTORE PUSH1 0x40 SWAP1 KECCAK256 PUSH2 0x3CA8 SWAP1 DUP3 PUSH2 0x407F JUMP JUMPDEST DUP1 PUSH1 0x1 PUSH1 0x1 PUSH1 0xA0 SHL SUB AND DUP3 PUSH1 0x1 PUSH1 0x1 PUSH1 0xA0 SHL SUB AND PUSH32 0xE0953C403A52F9DC1FEF4202A8D33975C958B727BEE0D7B5B328965DDAD98D81 PUSH1 0x40 MLOAD PUSH1 0x40 MLOAD DUP1 SWAP2 SUB SWAP1 LOG3 POP POP JUMP JUMPDEST PUSH1 0x1 PUSH1 0x1 PUSH1 0xA0 SHL SUB DUP3 AND PUSH1 0x0 SWAP1 DUP2 MSTORE PUSH1 0x3 PUSH1 0x20 MSTORE PUSH1 0x40 SWAP1 KECCAK256 PUSH2 0x3D0E SWAP1 DUP3 PUSH2 0x407F JUMP JUMPDEST DUP1 PUSH1 0x1 PUSH1 0x1 PUSH1 0xA0 SHL SUB AND DUP3 PUSH1 0x1 PUSH1 0x1 PUSH1 0xA0 SHL SUB AND PUSH32 0x7A247CC00CAF875946BD4AF440D6B1776FE6BB625E25CAD7626BEDF5E6A1C370 PUSH1 0x40 MLOAD PUSH1 0x40 MLOAD DUP1 SWAP2 SUB SWAP1 LOG3 POP POP JUMP JUMPDEST PUSH2 0x3D5C DUP3 DUP3 PUSH2 0x298A JUMP JUMPDEST PUSH2 0x3DB2 JUMPI PUSH1 0x40 MLOAD PUSH3 0x461BCD PUSH1 0xE5 SHL DUP2 MSTORE PUSH1 0x20 PUSH1 0x4 DUP3 ADD MSTORE PUSH1 0x21 PUSH1 0x24 DUP3 ADD MSTORE PUSH32 0x526F6C65733A206163636F756E7420646F6573206E6F74206861766520726F6C PUSH1 0x44 DUP3 ADD MSTORE PUSH1 0x65 PUSH1 0xF8 SHL PUSH1 0x64 DUP3 ADD MSTORE PUSH1 0x84 ADD PUSH2 0x980 JUMP JUMPDEST PUSH1 0x1 PUSH1 0x1 PUSH1 0xA0 SHL SUB AND PUSH1 0x0 SWAP1 DUP2 MSTORE PUSH1 0x20 SWAP2 SWAP1 SWAP2 MSTORE PUSH1 0x40 SWAP1 KECCAK256 DUP1 SLOAD PUSH1 0xFF NOT AND SWAP1 SSTORE JUMP JUMPDEST PUSH1 0x0 PUSH2 0xCC5 DUP3 DUP5 PUSH2 0x54A5 JUMP JUMPDEST PUSH1 0x0 DUP1 PUSH1 0x0 DUP1 PUSH2 0x3E2B DUP9 PUSH1 0x0 CALLDATASIZE DUP1 DUP1 PUSH1 0x1F ADD PUSH1 0x20 DUP1 SWAP2 DIV MUL PUSH1 0x20 ADD PUSH1 0x40 MLOAD SWAP1 DUP2 ADD PUSH1 0x40 MSTORE DUP1 SWAP4 SWAP3 SWAP2 SWAP1 DUP2 DUP2 MSTORE PUSH1 0x20 ADD DUP4 DUP4 DUP1 DUP3 DUP5 CALLDATACOPY PUSH1 0x0 SWAP3 ADD SWAP2 SWAP1 SWAP2 MSTORE POP DUP13 SWAP3 POP DUP11 SWAP2 POP PUSH2 0x2B3F SWAP1 POP JUMP JUMPDEST SWAP3 POP SWAP3 POP SWAP3 POP PUSH2 0x3E3D DUP9 DUP4 DUP10 DUP5 PUSH2 0x2C65 JUMP JUMPDEST PUSH1 0x1 PUSH1 0x1 PUSH1 0xA0 SHL SUB DUP7 AND ISZERO PUSH2 0x3EA3 JUMPI DUP3 DUP1 ISZERO PUSH2 0x3E99 JUMPI POP PUSH1 0x1 PUSH1 0x1 PUSH1 0xA0 SHL SUB DUP1 DUP10 AND PUSH1 0x0 SWAP1 DUP2 MSTORE PUSH1 0x9 PUSH1 0x20 SWAP1 DUP2 MSTORE PUSH1 0x40 DUP1 DUP4 KECCAK256 SWAP4 DUP12 AND DUP4 MSTORE SWAP3 SWAP1 MSTORE KECCAK256 SLOAD PUSH1 0xFF AND DUP1 PUSH2 0x3E99 JUMPI POP DUP6 PUSH1 0x1 PUSH1 0x1 PUSH1 0xA0 SHL SUB AND DUP8 PUSH1 0x1 PUSH1 0x1 PUSH1 0xA0 SHL SUB AND EQ JUMPDEST SWAP4 POP POP POP POP PUSH2 0x10BD JUMP JUMPDEST DUP3 DUP1 ISZERO PUSH2 0x3E99 JUMPI POP PUSH1 0x40 MLOAD PUSH4 0x55138F0D PUSH1 0xE1 SHL DUP2 MSTORE PUSH1 0x1 PUSH1 0x1 PUSH1 0xA0 SHL SUB DUP9 DUP2 AND PUSH1 0x4 DUP4 ADD MSTORE DUP10 AND SWAP1 PUSH4 0xAA271E1A SWAP1 PUSH1 0x24 ADD PUSH1 0x20 PUSH1 0x40 MLOAD DUP1 DUP4 SUB DUP2 DUP7 DUP1 EXTCODESIZE ISZERO DUP1 ISZERO PUSH2 0x3EEC JUMPI PUSH1 0x0 DUP1 REVERT JUMPDEST POP GAS STATICCALL ISZERO DUP1 ISZERO PUSH2 0x3F00 JUMPI RETURNDATASIZE PUSH1 0x0 DUP1 RETURNDATACOPY RETURNDATASIZE PUSH1 0x0 REVERT JUMPDEST POP POP POP POP PUSH1 0x40 MLOAD RETURNDATASIZE PUSH1 0x1F NOT PUSH1 0x1F DUP3 ADD AND DUP3 ADD DUP1 PUSH1 0x40 MSTORE POP DUP2 ADD SWAP1 PUSH2 0x3E99 SWAP2 SWAP1 PUSH2 0x4FF1 JUMP JUMPDEST PUSH1 0x4 DUP3 ADD SLOAD PUSH1 0x1 PUSH1 0x1 PUSH1 0xA0 SHL SUB DUP1 DUP6 AND PUSH1 0x0 SWAP1 DUP2 MSTORE PUSH1 0x13 PUSH1 0x20 SWAP1 DUP2 MSTORE PUSH1 0x40 DUP1 DUP4 KECCAK256 PUSH1 0x1 DUP9 ADD SLOAD SWAP1 SWAP5 AND DUP4 MSTORE SWAP3 SWAP1 MSTORE KECCAK256 SLOAD PUSH2 0x3F5D SWAP2 PUSH2 0x3DD4 JUMP JUMPDEST PUSH1 0x1 PUSH1 0x1 PUSH1 0xA0 SHL SUB DUP1 DUP6 AND PUSH1 0x0 DUP2 DUP2 MSTORE PUSH1 0x13 PUSH1 0x20 SWAP1 DUP2 MSTORE PUSH1 0x40 DUP1 DUP4 KECCAK256 PUSH1 0x1 DUP10 ADD SLOAD SWAP1 SWAP6 AND DUP4 MSTORE SWAP4 DUP2 MSTORE DUP4 DUP3 KECCAK256 SWAP5 SWAP1 SWAP5 SSTORE PUSH1 0x4 DUP7 ADD SLOAD SWAP2 DUP2 MSTORE PUSH1 0x16 SWAP1 SWAP4 MSTORE SWAP2 KECCAK256 SLOAD PUSH2 0x3FA6 SWAP2 PUSH2 0x3DD4 JUMP JUMPDEST PUSH1 0x1 PUSH1 0x1 PUSH1 0xA0 SHL SUB DUP1 DUP6 AND PUSH1 0x0 SWAP1 DUP2 MSTORE PUSH1 0x16 PUSH1 0x20 SWAP1 DUP2 MSTORE PUSH1 0x40 DUP1 DUP4 KECCAK256 SWAP5 SWAP1 SWAP5 SSTORE PUSH1 0x4 DUP7 ADD SLOAD PUSH1 0x14 DUP3 MSTORE DUP5 DUP4 KECCAK256 PUSH1 0x1 DUP9 ADD SLOAD SWAP1 SWAP5 AND DUP4 MSTORE SWAP3 DUP2 MSTORE DUP4 DUP3 KECCAK256 DUP7 SLOAD DUP4 MSTORE SWAP1 MSTORE SWAP2 SWAP1 SWAP2 KECCAK256 SLOAD PUSH2 0x3FF6 SWAP2 PUSH2 0x3DD4 JUMP JUMPDEST PUSH1 0x1 PUSH1 0x1 PUSH1 0xA0 SHL SUB DUP1 DUP6 AND PUSH1 0x0 DUP2 DUP2 MSTORE PUSH1 0x14 PUSH1 0x20 SWAP1 DUP2 MSTORE PUSH1 0x40 DUP1 DUP4 KECCAK256 PUSH1 0x1 DUP10 ADD SLOAD SWAP1 SWAP6 AND DUP4 MSTORE SWAP4 DUP2 MSTORE DUP4 DUP3 KECCAK256 DUP8 SLOAD DUP4 MSTORE DUP2 MSTORE DUP4 DUP3 KECCAK256 SWAP5 SWAP1 SWAP5 SSTORE PUSH1 0x4 DUP7 ADD SLOAD SWAP2 DUP2 MSTORE PUSH1 0x15 DUP5 MSTORE DUP3 DUP2 KECCAK256 DUP7 SLOAD DUP3 MSTORE SWAP1 SWAP4 MSTORE SWAP2 KECCAK256 SLOAD PUSH2 0x4051 SWAP2 PUSH2 0x3DD4 JUMP JUMPDEST PUSH1 0x1 PUSH1 0x1 PUSH1 0xA0 SHL SUB SWAP1 SWAP4 AND PUSH1 0x0 SWAP1 DUP2 MSTORE PUSH1 0x15 PUSH1 0x20 SWAP1 DUP2 MSTORE PUSH1 0x40 DUP1 DUP4 KECCAK256 SWAP5 SLOAD DUP4 MSTORE SWAP4 SWAP1 MSTORE SWAP2 SWAP1 SWAP2 KECCAK256 SWAP2 SWAP1 SWAP2 SSTORE POP JUMP JUMPDEST PUSH2 0x4089 DUP3 DUP3 PUSH2 0x298A JUMP JUMPDEST ISZERO PUSH2 0x40D6 JUMPI PUSH1 0x40 MLOAD PUSH3 0x461BCD PUSH1 0xE5 SHL DUP2 MSTORE PUSH1 0x20 PUSH1 0x4 DUP3 ADD MSTORE PUSH1 0x1F PUSH1 0x24 DUP3 ADD MSTORE PUSH32 0x526F6C65733A206163636F756E7420616C72656164792068617320726F6C6500 PUSH1 0x44 DUP3 ADD MSTORE PUSH1 0x64 ADD PUSH2 0x980 JUMP JUMPDEST PUSH1 0x1 PUSH1 0x1 PUSH1 0xA0 SHL SUB AND PUSH1 0x0 SWAP1 DUP2 MSTORE PUSH1 0x20 SWAP2 SWAP1 SWAP2 MSTORE PUSH1 0x40 SWAP1 KECCAK256 DUP1 SLOAD PUSH1 0xFF NOT AND PUSH1 0x1 OR SWAP1 SSTORE JUMP JUMPDEST PUSH1 0x0 DUP1 PUSH2 0x4107 DUP4 PUSH2 0x491D JUMP JUMPDEST SWAP1 POP PUSH1 0x1 PUSH1 0x1 PUSH1 0xE0 SHL SUB NOT DUP2 AND PUSH4 0xA9059CBB PUSH1 0xE0 SHL EQ DUP1 PUSH2 0x4138 JUMPI POP PUSH1 0x1 PUSH1 0x1 PUSH1 0xE0 SHL SUB NOT DUP2 AND PUSH4 0x23B872DD PUSH1 0xE0 SHL EQ JUMPDEST ISZERO PUSH2 0x4146 JUMPI POP PUSH1 0x0 SWAP3 SWAP2 POP POP JUMP JUMPDEST POP PUSH1 0x1 SWAP3 SWAP2 POP POP JUMP JUMPDEST PUSH1 0x0 DUP1 DUP3 MLOAD PUSH1 0x81 EQ PUSH2 0x4166 JUMPI POP PUSH1 0x0 SWAP1 POP DUP1 PUSH2 0x443D JUMP JUMPDEST PUSH1 0x20 DUP4 ADD MLOAD PUSH1 0x40 DUP5 ADD MLOAD PUSH1 0xA0 DUP6 ADD MLOAD PUSH1 0x0 BYTE TIMESTAMP DUP3 LT ISZERO PUSH2 0x418F JUMPI PUSH1 0x0 DUP1 SWAP5 POP SWAP5 POP POP POP POP PUSH2 0x443D JUMP JUMPDEST PUSH1 0x1B DUP2 PUSH1 0xFF AND LT ISZERO PUSH2 0x41A9 JUMPI PUSH2 0x41A6 PUSH1 0x1B DUP3 PUSH2 0x54BD JUMP JUMPDEST SWAP1 POP JUMPDEST DUP1 PUSH1 0xFF AND PUSH1 0x1B EQ DUP1 PUSH2 0x41BE JUMPI POP DUP1 PUSH1 0xFF AND PUSH1 0x1C EQ JUMPDEST ISZERO PUSH2 0x4432 JUMPI DUP7 MLOAD PUSH1 0x0 SWAP1 PUSH2 0x41D3 SWAP1 PUSH1 0xC0 PUSH2 0x49CE JUMP JUMPDEST PUSH8 0xFFFFFFFFFFFFFFFF DUP2 GT ISZERO PUSH2 0x41EB JUMPI PUSH2 0x41EB PUSH2 0x55C3 JUMP JUMPDEST PUSH1 0x40 MLOAD SWAP1 DUP1 DUP3 MSTORE DUP1 PUSH1 0x1F ADD PUSH1 0x1F NOT AND PUSH1 0x20 ADD DUP3 ADD PUSH1 0x40 MSTORE DUP1 ISZERO PUSH2 0x4215 JUMPI PUSH1 0x20 DUP3 ADD DUP2 DUP1 CALLDATASIZE DUP4 CALLDATACOPY ADD SWAP1 POP JUMPDEST POP SWAP1 POP PUSH1 0x0 JUMPDEST DUP9 MLOAD PUSH2 0x4228 SWAP1 PUSH1 0xC0 PUSH2 0x49CE JUMP JUMPDEST DUP2 LT ISZERO PUSH2 0x4287 JUMPI DUP9 DUP2 DUP2 MLOAD DUP2 LT PUSH2 0x4241 JUMPI PUSH2 0x4241 PUSH2 0x55AD JUMP JUMPDEST PUSH1 0x20 ADD ADD MLOAD PUSH1 0xF8 SHR PUSH1 0xF8 SHL DUP3 DUP3 DUP2 MLOAD DUP2 LT PUSH2 0x425E JUMPI PUSH2 0x425E PUSH2 0x55AD JUMP JUMPDEST PUSH1 0x20 ADD ADD SWAP1 PUSH1 0x1 PUSH1 0x1 PUSH1 0xF8 SHL SUB NOT AND SWAP1 DUP2 PUSH1 0x0 BYTE SWAP1 MSTORE8 POP DUP1 PUSH2 0x427F DUP2 PUSH2 0x5566 JUMP JUMPDEST SWAP2 POP POP PUSH2 0x421B JUMP JUMPDEST POP PUSH1 0x0 DUP10 DUP12 DUP4 DUP7 DUP9 PUSH1 0x40 MLOAD PUSH1 0x20 ADD PUSH2 0x42A3 SWAP6 SWAP5 SWAP4 SWAP3 SWAP2 SWAP1 PUSH2 0x517F JUMP JUMPDEST PUSH1 0x40 MLOAD PUSH1 0x20 DUP2 DUP4 SUB SUB DUP2 MSTORE SWAP1 PUSH1 0x40 MSTORE SWAP1 POP PUSH1 0x0 DUP12 PUSH1 0x1 PUSH1 0x1 PUSH1 0xA0 SHL SUB AND PUSH4 0xA8082CB0 PUSH1 0x40 MLOAD DUP2 PUSH4 0xFFFFFFFF AND PUSH1 0xE0 SHL DUP2 MSTORE PUSH1 0x4 ADD PUSH1 0x20 PUSH1 0x40 MLOAD DUP1 DUP4 SUB DUP2 DUP7 DUP1 EXTCODESIZE ISZERO DUP1 ISZERO PUSH2 0x42EF JUMPI PUSH1 0x0 DUP1 REVERT JUMPDEST POP GAS STATICCALL ISZERO DUP1 ISZERO PUSH2 0x4303 JUMPI RETURNDATASIZE PUSH1 0x0 DUP1 RETURNDATACOPY RETURNDATASIZE PUSH1 0x0 REVERT JUMPDEST POP POP POP POP PUSH1 0x40 MLOAD RETURNDATASIZE PUSH1 0x1F NOT PUSH1 0x1F DUP3 ADD AND DUP3 ADD DUP1 PUSH1 0x40 MSTORE POP DUP2 ADD SWAP1 PUSH2 0x4327 SWAP2 SWAP1 PUSH2 0x500E JUMP JUMPDEST DUP3 DUP1 MLOAD SWAP1 PUSH1 0x20 ADD KECCAK256 PUSH1 0x40 MLOAD PUSH1 0x20 ADD PUSH2 0x4349 SWAP3 SWAP2 SWAP1 SWAP2 DUP3 MSTORE PUSH1 0x20 DUP3 ADD MSTORE PUSH1 0x40 ADD SWAP1 JUMP JUMPDEST PUSH1 0x40 MLOAD PUSH1 0x20 DUP2 DUP4 SUB SUB DUP2 MSTORE SWAP1 PUSH1 0x40 MSTORE DUP1 MLOAD SWAP1 PUSH1 0x20 ADD KECCAK256 SWAP1 POP PUSH1 0x0 DUP1 PUSH1 0x60 DUP12 ADD MLOAD SWAP2 POP PUSH1 0x80 DUP12 ADD MLOAD SWAP1 POP PUSH2 0x43E3 DUP15 PUSH1 0x1 DUP6 DUP10 DUP7 DUP7 PUSH1 0x40 MLOAD PUSH1 0x0 DUP2 MSTORE PUSH1 0x20 ADD PUSH1 0x40 MSTORE PUSH1 0x40 MLOAD PUSH2 0x43B2 SWAP5 SWAP4 SWAP3 SWAP2 SWAP1 SWAP4 DUP5 MSTORE PUSH1 0xFF SWAP3 SWAP1 SWAP3 AND PUSH1 0x20 DUP5 ADD MSTORE PUSH1 0x40 DUP4 ADD MSTORE PUSH1 0x60 DUP3 ADD MSTORE PUSH1 0x80 ADD SWAP1 JUMP JUMPDEST PUSH1 0x20 PUSH1 0x40 MLOAD PUSH1 0x20 DUP2 SUB SWAP1 DUP1 DUP5 SUB SWAP1 DUP6 GAS STATICCALL ISZERO DUP1 ISZERO PUSH2 0x43D4 JUMPI RETURNDATASIZE PUSH1 0x0 DUP1 RETURNDATACOPY RETURNDATASIZE PUSH1 0x0 REVERT JUMPDEST POP POP POP PUSH1 0x20 PUSH1 0x40 MLOAD SUB MLOAD PUSH2 0x1996 JUMP JUMPDEST DUP1 ISZERO PUSH2 0x4413 JUMPI POP PUSH1 0x1 PUSH1 0x1 PUSH1 0xA0 SHL SUB DUP15 AND PUSH1 0x0 SWAP1 DUP2 MSTORE PUSH1 0xE PUSH1 0x20 SWAP1 DUP2 MSTORE PUSH1 0x40 DUP1 DUP4 KECCAK256 DUP12 DUP5 MSTORE SWAP1 SWAP2 MSTORE SWAP1 KECCAK256 SLOAD PUSH1 0xFF AND ISZERO JUMPDEST ISZERO PUSH2 0x442C JUMPI PUSH1 0x1 DUP9 SWAP10 POP SWAP10 POP POP POP POP POP POP POP POP POP PUSH2 0x443D JUMP JUMPDEST POP POP POP POP POP JUMPDEST PUSH1 0x0 DUP1 SWAP5 POP SWAP5 POP POP POP POP JUMPDEST SWAP5 POP SWAP5 SWAP3 POP POP POP JUMP JUMPDEST PUSH1 0x0 DUP2 MLOAD PUSH1 0x61 EQ PUSH2 0x4459 JUMPI POP PUSH1 0x0 PUSH2 0x10BD JUMP JUMPDEST PUSH1 0x20 DUP3 ADD MLOAD PUSH1 0x80 DUP4 ADD MLOAD PUSH1 0x0 BYTE TIMESTAMP DUP3 LT ISZERO PUSH2 0x4479 JUMPI PUSH1 0x0 SWAP3 POP POP POP PUSH2 0x10BD JUMP JUMPDEST PUSH1 0x1B DUP2 PUSH1 0xFF AND LT ISZERO PUSH2 0x4493 JUMPI PUSH2 0x4490 PUSH1 0x1B DUP3 PUSH2 0x54BD JUMP JUMPDEST SWAP1 POP JUMPDEST DUP1 PUSH1 0xFF AND PUSH1 0x1B EQ DUP1 PUSH2 0x44A8 JUMPI POP DUP1 PUSH1 0xFF AND PUSH1 0x1C EQ JUMPDEST ISZERO PUSH2 0x46CD JUMPI DUP5 MLOAD PUSH1 0x0 SWAP1 PUSH2 0x44BD SWAP1 PUSH1 0xA0 PUSH2 0x49CE JUMP JUMPDEST PUSH8 0xFFFFFFFFFFFFFFFF DUP2 GT ISZERO PUSH2 0x44D5 JUMPI PUSH2 0x44D5 PUSH2 0x55C3 JUMP JUMPDEST PUSH1 0x40 MLOAD SWAP1 DUP1 DUP3 MSTORE DUP1 PUSH1 0x1F ADD PUSH1 0x1F NOT AND PUSH1 0x20 ADD DUP3 ADD PUSH1 0x40 MSTORE DUP1 ISZERO PUSH2 0x44FF JUMPI PUSH1 0x20 DUP3 ADD DUP2 DUP1 CALLDATASIZE DUP4 CALLDATACOPY ADD SWAP1 POP JUMPDEST POP SWAP1 POP PUSH1 0x0 JUMPDEST DUP7 MLOAD PUSH2 0x4512 SWAP1 PUSH1 0xA0 PUSH2 0x49CE JUMP JUMPDEST DUP2 LT ISZERO PUSH2 0x4571 JUMPI DUP7 DUP2 DUP2 MLOAD DUP2 LT PUSH2 0x452B JUMPI PUSH2 0x452B PUSH2 0x55AD JUMP JUMPDEST PUSH1 0x20 ADD ADD MLOAD PUSH1 0xF8 SHR PUSH1 0xF8 SHL DUP3 DUP3 DUP2 MLOAD DUP2 LT PUSH2 0x4548 JUMPI PUSH2 0x4548 PUSH2 0x55AD JUMP JUMPDEST PUSH1 0x20 ADD ADD SWAP1 PUSH1 0x1 PUSH1 0x1 PUSH1 0xF8 SHL SUB NOT AND SWAP1 DUP2 PUSH1 0x0 BYTE SWAP1 MSTORE8 POP DUP1 PUSH2 0x4569 DUP2 PUSH2 0x5566 JUMP JUMPDEST SWAP2 POP POP PUSH2 0x4505 JUMP JUMPDEST POP PUSH1 0x1 PUSH1 0x1 PUSH1 0xA0 SHL SUB DUP1 DUP10 AND PUSH1 0x0 SWAP1 DUP2 MSTORE PUSH1 0xD PUSH1 0x20 SWAP1 DUP2 MSTORE PUSH1 0x40 DUP1 DUP4 KECCAK256 SWAP4 DUP12 AND DUP4 MSTORE SWAP3 DUP2 MSTORE DUP3 DUP3 KECCAK256 SLOAD SWAP3 MLOAD SWAP2 SWAP3 PUSH2 0x45B0 SWAP3 DUP12 SWAP3 DUP14 SWAP3 DUP8 SWAP3 DUP11 SWAP3 ADD PUSH2 0x517F JUMP JUMPDEST PUSH1 0x40 MLOAD PUSH1 0x20 DUP2 DUP4 SUB SUB DUP2 MSTORE SWAP1 PUSH1 0x40 MSTORE SWAP1 POP PUSH1 0x0 DUP10 PUSH1 0x1 PUSH1 0x1 PUSH1 0xA0 SHL SUB AND PUSH4 0xA8082CB0 PUSH1 0x40 MLOAD DUP2 PUSH4 0xFFFFFFFF AND PUSH1 0xE0 SHL DUP2 MSTORE PUSH1 0x4 ADD PUSH1 0x20 PUSH1 0x40 MLOAD DUP1 DUP4 SUB DUP2 DUP7 DUP1 EXTCODESIZE ISZERO DUP1 ISZERO PUSH2 0x45FC JUMPI PUSH1 0x0 DUP1 REVERT JUMPDEST POP GAS STATICCALL ISZERO DUP1 ISZERO PUSH2 0x4610 JUMPI RETURNDATASIZE PUSH1 0x0 DUP1 RETURNDATACOPY RETURNDATASIZE PUSH1 0x0 REVERT JUMPDEST POP POP POP POP PUSH1 0x40 MLOAD RETURNDATASIZE PUSH1 0x1F NOT PUSH1 0x1F DUP3 ADD AND DUP3 ADD DUP1 PUSH1 0x40 MSTORE POP DUP2 ADD SWAP1 PUSH2 0x4634 SWAP2 SWAP1 PUSH2 0x500E JUMP JUMPDEST DUP3 DUP1 MLOAD SWAP1 PUSH1 0x20 ADD KECCAK256 PUSH1 0x40 MLOAD PUSH1 0x20 ADD PUSH2 0x4656 SWAP3 SWAP2 SWAP1 SWAP2 DUP3 MSTORE PUSH1 0x20 DUP3 ADD MSTORE PUSH1 0x40 ADD SWAP1 JUMP JUMPDEST PUSH1 0x40 DUP1 MLOAD PUSH1 0x1F NOT DUP2 DUP5 SUB ADD DUP2 MSTORE DUP3 DUP3 MSTORE DUP1 MLOAD PUSH1 0x20 SWAP2 DUP3 ADD KECCAK256 DUP11 DUP4 ADD MLOAD PUSH1 0x60 DUP1 DUP14 ADD MLOAD PUSH1 0x0 DUP8 MSTORE SWAP4 DUP7 ADD DUP1 DUP7 MSTORE DUP4 SWAP1 MSTORE PUSH1 0xFF DUP11 AND SWAP5 DUP7 ADD SWAP5 SWAP1 SWAP5 MSTORE SWAP3 DUP5 ADD DUP4 SWAP1 MSTORE PUSH1 0x80 DUP5 ADD DUP3 SWAP1 MSTORE SWAP4 POP SWAP1 SWAP2 PUSH2 0x46B2 SWAP1 DUP14 SWAP1 PUSH1 0x1 SWAP1 PUSH1 0xA0 ADD PUSH2 0x43B2 JUMP JUMPDEST ISZERO PUSH2 0x46C7 JUMPI PUSH1 0x1 SWAP8 POP POP POP POP POP POP POP POP PUSH2 0x10BD JUMP JUMPDEST POP POP POP POP POP JUMPDEST POP PUSH1 0x0 SWAP7 SWAP6 POP POP POP POP POP POP JUMP JUMPDEST PUSH1 0x0 DUP2 PUSH2 0x46F1 DUP5 PUSH2 0x46EB DUP4 DUP3 PUSH2 0x49DA JUMP JUMPDEST SWAP1 PUSH2 0x49E6 JUMP JUMPDEST EQ SWAP4 SWAP3 POP POP POP JUMP JUMPDEST PUSH1 0x3 DUP4 ADD SLOAD PUSH1 0x0 SWAP1 PUSH1 0x1 PUSH1 0x1 PUSH1 0xA0 SHL SUB DUP5 DUP2 AND SWAP2 AND EQ DUP1 ISZERO PUSH2 0x4720 JUMPI POP PUSH2 0x4720 DUP5 DUP4 PUSH2 0x49F2 JUMP JUMPDEST ISZERO PUSH2 0x472D JUMPI POP PUSH1 0x1 PUSH2 0xCC5 JUMP JUMPDEST POP PUSH1 0x0 PUSH2 0xCC5 JUMP JUMPDEST PUSH1 0x1 PUSH1 0x1 PUSH1 0xA0 SHL SUB DUP1 DUP5 AND PUSH1 0x0 SWAP1 DUP2 MSTORE PUSH1 0x13 PUSH1 0x20 SWAP1 DUP2 MSTORE PUSH1 0x40 DUP1 DUP4 KECCAK256 PUSH1 0x1 DUP8 ADD SLOAD SWAP1 SWAP5 AND DUP4 MSTORE SWAP3 SWAP1 MSTORE KECCAK256 SLOAD PUSH2 0x476A SWAP1 DUP3 PUSH2 0x49CE JUMP JUMPDEST PUSH1 0x1 PUSH1 0x1 PUSH1 0xA0 SHL SUB DUP1 DUP6 AND PUSH1 0x0 DUP2 DUP2 MSTORE PUSH1 0x13 PUSH1 0x20 SWAP1 DUP2 MSTORE PUSH1 0x40 DUP1 DUP4 KECCAK256 PUSH1 0x1 DUP10 ADD SLOAD SWAP1 SWAP6 AND DUP4 MSTORE SWAP4 DUP2 MSTORE DUP4 DUP3 KECCAK256 SWAP5 SWAP1 SWAP5 SSTORE SWAP1 DUP2 MSTORE PUSH1 0x16 SWAP1 SWAP3 MSTORE SWAP1 KECCAK256 SLOAD PUSH2 0x47AF SWAP1 DUP3 PUSH2 0x49CE JUMP JUMPDEST PUSH1 0x1 PUSH1 0x1 PUSH1 0xA0 SHL SUB DUP1 DUP6 AND PUSH1 0x0 SWAP1 DUP2 MSTORE PUSH1 0x16 PUSH1 0x20 SWAP1 DUP2 MSTORE PUSH1 0x40 DUP1 DUP4 KECCAK256 SWAP5 SWAP1 SWAP5 SSTORE PUSH1 0x14 DUP2 MSTORE DUP4 DUP3 KECCAK256 PUSH1 0x1 DUP8 ADD SLOAD SWAP1 SWAP4 AND DUP3 MSTORE SWAP2 DUP3 MSTORE DUP3 DUP2 KECCAK256 DUP6 SLOAD DUP3 MSTORE SWAP1 SWAP2 MSTORE KECCAK256 SLOAD PUSH2 0x47F9 SWAP1 DUP3 PUSH2 0x49CE JUMP JUMPDEST PUSH1 0x1 PUSH1 0x1 PUSH1 0xA0 SHL SUB DUP1 DUP6 AND PUSH1 0x0 DUP2 DUP2 MSTORE PUSH1 0x14 PUSH1 0x20 SWAP1 DUP2 MSTORE PUSH1 0x40 DUP1 DUP4 KECCAK256 PUSH1 0x1 DUP10 ADD SLOAD SWAP1 SWAP6 AND DUP4 MSTORE SWAP4 DUP2 MSTORE DUP4 DUP3 KECCAK256 DUP8 SLOAD DUP4 MSTORE DUP2 MSTORE DUP4 DUP3 KECCAK256 SWAP5 SWAP1 SWAP5 SSTORE SWAP1 DUP2 MSTORE PUSH1 0x15 DUP4 MSTORE DUP2 DUP2 KECCAK256 DUP6 SLOAD DUP3 MSTORE SWAP1 SWAP3 MSTORE SWAP1 KECCAK256 SLOAD PUSH2 0x4051 SWAP1 DUP3 PUSH2 0x49CE JUMP JUMPDEST PUSH1 0x0 PUSH2 0x485C DUP5 DUP4 PUSH2 0x4A82 JUMP JUMPDEST DUP1 ISZERO PUSH2 0x4720 JUMPI POP PUSH2 0x4720 DUP5 DUP5 PUSH2 0x49F2 JUMP JUMPDEST PUSH1 0x1 DUP6 ADD SLOAD PUSH1 0x1 PUSH1 0x1 PUSH1 0xA0 SHL SUB AND ISZERO PUSH2 0x488B JUMPI PUSH2 0x488B DUP7 DUP7 DUP5 PUSH2 0x4735 JUMP JUMPDEST PUSH1 0x8 DUP6 ADD DUP1 SLOAD PUSH1 0xFF NOT AND PUSH1 0x3 OR SWAP1 SSTORE PUSH1 0x4 DUP6 ADD SLOAD PUSH2 0x48A9 SWAP1 DUP5 PUSH2 0x49CE JUMP JUMPDEST PUSH1 0x4 DUP7 ADD DUP2 SWAP1 SSTORE PUSH1 0x3 DUP7 ADD SLOAD PUSH1 0x40 DUP1 MLOAD DUP8 DUP2 MSTORE PUSH1 0x20 DUP2 ADD SWAP4 SWAP1 SWAP4 MSTORE DUP3 ADD DUP6 SWAP1 MSTORE PUSH1 0x60 DUP3 ADD DUP4 SWAP1 MSTORE PUSH1 0x1 PUSH1 0x1 PUSH1 0xA0 SHL SUB SWAP1 DUP2 AND SWAP2 SWAP1 DUP9 AND SWAP1 PUSH32 0x4D230199A8973380B96AD366F3DD8665B4DC0309B3FC73F02137159AE4BD229F SWAP1 PUSH1 0x80 ADD PUSH2 0x313F JUMP JUMPDEST PUSH1 0x0 DUP2 ISZERO DUP1 ISZERO SWAP1 PUSH2 0xA8D JUMPI POP POP TIMESTAMP LT ISZERO SWAP1 JUMP JUMPDEST PUSH1 0x0 PUSH1 0x18 DUP3 PUSH1 0x3 DUP2 MLOAD DUP2 LT PUSH2 0x4934 JUMPI PUSH2 0x4934 PUSH2 0x55AD JUMP JUMPDEST ADD PUSH1 0x20 ADD MLOAD DUP4 MLOAD PUSH1 0x1 PUSH1 0x1 PUSH1 0xF8 SHL SUB NOT SWAP1 SWAP2 AND SWAP1 SWAP2 SHR SWAP1 PUSH1 0x10 SWAP1 DUP5 SWAP1 PUSH1 0x2 SWAP1 DUP2 LT PUSH2 0x4961 JUMPI PUSH2 0x4961 PUSH2 0x55AD JUMP JUMPDEST ADD PUSH1 0x20 ADD MLOAD DUP5 MLOAD PUSH1 0x1 PUSH1 0x1 PUSH1 0xF8 SHL SUB NOT SWAP1 SWAP2 AND SWAP1 SWAP2 SHR SWAP1 PUSH1 0x8 SWAP1 DUP6 SWAP1 PUSH1 0x1 SWAP1 DUP2 LT PUSH2 0x498E JUMPI PUSH2 0x498E PUSH2 0x55AD JUMP JUMPDEST ADD PUSH1 0x20 ADD MLOAD DUP6 MLOAD PUSH1 0x1 PUSH1 0x1 PUSH1 0xF8 SHL SUB NOT SWAP1 SWAP2 AND SWAP1 SWAP2 SHR SWAP1 DUP6 SWAP1 PUSH1 0x0 SWAP1 PUSH2 0x49B6 JUMPI PUSH2 0x49B6 PUSH2 0x55AD JUMP JUMPDEST ADD PUSH1 0x20 ADD MLOAD PUSH1 0x1 PUSH1 0x1 PUSH1 0xF8 SHL SUB NOT AND OR OR OR SWAP3 SWAP2 POP POP JUMP JUMPDEST PUSH1 0x0 PUSH2 0xCC5 DUP3 DUP5 PUSH2 0x5523 JUMP JUMPDEST PUSH1 0x0 PUSH2 0xCC5 DUP3 DUP5 PUSH2 0x54E2 JUMP JUMPDEST PUSH1 0x0 PUSH2 0xCC5 DUP3 DUP5 PUSH2 0x5504 JUMP JUMPDEST PUSH1 0x0 PUSH1 0x1 PUSH1 0x8 DUP5 ADD SLOAD PUSH1 0xFF AND PUSH1 0x6 DUP2 GT ISZERO PUSH2 0x4A0F JUMPI PUSH2 0x4A0F PUSH2 0x5597 JUMP JUMPDEST EQ DUP1 PUSH2 0x4A33 JUMPI POP PUSH1 0x3 PUSH1 0x8 DUP5 ADD SLOAD PUSH1 0xFF AND PUSH1 0x6 DUP2 GT ISZERO PUSH2 0x4A31 JUMPI PUSH2 0x4A31 PUSH2 0x5597 JUMP JUMPDEST EQ JUMPDEST PUSH2 0x4A3F JUMPI POP PUSH1 0x0 PUSH2 0xA8D JUMP JUMPDEST DUP2 PUSH2 0x4A4C JUMPI POP PUSH1 0x0 PUSH2 0xA8D JUMP JUMPDEST PUSH2 0x4A59 DUP4 PUSH1 0x5 ADD SLOAD PUSH2 0x490A JUMP JUMPDEST ISZERO PUSH2 0x4A66 JUMPI POP PUSH1 0x0 PUSH2 0xA8D JUMP JUMPDEST DUP3 PUSH1 0x4 ADD SLOAD DUP3 GT ISZERO PUSH2 0x4A7A JUMPI POP PUSH1 0x0 PUSH2 0xA8D JUMP JUMPDEST POP PUSH1 0x1 PUSH2 0xA8D JUMP JUMPDEST PUSH1 0x0 PUSH1 0x2 DUP3 PUSH1 0x40 MLOAD PUSH1 0x20 ADD PUSH2 0x4A99 SWAP2 DUP2 MSTORE PUSH1 0x20 ADD SWAP1 JUMP JUMPDEST PUSH1 0x40 DUP1 MLOAD PUSH1 0x1F NOT DUP2 DUP5 SUB ADD DUP2 MSTORE SWAP1 DUP3 SWAP1 MSTORE PUSH2 0x4AB3 SWAP2 PUSH2 0x51D1 JUMP JUMPDEST PUSH1 0x20 PUSH1 0x40 MLOAD DUP1 DUP4 SUB DUP2 DUP6 GAS STATICCALL ISZERO DUP1 ISZERO PUSH2 0x4AD0 JUMPI RETURNDATASIZE PUSH1 0x0 DUP1 RETURNDATACOPY RETURNDATASIZE PUSH1 0x0 REVERT JUMPDEST POP POP POP PUSH1 0x40 MLOAD RETURNDATASIZE PUSH1 0x1F NOT PUSH1 0x1F DUP3 ADD AND DUP3 ADD DUP1 PUSH1 0x40 MSTORE POP DUP2 ADD SWAP1 PUSH2 0x4AF3 SWAP2 SWAP1 PUSH2 0x500E JUMP JUMPDEST DUP4 PUSH1 0x6 ADD SLOAD EQ ISZERO PUSH2 0xB72 JUMPI POP PUSH1 0x1 PUSH2 0xA8D JUMP JUMPDEST DUP3 DUP1 SLOAD DUP3 DUP3 SSTORE SWAP1 PUSH1 0x0 MSTORE PUSH1 0x20 PUSH1 0x0 KECCAK256 SWAP1 DUP2 ADD SWAP3 DUP3 ISZERO PUSH2 0x4B5B JUMPI SWAP2 PUSH1 0x20 MUL DUP3 ADD JUMPDEST DUP3 DUP2 GT ISZERO PUSH2 0x4B5B JUMPI DUP3 MLOAD DUP3 SLOAD PUSH1 0x1 PUSH1 0x1 PUSH1 0xA0 SHL SUB NOT AND PUSH1 0x1 PUSH1 0x1 PUSH1 0xA0 SHL SUB SWAP1 SWAP2 AND OR DUP3 SSTORE PUSH1 0x20 SWAP1 SWAP3 ADD SWAP2 PUSH1 0x1 SWAP1 SWAP2 ADD SWAP1 PUSH2 0x4B26 JUMP JUMPDEST POP PUSH2 0x4B67 SWAP3 SWAP2 POP PUSH2 0x4B6B JUMP JUMPDEST POP SWAP1 JUMP JUMPDEST JUMPDEST DUP1 DUP3 GT ISZERO PUSH2 0x4B67 JUMPI PUSH1 0x0 DUP2 SSTORE PUSH1 0x1 ADD PUSH2 0x4B6C JUMP JUMPDEST DUP1 CALLDATALOAD PUSH2 0x4B8B DUP2 PUSH2 0x55D9 JUMP JUMPDEST SWAP2 SWAP1 POP JUMP JUMPDEST PUSH1 0x0 DUP1 DUP4 PUSH1 0x1F DUP5 ADD SLT PUSH2 0x4BA2 JUMPI PUSH1 0x0 DUP1 REVERT JUMPDEST POP DUP2 CALLDATALOAD PUSH8 0xFFFFFFFFFFFFFFFF DUP2 GT ISZERO PUSH2 0x4BBA JUMPI PUSH1 0x0 DUP1 REVERT JUMPDEST PUSH1 0x20 DUP4 ADD SWAP2 POP DUP4 PUSH1 0x20 DUP3 DUP6 ADD ADD GT ISZERO PUSH2 0x4BD2 JUMPI PUSH1 0x0 DUP1 REVERT JUMPDEST SWAP3 POP SWAP3 SWAP1 POP JUMP JUMPDEST PUSH1 0x0 PUSH1 0x20 DUP3 DUP5 SUB SLT ISZERO PUSH2 0x4BEB JUMPI PUSH1 0x0 DUP1 REVERT JUMPDEST DUP2 CALLDATALOAD PUSH2 0xCC5 DUP2 PUSH2 0x55D9 JUMP JUMPDEST PUSH1 0x0 PUSH1 0x20 DUP3 DUP5 SUB SLT ISZERO PUSH2 0x4C08 JUMPI PUSH1 0x0 DUP1 REVERT JUMPDEST DUP2 MLOAD PUSH2 0xCC5 DUP2 PUSH2 0x55D9 JUMP JUMPDEST PUSH1 0x0 DUP1 PUSH1 0x40 DUP4 DUP6 SUB SLT ISZERO PUSH2 0x4C26 JUMPI PUSH1 0x0 DUP1 REVERT JUMPDEST DUP3 CALLDATALOAD PUSH2 0x4C31 DUP2 PUSH2 0x55D9 JUMP JUMPDEST SWAP2 POP PUSH1 0x20 DUP4 ADD CALLDATALOAD PUSH2 0x4C41 DUP2 PUSH2 0x55D9 JUMP JUMPDEST DUP1 SWAP2 POP POP SWAP3 POP SWAP3 SWAP1 POP JUMP JUMPDEST PUSH1 0x0 DUP1 PUSH1 0x40 DUP4 DUP6 SUB SLT ISZERO PUSH2 0x4C5F JUMPI PUSH1 0x0 DUP1 REVERT JUMPDEST DUP3 CALLDATALOAD PUSH2 0x4C6A DUP2 PUSH2 0x55D9 JUMP JUMPDEST SWAP5 PUSH1 0x20 SWAP4 SWAP1 SWAP4 ADD CALLDATALOAD SWAP4 POP POP POP JUMP JUMPDEST PUSH1 0x0 DUP1 PUSH1 0x0 PUSH1 0x60 DUP5 DUP7 SUB SLT ISZERO PUSH2 0x4C8D JUMPI PUSH1 0x0 DUP1 REVERT JUMPDEST DUP4 CALLDATALOAD PUSH2 0x4C98 DUP2 PUSH2 0x55D9 JUMP JUMPDEST SWAP3 POP PUSH1 0x20 DUP5 ADD CALLDATALOAD SWAP2 POP PUSH1 0x40 DUP5 ADD CALLDATALOAD PUSH2 0x4CAF DUP2 PUSH2 0x55D9 JUMP JUMPDEST DUP1 SWAP2 POP POP SWAP3 POP SWAP3 POP SWAP3 JUMP JUMPDEST PUSH1 0x0 DUP1 PUSH1 0x0 DUP1 PUSH1 0x0 DUP1 PUSH1 0x0 DUP1 PUSH1 0x0 DUP1 PUSH1 0x0 PUSH2 0x140 DUP13 DUP15 SUB SLT ISZERO PUSH2 0x4CDC JUMPI PUSH1 0x0 DUP1 REVERT JUMPDEST DUP12 CALLDATALOAD PUSH2 0x4CE7 DUP2 PUSH2 0x55D9 JUMP JUMPDEST SWAP11 POP PUSH1 0x20 DUP13 ADD CALLDATALOAD SWAP10 POP PUSH1 0x40 DUP13 ADD CALLDATALOAD PUSH2 0x4CFE DUP2 PUSH2 0x55D9 JUMP JUMPDEST SWAP9 POP PUSH1 0x60 DUP13 ADD CALLDATALOAD PUSH2 0x4D0E DUP2 PUSH2 0x55D9 JUMP JUMPDEST SWAP8 POP PUSH1 0x80 DUP13 ADD CALLDATALOAD PUSH2 0x4D1E DUP2 PUSH2 0x55D9 JUMP JUMPDEST SWAP7 POP PUSH1 0xA0 DUP13 ADD CALLDATALOAD SWAP6 POP PUSH1 0xC0 DUP13 ADD CALLDATALOAD SWAP5 POP PUSH1 0xE0 DUP13 ADD CALLDATALOAD SWAP4 POP PUSH2 0x100 DUP13 ADD CALLDATALOAD SWAP3 POP PUSH2 0x120 DUP13 ADD CALLDATALOAD PUSH8 0xFFFFFFFFFFFFFFFF DUP2 GT ISZERO PUSH2 0x4D58 JUMPI PUSH1 0x0 DUP1 REVERT JUMPDEST PUSH2 0x4D64 DUP15 DUP3 DUP16 ADD PUSH2 0x4B90 JUMP JUMPDEST SWAP2 POP DUP1 SWAP4 POP POP DUP1 SWAP2 POP POP SWAP3 SWAP6 SWAP9 SWAP12 POP SWAP3 SWAP6 SWAP9 SWAP12 SWAP1 SWAP4 SWAP7 SWAP10 POP JUMP JUMPDEST PUSH1 0x0 DUP1 PUSH1 0x0 DUP1 PUSH1 0x0 DUP1 PUSH1 0x0 DUP1 PUSH1 0x0 DUP1 PUSH2 0x120 DUP12 DUP14 SUB SLT ISZERO PUSH2 0x4D9E JUMPI PUSH1 0x0 DUP1 REVERT JUMPDEST DUP11 CALLDATALOAD PUSH2 0x4DA9 DUP2 PUSH2 0x55D9 JUMP JUMPDEST SWAP10 POP PUSH1 0x20 DUP12 ADD CALLDATALOAD SWAP9 POP PUSH1 0x40 DUP12 ADD CALLDATALOAD PUSH2 0x4DC0 DUP2 PUSH2 0x55D9 JUMP JUMPDEST SWAP8 POP PUSH1 0x60 DUP12 ADD CALLDATALOAD PUSH2 0x4DD0 DUP2 PUSH2 0x55D9 JUMP JUMPDEST SWAP7 POP PUSH1 0x80 DUP12 ADD CALLDATALOAD SWAP6 POP PUSH1 0xA0 DUP12 ADD CALLDATALOAD SWAP5 POP PUSH1 0xC0 DUP12 ADD CALLDATALOAD SWAP4 POP PUSH1 0xE0 DUP12 ADD CALLDATALOAD SWAP3 POP PUSH2 0x100 DUP12 ADD CALLDATALOAD PUSH8 0xFFFFFFFFFFFFFFFF DUP2 GT ISZERO PUSH2 0x4E09 JUMPI PUSH1 0x0 DUP1 REVERT JUMPDEST PUSH2 0x4E15 DUP14 DUP3 DUP15 ADD PUSH2 0x4B90 JUMP JUMPDEST SWAP2 POP DUP1 SWAP4 POP POP DUP1 SWAP2 POP POP SWAP3 SWAP6 SWAP9 SWAP12 SWAP2 SWAP5 SWAP8 SWAP11 POP SWAP3 SWAP6 SWAP9 POP JUMP JUMPDEST PUSH1 0x0 DUP1 PUSH1 0x0 PUSH1 0x60 DUP5 DUP7 SUB SLT ISZERO PUSH2 0x4E43 JUMPI PUSH1 0x0 DUP1 REVERT JUMPDEST DUP4 CALLDATALOAD PUSH2 0x4E4E DUP2 PUSH2 0x55D9 JUMP JUMPDEST SWAP6 PUSH1 0x20 DUP6 ADD CALLDATALOAD SWAP6 POP PUSH1 0x40 SWAP1 SWAP5 ADD CALLDATALOAD SWAP4 SWAP3 POP POP POP JUMP JUMPDEST PUSH1 0x0 DUP1 PUSH1 0x0 DUP1 PUSH1 0x80 DUP6 DUP8 SUB SLT ISZERO PUSH2 0x4E79 JUMPI PUSH1 0x0 DUP1 REVERT JUMPDEST DUP5 CALLDATALOAD PUSH2 0x4E84 DUP2 PUSH2 0x55D9 JUMP JUMPDEST SWAP7 PUSH1 0x20 DUP7 ADD CALLDATALOAD SWAP7 POP PUSH1 0x40 DUP7 ADD CALLDATALOAD SWAP6 PUSH1 0x60 ADD CALLDATALOAD SWAP5 POP SWAP3 POP POP POP JUMP JUMPDEST PUSH1 0x0 DUP1 PUSH1 0x0 DUP1 PUSH1 0x0 PUSH1 0x80 DUP7 DUP9 SUB SLT ISZERO PUSH2 0x4EB6 JUMPI PUSH1 0x0 DUP1 REVERT JUMPDEST DUP6 CALLDATALOAD PUSH2 0x4EC1 DUP2 PUSH2 0x55D9 JUMP JUMPDEST SWAP5 POP PUSH1 0x20 DUP7 ADD CALLDATALOAD SWAP4 POP PUSH1 0x40 DUP7 ADD CALLDATALOAD SWAP3 POP PUSH1 0x60 DUP7 ADD CALLDATALOAD PUSH8 0xFFFFFFFFFFFFFFFF DUP2 GT ISZERO PUSH2 0x4EEB JUMPI PUSH1 0x0 DUP1 REVERT JUMPDEST PUSH2 0x4EF7 DUP9 DUP3 DUP10 ADD PUSH2 0x4B90 JUMP JUMPDEST SWAP7 SWAP10 SWAP6 SWAP9 POP SWAP4 SWAP7 POP SWAP3 SWAP5 SWAP4 SWAP3 POP POP POP JUMP JUMPDEST PUSH1 0x0 DUP1 PUSH1 0x0 DUP1 PUSH1 0x0 DUP1 PUSH1 0x0 DUP1 PUSH1 0xE0 DUP10 DUP12 SUB SLT ISZERO PUSH2 0x4F24 JUMPI PUSH1 0x0 DUP1 REVERT JUMPDEST DUP9 CALLDATALOAD PUSH2 0x4F2F DUP2 PUSH2 0x55D9 JUMP JUMPDEST SWAP8 POP PUSH1 0x20 DUP10 ADD CALLDATALOAD PUSH1 0x3 DUP2 LT PUSH2 0x4F43 JUMPI PUSH1 0x0 DUP1 REVERT JUMPDEST SWAP7 POP PUSH1 0x40 DUP10 ADD CALLDATALOAD PUSH2 0x4F53 DUP2 PUSH2 0x55EE JUMP JUMPDEST SWAP6 POP PUSH1 0x60 DUP10 ADD CALLDATALOAD PUSH2 0x4F63 DUP2 PUSH2 0x55EE JUMP JUMPDEST SWAP5 POP PUSH1 0x80 DUP10 ADD CALLDATALOAD PUSH2 0x4F73 DUP2 PUSH2 0x55EE JUMP JUMPDEST SWAP4 POP PUSH1 0xA0 DUP10 ADD CALLDATALOAD PUSH2 0x4F83 DUP2 PUSH2 0x55EE JUMP JUMPDEST SWAP3 POP PUSH1 0xC0 DUP10 ADD CALLDATALOAD PUSH8 0xFFFFFFFFFFFFFFFF DUP1 DUP3 GT ISZERO PUSH2 0x4FA0 JUMPI PUSH1 0x0 DUP1 REVERT JUMPDEST DUP2 DUP12 ADD SWAP2 POP DUP12 PUSH1 0x1F DUP4 ADD SLT PUSH2 0x4FB4 JUMPI PUSH1 0x0 DUP1 REVERT JUMPDEST DUP2 CALLDATALOAD DUP2 DUP2 GT ISZERO PUSH2 0x4FC3 JUMPI PUSH1 0x0 DUP1 REVERT JUMPDEST DUP13 PUSH1 0x20 DUP3 PUSH1 0x5 SHL DUP6 ADD ADD GT ISZERO PUSH2 0x4FD8 JUMPI PUSH1 0x0 DUP1 REVERT JUMPDEST PUSH1 0x20 DUP4 ADD SWAP5 POP DUP1 SWAP4 POP POP POP POP SWAP3 SWAP6 SWAP9 POP SWAP3 SWAP6 SWAP9 SWAP1 SWAP4 SWAP7 POP JUMP JUMPDEST PUSH1 0x0 PUSH1 0x20 DUP3 DUP5 SUB SLT ISZERO PUSH2 0x5003 JUMPI PUSH1 0x0 DUP1 REVERT JUMPDEST DUP2 MLOAD PUSH2 0xCC5 DUP2 PUSH2 0x55EE JUMP JUMPDEST PUSH1 0x0 PUSH1 0x20 DUP3 DUP5 SUB SLT ISZERO PUSH2 0x5020 JUMPI PUSH1 0x0 DUP1 REVERT JUMPDEST POP MLOAD SWAP2 SWAP1 POP JUMP JUMPDEST PUSH1 0x0 DUP1 PUSH1 0x40 DUP4 DUP6 SUB SLT ISZERO PUSH2 0x503A JUMPI PUSH1 0x0 DUP1 REVERT JUMPDEST DUP3 CALLDATALOAD SWAP2 POP PUSH1 0x20 DUP4 ADD CALLDATALOAD PUSH2 0x4C41 DUP2 PUSH2 0x55D9 JUMP JUMPDEST PUSH1 0x0 DUP1 PUSH1 0x0 DUP1 PUSH1 0x0 DUP1 PUSH1 0x0 DUP1 PUSH1 0x0 DUP1 PUSH1 0x0 PUSH2 0x100 DUP13 DUP15 SUB SLT ISZERO PUSH2 0x506E JUMPI PUSH1 0x0 DUP1 REVERT JUMPDEST PUSH8 0xFFFFFFFFFFFFFFFF DUP1 DUP14 CALLDATALOAD GT ISZERO PUSH2 0x5085 JUMPI PUSH1 0x0 DUP1 REVERT JUMPDEST PUSH2 0x5092 DUP15 DUP15 CALLDATALOAD DUP16 ADD PUSH2 0x4B90 JUMP JUMPDEST SWAP1 SWAP13 POP SWAP11 POP PUSH1 0x20 DUP14 ADD CALLDATALOAD SWAP10 POP PUSH2 0x50AA PUSH1 0x40 DUP15 ADD PUSH2 0x4B80 JUMP JUMPDEST SWAP9 POP PUSH2 0x50B8 PUSH1 0x60 DUP15 ADD PUSH2 0x4B80 JUMP JUMPDEST SWAP8 POP PUSH2 0x50C6 PUSH1 0x80 DUP15 ADD PUSH2 0x4B80 JUMP JUMPDEST SWAP7 POP PUSH1 0xA0 DUP14 ADD CALLDATALOAD SWAP6 POP DUP1 PUSH1 0xC0 DUP15 ADD CALLDATALOAD GT ISZERO PUSH2 0x50E0 JUMPI PUSH1 0x0 DUP1 REVERT JUMPDEST PUSH2 0x50F0 DUP15 PUSH1 0xC0 DUP16 ADD CALLDATALOAD DUP16 ADD PUSH2 0x4B90 JUMP JUMPDEST SWAP1 SWAP6 POP SWAP4 POP PUSH1 0xE0 DUP14 ADD CALLDATALOAD DUP2 LT ISZERO PUSH2 0x5106 JUMPI PUSH1 0x0 DUP1 REVERT JUMPDEST POP PUSH2 0x5117 DUP14 PUSH1 0xE0 DUP15 ADD CALLDATALOAD DUP15 ADD PUSH2 0x4B90 JUMP JUMPDEST DUP2 SWAP4 POP DUP1 SWAP3 POP POP POP SWAP3 SWAP6 SWAP9 SWAP12 POP SWAP3 SWAP6 SWAP9 SWAP12 SWAP1 SWAP4 SWAP7 SWAP10 POP JUMP JUMPDEST PUSH1 0x0 PUSH1 0x20 DUP3 DUP5 SUB SLT ISZERO PUSH2 0x5141 JUMPI PUSH1 0x0 DUP1 REVERT JUMPDEST DUP2 CALLDATALOAD PUSH8 0xFFFFFFFFFFFFFFFF DUP2 GT ISZERO PUSH2 0x5158 JUMPI PUSH1 0x0 DUP1 REVERT JUMPDEST DUP3 ADD PUSH2 0x120 DUP2 DUP6 SUB SLT ISZERO PUSH2 0xCC5 JUMPI PUSH1 0x0 DUP1 REVERT JUMPDEST PUSH1 0x7 DUP2 LT PUSH2 0x517B JUMPI PUSH2 0x517B PUSH2 0x5597 JUMP JUMPDEST SWAP1 MSTORE JUMP JUMPDEST PUSH1 0x0 PUSH12 0xFFFFFFFFFFFFFFFFFFFFFFFF NOT DUP1 DUP9 PUSH1 0x60 SHL AND DUP4 MSTORE DUP1 DUP8 PUSH1 0x60 SHL AND PUSH1 0x14 DUP5 ADD MSTORE POP DUP5 MLOAD PUSH2 0x51B6 DUP2 PUSH1 0x28 DUP6 ADD PUSH1 0x20 DUP10 ADD PUSH2 0x553A JUMP JUMPDEST SWAP1 SWAP2 ADD PUSH1 0x28 DUP2 ADD SWAP4 SWAP1 SWAP4 MSTORE POP PUSH1 0x48 DUP3 ADD MSTORE PUSH1 0x68 ADD SWAP4 SWAP3 POP POP POP JUMP JUMPDEST PUSH1 0x0 DUP3 MLOAD PUSH2 0x51E3 DUP2 DUP5 PUSH1 0x20 DUP8 ADD PUSH2 0x553A JUMP JUMPDEST SWAP2 SWAP1 SWAP2 ADD SWAP3 SWAP2 POP POP JUMP JUMPDEST DUP10 DUP2 MSTORE PUSH1 0x1 PUSH1 0x1 PUSH1 0xA0 SHL SUB DUP10 DUP2 AND PUSH1 0x20 DUP4 ADD MSTORE DUP9 DUP2 AND PUSH1 0x40 DUP4 ADD MSTORE DUP8 AND PUSH1 0x60 DUP3 ADD MSTORE PUSH1 0x80 DUP2 ADD DUP7 SWAP1 MSTORE PUSH1 0xA0 DUP2 ADD DUP6 SWAP1 MSTORE PUSH1 0xC0 DUP2 ADD DUP5 SWAP1 MSTORE PUSH1 0xE0 DUP2 ADD DUP4 SWAP1 MSTORE PUSH2 0x120 DUP2 ADD PUSH2 0xB93 PUSH2 0x100 DUP4 ADD DUP5 PUSH2 0x516B JUMP JUMPDEST DUP3 DUP2 MSTORE PUSH1 0x40 DUP2 ADD PUSH2 0xCC5 PUSH1 0x20 DUP4 ADD DUP5 PUSH2 0x516B JUMP JUMPDEST PUSH1 0x0 PUSH1 0xC0 DUP3 ADD PUSH1 0x3 DUP10 LT PUSH2 0x5268 JUMPI PUSH2 0x5268 PUSH2 0x5597 JUMP JUMPDEST DUP9 DUP4 MSTORE PUSH1 0x20 DUP9 ISZERO ISZERO DUP2 DUP6 ADD MSTORE DUP8 ISZERO ISZERO PUSH1 0x40 DUP6 ADD MSTORE DUP7 ISZERO ISZERO PUSH1 0x60 DUP6 ADD MSTORE DUP6 ISZERO ISZERO PUSH1 0x80 DUP6 ADD MSTORE PUSH1 0xC0 PUSH1 0xA0 DUP6 ADD MSTORE DUP2 DUP6 MLOAD DUP1 DUP5 MSTORE PUSH1 0xE0 DUP7 ADD SWAP2 POP DUP3 DUP8 ADD SWAP4 POP PUSH1 0x0 JUMPDEST DUP2 DUP2 LT ISZERO PUSH2 0x52CC JUMPI DUP5 MLOAD PUSH1 0x1 PUSH1 0x1 PUSH1 0xA0 SHL SUB AND DUP4 MSTORE SWAP4 DUP4 ADD SWAP4 SWAP2 DUP4 ADD SWAP2 PUSH1 0x1 ADD PUSH2 0x52A7 JUMP JUMPDEST POP SWAP1 SWAP12 SWAP11 POP POP POP POP POP POP POP POP POP POP POP JUMP JUMPDEST PUSH1 0x20 DUP1 DUP3 MSTORE PUSH1 0x2 SWAP1 DUP3 ADD MSTORE PUSH2 0xD4D PUSH1 0xF2 SHL PUSH1 0x40 DUP3 ADD MSTORE PUSH1 0x60 ADD SWAP1 JUMP JUMPDEST PUSH1 0x20 DUP1 DUP3 MSTORE PUSH1 0x16 SWAP1 DUP3 ADD MSTORE PUSH22 0x29B2B73232B91034B9903737BA1030903830BAB9B2B9 PUSH1 0x51 SHL PUSH1 0x40 DUP3 ADD MSTORE PUSH1 0x60 ADD SWAP1 JUMP JUMPDEST PUSH1 0x20 DUP1 DUP3 MSTORE PUSH1 0x26 SWAP1 DUP3 ADD MSTORE PUSH32 0x50617965722061646472657373206D757374206E6F74206265207A65726F2061 PUSH1 0x40 DUP3 ADD MSTORE PUSH6 0x646472657373 PUSH1 0xD0 SHL PUSH1 0x60 DUP3 ADD MSTORE PUSH1 0x80 ADD SWAP1 JUMP JUMPDEST PUSH1 0x20 DUP1 DUP3 MSTORE PUSH1 0x1F SWAP1 DUP3 ADD MSTORE PUSH32 0x53656E646572206973206E6F74206120626C6F636B6C6973742061646D696E00 PUSH1 0x40 DUP3 ADD MSTORE PUSH1 0x60 ADD SWAP1 JUMP JUMPDEST PUSH1 0x20 DUP1 DUP3 MSTORE PUSH1 0x22 SWAP1 DUP3 ADD MSTORE PUSH32 0x53656E646572206973206E6F742061206365727469666963617465207369676E PUSH1 0x40 DUP3 ADD MSTORE PUSH2 0x32B9 PUSH1 0xF1 SHL PUSH1 0x60 DUP3 ADD MSTORE PUSH1 0x80 ADD SWAP1 JUMP JUMPDEST PUSH1 0x20 DUP1 DUP3 MSTORE DUP2 DUP2 ADD MSTORE PUSH32 0x53656E646572206973206E6F7420616E20616C6C6F776C6973742061646D696E PUSH1 0x40 DUP3 ADD MSTORE PUSH1 0x60 ADD SWAP1 JUMP JUMPDEST PUSH1 0x20 DUP1 DUP3 MSTORE PUSH1 0x21 SWAP1 DUP3 ADD MSTORE PUSH32 0x53656E646572206973206E6F74206120746F6B656E20636F6E74726F6C6C6572 PUSH1 0x40 DUP3 ADD MSTORE PUSH1 0x17 PUSH1 0xF9 SHL PUSH1 0x60 DUP3 ADD MSTORE PUSH1 0x80 ADD SWAP1 JUMP JUMPDEST PUSH1 0x0 DUP1 DUP4 CALLDATALOAD PUSH1 0x1E NOT DUP5 CALLDATASIZE SUB ADD DUP2 SLT PUSH2 0x5475 JUMPI PUSH1 0x0 DUP1 REVERT JUMPDEST DUP4 ADD DUP1 CALLDATALOAD SWAP2 POP PUSH8 0xFFFFFFFFFFFFFFFF DUP3 GT ISZERO PUSH2 0x5490 JUMPI PUSH1 0x0 DUP1 REVERT JUMPDEST PUSH1 0x20 ADD SWAP2 POP CALLDATASIZE DUP2 SWAP1 SUB DUP3 SGT ISZERO PUSH2 0x4BD2 JUMPI PUSH1 0x0 DUP1 REVERT JUMPDEST PUSH1 0x0 DUP3 NOT DUP3 GT ISZERO PUSH2 0x54B8 JUMPI PUSH2 0x54B8 PUSH2 0x5581 JUMP JUMPDEST POP ADD SWAP1 JUMP JUMPDEST PUSH1 0x0 PUSH1 0xFF DUP3 AND PUSH1 0xFF DUP5 AND DUP1 PUSH1 0xFF SUB DUP3 GT ISZERO PUSH2 0x54DA JUMPI PUSH2 0x54DA PUSH2 0x5581 JUMP JUMPDEST ADD SWAP4 SWAP3 POP POP POP JUMP JUMPDEST PUSH1 0x0 DUP3 PUSH2 0x54FF JUMPI PUSH4 0x4E487B71 PUSH1 0xE0 SHL PUSH1 0x0 MSTORE PUSH1 0x12 PUSH1 0x4 MSTORE PUSH1 0x24 PUSH1 0x0 REVERT JUMPDEST POP DIV SWAP1 JUMP JUMPDEST PUSH1 0x0 DUP2 PUSH1 0x0 NOT DIV DUP4 GT DUP3 ISZERO ISZERO AND ISZERO PUSH2 0x551E JUMPI PUSH2 0x551E PUSH2 0x5581 JUMP JUMPDEST POP MUL SWAP1 JUMP JUMPDEST PUSH1 0x0 DUP3 DUP3 LT ISZERO PUSH2 0x5535 JUMPI PUSH2 0x5535 PUSH2 0x5581 JUMP JUMPDEST POP SUB SWAP1 JUMP JUMPDEST PUSH1 0x0 JUMPDEST DUP4 DUP2 LT ISZERO PUSH2 0x5555 JUMPI DUP2 DUP2 ADD MLOAD DUP4 DUP3 ADD MSTORE PUSH1 0x20 ADD PUSH2 0x553D JUMP JUMPDEST DUP4 DUP2 GT ISZERO PUSH2 0x2D0B JUMPI POP POP PUSH1 0x0 SWAP2 ADD MSTORE JUMP JUMPDEST PUSH1 0x0 PUSH1 0x0 NOT DUP3 EQ ISZERO PUSH2 0x557A JUMPI PUSH2 0x557A PUSH2 0x5581 JUMP JUMPDEST POP PUSH1 0x1 ADD SWAP1 JUMP JUMPDEST PUSH4 0x4E487B71 PUSH1 0xE0 SHL PUSH1 0x0 MSTORE PUSH1 0x11 PUSH1 0x4 MSTORE PUSH1 0x24 PUSH1 0x0 REVERT JUMPDEST PUSH4 0x4E487B71 PUSH1 0xE0 SHL PUSH1 0x0 MSTORE PUSH1 0x21 PUSH1 0x4 MSTORE PUSH1 0x24 PUSH1 0x0 REVERT JUMPDEST PUSH4 0x4E487B71 PUSH1 0xE0 SHL PUSH1 0x0 MSTORE PUSH1 0x32 PUSH1 0x4 MSTORE PUSH1 0x24 PUSH1 0x0 REVERT JUMPDEST PUSH4 0x4E487B71 PUSH1 0xE0 SHL PUSH1 0x0 MSTORE PUSH1 0x41 PUSH1 0x4 MSTORE PUSH1 0x24 PUSH1 0x0 REVERT JUMPDEST PUSH1 0x1 PUSH1 0x1 PUSH1 0xA0 SHL SUB DUP2 AND DUP2 EQ PUSH2 0x89A JUMPI PUSH1 0x0 DUP1 REVERT JUMPDEST DUP1 ISZERO ISZERO DUP2 EQ PUSH2 0x89A JUMPI PUSH1 0x0 DUP1 REVERT INVALID LOG2 PUSH5 0x6970667358 0x22 SLT KECCAK256 0xED PUSH3 0xAF5B5C 0xB0 0xD6 NUMBER PUSH7 0xFAD18F5C1E48E6 CALLVALUE 0xE8 SWAP2 POP AND 0xAA SIGNEXTEND DUP5 RETURNDATACOPY 0x2E 0xD6 DUP1 0xE5 SWAP9 PUSH24 0x6A64736F6C63430008070033000000000000000000000000 "
		},
		"gasEstimates": {
			"creation": {
				"codeDepositCost": "4413200",
				"executionCost": "infinite",
				"totalCost": "infinite"
			},
			"external": {
				"addAllowlistAdmin(address,address)": "infinite",
				"addAllowlisted(address,address)": "infinite",
				"addBlocklistAdmin(address,address)": "infinite",
				"addBlocklisted(address,address)": "infinite",
				"addCertificateSigner(address,address)": "infinite",
				"addPauser(address,address)": "infinite",
				"balanceOnHold(address,address)": "infinite",
				"balanceOnHoldByPartition(address,bytes32,address)": "infinite",
				"canImplementInterfaceForAddress(bytes32,address)": "2797",
				"canValidate((address,bytes,bytes32,address,address,address,uint256,bytes,bytes))": "infinite",
				"executeHold(address,bytes32,uint256,bytes32)": "infinite",
				"executeHoldAndKeepOpen(address,bytes32,uint256,bytes32)": "infinite",
				"granularityByPartition(address,bytes32)": "2741",
				"hold(address,bytes32,address,address,bytes32,uint256,uint256,bytes32,bytes)": "infinite",
				"holdFrom(address,bytes32,address,address,address,bytes32,uint256,uint256,bytes32,bytes)": "infinite",
				"holdFromWithExpirationDate(address,bytes32,address,address,address,bytes32,uint256,uint256,bytes32,bytes)": "infinite",
				"holdWithExpirationDate(address,bytes32,address,address,bytes32,uint256,uint256,bytes32,bytes)": "infinite",
				"isAllowlistAdmin(address,address)": "infinite",
				"isAllowlisted(address,address)": "infinite",
				"isBlocklistAdmin(address,address)": "infinite",
				"isBlocklisted(address,address)": "infinite",
				"isCertificateSigner(address,address)": "infinite",
				"isPauser(address,address)": "infinite",
				"pause(address)": "infinite",
				"paused(address)": "2633",
				"preHoldFor(address,bytes32,address,address,bytes32,uint256,uint256,bytes32,bytes)": "infinite",
				"preHoldForWithExpirationDate(address,bytes32,address,address,bytes32,uint256,uint256,bytes32,bytes)": "infinite",
				"registerTokenSetup(address,uint8,bool,bool,bool,bool,address[])": "infinite",
				"releaseHold(address,bytes32)": "infinite",
				"removeAllowlistAdmin(address,address)": "infinite",
				"removeAllowlisted(address,address)": "infinite",
				"removeBlocklistAdmin(address,address)": "infinite",
				"removeBlocklisted(address,address)": "infinite",
				"removeCertificateSigner(address,address)": "infinite",
				"removePauser(address,address)": "infinite",
				"renewHold(address,bytes32,uint256,bytes)": "infinite",
				"renewHoldWithExpirationDate(address,bytes32,uint256,bytes)": "infinite",
				"renounceAllowlistAdmin(address)": "infinite",
				"renounceBlocklistAdmin(address)": "infinite",
				"renounceCertificateSigner(address)": "infinite",
				"renouncePauser(address)": "infinite",
				"retrieveHoldData(address,bytes32)": "19972",
				"retrieveTokenSetup(address)": "infinite",
				"setGranularityByPartition(address,bytes32,uint256)": "infinite",
				"spendableBalanceOf(address,address)": "infinite",
				"spendableBalanceOfByPartition(address,bytes32,address)": "infinite",
				"tokensToValidate(bytes,bytes32,address,address,address,uint256,bytes,bytes)": "infinite",
				"totalSupplyOnHold(address)": "2644",
				"totalSupplyOnHoldByPartition(address,bytes32)": "2742",
				"unpause(address)": "infinite",
				"usedCertificateNonce(address,address)": "infinite",
				"usedCertificateSalt(address,bytes32)": "2709"
			},
			"internal": {
				"_canHoldOrCanPreHold(address,address,address,bytes memory)": "infinite",
				"_canValidateAllowlistAndBlocklistToken(address,bytes memory,address,address)": "infinite",
				"_canValidateCertificateToken(address,bytes memory,address,bytes memory)": "infinite",
				"_canValidateGranularToken(address,bytes32,uint256)": "infinite",
				"_canValidateHoldableToken(address,bytes32,address,address,address,uint256)": "infinite",
				"_checkExpiration(uint256)": "infinite",
				"_checkNonceBasedCertificate(address,address,bytes memory,bytes memory)": "infinite",
				"_checkSaltBasedCertificate(address,address,bytes memory,bytes memory)": "infinite",
				"_checkSecret(struct ERC1400TokensValidator.Hold storage pointer,bytes32)": "infinite",
				"_computeExpiration(uint256)": "infinite",
				"_createHold(address,bytes32,address,address,address,bytes32,uint256,uint256,bytes32,bytes memory)": "infinite",
				"_decreaseHeldBalance(address,struct ERC1400TokensValidator.Hold storage pointer,uint256)": "infinite",
				"_executeHold(address,bytes32,address,uint256,bytes32,bool)": "infinite",
				"_functionSupportsCertificateValidation(bytes memory)": "infinite",
				"_getFunctionSig(bytes memory)": "infinite",
				"_holdCanBeExecuted(struct ERC1400TokensValidator.Hold storage pointer,uint256)": "8711",
				"_holdCanBeExecutedAsNotary(struct ERC1400TokensValidator.Hold storage pointer,address,uint256)": "10955",
				"_holdCanBeExecutedAsSecretHolder(struct ERC1400TokensValidator.Hold storage pointer,uint256,bytes32)": "infinite",
				"_increaseHeldBalance(address,struct ERC1400TokensValidator.Hold storage pointer,bytes32)": "infinite",
				"_isExpired(uint256)": "55",
				"_isMultiple(uint256,uint256)": "infinite",
				"_releaseHold(address,bytes32)": "infinite",
				"_renewHold(address,bytes32,uint256,bytes memory)": "infinite",
				"_retrieveHoldHashId(address,bytes32,address,address,address,uint256)": "infinite",
				"_setHoldToExecuted(address,struct ERC1400TokensValidator.Hold storage pointer,bytes32,uint256,uint256,bytes32)": "infinite",
				"_setHoldToExecutedAndKeptOpen(address,struct ERC1400TokensValidator.Hold storage pointer,bytes32,uint256,uint256,bytes32)": "infinite",
				"_setTokenControllers(address,address[] memory)": "infinite",
				"_spendableBalanceOf(address,address)": "infinite",
				"_spendableBalanceOfByPartition(address,bytes32,address)": "infinite",
				"_useCertificateIfActivated(address,enum ERC1400TokensValidator.CertificateValidation,address,bytes32)": "24558"
			}
		},
		"methodIdentifiers": {
			"addAllowlistAdmin(address,address)": "fa061ca0",
			"addAllowlisted(address,address)": "4261699f",
			"addBlocklistAdmin(address,address)": "c428b202",
			"addBlocklisted(address,address)": "2c55b05f",
			"addCertificateSigner(address,address)": "c69664bb",
			"addPauser(address,address)": "eb5314bd",
			"balanceOnHold(address,address)": "1db9c180",
			"balanceOnHoldByPartition(address,bytes32,address)": "e34a11ec",
			"canImplementInterfaceForAddress(bytes32,address)": "249cb3fa",
			"canValidate((address,bytes,bytes32,address,address,address,uint256,bytes,bytes))": "98a53ef5",
			"executeHold(address,bytes32,uint256,bytes32)": "54c6f08c",
			"executeHoldAndKeepOpen(address,bytes32,uint256,bytes32)": "6eb6ad8f",
			"granularityByPartition(address,bytes32)": "a54cdf6a",
			"hold(address,bytes32,address,address,bytes32,uint256,uint256,bytes32,bytes)": "73e7b160",
			"holdFrom(address,bytes32,address,address,address,bytes32,uint256,uint256,bytes32,bytes)": "2174e435",
			"holdFromWithExpirationDate(address,bytes32,address,address,address,bytes32,uint256,uint256,bytes32,bytes)": "9672d64b",
			"holdWithExpirationDate(address,bytes32,address,address,bytes32,uint256,uint256,bytes32,bytes)": "89d3a639",
			"isAllowlistAdmin(address,address)": "42be5787",
			"isAllowlisted(address,address)": "61c2e281",
			"isBlocklistAdmin(address,address)": "a28e7c02",
			"isBlocklisted(address,address)": "a4aa023f",
			"isCertificateSigner(address,address)": "9e59ceba",
			"isPauser(address,address)": "2fd33398",
			"pause(address)": "76a67a51",
			"paused(address)": "2e48152c",
			"preHoldFor(address,bytes32,address,address,bytes32,uint256,uint256,bytes32,bytes)": "279f00dd",
			"preHoldForWithExpirationDate(address,bytes32,address,address,bytes32,uint256,uint256,bytes32,bytes)": "530b8edd",
			"registerTokenSetup(address,uint8,bool,bool,bool,bool,address[])": "118fa5db",
			"releaseHold(address,bytes32)": "c1c60fe2",
			"removeAllowlistAdmin(address,address)": "dfe15da0",
			"removeAllowlisted(address,address)": "685e2519",
			"removeBlocklistAdmin(address,address)": "ebf42f77",
			"removeBlocklisted(address,address)": "9bd483ec",
			"removeCertificateSigner(address,address)": "e81ea541",
			"removePauser(address,address)": "ed2f9095",
			"renewHold(address,bytes32,uint256,bytes)": "d47ac02a",
			"renewHoldWithExpirationDate(address,bytes32,uint256,bytes)": "b090bee7",
			"renounceAllowlistAdmin(address)": "0d21cdd8",
			"renounceBlocklistAdmin(address)": "e323e671",
			"renounceCertificateSigner(address)": "3bddaf8f",
			"renouncePauser(address)": "41eb24bb",
			"retrieveHoldData(address,bytes32)": "12da4de6",
			"retrieveTokenSetup(address)": "accf6175",
			"setGranularityByPartition(address,bytes32,uint256)": "62e93ffa",
			"spendableBalanceOf(address,address)": "5b4b2fd3",
			"spendableBalanceOfByPartition(address,bytes32,address)": "732c916b",
			"tokensToValidate(bytes,bytes32,address,address,address,uint256,bytes,bytes)": "520faa76",
			"totalSupplyOnHold(address)": "1529371f",
			"totalSupplyOnHoldByPartition(address,bytes32)": "450999a0",
			"unpause(address)": "57b001f9",
			"usedCertificateNonce(address,address)": "2744cc27",
			"usedCertificateSalt(address,bytes32)": "61aed064"
		}
	},
	"abi": [
		{
			"inputs": [],
			"stateMutability": "nonpayable",
			"type": "constructor"
		},
		{
			"anonymous": false,
			"inputs": [
				{
					"indexed": true,
					"internalType": "address",
					"name": "token",
					"type": "address"
				},
				{
					"indexed": true,
					"internalType": "address",
					"name": "account",
					"type": "address"
				}
			],
			"name": "AllowlistAdminAdded",
			"type": "event"
		},
		{
			"anonymous": false,
			"inputs": [
				{
					"indexed": true,
					"internalType": "address",
					"name": "token",
					"type": "address"
				},
				{
					"indexed": true,
					"internalType": "address",
					"name": "account",
					"type": "address"
				}
			],
			"name": "AllowlistAdminRemoved",
			"type": "event"
		},
		{
			"anonymous": false,
			"inputs": [
				{
					"indexed": true,
					"internalType": "address",
					"name": "token",
					"type": "address"
				},
				{
					"indexed": true,
					"internalType": "address",
					"name": "account",
					"type": "address"
				}
			],
			"name": "AllowlistedAdded",
			"type": "event"
		},
		{
			"anonymous": false,
			"inputs": [
				{
					"indexed": true,
					"internalType": "address",
					"name": "token",
					"type": "address"
				},
				{
					"indexed": true,
					"internalType": "address",
					"name": "account",
					"type": "address"
				}
			],
			"name": "AllowlistedRemoved",
			"type": "event"
		},
		{
			"anonymous": false,
			"inputs": [
				{
					"indexed": true,
					"internalType": "address",
					"name": "token",
					"type": "address"
				},
				{
					"indexed": true,
					"internalType": "address",
					"name": "account",
					"type": "address"
				}
			],
			"name": "BlocklistAdminAdded",
			"type": "event"
		},
		{
			"anonymous": false,
			"inputs": [
				{
					"indexed": true,
					"internalType": "address",
					"name": "token",
					"type": "address"
				},
				{
					"indexed": true,
					"internalType": "address",
					"name": "account",
					"type": "address"
				}
			],
			"name": "BlocklistAdminRemoved",
			"type": "event"
		},
		{
			"anonymous": false,
			"inputs": [
				{
					"indexed": true,
					"internalType": "address",
					"name": "token",
					"type": "address"
				},
				{
					"indexed": true,
					"internalType": "address",
					"name": "account",
					"type": "address"
				}
			],
			"name": "BlocklistedAdded",
			"type": "event"
		},
		{
			"anonymous": false,
			"inputs": [
				{
					"indexed": true,
					"internalType": "address",
					"name": "token",
					"type": "address"
				},
				{
					"indexed": true,
					"internalType": "address",
					"name": "account",
					"type": "address"
				}
			],
			"name": "BlocklistedRemoved",
			"type": "event"
		},
		{
			"anonymous": false,
			"inputs": [
				{
					"indexed": true,
					"internalType": "address",
					"name": "token",
					"type": "address"
				},
				{
					"indexed": true,
					"internalType": "address",
					"name": "account",
					"type": "address"
				}
			],
			"name": "CertificateSignerAdded",
			"type": "event"
		},
		{
			"anonymous": false,
			"inputs": [
				{
					"indexed": true,
					"internalType": "address",
					"name": "token",
					"type": "address"
				},
				{
					"indexed": true,
					"internalType": "address",
					"name": "account",
					"type": "address"
				}
			],
			"name": "CertificateSignerRemoved",
			"type": "event"
		},
		{
			"anonymous": false,
			"inputs": [
				{
					"indexed": true,
					"internalType": "address",
					"name": "token",
					"type": "address"
				},
				{
					"indexed": true,
					"internalType": "bytes32",
					"name": "holdId",
					"type": "bytes32"
				},
				{
					"indexed": false,
					"internalType": "bytes32",
					"name": "partition",
					"type": "bytes32"
				},
				{
					"indexed": false,
					"internalType": "address",
					"name": "sender",
					"type": "address"
				},
				{
					"indexed": false,
					"internalType": "address",
					"name": "recipient",
					"type": "address"
				},
				{
					"indexed": true,
					"internalType": "address",
					"name": "notary",
					"type": "address"
				},
				{
					"indexed": false,
					"internalType": "uint256",
					"name": "value",
					"type": "uint256"
				},
				{
					"indexed": false,
					"internalType": "uint256",
					"name": "expiration",
					"type": "uint256"
				},
				{
					"indexed": false,
					"internalType": "bytes32",
					"name": "secretHash",
					"type": "bytes32"
				}
			],
			"name": "HoldCreated",
			"type": "event"
		},
		{
			"anonymous": false,
			"inputs": [
				{
					"indexed": true,
					"internalType": "address",
					"name": "token",
					"type": "address"
				},
				{
					"indexed": false,
					"internalType": "bytes32",
					"name": "holdId",
					"type": "bytes32"
				},
				{
					"indexed": true,
					"internalType": "address",
					"name": "notary",
					"type": "address"
				},
				{
					"indexed": false,
					"internalType": "uint256",
					"name": "heldValue",
					"type": "uint256"
				},
				{
					"indexed": false,
					"internalType": "uint256",
					"name": "transferredValue",
					"type": "uint256"
				},
				{
					"indexed": false,
					"internalType": "bytes32",
					"name": "secret",
					"type": "bytes32"
				}
			],
			"name": "HoldExecuted",
			"type": "event"
		},
		{
			"anonymous": false,
			"inputs": [
				{
					"indexed": true,
					"internalType": "address",
					"name": "token",
					"type": "address"
				},
				{
					"indexed": false,
					"internalType": "bytes32",
					"name": "holdId",
					"type": "bytes32"
				},
				{
					"indexed": true,
					"internalType": "address",
					"name": "notary",
					"type": "address"
				},
				{
					"indexed": false,
					"internalType": "uint256",
					"name": "heldValue",
					"type": "uint256"
				},
				{
					"indexed": false,
					"internalType": "uint256",
					"name": "transferredValue",
					"type": "uint256"
				},
				{
					"indexed": false,
					"internalType": "bytes32",
					"name": "secret",
					"type": "bytes32"
				}
			],
			"name": "HoldExecutedAndKeptOpen",
			"type": "event"
		},
		{
			"anonymous": false,
			"inputs": [
				{
					"indexed": true,
					"internalType": "address",
					"name": "token",
					"type": "address"
				},
				{
					"indexed": false,
					"internalType": "bytes32",
					"name": "holdId",
					"type": "bytes32"
				},
				{
					"indexed": true,
					"internalType": "address",
					"name": "notary",
					"type": "address"
				},
				{
					"indexed": false,
					"internalType": "enum ERC1400TokensValidator.HoldStatusCode",
					"name": "status",
					"type": "uint8"
				}
			],
			"name": "HoldReleased",
			"type": "event"
		},
		{
			"anonymous": false,
			"inputs": [
				{
					"indexed": true,
					"internalType": "address",
					"name": "token",
					"type": "address"
				},
				{
					"indexed": false,
					"internalType": "bytes32",
					"name": "holdId",
					"type": "bytes32"
				},
				{
					"indexed": true,
					"internalType": "address",
					"name": "notary",
					"type": "address"
				},
				{
					"indexed": false,
					"internalType": "uint256",
					"name": "oldExpiration",
					"type": "uint256"
				},
				{
					"indexed": false,
					"internalType": "uint256",
					"name": "newExpiration",
					"type": "uint256"
				}
			],
			"name": "HoldRenewed",
			"type": "event"
		},
		{
			"anonymous": false,
			"inputs": [
				{
					"indexed": true,
					"internalType": "address",
					"name": "token",
					"type": "address"
				},
				{
					"indexed": false,
					"internalType": "address",
					"name": "account",
					"type": "address"
				}
			],
			"name": "Paused",
			"type": "event"
		},
		{
			"anonymous": false,
			"inputs": [
				{
					"indexed": true,
					"internalType": "address",
					"name": "token",
					"type": "address"
				},
				{
					"indexed": true,
					"internalType": "address",
					"name": "account",
					"type": "address"
				}
			],
			"name": "PauserAdded",
			"type": "event"
		},
		{
			"anonymous": false,
			"inputs": [
				{
					"indexed": true,
					"internalType": "address",
					"name": "token",
					"type": "address"
				},
				{
					"indexed": true,
					"internalType": "address",
					"name": "account",
					"type": "address"
				}
			],
			"name": "PauserRemoved",
			"type": "event"
		},
		{
			"anonymous": false,
			"inputs": [
				{
					"indexed": true,
					"internalType": "address",
					"name": "token",
					"type": "address"
				},
				{
					"indexed": false,
					"internalType": "address",
					"name": "account",
					"type": "address"
				}
			],
			"name": "Unpaused",
			"type": "event"
		},
		{
			"inputs": [
				{
					"internalType": "address",
					"name": "token",
					"type": "address"
				},
				{
					"internalType": "address",
					"name": "account",
					"type": "address"
				}
			],
			"name": "addAllowlistAdmin",
			"outputs": [],
			"stateMutability": "nonpayable",
			"type": "function"
		},
		{
			"inputs": [
				{
					"internalType": "address",
					"name": "token",
					"type": "address"
				},
				{
					"internalType": "address",
					"name": "account",
					"type": "address"
				}
			],
			"name": "addAllowlisted",
			"outputs": [],
			"stateMutability": "nonpayable",
			"type": "function"
		},
		{
			"inputs": [
				{
					"internalType": "address",
					"name": "token",
					"type": "address"
				},
				{
					"internalType": "address",
					"name": "account",
					"type": "address"
				}
			],
			"name": "addBlocklistAdmin",
			"outputs": [],
			"stateMutability": "nonpayable",
			"type": "function"
		},
		{
			"inputs": [
				{
					"internalType": "address",
					"name": "token",
					"type": "address"
				},
				{
					"internalType": "address",
					"name": "account",
					"type": "address"
				}
			],
			"name": "addBlocklisted",
			"outputs": [],
			"stateMutability": "nonpayable",
			"type": "function"
		},
		{
			"inputs": [
				{
					"internalType": "address",
					"name": "token",
					"type": "address"
				},
				{
					"internalType": "address",
					"name": "account",
					"type": "address"
				}
			],
			"name": "addCertificateSigner",
			"outputs": [],
			"stateMutability": "nonpayable",
			"type": "function"
		},
		{
			"inputs": [
				{
					"internalType": "address",
					"name": "token",
					"type": "address"
				},
				{
					"internalType": "address",
					"name": "account",
					"type": "address"
				}
			],
			"name": "addPauser",
			"outputs": [],
			"stateMutability": "nonpayable",
			"type": "function"
		},
		{
			"inputs": [
				{
					"internalType": "address",
					"name": "token",
					"type": "address"
				},
				{
					"internalType": "address",
					"name": "account",
					"type": "address"
				}
			],
			"name": "balanceOnHold",
			"outputs": [
				{
					"internalType": "uint256",
					"name": "",
					"type": "uint256"
				}
			],
			"stateMutability": "view",
			"type": "function"
		},
		{
			"inputs": [
				{
					"internalType": "address",
					"name": "token",
					"type": "address"
				},
				{
					"internalType": "bytes32",
					"name": "partition",
					"type": "bytes32"
				},
				{
					"internalType": "address",
					"name": "account",
					"type": "address"
				}
			],
			"name": "balanceOnHoldByPartition",
			"outputs": [
				{
					"internalType": "uint256",
					"name": "",
					"type": "uint256"
				}
			],
			"stateMutability": "view",
			"type": "function"
		},
		{
			"inputs": [
				{
					"internalType": "bytes32",
					"name": "interfaceHash",
					"type": "bytes32"
				},
				{
					"internalType": "address",
					"name": "",
					"type": "address"
				}
			],
			"name": "canImplementInterfaceForAddress",
			"outputs": [
				{
					"internalType": "bytes32",
					"name": "",
					"type": "bytes32"
				}
			],
			"stateMutability": "view",
			"type": "function"
		},
		{
			"inputs": [
				{
					"components": [
						{
							"internalType": "address",
							"name": "token",
							"type": "address"
						},
						{
							"internalType": "bytes",
							"name": "payload",
							"type": "bytes"
						},
						{
							"internalType": "bytes32",
							"name": "partition",
							"type": "bytes32"
						},
						{
							"internalType": "address",
							"name": "operator",
							"type": "address"
						},
						{
							"internalType": "address",
							"name": "from",
							"type": "address"
						},
						{
							"internalType": "address",
							"name": "to",
							"type": "address"
						},
						{
							"internalType": "uint256",
							"name": "value",
							"type": "uint256"
						},
						{
							"internalType": "bytes",
							"name": "data",
							"type": "bytes"
						},
						{
							"internalType": "bytes",
							"name": "operatorData",
							"type": "bytes"
						}
					],
					"internalType": "struct IERC1400TokensValidator.ValidateData",
					"name": "data",
					"type": "tuple"
				}
			],
			"name": "canValidate",
			"outputs": [
				{
					"internalType": "bool",
					"name": "",
					"type": "bool"
				}
			],
			"stateMutability": "view",
			"type": "function"
		},
		{
			"inputs": [
				{
					"internalType": "address",
					"name": "token",
					"type": "address"
				},
				{
					"internalType": "bytes32",
					"name": "holdId",
					"type": "bytes32"
				},
				{
					"internalType": "uint256",
					"name": "value",
					"type": "uint256"
				},
				{
					"internalType": "bytes32",
					"name": "secret",
					"type": "bytes32"
				}
			],
			"name": "executeHold",
			"outputs": [
				{
					"internalType": "bool",
					"name": "",
					"type": "bool"
				}
			],
			"stateMutability": "nonpayable",
			"type": "function"
		},
		{
			"inputs": [
				{
					"internalType": "address",
					"name": "token",
					"type": "address"
				},
				{
					"internalType": "bytes32",
					"name": "holdId",
					"type": "bytes32"
				},
				{
					"internalType": "uint256",
					"name": "value",
					"type": "uint256"
				},
				{
					"internalType": "bytes32",
					"name": "secret",
					"type": "bytes32"
				}
			],
			"name": "executeHoldAndKeepOpen",
			"outputs": [
				{
					"internalType": "bool",
					"name": "",
					"type": "bool"
				}
			],
			"stateMutability": "nonpayable",
			"type": "function"
		},
		{
			"inputs": [
				{
					"internalType": "address",
					"name": "token",
					"type": "address"
				},
				{
					"internalType": "bytes32",
					"name": "partition",
					"type": "bytes32"
				}
			],
			"name": "granularityByPartition",
			"outputs": [
				{
					"internalType": "uint256",
					"name": "",
					"type": "uint256"
				}
			],
			"stateMutability": "view",
			"type": "function"
		},
		{
			"inputs": [
				{
					"internalType": "address",
					"name": "token",
					"type": "address"
				},
				{
					"internalType": "bytes32",
					"name": "holdId",
					"type": "bytes32"
				},
				{
					"internalType": "address",
					"name": "recipient",
					"type": "address"
				},
				{
					"internalType": "address",
					"name": "notary",
					"type": "address"
				},
				{
					"internalType": "bytes32",
					"name": "partition",
					"type": "bytes32"
				},
				{
					"internalType": "uint256",
					"name": "value",
					"type": "uint256"
				},
				{
					"internalType": "uint256",
					"name": "timeToExpiration",
					"type": "uint256"
				},
				{
					"internalType": "bytes32",
					"name": "secretHash",
					"type": "bytes32"
				},
				{
					"internalType": "bytes",
					"name": "certificate",
					"type": "bytes"
				}
			],
			"name": "hold",
			"outputs": [
				{
					"internalType": "bool",
					"name": "",
					"type": "bool"
				}
			],
			"stateMutability": "nonpayable",
			"type": "function"
		},
		{
			"inputs": [
				{
					"internalType": "address",
					"name": "token",
					"type": "address"
				},
				{
					"internalType": "bytes32",
					"name": "holdId",
					"type": "bytes32"
				},
				{
					"internalType": "address",
					"name": "sender",
					"type": "address"
				},
				{
					"internalType": "address",
					"name": "recipient",
					"type": "address"
				},
				{
					"internalType": "address",
					"name": "notary",
					"type": "address"
				},
				{
					"internalType": "bytes32",
					"name": "partition",
					"type": "bytes32"
				},
				{
					"internalType": "uint256",
					"name": "value",
					"type": "uint256"
				},
				{
					"internalType": "uint256",
					"name": "timeToExpiration",
					"type": "uint256"
				},
				{
					"internalType": "bytes32",
					"name": "secretHash",
					"type": "bytes32"
				},
				{
					"internalType": "bytes",
					"name": "certificate",
					"type": "bytes"
				}
			],
			"name": "holdFrom",
			"outputs": [
				{
					"internalType": "bool",
					"name": "",
					"type": "bool"
				}
			],
			"stateMutability": "nonpayable",
			"type": "function"
		},
		{
			"inputs": [
				{
					"internalType": "address",
					"name": "token",
					"type": "address"
				},
				{
					"internalType": "bytes32",
					"name": "holdId",
					"type": "bytes32"
				},
				{
					"internalType": "address",
					"name": "sender",
					"type": "address"
				},
				{
					"internalType": "address",
					"name": "recipient",
					"type": "address"
				},
				{
					"internalType": "address",
					"name": "notary",
					"type": "address"
				},
				{
					"internalType": "bytes32",
					"name": "partition",
					"type": "bytes32"
				},
				{
					"internalType": "uint256",
					"name": "value",
					"type": "uint256"
				},
				{
					"internalType": "uint256",
					"name": "expiration",
					"type": "uint256"
				},
				{
					"internalType": "bytes32",
					"name": "secretHash",
					"type": "bytes32"
				},
				{
					"internalType": "bytes",
					"name": "certificate",
					"type": "bytes"
				}
			],
			"name": "holdFromWithExpirationDate",
			"outputs": [
				{
					"internalType": "bool",
					"name": "",
					"type": "bool"
				}
			],
			"stateMutability": "nonpayable",
			"type": "function"
		},
		{
			"inputs": [
				{
					"internalType": "address",
					"name": "token",
					"type": "address"
				},
				{
					"internalType": "bytes32",
					"name": "holdId",
					"type": "bytes32"
				},
				{
					"internalType": "address",
					"name": "recipient",
					"type": "address"
				},
				{
					"internalType": "address",
					"name": "notary",
					"type": "address"
				},
				{
					"internalType": "bytes32",
					"name": "partition",
					"type": "bytes32"
				},
				{
					"internalType": "uint256",
					"name": "value",
					"type": "uint256"
				},
				{
					"internalType": "uint256",
					"name": "expiration",
					"type": "uint256"
				},
				{
					"internalType": "bytes32",
					"name": "secretHash",
					"type": "bytes32"
				},
				{
					"internalType": "bytes",
					"name": "certificate",
					"type": "bytes"
				}
			],
			"name": "holdWithExpirationDate",
			"outputs": [
				{
					"internalType": "bool",
					"name": "",
					"type": "bool"
				}
			],
			"stateMutability": "nonpayable",
			"type": "function"
		},
		{
			"inputs": [
				{
					"internalType": "address",
					"name": "token",
					"type": "address"
				},
				{
					"internalType": "address",
					"name": "account",
					"type": "address"
				}
			],
			"name": "isAllowlistAdmin",
			"outputs": [
				{
					"internalType": "bool",
					"name": "",
					"type": "bool"
				}
			],
			"stateMutability": "view",
			"type": "function"
		},
		{
			"inputs": [
				{
					"internalType": "address",
					"name": "token",
					"type": "address"
				},
				{
					"internalType": "address",
					"name": "account",
					"type": "address"
				}
			],
			"name": "isAllowlisted",
			"outputs": [
				{
					"internalType": "bool",
					"name": "",
					"type": "bool"
				}
			],
			"stateMutability": "view",
			"type": "function"
		},
		{
			"inputs": [
				{
					"internalType": "address",
					"name": "token",
					"type": "address"
				},
				{
					"internalType": "address",
					"name": "account",
					"type": "address"
				}
			],
			"name": "isBlocklistAdmin",
			"outputs": [
				{
					"internalType": "bool",
					"name": "",
					"type": "bool"
				}
			],
			"stateMutability": "view",
			"type": "function"
		},
		{
			"inputs": [
				{
					"internalType": "address",
					"name": "token",
					"type": "address"
				},
				{
					"internalType": "address",
					"name": "account",
					"type": "address"
				}
			],
			"name": "isBlocklisted",
			"outputs": [
				{
					"internalType": "bool",
					"name": "",
					"type": "bool"
				}
			],
			"stateMutability": "view",
			"type": "function"
		},
		{
			"inputs": [
				{
					"internalType": "address",
					"name": "token",
					"type": "address"
				},
				{
					"internalType": "address",
					"name": "account",
					"type": "address"
				}
			],
			"name": "isCertificateSigner",
			"outputs": [
				{
					"internalType": "bool",
					"name": "",
					"type": "bool"
				}
			],
			"stateMutability": "view",
			"type": "function"
		},
		{
			"inputs": [
				{
					"internalType": "address",
					"name": "token",
					"type": "address"
				},
				{
					"internalType": "address",
					"name": "account",
					"type": "address"
				}
			],
			"name": "isPauser",
			"outputs": [
				{
					"internalType": "bool",
					"name": "",
					"type": "bool"
				}
			],
			"stateMutability": "view",
			"type": "function"
		},
		{
			"inputs": [
				{
					"internalType": "address",
					"name": "token",
					"type": "address"
				}
			],
			"name": "pause",
			"outputs": [],
			"stateMutability": "nonpayable",
			"type": "function"
		},
		{
			"inputs": [
				{
					"internalType": "address",
					"name": "token",
					"type": "address"
				}
			],
			"name": "paused",
			"outputs": [
				{
					"internalType": "bool",
					"name": "",
					"type": "bool"
				}
			],
			"stateMutability": "view",
			"type": "function"
		},
		{
			"inputs": [
				{
					"internalType": "address",
					"name": "token",
					"type": "address"
				},
				{
					"internalType": "bytes32",
					"name": "holdId",
					"type": "bytes32"
				},
				{
					"internalType": "address",
					"name": "recipient",
					"type": "address"
				},
				{
					"internalType": "address",
					"name": "notary",
					"type": "address"
				},
				{
					"internalType": "bytes32",
					"name": "partition",
					"type": "bytes32"
				},
				{
					"internalType": "uint256",
					"name": "value",
					"type": "uint256"
				},
				{
					"internalType": "uint256",
					"name": "timeToExpiration",
					"type": "uint256"
				},
				{
					"internalType": "bytes32",
					"name": "secretHash",
					"type": "bytes32"
				},
				{
					"internalType": "bytes",
					"name": "certificate",
					"type": "bytes"
				}
			],
			"name": "preHoldFor",
			"outputs": [
				{
					"internalType": "bool",
					"name": "",
					"type": "bool"
				}
			],
			"stateMutability": "nonpayable",
			"type": "function"
		},
		{
			"inputs": [
				{
					"internalType": "address",
					"name": "token",
					"type": "address"
				},
				{
					"internalType": "bytes32",
					"name": "holdId",
					"type": "bytes32"
				},
				{
					"internalType": "address",
					"name": "recipient",
					"type": "address"
				},
				{
					"internalType": "address",
					"name": "notary",
					"type": "address"
				},
				{
					"internalType": "bytes32",
					"name": "partition",
					"type": "bytes32"
				},
				{
					"internalType": "uint256",
					"name": "value",
					"type": "uint256"
				},
				{
					"internalType": "uint256",
					"name": "expiration",
					"type": "uint256"
				},
				{
					"internalType": "bytes32",
					"name": "secretHash",
					"type": "bytes32"
				},
				{
					"internalType": "bytes",
					"name": "certificate",
					"type": "bytes"
				}
			],
			"name": "preHoldForWithExpirationDate",
			"outputs": [
				{
					"internalType": "bool",
					"name": "",
					"type": "bool"
				}
			],
			"stateMutability": "nonpayable",
			"type": "function"
		},
		{
			"inputs": [
				{
					"internalType": "address",
					"name": "token",
					"type": "address"
				},
				{
					"internalType": "enum ERC1400TokensValidator.CertificateValidation",
					"name": "certificateActivated",
					"type": "uint8"
				},
				{
					"internalType": "bool",
					"name": "allowlistActivated",
					"type": "bool"
				},
				{
					"internalType": "bool",
					"name": "blocklistActivated",
					"type": "bool"
				},
				{
					"internalType": "bool",
					"name": "granularityByPartitionActivated",
					"type": "bool"
				},
				{
					"internalType": "bool",
					"name": "holdsActivated",
					"type": "bool"
				},
				{
					"internalType": "address[]",
					"name": "operators",
					"type": "address[]"
				}
			],
			"name": "registerTokenSetup",
			"outputs": [],
			"stateMutability": "nonpayable",
			"type": "function"
		},
		{
			"inputs": [
				{
					"internalType": "address",
					"name": "token",
					"type": "address"
				},
				{
					"internalType": "bytes32",
					"name": "holdId",
					"type": "bytes32"
				}
			],
			"name": "releaseHold",
			"outputs": [
				{
					"internalType": "bool",
					"name": "",
					"type": "bool"
				}
			],
			"stateMutability": "nonpayable",
			"type": "function"
		},
		{
			"inputs": [
				{
					"internalType": "address",
					"name": "token",
					"type": "address"
				},
				{
					"internalType": "address",
					"name": "account",
					"type": "address"
				}
			],
			"name": "removeAllowlistAdmin",
			"outputs": [],
			"stateMutability": "nonpayable",
			"type": "function"
		},
		{
			"inputs": [
				{
					"internalType": "address",
					"name": "token",
					"type": "address"
				},
				{
					"internalType": "address",
					"name": "account",
					"type": "address"
				}
			],
			"name": "removeAllowlisted",
			"outputs": [],
			"stateMutability": "nonpayable",
			"type": "function"
		},
		{
			"inputs": [
				{
					"internalType": "address",
					"name": "token",
					"type": "address"
				},
				{
					"internalType": "address",
					"name": "account",
					"type": "address"
				}
			],
			"name": "removeBlocklistAdmin",
			"outputs": [],
			"stateMutability": "nonpayable",
			"type": "function"
		},
		{
			"inputs": [
				{
					"internalType": "address",
					"name": "token",
					"type": "address"
				},
				{
					"internalType": "address",
					"name": "account",
					"type": "address"
				}
			],
			"name": "removeBlocklisted",
			"outputs": [],
			"stateMutability": "nonpayable",
			"type": "function"
		},
		{
			"inputs": [
				{
					"internalType": "address",
					"name": "token",
					"type": "address"
				},
				{
					"internalType": "address",
					"name": "account",
					"type": "address"
				}
			],
			"name": "removeCertificateSigner",
			"outputs": [],
			"stateMutability": "nonpayable",
			"type": "function"
		},
		{
			"inputs": [
				{
					"internalType": "address",
					"name": "token",
					"type": "address"
				},
				{
					"internalType": "address",
					"name": "account",
					"type": "address"
				}
			],
			"name": "removePauser",
			"outputs": [],
			"stateMutability": "nonpayable",
			"type": "function"
		},
		{
			"inputs": [
				{
					"internalType": "address",
					"name": "token",
					"type": "address"
				},
				{
					"internalType": "bytes32",
					"name": "holdId",
					"type": "bytes32"
				},
				{
					"internalType": "uint256",
					"name": "timeToExpiration",
					"type": "uint256"
				},
				{
					"internalType": "bytes",
					"name": "certificate",
					"type": "bytes"
				}
			],
			"name": "renewHold",
			"outputs": [
				{
					"internalType": "bool",
					"name": "",
					"type": "bool"
				}
			],
			"stateMutability": "nonpayable",
			"type": "function"
		},
		{
			"inputs": [
				{
					"internalType": "address",
					"name": "token",
					"type": "address"
				},
				{
					"internalType": "bytes32",
					"name": "holdId",
					"type": "bytes32"
				},
				{
					"internalType": "uint256",
					"name": "expiration",
					"type": "uint256"
				},
				{
					"internalType": "bytes",
					"name": "certificate",
					"type": "bytes"
				}
			],
			"name": "renewHoldWithExpirationDate",
			"outputs": [
				{
					"internalType": "bool",
					"name": "",
					"type": "bool"
				}
			],
			"stateMutability": "nonpayable",
			"type": "function"
		},
		{
			"inputs": [
				{
					"internalType": "address",
					"name": "token",
					"type": "address"
				}
			],
			"name": "renounceAllowlistAdmin",
			"outputs": [],
			"stateMutability": "nonpayable",
			"type": "function"
		},
		{
			"inputs": [
				{
					"internalType": "address",
					"name": "token",
					"type": "address"
				}
			],
			"name": "renounceBlocklistAdmin",
			"outputs": [],
			"stateMutability": "nonpayable",
			"type": "function"
		},
		{
			"inputs": [
				{
					"internalType": "address",
					"name": "token",
					"type": "address"
				}
			],
			"name": "renounceCertificateSigner",
			"outputs": [],
			"stateMutability": "nonpayable",
			"type": "function"
		},
		{
			"inputs": [
				{
					"internalType": "address",
					"name": "token",
					"type": "address"
				}
			],
			"name": "renouncePauser",
			"outputs": [],
			"stateMutability": "nonpayable",
			"type": "function"
		},
		{
			"inputs": [
				{
					"internalType": "address",
					"name": "token",
					"type": "address"
				},
				{
					"internalType": "bytes32",
					"name": "holdId",
					"type": "bytes32"
				}
			],
			"name": "retrieveHoldData",
			"outputs": [
				{
					"internalType": "bytes32",
					"name": "partition",
					"type": "bytes32"
				},
				{
					"internalType": "address",
					"name": "sender",
					"type": "address"
				},
				{
					"internalType": "address",
					"name": "recipient",
					"type": "address"
				},
				{
					"internalType": "address",
					"name": "notary",
					"type": "address"
				},
				{
					"internalType": "uint256",
					"name": "value",
					"type": "uint256"
				},
				{
					"internalType": "uint256",
					"name": "expiration",
					"type": "uint256"
				},
				{
					"internalType": "bytes32",
					"name": "secretHash",
					"type": "bytes32"
				},
				{
					"internalType": "bytes32",
					"name": "secret",
					"type": "bytes32"
				},
				{
					"internalType": "enum ERC1400TokensValidator.HoldStatusCode",
					"name": "status",
					"type": "uint8"
				}
			],
			"stateMutability": "view",
			"type": "function"
		},
		{
			"inputs": [
				{
					"internalType": "address",
					"name": "token",
					"type": "address"
				}
			],
			"name": "retrieveTokenSetup",
			"outputs": [
				{
					"internalType": "enum ERC1400TokensValidator.CertificateValidation",
					"name": "",
					"type": "uint8"
				},
				{
					"internalType": "bool",
					"name": "",
					"type": "bool"
				},
				{
					"internalType": "bool",
					"name": "",
					"type": "bool"
				},
				{
					"internalType": "bool",
					"name": "",
					"type": "bool"
				},
				{
					"internalType": "bool",
					"name": "",
					"type": "bool"
				},
				{
					"internalType": "address[]",
					"name": "",
					"type": "address[]"
				}
			],
			"stateMutability": "view",
			"type": "function"
		},
		{
			"inputs": [
				{
					"internalType": "address",
					"name": "token",
					"type": "address"
				},
				{
					"internalType": "bytes32",
					"name": "partition",
					"type": "bytes32"
				},
				{
					"internalType": "uint256",
					"name": "granularity",
					"type": "uint256"
				}
			],
			"name": "setGranularityByPartition",
			"outputs": [],
			"stateMutability": "nonpayable",
			"type": "function"
		},
		{
			"inputs": [
				{
					"internalType": "address",
					"name": "token",
					"type": "address"
				},
				{
					"internalType": "address",
					"name": "account",
					"type": "address"
				}
			],
			"name": "spendableBalanceOf",
			"outputs": [
				{
					"internalType": "uint256",
					"name": "",
					"type": "uint256"
				}
			],
			"stateMutability": "view",
			"type": "function"
		},
		{
			"inputs": [
				{
					"internalType": "address",
					"name": "token",
					"type": "address"
				},
				{
					"internalType": "bytes32",
					"name": "partition",
					"type": "bytes32"
				},
				{
					"internalType": "address",
					"name": "account",
					"type": "address"
				}
			],
			"name": "spendableBalanceOfByPartition",
			"outputs": [
				{
					"internalType": "uint256",
					"name": "",
					"type": "uint256"
				}
			],
			"stateMutability": "view",
			"type": "function"
		},
		{
			"inputs": [
				{
					"internalType": "bytes",
					"name": "payload",
					"type": "bytes"
				},
				{
					"internalType": "bytes32",
					"name": "partition",
					"type": "bytes32"
				},
				{
					"internalType": "address",
					"name": "operator",
					"type": "address"
				},
				{
					"internalType": "address",
					"name": "from",
					"type": "address"
				},
				{
					"internalType": "address",
					"name": "to",
					"type": "address"
				},
				{
					"internalType": "uint256",
					"name": "value",
					"type": "uint256"
				},
				{
					"internalType": "bytes",
					"name": "data",
					"type": "bytes"
				},
				{
					"internalType": "bytes",
					"name": "operatorData",
					"type": "bytes"
				}
			],
			"name": "tokensToValidate",
			"outputs": [],
			"stateMutability": "nonpayable",
			"type": "function"
		},
		{
			"inputs": [
				{
					"internalType": "address",
					"name": "token",
					"type": "address"
				}
			],
			"name": "totalSupplyOnHold",
			"outputs": [
				{
					"internalType": "uint256",
					"name": "",
					"type": "uint256"
				}
			],
			"stateMutability": "view",
			"type": "function"
		},
		{
			"inputs": [
				{
					"internalType": "address",
					"name": "token",
					"type": "address"
				},
				{
					"internalType": "bytes32",
					"name": "partition",
					"type": "bytes32"
				}
			],
			"name": "totalSupplyOnHoldByPartition",
			"outputs": [
				{
					"internalType": "uint256",
					"name": "",
					"type": "uint256"
				}
			],
			"stateMutability": "view",
			"type": "function"
		},
		{
			"inputs": [
				{
					"internalType": "address",
					"name": "token",
					"type": "address"
				}
			],
			"name": "unpause",
			"outputs": [],
			"stateMutability": "nonpayable",
			"type": "function"
		},
		{
			"inputs": [
				{
					"internalType": "address",
					"name": "token",
					"type": "address"
				},
				{
					"internalType": "address",
					"name": "sender",
					"type": "address"
				}
			],
			"name": "usedCertificateNonce",
			"outputs": [
				{
					"internalType": "uint256",
					"name": "",
					"type": "uint256"
				}
			],
			"stateMutability": "view",
			"type": "function"
		},
		{
			"inputs": [
				{
					"internalType": "address",
					"name": "token",
					"type": "address"
				},
				{
					"internalType": "bytes32",
					"name": "salt",
					"type": "bytes32"
				}
			],
			"name": "usedCertificateSalt",
			"outputs": [
				{
					"internalType": "bool",
					"name": "",
					"type": "bool"
				}
			],
			"stateMutability": "view",
			"type": "function"
		}
	]
}