{
	"data": {
		"bytecode": {
			"linkReferences": {},
			"object": "60806040523480156200001157600080fd5b5060405162005c1838038062005c18833981016040819052620000349162000918565b85516200004990600790602089019062000664565b5084516200005f90600890602088019062000664565b506000600a5560018410156200007457600080fd5b600984905562000084336200013f565b6200008f3362000191565b62000099620001e3565b50620000a58362000209565b8151620000ba906017906020850190620006f3565b50620000c68162000306565b600b805463ffffff001916630101010017905560408051808201909152600c81526b22a921989a18182a37b5b2b760a11b6020820152620001079062000356565b60408051808201909152600a81526922a92199182a37b5b2b760b11b6020820152620001339062000356565b50505050505062000b3e565b600280546001600160a01b038381166001600160a01b0319831681179093556040519116919082907f8be0079c531659141344cd1fd0a4f28419497f9722a3daafe3b4186f6b6457e090600090a35050565b620001ac816003620003a560201b62002c981790919060201c565b6040516001600160a01b038216907f6ae172837ea30b801fbfcdd4108aa1d5bf8ff775444fd70256b44e6bf3dfc3f690600090a250565b60004681620001f162000429565b60009283526004602052604090922082905550919050565b60005b6019548110156200027c576000601a60006019848154811062000233576200023362000b12565b6000918252602080832091909101546001600160a01b031683528201929092526040019020805460ff191691151591909117905580620002738162000ae8565b9150506200020c565b5060005b8151811015620002ec576001601a6000848481518110620002a557620002a562000b12565b6020908102919091018101516001600160a01b03168252810191909152604001600020805460ff191691151591909117905580620002e38162000ae8565b91505062000280565b5080516200030290601990602084019062000730565b5050565b60005b8151811015620003025762000341308383815181106200032d576200032d62000b12565b6020026020010151620004d060201b60201c565b806200034d8162000ae8565b91505062000309565b6001806000836040516020016200036e919062000a01565b60408051808303601f19018152918152815160209283012083529082019290925201600020805460ff191691151591909117905550565b620003b1828262000545565b15620004045760405162461bcd60e51b815260206004820152601f60248201527f526f6c65733a206163636f756e7420616c72656164792068617320726f6c650060448201526064015b60405180910390fd5b6001600160a01b0316600090815260209190915260409020805460ff19166001179055565b600046817f8b73c3c69bb8fe3d512ecc4cf759cc79239f7b179b0ffacaa9a75d522b39400f62000458620005ca565b80516020909101206200047f6040805180820190915260018152603160f81b602082015290565b80516020918201206040805192830194909452928101919091526060810191909152608081018390523060a082015260c00160408051601f1981840301815291905280516020909101209392505050565b6001600160a01b03821660009081526005602090815260409091206200050191839062002c98620003a5821b17901c565b806001600160a01b0316826001600160a01b03167f9a01aee9f656aba8760d771cf21d803168ecc664c252c9374f4a3252481fbf3560405160405180910390a35050565b60006001600160a01b038216620005aa5760405162461bcd60e51b815260206004820152602260248201527f526f6c65733a206163636f756e7420697320746865207a65726f206164647265604482015261737360f01b6064820152608401620003fb565b506001600160a01b03166000908152602091909152604090205460ff1690565b606060078054620005db9062000aab565b80601f0160208091040260200160405190810160405280929190818152602001828054620006099062000aab565b80156200065a5780601f106200062e576101008083540402835291602001916200065a565b820191906000526020600020905b8154815290600101906020018083116200063c57829003601f168201915b5050505050905090565b828054620006729062000aab565b90600052602060002090601f016020900481019282620006965760008555620006e1565b82601f10620006b157805160ff1916838001178555620006e1565b82800160010185558215620006e1579182015b82811115620006e1578251825591602001919060010190620006c4565b50620006ef92915062000788565b5090565b828054828255906000526020600020908101928215620006e15791602002820182811115620006e1578251825591602001919060010190620006c4565b828054828255906000526020600020908101928215620006e1579160200282015b82811115620006e157825182546001600160a01b0319166001600160a01b0390911617825560209092019160019091019062000751565b5b80821115620006ef576000815560010162000789565b600082601f830112620007b157600080fd5b81516020620007ca620007c48362000a52565b62000a1f565b80838252828201915082860187848660051b8901011115620007eb57600080fd5b6000805b86811015620008225782516001600160a01b03811681146200080f578283fd5b85529385019391850191600101620007ef565b509198975050505050505050565b600082601f8301126200084257600080fd5b8151602062000855620007c48362000a52565b80838252828201915082860187848660051b89010111156200087657600080fd5b60005b85811015620008975781518452928401929084019060010162000879565b5090979650505050505050565b600082601f830112620008b657600080fd5b81516001600160401b03811115620008d257620008d262000b28565b620008e7601f8201601f191660200162000a1f565b818152846020838601011115620008fd57600080fd5b6200091082602083016020870162000a78565b949350505050565b60008060008060008060c087890312156200093257600080fd5b86516001600160401b03808211156200094a57600080fd5b620009588a838b01620008a4565b975060208901519150808211156200096f57600080fd5b6200097d8a838b01620008a4565b96506040890151955060608901519150808211156200099b57600080fd5b620009a98a838b016200079f565b94506080890151915080821115620009c057600080fd5b620009ce8a838b0162000830565b935060a0890151915080821115620009e557600080fd5b50620009f489828a016200079f565b9150509295509295509295565b6000825162000a1581846020870162000a78565b9190910192915050565b604051601f8201601f191681016001600160401b038111828210171562000a4a5762000a4a62000b28565b604052919050565b60006001600160401b0382111562000a6e5762000a6e62000b28565b5060051b60200190565b60005b8381101562000a9557818101518382015260200162000a7b565b8381111562000aa5576000848401525b50505050565b600181811c9082168062000ac057607f821691505b6020821081141562000ae257634e487b7160e01b600052602260045260246000fd5b50919050565b600060001982141562000b0b57634e487b7160e01b600052601160045260246000fd5b5060010190565b634e487b7160e01b600052603260045260246000fd5b634e487b7160e01b600052604160045260246000fd5b6150ca8062000b4e6000396000f3fe608060405234801561001057600080fd5b50600436106103d05760003560e01c8063895d7386116101ff578063b6363cf21161011a578063ea74838a116100ad578063f3d490db1161007c578063f3d490db146108b6578063f698da25146108c9578063fad8b32a146108d1578063fe9a51fc146108e457600080fd5b8063ea74838a1461086a578063ec9a6e871461087d578063ee532f3114610890578063f2fde38b146108a357600080fd5b8063c69664bb116100e9578063c69664bb14610803578063ca281fd914610816578063dd62ed3e1461081e578063e81ea5411461085757600080fd5b8063b6363cf2146107c2578063bb3acde9146107d5578063bcfdc0cf146107e8578063c3501848146107f057600080fd5b80639e59ceba11610192578063a8082cb011610161578063a8082cb014610772578063a9059cbb1461077a578063aa271e1a1461078d578063b10d6b41146107a057600080fd5b80639e59ceba146107245780639fa5f50b14610737578063a26734dc1461073f578063a6f4f1051461075f57600080fd5b8063959b8c3f116101ce578063959b8c3f146106ee57806395d89b4114610701578063983b2d5614610709578063986502751461071c57600080fd5b8063895d7386146103ea5780638c0dee9c146106ad5780638da5cb5b146106c0578063933964c7146106db57600080fd5b8063313ce567116102ef5780636b42376911610282578063740ab8f411610251578063740ab8f41461064c5780637cc0c3a71461065f578063861ed3ea1461067457806388f658101461068757600080fd5b80636b423769146105f55780636d77cad61461060857806370a082311461061b578063715018a61461064457600080fd5b806351ef1d02116102be57806351ef1d02146105bd578063556f0dc7146105c557806367c84919146105cd57806369598efe146105e057600080fd5b8063313ce567146105785780633a6b8ac7146105875780633bddaf8f1461059a5780634c783bf5146105ad57600080fd5b806318160ddd116103675780632535f762116103365780632535f7621461050e5780632f1cae85146105215780633092afd51461053257806330e828031461054557600080fd5b806318160ddd146104c35780631d43e1c0146104cb57806323b872dd146104e8578063249cb3fa146104fb57600080fd5b806314d1e62f116103a357806314d1e62f1461043e578063168ecec51461045157806316e1aed41461046457806317ec83ca1461047757600080fd5b8063010648ca146103d557806306fdde03146103ea578063095ea7b314610408578063103ef9e11461042b575b600080fd5b6103e86103e33660046149ff565b610909565b005b6103f2610a7a565b6040516103ff9190614d41565b60405180910390f35b61041b610416366004614770565b610b0c565b60405190151581526020016103ff565b6103e8610439366004614853565b610bae565b61041b61044c366004614962565b610c12565b6103e861045f366004614853565b610cbf565b6103e86104723660046149b3565b610d20565b6104b5610485366004614878565b6000928352601b602090815260408085206001600160a01b03948516865282528085209290931684525290205490565b6040519081526020016103ff565b600a546104b5565b6040805180820190915260018152603160f81b60208201526103f2565b61041b6104f6366004614600565b610d8c565b6104b5610509366004614853565b610f3c565b6103e861051c36600461479c565b610f9b565b600b5462010000900460ff1661041b565b6103e86105403660046144d7565b611072565b6104b5610553366004614853565b6001600160a01b03166000908152601660209081526040808320938352929052205490565b604051601281526020016103ff565b6103e861059536600461454a565b6110a5565b6103e86105a83660046144d7565b611266565b600b54610100900460ff1661041b565b61041b611270565b6009546104b5565b6103e86105db366004614989565b6112fd565b6105e8611424565b6040516103ff9190614beb565b61041b6106033660046144d7565b61147b565b61041b610616366004614878565b611532565b6104b56106293660046144d7565b6001600160a01b03166000908152600c602052604090205490565b6103e8611547565b6105e861065a3660046144d7565b61157d565b6106676115e9565b6040516103ff9190614b9e565b61066761068236600461483a565b61164a565b61069a610695366004614511565b6116b5565b6040516103ff9796959493929190614c23565b6104b56106bb3660046148ba565b61189d565b6002546040516001600160a01b0390911681526020016103ff565b6103e86106e93660046146b4565b611ae1565b6103e86106fc3660046144d7565b611b19565b6103f2611c07565b6103e86107173660046144d7565b611c16565b6103e8611c46565b61041b610732366004614511565b611c4f565b6105e8611c78565b6104b561074d36600461483a565b60009081526013602052604090205490565b6103e861076d3660046146e9565b611cce565b6104b5611d3d565b61041b610788366004614770565b611de0565b61041b61079b3660046144d7565b611e97565b6107b36107ae36600461483a565b611ea4565b6040516103ff93929190614d76565b61041b6107d0366004614511565b611f82565b6103e86107e336600461479c565b611f8e565b6105e86120f1565b6103e86107fe36600461483a565b612147565b6103e8610811366004614511565b61241c565b6103e861243a565b6104b561082c366004614511565b6001600160a01b039182166000908152600d6020908152604080832093909416825291909152205490565b6103e8610865366004614511565b612471565b6103e86108783660046147f8565b61248f565b6103e861088b3660046147f8565b6124f5565b6103e861089e366004614641565b61252b565b6103e86108b13660046144d7565b6126f4565b6104b56108c4366004614989565b61278c565b6104b5612878565b6103e86108df3660046144d7565b612887565b6108f76108f2366004614511565b61299e565b6040516103ff96959493929190614afa565b336000908152601a602052604090205460ff1661095c5760405162461bcd60e51b815260206004820152600c60248201526b155b985d5d1a1bdc9a5e995960a21b60448201526064015b60405180910390fd5b604051806060016040528084848080601f0160208091040260200160405190810160405280939291908181526020018383808284376000920182905250938552505050602080830185905242604093840152878252600e81529190208251805191926109cd92849290910190614244565b5060208281015160018301556040928301516002909201919091556000838152600f9091522054610a3857601080546001810182557f1b6847dc741a1b0cd08d278845f9d819d87b734759afb55fe2de5cb82a9ae67201829055546000828152600f60205260409020555b837fb4c22d60cd550a815744f04e3ff5278bf19684565ee00e2b084041b6024bd6f6848484604051610a6c93929190614d1d565b60405180910390a250505050565b606060078054610a8990614fd1565b80601f0160208091040260200160405190810160405280929190818152602001828054610ab590614fd1565b8015610b025780601f10610ad757610100808354040283529160200191610b02565b820191906000526020600020905b815481529060010190602001808311610ae557829003601f168201915b5050505050905090565b60006001600160a01b038316610b495760405162461bcd60e51b81526020600482015260026024820152611a9b60f11b6044820152606401610953565b336000818152600d602090815260408083206001600160a01b03881680855290835292819020869055518581529192917f8c5be1e5ebec7d5bd14f71427d1e84f3dd0314c0f7b2291e5b200ac8c7c3b925910160405180910390a35060015b92915050565b336000818152601c6020908152604080832086845282528083206001600160a01b0386168085529252808320805460ff1916600117905551909185917f3646a897c70797ecc134b0adc32f471b07bf1d6f451133b0384badab531e3fd69190a45050565b60006001600160a01b038316610c4f5760405162461bcd60e51b81526020600482015260026024820152611a9b60f11b6044820152606401610953565b6000848152601b60209081526040808320338085529083528184206001600160a01b038816808652908452938290208690559051858152909187917ff061499aa77c2f6f5e25e34955a06623705344a88256cc861a121ec0bce5cfec910160405180910390a45060019392505050565b336000818152601c6020908152604080832086845282528083206001600160a01b0386168085529252808320805460ff1916905551909185917f3b287c4f1bab4df949b33bceacef984f544dc5d5479930d00e4ee8c9d8dd96f29190a45050565b6002546001600160a01b03163314610d4a5760405162461bcd60e51b815260040161095390614e91565b610d8783838380806020026020016040519081016040528093929190818152602001838360200280828437600092019190915250612d1492505050565b505050565b3060008181526006602081815260408084206001600160a01b0388168552909152822001549091908490610dd25760405162461bcd60e51b815260040161095390614e0d565b6001600160a01b03808316600090815260066020818152604080842094861684529390529190200154421115610e1a5760405162461bcd60e51b815260040161095390614db7565b610e243387612e37565b80610e5257506001600160a01b0386166000908152600d602090815260408083203384529091529020548411155b610e6e5760405162461bcd60e51b815260040161095390614ec6565b6001600160a01b0386166000908152600d602090815260408083203384529091529020548411610eef576001600160a01b0386166000908152600d60209081526040808320338452909152902054610ec69085612eb6565b6001600160a01b0387166000908152600d60209081526040808320338452909152902055610f14565b6001600160a01b0386166000908152600d602090815260408083203384529091528120555b610f303387878760405180602001604052806000815250612ec2565b50600195945050505050565b60008281526001602052604081205460ff1615610f935760405173455243313832305f4143434550545f4d4147494360601b6020820152603401604051602081830303815290604052805190602001209050610ba8565b506000610ba8565b3060008181526006602081815260408084206001600160a01b038a16855290915290912001548590610fdf5760405162461bcd60e51b815260040161095390614e0d565b6001600160a01b038083166000908152600660208181526040808420948616845293905291902001544211156110275760405162461bcd60e51b815260040161095390614db7565b61106a3333888888888080601f016020809104026020016040519081016040528093929190818152602001838380828437600092019190915250612ec292505050565b505050505050565b61107b33611e97565b8061109057506002546001600160a01b031633145b61109957600080fd5b6110a281613007565b50565b856110b08133611c4f565b6110b957600080fd5b600085336040516020016110ce929190614ac3565b604051602081830303815290604052805190602001209050600042905060006040518060e00160405280848152602001336001600160a01b0316815260200189815260200188815260200186815260200183815260200187815250905080600660008c6001600160a01b03166001600160a01b0316815260200190815260200160002060008b6001600160a01b03166001600160a01b031681526020019081526020016000206000820151816000015560208201518160010160006101000a8154816001600160a01b0302191690836001600160a01b0316021790555060408201518160020190805190602001906111c7929190614244565b50606082015180516111e3916003840191602090910190614244565b50608082015180516111ff916004840191602090910190614244565b5060a0820151816005015560c08201518160060155905050886001600160a01b03167f1fad50941735b669815e8b75438e2ec5f3914f85866cf259ea96b8971e283f558487604051611252929190614c8a565b60405180910390a250505050505050505050565b6110a28133613049565b6002546000906001600160a01b0316331461129d5760405162461bcd60e51b815260040161095390614e91565b6112cb6040518060400160405280600c81526020016b22a921989a18182a37b5b2b760a11b815250306130af565b6112f76040518060400160405280600a81526020016922a92199182a37b5b2b760b11b815250306130af565b50600190565b61130633611e97565b8061131b57506002546001600160a01b031633145b61132457600080fd5b600b5462010000900460ff1661134c5760405162461bcd60e51b815260040161095390614e75565b3060008181526006602081815260408084206001600160a01b038a168552909152909120015485906113905760405162461bcd60e51b815260040161095390614e0d565b6001600160a01b038083166000908152600660208181526040808420948616845293905291902001544211156113d85760405162461bcd60e51b815260040161095390614db7565b61141b8733888888888080601f01602080910402602001604051908101604052809392919081815260200183838082843760009201919091525061314192505050565b50505050505050565b60606011805480602002602001604051908101604052809291908181526020018280548015610b0257602002820191906000526020600020905b81548152602001906001019080831161145e575050505050905090565b6002546000906001600160a01b031633146114a85760405162461bcd60e51b815260040161095390614e91565b600b546301000000900460ff166115015760405162461bcd60e51b815260206004820152601d60248201527f52656769737465722068617320616c7265616479206265656e207365740000006044820152606401610953565b600080546001600160a01b0319166001600160a01b039390931692909217909155600b805463ff0000001916905590565b600061153f8484846131eb565b949350505050565b6002546001600160a01b031633146115715760405162461bcd60e51b815260040161095390614e91565b61157b6000613274565b565b6001600160a01b0381166000908152601460209081526040918290208054835181840281018401909452808452606093928301828280156115dd57602002820191906000526020600020905b8154815260200190600101908083116115c9575b50505050509050919050565b60606019805480602002602001604051908101604052809291908181526020018280548015610b0257602002820191906000526020600020905b81546001600160a01b03168152600190910190602001808311611623575050505050905090565b6000818152601d60209081526040918290208054835181840281018401909452808452606093928301828280156115dd57602002820191906000526020600020905b81546001600160a01b0316815260019091019060200180831161168c5750505050509050919050565b600660209081526000928352604080842090915290825290208054600182015460028301805492936001600160a01b03909216926116f290614fd1565b80601f016020809104026020016040519081016040528092919081815260200182805461171e90614fd1565b801561176b5780601f106117405761010080835404028352916020019161176b565b820191906000526020600020905b81548152906001019060200180831161174e57829003601f168201915b50505050509080600301805461178090614fd1565b80601f01602080910402602001604051908101604052809291908181526020018280546117ac90614fd1565b80156117f95780601f106117ce576101008083540402835291602001916117f9565b820191906000526020600020905b8154815290600101906020018083116117dc57829003601f168201915b50505050509080600401805461180e90614fd1565b80601f016020809104026020016040519081016040528092919081815260200182805461183a90614fd1565b80156118875780601f1061185c57610100808354040283529160200191611887565b820191906000526020600020905b81548152906001019060200180831161186a57829003601f168201915b5050505050908060050154908060060154905087565b3060008181526006602081815260408084206001600160a01b038c1685529091528220015490919088906118e35760405162461bcd60e51b815260040161095390614e0d565b6001600160a01b0380831660009081526006602081815260408084209486168452939052919020015442111561192b5760405162461bcd60e51b815260040161095390614db7565b6119368b338c6131eb565b8061196b575060008b8152601b602090815260408083206001600160a01b038e16845282528083203384529091529020548811155b6119875760405162461bcd60e51b815260040161095390614ec6565b60008b8152601b602090815260408083206001600160a01b038e16845282528083203384529091529020548811611a1d5760008b8152601b602090815260408083206001600160a01b038e16845282528083203384529091529020546119ed9089612eb6565b60008c8152601b602090815260408083206001600160a01b038f1684528252808320338452909152902055611a49565b60008b8152601b602090815260408083206001600160a01b038e16845282528083203384529091528120555b611ad28b338c8c8c8c8c8080601f016020809104026020016040519081016040528093929190818152602001838380828437600081840152601f19601f820116905080830192505050505050508b8b8080601f0160208091040260200160405190810160405280939291908181526020018383808284376000920191909152506132c692505050565b9b9a5050505050505050505050565b6002546001600160a01b03163314611b0b5760405162461bcd60e51b815260040161095390614e91565b611b15828261341d565b5050565b6001600160a01b038116331415611b2f57600080fd5b6001600160a01b03811660009081526018602090815260408083203384528252808320805460ff19166001908117909155601c909252822060178054929391928290611b7d57611b7d615053565b600091825260208083209190910154835282810193909352604091820181206001600160a01b0386168083529352908120805460ff19169315159390931790925560178054339390611bd157611bd1615053565b600091825260208220015460405190917f3646a897c70797ecc134b0adc32f471b07bf1d6f451133b0384badab531e3fd691a450565b606060088054610a8990614fd1565b611c1f33611e97565b80611c3457506002546001600160a01b031633145b611c3d57600080fd5b6110a28161348e565b61157b33613007565b6001600160a01b0382166000908152600560205260408120611c7190836134d0565b9392505050565b60606010805480602002602001604051908101604052809291908181526020018280548015610b02576020028201919060005260206000209081548152602001906001019080831161145e575050505050905090565b6002546001600160a01b03163314611cf85760405162461bcd60e51b815260040161095390614e91565b61106a8686868080601f016020809104026020016040519081016040528093929190818152602001838380828437600092019190915250889250879150869050613553565b600046817f8b73c3c69bb8fe3d512ecc4cf759cc79239f7b179b0ffacaa9a75d522b39400f611d6a610a7a565b80519060200120611d8f6040805180820190915260018152603160f81b602082015290565b80516020918201206040805192830194909452928101919091526060810191909152608081018390523060a082015260c00160408051601f1981840301815291905280516020909101209392505050565b3060008181526006602081815260408084206001600160a01b0388168552909152822001549091908490611e265760405162461bcd60e51b815260040161095390614e0d565b6001600160a01b03808316600090815260066020818152604080842094861684529390529190200154421115611e6e5760405162461bcd60e51b815260040161095390614db7565b611e8a3333878760405180602001604052806000815250612ec2565b600192505b505092915050565b6000610ba86003836134d0565b6000818152600e602052604081208054606092918291611ec390614fd1565b15159050611ed057600080fd5b6000848152600e602052604090206001810154600282015482548390611ef590614fd1565b80601f0160208091040260200160405190810160405280929190818152602001828054611f2190614fd1565b8015611f6e5780601f10611f4357610100808354040283529160200191611f6e565b820191906000526020600020905b815481529060010190602001808311611f5157829003601f168201915b505050505092509250925092509193909250565b6000611c718383612e37565b611f9733611e97565b80611fac57506002546001600160a01b031633145b611fb557600080fd5b3060008181526006602081815260408084206001600160a01b038a16855290915290912001548590611ff95760405162461bcd60e51b815260040161095390614e0d565b6001600160a01b038083166000908152600660208181526040808420948616845293905291902001544211156120415760405162461bcd60e51b815260040161095390614db7565b600b5462010000900460ff166120695760405162461bcd60e51b815260040161095390614e75565b6017546120885760405162461bcd60e51b815260040161095390614e75565b6120e9601760008154811061209f5761209f615053565b906000526020600020015433888888888080601f01602080910402602001604051908101604052809392919081815260200183838082843760009201919091525061314192505050565b61106a61360f565b60606017805480602002602001604051908101604052809291908181526020018280548015610b02576020028201919060005260206000209081548152602001906001019080831161145e575050505050905090565b336000908152601a602052604090205460ff166121955760405162461bcd60e51b815260206004820152600c60248201526b155b985d5d1a1bdc9a5e995960a21b6044820152606401610953565b6000818152600e6020526040902080546121ae90614fd1565b151590506121f65760405162461bcd60e51b8152602060048201526015602482015274111bd8dd5b595b9d08191bd95cdb9d08195e1a5cdd605a1b6044820152606401610953565b6000818152600e602052604080822081516060810190925280548290829061221d90614fd1565b80601f016020809104026020016040519081016040528092919081815260200182805461224990614fd1565b80156122965780601f1061226b57610100808354040283529160200191612296565b820191906000526020600020905b81548152906001019060200180831161227957829003601f168201915b505050505081526020016001820154815260200160028201548152505090506000600f600083602001518152602001908152602001600020549050600081116123115760405162461bcd60e51b815260206004820152600d60248201526c092dcecc2d8d2c840d2dcc8caf609b1b6044820152606401610953565b601080546000919061232590600190614f8a565b8154811061233557612335615053565b906000526020600020015490508060106001846123529190614f8a565b8154811061236257612362615053565b6000918252602080832090910192909255828152600f9091526040902082905560108054806123935761239361503d565b600082815260208082208301600019908101839055909201909255848101518252600f81526040808320839055868352600e9091528120906123d582826142c8565b506000600182018190556002909101558251602084015160405186927f3d9bba27d3e360d8c80645beed7e991454a8271bf6f269a24f7782be0f0d065492610a6c92614d54565b816124278133611c4f565b61243057600080fd5b610d878383613647565b6002546001600160a01b031633146124645760405162461bcd60e51b815260040161095390614e91565b600b805461ff0019169055565b8161247c8133611c4f565b61248557600080fd5b610d878383613049565b6002546001600160a01b031633146124b95760405162461bcd60e51b815260040161095390614e91565b611b158282808060200260200160405190810160405280939291908181526020018383602002808284376000920191909152506136ad92505050565b6002546001600160a01b0316331461251f5760405162461bcd60e51b815260040161095390614e91565b610d8760178383614302565b3060008181526006602081815260408084206001600160a01b038a1685529091529091200154859061256f5760405162461bcd60e51b815260040161095390614e0d565b6001600160a01b038083166000908152600660208181526040808420948616845293905291902001544211156125b75760405162461bcd60e51b815260040161095390614db7565b6125c13388612e37565b806125ef57506001600160a01b0387166000908152600d602090815260408083203384529091529020548511155b61260b5760405162461bcd60e51b815260040161095390614ec6565b6001600160a01b0387166000908152600d60209081526040808320338452909152902054851161268c576001600160a01b0387166000908152600d602090815260408083203384529091529020546126639086612eb6565b6001600160a01b0388166000908152600d602090815260408083203384529091529020556126b1565b6001600160a01b0387166000908152600d602090815260408083203384529091528120555b61141b3388888888888080601f016020809104026020016040519081016040528093929190818152602001838380828437600092019190915250612ec292505050565b6002546001600160a01b0316331461271e5760405162461bcd60e51b815260040161095390614e91565b6001600160a01b0381166127835760405162461bcd60e51b815260206004820152602660248201527f4f776e61626c653a206e6577206f776e657220697320746865207a65726f206160448201526564647265737360d01b6064820152608401610953565b6110a281613274565b3060008181526006602081815260408084206001600160a01b038a1685529091528220015490919086906127d25760405162461bcd60e51b815260040161095390614e0d565b6001600160a01b0380831660009081526006602081815260408084209486168452939052919020015442111561281a5760405162461bcd60e51b815260040161095390614db7565b61286c8833338a8a8a8a8080601f0160208091040260200160405190810160405280939291908181526020018383808284376000920182905250604080516020810190915290815292506132c6915050565b98975050505050505050565b6000612882613796565b905090565b6001600160a01b03811633141561289d57600080fd5b6001600160a01b0381166000818152601860209081526040808320338085529252808320805460ff19169055519092917f50546e66e5f44d728365dc3908c63bc5cfeeab470722c1677e3073a6ac294aa191a3336000908152601c6020526040812060178054839190829061291457612914615053565b600091825260208083209190910154835282810193909352604091820181206001600160a01b0386168083529352908120805460ff1916931515939093179092556017805433939061296857612968615053565b600091825260208220015460405190917f3b287c4f1bab4df949b33bceacef984f544dc5d5479930d00e4ee8c9d8dd96f291a450565b600060608060606000806129b28833611c4f565b806129c55750336001600160a01b038816145b6129ce57600080fd5b6001600160a01b038089166000908152600660208181526040808420948c1684529390529190200154612a525760405162461bcd60e51b815260206004820152602660248201527f546865206163636f756e7420686173206e6f74206265656e20617070726f766560448201526532103cb2ba1760d11b6064820152608401610953565b6001600160a01b0380891660009081526006602090815260408083203384528252808320815160e0810183528154815260018201549095169285019290925260028201805493949391840191612aa790614fd1565b80601f0160208091040260200160405190810160405280929190818152602001828054612ad390614fd1565b8015612b205780601f10612af557610100808354040283529160200191612b20565b820191906000526020600020905b815481529060010190602001808311612b0357829003601f168201915b50505050508152602001600382018054612b3990614fd1565b80601f0160208091040260200160405190810160405280929190818152602001828054612b6590614fd1565b8015612bb25780601f10612b8757610100808354040283529160200191612bb2565b820191906000526020600020905b815481529060010190602001808311612b9557829003601f168201915b50505050508152602001600482018054612bcb90614fd1565b80601f0160208091040260200160405190810160405280929190818152602001828054612bf790614fd1565b8015612c445780601f10612c1957610100808354040283529160200191612c44565b820191906000526020600020905b815481529060010190602001808311612c2757829003601f168201915b5050505050815260200160058201548152602001600682015481525050905080602001518160400151826060015183608001518460a001518560c00151965096509650965096509650509295509295509295565b612ca282826134d0565b15612cef5760405162461bcd60e51b815260206004820152601f60248201527f526f6c65733a206163636f756e7420616c72656164792068617320726f6c65006044820152606401610953565b6001600160a01b0316600090815260209190915260409020805460ff19166001179055565b60005b6000838152601d6020526040902054811015612da0576000838152601e60209081526040808320601d9092528220805483919085908110612d5a57612d5a615053565b6000918252602080832091909101546001600160a01b031683528201929092526040019020805460ff191691151591909117905580612d988161500c565b915050612d17565b5060005b8151811015612e17576000838152601e60205260408120835160019290859085908110612dd357612dd3615053565b6020908102919091018101516001600160a01b03168252810191909152604001600020805460ff191691151591909117905580612e0f8161500c565b915050612da4565b506000828152601d602090815260409091208251610d879284019061433d565b6000816001600160a01b0316836001600160a01b03161480612e7e57506001600160a01b0380841660009081526018602090815260408083209386168352929052205460ff165b80611c715750600b54610100900460ff168015611c71575050506001600160a01b03166000908152601a602052604090205460ff1690565b6000611c718284614f8a565b601754612ee15760405162461bcd60e51b815260040161095390614e75565b816000805b601754811015612fe8576001600160a01b03871660009081526016602052604081206017805491929184908110612f1f57612f1f615053565b90600052602060002001548152602001908152602001600020549150818311612f8757612f7d60178281548110612f5857612f58615053565b90600052602060002001548989898789604051806020016040528060008152506132c6565b5060009250612fe8565b8115612fd657612fc860178281548110612fa357612fa3615053565b90600052602060002001548989898689604051806020016040528060008152506132c6565b50612fd38284614f8a565b92505b80612fe08161500c565b915050612ee6565b50811561141b5760405162461bcd60e51b815260040161095390614ee2565b6130126003826137bf565b6040516001600160a01b038216907fe94479a9f7e1952cc78f2d6baab678adc1b772d936c6583def489e524cb6669290600090a250565b6001600160a01b038216600090815260056020526040902061306b90826137bf565b806001600160a01b0316826001600160a01b03167f795a3a12ab7aa35ee8d4681ead2986eae8de69f5491d9dccfeca0442f644db8160405160405180910390a35050565b6000826040516020016130c29190614aa7565b60408051808303601f190181529082905280516020909101206000546329965a1d60e01b8352306004840152602483018290526001600160a01b03858116604485015291935016906329965a1d90606401600060405180830381600087803b15801561312d57600080fd5b505af115801561141b573d6000803e3d6000fd5b6131608585600086868660405180602001604052806000815250613841565b61316c84848484613906565b613177838684613a74565b6131968585600086868660405180602001604052806000815250613bb2565b826001600160a01b0316846001600160a01b0316867ff0ded82afbb1bb3ff3fc48cb2a26584aa84e4af0bf309c804ecdb94d0f6a98bb85856040516131dc929190614efe565b60405180910390a45050505050565b60006131f78383612e37565b8061322f57506001600160a01b038083166000908152601c6020908152604080832088845282528083209387168352929052205460ff165b8061153f5750600b54610100900460ff16801561153f575050506000918252601e602090815260408084206001600160a01b0393909316845291905290205460ff1690565b600280546001600160a01b038381166001600160a01b0319831681179093556040519116919082907f8be0079c531659141344cd1fd0a4f28419497f9722a3daafe3b4186f6b6457e090600090a35050565b6001600160a01b03851660009081526016602090815260408083208a84529091528120548411156133095760405162461bcd60e51b815260040161095390614ee2565b815188901580159061331d57506040845110155b1561332f5761332c8985613c3a565b90505b61333e89898989898989613c63565b61334d89898989898989613841565b613358878a87613ce8565b613363878787613fa7565b61336e868287613a74565b61337d81898989898989613bb2565b856001600160a01b0316876001600160a01b03168a7fff4e9a26af4eb73b8bacfaa4abd4fea03d9448e7b912dc5ff4019048875aa2d48b8989896040516133c79493929190614b5a565b60405180910390a488811461286c5780897f67c8ba31d2dd11f1384577b3405b04ed91eed1231e408432ad2458cab37b2fa18760405161340991815260200190565b60405180910390a398975050505050505050565b6134496040518060400160405280600a81526020016922a92199182a37b5b2b760b11b815250836130af565b6134776040518060400160405280600c81526020016b22a921989a18182a37b5b2b760a11b815250836130af565b8015611b1557600b805460ff191660011790555050565b613499600382612c98565b6040516001600160a01b038216907f6ae172837ea30b801fbfcdd4108aa1d5bf8ff775444fd70256b44e6bf3dfc3f690600090a250565b60006001600160a01b0382166135335760405162461bcd60e51b815260206004820152602260248201527f526f6c65733a206163636f756e7420697320746865207a65726f206164647265604482015261737360f01b6064820152608401610953565b506001600160a01b03166000908152602091909152604090205460ff1690565b600061355f308661412a565b90506001600160a01b038116158015906135765750835b156135b35761358481611e97565b156135925761359281613007565b6001600160a01b0381166000908152601a60205260409020805460ff191690555b6135bd85876130af565b8280156135d057506135ce86611e97565b155b156135de576135de8661348e565b811561106a576001600160a01b0386166000908152601a60205260409020805460ff19166001179055505050505050565b6002546001600160a01b031633146136395760405162461bcd60e51b815260040161095390614e91565b600b805462ff000019169055565b6001600160a01b03821660009081526005602052604090206136699082612c98565b806001600160a01b0316826001600160a01b03167f9a01aee9f656aba8760d771cf21d803168ecc664c252c9374f4a3252481fbf3560405160405180910390a35050565b60005b601954811015613719576000601a6000601984815481106136d3576136d3615053565b6000918252602080832091909101546001600160a01b031683528201929092526040019020805460ff1916911515919091179055806137118161500c565b9150506136b0565b5060005b8151811015613782576001601a600084848151811061373e5761373e615053565b6020908102919091018101516001600160a01b03168252810191909152604001600020805460ff19169115159190911790558061377a8161500c565b91505061371d565b508051611b1590601990602084019061433d565b4660009081526004602052604081205480156137b157919050565b6137b96141d9565b91505090565b6137c982826134d0565b61381f5760405162461bcd60e51b815260206004820152602160248201527f526f6c65733a206163636f756e7420646f6573206e6f74206861766520726f6c6044820152606560f81b6064820152608401610953565b6001600160a01b0316600090815260209190915260409020805460ff19169055565b600061387b306040518060400160405280601681526020017522a921989a18182a37b5b2b739ab30b634b230ba37b960511b81525061412a565b90506001600160a01b038116156138fc57604051632907d53b60e11b81526001600160a01b0382169063520faa76906138c99060009036908d908d908d908d908d908d908d90600401614ca3565b600060405180830381600087803b1580156138e357600080fd5b505af11580156138f7573d6000803e3d6000fd5b505050505b5050505050505050565b600b5460ff161561393e5760405162461bcd60e51b81526020600482015260026024820152610d4d60f21b6044820152606401610953565b613947826141fd565b6139635760405162461bcd60e51b815260040161095390614d9b565b6001600160a01b03831661399e5760405162461bcd60e51b8152602060048201526002602482015261353760f01b6044820152606401610953565b600a546139ab9083614220565b600a556001600160a01b0383166000908152600c60205260409020546139d19083614220565b6001600160a01b038085166000818152600c602052604090819020939093559151908616907f0e9905d62635f049c2f4e11678ebf9dc3d1f8c4a653e290759b772e47ba00d0090613a259086908690614c8a565b60405180910390a36040518281526001600160a01b038416906000907fddf252ad1be2c89b69c2b068fc378daa952ba7f163c4a11628f55a4df523b3ef9060200160405180910390a350505050565b8015610d87576001600160a01b0383166000908152601560209081526040808320858452909152902054613ae6576001600160a01b0383166000818152601460209081526040808320805460018101825581855283852001879055938352925460158252838320868452909152919020555b6001600160a01b0383166000908152601660209081526040808320858452909152902054613b149082614220565b6001600160a01b0384166000908152601660209081526040808320868452825280832093909355601290522054613b8557601180546001810182557f31ecc21a745e3968a04e9570e4425bc18fa8019c68028196b546d1669c200c6801839055546000838152601260205260409020555b600082815260136020526040902054613b9e9082614220565b600083815260136020526040902055505050565b6000613bec8560405180604001604052806016815260200175115490cc4d0c0c151bdad95b9cd49958da5c1a595b9d60521b81525061412a565b90506001600160a01b038116156138fc57604051637a325abb60e11b81526001600160a01b0382169063f464b576906138c99060009036908d908d908d908d908d908d908d90600401614ca3565b60208101516000906000199080821415613c5a5760408401519250611e8f565b50929392505050565b6000613c9a866040518060400160405280601381526020017222a921989a18182a37b5b2b739a9b2b73232b960691b81525061412a565b90506001600160a01b038116156138fc5760405163139d569560e21b81526001600160a01b03821690634e755a54906138c99060009036908d908d908d908d908d908d908d90600401614ca3565b6001600160a01b0383166000908152601660209081526040808320858452909152902054613d169082612eb6565b6001600160a01b0384166000908152601660209081526040808320868452825280832093909355601390522054613d4d9082612eb6565b6000838152601360205260409020819055613e3a5760008281526012602052604090205480613d8e5760405162461bcd60e51b815260040161095390614d9b565b6011805460009190613da290600190614f8a565b81548110613db257613db2615053565b90600052602060002001549050806011600184613dcf9190614f8a565b81548110613ddf57613ddf615053565b60009182526020808320909101929092558281526012909152604090208290556011805480613e1057613e1061503d565b60008281526020808220830160001990810183905590920190925585825260129052604081205550505b6001600160a01b0383166000908152601660209081526040808320858452909152902054610d87576001600160a01b038316600090815260156020908152604080832085845290915290205480613ea35760405162461bcd60e51b815260040161095390614d9b565b6001600160a01b03841660009081526014602052604081208054613ec990600190614f8a565b81548110613ed957613ed9615053565b60009182526020808320909101546001600160a01b0388168352601490915260409091209091508190613f0d600185614f8a565b81548110613f1d57613f1d615053565b60009182526020808320909101929092556001600160a01b0387168082526015835260408083208584528452808320869055908252601490925220805480613f6757613f6761503d565b6000828152602080822083016000199081018390559092019092556001600160a01b03871682526015815260408083208784529091528120555050505050565b600b5460ff1615613fdf5760405162461bcd60e51b81526020600482015260026024820152610d4d60f21b6044820152606401610953565b613fe8816141fd565b6140045760405162461bcd60e51b815260040161095390614d9b565b6001600160a01b03821661403f5760405162461bcd60e51b8152602060048201526002602482015261353760f01b6044820152606401610953565b6001600160a01b0383166000908152600c60205260409020548111156140775760405162461bcd60e51b815260040161095390614ee2565b6001600160a01b0383166000908152600c602052604090205461409a9082612eb6565b6001600160a01b038085166000908152600c602052604080822093909355908416815220546140c99082614220565b6001600160a01b038084166000818152600c602052604090819020939093559151908516907fddf252ad1be2c89b69c2b068fc378daa952ba7f163c4a11628f55a4df523b3ef9061411d9085815260200190565b60405180910390a3505050565b6000808260405160200161413e9190614aa7565b60408051808303601f1901815290829052805160209091012060005463555ddc6560e11b83526001600160a01b03878116600485015260248401839052919350169063aabbb8ca9060440160206040518083038186803b1580156141a157600080fd5b505afa1580156141b5573d6000803e3d6000fd5b505050506040513d601f19601f8201168201806040525081019061153f91906144f4565b600046816141e5611d3d565b60009283526004602052604090922082905550919050565b600954600090829061421990614213838261422c565b90614238565b1492915050565b6000611c718284614f31565b6000611c718284614f49565b6000611c718284614f6b565b82805461425090614fd1565b90600052602060002090601f01602090048101928261427257600085556142b8565b82601f1061428b57805160ff19168380011785556142b8565b828001600101855582156142b8579182015b828111156142b857825182559160200191906001019061429d565b506142c4929150614392565b5090565b5080546142d490614fd1565b6000825580601f106142e4575050565b601f0160209004906000526020600020908101906110a29190614392565b8280548282559060005260206000209081019282156142b8579160200282015b828111156142b8578235825591602001919060010190614322565b8280548282559060005260206000209081019282156142b8579160200282015b828111156142b857825182546001600160a01b0319166001600160a01b0390911617825560209092019160019091019061435d565b5b808211156142c45760008155600101614393565b60008083601f8401126143b957600080fd5b50813567ffffffffffffffff8111156143d157600080fd5b6020830191508360208260051b85010111156143ec57600080fd5b9250929050565b8035801515811461440357600080fd5b919050565b60008083601f84011261441a57600080fd5b50813567ffffffffffffffff81111561443257600080fd5b6020830191508360208285010111156143ec57600080fd5b600082601f83011261445b57600080fd5b813567ffffffffffffffff8082111561447657614476615069565b604051601f8301601f19908116603f0116810190828211818310171561449e5761449e615069565b816040528381528660208588010111156144b757600080fd5b836020870160208301376000602085830101528094505050505092915050565b6000602082840312156144e957600080fd5b8135611c718161507f565b60006020828403121561450657600080fd5b8151611c718161507f565b6000806040838503121561452457600080fd5b823561452f8161507f565b9150602083013561453f8161507f565b809150509250929050565b60008060008060008060c0878903121561456357600080fd5b863561456e8161507f565b9550602087013561457e8161507f565b9450604087013567ffffffffffffffff8082111561459b57600080fd5b6145a78a838b0161444a565b955060608901359150808211156145bd57600080fd5b6145c98a838b0161444a565b94506080890135935060a08901359150808211156145e657600080fd5b506145f389828a0161444a565b9150509295509295509295565b60008060006060848603121561461557600080fd5b83356146208161507f565b925060208401356146308161507f565b929592945050506040919091013590565b60008060008060006080868803121561465957600080fd5b85356146648161507f565b945060208601356146748161507f565b935060408601359250606086013567ffffffffffffffff81111561469757600080fd5b6146a388828901614408565b969995985093965092949392505050565b600080604083850312156146c757600080fd5b82356146d28161507f565b91506146e0602084016143f3565b90509250929050565b60008060008060008060a0878903121561470257600080fd5b863561470d8161507f565b9550602087013567ffffffffffffffff81111561472957600080fd5b61473589828a01614408565b90965094506147489050604088016143f3565b9250614756606088016143f3565b9150614764608088016143f3565b90509295509295509295565b6000806040838503121561478357600080fd5b823561478e8161507f565b946020939093013593505050565b600080600080606085870312156147b257600080fd5b84356147bd8161507f565b935060208501359250604085013567ffffffffffffffff8111156147e057600080fd5b6147ec87828801614408565b95989497509550505050565b6000806020838503121561480b57600080fd5b823567ffffffffffffffff81111561482257600080fd5b61482e858286016143a7565b90969095509350505050565b60006020828403121561484c57600080fd5b5035919050565b6000806040838503121561486657600080fd5b82359150602083013561453f8161507f565b60008060006060848603121561488d57600080fd5b83359250602084013561489f8161507f565b915060408401356148af8161507f565b809150509250925092565b60008060008060008060008060c0898b0312156148d657600080fd5b8835975060208901356148e88161507f565b965060408901356148f88161507f565b955060608901359450608089013567ffffffffffffffff8082111561491c57600080fd5b6149288c838d01614408565b909650945060a08b013591508082111561494157600080fd5b5061494e8b828c01614408565b999c989b5096995094979396929594505050565b60008060006060848603121561497757600080fd5b8335925060208401356146308161507f565b6000806000806000608086880312156149a157600080fd5b8535945060208601356146748161507f565b6000806000604084860312156149c857600080fd5b83359250602084013567ffffffffffffffff8111156149e657600080fd5b6149f2868287016143a7565b9497909650939450505050565b60008060008060608587031215614a1557600080fd5b84359350602085013567ffffffffffffffff811115614a3357600080fd5b614a3f87828801614408565b9598909750949560400135949350505050565b81835281816020850137506000828201602090810191909152601f909101601f19169091010190565b60008151808452614a93816020860160208601614fa1565b601f01601f19169290920160200192915050565b60008251614ab9818460208701614fa1565b9190910192915050565b60008351614ad5818460208801614fa1565b60609390931b6bffffffffffffffffffffffff19169190920190815260140192915050565b6001600160a01b038716815260c060208201819052600090614b1e90830188614a7b565b8281036040840152614b308188614a7b565b90508281036060840152614b448187614a7b565b6080840195909552505060a00152949350505050565b60018060a01b0385168152836020820152608060408201526000614b816080830185614a7b565b8281036060840152614b938185614a7b565b979650505050505050565b6020808252825182820181905260009190848201906040850190845b81811015614bdf5783516001600160a01b031683529284019291840191600101614bba565b50909695505050505050565b6020808252825182820181905260009190848201906040850190845b81811015614bdf57835183529284019291840191600101614c07565b8781526001600160a01b038716602082015260e060408201819052600090614c4d90830188614a7b565b8281036060840152614c5f8188614a7b565b90508281036080840152614c738187614a7b565b60a0840195909552505060c0015295945050505050565b82815260406020820152600061153f6040830184614a7b565b6000610100808352614cb88184018c8e614a52565b602084018b90526001600160a01b038a8116604086015289811660608601528816608085015260a0840187905283810360c08501529050614cf98186614a7b565b905082810360e0840152614d0d8185614a7b565b9c9b505050505050505050505050565b604081526000614d31604083018587614a52565b9050826020830152949350505050565b602081526000611c716020830184614a7b565b604081526000614d676040830185614a7b565b90508260208301529392505050565b606081526000614d896060830186614a7b565b60208301949094525060400152919050565b602080825260029082015261035360f41b604082015260600190565b60208082526036908201527f5468652063657274696669636174652068617320657870697265642c20706c656040820152756173652066696c6c20696e2061206e657720666f726d60501b606082015260800190565b60208082526042908201527f546865206163636f756e7420686173206e6f74206265656e20617070726f766560408201527f64207965742c2063616e6e6f742065786563757465207472616e73616374696f606082015261371760f11b608082015260a00190565b602080825260029082015261353560f01b604082015260600190565b6020808252818101527f4f776e61626c653a2063616c6c6572206973206e6f7420746865206f776e6572604082015260600190565b602080825260029082015261353360f01b604082015260600190565b6020808252600290820152611a9960f11b604082015260600190565b828152606060208201526000614f176060830184614a7b565b828103604084015260008152602081019150509392505050565b60008219821115614f4457614f44615027565b500190565b600082614f6657634e487b7160e01b600052601260045260246000fd5b500490565b6000816000190483118215151615614f8557614f85615027565b500290565b600082821015614f9c57614f9c615027565b500390565b60005b83811015614fbc578181015183820152602001614fa4565b83811115614fcb576000848401525b50505050565b600181811c90821680614fe557607f821691505b6020821081141561500657634e487b7160e01b600052602260045260246000fd5b50919050565b600060001982141561502057615020615027565b5060010190565b634e487b7160e01b600052601160045260246000fd5b634e487b7160e01b600052603160045260246000fd5b634e487b7160e01b600052603260045260246000fd5b634e487b7160e01b600052604160045260246000fd5b6001600160a01b03811681146110a257600080fdfea26469706673582212209e071e3cb756d247fd25209bea5778eafbd1666638986a44972f326b3f4e99a564736f6c63430008070033",
			"opcodes": "PUSH1 0x80 PUSH1 0x40 MSTORE CALLVALUE DUP1 ISZERO PUSH3 0x11 JUMPI PUSH1 0x0 DUP1 REVERT JUMPDEST POP PUSH1 0x40 MLOAD PUSH3 0x5C18 CODESIZE SUB DUP1 PUSH3 0x5C18 DUP4 CODECOPY DUP2 ADD PUSH1 0x40 DUP2 SWAP1 MSTORE PUSH3 0x34 SWAP2 PUSH3 0x918 JUMP JUMPDEST DUP6 MLOAD PUSH3 0x49 SWAP1 PUSH1 0x7 SWAP1 PUSH1 0x20 DUP10 ADD SWAP1 PUSH3 0x664 JUMP JUMPDEST POP DUP5 MLOAD PUSH3 0x5F SWAP1 PUSH1 0x8 SWAP1 PUSH1 0x20 DUP9 ADD SWAP1 PUSH3 0x664 JUMP JUMPDEST POP PUSH1 0x0 PUSH1 0xA SSTORE PUSH1 0x1 DUP5 LT ISZERO PUSH3 0x74 JUMPI PUSH1 0x0 DUP1 REVERT JUMPDEST PUSH1 0x9 DUP5 SWAP1 SSTORE PUSH3 0x84 CALLER PUSH3 0x13F JUMP JUMPDEST PUSH3 0x8F CALLER PUSH3 0x191 JUMP JUMPDEST PUSH3 0x99 PUSH3 0x1E3 JUMP JUMPDEST POP PUSH3 0xA5 DUP4 PUSH3 0x209 JUMP JUMPDEST DUP2 MLOAD PUSH3 0xBA SWAP1 PUSH1 0x17 SWAP1 PUSH1 0x20 DUP6 ADD SWAP1 PUSH3 0x6F3 JUMP JUMPDEST POP PUSH3 0xC6 DUP2 PUSH3 0x306 JUMP JUMPDEST PUSH1 0xB DUP1 SLOAD PUSH4 0xFFFFFF00 NOT AND PUSH4 0x1010100 OR SWAP1 SSTORE PUSH1 0x40 DUP1 MLOAD DUP1 DUP3 ADD SWAP1 SWAP2 MSTORE PUSH1 0xC DUP2 MSTORE PUSH12 0x22A921989A18182A37B5B2B7 PUSH1 0xA1 SHL PUSH1 0x20 DUP3 ADD MSTORE PUSH3 0x107 SWAP1 PUSH3 0x356 JUMP JUMPDEST PUSH1 0x40 DUP1 MLOAD DUP1 DUP3 ADD SWAP1 SWAP2 MSTORE PUSH1 0xA DUP2 MSTORE PUSH10 0x22A92199182A37B5B2B7 PUSH1 0xB1 SHL PUSH1 0x20 DUP3 ADD MSTORE PUSH3 0x133 SWAP1 PUSH3 0x356 JUMP JUMPDEST POP POP POP POP POP POP PUSH3 0xB3E JUMP JUMPDEST PUSH1 0x2 DUP1 SLOAD PUSH1 0x1 PUSH1 0x1 PUSH1 0xA0 SHL SUB DUP4 DUP2 AND PUSH1 0x1 PUSH1 0x1 PUSH1 0xA0 SHL SUB NOT DUP4 AND DUP2 OR SWAP1 SWAP4 SSTORE PUSH1 0x40 MLOAD SWAP2 AND SWAP2 SWAP1 DUP3 SWAP1 PUSH32 0x8BE0079C531659141344CD1FD0A4F28419497F9722A3DAAFE3B4186F6B6457E0 SWAP1 PUSH1 0x0 SWAP1 LOG3 POP POP JUMP JUMPDEST PUSH3 0x1AC DUP2 PUSH1 0x3 PUSH3 0x3A5 PUSH1 0x20 SHL PUSH3 0x2C98 OR SWAP1 SWAP2 SWAP1 PUSH1 0x20 SHR JUMP JUMPDEST PUSH1 0x40 MLOAD PUSH1 0x1 PUSH1 0x1 PUSH1 0xA0 SHL SUB DUP3 AND SWAP1 PUSH32 0x6AE172837EA30B801FBFCDD4108AA1D5BF8FF775444FD70256B44E6BF3DFC3F6 SWAP1 PUSH1 0x0 SWAP1 LOG2 POP JUMP JUMPDEST PUSH1 0x0 CHAINID DUP2 PUSH3 0x1F1 PUSH3 0x429 JUMP JUMPDEST PUSH1 0x0 SWAP3 DUP4 MSTORE PUSH1 0x4 PUSH1 0x20 MSTORE PUSH1 0x40 SWAP1 SWAP3 KECCAK256 DUP3 SWAP1 SSTORE POP SWAP2 SWAP1 POP JUMP JUMPDEST PUSH1 0x0 JUMPDEST PUSH1 0x19 SLOAD DUP2 LT ISZERO PUSH3 0x27C JUMPI PUSH1 0x0 PUSH1 0x1A PUSH1 0x0 PUSH1 0x19 DUP5 DUP2 SLOAD DUP2 LT PUSH3 0x233 JUMPI PUSH3 0x233 PUSH3 0xB12 JUMP JUMPDEST PUSH1 0x0 SWAP2 DUP3 MSTORE PUSH1 0x20 DUP1 DUP4 KECCAK256 SWAP2 SWAP1 SWAP2 ADD SLOAD PUSH1 0x1 PUSH1 0x1 PUSH1 0xA0 SHL SUB AND DUP4 MSTORE DUP3 ADD SWAP3 SWAP1 SWAP3 MSTORE PUSH1 0x40 ADD SWAP1 KECCAK256 DUP1 SLOAD PUSH1 0xFF NOT AND SWAP2 ISZERO ISZERO SWAP2 SWAP1 SWAP2 OR SWAP1 SSTORE DUP1 PUSH3 0x273 DUP2 PUSH3 0xAE8 JUMP JUMPDEST SWAP2 POP POP PUSH3 0x20C JUMP JUMPDEST POP PUSH1 0x0 JUMPDEST DUP2 MLOAD DUP2 LT ISZERO PUSH3 0x2EC JUMPI PUSH1 0x1 PUSH1 0x1A PUSH1 0x0 DUP5 DUP5 DUP2 MLOAD DUP2 LT PUSH3 0x2A5 JUMPI PUSH3 0x2A5 PUSH3 0xB12 JUMP JUMPDEST PUSH1 0x20 SWAP1 DUP2 MUL SWAP2 SWAP1 SWAP2 ADD DUP2 ADD MLOAD PUSH1 0x1 PUSH1 0x1 PUSH1 0xA0 SHL SUB AND DUP3 MSTORE DUP2 ADD SWAP2 SWAP1 SWAP2 MSTORE PUSH1 0x40 ADD PUSH1 0x0 KECCAK256 DUP1 SLOAD PUSH1 0xFF NOT AND SWAP2 ISZERO ISZERO SWAP2 SWAP1 SWAP2 OR SWAP1 SSTORE DUP1 PUSH3 0x2E3 DUP2 PUSH3 0xAE8 JUMP JUMPDEST SWAP2 POP POP PUSH3 0x280 JUMP JUMPDEST POP DUP1 MLOAD PUSH3 0x302 SWAP1 PUSH1 0x19 SWAP1 PUSH1 0x20 DUP5 ADD SWAP1 PUSH3 0x730 JUMP JUMPDEST POP POP JUMP JUMPDEST PUSH1 0x0 JUMPDEST DUP2 MLOAD DUP2 LT ISZERO PUSH3 0x302 JUMPI PUSH3 0x341 ADDRESS DUP4 DUP4 DUP2 MLOAD DUP2 LT PUSH3 0x32D JUMPI PUSH3 0x32D PUSH3 0xB12 JUMP JUMPDEST PUSH1 0x20 MUL PUSH1 0x20 ADD ADD MLOAD PUSH3 0x4D0 PUSH1 0x20 SHL PUSH1 0x20 SHR JUMP JUMPDEST DUP1 PUSH3 0x34D DUP2 PUSH3 0xAE8 JUMP JUMPDEST SWAP2 POP POP PUSH3 0x309 JUMP JUMPDEST PUSH1 0x1 DUP1 PUSH1 0x0 DUP4 PUSH1 0x40 MLOAD PUSH1 0x20 ADD PUSH3 0x36E SWAP2 SWAP1 PUSH3 0xA01 JUMP JUMPDEST PUSH1 0x40 DUP1 MLOAD DUP1 DUP4 SUB PUSH1 0x1F NOT ADD DUP2 MSTORE SWAP2 DUP2 MSTORE DUP2 MLOAD PUSH1 0x20 SWAP3 DUP4 ADD KECCAK256 DUP4 MSTORE SWAP1 DUP3 ADD SWAP3 SWAP1 SWAP3 MSTORE ADD PUSH1 0x0 KECCAK256 DUP1 SLOAD PUSH1 0xFF NOT AND SWAP2 ISZERO ISZERO SWAP2 SWAP1 SWAP2 OR SWAP1 SSTORE POP JUMP JUMPDEST PUSH3 0x3B1 DUP3 DUP3 PUSH3 0x545 JUMP JUMPDEST ISZERO PUSH3 0x404 JUMPI PUSH1 0x40 MLOAD PUSH3 0x461BCD PUSH1 0xE5 SHL DUP2 MSTORE PUSH1 0x20 PUSH1 0x4 DUP3 ADD MSTORE PUSH1 0x1F PUSH1 0x24 DUP3 ADD MSTORE PUSH32 0x526F6C65733A206163636F756E7420616C72656164792068617320726F6C6500 PUSH1 0x44 DUP3 ADD MSTORE PUSH1 0x64 ADD JUMPDEST PUSH1 0x40 MLOAD DUP1 SWAP2 SUB SWAP1 REVERT JUMPDEST PUSH1 0x1 PUSH1 0x1 PUSH1 0xA0 SHL SUB AND PUSH1 0x0 SWAP1 DUP2 MSTORE PUSH1 0x20 SWAP2 SWAP1 SWAP2 MSTORE PUSH1 0x40 SWAP1 KECCAK256 DUP1 SLOAD PUSH1 0xFF NOT AND PUSH1 0x1 OR SWAP1 SSTORE JUMP JUMPDEST PUSH1 0x0 CHAINID DUP2 PUSH32 0x8B73C3C69BB8FE3D512ECC4CF759CC79239F7B179B0FFACAA9A75D522B39400F PUSH3 0x458 PUSH3 0x5CA JUMP JUMPDEST DUP1 MLOAD PUSH1 0x20 SWAP1 SWAP2 ADD KECCAK256 PUSH3 0x47F PUSH1 0x40 DUP1 MLOAD DUP1 DUP3 ADD SWAP1 SWAP2 MSTORE PUSH1 0x1 DUP2 MSTORE PUSH1 0x31 PUSH1 0xF8 SHL PUSH1 0x20 DUP3 ADD MSTORE SWAP1 JUMP JUMPDEST DUP1 MLOAD PUSH1 0x20 SWAP2 DUP3 ADD KECCAK256 PUSH1 0x40 DUP1 MLOAD SWAP3 DUP4 ADD SWAP5 SWAP1 SWAP5 MSTORE SWAP3 DUP2 ADD SWAP2 SWAP1 SWAP2 MSTORE PUSH1 0x60 DUP2 ADD SWAP2 SWAP1 SWAP2 MSTORE PUSH1 0x80 DUP2 ADD DUP4 SWAP1 MSTORE ADDRESS PUSH1 0xA0 DUP3 ADD MSTORE PUSH1 0xC0 ADD PUSH1 0x40 DUP1 MLOAD PUSH1 0x1F NOT DUP2 DUP5 SUB ADD DUP2 MSTORE SWAP2 SWAP1 MSTORE DUP1 MLOAD PUSH1 0x20 SWAP1 SWAP2 ADD KECCAK256 SWAP4 SWAP3 POP POP POP JUMP JUMPDEST PUSH1 0x1 PUSH1 0x1 PUSH1 0xA0 SHL SUB DUP3 AND PUSH1 0x0 SWAP1 DUP2 MSTORE PUSH1 0x5 PUSH1 0x20 SWAP1 DUP2 MSTORE PUSH1 0x40 SWAP1 SWAP2 KECCAK256 PUSH3 0x501 SWAP2 DUP4 SWAP1 PUSH3 0x2C98 PUSH3 0x3A5 DUP3 SHL OR SWAP1 SHR JUMP JUMPDEST DUP1 PUSH1 0x1 PUSH1 0x1 PUSH1 0xA0 SHL SUB AND DUP3 PUSH1 0x1 PUSH1 0x1 PUSH1 0xA0 SHL SUB AND PUSH32 0x9A01AEE9F656ABA8760D771CF21D803168ECC664C252C9374F4A3252481FBF35 PUSH1 0x40 MLOAD PUSH1 0x40 MLOAD DUP1 SWAP2 SUB SWAP1 LOG3 POP POP JUMP JUMPDEST PUSH1 0x0 PUSH1 0x1 PUSH1 0x1 PUSH1 0xA0 SHL SUB DUP3 AND PUSH3 0x5AA JUMPI PUSH1 0x40 MLOAD PUSH3 0x461BCD PUSH1 0xE5 SHL DUP2 MSTORE PUSH1 0x20 PUSH1 0x4 DUP3 ADD MSTORE PUSH1 0x22 PUSH1 0x24 DUP3 ADD MSTORE PUSH32 0x526F6C65733A206163636F756E7420697320746865207A65726F206164647265 PUSH1 0x44 DUP3 ADD MSTORE PUSH2 0x7373 PUSH1 0xF0 SHL PUSH1 0x64 DUP3 ADD MSTORE PUSH1 0x84 ADD PUSH3 0x3FB JUMP JUMPDEST POP PUSH1 0x1 PUSH1 0x1 PUSH1 0xA0 SHL SUB AND PUSH1 0x0 SWAP1 DUP2 MSTORE PUSH1 0x20 SWAP2 SWAP1 SWAP2 MSTORE PUSH1 0x40 SWAP1 KECCAK256 SLOAD PUSH1 0xFF AND SWAP1 JUMP JUMPDEST PUSH1 0x60 PUSH1 0x7 DUP1 SLOAD PUSH3 0x5DB SWAP1 PUSH3 0xAAB JUMP JUMPDEST DUP1 PUSH1 0x1F ADD PUSH1 0x20 DUP1 SWAP2 DIV MUL PUSH1 0x20 ADD PUSH1 0x40 MLOAD SWAP1 DUP2 ADD PUSH1 0x40 MSTORE DUP1 SWAP3 SWAP2 SWAP1 DUP2 DUP2 MSTORE PUSH1 0x20 ADD DUP3 DUP1 SLOAD PUSH3 0x609 SWAP1 PUSH3 0xAAB JUMP JUMPDEST DUP1 ISZERO PUSH3 0x65A JUMPI DUP1 PUSH1 0x1F LT PUSH3 0x62E JUMPI PUSH2 0x100 DUP1 DUP4 SLOAD DIV MUL DUP4 MSTORE SWAP2 PUSH1 0x20 ADD SWAP2 PUSH3 0x65A JUMP JUMPDEST DUP3 ADD SWAP2 SWAP1 PUSH1 0x0 MSTORE PUSH1 0x20 PUSH1 0x0 KECCAK256 SWAP1 JUMPDEST DUP2 SLOAD DUP2 MSTORE SWAP1 PUSH1 0x1 ADD SWAP1 PUSH1 0x20 ADD DUP1 DUP4 GT PUSH3 0x63C JUMPI DUP3 SWAP1 SUB PUSH1 0x1F AND DUP3 ADD SWAP2 JUMPDEST POP POP POP POP POP SWAP1 POP SWAP1 JUMP JUMPDEST DUP3 DUP1 SLOAD PUSH3 0x672 SWAP1 PUSH3 0xAAB JUMP JUMPDEST SWAP1 PUSH1 0x0 MSTORE PUSH1 0x20 PUSH1 0x0 KECCAK256 SWAP1 PUSH1 0x1F ADD PUSH1 0x20 SWAP1 DIV DUP2 ADD SWAP3 DUP3 PUSH3 0x696 JUMPI PUSH1 0x0 DUP6 SSTORE PUSH3 0x6E1 JUMP JUMPDEST DUP3 PUSH1 0x1F LT PUSH3 0x6B1 JUMPI DUP1 MLOAD PUSH1 0xFF NOT AND DUP4 DUP1 ADD OR DUP6 SSTORE PUSH3 0x6E1 JUMP JUMPDEST DUP3 DUP1 ADD PUSH1 0x1 ADD DUP6 SSTORE DUP3 ISZERO PUSH3 0x6E1 JUMPI SWAP2 DUP3 ADD JUMPDEST DUP3 DUP2 GT ISZERO PUSH3 0x6E1 JUMPI DUP3 MLOAD DUP3 SSTORE SWAP2 PUSH1 0x20 ADD SWAP2 SWAP1 PUSH1 0x1 ADD SWAP1 PUSH3 0x6C4 JUMP JUMPDEST POP PUSH3 0x6EF SWAP3 SWAP2 POP PUSH3 0x788 JUMP JUMPDEST POP SWAP1 JUMP JUMPDEST DUP3 DUP1 SLOAD DUP3 DUP3 SSTORE SWAP1 PUSH1 0x0 MSTORE PUSH1 0x20 PUSH1 0x0 KECCAK256 SWAP1 DUP2 ADD SWAP3 DUP3 ISZERO PUSH3 0x6E1 JUMPI SWAP2 PUSH1 0x20 MUL DUP3 ADD DUP3 DUP2 GT ISZERO PUSH3 0x6E1 JUMPI DUP3 MLOAD DUP3 SSTORE SWAP2 PUSH1 0x20 ADD SWAP2 SWAP1 PUSH1 0x1 ADD SWAP1 PUSH3 0x6C4 JUMP JUMPDEST DUP3 DUP1 SLOAD DUP3 DUP3 SSTORE SWAP1 PUSH1 0x0 MSTORE PUSH1 0x20 PUSH1 0x0 KECCAK256 SWAP1 DUP2 ADD SWAP3 DUP3 ISZERO PUSH3 0x6E1 JUMPI SWAP2 PUSH1 0x20 MUL DUP3 ADD JUMPDEST DUP3 DUP2 GT ISZERO PUSH3 0x6E1 JUMPI DUP3 MLOAD DUP3 SLOAD PUSH1 0x1 PUSH1 0x1 PUSH1 0xA0 SHL SUB NOT AND PUSH1 0x1 PUSH1 0x1 PUSH1 0xA0 SHL SUB SWAP1 SWAP2 AND OR DUP3 SSTORE PUSH1 0x20 SWAP1 SWAP3 ADD SWAP2 PUSH1 0x1 SWAP1 SWAP2 ADD SWAP1 PUSH3 0x751 JUMP JUMPDEST JUMPDEST DUP1 DUP3 GT ISZERO PUSH3 0x6EF JUMPI PUSH1 0x0 DUP2 SSTORE PUSH1 0x1 ADD PUSH3 0x789 JUMP JUMPDEST PUSH1 0x0 DUP3 PUSH1 0x1F DUP4 ADD SLT PUSH3 0x7B1 JUMPI PUSH1 0x0 DUP1 REVERT JUMPDEST DUP2 MLOAD PUSH1 0x20 PUSH3 0x7CA PUSH3 0x7C4 DUP4 PUSH3 0xA52 JUMP JUMPDEST PUSH3 0xA1F JUMP JUMPDEST DUP1 DUP4 DUP3 MSTORE DUP3 DUP3 ADD SWAP2 POP DUP3 DUP7 ADD DUP8 DUP5 DUP7 PUSH1 0x5 SHL DUP10 ADD ADD GT ISZERO PUSH3 0x7EB JUMPI PUSH1 0x0 DUP1 REVERT JUMPDEST PUSH1 0x0 DUP1 JUMPDEST DUP7 DUP2 LT ISZERO PUSH3 0x822 JUMPI DUP3 MLOAD PUSH1 0x1 PUSH1 0x1 PUSH1 0xA0 SHL SUB DUP2 AND DUP2 EQ PUSH3 0x80F JUMPI DUP3 DUP4 REVERT JUMPDEST DUP6 MSTORE SWAP4 DUP6 ADD SWAP4 SWAP2 DUP6 ADD SWAP2 PUSH1 0x1 ADD PUSH3 0x7EF JUMP JUMPDEST POP SWAP2 SWAP9 SWAP8 POP POP POP POP POP POP POP POP JUMP JUMPDEST PUSH1 0x0 DUP3 PUSH1 0x1F DUP4 ADD SLT PUSH3 0x842 JUMPI PUSH1 0x0 DUP1 REVERT JUMPDEST DUP2 MLOAD PUSH1 0x20 PUSH3 0x855 PUSH3 0x7C4 DUP4 PUSH3 0xA52 JUMP JUMPDEST DUP1 DUP4 DUP3 MSTORE DUP3 DUP3 ADD SWAP2 POP DUP3 DUP7 ADD DUP8 DUP5 DUP7 PUSH1 0x5 SHL DUP10 ADD ADD GT ISZERO PUSH3 0x876 JUMPI PUSH1 0x0 DUP1 REVERT JUMPDEST PUSH1 0x0 JUMPDEST DUP6 DUP2 LT ISZERO PUSH3 0x897 JUMPI DUP2 MLOAD DUP5 MSTORE SWAP3 DUP5 ADD SWAP3 SWAP1 DUP5 ADD SWAP1 PUSH1 0x1 ADD PUSH3 0x879 JUMP JUMPDEST POP SWAP1 SWAP8 SWAP7 POP POP POP POP POP POP POP JUMP JUMPDEST PUSH1 0x0 DUP3 PUSH1 0x1F DUP4 ADD SLT PUSH3 0x8B6 JUMPI PUSH1 0x0 DUP1 REVERT JUMPDEST DUP2 MLOAD PUSH1 0x1 PUSH1 0x1 PUSH1 0x40 SHL SUB DUP2 GT ISZERO PUSH3 0x8D2 JUMPI PUSH3 0x8D2 PUSH3 0xB28 JUMP JUMPDEST PUSH3 0x8E7 PUSH1 0x1F DUP3 ADD PUSH1 0x1F NOT AND PUSH1 0x20 ADD PUSH3 0xA1F JUMP JUMPDEST DUP2 DUP2 MSTORE DUP5 PUSH1 0x20 DUP4 DUP7 ADD ADD GT ISZERO PUSH3 0x8FD JUMPI PUSH1 0x0 DUP1 REVERT JUMPDEST PUSH3 0x910 DUP3 PUSH1 0x20 DUP4 ADD PUSH1 0x20 DUP8 ADD PUSH3 0xA78 JUMP JUMPDEST SWAP5 SWAP4 POP POP POP POP JUMP JUMPDEST PUSH1 0x0 DUP1 PUSH1 0x0 DUP1 PUSH1 0x0 DUP1 PUSH1 0xC0 DUP8 DUP10 SUB SLT ISZERO PUSH3 0x932 JUMPI PUSH1 0x0 DUP1 REVERT JUMPDEST DUP7 MLOAD PUSH1 0x1 PUSH1 0x1 PUSH1 0x40 SHL SUB DUP1 DUP3 GT ISZERO PUSH3 0x94A JUMPI PUSH1 0x0 DUP1 REVERT JUMPDEST PUSH3 0x958 DUP11 DUP4 DUP12 ADD PUSH3 0x8A4 JUMP JUMPDEST SWAP8 POP PUSH1 0x20 DUP10 ADD MLOAD SWAP2 POP DUP1 DUP3 GT ISZERO PUSH3 0x96F JUMPI PUSH1 0x0 DUP1 REVERT JUMPDEST PUSH3 0x97D DUP11 DUP4 DUP12 ADD PUSH3 0x8A4 JUMP JUMPDEST SWAP7 POP PUSH1 0x40 DUP10 ADD MLOAD SWAP6 POP PUSH1 0x60 DUP10 ADD MLOAD SWAP2 POP DUP1 DUP3 GT ISZERO PUSH3 0x99B JUMPI PUSH1 0x0 DUP1 REVERT JUMPDEST PUSH3 0x9A9 DUP11 DUP4 DUP12 ADD PUSH3 0x79F JUMP JUMPDEST SWAP5 POP PUSH1 0x80 DUP10 ADD MLOAD SWAP2 POP DUP1 DUP3 GT ISZERO PUSH3 0x9C0 JUMPI PUSH1 0x0 DUP1 REVERT JUMPDEST PUSH3 0x9CE DUP11 DUP4 DUP12 ADD PUSH3 0x830 JUMP JUMPDEST SWAP4 POP PUSH1 0xA0 DUP10 ADD MLOAD SWAP2 POP DUP1 DUP3 GT ISZERO PUSH3 0x9E5 JUMPI PUSH1 0x0 DUP1 REVERT JUMPDEST POP PUSH3 0x9F4 DUP10 DUP3 DUP11 ADD PUSH3 0x79F JUMP JUMPDEST SWAP2 POP POP SWAP3 SWAP6 POP SWAP3 SWAP6 POP SWAP3 SWAP6 JUMP JUMPDEST PUSH1 0x0 DUP3 MLOAD PUSH3 0xA15 DUP2 DUP5 PUSH1 0x20 DUP8 ADD PUSH3 0xA78 JUMP JUMPDEST SWAP2 SWAP1 SWAP2 ADD SWAP3 SWAP2 POP POP JUMP JUMPDEST PUSH1 0x40 MLOAD PUSH1 0x1F DUP3 ADD PUSH1 0x1F NOT AND DUP2 ADD PUSH1 0x1 PUSH1 0x1 PUSH1 0x40 SHL SUB DUP2 GT DUP3 DUP3 LT OR ISZERO PUSH3 0xA4A JUMPI PUSH3 0xA4A PUSH3 0xB28 JUMP JUMPDEST PUSH1 0x40 MSTORE SWAP2 SWAP1 POP JUMP JUMPDEST PUSH1 0x0 PUSH1 0x1 PUSH1 0x1 PUSH1 0x40 SHL SUB DUP3 GT ISZERO PUSH3 0xA6E JUMPI PUSH3 0xA6E PUSH3 0xB28 JUMP JUMPDEST POP PUSH1 0x5 SHL PUSH1 0x20 ADD SWAP1 JUMP JUMPDEST PUSH1 0x0 JUMPDEST DUP4 DUP2 LT ISZERO PUSH3 0xA95 JUMPI DUP2 DUP2 ADD MLOAD DUP4 DUP3 ADD MSTORE PUSH1 0x20 ADD PUSH3 0xA7B JUMP JUMPDEST DUP4 DUP2 GT ISZERO PUSH3 0xAA5 JUMPI PUSH1 0x0 DUP5 DUP5 ADD MSTORE JUMPDEST POP POP POP POP JUMP JUMPDEST PUSH1 0x1 DUP2 DUP2 SHR SWAP1 DUP3 AND DUP1 PUSH3 0xAC0 JUMPI PUSH1 0x7F DUP3 AND SWAP2 POP JUMPDEST PUSH1 0x20 DUP3 LT DUP2 EQ ISZERO PUSH3 0xAE2 JUMPI PUSH4 0x4E487B71 PUSH1 0xE0 SHL PUSH1 0x0 MSTORE PUSH1 0x22 PUSH1 0x4 MSTORE PUSH1 0x24 PUSH1 0x0 REVERT JUMPDEST POP SWAP2 SWAP1 POP JUMP JUMPDEST PUSH1 0x0 PUSH1 0x0 NOT DUP3 EQ ISZERO PUSH3 0xB0B JUMPI PUSH4 0x4E487B71 PUSH1 0xE0 SHL PUSH1 0x0 MSTORE PUSH1 0x11 PUSH1 0x4 MSTORE PUSH1 0x24 PUSH1 0x0 REVERT JUMPDEST POP PUSH1 0x1 ADD SWAP1 JUMP JUMPDEST PUSH4 0x4E487B71 PUSH1 0xE0 SHL PUSH1 0x0 MSTORE PUSH1 0x32 PUSH1 0x4 MSTORE PUSH1 0x24 PUSH1 0x0 REVERT JUMPDEST PUSH4 0x4E487B71 PUSH1 0xE0 SHL PUSH1 0x0 MSTORE PUSH1 0x41 PUSH1 0x4 MSTORE PUSH1 0x24 PUSH1 0x0 REVERT JUMPDEST PUSH2 0x50CA DUP1 PUSH3 0xB4E PUSH1 0x0 CODECOPY PUSH1 0x0 RETURN INVALID PUSH1 0x80 PUSH1 0x40 MSTORE CALLVALUE DUP1 ISZERO PUSH2 0x10 JUMPI PUSH1 0x0 DUP1 REVERT JUMPDEST POP PUSH1 0x4 CALLDATASIZE LT PUSH2 0x3D0 JUMPI PUSH1 0x0 CALLDATALOAD PUSH1 0xE0 SHR DUP1 PUSH4 0x895D7386 GT PUSH2 0x1FF JUMPI DUP1 PUSH4 0xB6363CF2 GT PUSH2 0x11A JUMPI DUP1 PUSH4 0xEA74838A GT PUSH2 0xAD JUMPI DUP1 PUSH4 0xF3D490DB GT PUSH2 0x7C JUMPI DUP1 PUSH4 0xF3D490DB EQ PUSH2 0x8B6 JUMPI DUP1 PUSH4 0xF698DA25 EQ PUSH2 0x8C9 JUMPI DUP1 PUSH4 0xFAD8B32A EQ PUSH2 0x8D1 JUMPI DUP1 PUSH4 0xFE9A51FC EQ PUSH2 0x8E4 JUMPI PUSH1 0x0 DUP1 REVERT JUMPDEST DUP1 PUSH4 0xEA74838A EQ PUSH2 0x86A JUMPI DUP1 PUSH4 0xEC9A6E87 EQ PUSH2 0x87D JUMPI DUP1 PUSH4 0xEE532F31 EQ PUSH2 0x890 JUMPI DUP1 PUSH4 0xF2FDE38B EQ PUSH2 0x8A3 JUMPI PUSH1 0x0 DUP1 REVERT JUMPDEST DUP1 PUSH4 0xC69664BB GT PUSH2 0xE9 JUMPI DUP1 PUSH4 0xC69664BB EQ PUSH2 0x803 JUMPI DUP1 PUSH4 0xCA281FD9 EQ PUSH2 0x816 JUMPI DUP1 PUSH4 0xDD62ED3E EQ PUSH2 0x81E JUMPI DUP1 PUSH4 0xE81EA541 EQ PUSH2 0x857 JUMPI PUSH1 0x0 DUP1 REVERT JUMPDEST DUP1 PUSH4 0xB6363CF2 EQ PUSH2 0x7C2 JUMPI DUP1 PUSH4 0xBB3ACDE9 EQ PUSH2 0x7D5 JUMPI DUP1 PUSH4 0xBCFDC0CF EQ PUSH2 0x7E8 JUMPI DUP1 PUSH4 0xC3501848 EQ PUSH2 0x7F0 JUMPI PUSH1 0x0 DUP1 REVERT JUMPDEST DUP1 PUSH4 0x9E59CEBA GT PUSH2 0x192 JUMPI DUP1 PUSH4 0xA8082CB0 GT PUSH2 0x161 JUMPI DUP1 PUSH4 0xA8082CB0 EQ PUSH2 0x772 JUMPI DUP1 PUSH4 0xA9059CBB EQ PUSH2 0x77A JUMPI DUP1 PUSH4 0xAA271E1A EQ PUSH2 0x78D JUMPI DUP1 PUSH4 0xB10D6B41 EQ PUSH2 0x7A0 JUMPI PUSH1 0x0 DUP1 REVERT JUMPDEST DUP1 PUSH4 0x9E59CEBA EQ PUSH2 0x724 JUMPI DUP1 PUSH4 0x9FA5F50B EQ PUSH2 0x737 JUMPI DUP1 PUSH4 0xA26734DC EQ PUSH2 0x73F JUMPI DUP1 PUSH4 0xA6F4F105 EQ PUSH2 0x75F JUMPI PUSH1 0x0 DUP1 REVERT JUMPDEST DUP1 PUSH4 0x959B8C3F GT PUSH2 0x1CE JUMPI DUP1 PUSH4 0x959B8C3F EQ PUSH2 0x6EE JUMPI DUP1 PUSH4 0x95D89B41 EQ PUSH2 0x701 JUMPI DUP1 PUSH4 0x983B2D56 EQ PUSH2 0x709 JUMPI DUP1 PUSH4 0x98650275 EQ PUSH2 0x71C JUMPI PUSH1 0x0 DUP1 REVERT JUMPDEST DUP1 PUSH4 0x895D7386 EQ PUSH2 0x3EA JUMPI DUP1 PUSH4 0x8C0DEE9C EQ PUSH2 0x6AD JUMPI DUP1 PUSH4 0x8DA5CB5B EQ PUSH2 0x6C0 JUMPI DUP1 PUSH4 0x933964C7 EQ PUSH2 0x6DB JUMPI PUSH1 0x0 DUP1 REVERT JUMPDEST DUP1 PUSH4 0x313CE567 GT PUSH2 0x2EF JUMPI DUP1 PUSH4 0x6B423769 GT PUSH2 0x282 JUMPI DUP1 PUSH4 0x740AB8F4 GT PUSH2 0x251 JUMPI DUP1 PUSH4 0x740AB8F4 EQ PUSH2 0x64C JUMPI DUP1 PUSH4 0x7CC0C3A7 EQ PUSH2 0x65F JUMPI DUP1 PUSH4 0x861ED3EA EQ PUSH2 0x674 JUMPI DUP1 PUSH4 0x88F65810 EQ PUSH2 0x687 JUMPI PUSH1 0x0 DUP1 REVERT JUMPDEST DUP1 PUSH4 0x6B423769 EQ PUSH2 0x5F5 JUMPI DUP1 PUSH4 0x6D77CAD6 EQ PUSH2 0x608 JUMPI DUP1 PUSH4 0x70A08231 EQ PUSH2 0x61B JUMPI DUP1 PUSH4 0x715018A6 EQ PUSH2 0x644 JUMPI PUSH1 0x0 DUP1 REVERT JUMPDEST DUP1 PUSH4 0x51EF1D02 GT PUSH2 0x2BE JUMPI DUP1 PUSH4 0x51EF1D02 EQ PUSH2 0x5BD JUMPI DUP1 PUSH4 0x556F0DC7 EQ PUSH2 0x5C5 JUMPI DUP1 PUSH4 0x67C84919 EQ PUSH2 0x5CD JUMPI DUP1 PUSH4 0x69598EFE EQ PUSH2 0x5E0 JUMPI PUSH1 0x0 DUP1 REVERT JUMPDEST DUP1 PUSH4 0x313CE567 EQ PUSH2 0x578 JUMPI DUP1 PUSH4 0x3A6B8AC7 EQ PUSH2 0x587 JUMPI DUP1 PUSH4 0x3BDDAF8F EQ PUSH2 0x59A JUMPI DUP1 PUSH4 0x4C783BF5 EQ PUSH2 0x5AD JUMPI PUSH1 0x0 DUP1 REVERT JUMPDEST DUP1 PUSH4 0x18160DDD GT PUSH2 0x367 JUMPI DUP1 PUSH4 0x2535F762 GT PUSH2 0x336 JUMPI DUP1 PUSH4 0x2535F762 EQ PUSH2 0x50E JUMPI DUP1 PUSH4 0x2F1CAE85 EQ PUSH2 0x521 JUMPI DUP1 PUSH4 0x3092AFD5 EQ PUSH2 0x532 JUMPI DUP1 PUSH4 0x30E82803 EQ PUSH2 0x545 JUMPI PUSH1 0x0 DUP1 REVERT JUMPDEST DUP1 PUSH4 0x18160DDD EQ PUSH2 0x4C3 JUMPI DUP1 PUSH4 0x1D43E1C0 EQ PUSH2 0x4CB JUMPI DUP1 PUSH4 0x23B872DD EQ PUSH2 0x4E8 JUMPI DUP1 PUSH4 0x249CB3FA EQ PUSH2 0x4FB JUMPI PUSH1 0x0 DUP1 REVERT JUMPDEST DUP1 PUSH4 0x14D1E62F GT PUSH2 0x3A3 JUMPI DUP1 PUSH4 0x14D1E62F EQ PUSH2 0x43E JUMPI DUP1 PUSH4 0x168ECEC5 EQ PUSH2 0x451 JUMPI DUP1 PUSH4 0x16E1AED4 EQ PUSH2 0x464 JUMPI DUP1 PUSH4 0x17EC83CA EQ PUSH2 0x477 JUMPI PUSH1 0x0 DUP1 REVERT JUMPDEST DUP1 PUSH4 0x10648CA EQ PUSH2 0x3D5 JUMPI DUP1 PUSH4 0x6FDDE03 EQ PUSH2 0x3EA JUMPI DUP1 PUSH4 0x95EA7B3 EQ PUSH2 0x408 JUMPI DUP1 PUSH4 0x103EF9E1 EQ PUSH2 0x42B JUMPI JUMPDEST PUSH1 0x0 DUP1 REVERT JUMPDEST PUSH2 0x3E8 PUSH2 0x3E3 CALLDATASIZE PUSH1 0x4 PUSH2 0x49FF JUMP JUMPDEST PUSH2 0x909 JUMP JUMPDEST STOP JUMPDEST PUSH2 0x3F2 PUSH2 0xA7A JUMP JUMPDEST PUSH1 0x40 MLOAD PUSH2 0x3FF SWAP2 SWAP1 PUSH2 0x4D41 JUMP JUMPDEST PUSH1 0x40 MLOAD DUP1 SWAP2 SUB SWAP1 RETURN JUMPDEST PUSH2 0x41B PUSH2 0x416 CALLDATASIZE PUSH1 0x4 PUSH2 0x4770 JUMP JUMPDEST PUSH2 0xB0C JUMP JUMPDEST PUSH1 0x40 MLOAD SWAP1 ISZERO ISZERO DUP2 MSTORE PUSH1 0x20 ADD PUSH2 0x3FF JUMP JUMPDEST PUSH2 0x3E8 PUSH2 0x439 CALLDATASIZE PUSH1 0x4 PUSH2 0x4853 JUMP JUMPDEST PUSH2 0xBAE JUMP JUMPDEST PUSH2 0x41B PUSH2 0x44C CALLDATASIZE PUSH1 0x4 PUSH2 0x4962 JUMP JUMPDEST PUSH2 0xC12 JUMP JUMPDEST PUSH2 0x3E8 PUSH2 0x45F CALLDATASIZE PUSH1 0x4 PUSH2 0x4853 JUMP JUMPDEST PUSH2 0xCBF JUMP JUMPDEST PUSH2 0x3E8 PUSH2 0x472 CALLDATASIZE PUSH1 0x4 PUSH2 0x49B3 JUMP JUMPDEST PUSH2 0xD20 JUMP JUMPDEST PUSH2 0x4B5 PUSH2 0x485 CALLDATASIZE PUSH1 0x4 PUSH2 0x4878 JUMP JUMPDEST PUSH1 0x0 SWAP3 DUP4 MSTORE PUSH1 0x1B PUSH1 0x20 SWAP1 DUP2 MSTORE PUSH1 0x40 DUP1 DUP6 KECCAK256 PUSH1 0x1 PUSH1 0x1 PUSH1 0xA0 SHL SUB SWAP5 DUP6 AND DUP7 MSTORE DUP3 MSTORE DUP1 DUP6 KECCAK256 SWAP3 SWAP1 SWAP4 AND DUP5 MSTORE MSTORE SWAP1 KECCAK256 SLOAD SWAP1 JUMP JUMPDEST PUSH1 0x40 MLOAD SWAP1 DUP2 MSTORE PUSH1 0x20 ADD PUSH2 0x3FF JUMP JUMPDEST PUSH1 0xA SLOAD PUSH2 0x4B5 JUMP JUMPDEST PUSH1 0x40 DUP1 MLOAD DUP1 DUP3 ADD SWAP1 SWAP2 MSTORE PUSH1 0x1 DUP2 MSTORE PUSH1 0x31 PUSH1 0xF8 SHL PUSH1 0x20 DUP3 ADD MSTORE PUSH2 0x3F2 JUMP JUMPDEST PUSH2 0x41B PUSH2 0x4F6 CALLDATASIZE PUSH1 0x4 PUSH2 0x4600 JUMP JUMPDEST PUSH2 0xD8C JUMP JUMPDEST PUSH2 0x4B5 PUSH2 0x509 CALLDATASIZE PUSH1 0x4 PUSH2 0x4853 JUMP JUMPDEST PUSH2 0xF3C JUMP JUMPDEST PUSH2 0x3E8 PUSH2 0x51C CALLDATASIZE PUSH1 0x4 PUSH2 0x479C JUMP JUMPDEST PUSH2 0xF9B JUMP JUMPDEST PUSH1 0xB SLOAD PUSH3 0x10000 SWAP1 DIV PUSH1 0xFF AND PUSH2 0x41B JUMP JUMPDEST PUSH2 0x3E8 PUSH2 0x540 CALLDATASIZE PUSH1 0x4 PUSH2 0x44D7 JUMP JUMPDEST PUSH2 0x1072 JUMP JUMPDEST PUSH2 0x4B5 PUSH2 0x553 CALLDATASIZE PUSH1 0x4 PUSH2 0x4853 JUMP JUMPDEST PUSH1 0x1 PUSH1 0x1 PUSH1 0xA0 SHL SUB AND PUSH1 0x0 SWAP1 DUP2 MSTORE PUSH1 0x16 PUSH1 0x20 SWAP1 DUP2 MSTORE PUSH1 0x40 DUP1 DUP4 KECCAK256 SWAP4 DUP4 MSTORE SWAP3 SWAP1 MSTORE KECCAK256 SLOAD SWAP1 JUMP JUMPDEST PUSH1 0x40 MLOAD PUSH1 0x12 DUP2 MSTORE PUSH1 0x20 ADD PUSH2 0x3FF JUMP JUMPDEST PUSH2 0x3E8 PUSH2 0x595 CALLDATASIZE PUSH1 0x4 PUSH2 0x454A JUMP JUMPDEST PUSH2 0x10A5 JUMP JUMPDEST PUSH2 0x3E8 PUSH2 0x5A8 CALLDATASIZE PUSH1 0x4 PUSH2 0x44D7 JUMP JUMPDEST PUSH2 0x1266 JUMP JUMPDEST PUSH1 0xB SLOAD PUSH2 0x100 SWAP1 DIV PUSH1 0xFF AND PUSH2 0x41B JUMP JUMPDEST PUSH2 0x41B PUSH2 0x1270 JUMP JUMPDEST PUSH1 0x9 SLOAD PUSH2 0x4B5 JUMP JUMPDEST PUSH2 0x3E8 PUSH2 0x5DB CALLDATASIZE PUSH1 0x4 PUSH2 0x4989 JUMP JUMPDEST PUSH2 0x12FD JUMP JUMPDEST PUSH2 0x5E8 PUSH2 0x1424 JUMP JUMPDEST PUSH1 0x40 MLOAD PUSH2 0x3FF SWAP2 SWAP1 PUSH2 0x4BEB JUMP JUMPDEST PUSH2 0x41B PUSH2 0x603 CALLDATASIZE PUSH1 0x4 PUSH2 0x44D7 JUMP JUMPDEST PUSH2 0x147B JUMP JUMPDEST PUSH2 0x41B PUSH2 0x616 CALLDATASIZE PUSH1 0x4 PUSH2 0x4878 JUMP JUMPDEST PUSH2 0x1532 JUMP JUMPDEST PUSH2 0x4B5 PUSH2 0x629 CALLDATASIZE PUSH1 0x4 PUSH2 0x44D7 JUMP JUMPDEST PUSH1 0x1 PUSH1 0x1 PUSH1 0xA0 SHL SUB AND PUSH1 0x0 SWAP1 DUP2 MSTORE PUSH1 0xC PUSH1 0x20 MSTORE PUSH1 0x40 SWAP1 KECCAK256 SLOAD SWAP1 JUMP JUMPDEST PUSH2 0x3E8 PUSH2 0x1547 JUMP JUMPDEST PUSH2 0x5E8 PUSH2 0x65A CALLDATASIZE PUSH1 0x4 PUSH2 0x44D7 JUMP JUMPDEST PUSH2 0x157D JUMP JUMPDEST PUSH2 0x667 PUSH2 0x15E9 JUMP JUMPDEST PUSH1 0x40 MLOAD PUSH2 0x3FF SWAP2 SWAP1 PUSH2 0x4B9E JUMP JUMPDEST PUSH2 0x667 PUSH2 0x682 CALLDATASIZE PUSH1 0x4 PUSH2 0x483A JUMP JUMPDEST PUSH2 0x164A JUMP JUMPDEST PUSH2 0x69A PUSH2 0x695 CALLDATASIZE PUSH1 0x4 PUSH2 0x4511 JUMP JUMPDEST PUSH2 0x16B5 JUMP JUMPDEST PUSH1 0x40 MLOAD PUSH2 0x3FF SWAP8 SWAP7 SWAP6 SWAP5 SWAP4 SWAP3 SWAP2 SWAP1 PUSH2 0x4C23 JUMP JUMPDEST PUSH2 0x4B5 PUSH2 0x6BB CALLDATASIZE PUSH1 0x4 PUSH2 0x48BA JUMP JUMPDEST PUSH2 0x189D JUMP JUMPDEST PUSH1 0x2 SLOAD PUSH1 0x40 MLOAD PUSH1 0x1 PUSH1 0x1 PUSH1 0xA0 SHL SUB SWAP1 SWAP2 AND DUP2 MSTORE PUSH1 0x20 ADD PUSH2 0x3FF JUMP JUMPDEST PUSH2 0x3E8 PUSH2 0x6E9 CALLDATASIZE PUSH1 0x4 PUSH2 0x46B4 JUMP JUMPDEST PUSH2 0x1AE1 JUMP JUMPDEST PUSH2 0x3E8 PUSH2 0x6FC CALLDATASIZE PUSH1 0x4 PUSH2 0x44D7 JUMP JUMPDEST PUSH2 0x1B19 JUMP JUMPDEST PUSH2 0x3F2 PUSH2 0x1C07 JUMP JUMPDEST PUSH2 0x3E8 PUSH2 0x717 CALLDATASIZE PUSH1 0x4 PUSH2 0x44D7 JUMP JUMPDEST PUSH2 0x1C16 JUMP JUMPDEST PUSH2 0x3E8 PUSH2 0x1C46 JUMP JUMPDEST PUSH2 0x41B PUSH2 0x732 CALLDATASIZE PUSH1 0x4 PUSH2 0x4511 JUMP JUMPDEST PUSH2 0x1C4F JUMP JUMPDEST PUSH2 0x5E8 PUSH2 0x1C78 JUMP JUMPDEST PUSH2 0x4B5 PUSH2 0x74D CALLDATASIZE PUSH1 0x4 PUSH2 0x483A JUMP JUMPDEST PUSH1 0x0 SWAP1 DUP2 MSTORE PUSH1 0x13 PUSH1 0x20 MSTORE PUSH1 0x40 SWAP1 KECCAK256 SLOAD SWAP1 JUMP JUMPDEST PUSH2 0x3E8 PUSH2 0x76D CALLDATASIZE PUSH1 0x4 PUSH2 0x46E9 JUMP JUMPDEST PUSH2 0x1CCE JUMP JUMPDEST PUSH2 0x4B5 PUSH2 0x1D3D JUMP JUMPDEST PUSH2 0x41B PUSH2 0x788 CALLDATASIZE PUSH1 0x4 PUSH2 0x4770 JUMP JUMPDEST PUSH2 0x1DE0 JUMP JUMPDEST PUSH2 0x41B PUSH2 0x79B CALLDATASIZE PUSH1 0x4 PUSH2 0x44D7 JUMP JUMPDEST PUSH2 0x1E97 JUMP JUMPDEST PUSH2 0x7B3 PUSH2 0x7AE CALLDATASIZE PUSH1 0x4 PUSH2 0x483A JUMP JUMPDEST PUSH2 0x1EA4 JUMP JUMPDEST PUSH1 0x40 MLOAD PUSH2 0x3FF SWAP4 SWAP3 SWAP2 SWAP1 PUSH2 0x4D76 JUMP JUMPDEST PUSH2 0x41B PUSH2 0x7D0 CALLDATASIZE PUSH1 0x4 PUSH2 0x4511 JUMP JUMPDEST PUSH2 0x1F82 JUMP JUMPDEST PUSH2 0x3E8 PUSH2 0x7E3 CALLDATASIZE PUSH1 0x4 PUSH2 0x479C JUMP JUMPDEST PUSH2 0x1F8E JUMP JUMPDEST PUSH2 0x5E8 PUSH2 0x20F1 JUMP JUMPDEST PUSH2 0x3E8 PUSH2 0x7FE CALLDATASIZE PUSH1 0x4 PUSH2 0x483A JUMP JUMPDEST PUSH2 0x2147 JUMP JUMPDEST PUSH2 0x3E8 PUSH2 0x811 CALLDATASIZE PUSH1 0x4 PUSH2 0x4511 JUMP JUMPDEST PUSH2 0x241C JUMP JUMPDEST PUSH2 0x3E8 PUSH2 0x243A JUMP JUMPDEST PUSH2 0x4B5 PUSH2 0x82C CALLDATASIZE PUSH1 0x4 PUSH2 0x4511 JUMP JUMPDEST PUSH1 0x1 PUSH1 0x1 PUSH1 0xA0 SHL SUB SWAP2 DUP3 AND PUSH1 0x0 SWAP1 DUP2 MSTORE PUSH1 0xD PUSH1 0x20 SWAP1 DUP2 MSTORE PUSH1 0x40 DUP1 DUP4 KECCAK256 SWAP4 SWAP1 SWAP5 AND DUP3 MSTORE SWAP2 SWAP1 SWAP2 MSTORE KECCAK256 SLOAD SWAP1 JUMP JUMPDEST PUSH2 0x3E8 PUSH2 0x865 CALLDATASIZE PUSH1 0x4 PUSH2 0x4511 JUMP JUMPDEST PUSH2 0x2471 JUMP JUMPDEST PUSH2 0x3E8 PUSH2 0x878 CALLDATASIZE PUSH1 0x4 PUSH2 0x47F8 JUMP JUMPDEST PUSH2 0x248F JUMP JUMPDEST PUSH2 0x3E8 PUSH2 0x88B CALLDATASIZE PUSH1 0x4 PUSH2 0x47F8 JUMP JUMPDEST PUSH2 0x24F5 JUMP JUMPDEST PUSH2 0x3E8 PUSH2 0x89E CALLDATASIZE PUSH1 0x4 PUSH2 0x4641 JUMP JUMPDEST PUSH2 0x252B JUMP JUMPDEST PUSH2 0x3E8 PUSH2 0x8B1 CALLDATASIZE PUSH1 0x4 PUSH2 0x44D7 JUMP JUMPDEST PUSH2 0x26F4 JUMP JUMPDEST PUSH2 0x4B5 PUSH2 0x8C4 CALLDATASIZE PUSH1 0x4 PUSH2 0x4989 JUMP JUMPDEST PUSH2 0x278C JUMP JUMPDEST PUSH2 0x4B5 PUSH2 0x2878 JUMP JUMPDEST PUSH2 0x3E8 PUSH2 0x8DF CALLDATASIZE PUSH1 0x4 PUSH2 0x44D7 JUMP JUMPDEST PUSH2 0x2887 JUMP JUMPDEST PUSH2 0x8F7 PUSH2 0x8F2 CALLDATASIZE PUSH1 0x4 PUSH2 0x4511 JUMP JUMPDEST PUSH2 0x299E JUMP JUMPDEST PUSH1 0x40 MLOAD PUSH2 0x3FF SWAP7 SWAP6 SWAP5 SWAP4 SWAP3 SWAP2 SWAP1 PUSH2 0x4AFA JUMP JUMPDEST CALLER PUSH1 0x0 SWAP1 DUP2 MSTORE PUSH1 0x1A PUSH1 0x20 MSTORE PUSH1 0x40 SWAP1 KECCAK256 SLOAD PUSH1 0xFF AND PUSH2 0x95C JUMPI PUSH1 0x40 MLOAD PUSH3 0x461BCD PUSH1 0xE5 SHL DUP2 MSTORE PUSH1 0x20 PUSH1 0x4 DUP3 ADD MSTORE PUSH1 0xC PUSH1 0x24 DUP3 ADD MSTORE PUSH12 0x155B985D5D1A1BDC9A5E9959 PUSH1 0xA2 SHL PUSH1 0x44 DUP3 ADD MSTORE PUSH1 0x64 ADD JUMPDEST PUSH1 0x40 MLOAD DUP1 SWAP2 SUB SWAP1 REVERT JUMPDEST PUSH1 0x40 MLOAD DUP1 PUSH1 0x60 ADD PUSH1 0x40 MSTORE DUP1 DUP5 DUP5 DUP1 DUP1 PUSH1 0x1F ADD PUSH1 0x20 DUP1 SWAP2 DIV MUL PUSH1 0x20 ADD PUSH1 0x40 MLOAD SWAP1 DUP2 ADD PUSH1 0x40 MSTORE DUP1 SWAP4 SWAP3 SWAP2 SWAP1 DUP2 DUP2 MSTORE PUSH1 0x20 ADD DUP4 DUP4 DUP1 DUP3 DUP5 CALLDATACOPY PUSH1 0x0 SWAP3 ADD DUP3 SWAP1 MSTORE POP SWAP4 DUP6 MSTORE POP POP POP PUSH1 0x20 DUP1 DUP4 ADD DUP6 SWAP1 MSTORE TIMESTAMP PUSH1 0x40 SWAP4 DUP5 ADD MSTORE DUP8 DUP3 MSTORE PUSH1 0xE DUP2 MSTORE SWAP2 SWAP1 KECCAK256 DUP3 MLOAD DUP1 MLOAD SWAP2 SWAP3 PUSH2 0x9CD SWAP3 DUP5 SWAP3 SWAP1 SWAP2 ADD SWAP1 PUSH2 0x4244 JUMP JUMPDEST POP PUSH1 0x20 DUP3 DUP2 ADD MLOAD PUSH1 0x1 DUP4 ADD SSTORE PUSH1 0x40 SWAP3 DUP4 ADD MLOAD PUSH1 0x2 SWAP1 SWAP3 ADD SWAP2 SWAP1 SWAP2 SSTORE PUSH1 0x0 DUP4 DUP2 MSTORE PUSH1 0xF SWAP1 SWAP2 MSTORE KECCAK256 SLOAD PUSH2 0xA38 JUMPI PUSH1 0x10 DUP1 SLOAD PUSH1 0x1 DUP2 ADD DUP3 SSTORE PUSH32 0x1B6847DC741A1B0CD08D278845F9D819D87B734759AFB55FE2DE5CB82A9AE672 ADD DUP3 SWAP1 SSTORE SLOAD PUSH1 0x0 DUP3 DUP2 MSTORE PUSH1 0xF PUSH1 0x20 MSTORE PUSH1 0x40 SWAP1 KECCAK256 SSTORE JUMPDEST DUP4 PUSH32 0xB4C22D60CD550A815744F04E3FF5278BF19684565EE00E2B084041B6024BD6F6 DUP5 DUP5 DUP5 PUSH1 0x40 MLOAD PUSH2 0xA6C SWAP4 SWAP3 SWAP2 SWAP1 PUSH2 0x4D1D JUMP JUMPDEST PUSH1 0x40 MLOAD DUP1 SWAP2 SUB SWAP1 LOG2 POP POP POP POP JUMP JUMPDEST PUSH1 0x60 PUSH1 0x7 DUP1 SLOAD PUSH2 0xA89 SWAP1 PUSH2 0x4FD1 JUMP JUMPDEST DUP1 PUSH1 0x1F ADD PUSH1 0x20 DUP1 SWAP2 DIV MUL PUSH1 0x20 ADD PUSH1 0x40 MLOAD SWAP1 DUP2 ADD PUSH1 0x40 MSTORE DUP1 SWAP3 SWAP2 SWAP1 DUP2 DUP2 MSTORE PUSH1 0x20 ADD DUP3 DUP1 SLOAD PUSH2 0xAB5 SWAP1 PUSH2 0x4FD1 JUMP JUMPDEST DUP1 ISZERO PUSH2 0xB02 JUMPI DUP1 PUSH1 0x1F LT PUSH2 0xAD7 JUMPI PUSH2 0x100 DUP1 DUP4 SLOAD DIV MUL DUP4 MSTORE SWAP2 PUSH1 0x20 ADD SWAP2 PUSH2 0xB02 JUMP JUMPDEST DUP3 ADD SWAP2 SWAP1 PUSH1 0x0 MSTORE PUSH1 0x20 PUSH1 0x0 KECCAK256 SWAP1 JUMPDEST DUP2 SLOAD DUP2 MSTORE SWAP1 PUSH1 0x1 ADD SWAP1 PUSH1 0x20 ADD DUP1 DUP4 GT PUSH2 0xAE5 JUMPI DUP3 SWAP1 SUB PUSH1 0x1F AND DUP3 ADD SWAP2 JUMPDEST POP POP POP POP POP SWAP1 POP SWAP1 JUMP JUMPDEST PUSH1 0x0 PUSH1 0x1 PUSH1 0x1 PUSH1 0xA0 SHL SUB DUP4 AND PUSH2 0xB49 JUMPI PUSH1 0x40 MLOAD PUSH3 0x461BCD PUSH1 0xE5 SHL DUP2 MSTORE PUSH1 0x20 PUSH1 0x4 DUP3 ADD MSTORE PUSH1 0x2 PUSH1 0x24 DUP3 ADD MSTORE PUSH2 0x1A9B PUSH1 0xF1 SHL PUSH1 0x44 DUP3 ADD MSTORE PUSH1 0x64 ADD PUSH2 0x953 JUMP JUMPDEST CALLER PUSH1 0x0 DUP2 DUP2 MSTORE PUSH1 0xD PUSH1 0x20 SWAP1 DUP2 MSTORE PUSH1 0x40 DUP1 DUP4 KECCAK256 PUSH1 0x1 PUSH1 0x1 PUSH1 0xA0 SHL SUB DUP9 AND DUP1 DUP6 MSTORE SWAP1 DUP4 MSTORE SWAP3 DUP2 SWAP1 KECCAK256 DUP7 SWAP1 SSTORE MLOAD DUP6 DUP2 MSTORE SWAP2 SWAP3 SWAP2 PUSH32 0x8C5BE1E5EBEC7D5BD14F71427D1E84F3DD0314C0F7B2291E5B200AC8C7C3B925 SWAP2 ADD PUSH1 0x40 MLOAD DUP1 SWAP2 SUB SWAP1 LOG3 POP PUSH1 0x1 JUMPDEST SWAP3 SWAP2 POP POP JUMP JUMPDEST CALLER PUSH1 0x0 DUP2 DUP2 MSTORE PUSH1 0x1C PUSH1 0x20 SWAP1 DUP2 MSTORE PUSH1 0x40 DUP1 DUP4 KECCAK256 DUP7 DUP5 MSTORE DUP3 MSTORE DUP1 DUP4 KECCAK256 PUSH1 0x1 PUSH1 0x1 PUSH1 0xA0 SHL SUB DUP7 AND DUP1 DUP6 MSTORE SWAP3 MSTORE DUP1 DUP4 KECCAK256 DUP1 SLOAD PUSH1 0xFF NOT AND PUSH1 0x1 OR SWAP1 SSTORE MLOAD SWAP1 SWAP2 DUP6 SWAP2 PUSH32 0x3646A897C70797ECC134B0ADC32F471B07BF1D6F451133B0384BADAB531E3FD6 SWAP2 SWAP1 LOG4 POP POP JUMP JUMPDEST PUSH1 0x0 PUSH1 0x1 PUSH1 0x1 PUSH1 0xA0 SHL SUB DUP4 AND PUSH2 0xC4F JUMPI PUSH1 0x40 MLOAD PUSH3 0x461BCD PUSH1 0xE5 SHL DUP2 MSTORE PUSH1 0x20 PUSH1 0x4 DUP3 ADD MSTORE PUSH1 0x2 PUSH1 0x24 DUP3 ADD MSTORE PUSH2 0x1A9B PUSH1 0xF1 SHL PUSH1 0x44 DUP3 ADD MSTORE PUSH1 0x64 ADD PUSH2 0x953 JUMP JUMPDEST PUSH1 0x0 DUP5 DUP2 MSTORE PUSH1 0x1B PUSH1 0x20 SWAP1 DUP2 MSTORE PUSH1 0x40 DUP1 DUP4 KECCAK256 CALLER DUP1 DUP6 MSTORE SWAP1 DUP4 MSTORE DUP2 DUP5 KECCAK256 PUSH1 0x1 PUSH1 0x1 PUSH1 0xA0 SHL SUB DUP9 AND DUP1 DUP7 MSTORE SWAP1 DUP5 MSTORE SWAP4 DUP3 SWAP1 KECCAK256 DUP7 SWAP1 SSTORE SWAP1 MLOAD DUP6 DUP2 MSTORE SWAP1 SWAP2 DUP8 SWAP2 PUSH32 0xF061499AA77C2F6F5E25E34955A06623705344A88256CC861A121EC0BCE5CFEC SWAP2 ADD PUSH1 0x40 MLOAD DUP1 SWAP2 SUB SWAP1 LOG4 POP PUSH1 0x1 SWAP4 SWAP3 POP POP POP JUMP JUMPDEST CALLER PUSH1 0x0 DUP2 DUP2 MSTORE PUSH1 0x1C PUSH1 0x20 SWAP1 DUP2 MSTORE PUSH1 0x40 DUP1 DUP4 KECCAK256 DUP7 DUP5 MSTORE DUP3 MSTORE DUP1 DUP4 KECCAK256 PUSH1 0x1 PUSH1 0x1 PUSH1 0xA0 SHL SUB DUP7 AND DUP1 DUP6 MSTORE SWAP3 MSTORE DUP1 DUP4 KECCAK256 DUP1 SLOAD PUSH1 0xFF NOT AND SWAP1 SSTORE MLOAD SWAP1 SWAP2 DUP6 SWAP2 PUSH32 0x3B287C4F1BAB4DF949B33BCEACEF984F544DC5D5479930D00E4EE8C9D8DD96F2 SWAP2 SWAP1 LOG4 POP POP JUMP JUMPDEST PUSH1 0x2 SLOAD PUSH1 0x1 PUSH1 0x1 PUSH1 0xA0 SHL SUB AND CALLER EQ PUSH2 0xD4A JUMPI PUSH1 0x40 MLOAD PUSH3 0x461BCD PUSH1 0xE5 SHL DUP2 MSTORE PUSH1 0x4 ADD PUSH2 0x953 SWAP1 PUSH2 0x4E91 JUMP JUMPDEST PUSH2 0xD87 DUP4 DUP4 DUP4 DUP1 DUP1 PUSH1 0x20 MUL PUSH1 0x20 ADD PUSH1 0x40 MLOAD SWAP1 DUP2 ADD PUSH1 0x40 MSTORE DUP1 SWAP4 SWAP3 SWAP2 SWAP1 DUP2 DUP2 MSTORE PUSH1 0x20 ADD DUP4 DUP4 PUSH1 0x20 MUL DUP1 DUP3 DUP5 CALLDATACOPY PUSH1 0x0 SWAP3 ADD SWAP2 SWAP1 SWAP2 MSTORE POP PUSH2 0x2D14 SWAP3 POP POP POP JUMP JUMPDEST POP POP POP JUMP JUMPDEST ADDRESS PUSH1 0x0 DUP2 DUP2 MSTORE PUSH1 0x6 PUSH1 0x20 DUP2 DUP2 MSTORE PUSH1 0x40 DUP1 DUP5 KECCAK256 PUSH1 0x1 PUSH1 0x1 PUSH1 0xA0 SHL SUB DUP9 AND DUP6 MSTORE SWAP1 SWAP2 MSTORE DUP3 KECCAK256 ADD SLOAD SWAP1 SWAP2 SWAP1 DUP5 SWAP1 PUSH2 0xDD2 JUMPI PUSH1 0x40 MLOAD PUSH3 0x461BCD PUSH1 0xE5 SHL DUP2 MSTORE PUSH1 0x4 ADD PUSH2 0x953 SWAP1 PUSH2 0x4E0D JUMP JUMPDEST PUSH1 0x1 PUSH1 0x1 PUSH1 0xA0 SHL SUB DUP1 DUP4 AND PUSH1 0x0 SWAP1 DUP2 MSTORE PUSH1 0x6 PUSH1 0x20 DUP2 DUP2 MSTORE PUSH1 0x40 DUP1 DUP5 KECCAK256 SWAP5 DUP7 AND DUP5 MSTORE SWAP4 SWAP1 MSTORE SWAP2 SWAP1 KECCAK256 ADD SLOAD TIMESTAMP GT ISZERO PUSH2 0xE1A JUMPI PUSH1 0x40 MLOAD PUSH3 0x461BCD PUSH1 0xE5 SHL DUP2 MSTORE PUSH1 0x4 ADD PUSH2 0x953 SWAP1 PUSH2 0x4DB7 JUMP JUMPDEST PUSH2 0xE24 CALLER DUP8 PUSH2 0x2E37 JUMP JUMPDEST DUP1 PUSH2 0xE52 JUMPI POP PUSH1 0x1 PUSH1 0x1 PUSH1 0xA0 SHL SUB DUP7 AND PUSH1 0x0 SWAP1 DUP2 MSTORE PUSH1 0xD PUSH1 0x20 SWAP1 DUP2 MSTORE PUSH1 0x40 DUP1 DUP4 KECCAK256 CALLER DUP5 MSTORE SWAP1 SWAP2 MSTORE SWAP1 KECCAK256 SLOAD DUP5 GT ISZERO JUMPDEST PUSH2 0xE6E JUMPI PUSH1 0x40 MLOAD PUSH3 0x461BCD PUSH1 0xE5 SHL DUP2 MSTORE PUSH1 0x4 ADD PUSH2 0x953 SWAP1 PUSH2 0x4EC6 JUMP JUMPDEST PUSH1 0x1 PUSH1 0x1 PUSH1 0xA0 SHL SUB DUP7 AND PUSH1 0x0 SWAP1 DUP2 MSTORE PUSH1 0xD PUSH1 0x20 SWAP1 DUP2 MSTORE PUSH1 0x40 DUP1 DUP4 KECCAK256 CALLER DUP5 MSTORE SWAP1 SWAP2 MSTORE SWAP1 KECCAK256 SLOAD DUP5 GT PUSH2 0xEEF JUMPI PUSH1 0x1 PUSH1 0x1 PUSH1 0xA0 SHL SUB DUP7 AND PUSH1 0x0 SWAP1 DUP2 MSTORE PUSH1 0xD PUSH1 0x20 SWAP1 DUP2 MSTORE PUSH1 0x40 DUP1 DUP4 KECCAK256 CALLER DUP5 MSTORE SWAP1 SWAP2 MSTORE SWAP1 KECCAK256 SLOAD PUSH2 0xEC6 SWAP1 DUP6 PUSH2 0x2EB6 JUMP JUMPDEST PUSH1 0x1 PUSH1 0x1 PUSH1 0xA0 SHL SUB DUP8 AND PUSH1 0x0 SWAP1 DUP2 MSTORE PUSH1 0xD PUSH1 0x20 SWAP1 DUP2 MSTORE PUSH1 0x40 DUP1 DUP4 KECCAK256 CALLER DUP5 MSTORE SWAP1 SWAP2 MSTORE SWAP1 KECCAK256 SSTORE PUSH2 0xF14 JUMP JUMPDEST PUSH1 0x1 PUSH1 0x1 PUSH1 0xA0 SHL SUB DUP7 AND PUSH1 0x0 SWAP1 DUP2 MSTORE PUSH1 0xD PUSH1 0x20 SWAP1 DUP2 MSTORE PUSH1 0x40 DUP1 DUP4 KECCAK256 CALLER DUP5 MSTORE SWAP1 SWAP2 MSTORE DUP2 KECCAK256 SSTORE JUMPDEST PUSH2 0xF30 CALLER DUP8 DUP8 DUP8 PUSH1 0x40 MLOAD DUP1 PUSH1 0x20 ADD PUSH1 0x40 MSTORE DUP1 PUSH1 0x0 DUP2 MSTORE POP PUSH2 0x2EC2 JUMP JUMPDEST POP PUSH1 0x1 SWAP6 SWAP5 POP POP POP POP POP JUMP JUMPDEST PUSH1 0x0 DUP3 DUP2 MSTORE PUSH1 0x1 PUSH1 0x20 MSTORE PUSH1 0x40 DUP2 KECCAK256 SLOAD PUSH1 0xFF AND ISZERO PUSH2 0xF93 JUMPI PUSH1 0x40 MLOAD PUSH20 0x455243313832305F4143434550545F4D41474943 PUSH1 0x60 SHL PUSH1 0x20 DUP3 ADD MSTORE PUSH1 0x34 ADD PUSH1 0x40 MLOAD PUSH1 0x20 DUP2 DUP4 SUB SUB DUP2 MSTORE SWAP1 PUSH1 0x40 MSTORE DUP1 MLOAD SWAP1 PUSH1 0x20 ADD KECCAK256 SWAP1 POP PUSH2 0xBA8 JUMP JUMPDEST POP PUSH1 0x0 PUSH2 0xBA8 JUMP JUMPDEST ADDRESS PUSH1 0x0 DUP2 DUP2 MSTORE PUSH1 0x6 PUSH1 0x20 DUP2 DUP2 MSTORE PUSH1 0x40 DUP1 DUP5 KECCAK256 PUSH1 0x1 PUSH1 0x1 PUSH1 0xA0 SHL SUB DUP11 AND DUP6 MSTORE SWAP1 SWAP2 MSTORE SWAP1 SWAP2 KECCAK256 ADD SLOAD DUP6 SWAP1 PUSH2 0xFDF JUMPI PUSH1 0x40 MLOAD PUSH3 0x461BCD PUSH1 0xE5 SHL DUP2 MSTORE PUSH1 0x4 ADD PUSH2 0x953 SWAP1 PUSH2 0x4E0D JUMP JUMPDEST PUSH1 0x1 PUSH1 0x1 PUSH1 0xA0 SHL SUB DUP1 DUP4 AND PUSH1 0x0 SWAP1 DUP2 MSTORE PUSH1 0x6 PUSH1 0x20 DUP2 DUP2 MSTORE PUSH1 0x40 DUP1 DUP5 KECCAK256 SWAP5 DUP7 AND DUP5 MSTORE SWAP4 SWAP1 MSTORE SWAP2 SWAP1 KECCAK256 ADD SLOAD TIMESTAMP GT ISZERO PUSH2 0x1027 JUMPI PUSH1 0x40 MLOAD PUSH3 0x461BCD PUSH1 0xE5 SHL DUP2 MSTORE PUSH1 0x4 ADD PUSH2 0x953 SWAP1 PUSH2 0x4DB7 JUMP JUMPDEST PUSH2 0x106A CALLER CALLER DUP9 DUP9 DUP9 DUP9 DUP1 DUP1 PUSH1 0x1F ADD PUSH1 0x20 DUP1 SWAP2 DIV MUL PUSH1 0x20 ADD PUSH1 0x40 MLOAD SWAP1 DUP2 ADD PUSH1 0x40 MSTORE DUP1 SWAP4 SWAP3 SWAP2 SWAP1 DUP2 DUP2 MSTORE PUSH1 0x20 ADD DUP4 DUP4 DUP1 DUP3 DUP5 CALLDATACOPY PUSH1 0x0 SWAP3 ADD SWAP2 SWAP1 SWAP2 MSTORE POP PUSH2 0x2EC2 SWAP3 POP POP POP JUMP JUMPDEST POP POP POP POP POP POP JUMP JUMPDEST PUSH2 0x107B CALLER PUSH2 0x1E97 JUMP JUMPDEST DUP1 PUSH2 0x1090 JUMPI POP PUSH1 0x2 SLOAD PUSH1 0x1 PUSH1 0x1 PUSH1 0xA0 SHL SUB AND CALLER EQ JUMPDEST PUSH2 0x1099 JUMPI PUSH1 0x0 DUP1 REVERT JUMPDEST PUSH2 0x10A2 DUP2 PUSH2 0x3007 JUMP JUMPDEST POP JUMP JUMPDEST DUP6 PUSH2 0x10B0 DUP2 CALLER PUSH2 0x1C4F JUMP JUMPDEST PUSH2 0x10B9 JUMPI PUSH1 0x0 DUP1 REVERT JUMPDEST PUSH1 0x0 DUP6 CALLER PUSH1 0x40 MLOAD PUSH1 0x20 ADD PUSH2 0x10CE SWAP3 SWAP2 SWAP1 PUSH2 0x4AC3 JUMP JUMPDEST PUSH1 0x40 MLOAD PUSH1 0x20 DUP2 DUP4 SUB SUB DUP2 MSTORE SWAP1 PUSH1 0x40 MSTORE DUP1 MLOAD SWAP1 PUSH1 0x20 ADD KECCAK256 SWAP1 POP PUSH1 0x0 TIMESTAMP SWAP1 POP PUSH1 0x0 PUSH1 0x40 MLOAD DUP1 PUSH1 0xE0 ADD PUSH1 0x40 MSTORE DUP1 DUP5 DUP2 MSTORE PUSH1 0x20 ADD CALLER PUSH1 0x1 PUSH1 0x1 PUSH1 0xA0 SHL SUB AND DUP2 MSTORE PUSH1 0x20 ADD DUP10 DUP2 MSTORE PUSH1 0x20 ADD DUP9 DUP2 MSTORE PUSH1 0x20 ADD DUP7 DUP2 MSTORE PUSH1 0x20 ADD DUP4 DUP2 MSTORE PUSH1 0x20 ADD DUP8 DUP2 MSTORE POP SWAP1 POP DUP1 PUSH1 0x6 PUSH1 0x0 DUP13 PUSH1 0x1 PUSH1 0x1 PUSH1 0xA0 SHL SUB AND PUSH1 0x1 PUSH1 0x1 PUSH1 0xA0 SHL SUB AND DUP2 MSTORE PUSH1 0x20 ADD SWAP1 DUP2 MSTORE PUSH1 0x20 ADD PUSH1 0x0 KECCAK256 PUSH1 0x0 DUP12 PUSH1 0x1 PUSH1 0x1 PUSH1 0xA0 SHL SUB AND PUSH1 0x1 PUSH1 0x1 PUSH1 0xA0 SHL SUB AND DUP2 MSTORE PUSH1 0x20 ADD SWAP1 DUP2 MSTORE PUSH1 0x20 ADD PUSH1 0x0 KECCAK256 PUSH1 0x0 DUP3 ADD MLOAD DUP2 PUSH1 0x0 ADD SSTORE PUSH1 0x20 DUP3 ADD MLOAD DUP2 PUSH1 0x1 ADD PUSH1 0x0 PUSH2 0x100 EXP DUP2 SLOAD DUP2 PUSH1 0x1 PUSH1 0x1 PUSH1 0xA0 SHL SUB MUL NOT AND SWAP1 DUP4 PUSH1 0x1 PUSH1 0x1 PUSH1 0xA0 SHL SUB AND MUL OR SWAP1 SSTORE POP PUSH1 0x40 DUP3 ADD MLOAD DUP2 PUSH1 0x2 ADD SWAP1 DUP1 MLOAD SWAP1 PUSH1 0x20 ADD SWAP1 PUSH2 0x11C7 SWAP3 SWAP2 SWAP1 PUSH2 0x4244 JUMP JUMPDEST POP PUSH1 0x60 DUP3 ADD MLOAD DUP1 MLOAD PUSH2 0x11E3 SWAP2 PUSH1 0x3 DUP5 ADD SWAP2 PUSH1 0x20 SWAP1 SWAP2 ADD SWAP1 PUSH2 0x4244 JUMP JUMPDEST POP PUSH1 0x80 DUP3 ADD MLOAD DUP1 MLOAD PUSH2 0x11FF SWAP2 PUSH1 0x4 DUP5 ADD SWAP2 PUSH1 0x20 SWAP1 SWAP2 ADD SWAP1 PUSH2 0x4244 JUMP JUMPDEST POP PUSH1 0xA0 DUP3 ADD MLOAD DUP2 PUSH1 0x5 ADD SSTORE PUSH1 0xC0 DUP3 ADD MLOAD DUP2 PUSH1 0x6 ADD SSTORE SWAP1 POP POP DUP9 PUSH1 0x1 PUSH1 0x1 PUSH1 0xA0 SHL SUB AND PUSH32 0x1FAD50941735B669815E8B75438E2EC5F3914F85866CF259EA96B8971E283F55 DUP5 DUP8 PUSH1 0x40 MLOAD PUSH2 0x1252 SWAP3 SWAP2 SWAP1 PUSH2 0x4C8A JUMP JUMPDEST PUSH1 0x40 MLOAD DUP1 SWAP2 SUB SWAP1 LOG2 POP POP POP POP POP POP POP POP POP POP JUMP JUMPDEST PUSH2 0x10A2 DUP2 CALLER PUSH2 0x3049 JUMP JUMPDEST PUSH1 0x2 SLOAD PUSH1 0x0 SWAP1 PUSH1 0x1 PUSH1 0x1 PUSH1 0xA0 SHL SUB AND CALLER EQ PUSH2 0x129D JUMPI PUSH1 0x40 MLOAD PUSH3 0x461BCD PUSH1 0xE5 SHL DUP2 MSTORE PUSH1 0x4 ADD PUSH2 0x953 SWAP1 PUSH2 0x4E91 JUMP JUMPDEST PUSH2 0x12CB PUSH1 0x40 MLOAD DUP1 PUSH1 0x40 ADD PUSH1 0x40 MSTORE DUP1 PUSH1 0xC DUP2 MSTORE PUSH1 0x20 ADD PUSH12 0x22A921989A18182A37B5B2B7 PUSH1 0xA1 SHL DUP2 MSTORE POP ADDRESS PUSH2 0x30AF JUMP JUMPDEST PUSH2 0x12F7 PUSH1 0x40 MLOAD DUP1 PUSH1 0x40 ADD PUSH1 0x40 MSTORE DUP1 PUSH1 0xA DUP2 MSTORE PUSH1 0x20 ADD PUSH10 0x22A92199182A37B5B2B7 PUSH1 0xB1 SHL DUP2 MSTORE POP ADDRESS PUSH2 0x30AF JUMP JUMPDEST POP PUSH1 0x1 SWAP1 JUMP JUMPDEST PUSH2 0x1306 CALLER PUSH2 0x1E97 JUMP JUMPDEST DUP1 PUSH2 0x131B JUMPI POP PUSH1 0x2 SLOAD PUSH1 0x1 PUSH1 0x1 PUSH1 0xA0 SHL SUB AND CALLER EQ JUMPDEST PUSH2 0x1324 JUMPI PUSH1 0x0 DUP1 REVERT JUMPDEST PUSH1 0xB SLOAD PUSH3 0x10000 SWAP1 DIV PUSH1 0xFF AND PUSH2 0x134C JUMPI PUSH1 0x40 MLOAD PUSH3 0x461BCD PUSH1 0xE5 SHL DUP2 MSTORE PUSH1 0x4 ADD PUSH2 0x953 SWAP1 PUSH2 0x4E75 JUMP JUMPDEST ADDRESS PUSH1 0x0 DUP2 DUP2 MSTORE PUSH1 0x6 PUSH1 0x20 DUP2 DUP2 MSTORE PUSH1 0x40 DUP1 DUP5 KECCAK256 PUSH1 0x1 PUSH1 0x1 PUSH1 0xA0 SHL SUB DUP11 AND DUP6 MSTORE SWAP1 SWAP2 MSTORE SWAP1 SWAP2 KECCAK256 ADD SLOAD DUP6 SWAP1 PUSH2 0x1390 JUMPI PUSH1 0x40 MLOAD PUSH3 0x461BCD PUSH1 0xE5 SHL DUP2 MSTORE PUSH1 0x4 ADD PUSH2 0x953 SWAP1 PUSH2 0x4E0D JUMP JUMPDEST PUSH1 0x1 PUSH1 0x1 PUSH1 0xA0 SHL SUB DUP1 DUP4 AND PUSH1 0x0 SWAP1 DUP2 MSTORE PUSH1 0x6 PUSH1 0x20 DUP2 DUP2 MSTORE PUSH1 0x40 DUP1 DUP5 KECCAK256 SWAP5 DUP7 AND DUP5 MSTORE SWAP4 SWAP1 MSTORE SWAP2 SWAP1 KECCAK256 ADD SLOAD TIMESTAMP GT ISZERO PUSH2 0x13D8 JUMPI PUSH1 0x40 MLOAD PUSH3 0x461BCD PUSH1 0xE5 SHL DUP2 MSTORE PUSH1 0x4 ADD PUSH2 0x953 SWAP1 PUSH2 0x4DB7 JUMP JUMPDEST PUSH2 0x141B DUP8 CALLER DUP9 DUP9 DUP9 DUP9 DUP1 DUP1 PUSH1 0x1F ADD PUSH1 0x20 DUP1 SWAP2 DIV MUL PUSH1 0x20 ADD PUSH1 0x40 MLOAD SWAP1 DUP2 ADD PUSH1 0x40 MSTORE DUP1 SWAP4 SWAP3 SWAP2 SWAP1 DUP2 DUP2 MSTORE PUSH1 0x20 ADD DUP4 DUP4 DUP1 DUP3 DUP5 CALLDATACOPY PUSH1 0x0 SWAP3 ADD SWAP2 SWAP1 SWAP2 MSTORE POP PUSH2 0x3141 SWAP3 POP POP POP JUMP JUMPDEST POP POP POP POP POP POP POP JUMP JUMPDEST PUSH1 0x60 PUSH1 0x11 DUP1 SLOAD DUP1 PUSH1 0x20 MUL PUSH1 0x20 ADD PUSH1 0x40 MLOAD SWAP1 DUP2 ADD PUSH1 0x40 MSTORE DUP1 SWAP3 SWAP2 SWAP1 DUP2 DUP2 MSTORE PUSH1 0x20 ADD DUP3 DUP1 SLOAD DUP1 ISZERO PUSH2 0xB02 JUMPI PUSH1 0x20 MUL DUP3 ADD SWAP2 SWAP1 PUSH1 0x0 MSTORE PUSH1 0x20 PUSH1 0x0 KECCAK256 SWAP1 JUMPDEST DUP2 SLOAD DUP2 MSTORE PUSH1 0x20 ADD SWAP1 PUSH1 0x1 ADD SWAP1 DUP1 DUP4 GT PUSH2 0x145E JUMPI POP POP POP POP POP SWAP1 POP SWAP1 JUMP JUMPDEST PUSH1 0x2 SLOAD PUSH1 0x0 SWAP1 PUSH1 0x1 PUSH1 0x1 PUSH1 0xA0 SHL SUB AND CALLER EQ PUSH2 0x14A8 JUMPI PUSH1 0x40 MLOAD PUSH3 0x461BCD PUSH1 0xE5 SHL DUP2 MSTORE PUSH1 0x4 ADD PUSH2 0x953 SWAP1 PUSH2 0x4E91 JUMP JUMPDEST PUSH1 0xB SLOAD PUSH4 0x1000000 SWAP1 DIV PUSH1 0xFF AND PUSH2 0x1501 JUMPI PUSH1 0x40 MLOAD PUSH3 0x461BCD PUSH1 0xE5 SHL DUP2 MSTORE PUSH1 0x20 PUSH1 0x4 DUP3 ADD MSTORE PUSH1 0x1D PUSH1 0x24 DUP3 ADD MSTORE PUSH32 0x52656769737465722068617320616C7265616479206265656E20736574000000 PUSH1 0x44 DUP3 ADD MSTORE PUSH1 0x64 ADD PUSH2 0x953 JUMP JUMPDEST PUSH1 0x0 DUP1 SLOAD PUSH1 0x1 PUSH1 0x1 PUSH1 0xA0 SHL SUB NOT AND PUSH1 0x1 PUSH1 0x1 PUSH1 0xA0 SHL SUB SWAP4 SWAP1 SWAP4 AND SWAP3 SWAP1 SWAP3 OR SWAP1 SWAP2 SSTORE PUSH1 0xB DUP1 SLOAD PUSH4 0xFF000000 NOT AND SWAP1 SSTORE SWAP1 JUMP JUMPDEST PUSH1 0x0 PUSH2 0x153F DUP5 DUP5 DUP5 PUSH2 0x31EB JUMP JUMPDEST SWAP5 SWAP4 POP POP POP POP JUMP JUMPDEST PUSH1 0x2 SLOAD PUSH1 0x1 PUSH1 0x1 PUSH1 0xA0 SHL SUB AND CALLER EQ PUSH2 0x1571 JUMPI PUSH1 0x40 MLOAD PUSH3 0x461BCD PUSH1 0xE5 SHL DUP2 MSTORE PUSH1 0x4 ADD PUSH2 0x953 SWAP1 PUSH2 0x4E91 JUMP JUMPDEST PUSH2 0x157B PUSH1 0x0 PUSH2 0x3274 JUMP JUMPDEST JUMP JUMPDEST PUSH1 0x1 PUSH1 0x1 PUSH1 0xA0 SHL SUB DUP2 AND PUSH1 0x0 SWAP1 DUP2 MSTORE PUSH1 0x14 PUSH1 0x20 SWAP1 DUP2 MSTORE PUSH1 0x40 SWAP2 DUP3 SWAP1 KECCAK256 DUP1 SLOAD DUP4 MLOAD DUP2 DUP5 MUL DUP2 ADD DUP5 ADD SWAP1 SWAP5 MSTORE DUP1 DUP5 MSTORE PUSH1 0x60 SWAP4 SWAP3 DUP4 ADD DUP3 DUP3 DUP1 ISZERO PUSH2 0x15DD JUMPI PUSH1 0x20 MUL DUP3 ADD SWAP2 SWAP1 PUSH1 0x0 MSTORE PUSH1 0x20 PUSH1 0x0 KECCAK256 SWAP1 JUMPDEST DUP2 SLOAD DUP2 MSTORE PUSH1 0x20 ADD SWAP1 PUSH1 0x1 ADD SWAP1 DUP1 DUP4 GT PUSH2 0x15C9 JUMPI JUMPDEST POP POP POP POP POP SWAP1 POP SWAP2 SWAP1 POP JUMP JUMPDEST PUSH1 0x60 PUSH1 0x19 DUP1 SLOAD DUP1 PUSH1 0x20 MUL PUSH1 0x20 ADD PUSH1 0x40 MLOAD SWAP1 DUP2 ADD PUSH1 0x40 MSTORE DUP1 SWAP3 SWAP2 SWAP1 DUP2 DUP2 MSTORE PUSH1 0x20 ADD DUP3 DUP1 SLOAD DUP1 ISZERO PUSH2 0xB02 JUMPI PUSH1 0x20 MUL DUP3 ADD SWAP2 SWAP1 PUSH1 0x0 MSTORE PUSH1 0x20 PUSH1 0x0 KECCAK256 SWAP1 JUMPDEST DUP2 SLOAD PUSH1 0x1 PUSH1 0x1 PUSH1 0xA0 SHL SUB AND DUP2 MSTORE PUSH1 0x1 SWAP1 SWAP2 ADD SWAP1 PUSH1 0x20 ADD DUP1 DUP4 GT PUSH2 0x1623 JUMPI POP POP POP POP POP SWAP1 POP SWAP1 JUMP JUMPDEST PUSH1 0x0 DUP2 DUP2 MSTORE PUSH1 0x1D PUSH1 0x20 SWAP1 DUP2 MSTORE PUSH1 0x40 SWAP2 DUP3 SWAP1 KECCAK256 DUP1 SLOAD DUP4 MLOAD DUP2 DUP5 MUL DUP2 ADD DUP5 ADD SWAP1 SWAP5 MSTORE DUP1 DUP5 MSTORE PUSH1 0x60 SWAP4 SWAP3 DUP4 ADD DUP3 DUP3 DUP1 ISZERO PUSH2 0x15DD JUMPI PUSH1 0x20 MUL DUP3 ADD SWAP2 SWAP1 PUSH1 0x0 MSTORE PUSH1 0x20 PUSH1 0x0 KECCAK256 SWAP1 JUMPDEST DUP2 SLOAD PUSH1 0x1 PUSH1 0x1 PUSH1 0xA0 SHL SUB AND DUP2 MSTORE PUSH1 0x1 SWAP1 SWAP2 ADD SWAP1 PUSH1 0x20 ADD DUP1 DUP4 GT PUSH2 0x168C JUMPI POP POP POP POP POP SWAP1 POP SWAP2 SWAP1 POP JUMP JUMPDEST PUSH1 0x6 PUSH1 0x20 SWAP1 DUP2 MSTORE PUSH1 0x0 SWAP3 DUP4 MSTORE PUSH1 0x40 DUP1 DUP5 KECCAK256 SWAP1 SWAP2 MSTORE SWAP1 DUP3 MSTORE SWAP1 KECCAK256 DUP1 SLOAD PUSH1 0x1 DUP3 ADD SLOAD PUSH1 0x2 DUP4 ADD DUP1 SLOAD SWAP3 SWAP4 PUSH1 0x1 PUSH1 0x1 PUSH1 0xA0 SHL SUB SWAP1 SWAP3 AND SWAP3 PUSH2 0x16F2 SWAP1 PUSH2 0x4FD1 JUMP JUMPDEST DUP1 PUSH1 0x1F ADD PUSH1 0x20 DUP1 SWAP2 DIV MUL PUSH1 0x20 ADD PUSH1 0x40 MLOAD SWAP1 DUP2 ADD PUSH1 0x40 MSTORE DUP1 SWAP3 SWAP2 SWAP1 DUP2 DUP2 MSTORE PUSH1 0x20 ADD DUP3 DUP1 SLOAD PUSH2 0x171E SWAP1 PUSH2 0x4FD1 JUMP JUMPDEST DUP1 ISZERO PUSH2 0x176B JUMPI DUP1 PUSH1 0x1F LT PUSH2 0x1740 JUMPI PUSH2 0x100 DUP1 DUP4 SLOAD DIV MUL DUP4 MSTORE SWAP2 PUSH1 0x20 ADD SWAP2 PUSH2 0x176B JUMP JUMPDEST DUP3 ADD SWAP2 SWAP1 PUSH1 0x0 MSTORE PUSH1 0x20 PUSH1 0x0 KECCAK256 SWAP1 JUMPDEST DUP2 SLOAD DUP2 MSTORE SWAP1 PUSH1 0x1 ADD SWAP1 PUSH1 0x20 ADD DUP1 DUP4 GT PUSH2 0x174E JUMPI DUP3 SWAP1 SUB PUSH1 0x1F AND DUP3 ADD SWAP2 JUMPDEST POP POP POP POP POP SWAP1 DUP1 PUSH1 0x3 ADD DUP1 SLOAD PUSH2 0x1780 SWAP1 PUSH2 0x4FD1 JUMP JUMPDEST DUP1 PUSH1 0x1F ADD PUSH1 0x20 DUP1 SWAP2 DIV MUL PUSH1 0x20 ADD PUSH1 0x40 MLOAD SWAP1 DUP2 ADD PUSH1 0x40 MSTORE DUP1 SWAP3 SWAP2 SWAP1 DUP2 DUP2 MSTORE PUSH1 0x20 ADD DUP3 DUP1 SLOAD PUSH2 0x17AC SWAP1 PUSH2 0x4FD1 JUMP JUMPDEST DUP1 ISZERO PUSH2 0x17F9 JUMPI DUP1 PUSH1 0x1F LT PUSH2 0x17CE JUMPI PUSH2 0x100 DUP1 DUP4 SLOAD DIV MUL DUP4 MSTORE SWAP2 PUSH1 0x20 ADD SWAP2 PUSH2 0x17F9 JUMP JUMPDEST DUP3 ADD SWAP2 SWAP1 PUSH1 0x0 MSTORE PUSH1 0x20 PUSH1 0x0 KECCAK256 SWAP1 JUMPDEST DUP2 SLOAD DUP2 MSTORE SWAP1 PUSH1 0x1 ADD SWAP1 PUSH1 0x20 ADD DUP1 DUP4 GT PUSH2 0x17DC JUMPI DUP3 SWAP1 SUB PUSH1 0x1F AND DUP3 ADD SWAP2 JUMPDEST POP POP POP POP POP SWAP1 DUP1 PUSH1 0x4 ADD DUP1 SLOAD PUSH2 0x180E SWAP1 PUSH2 0x4FD1 JUMP JUMPDEST DUP1 PUSH1 0x1F ADD PUSH1 0x20 DUP1 SWAP2 DIV MUL PUSH1 0x20 ADD PUSH1 0x40 MLOAD SWAP1 DUP2 ADD PUSH1 0x40 MSTORE DUP1 SWAP3 SWAP2 SWAP1 DUP2 DUP2 MSTORE PUSH1 0x20 ADD DUP3 DUP1 SLOAD PUSH2 0x183A SWAP1 PUSH2 0x4FD1 JUMP JUMPDEST DUP1 ISZERO PUSH2 0x1887 JUMPI DUP1 PUSH1 0x1F LT PUSH2 0x185C JUMPI PUSH2 0x100 DUP1 DUP4 SLOAD DIV MUL DUP4 MSTORE SWAP2 PUSH1 0x20 ADD SWAP2 PUSH2 0x1887 JUMP JUMPDEST DUP3 ADD SWAP2 SWAP1 PUSH1 0x0 MSTORE PUSH1 0x20 PUSH1 0x0 KECCAK256 SWAP1 JUMPDEST DUP2 SLOAD DUP2 MSTORE SWAP1 PUSH1 0x1 ADD SWAP1 PUSH1 0x20 ADD DUP1 DUP4 GT PUSH2 0x186A JUMPI DUP3 SWAP1 SUB PUSH1 0x1F AND DUP3 ADD SWAP2 JUMPDEST POP POP POP POP POP SWAP1 DUP1 PUSH1 0x5 ADD SLOAD SWAP1 DUP1 PUSH1 0x6 ADD SLOAD SWAP1 POP DUP8 JUMP JUMPDEST ADDRESS PUSH1 0x0 DUP2 DUP2 MSTORE PUSH1 0x6 PUSH1 0x20 DUP2 DUP2 MSTORE PUSH1 0x40 DUP1 DUP5 KECCAK256 PUSH1 0x1 PUSH1 0x1 PUSH1 0xA0 SHL SUB DUP13 AND DUP6 MSTORE SWAP1 SWAP2 MSTORE DUP3 KECCAK256 ADD SLOAD SWAP1 SWAP2 SWAP1 DUP9 SWAP1 PUSH2 0x18E3 JUMPI PUSH1 0x40 MLOAD PUSH3 0x461BCD PUSH1 0xE5 SHL DUP2 MSTORE PUSH1 0x4 ADD PUSH2 0x953 SWAP1 PUSH2 0x4E0D JUMP JUMPDEST PUSH1 0x1 PUSH1 0x1 PUSH1 0xA0 SHL SUB DUP1 DUP4 AND PUSH1 0x0 SWAP1 DUP2 MSTORE PUSH1 0x6 PUSH1 0x20 DUP2 DUP2 MSTORE PUSH1 0x40 DUP1 DUP5 KECCAK256 SWAP5 DUP7 AND DUP5 MSTORE SWAP4 SWAP1 MSTORE SWAP2 SWAP1 KECCAK256 ADD SLOAD TIMESTAMP GT ISZERO PUSH2 0x192B JUMPI PUSH1 0x40 MLOAD PUSH3 0x461BCD PUSH1 0xE5 SHL DUP2 MSTORE PUSH1 0x4 ADD PUSH2 0x953 SWAP1 PUSH2 0x4DB7 JUMP JUMPDEST PUSH2 0x1936 DUP12 CALLER DUP13 PUSH2 0x31EB JUMP JUMPDEST DUP1 PUSH2 0x196B JUMPI POP PUSH1 0x0 DUP12 DUP2 MSTORE PUSH1 0x1B PUSH1 0x20 SWAP1 DUP2 MSTORE PUSH1 0x40 DUP1 DUP4 KECCAK256 PUSH1 0x1 PUSH1 0x1 PUSH1 0xA0 SHL SUB DUP15 AND DUP5 MSTORE DUP3 MSTORE DUP1 DUP4 KECCAK256 CALLER DUP5 MSTORE SWAP1 SWAP2 MSTORE SWAP1 KECCAK256 SLOAD DUP9 GT ISZERO JUMPDEST PUSH2 0x1987 JUMPI PUSH1 0x40 MLOAD PUSH3 0x461BCD PUSH1 0xE5 SHL DUP2 MSTORE PUSH1 0x4 ADD PUSH2 0x953 SWAP1 PUSH2 0x4EC6 JUMP JUMPDEST PUSH1 0x0 DUP12 DUP2 MSTORE PUSH1 0x1B PUSH1 0x20 SWAP1 DUP2 MSTORE PUSH1 0x40 DUP1 DUP4 KECCAK256 PUSH1 0x1 PUSH1 0x1 PUSH1 0xA0 SHL SUB DUP15 AND DUP5 MSTORE DUP3 MSTORE DUP1 DUP4 KECCAK256 CALLER DUP5 MSTORE SWAP1 SWAP2 MSTORE SWAP1 KECCAK256 SLOAD DUP9 GT PUSH2 0x1A1D JUMPI PUSH1 0x0 DUP12 DUP2 MSTORE PUSH1 0x1B PUSH1 0x20 SWAP1 DUP2 MSTORE PUSH1 0x40 DUP1 DUP4 KECCAK256 PUSH1 0x1 PUSH1 0x1 PUSH1 0xA0 SHL SUB DUP15 AND DUP5 MSTORE DUP3 MSTORE DUP1 DUP4 KECCAK256 CALLER DUP5 MSTORE SWAP1 SWAP2 MSTORE SWAP1 KECCAK256 SLOAD PUSH2 0x19ED SWAP1 DUP10 PUSH2 0x2EB6 JUMP JUMPDEST PUSH1 0x0 DUP13 DUP2 MSTORE PUSH1 0x1B PUSH1 0x20 SWAP1 DUP2 MSTORE PUSH1 0x40 DUP1 DUP4 KECCAK256 PUSH1 0x1 PUSH1 0x1 PUSH1 0xA0 SHL SUB DUP16 AND DUP5 MSTORE DUP3 MSTORE DUP1 DUP4 KECCAK256 CALLER DUP5 MSTORE SWAP1 SWAP2 MSTORE SWAP1 KECCAK256 SSTORE PUSH2 0x1A49 JUMP JUMPDEST PUSH1 0x0 DUP12 DUP2 MSTORE PUSH1 0x1B PUSH1 0x20 SWAP1 DUP2 MSTORE PUSH1 0x40 DUP1 DUP4 KECCAK256 PUSH1 0x1 PUSH1 0x1 PUSH1 0xA0 SHL SUB DUP15 AND DUP5 MSTORE DUP3 MSTORE DUP1 DUP4 KECCAK256 CALLER DUP5 MSTORE SWAP1 SWAP2 MSTORE DUP2 KECCAK256 SSTORE JUMPDEST PUSH2 0x1AD2 DUP12 CALLER DUP13 DUP13 DUP13 DUP13 DUP13 DUP1 DUP1 PUSH1 0x1F ADD PUSH1 0x20 DUP1 SWAP2 DIV MUL PUSH1 0x20 ADD PUSH1 0x40 MLOAD SWAP1 DUP2 ADD PUSH1 0x40 MSTORE DUP1 SWAP4 SWAP3 SWAP2 SWAP1 DUP2 DUP2 MSTORE PUSH1 0x20 ADD DUP4 DUP4 DUP1 DUP3 DUP5 CALLDATACOPY PUSH1 0x0 DUP2 DUP5 ADD MSTORE PUSH1 0x1F NOT PUSH1 0x1F DUP3 ADD AND SWAP1 POP DUP1 DUP4 ADD SWAP3 POP POP POP POP POP POP POP DUP12 DUP12 DUP1 DUP1 PUSH1 0x1F ADD PUSH1 0x20 DUP1 SWAP2 DIV MUL PUSH1 0x20 ADD PUSH1 0x40 MLOAD SWAP1 DUP2 ADD PUSH1 0x40 MSTORE DUP1 SWAP4 SWAP3 SWAP2 SWAP1 DUP2 DUP2 MSTORE PUSH1 0x20 ADD DUP4 DUP4 DUP1 DUP3 DUP5 CALLDATACOPY PUSH1 0x0 SWAP3 ADD SWAP2 SWAP1 SWAP2 MSTORE POP PUSH2 0x32C6 SWAP3 POP POP POP JUMP JUMPDEST SWAP12 SWAP11 POP POP POP POP POP POP POP POP POP POP POP JUMP JUMPDEST PUSH1 0x2 SLOAD PUSH1 0x1 PUSH1 0x1 PUSH1 0xA0 SHL SUB AND CALLER EQ PUSH2 0x1B0B JUMPI PUSH1 0x40 MLOAD PUSH3 0x461BCD PUSH1 0xE5 SHL DUP2 MSTORE PUSH1 0x4 ADD PUSH2 0x953 SWAP1 PUSH2 0x4E91 JUMP JUMPDEST PUSH2 0x1B15 DUP3 DUP3 PUSH2 0x341D JUMP JUMPDEST POP POP JUMP JUMPDEST PUSH1 0x1 PUSH1 0x1 PUSH1 0xA0 SHL SUB DUP2 AND CALLER EQ ISZERO PUSH2 0x1B2F JUMPI PUSH1 0x0 DUP1 REVERT JUMPDEST PUSH1 0x1 PUSH1 0x1 PUSH1 0xA0 SHL SUB DUP2 AND PUSH1 0x0 SWAP1 DUP2 MSTORE PUSH1 0x18 PUSH1 0x20 SWAP1 DUP2 MSTORE PUSH1 0x40 DUP1 DUP4 KECCAK256 CALLER DUP5 MSTORE DUP3 MSTORE DUP1 DUP4 KECCAK256 DUP1 SLOAD PUSH1 0xFF NOT AND PUSH1 0x1 SWAP1 DUP2 OR SWAP1 SWAP2 SSTORE PUSH1 0x1C SWAP1 SWAP3 MSTORE DUP3 KECCAK256 PUSH1 0x17 DUP1 SLOAD SWAP3 SWAP4 SWAP2 SWAP3 DUP3 SWAP1 PUSH2 0x1B7D JUMPI PUSH2 0x1B7D PUSH2 0x5053 JUMP JUMPDEST PUSH1 0x0 SWAP2 DUP3 MSTORE PUSH1 0x20 DUP1 DUP4 KECCAK256 SWAP2 SWAP1 SWAP2 ADD SLOAD DUP4 MSTORE DUP3 DUP2 ADD SWAP4 SWAP1 SWAP4 MSTORE PUSH1 0x40 SWAP2 DUP3 ADD DUP2 KECCAK256 PUSH1 0x1 PUSH1 0x1 PUSH1 0xA0 SHL SUB DUP7 AND DUP1 DUP4 MSTORE SWAP4 MSTORE SWAP1 DUP2 KECCAK256 DUP1 SLOAD PUSH1 0xFF NOT AND SWAP4 ISZERO ISZERO SWAP4 SWAP1 SWAP4 OR SWAP1 SWAP3 SSTORE PUSH1 0x17 DUP1 SLOAD CALLER SWAP4 SWAP1 PUSH2 0x1BD1 JUMPI PUSH2 0x1BD1 PUSH2 0x5053 JUMP JUMPDEST PUSH1 0x0 SWAP2 DUP3 MSTORE PUSH1 0x20 DUP3 KECCAK256 ADD SLOAD PUSH1 0x40 MLOAD SWAP1 SWAP2 PUSH32 0x3646A897C70797ECC134B0ADC32F471B07BF1D6F451133B0384BADAB531E3FD6 SWAP2 LOG4 POP JUMP JUMPDEST PUSH1 0x60 PUSH1 0x8 DUP1 SLOAD PUSH2 0xA89 SWAP1 PUSH2 0x4FD1 JUMP JUMPDEST PUSH2 0x1C1F CALLER PUSH2 0x1E97 JUMP JUMPDEST DUP1 PUSH2 0x1C34 JUMPI POP PUSH1 0x2 SLOAD PUSH1 0x1 PUSH1 0x1 PUSH1 0xA0 SHL SUB AND CALLER EQ JUMPDEST PUSH2 0x1C3D JUMPI PUSH1 0x0 DUP1 REVERT JUMPDEST PUSH2 0x10A2 DUP2 PUSH2 0x348E JUMP JUMPDEST PUSH2 0x157B CALLER PUSH2 0x3007 JUMP JUMPDEST PUSH1 0x1 PUSH1 0x1 PUSH1 0xA0 SHL SUB DUP3 AND PUSH1 0x0 SWAP1 DUP2 MSTORE PUSH1 0x5 PUSH1 0x20 MSTORE PUSH1 0x40 DUP2 KECCAK256 PUSH2 0x1C71 SWAP1 DUP4 PUSH2 0x34D0 JUMP JUMPDEST SWAP4 SWAP3 POP POP POP JUMP JUMPDEST PUSH1 0x60 PUSH1 0x10 DUP1 SLOAD DUP1 PUSH1 0x20 MUL PUSH1 0x20 ADD PUSH1 0x40 MLOAD SWAP1 DUP2 ADD PUSH1 0x40 MSTORE DUP1 SWAP3 SWAP2 SWAP1 DUP2 DUP2 MSTORE PUSH1 0x20 ADD DUP3 DUP1 SLOAD DUP1 ISZERO PUSH2 0xB02 JUMPI PUSH1 0x20 MUL DUP3 ADD SWAP2 SWAP1 PUSH1 0x0 MSTORE PUSH1 0x20 PUSH1 0x0 KECCAK256 SWAP1 DUP2 SLOAD DUP2 MSTORE PUSH1 0x20 ADD SWAP1 PUSH1 0x1 ADD SWAP1 DUP1 DUP4 GT PUSH2 0x145E JUMPI POP POP POP POP POP SWAP1 POP SWAP1 JUMP JUMPDEST PUSH1 0x2 SLOAD PUSH1 0x1 PUSH1 0x1 PUSH1 0xA0 SHL SUB AND CALLER EQ PUSH2 0x1CF8 JUMPI PUSH1 0x40 MLOAD PUSH3 0x461BCD PUSH1 0xE5 SHL DUP2 MSTORE PUSH1 0x4 ADD PUSH2 0x953 SWAP1 PUSH2 0x4E91 JUMP JUMPDEST PUSH2 0x106A DUP7 DUP7 DUP7 DUP1 DUP1 PUSH1 0x1F ADD PUSH1 0x20 DUP1 SWAP2 DIV MUL PUSH1 0x20 ADD PUSH1 0x40 MLOAD SWAP1 DUP2 ADD PUSH1 0x40 MSTORE DUP1 SWAP4 SWAP3 SWAP2 SWAP1 DUP2 DUP2 MSTORE PUSH1 0x20 ADD DUP4 DUP4 DUP1 DUP3 DUP5 CALLDATACOPY PUSH1 0x0 SWAP3 ADD SWAP2 SWAP1 SWAP2 MSTORE POP DUP9 SWAP3 POP DUP8 SWAP2 POP DUP7 SWAP1 POP PUSH2 0x3553 JUMP JUMPDEST PUSH1 0x0 CHAINID DUP2 PUSH32 0x8B73C3C69BB8FE3D512ECC4CF759CC79239F7B179B0FFACAA9A75D522B39400F PUSH2 0x1D6A PUSH2 0xA7A JUMP JUMPDEST DUP1 MLOAD SWAP1 PUSH1 0x20 ADD KECCAK256 PUSH2 0x1D8F PUSH1 0x40 DUP1 MLOAD DUP1 DUP3 ADD SWAP1 SWAP2 MSTORE PUSH1 0x1 DUP2 MSTORE PUSH1 0x31 PUSH1 0xF8 SHL PUSH1 0x20 DUP3 ADD MSTORE SWAP1 JUMP JUMPDEST DUP1 MLOAD PUSH1 0x20 SWAP2 DUP3 ADD KECCAK256 PUSH1 0x40 DUP1 MLOAD SWAP3 DUP4 ADD SWAP5 SWAP1 SWAP5 MSTORE SWAP3 DUP2 ADD SWAP2 SWAP1 SWAP2 MSTORE PUSH1 0x60 DUP2 ADD SWAP2 SWAP1 SWAP2 MSTORE PUSH1 0x80 DUP2 ADD DUP4 SWAP1 MSTORE ADDRESS PUSH1 0xA0 DUP3 ADD MSTORE PUSH1 0xC0 ADD PUSH1 0x40 DUP1 MLOAD PUSH1 0x1F NOT DUP2 DUP5 SUB ADD DUP2 MSTORE SWAP2 SWAP1 MSTORE DUP1 MLOAD PUSH1 0x20 SWAP1 SWAP2 ADD KECCAK256 SWAP4 SWAP3 POP POP POP JUMP JUMPDEST ADDRESS PUSH1 0x0 DUP2 DUP2 MSTORE PUSH1 0x6 PUSH1 0x20 DUP2 DUP2 MSTORE PUSH1 0x40 DUP1 DUP5 KECCAK256 PUSH1 0x1 PUSH1 0x1 PUSH1 0xA0 SHL SUB DUP9 AND DUP6 MSTORE SWAP1 SWAP2 MSTORE DUP3 KECCAK256 ADD SLOAD SWAP1 SWAP2 SWAP1 DUP5 SWAP1 PUSH2 0x1E26 JUMPI PUSH1 0x40 MLOAD PUSH3 0x461BCD PUSH1 0xE5 SHL DUP2 MSTORE PUSH1 0x4 ADD PUSH2 0x953 SWAP1 PUSH2 0x4E0D JUMP JUMPDEST PUSH1 0x1 PUSH1 0x1 PUSH1 0xA0 SHL SUB DUP1 DUP4 AND PUSH1 0x0 SWAP1 DUP2 MSTORE PUSH1 0x6 PUSH1 0x20 DUP2 DUP2 MSTORE PUSH1 0x40 DUP1 DUP5 KECCAK256 SWAP5 DUP7 AND DUP5 MSTORE SWAP4 SWAP1 MSTORE SWAP2 SWAP1 KECCAK256 ADD SLOAD TIMESTAMP GT ISZERO PUSH2 0x1E6E JUMPI PUSH1 0x40 MLOAD PUSH3 0x461BCD PUSH1 0xE5 SHL DUP2 MSTORE PUSH1 0x4 ADD PUSH2 0x953 SWAP1 PUSH2 0x4DB7 JUMP JUMPDEST PUSH2 0x1E8A CALLER CALLER DUP8 DUP8 PUSH1 0x40 MLOAD DUP1 PUSH1 0x20 ADD PUSH1 0x40 MSTORE DUP1 PUSH1 0x0 DUP2 MSTORE POP PUSH2 0x2EC2 JUMP JUMPDEST PUSH1 0x1 SWAP3 POP JUMPDEST POP POP SWAP3 SWAP2 POP POP JUMP JUMPDEST PUSH1 0x0 PUSH2 0xBA8 PUSH1 0x3 DUP4 PUSH2 0x34D0 JUMP JUMPDEST PUSH1 0x0 DUP2 DUP2 MSTORE PUSH1 0xE PUSH1 0x20 MSTORE PUSH1 0x40 DUP2 KECCAK256 DUP1 SLOAD PUSH1 0x60 SWAP3 SWAP2 DUP3 SWAP2 PUSH2 0x1EC3 SWAP1 PUSH2 0x4FD1 JUMP JUMPDEST ISZERO ISZERO SWAP1 POP PUSH2 0x1ED0 JUMPI PUSH1 0x0 DUP1 REVERT JUMPDEST PUSH1 0x0 DUP5 DUP2 MSTORE PUSH1 0xE PUSH1 0x20 MSTORE PUSH1 0x40 SWAP1 KECCAK256 PUSH1 0x1 DUP2 ADD SLOAD PUSH1 0x2 DUP3 ADD SLOAD DUP3 SLOAD DUP4 SWAP1 PUSH2 0x1EF5 SWAP1 PUSH2 0x4FD1 JUMP JUMPDEST DUP1 PUSH1 0x1F ADD PUSH1 0x20 DUP1 SWAP2 DIV MUL PUSH1 0x20 ADD PUSH1 0x40 MLOAD SWAP1 DUP2 ADD PUSH1 0x40 MSTORE DUP1 SWAP3 SWAP2 SWAP1 DUP2 DUP2 MSTORE PUSH1 0x20 ADD DUP3 DUP1 SLOAD PUSH2 0x1F21 SWAP1 PUSH2 0x4FD1 JUMP JUMPDEST DUP1 ISZERO PUSH2 0x1F6E JUMPI DUP1 PUSH1 0x1F LT PUSH2 0x1F43 JUMPI PUSH2 0x100 DUP1 DUP4 SLOAD DIV MUL DUP4 MSTORE SWAP2 PUSH1 0x20 ADD SWAP2 PUSH2 0x1F6E JUMP JUMPDEST DUP3 ADD SWAP2 SWAP1 PUSH1 0x0 MSTORE PUSH1 0x20 PUSH1 0x0 KECCAK256 SWAP1 JUMPDEST DUP2 SLOAD DUP2 MSTORE SWAP1 PUSH1 0x1 ADD SWAP1 PUSH1 0x20 ADD DUP1 DUP4 GT PUSH2 0x1F51 JUMPI DUP3 SWAP1 SUB PUSH1 0x1F AND DUP3 ADD SWAP2 JUMPDEST POP POP POP POP POP SWAP3 POP SWAP3 POP SWAP3 POP SWAP3 POP SWAP2 SWAP4 SWAP1 SWAP3 POP JUMP JUMPDEST PUSH1 0x0 PUSH2 0x1C71 DUP4 DUP4 PUSH2 0x2E37 JUMP JUMPDEST PUSH2 0x1F97 CALLER PUSH2 0x1E97 JUMP JUMPDEST DUP1 PUSH2 0x1FAC JUMPI POP PUSH1 0x2 SLOAD PUSH1 0x1 PUSH1 0x1 PUSH1 0xA0 SHL SUB AND CALLER EQ JUMPDEST PUSH2 0x1FB5 JUMPI PUSH1 0x0 DUP1 REVERT JUMPDEST ADDRESS PUSH1 0x0 DUP2 DUP2 MSTORE PUSH1 0x6 PUSH1 0x20 DUP2 DUP2 MSTORE PUSH1 0x40 DUP1 DUP5 KECCAK256 PUSH1 0x1 PUSH1 0x1 PUSH1 0xA0 SHL SUB DUP11 AND DUP6 MSTORE SWAP1 SWAP2 MSTORE SWAP1 SWAP2 KECCAK256 ADD SLOAD DUP6 SWAP1 PUSH2 0x1FF9 JUMPI PUSH1 0x40 MLOAD PUSH3 0x461BCD PUSH1 0xE5 SHL DUP2 MSTORE PUSH1 0x4 ADD PUSH2 0x953 SWAP1 PUSH2 0x4E0D JUMP JUMPDEST PUSH1 0x1 PUSH1 0x1 PUSH1 0xA0 SHL SUB DUP1 DUP4 AND PUSH1 0x0 SWAP1 DUP2 MSTORE PUSH1 0x6 PUSH1 0x20 DUP2 DUP2 MSTORE PUSH1 0x40 DUP1 DUP5 KECCAK256 SWAP5 DUP7 AND DUP5 MSTORE SWAP4 SWAP1 MSTORE SWAP2 SWAP1 KECCAK256 ADD SLOAD TIMESTAMP GT ISZERO PUSH2 0x2041 JUMPI PUSH1 0x40 MLOAD PUSH3 0x461BCD PUSH1 0xE5 SHL DUP2 MSTORE PUSH1 0x4 ADD PUSH2 0x953 SWAP1 PUSH2 0x4DB7 JUMP JUMPDEST PUSH1 0xB SLOAD PUSH3 0x10000 SWAP1 DIV PUSH1 0xFF AND PUSH2 0x2069 JUMPI PUSH1 0x40 MLOAD PUSH3 0x461BCD PUSH1 0xE5 SHL DUP2 MSTORE PUSH1 0x4 ADD PUSH2 0x953 SWAP1 PUSH2 0x4E75 JUMP JUMPDEST PUSH1 0x17 SLOAD PUSH2 0x2088 JUMPI PUSH1 0x40 MLOAD PUSH3 0x461BCD PUSH1 0xE5 SHL DUP2 MSTORE PUSH1 0x4 ADD PUSH2 0x953 SWAP1 PUSH2 0x4E75 JUMP JUMPDEST PUSH2 0x20E9 PUSH1 0x17 PUSH1 0x0 DUP2 SLOAD DUP2 LT PUSH2 0x209F JUMPI PUSH2 0x209F PUSH2 0x5053 JUMP JUMPDEST SWAP1 PUSH1 0x0 MSTORE PUSH1 0x20 PUSH1 0x0 KECCAK256 ADD SLOAD CALLER DUP9 DUP9 DUP9 DUP9 DUP1 DUP1 PUSH1 0x1F ADD PUSH1 0x20 DUP1 SWAP2 DIV MUL PUSH1 0x20 ADD PUSH1 0x40 MLOAD SWAP1 DUP2 ADD PUSH1 0x40 MSTORE DUP1 SWAP4 SWAP3 SWAP2 SWAP1 DUP2 DUP2 MSTORE PUSH1 0x20 ADD DUP4 DUP4 DUP1 DUP3 DUP5 CALLDATACOPY PUSH1 0x0 SWAP3 ADD SWAP2 SWAP1 SWAP2 MSTORE POP PUSH2 0x3141 SWAP3 POP POP POP JUMP JUMPDEST PUSH2 0x106A PUSH2 0x360F JUMP JUMPDEST PUSH1 0x60 PUSH1 0x17 DUP1 SLOAD DUP1 PUSH1 0x20 MUL PUSH1 0x20 ADD PUSH1 0x40 MLOAD SWAP1 DUP2 ADD PUSH1 0x40 MSTORE DUP1 SWAP3 SWAP2 SWAP1 DUP2 DUP2 MSTORE PUSH1 0x20 ADD DUP3 DUP1 SLOAD DUP1 ISZERO PUSH2 0xB02 JUMPI PUSH1 0x20 MUL DUP3 ADD SWAP2 SWAP1 PUSH1 0x0 MSTORE PUSH1 0x20 PUSH1 0x0 KECCAK256 SWAP1 DUP2 SLOAD DUP2 MSTORE PUSH1 0x20 ADD SWAP1 PUSH1 0x1 ADD SWAP1 DUP1 DUP4 GT PUSH2 0x145E JUMPI POP POP POP POP POP SWAP1 POP SWAP1 JUMP JUMPDEST CALLER PUSH1 0x0 SWAP1 DUP2 MSTORE PUSH1 0x1A PUSH1 0x20 MSTORE PUSH1 0x40 SWAP1 KECCAK256 SLOAD PUSH1 0xFF AND PUSH2 0x2195 JUMPI PUSH1 0x40 MLOAD PUSH3 0x461BCD PUSH1 0xE5 SHL DUP2 MSTORE PUSH1 0x20 PUSH1 0x4 DUP3 ADD MSTORE PUSH1 0xC PUSH1 0x24 DUP3 ADD MSTORE PUSH12 0x155B985D5D1A1BDC9A5E9959 PUSH1 0xA2 SHL PUSH1 0x44 DUP3 ADD MSTORE PUSH1 0x64 ADD PUSH2 0x953 JUMP JUMPDEST PUSH1 0x0 DUP2 DUP2 MSTORE PUSH1 0xE PUSH1 0x20 MSTORE PUSH1 0x40 SWAP1 KECCAK256 DUP1 SLOAD PUSH2 0x21AE SWAP1 PUSH2 0x4FD1 JUMP JUMPDEST ISZERO ISZERO SWAP1 POP PUSH2 0x21F6 JUMPI PUSH1 0x40 MLOAD PUSH3 0x461BCD PUSH1 0xE5 SHL DUP2 MSTORE PUSH1 0x20 PUSH1 0x4 DUP3 ADD MSTORE PUSH1 0x15 PUSH1 0x24 DUP3 ADD MSTORE PUSH21 0x111BD8DD5B595B9D08191BD95CDB9D08195E1A5CDD PUSH1 0x5A SHL PUSH1 0x44 DUP3 ADD MSTORE PUSH1 0x64 ADD PUSH2 0x953 JUMP JUMPDEST PUSH1 0x0 DUP2 DUP2 MSTORE PUSH1 0xE PUSH1 0x20 MSTORE PUSH1 0x40 DUP1 DUP3 KECCAK256 DUP2 MLOAD PUSH1 0x60 DUP2 ADD SWAP1 SWAP3 MSTORE DUP1 SLOAD DUP3 SWAP1 DUP3 SWAP1 PUSH2 0x221D SWAP1 PUSH2 0x4FD1 JUMP JUMPDEST DUP1 PUSH1 0x1F ADD PUSH1 0x20 DUP1 SWAP2 DIV MUL PUSH1 0x20 ADD PUSH1 0x40 MLOAD SWAP1 DUP2 ADD PUSH1 0x40 MSTORE DUP1 SWAP3 SWAP2 SWAP1 DUP2 DUP2 MSTORE PUSH1 0x20 ADD DUP3 DUP1 SLOAD PUSH2 0x2249 SWAP1 PUSH2 0x4FD1 JUMP JUMPDEST DUP1 ISZERO PUSH2 0x2296 JUMPI DUP1 PUSH1 0x1F LT PUSH2 0x226B JUMPI PUSH2 0x100 DUP1 DUP4 SLOAD DIV MUL DUP4 MSTORE SWAP2 PUSH1 0x20 ADD SWAP2 PUSH2 0x2296 JUMP JUMPDEST DUP3 ADD SWAP2 SWAP1 PUSH1 0x0 MSTORE PUSH1 0x20 PUSH1 0x0 KECCAK256 SWAP1 JUMPDEST DUP2 SLOAD DUP2 MSTORE SWAP1 PUSH1 0x1 ADD SWAP1 PUSH1 0x20 ADD DUP1 DUP4 GT PUSH2 0x2279 JUMPI DUP3 SWAP1 SUB PUSH1 0x1F AND DUP3 ADD SWAP2 JUMPDEST POP POP POP POP POP DUP2 MSTORE PUSH1 0x20 ADD PUSH1 0x1 DUP3 ADD SLOAD DUP2 MSTORE PUSH1 0x20 ADD PUSH1 0x2 DUP3 ADD SLOAD DUP2 MSTORE POP POP SWAP1 POP PUSH1 0x0 PUSH1 0xF PUSH1 0x0 DUP4 PUSH1 0x20 ADD MLOAD DUP2 MSTORE PUSH1 0x20 ADD SWAP1 DUP2 MSTORE PUSH1 0x20 ADD PUSH1 0x0 KECCAK256 SLOAD SWAP1 POP PUSH1 0x0 DUP2 GT PUSH2 0x2311 JUMPI PUSH1 0x40 MLOAD PUSH3 0x461BCD PUSH1 0xE5 SHL DUP2 MSTORE PUSH1 0x20 PUSH1 0x4 DUP3 ADD MSTORE PUSH1 0xD PUSH1 0x24 DUP3 ADD MSTORE PUSH13 0x92DCECC2D8D2C840D2DCC8CAF PUSH1 0x9B SHL PUSH1 0x44 DUP3 ADD MSTORE PUSH1 0x64 ADD PUSH2 0x953 JUMP JUMPDEST PUSH1 0x10 DUP1 SLOAD PUSH1 0x0 SWAP2 SWAP1 PUSH2 0x2325 SWAP1 PUSH1 0x1 SWAP1 PUSH2 0x4F8A JUMP JUMPDEST DUP2 SLOAD DUP2 LT PUSH2 0x2335 JUMPI PUSH2 0x2335 PUSH2 0x5053 JUMP JUMPDEST SWAP1 PUSH1 0x0 MSTORE PUSH1 0x20 PUSH1 0x0 KECCAK256 ADD SLOAD SWAP1 POP DUP1 PUSH1 0x10 PUSH1 0x1 DUP5 PUSH2 0x2352 SWAP2 SWAP1 PUSH2 0x4F8A JUMP JUMPDEST DUP2 SLOAD DUP2 LT PUSH2 0x2362 JUMPI PUSH2 0x2362 PUSH2 0x5053 JUMP JUMPDEST PUSH1 0x0 SWAP2 DUP3 MSTORE PUSH1 0x20 DUP1 DUP4 KECCAK256 SWAP1 SWAP2 ADD SWAP3 SWAP1 SWAP3 SSTORE DUP3 DUP2 MSTORE PUSH1 0xF SWAP1 SWAP2 MSTORE PUSH1 0x40 SWAP1 KECCAK256 DUP3 SWAP1 SSTORE PUSH1 0x10 DUP1 SLOAD DUP1 PUSH2 0x2393 JUMPI PUSH2 0x2393 PUSH2 0x503D JUMP JUMPDEST PUSH1 0x0 DUP3 DUP2 MSTORE PUSH1 0x20 DUP1 DUP3 KECCAK256 DUP4 ADD PUSH1 0x0 NOT SWAP1 DUP2 ADD DUP4 SWAP1 SSTORE SWAP1 SWAP3 ADD SWAP1 SWAP3 SSTORE DUP5 DUP2 ADD MLOAD DUP3 MSTORE PUSH1 0xF DUP2 MSTORE PUSH1 0x40 DUP1 DUP4 KECCAK256 DUP4 SWAP1 SSTORE DUP7 DUP4 MSTORE PUSH1 0xE SWAP1 SWAP2 MSTORE DUP2 KECCAK256 SWAP1 PUSH2 0x23D5 DUP3 DUP3 PUSH2 0x42C8 JUMP JUMPDEST POP PUSH1 0x0 PUSH1 0x1 DUP3 ADD DUP2 SWAP1 SSTORE PUSH1 0x2 SWAP1 SWAP2 ADD SSTORE DUP3 MLOAD PUSH1 0x20 DUP5 ADD MLOAD PUSH1 0x40 MLOAD DUP7 SWAP3 PUSH32 0x3D9BBA27D3E360D8C80645BEED7E991454A8271BF6F269A24F7782BE0F0D0654 SWAP3 PUSH2 0xA6C SWAP3 PUSH2 0x4D54 JUMP JUMPDEST DUP2 PUSH2 0x2427 DUP2 CALLER PUSH2 0x1C4F JUMP JUMPDEST PUSH2 0x2430 JUMPI PUSH1 0x0 DUP1 REVERT JUMPDEST PUSH2 0xD87 DUP4 DUP4 PUSH2 0x3647 JUMP JUMPDEST PUSH1 0x2 SLOAD PUSH1 0x1 PUSH1 0x1 PUSH1 0xA0 SHL SUB AND CALLER EQ PUSH2 0x2464 JUMPI PUSH1 0x40 MLOAD PUSH3 0x461BCD PUSH1 0xE5 SHL DUP2 MSTORE PUSH1 0x4 ADD PUSH2 0x953 SWAP1 PUSH2 0x4E91 JUMP JUMPDEST PUSH1 0xB DUP1 SLOAD PUSH2 0xFF00 NOT AND SWAP1 SSTORE JUMP JUMPDEST DUP2 PUSH2 0x247C DUP2 CALLER PUSH2 0x1C4F JUMP JUMPDEST PUSH2 0x2485 JUMPI PUSH1 0x0 DUP1 REVERT JUMPDEST PUSH2 0xD87 DUP4 DUP4 PUSH2 0x3049 JUMP JUMPDEST PUSH1 0x2 SLOAD PUSH1 0x1 PUSH1 0x1 PUSH1 0xA0 SHL SUB AND CALLER EQ PUSH2 0x24B9 JUMPI PUSH1 0x40 MLOAD PUSH3 0x461BCD PUSH1 0xE5 SHL DUP2 MSTORE PUSH1 0x4 ADD PUSH2 0x953 SWAP1 PUSH2 0x4E91 JUMP JUMPDEST PUSH2 0x1B15 DUP3 DUP3 DUP1 DUP1 PUSH1 0x20 MUL PUSH1 0x20 ADD PUSH1 0x40 MLOAD SWAP1 DUP2 ADD PUSH1 0x40 MSTORE DUP1 SWAP4 SWAP3 SWAP2 SWAP1 DUP2 DUP2 MSTORE PUSH1 0x20 ADD DUP4 DUP4 PUSH1 0x20 MUL DUP1 DUP3 DUP5 CALLDATACOPY PUSH1 0x0 SWAP3 ADD SWAP2 SWAP1 SWAP2 MSTORE POP PUSH2 0x36AD SWAP3 POP POP POP JUMP JUMPDEST PUSH1 0x2 SLOAD PUSH1 0x1 PUSH1 0x1 PUSH1 0xA0 SHL SUB AND CALLER EQ PUSH2 0x251F JUMPI PUSH1 0x40 MLOAD PUSH3 0x461BCD PUSH1 0xE5 SHL DUP2 MSTORE PUSH1 0x4 ADD PUSH2 0x953 SWAP1 PUSH2 0x4E91 JUMP JUMPDEST PUSH2 0xD87 PUSH1 0x17 DUP4 DUP4 PUSH2 0x4302 JUMP JUMPDEST ADDRESS PUSH1 0x0 DUP2 DUP2 MSTORE PUSH1 0x6 PUSH1 0x20 DUP2 DUP2 MSTORE PUSH1 0x40 DUP1 DUP5 KECCAK256 PUSH1 0x1 PUSH1 0x1 PUSH1 0xA0 SHL SUB DUP11 AND DUP6 MSTORE SWAP1 SWAP2 MSTORE SWAP1 SWAP2 KECCAK256 ADD SLOAD DUP6 SWAP1 PUSH2 0x256F JUMPI PUSH1 0x40 MLOAD PUSH3 0x461BCD PUSH1 0xE5 SHL DUP2 MSTORE PUSH1 0x4 ADD PUSH2 0x953 SWAP1 PUSH2 0x4E0D JUMP JUMPDEST PUSH1 0x1 PUSH1 0x1 PUSH1 0xA0 SHL SUB DUP1 DUP4 AND PUSH1 0x0 SWAP1 DUP2 MSTORE PUSH1 0x6 PUSH1 0x20 DUP2 DUP2 MSTORE PUSH1 0x40 DUP1 DUP5 KECCAK256 SWAP5 DUP7 AND DUP5 MSTORE SWAP4 SWAP1 MSTORE SWAP2 SWAP1 KECCAK256 ADD SLOAD TIMESTAMP GT ISZERO PUSH2 0x25B7 JUMPI PUSH1 0x40 MLOAD PUSH3 0x461BCD PUSH1 0xE5 SHL DUP2 MSTORE PUSH1 0x4 ADD PUSH2 0x953 SWAP1 PUSH2 0x4DB7 JUMP JUMPDEST PUSH2 0x25C1 CALLER DUP9 PUSH2 0x2E37 JUMP JUMPDEST DUP1 PUSH2 0x25EF JUMPI POP PUSH1 0x1 PUSH1 0x1 PUSH1 0xA0 SHL SUB DUP8 AND PUSH1 0x0 SWAP1 DUP2 MSTORE PUSH1 0xD PUSH1 0x20 SWAP1 DUP2 MSTORE PUSH1 0x40 DUP1 DUP4 KECCAK256 CALLER DUP5 MSTORE SWAP1 SWAP2 MSTORE SWAP1 KECCAK256 SLOAD DUP6 GT ISZERO JUMPDEST PUSH2 0x260B JUMPI PUSH1 0x40 MLOAD PUSH3 0x461BCD PUSH1 0xE5 SHL DUP2 MSTORE PUSH1 0x4 ADD PUSH2 0x953 SWAP1 PUSH2 0x4EC6 JUMP JUMPDEST PUSH1 0x1 PUSH1 0x1 PUSH1 0xA0 SHL SUB DUP8 AND PUSH1 0x0 SWAP1 DUP2 MSTORE PUSH1 0xD PUSH1 0x20 SWAP1 DUP2 MSTORE PUSH1 0x40 DUP1 DUP4 KECCAK256 CALLER DUP5 MSTORE SWAP1 SWAP2 MSTORE SWAP1 KECCAK256 SLOAD DUP6 GT PUSH2 0x268C JUMPI PUSH1 0x1 PUSH1 0x1 PUSH1 0xA0 SHL SUB DUP8 AND PUSH1 0x0 SWAP1 DUP2 MSTORE PUSH1 0xD PUSH1 0x20 SWAP1 DUP2 MSTORE PUSH1 0x40 DUP1 DUP4 KECCAK256 CALLER DUP5 MSTORE SWAP1 SWAP2 MSTORE SWAP1 KECCAK256 SLOAD PUSH2 0x2663 SWAP1 DUP7 PUSH2 0x2EB6 JUMP JUMPDEST PUSH1 0x1 PUSH1 0x1 PUSH1 0xA0 SHL SUB DUP9 AND PUSH1 0x0 SWAP1 DUP2 MSTORE PUSH1 0xD PUSH1 0x20 SWAP1 DUP2 MSTORE PUSH1 0x40 DUP1 DUP4 KECCAK256 CALLER DUP5 MSTORE SWAP1 SWAP2 MSTORE SWAP1 KECCAK256 SSTORE PUSH2 0x26B1 JUMP JUMPDEST PUSH1 0x1 PUSH1 0x1 PUSH1 0xA0 SHL SUB DUP8 AND PUSH1 0x0 SWAP1 DUP2 MSTORE PUSH1 0xD PUSH1 0x20 SWAP1 DUP2 MSTORE PUSH1 0x40 DUP1 DUP4 KECCAK256 CALLER DUP5 MSTORE SWAP1 SWAP2 MSTORE DUP2 KECCAK256 SSTORE JUMPDEST PUSH2 0x141B CALLER DUP9 DUP9 DUP9 DUP9 DUP9 DUP1 DUP1 PUSH1 0x1F ADD PUSH1 0x20 DUP1 SWAP2 DIV MUL PUSH1 0x20 ADD PUSH1 0x40 MLOAD SWAP1 DUP2 ADD PUSH1 0x40 MSTORE DUP1 SWAP4 SWAP3 SWAP2 SWAP1 DUP2 DUP2 MSTORE PUSH1 0x20 ADD DUP4 DUP4 DUP1 DUP3 DUP5 CALLDATACOPY PUSH1 0x0 SWAP3 ADD SWAP2 SWAP1 SWAP2 MSTORE POP PUSH2 0x2EC2 SWAP3 POP POP POP JUMP JUMPDEST PUSH1 0x2 SLOAD PUSH1 0x1 PUSH1 0x1 PUSH1 0xA0 SHL SUB AND CALLER EQ PUSH2 0x271E JUMPI PUSH1 0x40 MLOAD PUSH3 0x461BCD PUSH1 0xE5 SHL DUP2 MSTORE PUSH1 0x4 ADD PUSH2 0x953 SWAP1 PUSH2 0x4E91 JUMP JUMPDEST PUSH1 0x1 PUSH1 0x1 PUSH1 0xA0 SHL SUB DUP2 AND PUSH2 0x2783 JUMPI PUSH1 0x40 MLOAD PUSH3 0x461BCD PUSH1 0xE5 SHL DUP2 MSTORE PUSH1 0x20 PUSH1 0x4 DUP3 ADD MSTORE PUSH1 0x26 PUSH1 0x24 DUP3 ADD MSTORE PUSH32 0x4F776E61626C653A206E6577206F776E657220697320746865207A65726F2061 PUSH1 0x44 DUP3 ADD MSTORE PUSH6 0x646472657373 PUSH1 0xD0 SHL PUSH1 0x64 DUP3 ADD MSTORE PUSH1 0x84 ADD PUSH2 0x953 JUMP JUMPDEST PUSH2 0x10A2 DUP2 PUSH2 0x3274 JUMP JUMPDEST ADDRESS PUSH1 0x0 DUP2 DUP2 MSTORE PUSH1 0x6 PUSH1 0x20 DUP2 DUP2 MSTORE PUSH1 0x40 DUP1 DUP5 KECCAK256 PUSH1 0x1 PUSH1 0x1 PUSH1 0xA0 SHL SUB DUP11 AND DUP6 MSTORE SWAP1 SWAP2 MSTORE DUP3 KECCAK256 ADD SLOAD SWAP1 SWAP2 SWAP1 DUP7 SWAP1 PUSH2 0x27D2 JUMPI PUSH1 0x40 MLOAD PUSH3 0x461BCD PUSH1 0xE5 SHL DUP2 MSTORE PUSH1 0x4 ADD PUSH2 0x953 SWAP1 PUSH2 0x4E0D JUMP JUMPDEST PUSH1 0x1 PUSH1 0x1 PUSH1 0xA0 SHL SUB DUP1 DUP4 AND PUSH1 0x0 SWAP1 DUP2 MSTORE PUSH1 0x6 PUSH1 0x20 DUP2 DUP2 MSTORE PUSH1 0x40 DUP1 DUP5 KECCAK256 SWAP5 DUP7 AND DUP5 MSTORE SWAP4 SWAP1 MSTORE SWAP2 SWAP1 KECCAK256 ADD SLOAD TIMESTAMP GT ISZERO PUSH2 0x281A JUMPI PUSH1 0x40 MLOAD PUSH3 0x461BCD PUSH1 0xE5 SHL DUP2 MSTORE PUSH1 0x4 ADD PUSH2 0x953 SWAP1 PUSH2 0x4DB7 JUMP JUMPDEST PUSH2 0x286C DUP9 CALLER CALLER DUP11 DUP11 DUP11 DUP11 DUP1 DUP1 PUSH1 0x1F ADD PUSH1 0x20 DUP1 SWAP2 DIV MUL PUSH1 0x20 ADD PUSH1 0x40 MLOAD SWAP1 DUP2 ADD PUSH1 0x40 MSTORE DUP1 SWAP4 SWAP3 SWAP2 SWAP1 DUP2 DUP2 MSTORE PUSH1 0x20 ADD DUP4 DUP4 DUP1 DUP3 DUP5 CALLDATACOPY PUSH1 0x0 SWAP3 ADD DUP3 SWAP1 MSTORE POP PUSH1 0x40 DUP1 MLOAD PUSH1 0x20 DUP2 ADD SWAP1 SWAP2 MSTORE SWAP1 DUP2 MSTORE SWAP3 POP PUSH2 0x32C6 SWAP2 POP POP JUMP JUMPDEST SWAP9 SWAP8 POP POP POP POP POP POP POP POP JUMP JUMPDEST PUSH1 0x0 PUSH2 0x2882 PUSH2 0x3796 JUMP JUMPDEST SWAP1 POP SWAP1 JUMP JUMPDEST PUSH1 0x1 PUSH1 0x1 PUSH1 0xA0 SHL SUB DUP2 AND CALLER EQ ISZERO PUSH2 0x289D JUMPI PUSH1 0x0 DUP1 REVERT JUMPDEST PUSH1 0x1 PUSH1 0x1 PUSH1 0xA0 SHL SUB DUP2 AND PUSH1 0x0 DUP2 DUP2 MSTORE PUSH1 0x18 PUSH1 0x20 SWAP1 DUP2 MSTORE PUSH1 0x40 DUP1 DUP4 KECCAK256 CALLER DUP1 DUP6 MSTORE SWAP3 MSTORE DUP1 DUP4 KECCAK256 DUP1 SLOAD PUSH1 0xFF NOT AND SWAP1 SSTORE MLOAD SWAP1 SWAP3 SWAP2 PUSH32 0x50546E66E5F44D728365DC3908C63BC5CFEEAB470722C1677E3073A6AC294AA1 SWAP2 LOG3 CALLER PUSH1 0x0 SWAP1 DUP2 MSTORE PUSH1 0x1C PUSH1 0x20 MSTORE PUSH1 0x40 DUP2 KECCAK256 PUSH1 0x17 DUP1 SLOAD DUP4 SWAP2 SWAP1 DUP3 SWAP1 PUSH2 0x2914 JUMPI PUSH2 0x2914 PUSH2 0x5053 JUMP JUMPDEST PUSH1 0x0 SWAP2 DUP3 MSTORE PUSH1 0x20 DUP1 DUP4 KECCAK256 SWAP2 SWAP1 SWAP2 ADD SLOAD DUP4 MSTORE DUP3 DUP2 ADD SWAP4 SWAP1 SWAP4 MSTORE PUSH1 0x40 SWAP2 DUP3 ADD DUP2 KECCAK256 PUSH1 0x1 PUSH1 0x1 PUSH1 0xA0 SHL SUB DUP7 AND DUP1 DUP4 MSTORE SWAP4 MSTORE SWAP1 DUP2 KECCAK256 DUP1 SLOAD PUSH1 0xFF NOT AND SWAP4 ISZERO ISZERO SWAP4 SWAP1 SWAP4 OR SWAP1 SWAP3 SSTORE PUSH1 0x17 DUP1 SLOAD CALLER SWAP4 SWAP1 PUSH2 0x2968 JUMPI PUSH2 0x2968 PUSH2 0x5053 JUMP JUMPDEST PUSH1 0x0 SWAP2 DUP3 MSTORE PUSH1 0x20 DUP3 KECCAK256 ADD SLOAD PUSH1 0x40 MLOAD SWAP1 SWAP2 PUSH32 0x3B287C4F1BAB4DF949B33BCEACEF984F544DC5D5479930D00E4EE8C9D8DD96F2 SWAP2 LOG4 POP JUMP JUMPDEST PUSH1 0x0 PUSH1 0x60 DUP1 PUSH1 0x60 PUSH1 0x0 DUP1 PUSH2 0x29B2 DUP9 CALLER PUSH2 0x1C4F JUMP JUMPDEST DUP1 PUSH2 0x29C5 JUMPI POP CALLER PUSH1 0x1 PUSH1 0x1 PUSH1 0xA0 SHL SUB DUP9 AND EQ JUMPDEST PUSH2 0x29CE JUMPI PUSH1 0x0 DUP1 REVERT JUMPDEST PUSH1 0x1 PUSH1 0x1 PUSH1 0xA0 SHL SUB DUP1 DUP10 AND PUSH1 0x0 SWAP1 DUP2 MSTORE PUSH1 0x6 PUSH1 0x20 DUP2 DUP2 MSTORE PUSH1 0x40 DUP1 DUP5 KECCAK256 SWAP5 DUP13 AND DUP5 MSTORE SWAP4 SWAP1 MSTORE SWAP2 SWAP1 KECCAK256 ADD SLOAD PUSH2 0x2A52 JUMPI PUSH1 0x40 MLOAD PUSH3 0x461BCD PUSH1 0xE5 SHL DUP2 MSTORE PUSH1 0x20 PUSH1 0x4 DUP3 ADD MSTORE PUSH1 0x26 PUSH1 0x24 DUP3 ADD MSTORE PUSH32 0x546865206163636F756E7420686173206E6F74206265656E20617070726F7665 PUSH1 0x44 DUP3 ADD MSTORE PUSH6 0x32103CB2BA17 PUSH1 0xD1 SHL PUSH1 0x64 DUP3 ADD MSTORE PUSH1 0x84 ADD PUSH2 0x953 JUMP JUMPDEST PUSH1 0x1 PUSH1 0x1 PUSH1 0xA0 SHL SUB DUP1 DUP10 AND PUSH1 0x0 SWAP1 DUP2 MSTORE PUSH1 0x6 PUSH1 0x20 SWAP1 DUP2 MSTORE PUSH1 0x40 DUP1 DUP4 KECCAK256 CALLER DUP5 MSTORE DUP3 MSTORE DUP1 DUP4 KECCAK256 DUP2 MLOAD PUSH1 0xE0 DUP2 ADD DUP4 MSTORE DUP2 SLOAD DUP2 MSTORE PUSH1 0x1 DUP3 ADD SLOAD SWAP1 SWAP6 AND SWAP3 DUP6 ADD SWAP3 SWAP1 SWAP3 MSTORE PUSH1 0x2 DUP3 ADD DUP1 SLOAD SWAP4 SWAP5 SWAP4 SWAP2 DUP5 ADD SWAP2 PUSH2 0x2AA7 SWAP1 PUSH2 0x4FD1 JUMP JUMPDEST DUP1 PUSH1 0x1F ADD PUSH1 0x20 DUP1 SWAP2 DIV MUL PUSH1 0x20 ADD PUSH1 0x40 MLOAD SWAP1 DUP2 ADD PUSH1 0x40 MSTORE DUP1 SWAP3 SWAP2 SWAP1 DUP2 DUP2 MSTORE PUSH1 0x20 ADD DUP3 DUP1 SLOAD PUSH2 0x2AD3 SWAP1 PUSH2 0x4FD1 JUMP JUMPDEST DUP1 ISZERO PUSH2 0x2B20 JUMPI DUP1 PUSH1 0x1F LT PUSH2 0x2AF5 JUMPI PUSH2 0x100 DUP1 DUP4 SLOAD DIV MUL DUP4 MSTORE SWAP2 PUSH1 0x20 ADD SWAP2 PUSH2 0x2B20 JUMP JUMPDEST DUP3 ADD SWAP2 SWAP1 PUSH1 0x0 MSTORE PUSH1 0x20 PUSH1 0x0 KECCAK256 SWAP1 JUMPDEST DUP2 SLOAD DUP2 MSTORE SWAP1 PUSH1 0x1 ADD SWAP1 PUSH1 0x20 ADD DUP1 DUP4 GT PUSH2 0x2B03 JUMPI DUP3 SWAP1 SUB PUSH1 0x1F AND DUP3 ADD SWAP2 JUMPDEST POP POP POP POP POP DUP2 MSTORE PUSH1 0x20 ADD PUSH1 0x3 DUP3 ADD DUP1 SLOAD PUSH2 0x2B39 SWAP1 PUSH2 0x4FD1 JUMP JUMPDEST DUP1 PUSH1 0x1F ADD PUSH1 0x20 DUP1 SWAP2 DIV MUL PUSH1 0x20 ADD PUSH1 0x40 MLOAD SWAP1 DUP2 ADD PUSH1 0x40 MSTORE DUP1 SWAP3 SWAP2 SWAP1 DUP2 DUP2 MSTORE PUSH1 0x20 ADD DUP3 DUP1 SLOAD PUSH2 0x2B65 SWAP1 PUSH2 0x4FD1 JUMP JUMPDEST DUP1 ISZERO PUSH2 0x2BB2 JUMPI DUP1 PUSH1 0x1F LT PUSH2 0x2B87 JUMPI PUSH2 0x100 DUP1 DUP4 SLOAD DIV MUL DUP4 MSTORE SWAP2 PUSH1 0x20 ADD SWAP2 PUSH2 0x2BB2 JUMP JUMPDEST DUP3 ADD SWAP2 SWAP1 PUSH1 0x0 MSTORE PUSH1 0x20 PUSH1 0x0 KECCAK256 SWAP1 JUMPDEST DUP2 SLOAD DUP2 MSTORE SWAP1 PUSH1 0x1 ADD SWAP1 PUSH1 0x20 ADD DUP1 DUP4 GT PUSH2 0x2B95 JUMPI DUP3 SWAP1 SUB PUSH1 0x1F AND DUP3 ADD SWAP2 JUMPDEST POP POP POP POP POP DUP2 MSTORE PUSH1 0x20 ADD PUSH1 0x4 DUP3 ADD DUP1 SLOAD PUSH2 0x2BCB SWAP1 PUSH2 0x4FD1 JUMP JUMPDEST DUP1 PUSH1 0x1F ADD PUSH1 0x20 DUP1 SWAP2 DIV MUL PUSH1 0x20 ADD PUSH1 0x40 MLOAD SWAP1 DUP2 ADD PUSH1 0x40 MSTORE DUP1 SWAP3 SWAP2 SWAP1 DUP2 DUP2 MSTORE PUSH1 0x20 ADD DUP3 DUP1 SLOAD PUSH2 0x2BF7 SWAP1 PUSH2 0x4FD1 JUMP JUMPDEST DUP1 ISZERO PUSH2 0x2C44 JUMPI DUP1 PUSH1 0x1F LT PUSH2 0x2C19 JUMPI PUSH2 0x100 DUP1 DUP4 SLOAD DIV MUL DUP4 MSTORE SWAP2 PUSH1 0x20 ADD SWAP2 PUSH2 0x2C44 JUMP JUMPDEST DUP3 ADD SWAP2 SWAP1 PUSH1 0x0 MSTORE PUSH1 0x20 PUSH1 0x0 KECCAK256 SWAP1 JUMPDEST DUP2 SLOAD DUP2 MSTORE SWAP1 PUSH1 0x1 ADD SWAP1 PUSH1 0x20 ADD DUP1 DUP4 GT PUSH2 0x2C27 JUMPI DUP3 SWAP1 SUB PUSH1 0x1F AND DUP3 ADD SWAP2 JUMPDEST POP POP POP POP POP DUP2 MSTORE PUSH1 0x20 ADD PUSH1 0x5 DUP3 ADD SLOAD DUP2 MSTORE PUSH1 0x20 ADD PUSH1 0x6 DUP3 ADD SLOAD DUP2 MSTORE POP POP SWAP1 POP DUP1 PUSH1 0x20 ADD MLOAD DUP2 PUSH1 0x40 ADD MLOAD DUP3 PUSH1 0x60 ADD MLOAD DUP4 PUSH1 0x80 ADD MLOAD DUP5 PUSH1 0xA0 ADD MLOAD DUP6 PUSH1 0xC0 ADD MLOAD SWAP7 POP SWAP7 POP SWAP7 POP SWAP7 POP SWAP7 POP SWAP7 POP POP SWAP3 SWAP6 POP SWAP3 SWAP6 POP SWAP3 SWAP6 JUMP JUMPDEST PUSH2 0x2CA2 DUP3 DUP3 PUSH2 0x34D0 JUMP JUMPDEST ISZERO PUSH2 0x2CEF JUMPI PUSH1 0x40 MLOAD PUSH3 0x461BCD PUSH1 0xE5 SHL DUP2 MSTORE PUSH1 0x20 PUSH1 0x4 DUP3 ADD MSTORE PUSH1 0x1F PUSH1 0x24 DUP3 ADD MSTORE PUSH32 0x526F6C65733A206163636F756E7420616C72656164792068617320726F6C6500 PUSH1 0x44 DUP3 ADD MSTORE PUSH1 0x64 ADD PUSH2 0x953 JUMP JUMPDEST PUSH1 0x1 PUSH1 0x1 PUSH1 0xA0 SHL SUB AND PUSH1 0x0 SWAP1 DUP2 MSTORE PUSH1 0x20 SWAP2 SWAP1 SWAP2 MSTORE PUSH1 0x40 SWAP1 KECCAK256 DUP1 SLOAD PUSH1 0xFF NOT AND PUSH1 0x1 OR SWAP1 SSTORE JUMP JUMPDEST PUSH1 0x0 JUMPDEST PUSH1 0x0 DUP4 DUP2 MSTORE PUSH1 0x1D PUSH1 0x20 MSTORE PUSH1 0x40 SWAP1 KECCAK256 SLOAD DUP2 LT ISZERO PUSH2 0x2DA0 JUMPI PUSH1 0x0 DUP4 DUP2 MSTORE PUSH1 0x1E PUSH1 0x20 SWAP1 DUP2 MSTORE PUSH1 0x40 DUP1 DUP4 KECCAK256 PUSH1 0x1D SWAP1 SWAP3 MSTORE DUP3 KECCAK256 DUP1 SLOAD DUP4 SWAP2 SWAP1 DUP6 SWAP1 DUP2 LT PUSH2 0x2D5A JUMPI PUSH2 0x2D5A PUSH2 0x5053 JUMP JUMPDEST PUSH1 0x0 SWAP2 DUP3 MSTORE PUSH1 0x20 DUP1 DUP4 KECCAK256 SWAP2 SWAP1 SWAP2 ADD SLOAD PUSH1 0x1 PUSH1 0x1 PUSH1 0xA0 SHL SUB AND DUP4 MSTORE DUP3 ADD SWAP3 SWAP1 SWAP3 MSTORE PUSH1 0x40 ADD SWAP1 KECCAK256 DUP1 SLOAD PUSH1 0xFF NOT AND SWAP2 ISZERO ISZERO SWAP2 SWAP1 SWAP2 OR SWAP1 SSTORE DUP1 PUSH2 0x2D98 DUP2 PUSH2 0x500C JUMP JUMPDEST SWAP2 POP POP PUSH2 0x2D17 JUMP JUMPDEST POP PUSH1 0x0 JUMPDEST DUP2 MLOAD DUP2 LT ISZERO PUSH2 0x2E17 JUMPI PUSH1 0x0 DUP4 DUP2 MSTORE PUSH1 0x1E PUSH1 0x20 MSTORE PUSH1 0x40 DUP2 KECCAK256 DUP4 MLOAD PUSH1 0x1 SWAP3 SWAP1 DUP6 SWAP1 DUP6 SWAP1 DUP2 LT PUSH2 0x2DD3 JUMPI PUSH2 0x2DD3 PUSH2 0x5053 JUMP JUMPDEST PUSH1 0x20 SWAP1 DUP2 MUL SWAP2 SWAP1 SWAP2 ADD DUP2 ADD MLOAD PUSH1 0x1 PUSH1 0x1 PUSH1 0xA0 SHL SUB AND DUP3 MSTORE DUP2 ADD SWAP2 SWAP1 SWAP2 MSTORE PUSH1 0x40 ADD PUSH1 0x0 KECCAK256 DUP1 SLOAD PUSH1 0xFF NOT AND SWAP2 ISZERO ISZERO SWAP2 SWAP1 SWAP2 OR SWAP1 SSTORE DUP1 PUSH2 0x2E0F DUP2 PUSH2 0x500C JUMP JUMPDEST SWAP2 POP POP PUSH2 0x2DA4 JUMP JUMPDEST POP PUSH1 0x0 DUP3 DUP2 MSTORE PUSH1 0x1D PUSH1 0x20 SWAP1 DUP2 MSTORE PUSH1 0x40 SWAP1 SWAP2 KECCAK256 DUP3 MLOAD PUSH2 0xD87 SWAP3 DUP5 ADD SWAP1 PUSH2 0x433D JUMP JUMPDEST PUSH1 0x0 DUP2 PUSH1 0x1 PUSH1 0x1 PUSH1 0xA0 SHL SUB AND DUP4 PUSH1 0x1 PUSH1 0x1 PUSH1 0xA0 SHL SUB AND EQ DUP1 PUSH2 0x2E7E JUMPI POP PUSH1 0x1 PUSH1 0x1 PUSH1 0xA0 SHL SUB DUP1 DUP5 AND PUSH1 0x0 SWAP1 DUP2 MSTORE PUSH1 0x18 PUSH1 0x20 SWAP1 DUP2 MSTORE PUSH1 0x40 DUP1 DUP4 KECCAK256 SWAP4 DUP7 AND DUP4 MSTORE SWAP3 SWAP1 MSTORE KECCAK256 SLOAD PUSH1 0xFF AND JUMPDEST DUP1 PUSH2 0x1C71 JUMPI POP PUSH1 0xB SLOAD PUSH2 0x100 SWAP1 DIV PUSH1 0xFF AND DUP1 ISZERO PUSH2 0x1C71 JUMPI POP POP POP PUSH1 0x1 PUSH1 0x1 PUSH1 0xA0 SHL SUB AND PUSH1 0x0 SWAP1 DUP2 MSTORE PUSH1 0x1A PUSH1 0x20 MSTORE PUSH1 0x40 SWAP1 KECCAK256 SLOAD PUSH1 0xFF AND SWAP1 JUMP JUMPDEST PUSH1 0x0 PUSH2 0x1C71 DUP3 DUP5 PUSH2 0x4F8A JUMP JUMPDEST PUSH1 0x17 SLOAD PUSH2 0x2EE1 JUMPI PUSH1 0x40 MLOAD PUSH3 0x461BCD PUSH1 0xE5 SHL DUP2 MSTORE PUSH1 0x4 ADD PUSH2 0x953 SWAP1 PUSH2 0x4E75 JUMP JUMPDEST DUP2 PUSH1 0x0 DUP1 JUMPDEST PUSH1 0x17 SLOAD DUP2 LT ISZERO PUSH2 0x2FE8 JUMPI PUSH1 0x1 PUSH1 0x1 PUSH1 0xA0 SHL SUB DUP8 AND PUSH1 0x0 SWAP1 DUP2 MSTORE PUSH1 0x16 PUSH1 0x20 MSTORE PUSH1 0x40 DUP2 KECCAK256 PUSH1 0x17 DUP1 SLOAD SWAP2 SWAP3 SWAP2 DUP5 SWAP1 DUP2 LT PUSH2 0x2F1F JUMPI PUSH2 0x2F1F PUSH2 0x5053 JUMP JUMPDEST SWAP1 PUSH1 0x0 MSTORE PUSH1 0x20 PUSH1 0x0 KECCAK256 ADD SLOAD DUP2 MSTORE PUSH1 0x20 ADD SWAP1 DUP2 MSTORE PUSH1 0x20 ADD PUSH1 0x0 KECCAK256 SLOAD SWAP2 POP DUP2 DUP4 GT PUSH2 0x2F87 JUMPI PUSH2 0x2F7D PUSH1 0x17 DUP3 DUP2 SLOAD DUP2 LT PUSH2 0x2F58 JUMPI PUSH2 0x2F58 PUSH2 0x5053 JUMP JUMPDEST SWAP1 PUSH1 0x0 MSTORE PUSH1 0x20 PUSH1 0x0 KECCAK256 ADD SLOAD DUP10 DUP10 DUP10 DUP8 DUP10 PUSH1 0x40 MLOAD DUP1 PUSH1 0x20 ADD PUSH1 0x40 MSTORE DUP1 PUSH1 0x0 DUP2 MSTORE POP PUSH2 0x32C6 JUMP JUMPDEST POP PUSH1 0x0 SWAP3 POP PUSH2 0x2FE8 JUMP JUMPDEST DUP2 ISZERO PUSH2 0x2FD6 JUMPI PUSH2 0x2FC8 PUSH1 0x17 DUP3 DUP2 SLOAD DUP2 LT PUSH2 0x2FA3 JUMPI PUSH2 0x2FA3 PUSH2 0x5053 JUMP JUMPDEST SWAP1 PUSH1 0x0 MSTORE PUSH1 0x20 PUSH1 0x0 KECCAK256 ADD SLOAD DUP10 DUP10 DUP10 DUP7 DUP10 PUSH1 0x40 MLOAD DUP1 PUSH1 0x20 ADD PUSH1 0x40 MSTORE DUP1 PUSH1 0x0 DUP2 MSTORE POP PUSH2 0x32C6 JUMP JUMPDEST POP PUSH2 0x2FD3 DUP3 DUP5 PUSH2 0x4F8A JUMP JUMPDEST SWAP3 POP JUMPDEST DUP1 PUSH2 0x2FE0 DUP2 PUSH2 0x500C JUMP JUMPDEST SWAP2 POP POP PUSH2 0x2EE6 JUMP JUMPDEST POP DUP2 ISZERO PUSH2 0x141B JUMPI PUSH1 0x40 MLOAD PUSH3 0x461BCD PUSH1 0xE5 SHL DUP2 MSTORE PUSH1 0x4 ADD PUSH2 0x953 SWAP1 PUSH2 0x4EE2 JUMP JUMPDEST PUSH2 0x3012 PUSH1 0x3 DUP3 PUSH2 0x37BF JUMP JUMPDEST PUSH1 0x40 MLOAD PUSH1 0x1 PUSH1 0x1 PUSH1 0xA0 SHL SUB DUP3 AND SWAP1 PUSH32 0xE94479A9F7E1952CC78F2D6BAAB678ADC1B772D936C6583DEF489E524CB66692 SWAP1 PUSH1 0x0 SWAP1 LOG2 POP JUMP JUMPDEST PUSH1 0x1 PUSH1 0x1 PUSH1 0xA0 SHL SUB DUP3 AND PUSH1 0x0 SWAP1 DUP2 MSTORE PUSH1 0x5 PUSH1 0x20 MSTORE PUSH1 0x40 SWAP1 KECCAK256 PUSH2 0x306B SWAP1 DUP3 PUSH2 0x37BF JUMP JUMPDEST DUP1 PUSH1 0x1 PUSH1 0x1 PUSH1 0xA0 SHL SUB AND DUP3 PUSH1 0x1 PUSH1 0x1 PUSH1 0xA0 SHL SUB AND PUSH32 0x795A3A12AB7AA35EE8D4681EAD2986EAE8DE69F5491D9DCCFECA0442F644DB81 PUSH1 0x40 MLOAD PUSH1 0x40 MLOAD DUP1 SWAP2 SUB SWAP1 LOG3 POP POP JUMP JUMPDEST PUSH1 0x0 DUP3 PUSH1 0x40 MLOAD PUSH1 0x20 ADD PUSH2 0x30C2 SWAP2 SWAP1 PUSH2 0x4AA7 JUMP JUMPDEST PUSH1 0x40 DUP1 MLOAD DUP1 DUP4 SUB PUSH1 0x1F NOT ADD DUP2 MSTORE SWAP1 DUP3 SWAP1 MSTORE DUP1 MLOAD PUSH1 0x20 SWAP1 SWAP2 ADD KECCAK256 PUSH1 0x0 SLOAD PUSH4 0x29965A1D PUSH1 0xE0 SHL DUP4 MSTORE ADDRESS PUSH1 0x4 DUP5 ADD MSTORE PUSH1 0x24 DUP4 ADD DUP3 SWAP1 MSTORE PUSH1 0x1 PUSH1 0x1 PUSH1 0xA0 SHL SUB DUP6 DUP2 AND PUSH1 0x44 DUP6 ADD MSTORE SWAP2 SWAP4 POP AND SWAP1 PUSH4 0x29965A1D SWAP1 PUSH1 0x64 ADD PUSH1 0x0 PUSH1 0x40 MLOAD DUP1 DUP4 SUB DUP2 PUSH1 0x0 DUP8 DUP1 EXTCODESIZE ISZERO DUP1 ISZERO PUSH2 0x312D JUMPI PUSH1 0x0 DUP1 REVERT JUMPDEST POP GAS CALL ISZERO DUP1 ISZERO PUSH2 0x141B JUMPI RETURNDATASIZE PUSH1 0x0 DUP1 RETURNDATACOPY RETURNDATASIZE PUSH1 0x0 REVERT JUMPDEST PUSH2 0x3160 DUP6 DUP6 PUSH1 0x0 DUP7 DUP7 DUP7 PUSH1 0x40 MLOAD DUP1 PUSH1 0x20 ADD PUSH1 0x40 MSTORE DUP1 PUSH1 0x0 DUP2 MSTORE POP PUSH2 0x3841 JUMP JUMPDEST PUSH2 0x316C DUP5 DUP5 DUP5 DUP5 PUSH2 0x3906 JUMP JUMPDEST PUSH2 0x3177 DUP4 DUP7 DUP5 PUSH2 0x3A74 JUMP JUMPDEST PUSH2 0x3196 DUP6 DUP6 PUSH1 0x0 DUP7 DUP7 DUP7 PUSH1 0x40 MLOAD DUP1 PUSH1 0x20 ADD PUSH1 0x40 MSTORE DUP1 PUSH1 0x0 DUP2 MSTORE POP PUSH2 0x3BB2 JUMP JUMPDEST DUP3 PUSH1 0x1 PUSH1 0x1 PUSH1 0xA0 SHL SUB AND DUP5 PUSH1 0x1 PUSH1 0x1 PUSH1 0xA0 SHL SUB AND DUP7 PUSH32 0xF0DED82AFBB1BB3FF3FC48CB2A26584AA84E4AF0BF309C804ECDB94D0F6A98BB DUP6 DUP6 PUSH1 0x40 MLOAD PUSH2 0x31DC SWAP3 SWAP2 SWAP1 PUSH2 0x4EFE JUMP JUMPDEST PUSH1 0x40 MLOAD DUP1 SWAP2 SUB SWAP1 LOG4 POP POP POP POP POP JUMP JUMPDEST PUSH1 0x0 PUSH2 0x31F7 DUP4 DUP4 PUSH2 0x2E37 JUMP JUMPDEST DUP1 PUSH2 0x322F JUMPI POP PUSH1 0x1 PUSH1 0x1 PUSH1 0xA0 SHL SUB DUP1 DUP4 AND PUSH1 0x0 SWAP1 DUP2 MSTORE PUSH1 0x1C PUSH1 0x20 SWAP1 DUP2 MSTORE PUSH1 0x40 DUP1 DUP4 KECCAK256 DUP9 DUP5 MSTORE DUP3 MSTORE DUP1 DUP4 KECCAK256 SWAP4 DUP8 AND DUP4 MSTORE SWAP3 SWAP1 MSTORE KECCAK256 SLOAD PUSH1 0xFF AND JUMPDEST DUP1 PUSH2 0x153F JUMPI POP PUSH1 0xB SLOAD PUSH2 0x100 SWAP1 DIV PUSH1 0xFF AND DUP1 ISZERO PUSH2 0x153F JUMPI POP POP POP PUSH1 0x0 SWAP2 DUP3 MSTORE PUSH1 0x1E PUSH1 0x20 SWAP1 DUP2 MSTORE PUSH1 0x40 DUP1 DUP5 KECCAK256 PUSH1 0x1 PUSH1 0x1 PUSH1 0xA0 SHL SUB SWAP4 SWAP1 SWAP4 AND DUP5 MSTORE SWAP2 SWAP1 MSTORE SWAP1 KECCAK256 SLOAD PUSH1 0xFF AND SWAP1 JUMP JUMPDEST PUSH1 0x2 DUP1 SLOAD PUSH1 0x1 PUSH1 0x1 PUSH1 0xA0 SHL SUB DUP4 DUP2 AND PUSH1 0x1 PUSH1 0x1 PUSH1 0xA0 SHL SUB NOT DUP4 AND DUP2 OR SWAP1 SWAP4 SSTORE PUSH1 0x40 MLOAD SWAP2 AND SWAP2 SWAP1 DUP3 SWAP1 PUSH32 0x8BE0079C531659141344CD1FD0A4F28419497F9722A3DAAFE3B4186F6B6457E0 SWAP1 PUSH1 0x0 SWAP1 LOG3 POP POP JUMP JUMPDEST PUSH1 0x1 PUSH1 0x1 PUSH1 0xA0 SHL SUB DUP6 AND PUSH1 0x0 SWAP1 DUP2 MSTORE PUSH1 0x16 PUSH1 0x20 SWAP1 DUP2 MSTORE PUSH1 0x40 DUP1 DUP4 KECCAK256 DUP11 DUP5 MSTORE SWAP1 SWAP2 MSTORE DUP2 KECCAK256 SLOAD DUP5 GT ISZERO PUSH2 0x3309 JUMPI PUSH1 0x40 MLOAD PUSH3 0x461BCD PUSH1 0xE5 SHL DUP2 MSTORE PUSH1 0x4 ADD PUSH2 0x953 SWAP1 PUSH2 0x4EE2 JUMP JUMPDEST DUP2 MLOAD DUP9 SWAP1 ISZERO DUP1 ISZERO SWAP1 PUSH2 0x331D JUMPI POP PUSH1 0x40 DUP5 MLOAD LT ISZERO JUMPDEST ISZERO PUSH2 0x332F JUMPI PUSH2 0x332C DUP10 DUP6 PUSH2 0x3C3A JUMP JUMPDEST SWAP1 POP JUMPDEST PUSH2 0x333E DUP10 DUP10 DUP10 DUP10 DUP10 DUP10 DUP10 PUSH2 0x3C63 JUMP JUMPDEST PUSH2 0x334D DUP10 DUP10 DUP10 DUP10 DUP10 DUP10 DUP10 PUSH2 0x3841 JUMP JUMPDEST PUSH2 0x3358 DUP8 DUP11 DUP8 PUSH2 0x3CE8 JUMP JUMPDEST PUSH2 0x3363 DUP8 DUP8 DUP8 PUSH2 0x3FA7 JUMP JUMPDEST PUSH2 0x336E DUP7 DUP3 DUP8 PUSH2 0x3A74 JUMP JUMPDEST PUSH2 0x337D DUP2 DUP10 DUP10 DUP10 DUP10 DUP10 DUP10 PUSH2 0x3BB2 JUMP JUMPDEST DUP6 PUSH1 0x1 PUSH1 0x1 PUSH1 0xA0 SHL SUB AND DUP8 PUSH1 0x1 PUSH1 0x1 PUSH1 0xA0 SHL SUB AND DUP11 PUSH32 0xFF4E9A26AF4EB73B8BACFAA4ABD4FEA03D9448E7B912DC5FF4019048875AA2D4 DUP12 DUP10 DUP10 DUP10 PUSH1 0x40 MLOAD PUSH2 0x33C7 SWAP5 SWAP4 SWAP3 SWAP2 SWAP1 PUSH2 0x4B5A JUMP JUMPDEST PUSH1 0x40 MLOAD DUP1 SWAP2 SUB SWAP1 LOG4 DUP9 DUP2 EQ PUSH2 0x286C JUMPI DUP1 DUP10 PUSH32 0x67C8BA31D2DD11F1384577B3405B04ED91EED1231E408432AD2458CAB37B2FA1 DUP8 PUSH1 0x40 MLOAD PUSH2 0x3409 SWAP2 DUP2 MSTORE PUSH1 0x20 ADD SWAP1 JUMP JUMPDEST PUSH1 0x40 MLOAD DUP1 SWAP2 SUB SWAP1 LOG3 SWAP9 SWAP8 POP POP POP POP POP POP POP POP JUMP JUMPDEST PUSH2 0x3449 PUSH1 0x40 MLOAD DUP1 PUSH1 0x40 ADD PUSH1 0x40 MSTORE DUP1 PUSH1 0xA DUP2 MSTORE PUSH1 0x20 ADD PUSH10 0x22A92199182A37B5B2B7 PUSH1 0xB1 SHL DUP2 MSTORE POP DUP4 PUSH2 0x30AF JUMP JUMPDEST PUSH2 0x3477 PUSH1 0x40 MLOAD DUP1 PUSH1 0x40 ADD PUSH1 0x40 MSTORE DUP1 PUSH1 0xC DUP2 MSTORE PUSH1 0x20 ADD PUSH12 0x22A921989A18182A37B5B2B7 PUSH1 0xA1 SHL DUP2 MSTORE POP DUP4 PUSH2 0x30AF JUMP JUMPDEST DUP1 ISZERO PUSH2 0x1B15 JUMPI PUSH1 0xB DUP1 SLOAD PUSH1 0xFF NOT AND PUSH1 0x1 OR SWAP1 SSTORE POP POP JUMP JUMPDEST PUSH2 0x3499 PUSH1 0x3 DUP3 PUSH2 0x2C98 JUMP JUMPDEST PUSH1 0x40 MLOAD PUSH1 0x1 PUSH1 0x1 PUSH1 0xA0 SHL SUB DUP3 AND SWAP1 PUSH32 0x6AE172837EA30B801FBFCDD4108AA1D5BF8FF775444FD70256B44E6BF3DFC3F6 SWAP1 PUSH1 0x0 SWAP1 LOG2 POP JUMP JUMPDEST PUSH1 0x0 PUSH1 0x1 PUSH1 0x1 PUSH1 0xA0 SHL SUB DUP3 AND PUSH2 0x3533 JUMPI PUSH1 0x40 MLOAD PUSH3 0x461BCD PUSH1 0xE5 SHL DUP2 MSTORE PUSH1 0x20 PUSH1 0x4 DUP3 ADD MSTORE PUSH1 0x22 PUSH1 0x24 DUP3 ADD MSTORE PUSH32 0x526F6C65733A206163636F756E7420697320746865207A65726F206164647265 PUSH1 0x44 DUP3 ADD MSTORE PUSH2 0x7373 PUSH1 0xF0 SHL PUSH1 0x64 DUP3 ADD MSTORE PUSH1 0x84 ADD PUSH2 0x953 JUMP JUMPDEST POP PUSH1 0x1 PUSH1 0x1 PUSH1 0xA0 SHL SUB AND PUSH1 0x0 SWAP1 DUP2 MSTORE PUSH1 0x20 SWAP2 SWAP1 SWAP2 MSTORE PUSH1 0x40 SWAP1 KECCAK256 SLOAD PUSH1 0xFF AND SWAP1 JUMP JUMPDEST PUSH1 0x0 PUSH2 0x355F ADDRESS DUP7 PUSH2 0x412A JUMP JUMPDEST SWAP1 POP PUSH1 0x1 PUSH1 0x1 PUSH1 0xA0 SHL SUB DUP2 AND ISZERO DUP1 ISZERO SWAP1 PUSH2 0x3576 JUMPI POP DUP4 JUMPDEST ISZERO PUSH2 0x35B3 JUMPI PUSH2 0x3584 DUP2 PUSH2 0x1E97 JUMP JUMPDEST ISZERO PUSH2 0x3592 JUMPI PUSH2 0x3592 DUP2 PUSH2 0x3007 JUMP JUMPDEST PUSH1 0x1 PUSH1 0x1 PUSH1 0xA0 SHL SUB DUP2 AND PUSH1 0x0 SWAP1 DUP2 MSTORE PUSH1 0x1A PUSH1 0x20 MSTORE PUSH1 0x40 SWAP1 KECCAK256 DUP1 SLOAD PUSH1 0xFF NOT AND SWAP1 SSTORE JUMPDEST PUSH2 0x35BD DUP6 DUP8 PUSH2 0x30AF JUMP JUMPDEST DUP3 DUP1 ISZERO PUSH2 0x35D0 JUMPI POP PUSH2 0x35CE DUP7 PUSH2 0x1E97 JUMP JUMPDEST ISZERO JUMPDEST ISZERO PUSH2 0x35DE JUMPI PUSH2 0x35DE DUP7 PUSH2 0x348E JUMP JUMPDEST DUP2 ISZERO PUSH2 0x106A JUMPI PUSH1 0x1 PUSH1 0x1 PUSH1 0xA0 SHL SUB DUP7 AND PUSH1 0x0 SWAP1 DUP2 MSTORE PUSH1 0x1A PUSH1 0x20 MSTORE PUSH1 0x40 SWAP1 KECCAK256 DUP1 SLOAD PUSH1 0xFF NOT AND PUSH1 0x1 OR SWAP1 SSTORE POP POP POP POP POP POP JUMP JUMPDEST PUSH1 0x2 SLOAD PUSH1 0x1 PUSH1 0x1 PUSH1 0xA0 SHL SUB AND CALLER EQ PUSH2 0x3639 JUMPI PUSH1 0x40 MLOAD PUSH3 0x461BCD PUSH1 0xE5 SHL DUP2 MSTORE PUSH1 0x4 ADD PUSH2 0x953 SWAP1 PUSH2 0x4E91 JUMP JUMPDEST PUSH1 0xB DUP1 SLOAD PUSH3 0xFF0000 NOT AND SWAP1 SSTORE JUMP JUMPDEST PUSH1 0x1 PUSH1 0x1 PUSH1 0xA0 SHL SUB DUP3 AND PUSH1 0x0 SWAP1 DUP2 MSTORE PUSH1 0x5 PUSH1 0x20 MSTORE PUSH1 0x40 SWAP1 KECCAK256 PUSH2 0x3669 SWAP1 DUP3 PUSH2 0x2C98 JUMP JUMPDEST DUP1 PUSH1 0x1 PUSH1 0x1 PUSH1 0xA0 SHL SUB AND DUP3 PUSH1 0x1 PUSH1 0x1 PUSH1 0xA0 SHL SUB AND PUSH32 0x9A01AEE9F656ABA8760D771CF21D803168ECC664C252C9374F4A3252481FBF35 PUSH1 0x40 MLOAD PUSH1 0x40 MLOAD DUP1 SWAP2 SUB SWAP1 LOG3 POP POP JUMP JUMPDEST PUSH1 0x0 JUMPDEST PUSH1 0x19 SLOAD DUP2 LT ISZERO PUSH2 0x3719 JUMPI PUSH1 0x0 PUSH1 0x1A PUSH1 0x0 PUSH1 0x19 DUP5 DUP2 SLOAD DUP2 LT PUSH2 0x36D3 JUMPI PUSH2 0x36D3 PUSH2 0x5053 JUMP JUMPDEST PUSH1 0x0 SWAP2 DUP3 MSTORE PUSH1 0x20 DUP1 DUP4 KECCAK256 SWAP2 SWAP1 SWAP2 ADD SLOAD PUSH1 0x1 PUSH1 0x1 PUSH1 0xA0 SHL SUB AND DUP4 MSTORE DUP3 ADD SWAP3 SWAP1 SWAP3 MSTORE PUSH1 0x40 ADD SWAP1 KECCAK256 DUP1 SLOAD PUSH1 0xFF NOT AND SWAP2 ISZERO ISZERO SWAP2 SWAP1 SWAP2 OR SWAP1 SSTORE DUP1 PUSH2 0x3711 DUP2 PUSH2 0x500C JUMP JUMPDEST SWAP2 POP POP PUSH2 0x36B0 JUMP JUMPDEST POP PUSH1 0x0 JUMPDEST DUP2 MLOAD DUP2 LT ISZERO PUSH2 0x3782 JUMPI PUSH1 0x1 PUSH1 0x1A PUSH1 0x0 DUP5 DUP5 DUP2 MLOAD DUP2 LT PUSH2 0x373E JUMPI PUSH2 0x373E PUSH2 0x5053 JUMP JUMPDEST PUSH1 0x20 SWAP1 DUP2 MUL SWAP2 SWAP1 SWAP2 ADD DUP2 ADD MLOAD PUSH1 0x1 PUSH1 0x1 PUSH1 0xA0 SHL SUB AND DUP3 MSTORE DUP2 ADD SWAP2 SWAP1 SWAP2 MSTORE PUSH1 0x40 ADD PUSH1 0x0 KECCAK256 DUP1 SLOAD PUSH1 0xFF NOT AND SWAP2 ISZERO ISZERO SWAP2 SWAP1 SWAP2 OR SWAP1 SSTORE DUP1 PUSH2 0x377A DUP2 PUSH2 0x500C JUMP JUMPDEST SWAP2 POP POP PUSH2 0x371D JUMP JUMPDEST POP DUP1 MLOAD PUSH2 0x1B15 SWAP1 PUSH1 0x19 SWAP1 PUSH1 0x20 DUP5 ADD SWAP1 PUSH2 0x433D JUMP JUMPDEST CHAINID PUSH1 0x0 SWAP1 DUP2 MSTORE PUSH1 0x4 PUSH1 0x20 MSTORE PUSH1 0x40 DUP2 KECCAK256 SLOAD DUP1 ISZERO PUSH2 0x37B1 JUMPI SWAP2 SWAP1 POP JUMP JUMPDEST PUSH2 0x37B9 PUSH2 0x41D9 JUMP JUMPDEST SWAP2 POP POP SWAP1 JUMP JUMPDEST PUSH2 0x37C9 DUP3 DUP3 PUSH2 0x34D0 JUMP JUMPDEST PUSH2 0x381F JUMPI PUSH1 0x40 MLOAD PUSH3 0x461BCD PUSH1 0xE5 SHL DUP2 MSTORE PUSH1 0x20 PUSH1 0x4 DUP3 ADD MSTORE PUSH1 0x21 PUSH1 0x24 DUP3 ADD MSTORE PUSH32 0x526F6C65733A206163636F756E7420646F6573206E6F74206861766520726F6C PUSH1 0x44 DUP3 ADD MSTORE PUSH1 0x65 PUSH1 0xF8 SHL PUSH1 0x64 DUP3 ADD MSTORE PUSH1 0x84 ADD PUSH2 0x953 JUMP JUMPDEST PUSH1 0x1 PUSH1 0x1 PUSH1 0xA0 SHL SUB AND PUSH1 0x0 SWAP1 DUP2 MSTORE PUSH1 0x20 SWAP2 SWAP1 SWAP2 MSTORE PUSH1 0x40 SWAP1 KECCAK256 DUP1 SLOAD PUSH1 0xFF NOT AND SWAP1 SSTORE JUMP JUMPDEST PUSH1 0x0 PUSH2 0x387B ADDRESS PUSH1 0x40 MLOAD DUP1 PUSH1 0x40 ADD PUSH1 0x40 MSTORE DUP1 PUSH1 0x16 DUP2 MSTORE PUSH1 0x20 ADD PUSH22 0x22A921989A18182A37B5B2B739AB30B634B230BA37B9 PUSH1 0x51 SHL DUP2 MSTORE POP PUSH2 0x412A JUMP JUMPDEST SWAP1 POP PUSH1 0x1 PUSH1 0x1 PUSH1 0xA0 SHL SUB DUP2 AND ISZERO PUSH2 0x38FC JUMPI PUSH1 0x40 MLOAD PUSH4 0x2907D53B PUSH1 0xE1 SHL DUP2 MSTORE PUSH1 0x1 PUSH1 0x1 PUSH1 0xA0 SHL SUB DUP3 AND SWAP1 PUSH4 0x520FAA76 SWAP1 PUSH2 0x38C9 SWAP1 PUSH1 0x0 SWAP1 CALLDATASIZE SWAP1 DUP14 SWAP1 DUP14 SWAP1 DUP14 SWAP1 DUP14 SWAP1 DUP14 SWAP1 DUP14 SWAP1 DUP14 SWAP1 PUSH1 0x4 ADD PUSH2 0x4CA3 JUMP JUMPDEST PUSH1 0x0 PUSH1 0x40 MLOAD DUP1 DUP4 SUB DUP2 PUSH1 0x0 DUP8 DUP1 EXTCODESIZE ISZERO DUP1 ISZERO PUSH2 0x38E3 JUMPI PUSH1 0x0 DUP1 REVERT JUMPDEST POP GAS CALL ISZERO DUP1 ISZERO PUSH2 0x38F7 JUMPI RETURNDATASIZE PUSH1 0x0 DUP1 RETURNDATACOPY RETURNDATASIZE PUSH1 0x0 REVERT JUMPDEST POP POP POP POP JUMPDEST POP POP POP POP POP POP POP POP JUMP JUMPDEST PUSH1 0xB SLOAD PUSH1 0xFF AND ISZERO PUSH2 0x393E JUMPI PUSH1 0x40 MLOAD PUSH3 0x461BCD PUSH1 0xE5 SHL DUP2 MSTORE PUSH1 0x20 PUSH1 0x4 DUP3 ADD MSTORE PUSH1 0x2 PUSH1 0x24 DUP3 ADD MSTORE PUSH2 0xD4D PUSH1 0xF2 SHL PUSH1 0x44 DUP3 ADD MSTORE PUSH1 0x64 ADD PUSH2 0x953 JUMP JUMPDEST PUSH2 0x3947 DUP3 PUSH2 0x41FD JUMP JUMPDEST PUSH2 0x3963 JUMPI PUSH1 0x40 MLOAD PUSH3 0x461BCD PUSH1 0xE5 SHL DUP2 MSTORE PUSH1 0x4 ADD PUSH2 0x953 SWAP1 PUSH2 0x4D9B JUMP JUMPDEST PUSH1 0x1 PUSH1 0x1 PUSH1 0xA0 SHL SUB DUP4 AND PUSH2 0x399E JUMPI PUSH1 0x40 MLOAD PUSH3 0x461BCD PUSH1 0xE5 SHL DUP2 MSTORE PUSH1 0x20 PUSH1 0x4 DUP3 ADD MSTORE PUSH1 0x2 PUSH1 0x24 DUP3 ADD MSTORE PUSH2 0x3537 PUSH1 0xF0 SHL PUSH1 0x44 DUP3 ADD MSTORE PUSH1 0x64 ADD PUSH2 0x953 JUMP JUMPDEST PUSH1 0xA SLOAD PUSH2 0x39AB SWAP1 DUP4 PUSH2 0x4220 JUMP JUMPDEST PUSH1 0xA SSTORE PUSH1 0x1 PUSH1 0x1 PUSH1 0xA0 SHL SUB DUP4 AND PUSH1 0x0 SWAP1 DUP2 MSTORE PUSH1 0xC PUSH1 0x20 MSTORE PUSH1 0x40 SWAP1 KECCAK256 SLOAD PUSH2 0x39D1 SWAP1 DUP4 PUSH2 0x4220 JUMP JUMPDEST PUSH1 0x1 PUSH1 0x1 PUSH1 0xA0 SHL SUB DUP1 DUP6 AND PUSH1 0x0 DUP2 DUP2 MSTORE PUSH1 0xC PUSH1 0x20 MSTORE PUSH1 0x40 SWAP1 DUP2 SWAP1 KECCAK256 SWAP4 SWAP1 SWAP4 SSTORE SWAP2 MLOAD SWAP1 DUP7 AND SWAP1 PUSH32 0xE9905D62635F049C2F4E11678EBF9DC3D1F8C4A653E290759B772E47BA00D00 SWAP1 PUSH2 0x3A25 SWAP1 DUP7 SWAP1 DUP7 SWAP1 PUSH2 0x4C8A JUMP JUMPDEST PUSH1 0x40 MLOAD DUP1 SWAP2 SUB SWAP1 LOG3 PUSH1 0x40 MLOAD DUP3 DUP2 MSTORE PUSH1 0x1 PUSH1 0x1 PUSH1 0xA0 SHL SUB DUP5 AND SWAP1 PUSH1 0x0 SWAP1 PUSH32 0xDDF252AD1BE2C89B69C2B068FC378DAA952BA7F163C4A11628F55A4DF523B3EF SWAP1 PUSH1 0x20 ADD PUSH1 0x40 MLOAD DUP1 SWAP2 SUB SWAP1 LOG3 POP POP POP POP JUMP JUMPDEST DUP1 ISZERO PUSH2 0xD87 JUMPI PUSH1 0x1 PUSH1 0x1 PUSH1 0xA0 SHL SUB DUP4 AND PUSH1 0x0 SWAP1 DUP2 MSTORE PUSH1 0x15 PUSH1 0x20 SWAP1 DUP2 MSTORE PUSH1 0x40 DUP1 DUP4 KECCAK256 DUP6 DUP5 MSTORE SWAP1 SWAP2 MSTORE SWAP1 KECCAK256 SLOAD PUSH2 0x3AE6 JUMPI PUSH1 0x1 PUSH1 0x1 PUSH1 0xA0 SHL SUB DUP4 AND PUSH1 0x0 DUP2 DUP2 MSTORE PUSH1 0x14 PUSH1 0x20 SWAP1 DUP2 MSTORE PUSH1 0x40 DUP1 DUP4 KECCAK256 DUP1 SLOAD PUSH1 0x1 DUP2 ADD DUP3 SSTORE DUP2 DUP6 MSTORE DUP4 DUP6 KECCAK256 ADD DUP8 SWAP1 SSTORE SWAP4 DUP4 MSTORE SWAP3 SLOAD PUSH1 0x15 DUP3 MSTORE DUP4 DUP4 KECCAK256 DUP7 DUP5 MSTORE SWAP1 SWAP2 MSTORE SWAP2 SWAP1 KECCAK256 SSTORE JUMPDEST PUSH1 0x1 PUSH1 0x1 PUSH1 0xA0 SHL SUB DUP4 AND PUSH1 0x0 SWAP1 DUP2 MSTORE PUSH1 0x16 PUSH1 0x20 SWAP1 DUP2 MSTORE PUSH1 0x40 DUP1 DUP4 KECCAK256 DUP6 DUP5 MSTORE SWAP1 SWAP2 MSTORE SWAP1 KECCAK256 SLOAD PUSH2 0x3B14 SWAP1 DUP3 PUSH2 0x4220 JUMP JUMPDEST PUSH1 0x1 PUSH1 0x1 PUSH1 0xA0 SHL SUB DUP5 AND PUSH1 0x0 SWAP1 DUP2 MSTORE PUSH1 0x16 PUSH1 0x20 SWAP1 DUP2 MSTORE PUSH1 0x40 DUP1 DUP4 KECCAK256 DUP7 DUP5 MSTORE DUP3 MSTORE DUP1 DUP4 KECCAK256 SWAP4 SWAP1 SWAP4 SSTORE PUSH1 0x12 SWAP1 MSTORE KECCAK256 SLOAD PUSH2 0x3B85 JUMPI PUSH1 0x11 DUP1 SLOAD PUSH1 0x1 DUP2 ADD DUP3 SSTORE PUSH32 0x31ECC21A745E3968A04E9570E4425BC18FA8019C68028196B546D1669C200C68 ADD DUP4 SWAP1 SSTORE SLOAD PUSH1 0x0 DUP4 DUP2 MSTORE PUSH1 0x12 PUSH1 0x20 MSTORE PUSH1 0x40 SWAP1 KECCAK256 SSTORE JUMPDEST PUSH1 0x0 DUP3 DUP2 MSTORE PUSH1 0x13 PUSH1 0x20 MSTORE PUSH1 0x40 SWAP1 KECCAK256 SLOAD PUSH2 0x3B9E SWAP1 DUP3 PUSH2 0x4220 JUMP JUMPDEST PUSH1 0x0 DUP4 DUP2 MSTORE PUSH1 0x13 PUSH1 0x20 MSTORE PUSH1 0x40 SWAP1 KECCAK256 SSTORE POP POP POP JUMP JUMPDEST PUSH1 0x0 PUSH2 0x3BEC DUP6 PUSH1 0x40 MLOAD DUP1 PUSH1 0x40 ADD PUSH1 0x40 MSTORE DUP1 PUSH1 0x16 DUP2 MSTORE PUSH1 0x20 ADD PUSH22 0x115490CC4D0C0C151BDAD95B9CD49958DA5C1A595B9D PUSH1 0x52 SHL DUP2 MSTORE POP PUSH2 0x412A JUMP JUMPDEST SWAP1 POP PUSH1 0x1 PUSH1 0x1 PUSH1 0xA0 SHL SUB DUP2 AND ISZERO PUSH2 0x38FC JUMPI PUSH1 0x40 MLOAD PUSH4 0x7A325ABB PUSH1 0xE1 SHL DUP2 MSTORE PUSH1 0x1 PUSH1 0x1 PUSH1 0xA0 SHL SUB DUP3 AND SWAP1 PUSH4 0xF464B576 SWAP1 PUSH2 0x38C9 SWAP1 PUSH1 0x0 SWAP1 CALLDATASIZE SWAP1 DUP14 SWAP1 DUP14 SWAP1 DUP14 SWAP1 DUP14 SWAP1 DUP14 SWAP1 DUP14 SWAP1 DUP14 SWAP1 PUSH1 0x4 ADD PUSH2 0x4CA3 JUMP JUMPDEST PUSH1 0x20 DUP2 ADD MLOAD PUSH1 0x0 SWAP1 PUSH1 0x0 NOT SWAP1 DUP1 DUP3 EQ ISZERO PUSH2 0x3C5A JUMPI PUSH1 0x40 DUP5 ADD MLOAD SWAP3 POP PUSH2 0x1E8F JUMP JUMPDEST POP SWAP3 SWAP4 SWAP3 POP POP POP JUMP JUMPDEST PUSH1 0x0 PUSH2 0x3C9A DUP7 PUSH1 0x40 MLOAD DUP1 PUSH1 0x40 ADD PUSH1 0x40 MSTORE DUP1 PUSH1 0x13 DUP2 MSTORE PUSH1 0x20 ADD PUSH19 0x22A921989A18182A37B5B2B739A9B2B73232B9 PUSH1 0x69 SHL DUP2 MSTORE POP PUSH2 0x412A JUMP JUMPDEST SWAP1 POP PUSH1 0x1 PUSH1 0x1 PUSH1 0xA0 SHL SUB DUP2 AND ISZERO PUSH2 0x38FC JUMPI PUSH1 0x40 MLOAD PUSH4 0x139D5695 PUSH1 0xE2 SHL DUP2 MSTORE PUSH1 0x1 PUSH1 0x1 PUSH1 0xA0 SHL SUB DUP3 AND SWAP1 PUSH4 0x4E755A54 SWAP1 PUSH2 0x38C9 SWAP1 PUSH1 0x0 SWAP1 CALLDATASIZE SWAP1 DUP14 SWAP1 DUP14 SWAP1 DUP14 SWAP1 DUP14 SWAP1 DUP14 SWAP1 DUP14 SWAP1 DUP14 SWAP1 PUSH1 0x4 ADD PUSH2 0x4CA3 JUMP JUMPDEST PUSH1 0x1 PUSH1 0x1 PUSH1 0xA0 SHL SUB DUP4 AND PUSH1 0x0 SWAP1 DUP2 MSTORE PUSH1 0x16 PUSH1 0x20 SWAP1 DUP2 MSTORE PUSH1 0x40 DUP1 DUP4 KECCAK256 DUP6 DUP5 MSTORE SWAP1 SWAP2 MSTORE SWAP1 KECCAK256 SLOAD PUSH2 0x3D16 SWAP1 DUP3 PUSH2 0x2EB6 JUMP JUMPDEST PUSH1 0x1 PUSH1 0x1 PUSH1 0xA0 SHL SUB DUP5 AND PUSH1 0x0 SWAP1 DUP2 MSTORE PUSH1 0x16 PUSH1 0x20 SWAP1 DUP2 MSTORE PUSH1 0x40 DUP1 DUP4 KECCAK256 DUP7 DUP5 MSTORE DUP3 MSTORE DUP1 DUP4 KECCAK256 SWAP4 SWAP1 SWAP4 SSTORE PUSH1 0x13 SWAP1 MSTORE KECCAK256 SLOAD PUSH2 0x3D4D SWAP1 DUP3 PUSH2 0x2EB6 JUMP JUMPDEST PUSH1 0x0 DUP4 DUP2 MSTORE PUSH1 0x13 PUSH1 0x20 MSTORE PUSH1 0x40 SWAP1 KECCAK256 DUP2 SWAP1 SSTORE PUSH2 0x3E3A JUMPI PUSH1 0x0 DUP3 DUP2 MSTORE PUSH1 0x12 PUSH1 0x20 MSTORE PUSH1 0x40 SWAP1 KECCAK256 SLOAD DUP1 PUSH2 0x3D8E JUMPI PUSH1 0x40 MLOAD PUSH3 0x461BCD PUSH1 0xE5 SHL DUP2 MSTORE PUSH1 0x4 ADD PUSH2 0x953 SWAP1 PUSH2 0x4D9B JUMP JUMPDEST PUSH1 0x11 DUP1 SLOAD PUSH1 0x0 SWAP2 SWAP1 PUSH2 0x3DA2 SWAP1 PUSH1 0x1 SWAP1 PUSH2 0x4F8A JUMP JUMPDEST DUP2 SLOAD DUP2 LT PUSH2 0x3DB2 JUMPI PUSH2 0x3DB2 PUSH2 0x5053 JUMP JUMPDEST SWAP1 PUSH1 0x0 MSTORE PUSH1 0x20 PUSH1 0x0 KECCAK256 ADD SLOAD SWAP1 POP DUP1 PUSH1 0x11 PUSH1 0x1 DUP5 PUSH2 0x3DCF SWAP2 SWAP1 PUSH2 0x4F8A JUMP JUMPDEST DUP2 SLOAD DUP2 LT PUSH2 0x3DDF JUMPI PUSH2 0x3DDF PUSH2 0x5053 JUMP JUMPDEST PUSH1 0x0 SWAP2 DUP3 MSTORE PUSH1 0x20 DUP1 DUP4 KECCAK256 SWAP1 SWAP2 ADD SWAP3 SWAP1 SWAP3 SSTORE DUP3 DUP2 MSTORE PUSH1 0x12 SWAP1 SWAP2 MSTORE PUSH1 0x40 SWAP1 KECCAK256 DUP3 SWAP1 SSTORE PUSH1 0x11 DUP1 SLOAD DUP1 PUSH2 0x3E10 JUMPI PUSH2 0x3E10 PUSH2 0x503D JUMP JUMPDEST PUSH1 0x0 DUP3 DUP2 MSTORE PUSH1 0x20 DUP1 DUP3 KECCAK256 DUP4 ADD PUSH1 0x0 NOT SWAP1 DUP2 ADD DUP4 SWAP1 SSTORE SWAP1 SWAP3 ADD SWAP1 SWAP3 SSTORE DUP6 DUP3 MSTORE PUSH1 0x12 SWAP1 MSTORE PUSH1 0x40 DUP2 KECCAK256 SSTORE POP POP JUMPDEST PUSH1 0x1 PUSH1 0x1 PUSH1 0xA0 SHL SUB DUP4 AND PUSH1 0x0 SWAP1 DUP2 MSTORE PUSH1 0x16 PUSH1 0x20 SWAP1 DUP2 MSTORE PUSH1 0x40 DUP1 DUP4 KECCAK256 DUP6 DUP5 MSTORE SWAP1 SWAP2 MSTORE SWAP1 KECCAK256 SLOAD PUSH2 0xD87 JUMPI PUSH1 0x1 PUSH1 0x1 PUSH1 0xA0 SHL SUB DUP4 AND PUSH1 0x0 SWAP1 DUP2 MSTORE PUSH1 0x15 PUSH1 0x20 SWAP1 DUP2 MSTORE PUSH1 0x40 DUP1 DUP4 KECCAK256 DUP6 DUP5 MSTORE SWAP1 SWAP2 MSTORE SWAP1 KECCAK256 SLOAD DUP1 PUSH2 0x3EA3 JUMPI PUSH1 0x40 MLOAD PUSH3 0x461BCD PUSH1 0xE5 SHL DUP2 MSTORE PUSH1 0x4 ADD PUSH2 0x953 SWAP1 PUSH2 0x4D9B JUMP JUMPDEST PUSH1 0x1 PUSH1 0x1 PUSH1 0xA0 SHL SUB DUP5 AND PUSH1 0x0 SWAP1 DUP2 MSTORE PUSH1 0x14 PUSH1 0x20 MSTORE PUSH1 0x40 DUP2 KECCAK256 DUP1 SLOAD PUSH2 0x3EC9 SWAP1 PUSH1 0x1 SWAP1 PUSH2 0x4F8A JUMP JUMPDEST DUP2 SLOAD DUP2 LT PUSH2 0x3ED9 JUMPI PUSH2 0x3ED9 PUSH2 0x5053 JUMP JUMPDEST PUSH1 0x0 SWAP2 DUP3 MSTORE PUSH1 0x20 DUP1 DUP4 KECCAK256 SWAP1 SWAP2 ADD SLOAD PUSH1 0x1 PUSH1 0x1 PUSH1 0xA0 SHL SUB DUP9 AND DUP4 MSTORE PUSH1 0x14 SWAP1 SWAP2 MSTORE PUSH1 0x40 SWAP1 SWAP2 KECCAK256 SWAP1 SWAP2 POP DUP2 SWAP1 PUSH2 0x3F0D PUSH1 0x1 DUP6 PUSH2 0x4F8A JUMP JUMPDEST DUP2 SLOAD DUP2 LT PUSH2 0x3F1D JUMPI PUSH2 0x3F1D PUSH2 0x5053 JUMP JUMPDEST PUSH1 0x0 SWAP2 DUP3 MSTORE PUSH1 0x20 DUP1 DUP4 KECCAK256 SWAP1 SWAP2 ADD SWAP3 SWAP1 SWAP3 SSTORE PUSH1 0x1 PUSH1 0x1 PUSH1 0xA0 SHL SUB DUP8 AND DUP1 DUP3 MSTORE PUSH1 0x15 DUP4 MSTORE PUSH1 0x40 DUP1 DUP4 KECCAK256 DUP6 DUP5 MSTORE DUP5 MSTORE DUP1 DUP4 KECCAK256 DUP7 SWAP1 SSTORE SWAP1 DUP3 MSTORE PUSH1 0x14 SWAP1 SWAP3 MSTORE KECCAK256 DUP1 SLOAD DUP1 PUSH2 0x3F67 JUMPI PUSH2 0x3F67 PUSH2 0x503D JUMP JUMPDEST PUSH1 0x0 DUP3 DUP2 MSTORE PUSH1 0x20 DUP1 DUP3 KECCAK256 DUP4 ADD PUSH1 0x0 NOT SWAP1 DUP2 ADD DUP4 SWAP1 SSTORE SWAP1 SWAP3 ADD SWAP1 SWAP3 SSTORE PUSH1 0x1 PUSH1 0x1 PUSH1 0xA0 SHL SUB DUP8 AND DUP3 MSTORE PUSH1 0x15 DUP2 MSTORE PUSH1 0x40 DUP1 DUP4 KECCAK256 DUP8 DUP5 MSTORE SWAP1 SWAP2 MSTORE DUP2 KECCAK256 SSTORE POP POP POP POP POP JUMP JUMPDEST PUSH1 0xB SLOAD PUSH1 0xFF AND ISZERO PUSH2 0x3FDF JUMPI PUSH1 0x40 MLOAD PUSH3 0x461BCD PUSH1 0xE5 SHL DUP2 MSTORE PUSH1 0x20 PUSH1 0x4 DUP3 ADD MSTORE PUSH1 0x2 PUSH1 0x24 DUP3 ADD MSTORE PUSH2 0xD4D PUSH1 0xF2 SHL PUSH1 0x44 DUP3 ADD MSTORE PUSH1 0x64 ADD PUSH2 0x953 JUMP JUMPDEST PUSH2 0x3FE8 DUP2 PUSH2 0x41FD JUMP JUMPDEST PUSH2 0x4004 JUMPI PUSH1 0x40 MLOAD PUSH3 0x461BCD PUSH1 0xE5 SHL DUP2 MSTORE PUSH1 0x4 ADD PUSH2 0x953 SWAP1 PUSH2 0x4D9B JUMP JUMPDEST PUSH1 0x1 PUSH1 0x1 PUSH1 0xA0 SHL SUB DUP3 AND PUSH2 0x403F JUMPI PUSH1 0x40 MLOAD PUSH3 0x461BCD PUSH1 0xE5 SHL DUP2 MSTORE PUSH1 0x20 PUSH1 0x4 DUP3 ADD MSTORE PUSH1 0x2 PUSH1 0x24 DUP3 ADD MSTORE PUSH2 0x3537 PUSH1 0xF0 SHL PUSH1 0x44 DUP3 ADD MSTORE PUSH1 0x64 ADD PUSH2 0x953 JUMP JUMPDEST PUSH1 0x1 PUSH1 0x1 PUSH1 0xA0 SHL SUB DUP4 AND PUSH1 0x0 SWAP1 DUP2 MSTORE PUSH1 0xC PUSH1 0x20 MSTORE PUSH1 0x40 SWAP1 KECCAK256 SLOAD DUP2 GT ISZERO PUSH2 0x4077 JUMPI PUSH1 0x40 MLOAD PUSH3 0x461BCD PUSH1 0xE5 SHL DUP2 MSTORE PUSH1 0x4 ADD PUSH2 0x953 SWAP1 PUSH2 0x4EE2 JUMP JUMPDEST PUSH1 0x1 PUSH1 0x1 PUSH1 0xA0 SHL SUB DUP4 AND PUSH1 0x0 SWAP1 DUP2 MSTORE PUSH1 0xC PUSH1 0x20 MSTORE PUSH1 0x40 SWAP1 KECCAK256 SLOAD PUSH2 0x409A SWAP1 DUP3 PUSH2 0x2EB6 JUMP JUMPDEST PUSH1 0x1 PUSH1 0x1 PUSH1 0xA0 SHL SUB DUP1 DUP6 AND PUSH1 0x0 SWAP1 DUP2 MSTORE PUSH1 0xC PUSH1 0x20 MSTORE PUSH1 0x40 DUP1 DUP3 KECCAK256 SWAP4 SWAP1 SWAP4 SSTORE SWAP1 DUP5 AND DUP2 MSTORE KECCAK256 SLOAD PUSH2 0x40C9 SWAP1 DUP3 PUSH2 0x4220 JUMP JUMPDEST PUSH1 0x1 PUSH1 0x1 PUSH1 0xA0 SHL SUB DUP1 DUP5 AND PUSH1 0x0 DUP2 DUP2 MSTORE PUSH1 0xC PUSH1 0x20 MSTORE PUSH1 0x40 SWAP1 DUP2 SWAP1 KECCAK256 SWAP4 SWAP1 SWAP4 SSTORE SWAP2 MLOAD SWAP1 DUP6 AND SWAP1 PUSH32 0xDDF252AD1BE2C89B69C2B068FC378DAA952BA7F163C4A11628F55A4DF523B3EF SWAP1 PUSH2 0x411D SWAP1 DUP6 DUP2 MSTORE PUSH1 0x20 ADD SWAP1 JUMP JUMPDEST PUSH1 0x40 MLOAD DUP1 SWAP2 SUB SWAP1 LOG3 POP POP POP JUMP JUMPDEST PUSH1 0x0 DUP1 DUP3 PUSH1 0x40 MLOAD PUSH1 0x20 ADD PUSH2 0x413E SWAP2 SWAP1 PUSH2 0x4AA7 JUMP JUMPDEST PUSH1 0x40 DUP1 MLOAD DUP1 DUP4 SUB PUSH1 0x1F NOT ADD DUP2 MSTORE SWAP1 DUP3 SWAP1 MSTORE DUP1 MLOAD PUSH1 0x20 SWAP1 SWAP2 ADD KECCAK256 PUSH1 0x0 SLOAD PUSH4 0x555DDC65 PUSH1 0xE1 SHL DUP4 MSTORE PUSH1 0x1 PUSH1 0x1 PUSH1 0xA0 SHL SUB DUP8 DUP2 AND PUSH1 0x4 DUP6 ADD MSTORE PUSH1 0x24 DUP5 ADD DUP4 SWAP1 MSTORE SWAP2 SWAP4 POP AND SWAP1 PUSH4 0xAABBB8CA SWAP1 PUSH1 0x44 ADD PUSH1 0x20 PUSH1 0x40 MLOAD DUP1 DUP4 SUB DUP2 DUP7 DUP1 EXTCODESIZE ISZERO DUP1 ISZERO PUSH2 0x41A1 JUMPI PUSH1 0x0 DUP1 REVERT JUMPDEST POP GAS STATICCALL ISZERO DUP1 ISZERO PUSH2 0x41B5 JUMPI RETURNDATASIZE PUSH1 0x0 DUP1 RETURNDATACOPY RETURNDATASIZE PUSH1 0x0 REVERT JUMPDEST POP POP POP POP PUSH1 0x40 MLOAD RETURNDATASIZE PUSH1 0x1F NOT PUSH1 0x1F DUP3 ADD AND DUP3 ADD DUP1 PUSH1 0x40 MSTORE POP DUP2 ADD SWAP1 PUSH2 0x153F SWAP2 SWAP1 PUSH2 0x44F4 JUMP JUMPDEST PUSH1 0x0 CHAINID DUP2 PUSH2 0x41E5 PUSH2 0x1D3D JUMP JUMPDEST PUSH1 0x0 SWAP3 DUP4 MSTORE PUSH1 0x4 PUSH1 0x20 MSTORE PUSH1 0x40 SWAP1 SWAP3 KECCAK256 DUP3 SWAP1 SSTORE POP SWAP2 SWAP1 POP JUMP JUMPDEST PUSH1 0x9 SLOAD PUSH1 0x0 SWAP1 DUP3 SWAP1 PUSH2 0x4219 SWAP1 PUSH2 0x4213 DUP4 DUP3 PUSH2 0x422C JUMP JUMPDEST SWAP1 PUSH2 0x4238 JUMP JUMPDEST EQ SWAP3 SWAP2 POP POP JUMP JUMPDEST PUSH1 0x0 PUSH2 0x1C71 DUP3 DUP5 PUSH2 0x4F31 JUMP JUMPDEST PUSH1 0x0 PUSH2 0x1C71 DUP3 DUP5 PUSH2 0x4F49 JUMP JUMPDEST PUSH1 0x0 PUSH2 0x1C71 DUP3 DUP5 PUSH2 0x4F6B JUMP JUMPDEST DUP3 DUP1 SLOAD PUSH2 0x4250 SWAP1 PUSH2 0x4FD1 JUMP JUMPDEST SWAP1 PUSH1 0x0 MSTORE PUSH1 0x20 PUSH1 0x0 KECCAK256 SWAP1 PUSH1 0x1F ADD PUSH1 0x20 SWAP1 DIV DUP2 ADD SWAP3 DUP3 PUSH2 0x4272 JUMPI PUSH1 0x0 DUP6 SSTORE PUSH2 0x42B8 JUMP JUMPDEST DUP3 PUSH1 0x1F LT PUSH2 0x428B JUMPI DUP1 MLOAD PUSH1 0xFF NOT AND DUP4 DUP1 ADD OR DUP6 SSTORE PUSH2 0x42B8 JUMP JUMPDEST DUP3 DUP1 ADD PUSH1 0x1 ADD DUP6 SSTORE DUP3 ISZERO PUSH2 0x42B8 JUMPI SWAP2 DUP3 ADD JUMPDEST DUP3 DUP2 GT ISZERO PUSH2 0x42B8 JUMPI DUP3 MLOAD DUP3 SSTORE SWAP2 PUSH1 0x20 ADD SWAP2 SWAP1 PUSH1 0x1 ADD SWAP1 PUSH2 0x429D JUMP JUMPDEST POP PUSH2 0x42C4 SWAP3 SWAP2 POP PUSH2 0x4392 JUMP JUMPDEST POP SWAP1 JUMP JUMPDEST POP DUP1 SLOAD PUSH2 0x42D4 SWAP1 PUSH2 0x4FD1 JUMP JUMPDEST PUSH1 0x0 DUP3 SSTORE DUP1 PUSH1 0x1F LT PUSH2 0x42E4 JUMPI POP POP JUMP JUMPDEST PUSH1 0x1F ADD PUSH1 0x20 SWAP1 DIV SWAP1 PUSH1 0x0 MSTORE PUSH1 0x20 PUSH1 0x0 KECCAK256 SWAP1 DUP2 ADD SWAP1 PUSH2 0x10A2 SWAP2 SWAP1 PUSH2 0x4392 JUMP JUMPDEST DUP3 DUP1 SLOAD DUP3 DUP3 SSTORE SWAP1 PUSH1 0x0 MSTORE PUSH1 0x20 PUSH1 0x0 KECCAK256 SWAP1 DUP2 ADD SWAP3 DUP3 ISZERO PUSH2 0x42B8 JUMPI SWAP2 PUSH1 0x20 MUL DUP3 ADD JUMPDEST DUP3 DUP2 GT ISZERO PUSH2 0x42B8 JUMPI DUP3 CALLDATALOAD DUP3 SSTORE SWAP2 PUSH1 0x20 ADD SWAP2 SWAP1 PUSH1 0x1 ADD SWAP1 PUSH2 0x4322 JUMP JUMPDEST DUP3 DUP1 SLOAD DUP3 DUP3 SSTORE SWAP1 PUSH1 0x0 MSTORE PUSH1 0x20 PUSH1 0x0 KECCAK256 SWAP1 DUP2 ADD SWAP3 DUP3 ISZERO PUSH2 0x42B8 JUMPI SWAP2 PUSH1 0x20 MUL DUP3 ADD JUMPDEST DUP3 DUP2 GT ISZERO PUSH2 0x42B8 JUMPI DUP3 MLOAD DUP3 SLOAD PUSH1 0x1 PUSH1 0x1 PUSH1 0xA0 SHL SUB NOT AND PUSH1 0x1 PUSH1 0x1 PUSH1 0xA0 SHL SUB SWAP1 SWAP2 AND OR DUP3 SSTORE PUSH1 0x20 SWAP1 SWAP3 ADD SWAP2 PUSH1 0x1 SWAP1 SWAP2 ADD SWAP1 PUSH2 0x435D JUMP JUMPDEST JUMPDEST DUP1 DUP3 GT ISZERO PUSH2 0x42C4 JUMPI PUSH1 0x0 DUP2 SSTORE PUSH1 0x1 ADD PUSH2 0x4393 JUMP JUMPDEST PUSH1 0x0 DUP1 DUP4 PUSH1 0x1F DUP5 ADD SLT PUSH2 0x43B9 JUMPI PUSH1 0x0 DUP1 REVERT JUMPDEST POP DUP2 CALLDATALOAD PUSH8 0xFFFFFFFFFFFFFFFF DUP2 GT ISZERO PUSH2 0x43D1 JUMPI PUSH1 0x0 DUP1 REVERT JUMPDEST PUSH1 0x20 DUP4 ADD SWAP2 POP DUP4 PUSH1 0x20 DUP3 PUSH1 0x5 SHL DUP6 ADD ADD GT ISZERO PUSH2 0x43EC JUMPI PUSH1 0x0 DUP1 REVERT JUMPDEST SWAP3 POP SWAP3 SWAP1 POP JUMP JUMPDEST DUP1 CALLDATALOAD DUP1 ISZERO ISZERO DUP2 EQ PUSH2 0x4403 JUMPI PUSH1 0x0 DUP1 REVERT JUMPDEST SWAP2 SWAP1 POP JUMP JUMPDEST PUSH1 0x0 DUP1 DUP4 PUSH1 0x1F DUP5 ADD SLT PUSH2 0x441A JUMPI PUSH1 0x0 DUP1 REVERT JUMPDEST POP DUP2 CALLDATALOAD PUSH8 0xFFFFFFFFFFFFFFFF DUP2 GT ISZERO PUSH2 0x4432 JUMPI PUSH1 0x0 DUP1 REVERT JUMPDEST PUSH1 0x20 DUP4 ADD SWAP2 POP DUP4 PUSH1 0x20 DUP3 DUP6 ADD ADD GT ISZERO PUSH2 0x43EC JUMPI PUSH1 0x0 DUP1 REVERT JUMPDEST PUSH1 0x0 DUP3 PUSH1 0x1F DUP4 ADD SLT PUSH2 0x445B JUMPI PUSH1 0x0 DUP1 REVERT JUMPDEST DUP2 CALLDATALOAD PUSH8 0xFFFFFFFFFFFFFFFF DUP1 DUP3 GT ISZERO PUSH2 0x4476 JUMPI PUSH2 0x4476 PUSH2 0x5069 JUMP JUMPDEST PUSH1 0x40 MLOAD PUSH1 0x1F DUP4 ADD PUSH1 0x1F NOT SWAP1 DUP2 AND PUSH1 0x3F ADD AND DUP2 ADD SWAP1 DUP3 DUP3 GT DUP2 DUP4 LT OR ISZERO PUSH2 0x449E JUMPI PUSH2 0x449E PUSH2 0x5069 JUMP JUMPDEST DUP2 PUSH1 0x40 MSTORE DUP4 DUP2 MSTORE DUP7 PUSH1 0x20 DUP6 DUP9 ADD ADD GT ISZERO PUSH2 0x44B7 JUMPI PUSH1 0x0 DUP1 REVERT JUMPDEST DUP4 PUSH1 0x20 DUP8 ADD PUSH1 0x20 DUP4 ADD CALLDATACOPY PUSH1 0x0 PUSH1 0x20 DUP6 DUP4 ADD ADD MSTORE DUP1 SWAP5 POP POP POP POP POP SWAP3 SWAP2 POP POP JUMP JUMPDEST PUSH1 0x0 PUSH1 0x20 DUP3 DUP5 SUB SLT ISZERO PUSH2 0x44E9 JUMPI PUSH1 0x0 DUP1 REVERT JUMPDEST DUP2 CALLDATALOAD PUSH2 0x1C71 DUP2 PUSH2 0x507F JUMP JUMPDEST PUSH1 0x0 PUSH1 0x20 DUP3 DUP5 SUB SLT ISZERO PUSH2 0x4506 JUMPI PUSH1 0x0 DUP1 REVERT JUMPDEST DUP2 MLOAD PUSH2 0x1C71 DUP2 PUSH2 0x507F JUMP JUMPDEST PUSH1 0x0 DUP1 PUSH1 0x40 DUP4 DUP6 SUB SLT ISZERO PUSH2 0x4524 JUMPI PUSH1 0x0 DUP1 REVERT JUMPDEST DUP3 CALLDATALOAD PUSH2 0x452F DUP2 PUSH2 0x507F JUMP JUMPDEST SWAP2 POP PUSH1 0x20 DUP4 ADD CALLDATALOAD PUSH2 0x453F DUP2 PUSH2 0x507F JUMP JUMPDEST DUP1 SWAP2 POP POP SWAP3 POP SWAP3 SWAP1 POP JUMP JUMPDEST PUSH1 0x0 DUP1 PUSH1 0x0 DUP1 PUSH1 0x0 DUP1 PUSH1 0xC0 DUP8 DUP10 SUB SLT ISZERO PUSH2 0x4563 JUMPI PUSH1 0x0 DUP1 REVERT JUMPDEST DUP7 CALLDATALOAD PUSH2 0x456E DUP2 PUSH2 0x507F JUMP JUMPDEST SWAP6 POP PUSH1 0x20 DUP8 ADD CALLDATALOAD PUSH2 0x457E DUP2 PUSH2 0x507F JUMP JUMPDEST SWAP5 POP PUSH1 0x40 DUP8 ADD CALLDATALOAD PUSH8 0xFFFFFFFFFFFFFFFF DUP1 DUP3 GT ISZERO PUSH2 0x459B JUMPI PUSH1 0x0 DUP1 REVERT JUMPDEST PUSH2 0x45A7 DUP11 DUP4 DUP12 ADD PUSH2 0x444A JUMP JUMPDEST SWAP6 POP PUSH1 0x60 DUP10 ADD CALLDATALOAD SWAP2 POP DUP1 DUP3 GT ISZERO PUSH2 0x45BD JUMPI PUSH1 0x0 DUP1 REVERT JUMPDEST PUSH2 0x45C9 DUP11 DUP4 DUP12 ADD PUSH2 0x444A JUMP JUMPDEST SWAP5 POP PUSH1 0x80 DUP10 ADD CALLDATALOAD SWAP4 POP PUSH1 0xA0 DUP10 ADD CALLDATALOAD SWAP2 POP DUP1 DUP3 GT ISZERO PUSH2 0x45E6 JUMPI PUSH1 0x0 DUP1 REVERT JUMPDEST POP PUSH2 0x45F3 DUP10 DUP3 DUP11 ADD PUSH2 0x444A JUMP JUMPDEST SWAP2 POP POP SWAP3 SWAP6 POP SWAP3 SWAP6 POP SWAP3 SWAP6 JUMP JUMPDEST PUSH1 0x0 DUP1 PUSH1 0x0 PUSH1 0x60 DUP5 DUP7 SUB SLT ISZERO PUSH2 0x4615 JUMPI PUSH1 0x0 DUP1 REVERT JUMPDEST DUP4 CALLDATALOAD PUSH2 0x4620 DUP2 PUSH2 0x507F JUMP JUMPDEST SWAP3 POP PUSH1 0x20 DUP5 ADD CALLDATALOAD PUSH2 0x4630 DUP2 PUSH2 0x507F JUMP JUMPDEST SWAP3 SWAP6 SWAP3 SWAP5 POP POP POP PUSH1 0x40 SWAP2 SWAP1 SWAP2 ADD CALLDATALOAD SWAP1 JUMP JUMPDEST PUSH1 0x0 DUP1 PUSH1 0x0 DUP1 PUSH1 0x0 PUSH1 0x80 DUP7 DUP9 SUB SLT ISZERO PUSH2 0x4659 JUMPI PUSH1 0x0 DUP1 REVERT JUMPDEST DUP6 CALLDATALOAD PUSH2 0x4664 DUP2 PUSH2 0x507F JUMP JUMPDEST SWAP5 POP PUSH1 0x20 DUP7 ADD CALLDATALOAD PUSH2 0x4674 DUP2 PUSH2 0x507F JUMP JUMPDEST SWAP4 POP PUSH1 0x40 DUP7 ADD CALLDATALOAD SWAP3 POP PUSH1 0x60 DUP7 ADD CALLDATALOAD PUSH8 0xFFFFFFFFFFFFFFFF DUP2 GT ISZERO PUSH2 0x4697 JUMPI PUSH1 0x0 DUP1 REVERT JUMPDEST PUSH2 0x46A3 DUP9 DUP3 DUP10 ADD PUSH2 0x4408 JUMP JUMPDEST SWAP7 SWAP10 SWAP6 SWAP9 POP SWAP4 SWAP7 POP SWAP3 SWAP5 SWAP4 SWAP3 POP POP POP JUMP JUMPDEST PUSH1 0x0 DUP1 PUSH1 0x40 DUP4 DUP6 SUB SLT ISZERO PUSH2 0x46C7 JUMPI PUSH1 0x0 DUP1 REVERT JUMPDEST DUP3 CALLDATALOAD PUSH2 0x46D2 DUP2 PUSH2 0x507F JUMP JUMPDEST SWAP2 POP PUSH2 0x46E0 PUSH1 0x20 DUP5 ADD PUSH2 0x43F3 JUMP JUMPDEST SWAP1 POP SWAP3 POP SWAP3 SWAP1 POP JUMP JUMPDEST PUSH1 0x0 DUP1 PUSH1 0x0 DUP1 PUSH1 0x0 DUP1 PUSH1 0xA0 DUP8 DUP10 SUB SLT ISZERO PUSH2 0x4702 JUMPI PUSH1 0x0 DUP1 REVERT JUMPDEST DUP7 CALLDATALOAD PUSH2 0x470D DUP2 PUSH2 0x507F JUMP JUMPDEST SWAP6 POP PUSH1 0x20 DUP8 ADD CALLDATALOAD PUSH8 0xFFFFFFFFFFFFFFFF DUP2 GT ISZERO PUSH2 0x4729 JUMPI PUSH1 0x0 DUP1 REVERT JUMPDEST PUSH2 0x4735 DUP10 DUP3 DUP11 ADD PUSH2 0x4408 JUMP JUMPDEST SWAP1 SWAP7 POP SWAP5 POP PUSH2 0x4748 SWAP1 POP PUSH1 0x40 DUP9 ADD PUSH2 0x43F3 JUMP JUMPDEST SWAP3 POP PUSH2 0x4756 PUSH1 0x60 DUP9 ADD PUSH2 0x43F3 JUMP JUMPDEST SWAP2 POP PUSH2 0x4764 PUSH1 0x80 DUP9 ADD PUSH2 0x43F3 JUMP JUMPDEST SWAP1 POP SWAP3 SWAP6 POP SWAP3 SWAP6 POP SWAP3 SWAP6 JUMP JUMPDEST PUSH1 0x0 DUP1 PUSH1 0x40 DUP4 DUP6 SUB SLT ISZERO PUSH2 0x4783 JUMPI PUSH1 0x0 DUP1 REVERT JUMPDEST DUP3 CALLDATALOAD PUSH2 0x478E DUP2 PUSH2 0x507F JUMP JUMPDEST SWAP5 PUSH1 0x20 SWAP4 SWAP1 SWAP4 ADD CALLDATALOAD SWAP4 POP POP POP JUMP JUMPDEST PUSH1 0x0 DUP1 PUSH1 0x0 DUP1 PUSH1 0x60 DUP6 DUP8 SUB SLT ISZERO PUSH2 0x47B2 JUMPI PUSH1 0x0 DUP1 REVERT JUMPDEST DUP5 CALLDATALOAD PUSH2 0x47BD DUP2 PUSH2 0x507F JUMP JUMPDEST SWAP4 POP PUSH1 0x20 DUP6 ADD CALLDATALOAD SWAP3 POP PUSH1 0x40 DUP6 ADD CALLDATALOAD PUSH8 0xFFFFFFFFFFFFFFFF DUP2 GT ISZERO PUSH2 0x47E0 JUMPI PUSH1 0x0 DUP1 REVERT JUMPDEST PUSH2 0x47EC DUP8 DUP3 DUP9 ADD PUSH2 0x4408 JUMP JUMPDEST SWAP6 SWAP9 SWAP5 SWAP8 POP SWAP6 POP POP POP POP JUMP JUMPDEST PUSH1 0x0 DUP1 PUSH1 0x20 DUP4 DUP6 SUB SLT ISZERO PUSH2 0x480B JUMPI PUSH1 0x0 DUP1 REVERT JUMPDEST DUP3 CALLDATALOAD PUSH8 0xFFFFFFFFFFFFFFFF DUP2 GT ISZERO PUSH2 0x4822 JUMPI PUSH1 0x0 DUP1 REVERT JUMPDEST PUSH2 0x482E DUP6 DUP3 DUP7 ADD PUSH2 0x43A7 JUMP JUMPDEST SWAP1 SWAP7 SWAP1 SWAP6 POP SWAP4 POP POP POP POP JUMP JUMPDEST PUSH1 0x0 PUSH1 0x20 DUP3 DUP5 SUB SLT ISZERO PUSH2 0x484C JUMPI PUSH1 0x0 DUP1 REVERT JUMPDEST POP CALLDATALOAD SWAP2 SWAP1 POP JUMP JUMPDEST PUSH1 0x0 DUP1 PUSH1 0x40 DUP4 DUP6 SUB SLT ISZERO PUSH2 0x4866 JUMPI PUSH1 0x0 DUP1 REVERT JUMPDEST DUP3 CALLDATALOAD SWAP2 POP PUSH1 0x20 DUP4 ADD CALLDATALOAD PUSH2 0x453F DUP2 PUSH2 0x507F JUMP JUMPDEST PUSH1 0x0 DUP1 PUSH1 0x0 PUSH1 0x60 DUP5 DUP7 SUB SLT ISZERO PUSH2 0x488D JUMPI PUSH1 0x0 DUP1 REVERT JUMPDEST DUP4 CALLDATALOAD SWAP3 POP PUSH1 0x20 DUP5 ADD CALLDATALOAD PUSH2 0x489F DUP2 PUSH2 0x507F JUMP JUMPDEST SWAP2 POP PUSH1 0x40 DUP5 ADD CALLDATALOAD PUSH2 0x48AF DUP2 PUSH2 0x507F JUMP JUMPDEST DUP1 SWAP2 POP POP SWAP3 POP SWAP3 POP SWAP3 JUMP JUMPDEST PUSH1 0x0 DUP1 PUSH1 0x0 DUP1 PUSH1 0x0 DUP1 PUSH1 0x0 DUP1 PUSH1 0xC0 DUP10 DUP12 SUB SLT ISZERO PUSH2 0x48D6 JUMPI PUSH1 0x0 DUP1 REVERT JUMPDEST DUP9 CALLDATALOAD SWAP8 POP PUSH1 0x20 DUP10 ADD CALLDATALOAD PUSH2 0x48E8 DUP2 PUSH2 0x507F JUMP JUMPDEST SWAP7 POP PUSH1 0x40 DUP10 ADD CALLDATALOAD PUSH2 0x48F8 DUP2 PUSH2 0x507F JUMP JUMPDEST SWAP6 POP PUSH1 0x60 DUP10 ADD CALLDATALOAD SWAP5 POP PUSH1 0x80 DUP10 ADD CALLDATALOAD PUSH8 0xFFFFFFFFFFFFFFFF DUP1 DUP3 GT ISZERO PUSH2 0x491C JUMPI PUSH1 0x0 DUP1 REVERT JUMPDEST PUSH2 0x4928 DUP13 DUP4 DUP14 ADD PUSH2 0x4408 JUMP JUMPDEST SWAP1 SWAP7 POP SWAP5 POP PUSH1 0xA0 DUP12 ADD CALLDATALOAD SWAP2 POP DUP1 DUP3 GT ISZERO PUSH2 0x4941 JUMPI PUSH1 0x0 DUP1 REVERT JUMPDEST POP PUSH2 0x494E DUP12 DUP3 DUP13 ADD PUSH2 0x4408 JUMP JUMPDEST SWAP10 SWAP13 SWAP9 SWAP12 POP SWAP7 SWAP10 POP SWAP5 SWAP8 SWAP4 SWAP7 SWAP3 SWAP6 SWAP5 POP POP POP JUMP JUMPDEST PUSH1 0x0 DUP1 PUSH1 0x0 PUSH1 0x60 DUP5 DUP7 SUB SLT ISZERO PUSH2 0x4977 JUMPI PUSH1 0x0 DUP1 REVERT JUMPDEST DUP4 CALLDATALOAD SWAP3 POP PUSH1 0x20 DUP5 ADD CALLDATALOAD PUSH2 0x4630 DUP2 PUSH2 0x507F JUMP JUMPDEST PUSH1 0x0 DUP1 PUSH1 0x0 DUP1 PUSH1 0x0 PUSH1 0x80 DUP7 DUP9 SUB SLT ISZERO PUSH2 0x49A1 JUMPI PUSH1 0x0 DUP1 REVERT JUMPDEST DUP6 CALLDATALOAD SWAP5 POP PUSH1 0x20 DUP7 ADD CALLDATALOAD PUSH2 0x4674 DUP2 PUSH2 0x507F JUMP JUMPDEST PUSH1 0x0 DUP1 PUSH1 0x0 PUSH1 0x40 DUP5 DUP7 SUB SLT ISZERO PUSH2 0x49C8 JUMPI PUSH1 0x0 DUP1 REVERT JUMPDEST DUP4 CALLDATALOAD SWAP3 POP PUSH1 0x20 DUP5 ADD CALLDATALOAD PUSH8 0xFFFFFFFFFFFFFFFF DUP2 GT ISZERO PUSH2 0x49E6 JUMPI PUSH1 0x0 DUP1 REVERT JUMPDEST PUSH2 0x49F2 DUP7 DUP3 DUP8 ADD PUSH2 0x43A7 JUMP JUMPDEST SWAP5 SWAP8 SWAP1 SWAP7 POP SWAP4 SWAP5 POP POP POP POP JUMP JUMPDEST PUSH1 0x0 DUP1 PUSH1 0x0 DUP1 PUSH1 0x60 DUP6 DUP8 SUB SLT ISZERO PUSH2 0x4A15 JUMPI PUSH1 0x0 DUP1 REVERT JUMPDEST DUP5 CALLDATALOAD SWAP4 POP PUSH1 0x20 DUP6 ADD CALLDATALOAD PUSH8 0xFFFFFFFFFFFFFFFF DUP2 GT ISZERO PUSH2 0x4A33 JUMPI PUSH1 0x0 DUP1 REVERT JUMPDEST PUSH2 0x4A3F DUP8 DUP3 DUP9 ADD PUSH2 0x4408 JUMP JUMPDEST SWAP6 SWAP9 SWAP1 SWAP8 POP SWAP5 SWAP6 PUSH1 0x40 ADD CALLDATALOAD SWAP5 SWAP4 POP POP POP POP JUMP JUMPDEST DUP2 DUP4 MSTORE DUP2 DUP2 PUSH1 0x20 DUP6 ADD CALLDATACOPY POP PUSH1 0x0 DUP3 DUP3 ADD PUSH1 0x20 SWAP1 DUP2 ADD SWAP2 SWAP1 SWAP2 MSTORE PUSH1 0x1F SWAP1 SWAP2 ADD PUSH1 0x1F NOT AND SWAP1 SWAP2 ADD ADD SWAP1 JUMP JUMPDEST PUSH1 0x0 DUP2 MLOAD DUP1 DUP5 MSTORE PUSH2 0x4A93 DUP2 PUSH1 0x20 DUP7 ADD PUSH1 0x20 DUP7 ADD PUSH2 0x4FA1 JUMP JUMPDEST PUSH1 0x1F ADD PUSH1 0x1F NOT AND SWAP3 SWAP1 SWAP3 ADD PUSH1 0x20 ADD SWAP3 SWAP2 POP POP JUMP JUMPDEST PUSH1 0x0 DUP3 MLOAD PUSH2 0x4AB9 DUP2 DUP5 PUSH1 0x20 DUP8 ADD PUSH2 0x4FA1 JUMP JUMPDEST SWAP2 SWAP1 SWAP2 ADD SWAP3 SWAP2 POP POP JUMP JUMPDEST PUSH1 0x0 DUP4 MLOAD PUSH2 0x4AD5 DUP2 DUP5 PUSH1 0x20 DUP9 ADD PUSH2 0x4FA1 JUMP JUMPDEST PUSH1 0x60 SWAP4 SWAP1 SWAP4 SHL PUSH12 0xFFFFFFFFFFFFFFFFFFFFFFFF NOT AND SWAP2 SWAP1 SWAP3 ADD SWAP1 DUP2 MSTORE PUSH1 0x14 ADD SWAP3 SWAP2 POP POP JUMP JUMPDEST PUSH1 0x1 PUSH1 0x1 PUSH1 0xA0 SHL SUB DUP8 AND DUP2 MSTORE PUSH1 0xC0 PUSH1 0x20 DUP3 ADD DUP2 SWAP1 MSTORE PUSH1 0x0 SWAP1 PUSH2 0x4B1E SWAP1 DUP4 ADD DUP9 PUSH2 0x4A7B JUMP JUMPDEST DUP3 DUP2 SUB PUSH1 0x40 DUP5 ADD MSTORE PUSH2 0x4B30 DUP2 DUP9 PUSH2 0x4A7B JUMP JUMPDEST SWAP1 POP DUP3 DUP2 SUB PUSH1 0x60 DUP5 ADD MSTORE PUSH2 0x4B44 DUP2 DUP8 PUSH2 0x4A7B JUMP JUMPDEST PUSH1 0x80 DUP5 ADD SWAP6 SWAP1 SWAP6 MSTORE POP POP PUSH1 0xA0 ADD MSTORE SWAP5 SWAP4 POP POP POP POP JUMP JUMPDEST PUSH1 0x1 DUP1 PUSH1 0xA0 SHL SUB DUP6 AND DUP2 MSTORE DUP4 PUSH1 0x20 DUP3 ADD MSTORE PUSH1 0x80 PUSH1 0x40 DUP3 ADD MSTORE PUSH1 0x0 PUSH2 0x4B81 PUSH1 0x80 DUP4 ADD DUP6 PUSH2 0x4A7B JUMP JUMPDEST DUP3 DUP2 SUB PUSH1 0x60 DUP5 ADD MSTORE PUSH2 0x4B93 DUP2 DUP6 PUSH2 0x4A7B JUMP JUMPDEST SWAP8 SWAP7 POP POP POP POP POP POP POP JUMP JUMPDEST PUSH1 0x20 DUP1 DUP3 MSTORE DUP3 MLOAD DUP3 DUP3 ADD DUP2 SWAP1 MSTORE PUSH1 0x0 SWAP2 SWAP1 DUP5 DUP3 ADD SWAP1 PUSH1 0x40 DUP6 ADD SWAP1 DUP5 JUMPDEST DUP2 DUP2 LT ISZERO PUSH2 0x4BDF JUMPI DUP4 MLOAD PUSH1 0x1 PUSH1 0x1 PUSH1 0xA0 SHL SUB AND DUP4 MSTORE SWAP3 DUP5 ADD SWAP3 SWAP2 DUP5 ADD SWAP2 PUSH1 0x1 ADD PUSH2 0x4BBA JUMP JUMPDEST POP SWAP1 SWAP7 SWAP6 POP POP POP POP POP POP JUMP JUMPDEST PUSH1 0x20 DUP1 DUP3 MSTORE DUP3 MLOAD DUP3 DUP3 ADD DUP2 SWAP1 MSTORE PUSH1 0x0 SWAP2 SWAP1 DUP5 DUP3 ADD SWAP1 PUSH1 0x40 DUP6 ADD SWAP1 DUP5 JUMPDEST DUP2 DUP2 LT ISZERO PUSH2 0x4BDF JUMPI DUP4 MLOAD DUP4 MSTORE SWAP3 DUP5 ADD SWAP3 SWAP2 DUP5 ADD SWAP2 PUSH1 0x1 ADD PUSH2 0x4C07 JUMP JUMPDEST DUP8 DUP2 MSTORE PUSH1 0x1 PUSH1 0x1 PUSH1 0xA0 SHL SUB DUP8 AND PUSH1 0x20 DUP3 ADD MSTORE PUSH1 0xE0 PUSH1 0x40 DUP3 ADD DUP2 SWAP1 MSTORE PUSH1 0x0 SWAP1 PUSH2 0x4C4D SWAP1 DUP4 ADD DUP9 PUSH2 0x4A7B JUMP JUMPDEST DUP3 DUP2 SUB PUSH1 0x60 DUP5 ADD MSTORE PUSH2 0x4C5F DUP2 DUP9 PUSH2 0x4A7B JUMP JUMPDEST SWAP1 POP DUP3 DUP2 SUB PUSH1 0x80 DUP5 ADD MSTORE PUSH2 0x4C73 DUP2 DUP8 PUSH2 0x4A7B JUMP JUMPDEST PUSH1 0xA0 DUP5 ADD SWAP6 SWAP1 SWAP6 MSTORE POP POP PUSH1 0xC0 ADD MSTORE SWAP6 SWAP5 POP POP POP POP POP JUMP JUMPDEST DUP3 DUP2 MSTORE PUSH1 0x40 PUSH1 0x20 DUP3 ADD MSTORE PUSH1 0x0 PUSH2 0x153F PUSH1 0x40 DUP4 ADD DUP5 PUSH2 0x4A7B JUMP JUMPDEST PUSH1 0x0 PUSH2 0x100 DUP1 DUP4 MSTORE PUSH2 0x4CB8 DUP2 DUP5 ADD DUP13 DUP15 PUSH2 0x4A52 JUMP JUMPDEST PUSH1 0x20 DUP5 ADD DUP12 SWAP1 MSTORE PUSH1 0x1 PUSH1 0x1 PUSH1 0xA0 SHL SUB DUP11 DUP2 AND PUSH1 0x40 DUP7 ADD MSTORE DUP10 DUP2 AND PUSH1 0x60 DUP7 ADD MSTORE DUP9 AND PUSH1 0x80 DUP6 ADD MSTORE PUSH1 0xA0 DUP5 ADD DUP8 SWAP1 MSTORE DUP4 DUP2 SUB PUSH1 0xC0 DUP6 ADD MSTORE SWAP1 POP PUSH2 0x4CF9 DUP2 DUP7 PUSH2 0x4A7B JUMP JUMPDEST SWAP1 POP DUP3 DUP2 SUB PUSH1 0xE0 DUP5 ADD MSTORE PUSH2 0x4D0D DUP2 DUP6 PUSH2 0x4A7B JUMP JUMPDEST SWAP13 SWAP12 POP POP POP POP POP POP POP POP POP POP POP POP JUMP JUMPDEST PUSH1 0x40 DUP2 MSTORE PUSH1 0x0 PUSH2 0x4D31 PUSH1 0x40 DUP4 ADD DUP6 DUP8 PUSH2 0x4A52 JUMP JUMPDEST SWAP1 POP DUP3 PUSH1 0x20 DUP4 ADD MSTORE SWAP5 SWAP4 POP POP POP POP JUMP JUMPDEST PUSH1 0x20 DUP2 MSTORE PUSH1 0x0 PUSH2 0x1C71 PUSH1 0x20 DUP4 ADD DUP5 PUSH2 0x4A7B JUMP JUMPDEST PUSH1 0x40 DUP2 MSTORE PUSH1 0x0 PUSH2 0x4D67 PUSH1 0x40 DUP4 ADD DUP6 PUSH2 0x4A7B JUMP JUMPDEST SWAP1 POP DUP3 PUSH1 0x20 DUP4 ADD MSTORE SWAP4 SWAP3 POP POP POP JUMP JUMPDEST PUSH1 0x60 DUP2 MSTORE PUSH1 0x0 PUSH2 0x4D89 PUSH1 0x60 DUP4 ADD DUP7 PUSH2 0x4A7B JUMP JUMPDEST PUSH1 0x20 DUP4 ADD SWAP5 SWAP1 SWAP5 MSTORE POP PUSH1 0x40 ADD MSTORE SWAP2 SWAP1 POP JUMP JUMPDEST PUSH1 0x20 DUP1 DUP3 MSTORE PUSH1 0x2 SWAP1 DUP3 ADD MSTORE PUSH2 0x353 PUSH1 0xF4 SHL PUSH1 0x40 DUP3 ADD MSTORE PUSH1 0x60 ADD SWAP1 JUMP JUMPDEST PUSH1 0x20 DUP1 DUP3 MSTORE PUSH1 0x36 SWAP1 DUP3 ADD MSTORE PUSH32 0x5468652063657274696669636174652068617320657870697265642C20706C65 PUSH1 0x40 DUP3 ADD MSTORE PUSH22 0x6173652066696C6C20696E2061206E657720666F726D PUSH1 0x50 SHL PUSH1 0x60 DUP3 ADD MSTORE PUSH1 0x80 ADD SWAP1 JUMP JUMPDEST PUSH1 0x20 DUP1 DUP3 MSTORE PUSH1 0x42 SWAP1 DUP3 ADD MSTORE PUSH32 0x546865206163636F756E7420686173206E6F74206265656E20617070726F7665 PUSH1 0x40 DUP3 ADD MSTORE PUSH32 0x64207965742C2063616E6E6F742065786563757465207472616E73616374696F PUSH1 0x60 DUP3 ADD MSTORE PUSH2 0x3717 PUSH1 0xF1 SHL PUSH1 0x80 DUP3 ADD MSTORE PUSH1 0xA0 ADD SWAP1 JUMP JUMPDEST PUSH1 0x20 DUP1 DUP3 MSTORE PUSH1 0x2 SWAP1 DUP3 ADD MSTORE PUSH2 0x3535 PUSH1 0xF0 SHL PUSH1 0x40 DUP3 ADD MSTORE PUSH1 0x60 ADD SWAP1 JUMP JUMPDEST PUSH1 0x20 DUP1 DUP3 MSTORE DUP2 DUP2 ADD MSTORE PUSH32 0x4F776E61626C653A2063616C6C6572206973206E6F7420746865206F776E6572 PUSH1 0x40 DUP3 ADD MSTORE PUSH1 0x60 ADD SWAP1 JUMP JUMPDEST PUSH1 0x20 DUP1 DUP3 MSTORE PUSH1 0x2 SWAP1 DUP3 ADD MSTORE PUSH2 0x3533 PUSH1 0xF0 SHL PUSH1 0x40 DUP3 ADD MSTORE PUSH1 0x60 ADD SWAP1 JUMP JUMPDEST PUSH1 0x20 DUP1 DUP3 MSTORE PUSH1 0x2 SWAP1 DUP3 ADD MSTORE PUSH2 0x1A99 PUSH1 0xF1 SHL PUSH1 0x40 DUP3 ADD MSTORE PUSH1 0x60 ADD SWAP1 JUMP JUMPDEST DUP3 DUP2 MSTORE PUSH1 0x60 PUSH1 0x20 DUP3 ADD MSTORE PUSH1 0x0 PUSH2 0x4F17 PUSH1 0x60 DUP4 ADD DUP5 PUSH2 0x4A7B JUMP JUMPDEST DUP3 DUP2 SUB PUSH1 0x40 DUP5 ADD MSTORE PUSH1 0x0 DUP2 MSTORE PUSH1 0x20 DUP2 ADD SWAP2 POP POP SWAP4 SWAP3 POP POP POP JUMP JUMPDEST PUSH1 0x0 DUP3 NOT DUP3 GT ISZERO PUSH2 0x4F44 JUMPI PUSH2 0x4F44 PUSH2 0x5027 JUMP JUMPDEST POP ADD SWAP1 JUMP JUMPDEST PUSH1 0x0 DUP3 PUSH2 0x4F66 JUMPI PUSH4 0x4E487B71 PUSH1 0xE0 SHL PUSH1 0x0 MSTORE PUSH1 0x12 PUSH1 0x4 MSTORE PUSH1 0x24 PUSH1 0x0 REVERT JUMPDEST POP DIV SWAP1 JUMP JUMPDEST PUSH1 0x0 DUP2 PUSH1 0x0 NOT DIV DUP4 GT DUP3 ISZERO ISZERO AND ISZERO PUSH2 0x4F85 JUMPI PUSH2 0x4F85 PUSH2 0x5027 JUMP JUMPDEST POP MUL SWAP1 JUMP JUMPDEST PUSH1 0x0 DUP3 DUP3 LT ISZERO PUSH2 0x4F9C JUMPI PUSH2 0x4F9C PUSH2 0x5027 JUMP JUMPDEST POP SUB SWAP1 JUMP JUMPDEST PUSH1 0x0 JUMPDEST DUP4 DUP2 LT ISZERO PUSH2 0x4FBC JUMPI DUP2 DUP2 ADD MLOAD DUP4 DUP3 ADD MSTORE PUSH1 0x20 ADD PUSH2 0x4FA4 JUMP JUMPDEST DUP4 DUP2 GT ISZERO PUSH2 0x4FCB JUMPI PUSH1 0x0 DUP5 DUP5 ADD MSTORE JUMPDEST POP POP POP POP JUMP JUMPDEST PUSH1 0x1 DUP2 DUP2 SHR SWAP1 DUP3 AND DUP1 PUSH2 0x4FE5 JUMPI PUSH1 0x7F DUP3 AND SWAP2 POP JUMPDEST PUSH1 0x20 DUP3 LT DUP2 EQ ISZERO PUSH2 0x5006 JUMPI PUSH4 0x4E487B71 PUSH1 0xE0 SHL PUSH1 0x0 MSTORE PUSH1 0x22 PUSH1 0x4 MSTORE PUSH1 0x24 PUSH1 0x0 REVERT JUMPDEST POP SWAP2 SWAP1 POP JUMP JUMPDEST PUSH1 0x0 PUSH1 0x0 NOT DUP3 EQ ISZERO PUSH2 0x5020 JUMPI PUSH2 0x5020 PUSH2 0x5027 JUMP JUMPDEST POP PUSH1 0x1 ADD SWAP1 JUMP JUMPDEST PUSH4 0x4E487B71 PUSH1 0xE0 SHL PUSH1 0x0 MSTORE PUSH1 0x11 PUSH1 0x4 MSTORE PUSH1 0x24 PUSH1 0x0 REVERT JUMPDEST PUSH4 0x4E487B71 PUSH1 0xE0 SHL PUSH1 0x0 MSTORE PUSH1 0x31 PUSH1 0x4 MSTORE PUSH1 0x24 PUSH1 0x0 REVERT JUMPDEST PUSH4 0x4E487B71 PUSH1 0xE0 SHL PUSH1 0x0 MSTORE PUSH1 0x32 PUSH1 0x4 MSTORE PUSH1 0x24 PUSH1 0x0 REVERT JUMPDEST PUSH4 0x4E487B71 PUSH1 0xE0 SHL PUSH1 0x0 MSTORE PUSH1 0x41 PUSH1 0x4 MSTORE PUSH1 0x24 PUSH1 0x0 REVERT JUMPDEST PUSH1 0x1 PUSH1 0x1 PUSH1 0xA0 SHL SUB DUP2 AND DUP2 EQ PUSH2 0x10A2 JUMPI PUSH1 0x0 DUP1 REVERT INVALID LOG2 PUSH5 0x6970667358 0x22 SLT KECCAK256 SWAP15 SMOD 0x1E EXTCODECOPY 0xB7 JUMP 0xD2 SELFBALANCE REVERT 0x25 KECCAK256 SWAP12 0xEA JUMPI PUSH25 0xEAFBD1666638986A44972F326B3F4E99A564736F6C63430008 SMOD STOP CALLER "
		},
		"gasEstimates": {
			"creation": {
				"codeDepositCost": "4136400",
				"executionCost": "infinite",
				"totalCost": "infinite"
			},
			"external": {
				"addCertificateSigner(address,address)": "infinite",
				"addMinter(address)": "infinite",
				"allowance(address,address)": "infinite",
				"allowanceByPartition(bytes32,address,address)": "infinite",
				"approve(address,uint256)": "24628",
				"approveByPartition(bytes32,address,uint256)": "25060",
				"approveCertificate(address,address,string,string,uint256,string)": "infinite",
				"authorizeOperator(address)": "59749",
				"authorizeOperatorByPartition(bytes32,address)": "26814",
				"balanceOf(address)": "2643",
				"balanceOfByPartition(bytes32,address)": "2765",
				"canImplementInterfaceForAddress(bytes32,address)": "2863",
				"certificateListByAddress(address,address)": "infinite",
				"controllers()": "infinite",
				"controllersByPartition(bytes32)": "infinite",
				"decimals()": "246",
				"domainName()": "infinite",
				"domainSeparator()": "infinite",
				"domainVersion()": "infinite",
				"generateDomainSeparator()": "infinite",
				"getAllDocuments()": "infinite",
				"getDefaultPartitions()": "infinite",
				"getDocument(bytes32)": "infinite",
				"granularity()": "2382",
				"isCertificateSigner(address,address)": "infinite",
				"isControllable()": "2450",
				"isIssuable()": "2405",
				"isMinter(address)": "2755",
				"isOperator(address,address)": "infinite",
				"isOperatorForPartition(bytes32,address,address)": "infinite",
				"issue(address,uint256,bytes)": "infinite",
				"issueByPartition(bytes32,address,uint256,bytes)": "infinite",
				"migrate(address,bool)": "infinite",
				"name()": "infinite",
				"operatorTransferByPartition(bytes32,address,address,uint256,bytes,bytes)": "infinite",
				"owner()": "2414",
				"partitionsOf(address)": "infinite",
				"removeCertificateSigner(address,address)": "infinite",
				"removeDocument(bytes32)": "infinite",
				"removeMinter(address)": "infinite",
				"renounceCertificateSigner(address)": "infinite",
				"renounceControl()": "26591",
				"renounceMinter()": "28097",
				"renounceOwnership()": "28251",
				"revokeOperator(address)": "61308",
				"revokeOperatorByPartition(bytes32,address)": "26763",
				"setControllers(address[])": "infinite",
				"setDefaultPartitions(bytes32[])": "infinite",
				"setDocument(bytes32,string,bytes32)": "infinite",
				"setERC1820(address)": "53200",
				"setInterface()": "infinite",
				"setPartitionControllers(bytes32,address[])": "infinite",
				"setTokenExtension(address,string,bool,bool,bool)": "infinite",
				"symbol()": "infinite",
				"totalPartitions()": "infinite",
				"totalSupply()": "2361",
				"totalSupplyByPartition(bytes32)": "2550",
				"transfer(address,uint256)": "infinite",
				"transferByPartition(bytes32,address,uint256,bytes)": "infinite",
				"transferFrom(address,address,uint256)": "infinite",
				"transferFromWithData(address,address,uint256,bytes)": "infinite",
				"transferOwnership(address)": "infinite",
				"transferWithData(address,uint256,bytes)": "infinite",
				"viewCertificateInfo(address,address)": "infinite"
			},
			"internal": {
				"_addCertifiedSigners(address[] memory)": "infinite",
				"_addTokenToPartition(address,bytes32,uint256)": "infinite",
				"_callRecipientExtension(bytes32,address,address,address,uint256,bytes memory,bytes memory)": "infinite",
				"_callSenderExtension(bytes32,address,address,address,uint256,bytes memory,bytes memory)": "infinite",
				"_callTokenExtension(bytes32,address,address,address,uint256,bytes memory,bytes memory)": "infinite",
				"_getDestinationPartition(bytes32,bytes memory)": "infinite",
				"_isMultiple(uint256)": "infinite",
				"_isOperator(address,address)": "6715",
				"_isOperatorForPartition(bytes32,address,address)": "13541",
				"_issue(address,address,uint256,bytes memory)": "infinite",
				"_issueByPartition(bytes32,address,address,uint256,bytes memory)": "infinite",
				"_migrate(address,bool)": "infinite",
				"_removeTokenFromPartition(address,bytes32,uint256)": "infinite",
				"_setControllers(address[] memory)": "infinite",
				"_setPartitionControllers(bytes32,address[] memory)": "infinite",
				"_setTokenExtension(address,string memory,bool,bool,bool)": "infinite",
				"_transferByDefaultPartitions(address,address,address,uint256,bytes memory)": "infinite",
				"_transferByPartition(bytes32,address,address,address,uint256,bytes memory,bytes memory)": "infinite",
				"_transferWithData(address,address,uint256)": "infinite",
				"renounceIssuance()": "infinite"
			}
		},
		"methodIdentifiers": {
			"addCertificateSigner(address,address)": "c69664bb",
			"addMinter(address)": "983b2d56",
			"allowance(address,address)": "dd62ed3e",
			"allowanceByPartition(bytes32,address,address)": "17ec83ca",
			"approve(address,uint256)": "095ea7b3",
			"approveByPartition(bytes32,address,uint256)": "14d1e62f",
			"approveCertificate(address,address,string,string,uint256,string)": "3a6b8ac7",
			"authorizeOperator(address)": "959b8c3f",
			"authorizeOperatorByPartition(bytes32,address)": "103ef9e1",
			"balanceOf(address)": "70a08231",
			"balanceOfByPartition(bytes32,address)": "30e82803",
			"canImplementInterfaceForAddress(bytes32,address)": "249cb3fa",
			"certificateListByAddress(address,address)": "88f65810",
			"controllers()": "7cc0c3a7",
			"controllersByPartition(bytes32)": "861ed3ea",
			"decimals()": "313ce567",
			"domainName()": "895d7386",
			"domainSeparator()": "f698da25",
			"domainVersion()": "1d43e1c0",
			"generateDomainSeparator()": "a8082cb0",
			"getAllDocuments()": "9fa5f50b",
			"getDefaultPartitions()": "bcfdc0cf",
			"getDocument(bytes32)": "b10d6b41",
			"granularity()": "556f0dc7",
			"isCertificateSigner(address,address)": "9e59ceba",
			"isControllable()": "4c783bf5",
			"isIssuable()": "2f1cae85",
			"isMinter(address)": "aa271e1a",
			"isOperator(address,address)": "b6363cf2",
			"isOperatorForPartition(bytes32,address,address)": "6d77cad6",
			"issue(address,uint256,bytes)": "bb3acde9",
			"issueByPartition(bytes32,address,uint256,bytes)": "67c84919",
			"migrate(address,bool)": "933964c7",
			"name()": "06fdde03",
			"operatorTransferByPartition(bytes32,address,address,uint256,bytes,bytes)": "8c0dee9c",
			"owner()": "8da5cb5b",
			"partitionsOf(address)": "740ab8f4",
			"removeCertificateSigner(address,address)": "e81ea541",
			"removeDocument(bytes32)": "c3501848",
			"removeMinter(address)": "3092afd5",
			"renounceCertificateSigner(address)": "3bddaf8f",
			"renounceControl()": "ca281fd9",
			"renounceMinter()": "98650275",
			"renounceOwnership()": "715018a6",
			"revokeOperator(address)": "fad8b32a",
			"revokeOperatorByPartition(bytes32,address)": "168ecec5",
			"setControllers(address[])": "ea74838a",
			"setDefaultPartitions(bytes32[])": "ec9a6e87",
			"setDocument(bytes32,string,bytes32)": "010648ca",
			"setERC1820(address)": "6b423769",
			"setInterface()": "51ef1d02",
			"setPartitionControllers(bytes32,address[])": "16e1aed4",
			"setTokenExtension(address,string,bool,bool,bool)": "a6f4f105",
			"symbol()": "95d89b41",
			"totalPartitions()": "69598efe",
			"totalSupply()": "18160ddd",
			"totalSupplyByPartition(bytes32)": "a26734dc",
			"transfer(address,uint256)": "a9059cbb",
			"transferByPartition(bytes32,address,uint256,bytes)": "f3d490db",
			"transferFrom(address,address,uint256)": "23b872dd",
			"transferFromWithData(address,address,uint256,bytes)": "ee532f31",
			"transferOwnership(address)": "f2fde38b",
			"transferWithData(address,uint256,bytes)": "2535f762",
			"viewCertificateInfo(address,address)": "fe9a51fc"
		}
	},
	"abi": [
		{
			"inputs": [
				{
					"internalType": "string",
					"name": "name",
					"type": "string"
				},
				{
					"internalType": "string",
					"name": "symbol",
					"type": "string"
				},
				{
					"internalType": "uint256",
					"name": "granularity",
					"type": "uint256"
				},
				{
					"internalType": "address[]",
					"name": "controllers",
					"type": "address[]"
				},
				{
					"internalType": "bytes32[]",
					"name": "defaultPartitions",
					"type": "bytes32[]"
				},
				{
					"internalType": "address[]",
					"name": "certifiedSigners",
					"type": "address[]"
				}
			],
			"stateMutability": "nonpayable",
			"type": "constructor"
		},
		{
			"anonymous": false,
			"inputs": [
				{
					"indexed": true,
					"internalType": "address",
					"name": "owner",
					"type": "address"
				},
				{
					"indexed": true,
					"internalType": "address",
					"name": "spender",
					"type": "address"
				},
				{
					"indexed": false,
					"internalType": "uint256",
					"name": "value",
					"type": "uint256"
				}
			],
			"name": "Approval",
			"type": "event"
		},
		{
			"anonymous": false,
			"inputs": [
				{
					"indexed": true,
					"internalType": "bytes32",
					"name": "partition",
					"type": "bytes32"
				},
				{
					"indexed": true,
					"internalType": "address",
					"name": "owner",
					"type": "address"
				},
				{
					"indexed": true,
					"internalType": "address",
					"name": "spender",
					"type": "address"
				},
				{
					"indexed": false,
					"internalType": "uint256",
					"name": "value",
					"type": "uint256"
				}
			],
			"name": "ApprovalByPartition",
			"type": "event"
		},
		{
			"anonymous": false,
			"inputs": [
				{
					"indexed": true,
					"internalType": "address",
					"name": "operator",
					"type": "address"
				},
				{
					"indexed": true,
					"internalType": "address",
					"name": "tokenHolder",
					"type": "address"
				}
			],
			"name": "AuthorizedOperator",
			"type": "event"
		},
		{
			"anonymous": false,
			"inputs": [
				{
					"indexed": true,
					"internalType": "bytes32",
					"name": "partition",
					"type": "bytes32"
				},
				{
					"indexed": true,
					"internalType": "address",
					"name": "operator",
					"type": "address"
				},
				{
					"indexed": true,
					"internalType": "address",
					"name": "tokenHolder",
					"type": "address"
				}
			],
			"name": "AuthorizedOperatorByPartition",
			"type": "event"
		},
		{
			"anonymous": false,
			"inputs": [
				{
					"indexed": true,
					"internalType": "address",
					"name": "token",
					"type": "address"
				},
				{
					"indexed": true,
					"internalType": "address",
					"name": "account",
					"type": "address"
				}
			],
			"name": "CertificateSignerAdded",
			"type": "event"
		},
		{
			"anonymous": false,
			"inputs": [
				{
					"indexed": true,
					"internalType": "address",
					"name": "token",
					"type": "address"
				},
				{
					"indexed": true,
					"internalType": "address",
					"name": "account",
					"type": "address"
				}
			],
			"name": "CertificateSignerRemoved",
			"type": "event"
		},
		{
			"anonymous": false,
			"inputs": [
				{
					"indexed": true,
					"internalType": "bytes32",
					"name": "fromPartition",
					"type": "bytes32"
				},
				{
					"indexed": true,
					"internalType": "bytes32",
					"name": "toPartition",
					"type": "bytes32"
				},
				{
					"indexed": false,
					"internalType": "uint256",
					"name": "value",
					"type": "uint256"
				}
			],
			"name": "ChangedPartition",
			"type": "event"
		},
		{
			"anonymous": false,
			"inputs": [
				{
					"indexed": false,
					"internalType": "bytes32",
					"name": "certId",
					"type": "bytes32"
				},
				{
					"indexed": true,
					"internalType": "address",
					"name": "approvedUser",
					"type": "address"
				},
				{
					"indexed": false,
					"internalType": "string",
					"name": "docURI",
					"type": "string"
				}
			],
			"name": "CreateCertificate",
			"type": "event"
		},
		{
			"anonymous": false,
			"inputs": [
				{
					"indexed": true,
					"internalType": "bytes32",
					"name": "name",
					"type": "bytes32"
				},
				{
					"indexed": false,
					"internalType": "string",
					"name": "uri",
					"type": "string"
				},
				{
					"indexed": false,
					"internalType": "bytes32",
					"name": "documentHash",
					"type": "bytes32"
				}
			],
			"name": "DocumentRemoved",
			"type": "event"
		},
		{
			"anonymous": false,
			"inputs": [
				{
					"indexed": true,
					"internalType": "bytes32",
					"name": "name",
					"type": "bytes32"
				},
				{
					"indexed": false,
					"internalType": "string",
					"name": "uri",
					"type": "string"
				},
				{
					"indexed": false,
					"internalType": "bytes32",
					"name": "documentHash",
					"type": "bytes32"
				}
			],
			"name": "DocumentUpdated",
			"type": "event"
		},
		{
			"anonymous": false,
			"inputs": [
				{
					"indexed": true,
					"internalType": "address",
					"name": "operator",
					"type": "address"
				},
				{
					"indexed": true,
					"internalType": "address",
					"name": "to",
					"type": "address"
				},
				{
					"indexed": false,
					"internalType": "uint256",
					"name": "value",
					"type": "uint256"
				},
				{
					"indexed": false,
					"internalType": "bytes",
					"name": "data",
					"type": "bytes"
				}
			],
			"name": "Issued",
			"type": "event"
		},
		{
			"anonymous": false,
			"inputs": [
				{
					"indexed": true,
					"internalType": "bytes32",
					"name": "partition",
					"type": "bytes32"
				},
				{
					"indexed": true,
					"internalType": "address",
					"name": "operator",
					"type": "address"
				},
				{
					"indexed": true,
					"internalType": "address",
					"name": "to",
					"type": "address"
				},
				{
					"indexed": false,
					"internalType": "uint256",
					"name": "value",
					"type": "uint256"
				},
				{
					"indexed": false,
					"internalType": "bytes",
					"name": "data",
					"type": "bytes"
				},
				{
					"indexed": false,
					"internalType": "bytes",
					"name": "operatorData",
					"type": "bytes"
				}
			],
			"name": "IssuedByPartition",
			"type": "event"
		},
		{
			"anonymous": false,
			"inputs": [
				{
					"indexed": true,
					"internalType": "address",
					"name": "account",
					"type": "address"
				}
			],
			"name": "MinterAdded",
			"type": "event"
		},
		{
			"anonymous": false,
			"inputs": [
				{
					"indexed": true,
					"internalType": "address",
					"name": "account",
					"type": "address"
				}
			],
			"name": "MinterRemoved",
			"type": "event"
		},
		{
			"anonymous": false,
			"inputs": [
				{
					"indexed": true,
					"internalType": "address",
					"name": "previousOwner",
					"type": "address"
				},
				{
					"indexed": true,
					"internalType": "address",
					"name": "newOwner",
					"type": "address"
				}
			],
			"name": "OwnershipTransferred",
			"type": "event"
		},
		{
			"anonymous": false,
			"inputs": [
				{
					"indexed": true,
					"internalType": "address",
					"name": "operator",
					"type": "address"
				},
				{
					"indexed": true,
					"internalType": "address",
					"name": "tokenHolder",
					"type": "address"
				}
			],
			"name": "RevokedOperator",
			"type": "event"
		},
		{
			"anonymous": false,
			"inputs": [
				{
					"indexed": true,
					"internalType": "bytes32",
					"name": "partition",
					"type": "bytes32"
				},
				{
					"indexed": true,
					"internalType": "address",
					"name": "operator",
					"type": "address"
				},
				{
					"indexed": true,
					"internalType": "address",
					"name": "tokenHolder",
					"type": "address"
				}
			],
			"name": "RevokedOperatorByPartition",
			"type": "event"
		},
		{
			"anonymous": false,
			"inputs": [
				{
					"indexed": true,
					"internalType": "address",
					"name": "from",
					"type": "address"
				},
				{
					"indexed": true,
					"internalType": "address",
					"name": "to",
					"type": "address"
				},
				{
					"indexed": false,
					"internalType": "uint256",
					"name": "value",
					"type": "uint256"
				}
			],
			"name": "Transfer",
			"type": "event"
		},
		{
			"anonymous": false,
			"inputs": [
				{
					"indexed": true,
					"internalType": "bytes32",
					"name": "fromPartition",
					"type": "bytes32"
				},
				{
					"indexed": false,
					"internalType": "address",
					"name": "operator",
					"type": "address"
				},
				{
					"indexed": true,
					"internalType": "address",
					"name": "from",
					"type": "address"
				},
				{
					"indexed": true,
					"internalType": "address",
					"name": "to",
					"type": "address"
				},
				{
					"indexed": false,
					"internalType": "uint256",
					"name": "value",
					"type": "uint256"
				},
				{
					"indexed": false,
					"internalType": "bytes",
					"name": "data",
					"type": "bytes"
				},
				{
					"indexed": false,
					"internalType": "bytes",
					"name": "operatorData",
					"type": "bytes"
				}
			],
			"name": "TransferByPartition",
			"type": "event"
		},
		{
			"inputs": [
				{
					"internalType": "address",
					"name": "token",
					"type": "address"
				},
				{
					"internalType": "address",
					"name": "account",
					"type": "address"
				}
			],
			"name": "addCertificateSigner",
			"outputs": [],
			"stateMutability": "nonpayable",
			"type": "function"
		},
		{
			"inputs": [
				{
					"internalType": "address",
					"name": "account",
					"type": "address"
				}
			],
			"name": "addMinter",
			"outputs": [],
			"stateMutability": "nonpayable",
			"type": "function"
		},
		{
			"inputs": [
				{
					"internalType": "address",
					"name": "owner",
					"type": "address"
				},
				{
					"internalType": "address",
					"name": "spender",
					"type": "address"
				}
			],
			"name": "allowance",
			"outputs": [
				{
					"internalType": "uint256",
					"name": "",
					"type": "uint256"
				}
			],
			"stateMutability": "view",
			"type": "function"
		},
		{
			"inputs": [
				{
					"internalType": "bytes32",
					"name": "partition",
					"type": "bytes32"
				},
				{
					"internalType": "address",
					"name": "owner",
					"type": "address"
				},
				{
					"internalType": "address",
					"name": "spender",
					"type": "address"
				}
			],
			"name": "allowanceByPartition",
			"outputs": [
				{
					"internalType": "uint256",
					"name": "",
					"type": "uint256"
				}
			],
			"stateMutability": "view",
			"type": "function"
		},
		{
			"inputs": [
				{
					"internalType": "address",
					"name": "spender",
					"type": "address"
				},
				{
					"internalType": "uint256",
					"name": "value",
					"type": "uint256"
				}
			],
			"name": "approve",
			"outputs": [
				{
					"internalType": "bool",
					"name": "",
					"type": "bool"
				}
			],
			"stateMutability": "nonpayable",
			"type": "function"
		},
		{
			"inputs": [
				{
					"internalType": "bytes32",
					"name": "partition",
					"type": "bytes32"
				},
				{
					"internalType": "address",
					"name": "spender",
					"type": "address"
				},
				{
					"internalType": "uint256",
					"name": "value",
					"type": "uint256"
				}
			],
			"name": "approveByPartition",
			"outputs": [
				{
					"internalType": "bool",
					"name": "",
					"type": "bool"
				}
			],
			"stateMutability": "nonpayable",
			"type": "function"
		},
		{
			"inputs": [
				{
					"internalType": "address",
					"name": "_token",
					"type": "address"
				},
				{
					"internalType": "address",
					"name": "_user",
					"type": "address"
				},
				{
					"internalType": "string",
					"name": "_certName",
					"type": "string"
				},
				{
					"internalType": "string",
					"name": "_certDescription",
					"type": "string"
				},
				{
					"internalType": "uint256",
					"name": "_expiredDate",
					"type": "uint256"
				},
				{
					"internalType": "string",
					"name": "_docURI",
					"type": "string"
				}
			],
			"name": "approveCertificate",
			"outputs": [],
			"stateMutability": "nonpayable",
			"type": "function"
		},
		{
			"inputs": [
				{
					"internalType": "address",
					"name": "operator",
					"type": "address"
				}
			],
			"name": "authorizeOperator",
			"outputs": [],
			"stateMutability": "nonpayable",
			"type": "function"
		},
		{
			"inputs": [
				{
					"internalType": "bytes32",
					"name": "partition",
					"type": "bytes32"
				},
				{
					"internalType": "address",
					"name": "operator",
					"type": "address"
				}
			],
			"name": "authorizeOperatorByPartition",
			"outputs": [],
			"stateMutability": "nonpayable",
			"type": "function"
		},
		{
			"inputs": [
				{
					"internalType": "address",
					"name": "tokenHolder",
					"type": "address"
				}
			],
			"name": "balanceOf",
			"outputs": [
				{
					"internalType": "uint256",
					"name": "",
					"type": "uint256"
				}
			],
			"stateMutability": "view",
			"type": "function"
		},
		{
			"inputs": [
				{
					"internalType": "bytes32",
					"name": "partition",
					"type": "bytes32"
				},
				{
					"internalType": "address",
					"name": "tokenHolder",
					"type": "address"
				}
			],
			"name": "balanceOfByPartition",
			"outputs": [
				{
					"internalType": "uint256",
					"name": "",
					"type": "uint256"
				}
			],
			"stateMutability": "view",
			"type": "function"
		},
		{
			"inputs": [
				{
					"internalType": "bytes32",
					"name": "interfaceHash",
					"type": "bytes32"
				},
				{
					"internalType": "address",
					"name": "addr",
					"type": "address"
				}
			],
			"name": "canImplementInterfaceForAddress",
			"outputs": [
				{
					"internalType": "bytes32",
					"name": "",
					"type": "bytes32"
				}
			],
			"stateMutability": "view",
			"type": "function"
		},
		{
			"inputs": [
				{
					"internalType": "address",
					"name": "",
					"type": "address"
				},
				{
					"internalType": "address",
					"name": "",
					"type": "address"
				}
			],
			"name": "certificateListByAddress",
			"outputs": [
				{
					"internalType": "bytes32",
					"name": "id",
					"type": "bytes32"
				},
				{
					"internalType": "address",
					"name": "certCreator",
					"type": "address"
				},
				{
					"internalType": "string",
					"name": "certName",
					"type": "string"
				},
				{
					"internalType": "string",
					"name": "certDescription",
					"type": "string"
				},
				{
					"internalType": "string",
					"name": "docURI",
					"type": "string"
				},
				{
					"internalType": "uint256",
					"name": "issuedDate",
					"type": "uint256"
				},
				{
					"internalType": "uint256",
					"name": "expiredDate",
					"type": "uint256"
				}
			],
			"stateMutability": "view",
			"type": "function"
		},
		{
			"inputs": [],
			"name": "controllers",
			"outputs": [
				{
					"internalType": "address[]",
					"name": "",
					"type": "address[]"
				}
			],
			"stateMutability": "view",
			"type": "function"
		},
		{
			"inputs": [
				{
					"internalType": "bytes32",
					"name": "partition",
					"type": "bytes32"
				}
			],
			"name": "controllersByPartition",
			"outputs": [
				{
					"internalType": "address[]",
					"name": "",
					"type": "address[]"
				}
			],
			"stateMutability": "view",
			"type": "function"
		},
		{
			"inputs": [],
			"name": "decimals",
			"outputs": [
				{
					"internalType": "uint8",
					"name": "",
					"type": "uint8"
				}
			],
			"stateMutability": "pure",
			"type": "function"
		},
		{
			"inputs": [],
			"name": "domainName",
			"outputs": [
				{
					"internalType": "string",
					"name": "",
					"type": "string"
				}
			],
			"stateMutability": "view",
			"type": "function"
		},
		{
			"inputs": [],
			"name": "domainSeparator",
			"outputs": [
				{
					"internalType": "bytes32",
					"name": "",
					"type": "bytes32"
				}
			],
			"stateMutability": "nonpayable",
			"type": "function"
		},
		{
			"inputs": [],
			"name": "domainVersion",
			"outputs": [
				{
					"internalType": "string",
					"name": "",
					"type": "string"
				}
			],
			"stateMutability": "view",
			"type": "function"
		},
		{
			"inputs": [],
			"name": "generateDomainSeparator",
			"outputs": [
				{
					"internalType": "bytes32",
					"name": "",
					"type": "bytes32"
				}
			],
			"stateMutability": "view",
			"type": "function"
		},
		{
			"inputs": [],
			"name": "getAllDocuments",
			"outputs": [
				{
					"internalType": "bytes32[]",
					"name": "",
					"type": "bytes32[]"
				}
			],
			"stateMutability": "view",
			"type": "function"
		},
		{
			"inputs": [],
			"name": "getDefaultPartitions",
			"outputs": [
				{
					"internalType": "bytes32[]",
					"name": "",
					"type": "bytes32[]"
				}
			],
			"stateMutability": "view",
			"type": "function"
		},
		{
			"inputs": [
				{
					"internalType": "bytes32",
					"name": "name",
					"type": "bytes32"
				}
			],
			"name": "getDocument",
			"outputs": [
				{
					"internalType": "string",
					"name": "",
					"type": "string"
				},
				{
					"internalType": "bytes32",
					"name": "",
					"type": "bytes32"
				},
				{
					"internalType": "uint256",
					"name": "",
					"type": "uint256"
				}
			],
			"stateMutability": "view",
			"type": "function"
		},
		{
			"inputs": [],
			"name": "granularity",
			"outputs": [
				{
					"internalType": "uint256",
					"name": "",
					"type": "uint256"
				}
			],
			"stateMutability": "view",
			"type": "function"
		},
		{
			"inputs": [
				{
					"internalType": "address",
					"name": "token",
					"type": "address"
				},
				{
					"internalType": "address",
					"name": "account",
					"type": "address"
				}
			],
			"name": "isCertificateSigner",
			"outputs": [
				{
					"internalType": "bool",
					"name": "",
					"type": "bool"
				}
			],
			"stateMutability": "view",
			"type": "function"
		},
		{
			"inputs": [],
			"name": "isControllable",
			"outputs": [
				{
					"internalType": "bool",
					"name": "",
					"type": "bool"
				}
			],
			"stateMutability": "view",
			"type": "function"
		},
		{
			"inputs": [],
			"name": "isIssuable",
			"outputs": [
				{
					"internalType": "bool",
					"name": "",
					"type": "bool"
				}
			],
			"stateMutability": "view",
			"type": "function"
		},
		{
			"inputs": [
				{
					"internalType": "address",
					"name": "account",
					"type": "address"
				}
			],
			"name": "isMinter",
			"outputs": [
				{
					"internalType": "bool",
					"name": "",
					"type": "bool"
				}
			],
			"stateMutability": "view",
			"type": "function"
		},
		{
			"inputs": [
				{
					"internalType": "address",
					"name": "operator",
					"type": "address"
				},
				{
					"internalType": "address",
					"name": "tokenHolder",
					"type": "address"
				}
			],
			"name": "isOperator",
			"outputs": [
				{
					"internalType": "bool",
					"name": "",
					"type": "bool"
				}
			],
			"stateMutability": "view",
			"type": "function"
		},
		{
			"inputs": [
				{
					"internalType": "bytes32",
					"name": "partition",
					"type": "bytes32"
				},
				{
					"internalType": "address",
					"name": "operator",
					"type": "address"
				},
				{
					"internalType": "address",
					"name": "tokenHolder",
					"type": "address"
				}
			],
			"name": "isOperatorForPartition",
			"outputs": [
				{
					"internalType": "bool",
					"name": "",
					"type": "bool"
				}
			],
			"stateMutability": "view",
			"type": "function"
		},
		{
			"inputs": [
				{
					"internalType": "address",
					"name": "tokenHolder",
					"type": "address"
				},
				{
					"internalType": "uint256",
					"name": "value",
					"type": "uint256"
				},
				{
					"internalType": "bytes",
					"name": "data",
					"type": "bytes"
				}
			],
			"name": "issue",
			"outputs": [],
			"stateMutability": "nonpayable",
			"type": "function"
		},
		{
			"inputs": [
				{
					"internalType": "bytes32",
					"name": "partition",
					"type": "bytes32"
				},
				{
					"internalType": "address",
					"name": "tokenHolder",
					"type": "address"
				},
				{
					"internalType": "uint256",
					"name": "value",
					"type": "uint256"
				},
				{
					"internalType": "bytes",
					"name": "data",
					"type": "bytes"
				}
			],
			"name": "issueByPartition",
			"outputs": [],
			"stateMutability": "nonpayable",
			"type": "function"
		},
		{
			"inputs": [
				{
					"internalType": "address",
					"name": "newContractAddress",
					"type": "address"
				},
				{
					"internalType": "bool",
					"name": "definitive",
					"type": "bool"
				}
			],
			"name": "migrate",
			"outputs": [],
			"stateMutability": "nonpayable",
			"type": "function"
		},
		{
			"inputs": [],
			"name": "name",
			"outputs": [
				{
					"internalType": "string",
					"name": "",
					"type": "string"
				}
			],
			"stateMutability": "view",
			"type": "function"
		},
		{
			"inputs": [
				{
					"internalType": "bytes32",
					"name": "partition",
					"type": "bytes32"
				},
				{
					"internalType": "address",
					"name": "from",
					"type": "address"
				},
				{
					"internalType": "address",
					"name": "to",
					"type": "address"
				},
				{
					"internalType": "uint256",
					"name": "value",
					"type": "uint256"
				},
				{
					"internalType": "bytes",
					"name": "data",
					"type": "bytes"
				},
				{
					"internalType": "bytes",
					"name": "operatorData",
					"type": "bytes"
				}
			],
			"name": "operatorTransferByPartition",
			"outputs": [
				{
					"internalType": "bytes32",
					"name": "",
					"type": "bytes32"
				}
			],
			"stateMutability": "nonpayable",
			"type": "function"
		},
		{
			"inputs": [],
			"name": "owner",
			"outputs": [
				{
					"internalType": "address",
					"name": "",
					"type": "address"
				}
			],
			"stateMutability": "view",
			"type": "function"
		},
		{
			"inputs": [
				{
					"internalType": "address",
					"name": "tokenHolder",
					"type": "address"
				}
			],
			"name": "partitionsOf",
			"outputs": [
				{
					"internalType": "bytes32[]",
					"name": "",
					"type": "bytes32[]"
				}
			],
			"stateMutability": "view",
			"type": "function"
		},
		{
			"inputs": [
				{
					"internalType": "address",
					"name": "token",
					"type": "address"
				},
				{
					"internalType": "address",
					"name": "account",
					"type": "address"
				}
			],
			"name": "removeCertificateSigner",
			"outputs": [],
			"stateMutability": "nonpayable",
			"type": "function"
		},
		{
			"inputs": [
				{
					"internalType": "bytes32",
					"name": "_name",
					"type": "bytes32"
				}
			],
			"name": "removeDocument",
			"outputs": [],
			"stateMutability": "nonpayable",
			"type": "function"
		},
		{
			"inputs": [
				{
					"internalType": "address",
					"name": "account",
					"type": "address"
				}
			],
			"name": "removeMinter",
			"outputs": [],
			"stateMutability": "nonpayable",
			"type": "function"
		},
		{
			"inputs": [
				{
					"internalType": "address",
					"name": "token",
					"type": "address"
				}
			],
			"name": "renounceCertificateSigner",
			"outputs": [],
			"stateMutability": "nonpayable",
			"type": "function"
		},
		{
			"inputs": [],
			"name": "renounceControl",
			"outputs": [],
			"stateMutability": "nonpayable",
			"type": "function"
		},
		{
			"inputs": [],
			"name": "renounceMinter",
			"outputs": [],
			"stateMutability": "nonpayable",
			"type": "function"
		},
		{
			"inputs": [],
			"name": "renounceOwnership",
			"outputs": [],
			"stateMutability": "nonpayable",
			"type": "function"
		},
		{
			"inputs": [
				{
					"internalType": "address",
					"name": "operator",
					"type": "address"
				}
			],
			"name": "revokeOperator",
			"outputs": [],
			"stateMutability": "nonpayable",
			"type": "function"
		},
		{
			"inputs": [
				{
					"internalType": "bytes32",
					"name": "partition",
					"type": "bytes32"
				},
				{
					"internalType": "address",
					"name": "operator",
					"type": "address"
				}
			],
			"name": "revokeOperatorByPartition",
			"outputs": [],
			"stateMutability": "nonpayable",
			"type": "function"
		},
		{
			"inputs": [
				{
					"internalType": "address[]",
					"name": "operators",
					"type": "address[]"
				}
			],
			"name": "setControllers",
			"outputs": [],
			"stateMutability": "nonpayable",
			"type": "function"
		},
		{
			"inputs": [
				{
					"internalType": "bytes32[]",
					"name": "partitions",
					"type": "bytes32[]"
				}
			],
			"name": "setDefaultPartitions",
			"outputs": [],
			"stateMutability": "nonpayable",
			"type": "function"
		},
		{
			"inputs": [
				{
					"internalType": "bytes32",
					"name": "name",
					"type": "bytes32"
				},
				{
					"internalType": "string",
					"name": "uri",
					"type": "string"
				},
				{
					"internalType": "bytes32",
					"name": "documentHash",
					"type": "bytes32"
				}
			],
			"name": "setDocument",
			"outputs": [],
			"stateMutability": "nonpayable",
			"type": "function"
		},
		{
			"inputs": [
				{
					"internalType": "address",
					"name": "_address",
					"type": "address"
				}
			],
			"name": "setERC1820",
			"outputs": [
				{
					"internalType": "bool",
					"name": "",
					"type": "bool"
				}
			],
			"stateMutability": "nonpayable",
			"type": "function"
		},
		{
			"inputs": [],
			"name": "setInterface",
			"outputs": [
				{
					"internalType": "bool",
					"name": "",
					"type": "bool"
				}
			],
			"stateMutability": "nonpayable",
			"type": "function"
		},
		{
			"inputs": [
				{
					"internalType": "bytes32",
					"name": "partition",
					"type": "bytes32"
				},
				{
					"internalType": "address[]",
					"name": "operators",
					"type": "address[]"
				}
			],
			"name": "setPartitionControllers",
			"outputs": [],
			"stateMutability": "nonpayable",
			"type": "function"
		},
		{
			"inputs": [
				{
					"internalType": "address",
					"name": "extension",
					"type": "address"
				},
				{
					"internalType": "string",
					"name": "interfaceLabel",
					"type": "string"
				},
				{
					"internalType": "bool",
					"name": "removeOldExtensionRoles",
					"type": "bool"
				},
				{
					"internalType": "bool",
					"name": "addMinterRoleForExtension",
					"type": "bool"
				},
				{
					"internalType": "bool",
					"name": "addControllerRoleForExtension",
					"type": "bool"
				}
			],
			"name": "setTokenExtension",
			"outputs": [],
			"stateMutability": "nonpayable",
			"type": "function"
		},
		{
			"inputs": [],
			"name": "symbol",
			"outputs": [
				{
					"internalType": "string",
					"name": "",
					"type": "string"
				}
			],
			"stateMutability": "view",
			"type": "function"
		},
		{
			"inputs": [],
			"name": "totalPartitions",
			"outputs": [
				{
					"internalType": "bytes32[]",
					"name": "",
					"type": "bytes32[]"
				}
			],
			"stateMutability": "view",
			"type": "function"
		},
		{
			"inputs": [],
			"name": "totalSupply",
			"outputs": [
				{
					"internalType": "uint256",
					"name": "",
					"type": "uint256"
				}
			],
			"stateMutability": "view",
			"type": "function"
		},
		{
			"inputs": [
				{
					"internalType": "bytes32",
					"name": "partition",
					"type": "bytes32"
				}
			],
			"name": "totalSupplyByPartition",
			"outputs": [
				{
					"internalType": "uint256",
					"name": "",
					"type": "uint256"
				}
			],
			"stateMutability": "view",
			"type": "function"
		},
		{
			"inputs": [
				{
					"internalType": "address",
					"name": "to",
					"type": "address"
				},
				{
					"internalType": "uint256",
					"name": "value",
					"type": "uint256"
				}
			],
			"name": "transfer",
			"outputs": [
				{
					"internalType": "bool",
					"name": "",
					"type": "bool"
				}
			],
			"stateMutability": "nonpayable",
			"type": "function"
		},
		{
			"inputs": [
				{
					"internalType": "bytes32",
					"name": "partition",
					"type": "bytes32"
				},
				{
					"internalType": "address",
					"name": "to",
					"type": "address"
				},
				{
					"internalType": "uint256",
					"name": "value",
					"type": "uint256"
				},
				{
					"internalType": "bytes",
					"name": "data",
					"type": "bytes"
				}
			],
			"name": "transferByPartition",
			"outputs": [
				{
					"internalType": "bytes32",
					"name": "",
					"type": "bytes32"
				}
			],
			"stateMutability": "nonpayable",
			"type": "function"
		},
		{
			"inputs": [
				{
					"internalType": "address",
					"name": "from",
					"type": "address"
				},
				{
					"internalType": "address",
					"name": "to",
					"type": "address"
				},
				{
					"internalType": "uint256",
					"name": "value",
					"type": "uint256"
				}
			],
			"name": "transferFrom",
			"outputs": [
				{
					"internalType": "bool",
					"name": "",
					"type": "bool"
				}
			],
			"stateMutability": "nonpayable",
			"type": "function"
		},
		{
			"inputs": [
				{
					"internalType": "address",
					"name": "from",
					"type": "address"
				},
				{
					"internalType": "address",
					"name": "to",
					"type": "address"
				},
				{
					"internalType": "uint256",
					"name": "value",
					"type": "uint256"
				},
				{
					"internalType": "bytes",
					"name": "data",
					"type": "bytes"
				}
			],
			"name": "transferFromWithData",
			"outputs": [],
			"stateMutability": "nonpayable",
			"type": "function"
		},
		{
			"inputs": [
				{
					"internalType": "address",
					"name": "newOwner",
					"type": "address"
				}
			],
			"name": "transferOwnership",
			"outputs": [],
			"stateMutability": "nonpayable",
			"type": "function"
		},
		{
			"inputs": [
				{
					"internalType": "address",
					"name": "to",
					"type": "address"
				},
				{
					"internalType": "uint256",
					"name": "value",
					"type": "uint256"
				},
				{
					"internalType": "bytes",
					"name": "data",
					"type": "bytes"
				}
			],
			"name": "transferWithData",
			"outputs": [],
			"stateMutability": "nonpayable",
			"type": "function"
		},
		{
			"inputs": [
				{
					"internalType": "address",
					"name": "_token",
					"type": "address"
				},
				{
					"internalType": "address",
					"name": "_user",
					"type": "address"
				}
			],
			"name": "viewCertificateInfo",
			"outputs": [
				{
					"internalType": "address",
					"name": "",
					"type": "address"
				},
				{
					"internalType": "string",
					"name": "",
					"type": "string"
				},
				{
					"internalType": "string",
					"name": "",
					"type": "string"
				},
				{
					"internalType": "string",
					"name": "",
					"type": "string"
				},
				{
					"internalType": "uint256",
					"name": "",
					"type": "uint256"
				},
				{
					"internalType": "uint256",
					"name": "",
					"type": "uint256"
				}
			],
			"stateMutability": "view",
			"type": "function"
		}
	]
}