{
	"data": {
		"bytecode": {
			"linkReferences": {},
			"object": "60806040523480156200001157600080fd5b5060405162006ada38038062006ada833981016040819052620000349162000344565b620000736040518060400160405280601181526020017011195b1a5d995c9e559cd4185e5b595b9d607a1b8152506200016060201b62002d741760201c565b620000be6040518060400160405280601681526020017f45524331343030546f6b656e73526563697069656e74000000000000000000008152506200016060201b62002d741760201c565b600980546201000061ffff19909116610100851515810260ff1916919091178415151762ff00001916919091179182905560ff910416156200015857604080516001808252818301909252600091602080830190803683370190505090503381600081518110620001335762000133620003e4565b6001600160a01b03909216602092830291909101909101526200015681620001b0565b505b5050620003fa565b600160026000836040516020016200017991906200037c565b60408051808303601f19018152918152815160209283012083529082019290925201600020805460ff191691151591909117905550565b60005b600a5481101562000223576000600b6000600a8481548110620001da57620001da620003e4565b6000918252602080832091909101546001600160a01b031683528201929092526040019020805460ff1916911515919091179055806200021a81620003ba565b915050620001b3565b5060005b815181101562000293576001600b60008484815181106200024c576200024c620003e4565b6020908102919091018101516001600160a01b03168252810191909152604001600020805460ff1916911515919091179055806200028a81620003ba565b91505062000227565b508051620002a990600a906020840190620002ad565b5050565b82805482825590600052602060002090810192821562000305579160200282015b828111156200030557825182546001600160a01b0319166001600160a01b03909116178255602090920191600190910190620002ce565b506200031392915062000317565b5090565b5b8082111562000313576000815560010162000318565b805180151581146200033f57600080fd5b919050565b600080604083850312156200035857600080fd5b62000363836200032e565b915062000373602084016200032e565b90509250929050565b6000825160005b818110156200039f576020818601810151858301520162000383565b81811115620003af576000828501525b509190910192915050565b6000600019821415620003dd57634e487b7160e01b600052601160045260246000fd5b5060010190565b634e487b7160e01b600052603260045260246000fd5b6166d0806200040a6000396000f3fe6080604052600436106101cd5760003560e01c8063759561fa116100f7578063c9adffe211610095578063ec96dfb411610064578063ec96dfb414610578578063f2fde38b14610598578063f464b576146105b8578063f55886df146105d857600080fd5b8063c9adffe214610510578063d0b49af014610530578063e757223014610543578063ebbca4071461056357600080fd5b80638da5cb5b116100d15780638da5cb5b14610488578063935259a8146104b0578063a22ae631146104d0578063bb46be98146104f057600080fd5b8063759561fa146103fc5780637feffff31461041c5780638595240b1461043157600080fd5b80632db25e051161016f578063587274671161013e578063587274671461038757806361108c06146103a75780636775ce04146103c7578063715018a6146103e757600080fd5b80632db25e05146102e857806330f976991461031c578063353414641461035257806345a06cb21461037257600080fd5b806309ec6cc7116101ab57806309ec6cc71461024a5780630baf41a61461026a5780631af6649f1461028a578063249cb3fa146102ba57600080fd5b806301374518146101d257806301636f4e1461020857806302d2838b1461022a575b600080fd5b3480156101de57600080fd5b506101f26101ed366004615b9c565b6105f8565b6040516101ff9190616263565b60405180910390f35b34801561021457600080fd5b50610228610223366004615dda565b61066e565b005b34801561023657600080fd5b506102286102453660046160df565b6106e1565b34801561025657600080fd5b506102286102653660046160df565b6108be565b34801561027657600080fd5b50610228610285366004615cf8565b610d51565b34801561029657600080fd5b506102aa6102a5366004615cbf565b610db3565b60405190151581526020016101ff565b3480156102c657600080fd5b506102da6102d5366004615ed3565b610de3565b6040519081526020016101ff565b3480156102f457600080fd5b506103086103033660046160df565b610e42565b6040516101ff98979695949392919061617b565b34801561032857600080fd5b506102da610337366004615b9c565b6001600160a01b03166000908152600e602052604090205490565b34801561035e57600080fd5b506102aa61036d3660046160df565b610fdb565b34801561037e57600080fd5b506101f2610fe6565b34801561039357600080fd5b506102286103a2366004615d89565b611048565b3480156103b357600080fd5b506102286103c23660046160df565b6112a8565b3480156103d357600080fd5b506102286103e23660046160f8565b611766565b3480156103f357600080fd5b50610228611c6d565b34801561040857600080fd5b506101f2610417366004615b9c565b611cac565b34801561042857600080fd5b506102aa611d20565b34801561043d57600080fd5b506102da61044c366004615d43565b6001600160a01b039384166000908152600860209081526040808320959096168252938452848120928152918352838220908252909152205490565b34801561049457600080fd5b506000546040516001600160a01b0390911681526020016101ff565b3480156104bc57600080fd5b506102aa6104cb3660046160df565b611e0c565b3480156104dc57600080fd5b506102286104eb366004615e5b565b611e17565b3480156104fc57600080fd5b5061022861050b366004615fdb565b611ed4565b34801561051c57600080fd5b5061022861052b366004615e2f565b612337565b61022861053e3660046160c6565b6123f9565b34801561054f57600080fd5b506102da61055e3660046160df565b612571565b34801561056f57600080fd5b506003546102da565b34801561058457600080fd5b50610228610593366004615dda565b61257c565b3480156105a457600080fd5b506102286105b3366004615b9c565b612689565b3480156105c457600080fd5b506102286105d3366004615ef8565b612724565b3480156105e457600080fd5b506102aa6105f3366004615ef8565b612cef565b6001600160a01b03811660009081526005602090815260409182902080548351818402810184019094528084526060939283018282801561066257602002820191906000526020600020905b81546001600160a01b03168152600190910190602001808311610644575b50505050509050919050565b826106798133612dc2565b61069e5760405162461bcd60e51b815260040161069590616371565b60405180910390fd5b6106db84848480806020026020016040519081016040528093929190818152602001838360200280828437600092019190915250612e8092505050565b50505050565b60008181526004602052604090206001600682015462010000900460ff166004811115610710576107106165db565b1461072d5760405162461bcd60e51b8152600401610695906163a8565b60028101546001600160a01b0316156107c45760028101546001600160a01b031633146107c4576040805162461bcd60e51b81526020600482015260248101919091527f54726164652063616e206f6e6c7920626520657865637574656420627920657860448201527f65637574657220646566696e6564206174207472616465206372656174696f6e6064820152608401610695565b6107cd82612fcb565b6108365760405162461bcd60e51b815260206004820152603460248201527f547261646520686173206e6f74206265656e20616363657074656420627920616044820152731b1b081d1bdad95b881a1bdb19195c9cc81e595d60621b6064820152608401610695565b61083f82613276565b6108b15760405162461bcd60e51b815260206004820152603860248201527f547261646520686173206e6f74206265656e20617070726f766564206279206160448201527f6c6c20746f6b656e20636f6e74726f6c6c6572732079657400000000000000006064820152608401610695565b6108ba8261345a565b5050565b60008181526004602052604090206001600682015462010000900460ff1660048111156108ed576108ed6165db565b1461090a5760405162461bcd60e51b8152600401610695906163a8565b60008082600401805461091c90616575565b80601f016020809104026020016040519081016040528092919081815260200182805461094890616575565b80156109955780601f1061096a57610100808354040283529160200191610995565b820191906000526020600020905b81548152906001019060200180831161097857829003601f168201915b50505050508060200190518101906109ad9190615c4b565b50945050509250506000808460050180546109c790616575565b80601f01602080910402602001604051908101604052809291908181526020018280546109f390616575565b8015610a405780601f10610a1557610100808354040283529160200191610a40565b820191906000526020600020905b815481529060010190602001808311610a2357829003601f168201915b5050505050806020019051810190610a589190615c4b565b5094505050925050828015610a6a5750805b15610b465760028501546001600160a01b0316331480610ab8575084600301544210158015610ab8575084546001600160a01b0316331480610ab8575060018501546001600160a01b031633145b610b045760405162461bcd60e51b8152602060048201526029602482015260008051602061667b83398151915260448201526874726164652028302960b81b6064820152608401610695565b6000600686015460ff166001811115610b1f57610b1f6165db565b1415610b4157610b338660008660016136c3565b610b418660018460016136c3565b610d38565b8215610bfa5760028501546001600160a01b0316331480610b7f575084600301544210158015610b7f575084546001600160a01b031633145b610bcb5760405162461bcd60e51b8152602060048201526029602482015260008051602061667b83398151915260448201526874726164652028312960b81b6064820152608401610695565b6000600686015460ff166001811115610be657610be66165db565b1415610b4157610b418660008660016136c3565b8015610cb15760028501546001600160a01b0316331480610c36575084600301544210158015610c36575060018501546001600160a01b031633145b610c825760405162461bcd60e51b8152602060048201526029602482015260008051602061667b83398151915260448201526874726164652028322960b81b6064820152608401610695565b6000600686015460ff166001811115610c9d57610c9d6165db565b1415610b4157610b418660018460016136c3565b60028501546001600160a01b0316331480610cd5575084546001600160a01b031633145b80610cec575060018501546001600160a01b031633145b610d385760405162461bcd60e51b8152602060048201526029602482015260008051602061667b83398151915260448201526874726164652028332960b81b6064820152608401610695565b50505050600601805462ff000019166204000017905550565b82610d5c8133612dc2565b610d785760405162461bcd60e51b815260040161069590616371565b506001600160a01b03928316600090815260076020908152604080832094909516825292909252919020805460ff1916911515919091179055565b6001600160a01b0380831660009081526007602090815260408083209385168352929052205460ff165b92915050565b60008281526002602052604081205460ff1615610e3a5760405173455243313832305f4143434550545f4d4147494360601b6020820152603401604051602081830303815290604052805190602001209050610ddd565b506000610ddd565b6000818152600460208190526040822080546001820154600283015460038401546006850154958501805488978897889760609788978a97889794966001600160a01b03948516969385169592909416939092600588019160ff8083169262010000900416908490610eb390616575565b80601f0160208091040260200160405190810160405280929190818152602001828054610edf90616575565b8015610f2c5780601f10610f0157610100808354040283529160200191610f2c565b820191906000526020600020905b815481529060010190602001808311610f0f57829003601f168201915b50505050509350828054610f3f90616575565b80601f0160208091040260200160405190810160405280929190818152602001828054610f6b90616575565b8015610fb85780601f10610f8d57610100808354040283529160200191610fb8565b820191906000526020600020905b815481529060010190602001808311610f9b57829003601f168201915b505050505092509850985098509850985098509850985050919395975091939597565b6000610ddd82612fcb565b6060600a80548060200260200160405190810160405280929190818152602001828054801561103e57602002820191906000526020600020905b81546001600160a01b03168152600190910190602001808311611020575b5050505050905090565b6001600160a01b0380861660009081526007602090815260408083209388168352929052205460ff1680156110a257506001600160a01b0380851660009081526007602090815260408083209389168352929052205460ff165b156110ef5760405162461bcd60e51b815260206004820152601e60248201527f436f6d7065746974696f6e206f6e207072696365206f776e65727368697000006044820152606401610695565b6001600160a01b0380861660009081526007602090815260408083209388168352929052205460ff1615611191576111278533612dc2565b61118c5760405162461bcd60e51b815260206004820152603060248201527f507269636520736574746572206973206e6f7420616e206f7261636c6520666f60448201526f72207468697320746f6b656e2028312960801b6064820152608401610695565b61126b565b6001600160a01b0380851660009081526007602090815260408083209389168352929052205460ff161561122e576111c98433612dc2565b61118c5760405162461bcd60e51b815260206004820152603060248201527f507269636520736574746572206973206e6f7420616e206f7261636c6520666f60448201526f72207468697320746f6b656e2028322960801b6064820152608401610695565b60405162461bcd60e51b815260206004820152601260248201527104e6f207072696365206f776e6572736869760741b6044820152606401610695565b6001600160a01b03948516600090815260086020908152604080832096909716825294855285812093815292845284832091835292529190912055565b60008181526004602052604090206001600682015462010000900460ff1660048111156112d7576112d76165db565b146112f45760405162461bcd60e51b8152600401610695906163a8565b600080600083600401805461130890616575565b80601f016020809104026020016040519081016040528092919081815260200182805461133490616575565b80156113815780601f1061135657610100808354040283529160200191611381565b820191906000526020600020905b81548152906001019060200180831161136457829003601f168201915b50505050508060200190518101906113999190615c4b565b50945050509250925060008060008660050180546113b690616575565b80601f01602080910402602001604051908101604052809291908181526020018280546113e290616575565b801561142f5780601f106114045761010080835404028352916020019161142f565b820191906000526020600020905b81548152906001019060200180831161141257829003601f168201915b50505050508060200190518101906114479190615c4b565b50945050509250925083801561145a5750805b156114a75760405162461bcd60e51b815260206004820152601a60248201527f6578656375746554726164652063616e2062652063616c6c65640000000000006044820152606401610695565b6001600160a01b0386166000908152600c60205260409020541580156114e357506001600160a01b0383166000908152600c6020526040902054155b61154a5760405162461bcd60e51b815260206004820152603260248201527f54726164652063616e206e6f7420626520666f7263656420696620746f6b656e60448201527173206861766520636f6e74726f6c6c65727360701b6064820152608401610695565b60028701546001600160a01b0316156115cf5760028701546001600160a01b031633146115ca5760405162461bcd60e51b815260206004820152602860248201527f53656e646572206973206e6f7420616c6c6f77656420746f20666f7263652074604482015267726164652028302960c01b6064820152608401610695565b611720565b831561163f5786546001600160a01b031633146115ca5760405162461bcd60e51b815260206004820152602860248201527f53656e646572206973206e6f7420616c6c6f77656420746f20666f7263652074604482015267726164652028312960c01b6064820152608401610695565b80156116b25760018701546001600160a01b031633146115ca5760405162461bcd60e51b815260206004820152602860248201527f53656e646572206973206e6f7420616c6c6f77656420746f20666f7263652074604482015267726164652028322960c01b6064820152608401610695565b60405162461bcd60e51b815260206004820152603860248201527f54726164652063616e277420626520666f7263656420617320746f6b656e732060448201527f617265206e6f7420617661696c61626c6520736f2066617200000000000000006064820152608401610695565b8315611734576117348860008760006136c3565b8015611748576117488860018460006136c3565b50505050600692909201805462ff0000191662030000179055505050565b60008281526004602052604090206001600682015462010000900460ff166004811115611795576117956165db565b146117b25760405162461bcd60e51b8152600401610695906163a8565b60008160040180546117c390616575565b80601f01602080910402602001604051908101604052809291908181526020018280546117ef90616575565b801561183c5780601f106118115761010080835404028352916020019161183c565b820191906000526020600020905b81548152906001019060200180831161181f57829003601f168201915b50505050508060200190518101906118549190615c4b565b50505050509050600082600501805461186c90616575565b80601f016020809104026020016040519081016040528092919081815260200182805461189890616575565b80156118e55780601f106118ba576101008083540402835291602001916118e5565b820191906000526020600020905b8154815290600101906020018083116118c857829003601f168201915b50505050508060200190518101906118fd9190615c4b565b505050506001600160a01b0384166000908152600d602090815260408083203384529091529020549192505060ff168061195a57506001600160a01b0381166000908152600d6020908152604080832033845290915290205460ff165b6119cc5760405162461bcd60e51b815260206004820152603d60248201527f4f6e6c7920746f6b656e20636f6e74726f6c6c657273206f6620696e766f6c7660448201527f656420746f6b656e732063616e20617070726f766520612074726164650000006064820152608401610695565b6001600160a01b0382166000908152600d6020908152604080832033845290915290205460ff1615611aef57600080600080866004018054611a0d90616575565b80601f0160208091040260200160405190810160405280929190818152602001828054611a3990616575565b8015611a865780601f10611a5b57610100808354040283529160200191611a86565b820191906000526020600020905b815481529060010190602001808311611a6957829003601f168201915b5050505050806020019051810190611a9e9190615c4b565b5094509450945094505085848484848c604051602001611ac39695949392919061621d565b604051602081830303815290604052876004019080519060200190611ae9929190615a10565b50505050505b6001600160a01b0381166000908152600d6020908152604080832033845290915290205460ff1615611c1257600080600080866005018054611b3090616575565b80601f0160208091040260200160405190810160405280929190818152602001828054611b5c90616575565b8015611ba95780601f10611b7e57610100808354040283529160200191611ba9565b820191906000526020600020905b815481529060010190602001808311611b8c57829003601f168201915b5050505050806020019051810190611bc19190615c4b565b5094509450945094505084848484848c604051602001611be69695949392919061621d565b604051602081830303815290604052876005019080519060200190611c0c929190615a10565b50505050505b60028301546001600160a01b03161580611c38575060028301546001600160a01b031633145b8015611c485750611c4885612fcb565b8015611c585750611c5885613276565b15611c6657611c668561345a565b5050505050565b6000546001600160a01b03163314611c975760405162461bcd60e51b8152600401610695906162fb565b611c9f613b2c565b6009805461ff0019169055565b6001600160a01b0381166000908152600c6020908152604091829020805483518184028101840190945280845260609392830182828015610662576020028201919060005260206000209081546001600160a01b031681526001909101906020018083116106445750505050509050919050565b600080546001600160a01b03163314611d4b5760405162461bcd60e51b8152600401610695906162fb565b60095462010000900460ff16611dc25760405162461bcd60e51b815260206004820152603660248201527f436f6e74726163742068617320616c7265616479206265656e207265636f7264604482015275656420696e204552433138323020726567697374727960501b6064820152608401610695565b611dfa60405180604001604052806016815260200175115490cc4d0c0c151bdad95b9cd49958da5c1a595b9d60521b81525030613b62565b506009805462ff000019169055600190565b6000610ddd82613276565b6000546001600160a01b03163314611e415760405162461bcd60e51b8152600401610695906162fb565b600954610100900460ff16611e985760405162461bcd60e51b815260206004820152601960248201527f44565020636f6e7472616374206973206e6f74206f776e6564000000000000006044820152606401610695565b6108ba828280806020026020016040519081016040528093929190818152602001838360200280828437600092019190915250613bfd92505050565b33806001600160a01b0316638da5cb5b6040518163ffffffff1660e01b815260040160206040518083038186803b158015611f0e57600080fd5b505afa158015611f22573d6000803e3d6000fd5b505050506040513d601f19601f82011682018060405250810190611f469190615bb9565b6001600160a01b0316336001600160a01b03161480611f8857506001600160a01b0381166000908152600d6020908152604080832033845290915290205460ff165b611fa45760405162461bcd60e51b815260040161069590616330565b600080600080600080600088806020019051810190611fc39190615bd6565b96509650965096509650965096506000876001600160a01b03166318160ddd6040518163ffffffff1660e01b815260040160206040518083038186803b15801561200c57600080fd5b505afa158015612020573d6000803e3d6000fd5b505050506040513d601f19601f820116820180604052508101906120449190615eba565b9050600061205189613ce6565b9050600061205f8884616513565b9050600061206d8984616513565b90506000805b60035481101561228557600081815260046020526040812060058101805491929161209d90616575565b80601f01602080910402602001604051908101604052809291908181526020018280546120c990616575565b80156121165780601f106120eb57610100808354040283529160200191612116565b820191906000526020600020905b8154815290600101906020018083116120f957829003601f168201915b505050505080602001905181019061212e9190615c4b565b50505050509050600082600401805461214690616575565b80601f016020809104026020016040519081016040528092919081815260200182805461217290616575565b80156121bf5780601f10612194576101008083540402835291602001916121bf565b820191906000526020600020905b8154815290600101906020018083116121a257829003601f168201915b50505050508060200190518101906121d79190615c4b565b955050505050508f6001600160a01b0316826001600160a01b031614801561220157506001811515145b1561226f5760028301546001600160a01b031633146122625760405162461bcd60e51b815260206004820152601d60248201527f45786563757465722068617320746f206265207468652073656e6465720000006044820152606401610695565b5050600301549150612285565b505050808061227d906165aa565b915050612073565b508042146122d55760405162461bcd60e51b815260206004820152601f60248201527f43616e206f6e6c792062652063616c6c6564206f6e2073616c652064617465006044820152606401610695565b828214156122ec576122e78c8c613ed9565b612327565b8861230260646122fc8587614114565b90614120565b10612327576123278c612315858561412c565b61231f888861412c565b8b8b8b614138565b5050505050505050505050505050565b816123428133612dc2565b61235e5760405162461bcd60e51b815260040161069590616371565b61236b62093a80426164d9565b821180612376575081155b6123dc5760405162461bcd60e51b815260206004820152603160248201527f53746172742064617465206e6565647320746f20626520736574206174206c656044820152706173742061207765656b206265666f726560781b6064820152608401610695565b506001600160a01b039091166000908152600e6020526040902055565b600061240b60a0830160808401615b9c565b60a083013560c0840135612426610100860160e087016160a9565b60008060405160200161243e9695949392919061621d565b60408051601f198184030181529190529050600061246461012084016101008501615b9c565b610120840135610140850135612482610180870161016088016160a9565b60008060405160200161249a9695949392919061621d565b60408051601f19818403018152919052905061250c6124bc6020850185615b9c565b6124cc6040860160208701615b9c565b6124dc6060870160408801615b9c565b606087013586866124f56101a08b016101808c0161608c565b6125076101c08c016101a08d0161608c565b614286565b6125196020840184615b9c565b6001600160a01b0316336001600160a01b0316148061255857506125436040840160208501615b9c565b6001600160a01b0316336001600160a01b0316145b1561256c5761256c600354333460006146e2565b505050565b6000610ddd82614dd7565b82806001600160a01b0316638da5cb5b6040518163ffffffff1660e01b815260040160206040518083038186803b1580156125b657600080fd5b505afa1580156125ca573d6000803e3d6000fd5b505050506040513d601f19601f820116820180604052508101906125ee9190615bb9565b6001600160a01b0316336001600160a01b0316148061263057506001600160a01b0381166000908152600d6020908152604080832033845290915290205460ff165b61264c5760405162461bcd60e51b815260040161069590616330565b6106db8484848080602002602001604051908101604052809392919081815260200183836020028082843760009201919091525061548592505050565b6000546001600160a01b031633146126b35760405162461bcd60e51b8152600401610695906162fb565b6001600160a01b0381166127185760405162461bcd60e51b815260206004820152602660248201527f4f776e61626c653a206e6577206f776e657220697320746865207a65726f206160448201526564647265737360d01b6064820152608401610695565b612721816155d0565b50565b336001600160a01b031661275c336040518060400160405280600c81526020016b22a921989a18182a37b5b2b760a11b815250615620565b6001600160a01b0316146127975760405162461bcd60e51b8152602060048201526002602482015261353560f01b6044820152606401610695565b6001600160a01b03861630146127d45760405162461bcd60e51b8152602060048201526002602482015261035360f41b6044820152606401610695565b61284784848080601f01602080910402602001604051908101604052809392919081815260200183838082843760009201919091525050604080516020601f880181900481028201810190925286815292508691508590819084018382808284376000920191909152506156d792505050565b6128785760405162461bcd60e51b8152602060048201526002602482015261353760f01b6044820152606401610695565b60006128b985858080601f0160208091040260200160405190810160405280939291908181526020018383808284376000920191909152506157c292505050565b90507fcccccccccccccccccccccccccccccccccccccccccccccccccccccccccccccccc811415612a3557600061292486868080601f0160208091040260200160405190810160405280939291908181526020018383808284376000920191909152506157c992505050565b9050600061296787878080601f0160208091040260200160405190810160405280939291908181526020018383808284376000920191909152506157d092505050565b905060006129aa88888080601f0160208091040260200160405190810160405280939291908181526020018383808284376000920191909152506157d792505050565b90506000338a8f6004600160006040516020016129cc9695949392919061621d565b60408051601f198184030181526020601f8c018190048102840181019092528a83529250600091612a17918c908c90819084018382808284376000920191909152506157de92505050565b9050612a2b8d868686868660006001614286565b5050505050612ce1565b7fdddddddddddddddddddddddddddddddddddddddddddddddddddddddddddddddd811415612ce1576000612a9e86868080601f0160208091040260200160405190810160405280939291908181526020018383808284376000920191909152506157c992505050565b60008181526004602052604081208054929350916001600160a01b038c8116911614612acd5781600501612ad2565b816004015b8054612add90616575565b80601f0160208091040260200160405190810160405280929190818152602001828054612b0990616575565b8015612b565780601f10612b2b57610100808354040283529160200191612b56565b820191906000526020600020905b815481529060010190602001808311612b3957829003601f168201915b50505050509050600081806020019051810190612b739190615c4b565b50505050509050806001600160a01b0316336001600160a01b031614612bce5760405162461bcd60e51b815260206004820152601060248201526f15dc9bdb99c81d1bdad95b881cd95b9d60821b6044820152606401610695565b600082806020019051810190612be49190615c4b565b50505092505050808f14612c455760405162461bcd60e51b815260206004820152602260248201527f546f6b656e73206f66207468652077726f6e6720706172746974696f6e2073656044820152611b9d60f21b6064820152608401610695565b600083806020019051810190612c5b9190615c4b565b50509350505050806004811115612c7457612c746165db565b600414612ccd5760405162461bcd60e51b815260206004820152602160248201527f546f6b656e73206f66207468652077726f6e67207374616e646172642073656e6044820152601d60fa1b6064820152608401610695565b612cda868f60008f6146e2565b5050505050505b505050505050505050505050565b6000612d6485858080601f01602080910402602001604051908101604052809392919081815260200183838082843760009201919091525050604080516020601f890181900481028201810190925287815292508791508690819084018382808284376000920191909152506156d792505050565b9c9b505050505050505050505050565b60016002600083604051602001612d8b919061615f565b60408051808303601f19018152918152815160209283012083529082019290925201600020805460ff191691151591909117905550565b6001600160a01b03808316600090815260066020908152604080832093851683529290529081205460ff1680612e795750826001600160a01b0316638da5cb5b6040518163ffffffff1660e01b815260040160206040518083038186803b158015612e2c57600080fd5b505afa158015612e40573d6000803e3d6000fd5b505050506040513d601f19601f82011682018060405250810190612e649190615bb9565b6001600160a01b0316826001600160a01b0316145b9392505050565b60005b6001600160a01b038316600090815260056020526040902054811015612f20576001600160a01b038316600090815260066020908152604080832060059092528220805483919085908110612eda57612eda6165f1565b6000918252602080832091909101546001600160a01b031683528201929092526040019020805460ff191691151591909117905580612f18816165aa565b915050612e83565b5060005b8151811015612fa1576001600160a01b0383166000908152600660205260408120835160019290859085908110612f5d57612f5d6165f1565b6020908102919091018101516001600160a01b03168252810191909152604001600020805460ff191691151591909117905580612f99816165aa565b915050612f24565b506001600160a01b0382166000908152600560209081526040909120825161256c92840190615a94565b600081815260046020819052604082209081018054839190612fec90616575565b80601f016020809104026020016040519081016040528092919081815260200182805461301890616575565b80156130655780601f1061303a57610100808354040283529160200191613065565b820191906000526020600020905b81548152906001019060200180831161304857829003601f168201915b505050505080602001905181019061307d9190615c4b565b50945050505050600082600501805461309590616575565b80601f01602080910402602001604051908101604052809291908181526020018280546130c190616575565b801561310e5780601f106130e35761010080835404028352916020019161310e565b820191906000526020600020905b8154815290600101906020018083116130f157829003601f168201915b50505050508060200190518101906131269190615c4b565b5094506001935061313692505050565b600684015460ff16600181111561314f5761314f6165db565b14801561317a57506001600684015462010000900460ff166004811115613178576131786165db565b145b15613263578254600484018054613222926001600160a01b0316919061319f90616575565b80601f01602080910402602001604051908101604052809291908181526020018280546131cb90616575565b80156132185780601f106131ed57610100808354040283529160200191613218565b820191906000526020600020905b8154815290600101906020018083116131fb57829003601f168201915b5050505050615830565b61323157506000949350505050565b6001830154600584018054613254926001600160a01b0316919061319f90616575565b61326357506000949350505050565b81801561326d5750805b95945050505050565b6000818152600460208190526040822090810180548391829161329890616575565b80601f01602080910402602001604051908101604052809291908181526020018280546132c490616575565b80156133115780601f106132e657610100808354040283529160200191613311565b820191906000526020600020905b8154815290600101906020018083116132f457829003601f168201915b50505050508060200190518101906133299190615c4b565b955050505050915060008084600501805461334390616575565b80601f016020809104026020016040519081016040528092919081815260200182805461336f90616575565b80156133bc5780601f10613391576101008083540402835291602001916133bc565b820191906000526020600020905b81548152906001019060200180831161339f57829003601f168201915b50505050508060200190518101906133d49190615c4b565b6001600160a01b038a166000908152600c6020526040902054959750955050509115801592509050613404575082155b15613416575060009695505050505050565b6001600160a01b0382166000908152600c60205260409020541580159061343b575080155b1561344d575060009695505050505050565b5060019695505050505050565b60008181526004602052604081209061347283614dd7565b9050600082600401805461348590616575565b80601f01602080910402602001604051908101604052809291908181526020018280546134b190616575565b80156134fe5780601f106134d3576101008083540402835291602001916134fe565b820191906000526020600020905b8154815290600101906020018083116134e157829003601f168201915b50505050508060200190518101906135169190615c4b565b50505050915050600083600501805461352e90616575565b80601f016020809104026020016040519081016040528092919081815260200182805461355a90616575565b80156135a75780601f1061357c576101008083540402835291602001916135a7565b820191906000526020600020905b81548152906001019060200180831161358a57829003601f168201915b50505050508060200190518101906135bf9190615c4b565b50505050915050808314156135ef576135dc8560008460006136c3565b6135ea8560018360006136c3565b6136ab565b808311156136575760405162461bcd60e51b815260206004820152602f60248201527f507269636520697320686967686572207468616e20616d6f756e74206573637260448201526e1bddd9590bd85d5d1a1bdc9a5e9959608a1b6064820152608401610695565b6136658560008460006136c3565b6136738560018560006136c3565b6000600685015460ff16600181111561368e5761368e6165db565b14156136ab576136ab8560016136a48685616532565b60016136c3565b505050600601805462ff000019166202000017905550565b600084815260046020526040812090808560018111156136e5576136e56165db565b146136fd5760018201546001600160a01b0316613709565b81546001600160a01b03165b9050600080866001811115613720576137206165db565b146137355782546001600160a01b0316613744565b60018301546001600160a01b03165b905060008087600181111561375b5761375b6165db565b14613769578360050161376e565b836004015b805461377990616575565b80601f01602080910402602001604051908101604052809291908181526020018280546137a590616575565b80156137f25780601f106137c7576101008083540402835291602001916137f2565b820191906000526020600020905b8154815290600101906020018083116137d557829003601f168201915b505050505090506000806000838060200190518101906138129190615c4b565b50939650909450925087915060009050600689015460ff16600181111561383b5761383b6165db565b14156138445750305b8815613852578695506138a6565b87600301544211156138a65760405162461bcd60e51b815260206004820152601760248201527f45787069726174696f6e206461746520697320706173740000000000000000006044820152606401610695565b60018260048111156138ba576138ba6165db565b14156138ff5760405186906001600160a01b038216908c156108fc02908d906000818181858888f193505050501580156138f8573d6000803e3d6000fd5b5050612ce1565b6002826004811115613913576139136165db565b14156139e3576001600160a01b0381163014156139b35760405163a9059cbb60e01b81526001600160a01b038781166004830152602482018c905285169063a9059cbb906044015b602060405180830381600087803b15801561397557600080fd5b505af1158015613989573d6000803e3d6000fd5b505050506040513d601f19601f820116820180604052508101906139ad9190615e9d565b50612ce1565b6040516323b872dd60e01b81526001600160a01b038516906323b872dd9061395b9084908a908f906004016161f9565b60038260048111156139f7576139f76165db565b1415613a64576040516323b872dd60e01b81526001600160a01b038516906323b872dd90613a2d9084908a9088906004016161f9565b600060405180830381600087803b158015613a4757600080fd5b505af1158015613a5b573d6000803e3d6000fd5b50505050612ce1565b6004826004811115613a7857613a786165db565b1415612ce1576040516323037ba760e21b8152600481018490526001600160a01b0382811660248301528781166044830152606482018c905260c06084830152600060c4830181905260e060a484015260e4830152851690638c0dee9c9061010401602060405180830381600087803b158015613af457600080fd5b505af1158015613b08573d6000803e3d6000fd5b505050506040513d601f19601f820116820180604052508101906139ad9190615eba565b6000546001600160a01b03163314613b565760405162461bcd60e51b8152600401610695906162fb565b613b6060006155d0565b565b600082604051602001613b75919061615f565b60408051808303601f190181529082905280516020909101206001546329965a1d60e01b8352306004840152602483018290526001600160a01b03858116604485015291935016906329965a1d90606401600060405180830381600087803b158015613be057600080fd5b505af1158015613bf4573d6000803e3d6000fd5b50505050505050565b60005b600a54811015613c69576000600b6000600a8481548110613c2357613c236165f1565b6000918252602080832091909101546001600160a01b031683528201929092526040019020805460ff191691151591909117905580613c61816165aa565b915050613c00565b5060005b8151811015613cd2576001600b6000848481518110613c8e57613c8e6165f1565b6020908102919091018101516001600160a01b03168252810191909152604001600020805460ff191691151591909117905580613cca816165aa565b915050613c6d565b5080516108ba90600a906020840190615a94565b600080805b600354811015613ed257600081815260046020819052604082209081018054919291613d1690616575565b80601f0160208091040260200160405190810160405280929190818152602001828054613d4290616575565b8015613d8f5780601f10613d6457610100808354040283529160200191613d8f565b820191906000526020600020905b815481529060010190602001808311613d7257829003601f168201915b5050505050806020019051810190613da79190615c4b565b955050505050506000806000846005018054613dc290616575565b80601f0160208091040260200160405190810160405280929190818152602001828054613dee90616575565b8015613e3b5780601f10613e1057610100808354040283529160200191613e3b565b820191906000526020600020905b815481529060010190602001808311613e1e57829003601f168201915b5050505050806020019051810190613e539190615c4b565b955050505092509250886001600160a01b0316836001600160a01b0316148015613e7f57506001841515145b8015613ea8575060006006860154610100900460ff166001811115613ea657613ea66165db565b145b15613eba57613eb78783615a04565b96505b50505050508080613eca906165aa565b915050613ceb565b5092915050565b60005b60035481101561256c576000818152600460205260408120600581018054919291613f0690616575565b80601f0160208091040260200160405190810160405280929190818152602001828054613f3290616575565b8015613f7f5780601f10613f5457610100808354040283529160200191613f7f565b820191906000526020600020905b815481529060010190602001808311613f6257829003601f168201915b5050505050806020019051810190613f979190615c4b565b505050505090506000826004018054613faf90616575565b80601f0160208091040260200160405190810160405280929190818152602001828054613fdb90616575565b80156140285780601f10613ffd57610100808354040283529160200191614028565b820191906000526020600020905b81548152906001019060200180831161400b57829003601f168201915b50505050508060200190518101906140409190615c4b565b95505050505050856001600160a01b0316826001600160a01b031614801561406a57506001811515145b8015614093575060006006840154610100900460ff166001811115614091576140916165db565b145b156140fe576140a584866000806146e2565b6040516319dd738160e21b815260048101859052600160248201523090636775ce0490604401600060405180830381600087803b1580156140e557600080fd5b505af11580156140f9573d6000803e3d6000fd5b505050505b505050808061410c906165aa565b915050613edc565b6000612e7982846164f1565b6000612e798284616513565b6000612e798284616532565b604080516101c0810182526001600160a01b038816815260006020820181905233928201929092526060810161417142620151806164d9565b81526001600160a01b03861660208201526040810188905260608101859052608001600281526001600160a01b03891660208201526040810187905260608101849052608001600481526020016000815260200160009052604051630d0b49af60e41b8152909150309063d0b49af0906141ef9084906004016163d6565b600060405180830381600087803b15801561420957600080fd5b505af115801561421d573d6000803e3d6000fd5b50506003546040516319dd738160e21b8152600481019190915260016024820152309250636775ce049150604401600060405180830381600087803b15801561426557600080fd5b505af1158015614279573d6000803e3d6000fd5b5050505050505050505050565b60008480602001905181019061429c9190615c4b565b505093505050506000848060200190518101906142b99190615c4b565b50909450600193506142ca92505050565b8260048111156142dc576142dc6165db565b14806142f9575060018160048111156142f7576142f76165db565b145b1561436e576000846001811115614312576143126165db565b1461436e5760405162461bcd60e51b815260206004820152602660248201527f457468657220747261646573206e65656420746f206265206f66207479706520604482015265457363726f7760d01b6064820152608401610695565b600954610100900460ff161561441a576001600160a01b0388166000908152600b602052604090205460ff1661441a5760405162461bcd60e51b815260206004820152604560248201527f5472616465206578656375746572206e6565647320746f2062656c6f6e67207460448201527f6f20746865206c697374206f6620616c6c6f7765642074726164652065786563606482015264757465727360d81b608482015260a401610695565b60095460ff1615614497576000846001811115614439576144396165db565b14156144975760405162461bcd60e51b815260206004820152602760248201527f546869732044565020636f6e747261637420646f65736e277420616c6c6f7720604482015266457363726f777360c81b6064820152608401610695565b6001600160a01b038a166145065760405162461bcd60e51b815260206004820152603060248201527f412074726164652063616e206e6f74206265206372656174656420776974682060448201526f746865207a65726f206164647265737360801b6064820152608401610695565b60038054906000614516836165aa565b919050555060004288116145365761453162278d00426164d9565b614538565b875b90506040518061012001604052808c6001600160a01b031681526020018b6001600160a01b031681526020018a6001600160a01b03168152602001828152602001888152602001878152602001866001811115614597576145976165db565b81526020018560018111156145ae576145ae6165db565b81526020016001905260038054600090815260046020818152604092839020855181546001600160a01b03199081166001600160a01b03928316178355878401516001840180548316918416919091179055948701516002830180549096169116179093556060850151938301939093556080840151805192936146389392850192910190615a10565b5060a08201518051614654916005840191602090910190615a10565b5060c082015160068201805460ff191660018381811115614677576146776165db565b021790555060e082015160068201805461ff0019166101008360018111156146a1576146a16165db565b021790555061010082015160068201805462ff00001916620100008360048111156146ce576146ce6165db565b021790555050505050505050505050505050565b60008481526004602052604090206001600682015462010000900460ff166004811115614711576147116165db565b1461472e5760405162461bcd60e51b8152600401610695906163a8565b80546000906001600160a01b0386811691161415614757575080546001600160a01b0316614816565b60018201546001600160a01b0386811691161415614783575060018101546001600160a01b0316614816565b60018201546001600160a01b03166147bb57506001810180546001600160a01b0319166001600160a01b038616908117909155614816565b60405162461bcd60e51b815260206004820152602a60248201527f4f6e6c79207265676973746572656420686f6c646572732063616e20616363656044820152697074206120747261646560b01b6064820152608401610695565b81546000906001600160a01b03838116911614614836578260050161483b565b826004015b805461484690616575565b80601f016020809104026020016040519081016040528092919081815260200182805461487290616575565b80156148bf5780601f10614894576101008083540402835291602001916148bf565b820191906000526020600020905b8154815290600101906020018083116148a257829003601f168201915b50505050509050600080600080600080868060200190518101906148e39190615c4b565b95509550955095509550955081156149495760405162461bcd60e51b8152602060048201526024808201527f547261646520616c72656164792061636365707465642062792074686520686f604482015263363232b960e11b6064820152608401610695565b600060068a015460ff166001811115614964576149646165db565b1415614ca657600183600481111561497e5761497e6165db565b14156149d857848b146149d35760405162461bcd60e51b815260206004820152601c60248201527f416d6f756e74206f6620455448206973206e6f7420636f7272656374000000006044820152606401610695565b614d22565b60028360048111156149ec576149ec6165db565b1415614a7a576040516323b872dd60e01b81526001600160a01b038716906323b872dd90614a22908f9030908a906004016161f9565b602060405180830381600087803b158015614a3c57600080fd5b505af1158015614a50573d6000803e3d6000fd5b505050506040513d601f19601f82011682018060405250810190614a749190615e9d565b50614d22565b6003836004811115614a8e57614a8e6165db565b1415614afb576040516323b872dd60e01b81526001600160a01b038716906323b872dd90614ac4908f90309089906004016161f9565b600060405180830381600087803b158015614ade57600080fd5b505af1158015614af2573d6000803e3d6000fd5b50505050614d22565b6004836004811115614b0f57614b0f6165db565b148015614b1a575089155b15614c2257856001600160a01b0316638c0dee9c858e30897faaaaaaaaaaaaaaaaaaaaaaaaaaaaaaaaaaaaaaaaaaaaaaaaaaaaaaaaaaaaaaaa60001b604051602001614b6891815260200190565b60408051808303601f190181528282527faaaaaaaaaaaaaaaaaaaaaaaaaaaaaaaaaaaaaaaaaaaaaaaaaaaaaaaaaaaaaaaa602084015291016040516020818303038152906040526040518763ffffffff1660e01b8152600401614bd0969594939291906162b0565b602060405180830381600087803b158015614bea57600080fd5b505af1158015614bfe573d6000803e3d6000fd5b505050506040513d601f19601f82011682018060405250810190614a749190615eba565b6004836004811115614c3657614c366165db565b148015614c4257508915155b156149d357848a146149d35760405162461bcd60e51b815260206004820152602760248201527f416d6f756e74206f66204552433134303020746f6b656e73206973206e6f742060448201526618dbdc9c9958dd60ca1b6064820152608401610695565b614cb08c88615830565b614d225760405162461bcd60e51b815260206004820152603c60248201527f416c6c6f77616e6365206e6565647320746f2062652070726f7669646564206960448201527f6e20746f6b656e20736d61727420636f6e7472616374206669727374000000006064820152608401610695565b600086868686600186604051602001614d409695949392919061621d565b60408051601f198184030181529190528a549091506001600160a01b038a811691161415614d83578051614d7d9060048c01906020840190615a10565b50614d9a565b8051614d989060058c01906020840190615a10565b505b60028a01546001600160a01b0316158015614db95750614db98e612fcb565b8015614dc95750614dc98e613276565b15612327576123278e61345a565b60008181526004602081905260408220908101805483918291829190614dfc90616575565b80601f0160208091040260200160405190810160405280929190818152602001828054614e2890616575565b8015614e755780601f10614e4a57610100808354040283529160200191614e75565b820191906000526020600020905b815481529060010190602001808311614e5857829003601f168201915b5050505050806020019051810190614e8d9190615c4b565b5050509250925092506000806000866005018054614eaa90616575565b80601f0160208091040260200160405190810160405280929190818152602001828054614ed690616575565b8015614f235780601f10614ef857610100808354040283529160200191614f23565b820191906000526020600020905b815481529060010190602001808311614f0657829003601f168201915b5050505050806020019051810190614f3b9190615c4b565b5050506001600160a01b03808a16600090815260076020908152604080832093871683529290522054929550909350915060ff168015614fa057506001600160a01b038084166000908152600760209081526040808320938a168352929052205460ff165b15614fed5760405162461bcd60e51b815260206004820152601e60248201527f436f6d7065746974696f6e206f6e207072696365206f776e65727368697000006044820152606401610695565b6001600160a01b0386166000908152600e6020526040902054158061502957506001600160a01b0386166000908152600e602052604090205442105b1561503a5750979650505050505050565b6001600160a01b0380871660009081526007602090815260408083209387168352929052205460ff168061509357506001600160a01b038084166000908152600760209081526040808320938a168352929052205460ff165b15615479576001600160a01b038087166000908152600860209081526040808320938716835292815282822087835281528282208483529052205415615121576001600160a01b0380871660009081526008602090815260408083209387168352928152828220878352815282822084835290522054615114908690614120565b9998505050505050505050565b6001600160a01b038084166000908152600860209081526040808320938a1683529281528282208483528152828220878352905220541561519d576001600160a01b038084166000908152600860209081526040808320938a168352928152828220848352815282822087835290522054615114908690614114565b6001600160a01b038087166000908152600860209081526040808320938716835292815282822087835281528282208280529052205415615219576001600160a01b0380871660009081526008602090815260408083209387168352928152828220878352815282822082805290522054615114908690614120565b6001600160a01b038084166000908152600860209081526040808320938a16835292815282822082805281528282208783529052205415615295576001600160a01b038084166000908152600860209081526040808320938a168352928152828220828052815282822087835290522054615114908690614114565b6001600160a01b038087166000908152600860209081526040808320938716835292815282822082805281528282208483529052205415615311576001600160a01b0380871660009081526008602090815260408083209387168352928152828220828052815282822084835290522054615114908690614120565b6001600160a01b038084166000908152600860209081526040808320938a1683529281528282208483528152828220828052905220541561538d576001600160a01b038084166000908152600860209081526040808320938a168352928152828220848352815282822082805290522054615114908690614114565b6001600160a01b038087166000908152600860209081526040808320938716835292815282822082805281528282209052205415615403576001600160a01b0380871660009081526008602090815260408083209387168352928152828220828052815282822090522054615114908690614120565b6001600160a01b038084166000908152600860209081526040808320938a16835292815282822082805281528282209052205415615479576001600160a01b038084166000908152600860209081526040808320938a168352928152828220828052815282822090522054615114908690614114565b50979650505050505050565b60005b6001600160a01b0383166000908152600c6020526040902054811015615525576001600160a01b0383166000908152600d60209081526040808320600c90925282208054839190859081106154df576154df6165f1565b6000918252602080832091909101546001600160a01b031683528201929092526040019020805460ff19169115159190911790558061551d816165aa565b915050615488565b5060005b81518110156155a6576001600160a01b0383166000908152600d60205260408120835160019290859085908110615562576155626165f1565b6020908102919091018101516001600160a01b03168252810191909152604001600020805460ff19169115159190911790558061559e816165aa565b915050615529565b506001600160a01b0382166000908152600c60209081526040909120825161256c92840190615a94565b600080546001600160a01b038381166001600160a01b0319831681178455604051919092169283917f8be0079c531659141344cd1fd0a4f28419497f9722a3daafe3b4186f6b6457e09190a35050565b60008082604051602001615634919061615f565b60408051808303601f1901815290829052805160209091012060015463555ddc6560e11b83526001600160a01b03878116600485015260248401839052919350169063aabbb8ca9060440160206040518083038186803b15801561569757600080fd5b505afa1580156156ab573d6000803e3d6000fd5b505050506040513d601f19601f820116820180604052508101906156cf9190615bb9565b949350505050565b60008151600014156156eb57506000610ddd565b60006156f8846020015190565b9050835161010014801561572b57507fcccccccccccccccccccccccccccccccccccccccccccccccccccccccccccccccc81145b1561573a576001915050610ddd565b8351604014801561576a57507fdddddddddddddddddddddddddddddddddddddddddddddddddddddddddddddddd81145b15615779576001915050610ddd565b835160201480156157a957507faaaaaaaaaaaaaaaaaaaaaaaaaaaaaaaaaaaaaaaaaaaaaaaaaaaaaaaaaaaaaaaa81145b156157b8576001915050610ddd565b6000915050610ddd565b6020015190565b6040015190565b6060015190565b6080015190565b60a081015160c082015160e083015161010084015160405160609493929190615816908590859085908590600090819060200161621d565b604051602081830303815290604052945050505050919050565b60008060008060008580602001905181019061584c9190615c4b565b50939750919550935091506002905081600481111561586d5761586d6165db565b141561590357604051636eb1769f60e11b81526001600160a01b03888116600483015230602483015284919086169063dd62ed3e906044015b60206040518083038186803b1580156158be57600080fd5b505afa1580156158d2573d6000803e3d6000fd5b505050506040513d601f19601f820116820180604052508101906158f69190615eba565b1015945050505050610ddd565b6003816004811115615917576159176165db565b14156159ac5760405163020604bf60e21b81526004810183905230906001600160a01b0386169063081812fc9060240160206040518083038186803b15801561595f57600080fd5b505afa158015615973573d6000803e3d6000fd5b505050506040513d601f19601f820116820180604052508101906159979190615bb9565b6001600160a01b031614945050505050610ddd565b60048160048111156159c0576159c06165db565b141561344d57604051630bf641e560e11b8152600481018390526001600160a01b0388811660248301523060448301528491908616906317ec83ca906064016158a6565b6000612e7982846164d9565b828054615a1c90616575565b90600052602060002090601f016020900481019282615a3e5760008555615a84565b82601f10615a5757805160ff1916838001178555615a84565b82800160010185558215615a84579182015b82811115615a84578251825591602001919060010190615a69565b50615a90929150615ae9565b5090565b828054828255906000526020600020908101928215615a84579160200282015b82811115615a8457825182546001600160a01b0319166001600160a01b03909116178255602090920191600190910190615ab4565b5b80821115615a905760008155600101615aea565b8035615b098161663d565b919050565b60008083601f840112615b2057600080fd5b50813567ffffffffffffffff811115615b3857600080fd5b6020830191508360208260051b8501011115615b5357600080fd5b9250929050565b60008083601f840112615b6c57600080fd5b50813567ffffffffffffffff811115615b8457600080fd5b602083019150836020828501011115615b5357600080fd5b600060208284031215615bae57600080fd5b8135612e798161663d565b600060208284031215615bcb57600080fd5b8151612e798161663d565b600080600080600080600060e0888a031215615bf157600080fd5b8751615bfc8161663d565b6020890151909750615c0d8161663d565b8096505060408801519450606088015193506080880151615c2d8161663d565b8093505060a0880151915060c0880151905092959891949750929550565b60008060008060008060c08789031215615c6457600080fd5b8651615c6f8161663d565b8096505060208701519450604087015193506060870151615c8f8161666d565b6080880151909350615ca081616652565b60a0880151909250615cb181616652565b809150509295509295509295565b60008060408385031215615cd257600080fd5b8235615cdd8161663d565b91506020830135615ced8161663d565b809150509250929050565b600080600060608486031215615d0d57600080fd5b8335615d188161663d565b92506020840135615d288161663d565b91506040840135615d3881616652565b809150509250925092565b60008060008060808587031215615d5957600080fd5b8435615d648161663d565b93506020850135615d748161663d565b93969395505050506040820135916060013590565b600080600080600060a08688031215615da157600080fd5b8535615dac8161663d565b94506020860135615dbc8161663d565b94979496505050506040830135926060810135926080909101359150565b600080600060408486031215615def57600080fd5b8335615dfa8161663d565b9250602084013567ffffffffffffffff811115615e1657600080fd5b615e2286828701615b0e565b9497909650939450505050565b60008060408385031215615e4257600080fd5b8235615e4d8161663d565b946020939093013593505050565b60008060208385031215615e6e57600080fd5b823567ffffffffffffffff811115615e8557600080fd5b615e9185828601615b0e565b90969095509350505050565b600060208284031215615eaf57600080fd5b8151612e7981616652565b600060208284031215615ecc57600080fd5b5051919050565b60008060408385031215615ee657600080fd5b823591506020830135615ced8161663d565b60008060008060008060008060008060006101008c8e031215615f1a57600080fd5b67ffffffffffffffff808d351115615f3157600080fd5b615f3e8e8e358f01615b5a565b909c509a5060208d01359950615f5660408e01615afe565b9850615f6460608e01615afe565b9750615f7260808e01615afe565b965060a08d013595508060c08e01351115615f8c57600080fd5b615f9c8e60c08f01358f01615b5a565b909550935060e08d0135811015615fb257600080fd5b50615fc38d60e08e01358e01615b5a565b81935080925050509295989b509295989b9093969950565b600060208284031215615fed57600080fd5b813567ffffffffffffffff8082111561600557600080fd5b818401915084601f83011261601957600080fd5b81358181111561602b5761602b616607565b604051601f8201601f19908116603f0116810190838211818310171561605357616053616607565b8160405282815287602084870101111561606c57600080fd5b826020860160208301376000928101602001929092525095945050505050565b60006020828403121561609e57600080fd5b8135612e7981616660565b6000602082840312156160bb57600080fd5b8135612e798161666d565b60006101c082840312156160d957600080fd5b50919050565b6000602082840312156160f157600080fd5b5035919050565b6000806040838503121561610b57600080fd5b823591506020830135615ced81616652565b60008151808452616135816020860160208601616549565b601f01601f19169290920160200192915050565b6161528161661d565b9052565b6161528161662d565b60008251616171818460208701616549565b9190910192915050565b6001600160a01b03898116825288811660208301528716604082015260608101869052610100608082018190526000906161b78382018861611d565b905082810360a08401526161cb818761611d565b9150506161d78461661d565b8360c08301526161e68361662d565b8260e08301529998505050505050505050565b6001600160a01b039384168152919092166020820152604081019190915260600190565b6001600160a01b0387168152602081018690526040810185905260c081016162448561662d565b60608201949094529115156080830152151560a0909101529392505050565b6020808252825182820181905260009190848201906040850190845b818110156162a45783516001600160a01b03168352928401929184019160010161627f565b50909695505050505050565b8681526001600160a01b038681166020830152851660408201526060810184905260c0608082018190526000906162e99083018561611d565b82810360a0840152615114818561611d565b6020808252818101527f4f776e61626c653a2063616c6c6572206973206e6f7420746865206f776e6572604082015260600190565b60208082526021908201527f53656e646572206973206e6f74206120746f6b656e20636f6e74726f6c6c65726040820152601760f91b606082015260800190565b6020808252601d908201527f53656e646572206973206e6f742061207072696365206f7261636c652e000000604082015260600190565b6020808252601490820152735472616465206973206e6f742070656e64696e6760601b604082015260600190565b81516001600160a01b031681526101c08101602083015161640260208401826001600160a01b03169052565b50604083015161641d60408401826001600160a01b03169052565b5060608301516060830152608083015161644260808401826001600160a01b03169052565b5060a083015160a083015260c083015160c083015260e083015161646960e0840182616156565b50610100838101516001600160a01b03169083015261012080840151908301526101408084015190830152610160808401516164a782850182616156565b5050610180808401516164bc82850182616149565b50506101a0808401516164d182850182616149565b505092915050565b600082198211156164ec576164ec6165c5565b500190565b60008261650e57634e487b7160e01b600052601260045260246000fd5b500490565b600081600019048311821515161561652d5761652d6165c5565b500290565b600082821015616544576165446165c5565b500390565b60005b8381101561656457818101518382015260200161654c565b838111156106db5750506000910152565b600181811c9082168061658957607f821691505b602082108114156160d957634e487b7160e01b600052602260045260246000fd5b60006000198214156165be576165be6165c5565b5060010190565b634e487b7160e01b600052601160045260246000fd5b634e487b7160e01b600052602160045260246000fd5b634e487b7160e01b600052603260045260246000fd5b634e487b7160e01b600052604160045260246000fd5b60028110612721576127216165db565b60058110612721576127216165db565b6001600160a01b038116811461272157600080fd5b801515811461272157600080fd5b6002811061272157600080fd5b6005811061272157600080fdfe53656e646572206973206e6f7420616c6c6f77656420746f2063616e63656c20a264697066735822122040d28cc094668929ff8420406951798bc7900fd9d8c07faac9635cf24a9bfe2364736f6c63430008070033",
			"opcodes": "PUSH1 0x80 PUSH1 0x40 MSTORE CALLVALUE DUP1 ISZERO PUSH3 0x11 JUMPI PUSH1 0x0 DUP1 REVERT JUMPDEST POP PUSH1 0x40 MLOAD PUSH3 0x6ADA CODESIZE SUB DUP1 PUSH3 0x6ADA DUP4 CODECOPY DUP2 ADD PUSH1 0x40 DUP2 SWAP1 MSTORE PUSH3 0x34 SWAP2 PUSH3 0x344 JUMP JUMPDEST PUSH3 0x73 PUSH1 0x40 MLOAD DUP1 PUSH1 0x40 ADD PUSH1 0x40 MSTORE DUP1 PUSH1 0x11 DUP2 MSTORE PUSH1 0x20 ADD PUSH17 0x11195B1A5D995C9E559CD4185E5B595B9D PUSH1 0x7A SHL DUP2 MSTORE POP PUSH3 0x160 PUSH1 0x20 SHL PUSH3 0x2D74 OR PUSH1 0x20 SHR JUMP JUMPDEST PUSH3 0xBE PUSH1 0x40 MLOAD DUP1 PUSH1 0x40 ADD PUSH1 0x40 MSTORE DUP1 PUSH1 0x16 DUP2 MSTORE PUSH1 0x20 ADD PUSH32 0x45524331343030546F6B656E73526563697069656E7400000000000000000000 DUP2 MSTORE POP PUSH3 0x160 PUSH1 0x20 SHL PUSH3 0x2D74 OR PUSH1 0x20 SHR JUMP JUMPDEST PUSH1 0x9 DUP1 SLOAD PUSH3 0x10000 PUSH2 0xFFFF NOT SWAP1 SWAP2 AND PUSH2 0x100 DUP6 ISZERO ISZERO DUP2 MUL PUSH1 0xFF NOT AND SWAP2 SWAP1 SWAP2 OR DUP5 ISZERO ISZERO OR PUSH3 0xFF0000 NOT AND SWAP2 SWAP1 SWAP2 OR SWAP2 DUP3 SWAP1 SSTORE PUSH1 0xFF SWAP2 DIV AND ISZERO PUSH3 0x158 JUMPI PUSH1 0x40 DUP1 MLOAD PUSH1 0x1 DUP1 DUP3 MSTORE DUP2 DUP4 ADD SWAP1 SWAP3 MSTORE PUSH1 0x0 SWAP2 PUSH1 0x20 DUP1 DUP4 ADD SWAP1 DUP1 CALLDATASIZE DUP4 CALLDATACOPY ADD SWAP1 POP POP SWAP1 POP CALLER DUP2 PUSH1 0x0 DUP2 MLOAD DUP2 LT PUSH3 0x133 JUMPI PUSH3 0x133 PUSH3 0x3E4 JUMP JUMPDEST PUSH1 0x1 PUSH1 0x1 PUSH1 0xA0 SHL SUB SWAP1 SWAP3 AND PUSH1 0x20 SWAP3 DUP4 MUL SWAP2 SWAP1 SWAP2 ADD SWAP1 SWAP2 ADD MSTORE PUSH3 0x156 DUP2 PUSH3 0x1B0 JUMP JUMPDEST POP JUMPDEST POP POP PUSH3 0x3FA JUMP JUMPDEST PUSH1 0x1 PUSH1 0x2 PUSH1 0x0 DUP4 PUSH1 0x40 MLOAD PUSH1 0x20 ADD PUSH3 0x179 SWAP2 SWAP1 PUSH3 0x37C JUMP JUMPDEST PUSH1 0x40 DUP1 MLOAD DUP1 DUP4 SUB PUSH1 0x1F NOT ADD DUP2 MSTORE SWAP2 DUP2 MSTORE DUP2 MLOAD PUSH1 0x20 SWAP3 DUP4 ADD KECCAK256 DUP4 MSTORE SWAP1 DUP3 ADD SWAP3 SWAP1 SWAP3 MSTORE ADD PUSH1 0x0 KECCAK256 DUP1 SLOAD PUSH1 0xFF NOT AND SWAP2 ISZERO ISZERO SWAP2 SWAP1 SWAP2 OR SWAP1 SSTORE POP JUMP JUMPDEST PUSH1 0x0 JUMPDEST PUSH1 0xA SLOAD DUP2 LT ISZERO PUSH3 0x223 JUMPI PUSH1 0x0 PUSH1 0xB PUSH1 0x0 PUSH1 0xA DUP5 DUP2 SLOAD DUP2 LT PUSH3 0x1DA JUMPI PUSH3 0x1DA PUSH3 0x3E4 JUMP JUMPDEST PUSH1 0x0 SWAP2 DUP3 MSTORE PUSH1 0x20 DUP1 DUP4 KECCAK256 SWAP2 SWAP1 SWAP2 ADD SLOAD PUSH1 0x1 PUSH1 0x1 PUSH1 0xA0 SHL SUB AND DUP4 MSTORE DUP3 ADD SWAP3 SWAP1 SWAP3 MSTORE PUSH1 0x40 ADD SWAP1 KECCAK256 DUP1 SLOAD PUSH1 0xFF NOT AND SWAP2 ISZERO ISZERO SWAP2 SWAP1 SWAP2 OR SWAP1 SSTORE DUP1 PUSH3 0x21A DUP2 PUSH3 0x3BA JUMP JUMPDEST SWAP2 POP POP PUSH3 0x1B3 JUMP JUMPDEST POP PUSH1 0x0 JUMPDEST DUP2 MLOAD DUP2 LT ISZERO PUSH3 0x293 JUMPI PUSH1 0x1 PUSH1 0xB PUSH1 0x0 DUP5 DUP5 DUP2 MLOAD DUP2 LT PUSH3 0x24C JUMPI PUSH3 0x24C PUSH3 0x3E4 JUMP JUMPDEST PUSH1 0x20 SWAP1 DUP2 MUL SWAP2 SWAP1 SWAP2 ADD DUP2 ADD MLOAD PUSH1 0x1 PUSH1 0x1 PUSH1 0xA0 SHL SUB AND DUP3 MSTORE DUP2 ADD SWAP2 SWAP1 SWAP2 MSTORE PUSH1 0x40 ADD PUSH1 0x0 KECCAK256 DUP1 SLOAD PUSH1 0xFF NOT AND SWAP2 ISZERO ISZERO SWAP2 SWAP1 SWAP2 OR SWAP1 SSTORE DUP1 PUSH3 0x28A DUP2 PUSH3 0x3BA JUMP JUMPDEST SWAP2 POP POP PUSH3 0x227 JUMP JUMPDEST POP DUP1 MLOAD PUSH3 0x2A9 SWAP1 PUSH1 0xA SWAP1 PUSH1 0x20 DUP5 ADD SWAP1 PUSH3 0x2AD JUMP JUMPDEST POP POP JUMP JUMPDEST DUP3 DUP1 SLOAD DUP3 DUP3 SSTORE SWAP1 PUSH1 0x0 MSTORE PUSH1 0x20 PUSH1 0x0 KECCAK256 SWAP1 DUP2 ADD SWAP3 DUP3 ISZERO PUSH3 0x305 JUMPI SWAP2 PUSH1 0x20 MUL DUP3 ADD JUMPDEST DUP3 DUP2 GT ISZERO PUSH3 0x305 JUMPI DUP3 MLOAD DUP3 SLOAD PUSH1 0x1 PUSH1 0x1 PUSH1 0xA0 SHL SUB NOT AND PUSH1 0x1 PUSH1 0x1 PUSH1 0xA0 SHL SUB SWAP1 SWAP2 AND OR DUP3 SSTORE PUSH1 0x20 SWAP1 SWAP3 ADD SWAP2 PUSH1 0x1 SWAP1 SWAP2 ADD SWAP1 PUSH3 0x2CE JUMP JUMPDEST POP PUSH3 0x313 SWAP3 SWAP2 POP PUSH3 0x317 JUMP JUMPDEST POP SWAP1 JUMP JUMPDEST JUMPDEST DUP1 DUP3 GT ISZERO PUSH3 0x313 JUMPI PUSH1 0x0 DUP2 SSTORE PUSH1 0x1 ADD PUSH3 0x318 JUMP JUMPDEST DUP1 MLOAD DUP1 ISZERO ISZERO DUP2 EQ PUSH3 0x33F JUMPI PUSH1 0x0 DUP1 REVERT JUMPDEST SWAP2 SWAP1 POP JUMP JUMPDEST PUSH1 0x0 DUP1 PUSH1 0x40 DUP4 DUP6 SUB SLT ISZERO PUSH3 0x358 JUMPI PUSH1 0x0 DUP1 REVERT JUMPDEST PUSH3 0x363 DUP4 PUSH3 0x32E JUMP JUMPDEST SWAP2 POP PUSH3 0x373 PUSH1 0x20 DUP5 ADD PUSH3 0x32E JUMP JUMPDEST SWAP1 POP SWAP3 POP SWAP3 SWAP1 POP JUMP JUMPDEST PUSH1 0x0 DUP3 MLOAD PUSH1 0x0 JUMPDEST DUP2 DUP2 LT ISZERO PUSH3 0x39F JUMPI PUSH1 0x20 DUP2 DUP7 ADD DUP2 ADD MLOAD DUP6 DUP4 ADD MSTORE ADD PUSH3 0x383 JUMP JUMPDEST DUP2 DUP2 GT ISZERO PUSH3 0x3AF JUMPI PUSH1 0x0 DUP3 DUP6 ADD MSTORE JUMPDEST POP SWAP2 SWAP1 SWAP2 ADD SWAP3 SWAP2 POP POP JUMP JUMPDEST PUSH1 0x0 PUSH1 0x0 NOT DUP3 EQ ISZERO PUSH3 0x3DD JUMPI PUSH4 0x4E487B71 PUSH1 0xE0 SHL PUSH1 0x0 MSTORE PUSH1 0x11 PUSH1 0x4 MSTORE PUSH1 0x24 PUSH1 0x0 REVERT JUMPDEST POP PUSH1 0x1 ADD SWAP1 JUMP JUMPDEST PUSH4 0x4E487B71 PUSH1 0xE0 SHL PUSH1 0x0 MSTORE PUSH1 0x32 PUSH1 0x4 MSTORE PUSH1 0x24 PUSH1 0x0 REVERT JUMPDEST PUSH2 0x66D0 DUP1 PUSH3 0x40A PUSH1 0x0 CODECOPY PUSH1 0x0 RETURN INVALID PUSH1 0x80 PUSH1 0x40 MSTORE PUSH1 0x4 CALLDATASIZE LT PUSH2 0x1CD JUMPI PUSH1 0x0 CALLDATALOAD PUSH1 0xE0 SHR DUP1 PUSH4 0x759561FA GT PUSH2 0xF7 JUMPI DUP1 PUSH4 0xC9ADFFE2 GT PUSH2 0x95 JUMPI DUP1 PUSH4 0xEC96DFB4 GT PUSH2 0x64 JUMPI DUP1 PUSH4 0xEC96DFB4 EQ PUSH2 0x578 JUMPI DUP1 PUSH4 0xF2FDE38B EQ PUSH2 0x598 JUMPI DUP1 PUSH4 0xF464B576 EQ PUSH2 0x5B8 JUMPI DUP1 PUSH4 0xF55886DF EQ PUSH2 0x5D8 JUMPI PUSH1 0x0 DUP1 REVERT JUMPDEST DUP1 PUSH4 0xC9ADFFE2 EQ PUSH2 0x510 JUMPI DUP1 PUSH4 0xD0B49AF0 EQ PUSH2 0x530 JUMPI DUP1 PUSH4 0xE7572230 EQ PUSH2 0x543 JUMPI DUP1 PUSH4 0xEBBCA407 EQ PUSH2 0x563 JUMPI PUSH1 0x0 DUP1 REVERT JUMPDEST DUP1 PUSH4 0x8DA5CB5B GT PUSH2 0xD1 JUMPI DUP1 PUSH4 0x8DA5CB5B EQ PUSH2 0x488 JUMPI DUP1 PUSH4 0x935259A8 EQ PUSH2 0x4B0 JUMPI DUP1 PUSH4 0xA22AE631 EQ PUSH2 0x4D0 JUMPI DUP1 PUSH4 0xBB46BE98 EQ PUSH2 0x4F0 JUMPI PUSH1 0x0 DUP1 REVERT JUMPDEST DUP1 PUSH4 0x759561FA EQ PUSH2 0x3FC JUMPI DUP1 PUSH4 0x7FEFFFF3 EQ PUSH2 0x41C JUMPI DUP1 PUSH4 0x8595240B EQ PUSH2 0x431 JUMPI PUSH1 0x0 DUP1 REVERT JUMPDEST DUP1 PUSH4 0x2DB25E05 GT PUSH2 0x16F JUMPI DUP1 PUSH4 0x58727467 GT PUSH2 0x13E JUMPI DUP1 PUSH4 0x58727467 EQ PUSH2 0x387 JUMPI DUP1 PUSH4 0x61108C06 EQ PUSH2 0x3A7 JUMPI DUP1 PUSH4 0x6775CE04 EQ PUSH2 0x3C7 JUMPI DUP1 PUSH4 0x715018A6 EQ PUSH2 0x3E7 JUMPI PUSH1 0x0 DUP1 REVERT JUMPDEST DUP1 PUSH4 0x2DB25E05 EQ PUSH2 0x2E8 JUMPI DUP1 PUSH4 0x30F97699 EQ PUSH2 0x31C JUMPI DUP1 PUSH4 0x35341464 EQ PUSH2 0x352 JUMPI DUP1 PUSH4 0x45A06CB2 EQ PUSH2 0x372 JUMPI PUSH1 0x0 DUP1 REVERT JUMPDEST DUP1 PUSH4 0x9EC6CC7 GT PUSH2 0x1AB JUMPI DUP1 PUSH4 0x9EC6CC7 EQ PUSH2 0x24A JUMPI DUP1 PUSH4 0xBAF41A6 EQ PUSH2 0x26A JUMPI DUP1 PUSH4 0x1AF6649F EQ PUSH2 0x28A JUMPI DUP1 PUSH4 0x249CB3FA EQ PUSH2 0x2BA JUMPI PUSH1 0x0 DUP1 REVERT JUMPDEST DUP1 PUSH4 0x1374518 EQ PUSH2 0x1D2 JUMPI DUP1 PUSH4 0x1636F4E EQ PUSH2 0x208 JUMPI DUP1 PUSH4 0x2D2838B EQ PUSH2 0x22A JUMPI JUMPDEST PUSH1 0x0 DUP1 REVERT JUMPDEST CALLVALUE DUP1 ISZERO PUSH2 0x1DE JUMPI PUSH1 0x0 DUP1 REVERT JUMPDEST POP PUSH2 0x1F2 PUSH2 0x1ED CALLDATASIZE PUSH1 0x4 PUSH2 0x5B9C JUMP JUMPDEST PUSH2 0x5F8 JUMP JUMPDEST PUSH1 0x40 MLOAD PUSH2 0x1FF SWAP2 SWAP1 PUSH2 0x6263 JUMP JUMPDEST PUSH1 0x40 MLOAD DUP1 SWAP2 SUB SWAP1 RETURN JUMPDEST CALLVALUE DUP1 ISZERO PUSH2 0x214 JUMPI PUSH1 0x0 DUP1 REVERT JUMPDEST POP PUSH2 0x228 PUSH2 0x223 CALLDATASIZE PUSH1 0x4 PUSH2 0x5DDA JUMP JUMPDEST PUSH2 0x66E JUMP JUMPDEST STOP JUMPDEST CALLVALUE DUP1 ISZERO PUSH2 0x236 JUMPI PUSH1 0x0 DUP1 REVERT JUMPDEST POP PUSH2 0x228 PUSH2 0x245 CALLDATASIZE PUSH1 0x4 PUSH2 0x60DF JUMP JUMPDEST PUSH2 0x6E1 JUMP JUMPDEST CALLVALUE DUP1 ISZERO PUSH2 0x256 JUMPI PUSH1 0x0 DUP1 REVERT JUMPDEST POP PUSH2 0x228 PUSH2 0x265 CALLDATASIZE PUSH1 0x4 PUSH2 0x60DF JUMP JUMPDEST PUSH2 0x8BE JUMP JUMPDEST CALLVALUE DUP1 ISZERO PUSH2 0x276 JUMPI PUSH1 0x0 DUP1 REVERT JUMPDEST POP PUSH2 0x228 PUSH2 0x285 CALLDATASIZE PUSH1 0x4 PUSH2 0x5CF8 JUMP JUMPDEST PUSH2 0xD51 JUMP JUMPDEST CALLVALUE DUP1 ISZERO PUSH2 0x296 JUMPI PUSH1 0x0 DUP1 REVERT JUMPDEST POP PUSH2 0x2AA PUSH2 0x2A5 CALLDATASIZE PUSH1 0x4 PUSH2 0x5CBF JUMP JUMPDEST PUSH2 0xDB3 JUMP JUMPDEST PUSH1 0x40 MLOAD SWAP1 ISZERO ISZERO DUP2 MSTORE PUSH1 0x20 ADD PUSH2 0x1FF JUMP JUMPDEST CALLVALUE DUP1 ISZERO PUSH2 0x2C6 JUMPI PUSH1 0x0 DUP1 REVERT JUMPDEST POP PUSH2 0x2DA PUSH2 0x2D5 CALLDATASIZE PUSH1 0x4 PUSH2 0x5ED3 JUMP JUMPDEST PUSH2 0xDE3 JUMP JUMPDEST PUSH1 0x40 MLOAD SWAP1 DUP2 MSTORE PUSH1 0x20 ADD PUSH2 0x1FF JUMP JUMPDEST CALLVALUE DUP1 ISZERO PUSH2 0x2F4 JUMPI PUSH1 0x0 DUP1 REVERT JUMPDEST POP PUSH2 0x308 PUSH2 0x303 CALLDATASIZE PUSH1 0x4 PUSH2 0x60DF JUMP JUMPDEST PUSH2 0xE42 JUMP JUMPDEST PUSH1 0x40 MLOAD PUSH2 0x1FF SWAP9 SWAP8 SWAP7 SWAP6 SWAP5 SWAP4 SWAP3 SWAP2 SWAP1 PUSH2 0x617B JUMP JUMPDEST CALLVALUE DUP1 ISZERO PUSH2 0x328 JUMPI PUSH1 0x0 DUP1 REVERT JUMPDEST POP PUSH2 0x2DA PUSH2 0x337 CALLDATASIZE PUSH1 0x4 PUSH2 0x5B9C JUMP JUMPDEST PUSH1 0x1 PUSH1 0x1 PUSH1 0xA0 SHL SUB AND PUSH1 0x0 SWAP1 DUP2 MSTORE PUSH1 0xE PUSH1 0x20 MSTORE PUSH1 0x40 SWAP1 KECCAK256 SLOAD SWAP1 JUMP JUMPDEST CALLVALUE DUP1 ISZERO PUSH2 0x35E JUMPI PUSH1 0x0 DUP1 REVERT JUMPDEST POP PUSH2 0x2AA PUSH2 0x36D CALLDATASIZE PUSH1 0x4 PUSH2 0x60DF JUMP JUMPDEST PUSH2 0xFDB JUMP JUMPDEST CALLVALUE DUP1 ISZERO PUSH2 0x37E JUMPI PUSH1 0x0 DUP1 REVERT JUMPDEST POP PUSH2 0x1F2 PUSH2 0xFE6 JUMP JUMPDEST CALLVALUE DUP1 ISZERO PUSH2 0x393 JUMPI PUSH1 0x0 DUP1 REVERT JUMPDEST POP PUSH2 0x228 PUSH2 0x3A2 CALLDATASIZE PUSH1 0x4 PUSH2 0x5D89 JUMP JUMPDEST PUSH2 0x1048 JUMP JUMPDEST CALLVALUE DUP1 ISZERO PUSH2 0x3B3 JUMPI PUSH1 0x0 DUP1 REVERT JUMPDEST POP PUSH2 0x228 PUSH2 0x3C2 CALLDATASIZE PUSH1 0x4 PUSH2 0x60DF JUMP JUMPDEST PUSH2 0x12A8 JUMP JUMPDEST CALLVALUE DUP1 ISZERO PUSH2 0x3D3 JUMPI PUSH1 0x0 DUP1 REVERT JUMPDEST POP PUSH2 0x228 PUSH2 0x3E2 CALLDATASIZE PUSH1 0x4 PUSH2 0x60F8 JUMP JUMPDEST PUSH2 0x1766 JUMP JUMPDEST CALLVALUE DUP1 ISZERO PUSH2 0x3F3 JUMPI PUSH1 0x0 DUP1 REVERT JUMPDEST POP PUSH2 0x228 PUSH2 0x1C6D JUMP JUMPDEST CALLVALUE DUP1 ISZERO PUSH2 0x408 JUMPI PUSH1 0x0 DUP1 REVERT JUMPDEST POP PUSH2 0x1F2 PUSH2 0x417 CALLDATASIZE PUSH1 0x4 PUSH2 0x5B9C JUMP JUMPDEST PUSH2 0x1CAC JUMP JUMPDEST CALLVALUE DUP1 ISZERO PUSH2 0x428 JUMPI PUSH1 0x0 DUP1 REVERT JUMPDEST POP PUSH2 0x2AA PUSH2 0x1D20 JUMP JUMPDEST CALLVALUE DUP1 ISZERO PUSH2 0x43D JUMPI PUSH1 0x0 DUP1 REVERT JUMPDEST POP PUSH2 0x2DA PUSH2 0x44C CALLDATASIZE PUSH1 0x4 PUSH2 0x5D43 JUMP JUMPDEST PUSH1 0x1 PUSH1 0x1 PUSH1 0xA0 SHL SUB SWAP4 DUP5 AND PUSH1 0x0 SWAP1 DUP2 MSTORE PUSH1 0x8 PUSH1 0x20 SWAP1 DUP2 MSTORE PUSH1 0x40 DUP1 DUP4 KECCAK256 SWAP6 SWAP1 SWAP7 AND DUP3 MSTORE SWAP4 DUP5 MSTORE DUP5 DUP2 KECCAK256 SWAP3 DUP2 MSTORE SWAP2 DUP4 MSTORE DUP4 DUP3 KECCAK256 SWAP1 DUP3 MSTORE SWAP1 SWAP2 MSTORE KECCAK256 SLOAD SWAP1 JUMP JUMPDEST CALLVALUE DUP1 ISZERO PUSH2 0x494 JUMPI PUSH1 0x0 DUP1 REVERT JUMPDEST POP PUSH1 0x0 SLOAD PUSH1 0x40 MLOAD PUSH1 0x1 PUSH1 0x1 PUSH1 0xA0 SHL SUB SWAP1 SWAP2 AND DUP2 MSTORE PUSH1 0x20 ADD PUSH2 0x1FF JUMP JUMPDEST CALLVALUE DUP1 ISZERO PUSH2 0x4BC JUMPI PUSH1 0x0 DUP1 REVERT JUMPDEST POP PUSH2 0x2AA PUSH2 0x4CB CALLDATASIZE PUSH1 0x4 PUSH2 0x60DF JUMP JUMPDEST PUSH2 0x1E0C JUMP JUMPDEST CALLVALUE DUP1 ISZERO PUSH2 0x4DC JUMPI PUSH1 0x0 DUP1 REVERT JUMPDEST POP PUSH2 0x228 PUSH2 0x4EB CALLDATASIZE PUSH1 0x4 PUSH2 0x5E5B JUMP JUMPDEST PUSH2 0x1E17 JUMP JUMPDEST CALLVALUE DUP1 ISZERO PUSH2 0x4FC JUMPI PUSH1 0x0 DUP1 REVERT JUMPDEST POP PUSH2 0x228 PUSH2 0x50B CALLDATASIZE PUSH1 0x4 PUSH2 0x5FDB JUMP JUMPDEST PUSH2 0x1ED4 JUMP JUMPDEST CALLVALUE DUP1 ISZERO PUSH2 0x51C JUMPI PUSH1 0x0 DUP1 REVERT JUMPDEST POP PUSH2 0x228 PUSH2 0x52B CALLDATASIZE PUSH1 0x4 PUSH2 0x5E2F JUMP JUMPDEST PUSH2 0x2337 JUMP JUMPDEST PUSH2 0x228 PUSH2 0x53E CALLDATASIZE PUSH1 0x4 PUSH2 0x60C6 JUMP JUMPDEST PUSH2 0x23F9 JUMP JUMPDEST CALLVALUE DUP1 ISZERO PUSH2 0x54F JUMPI PUSH1 0x0 DUP1 REVERT JUMPDEST POP PUSH2 0x2DA PUSH2 0x55E CALLDATASIZE PUSH1 0x4 PUSH2 0x60DF JUMP JUMPDEST PUSH2 0x2571 JUMP JUMPDEST CALLVALUE DUP1 ISZERO PUSH2 0x56F JUMPI PUSH1 0x0 DUP1 REVERT JUMPDEST POP PUSH1 0x3 SLOAD PUSH2 0x2DA JUMP JUMPDEST CALLVALUE DUP1 ISZERO PUSH2 0x584 JUMPI PUSH1 0x0 DUP1 REVERT JUMPDEST POP PUSH2 0x228 PUSH2 0x593 CALLDATASIZE PUSH1 0x4 PUSH2 0x5DDA JUMP JUMPDEST PUSH2 0x257C JUMP JUMPDEST CALLVALUE DUP1 ISZERO PUSH2 0x5A4 JUMPI PUSH1 0x0 DUP1 REVERT JUMPDEST POP PUSH2 0x228 PUSH2 0x5B3 CALLDATASIZE PUSH1 0x4 PUSH2 0x5B9C JUMP JUMPDEST PUSH2 0x2689 JUMP JUMPDEST CALLVALUE DUP1 ISZERO PUSH2 0x5C4 JUMPI PUSH1 0x0 DUP1 REVERT JUMPDEST POP PUSH2 0x228 PUSH2 0x5D3 CALLDATASIZE PUSH1 0x4 PUSH2 0x5EF8 JUMP JUMPDEST PUSH2 0x2724 JUMP JUMPDEST CALLVALUE DUP1 ISZERO PUSH2 0x5E4 JUMPI PUSH1 0x0 DUP1 REVERT JUMPDEST POP PUSH2 0x2AA PUSH2 0x5F3 CALLDATASIZE PUSH1 0x4 PUSH2 0x5EF8 JUMP JUMPDEST PUSH2 0x2CEF JUMP JUMPDEST PUSH1 0x1 PUSH1 0x1 PUSH1 0xA0 SHL SUB DUP2 AND PUSH1 0x0 SWAP1 DUP2 MSTORE PUSH1 0x5 PUSH1 0x20 SWAP1 DUP2 MSTORE PUSH1 0x40 SWAP2 DUP3 SWAP1 KECCAK256 DUP1 SLOAD DUP4 MLOAD DUP2 DUP5 MUL DUP2 ADD DUP5 ADD SWAP1 SWAP5 MSTORE DUP1 DUP5 MSTORE PUSH1 0x60 SWAP4 SWAP3 DUP4 ADD DUP3 DUP3 DUP1 ISZERO PUSH2 0x662 JUMPI PUSH1 0x20 MUL DUP3 ADD SWAP2 SWAP1 PUSH1 0x0 MSTORE PUSH1 0x20 PUSH1 0x0 KECCAK256 SWAP1 JUMPDEST DUP2 SLOAD PUSH1 0x1 PUSH1 0x1 PUSH1 0xA0 SHL SUB AND DUP2 MSTORE PUSH1 0x1 SWAP1 SWAP2 ADD SWAP1 PUSH1 0x20 ADD DUP1 DUP4 GT PUSH2 0x644 JUMPI JUMPDEST POP POP POP POP POP SWAP1 POP SWAP2 SWAP1 POP JUMP JUMPDEST DUP3 PUSH2 0x679 DUP2 CALLER PUSH2 0x2DC2 JUMP JUMPDEST PUSH2 0x69E JUMPI PUSH1 0x40 MLOAD PUSH3 0x461BCD PUSH1 0xE5 SHL DUP2 MSTORE PUSH1 0x4 ADD PUSH2 0x695 SWAP1 PUSH2 0x6371 JUMP JUMPDEST PUSH1 0x40 MLOAD DUP1 SWAP2 SUB SWAP1 REVERT JUMPDEST PUSH2 0x6DB DUP5 DUP5 DUP5 DUP1 DUP1 PUSH1 0x20 MUL PUSH1 0x20 ADD PUSH1 0x40 MLOAD SWAP1 DUP2 ADD PUSH1 0x40 MSTORE DUP1 SWAP4 SWAP3 SWAP2 SWAP1 DUP2 DUP2 MSTORE PUSH1 0x20 ADD DUP4 DUP4 PUSH1 0x20 MUL DUP1 DUP3 DUP5 CALLDATACOPY PUSH1 0x0 SWAP3 ADD SWAP2 SWAP1 SWAP2 MSTORE POP PUSH2 0x2E80 SWAP3 POP POP POP JUMP JUMPDEST POP POP POP POP JUMP JUMPDEST PUSH1 0x0 DUP2 DUP2 MSTORE PUSH1 0x4 PUSH1 0x20 MSTORE PUSH1 0x40 SWAP1 KECCAK256 PUSH1 0x1 PUSH1 0x6 DUP3 ADD SLOAD PUSH3 0x10000 SWAP1 DIV PUSH1 0xFF AND PUSH1 0x4 DUP2 GT ISZERO PUSH2 0x710 JUMPI PUSH2 0x710 PUSH2 0x65DB JUMP JUMPDEST EQ PUSH2 0x72D JUMPI PUSH1 0x40 MLOAD PUSH3 0x461BCD PUSH1 0xE5 SHL DUP2 MSTORE PUSH1 0x4 ADD PUSH2 0x695 SWAP1 PUSH2 0x63A8 JUMP JUMPDEST PUSH1 0x2 DUP2 ADD SLOAD PUSH1 0x1 PUSH1 0x1 PUSH1 0xA0 SHL SUB AND ISZERO PUSH2 0x7C4 JUMPI PUSH1 0x2 DUP2 ADD SLOAD PUSH1 0x1 PUSH1 0x1 PUSH1 0xA0 SHL SUB AND CALLER EQ PUSH2 0x7C4 JUMPI PUSH1 0x40 DUP1 MLOAD PUSH3 0x461BCD PUSH1 0xE5 SHL DUP2 MSTORE PUSH1 0x20 PUSH1 0x4 DUP3 ADD MSTORE PUSH1 0x24 DUP2 ADD SWAP2 SWAP1 SWAP2 MSTORE PUSH32 0x54726164652063616E206F6E6C79206265206578656375746564206279206578 PUSH1 0x44 DUP3 ADD MSTORE PUSH32 0x65637574657220646566696E6564206174207472616465206372656174696F6E PUSH1 0x64 DUP3 ADD MSTORE PUSH1 0x84 ADD PUSH2 0x695 JUMP JUMPDEST PUSH2 0x7CD DUP3 PUSH2 0x2FCB JUMP JUMPDEST PUSH2 0x836 JUMPI PUSH1 0x40 MLOAD PUSH3 0x461BCD PUSH1 0xE5 SHL DUP2 MSTORE PUSH1 0x20 PUSH1 0x4 DUP3 ADD MSTORE PUSH1 0x34 PUSH1 0x24 DUP3 ADD MSTORE PUSH32 0x547261646520686173206E6F74206265656E2061636365707465642062792061 PUSH1 0x44 DUP3 ADD MSTORE PUSH20 0x1B1B081D1BDAD95B881A1BDB19195C9CC81E595D PUSH1 0x62 SHL PUSH1 0x64 DUP3 ADD MSTORE PUSH1 0x84 ADD PUSH2 0x695 JUMP JUMPDEST PUSH2 0x83F DUP3 PUSH2 0x3276 JUMP JUMPDEST PUSH2 0x8B1 JUMPI PUSH1 0x40 MLOAD PUSH3 0x461BCD PUSH1 0xE5 SHL DUP2 MSTORE PUSH1 0x20 PUSH1 0x4 DUP3 ADD MSTORE PUSH1 0x38 PUSH1 0x24 DUP3 ADD MSTORE PUSH32 0x547261646520686173206E6F74206265656E20617070726F7665642062792061 PUSH1 0x44 DUP3 ADD MSTORE PUSH32 0x6C6C20746F6B656E20636F6E74726F6C6C657273207965740000000000000000 PUSH1 0x64 DUP3 ADD MSTORE PUSH1 0x84 ADD PUSH2 0x695 JUMP JUMPDEST PUSH2 0x8BA DUP3 PUSH2 0x345A JUMP JUMPDEST POP POP JUMP JUMPDEST PUSH1 0x0 DUP2 DUP2 MSTORE PUSH1 0x4 PUSH1 0x20 MSTORE PUSH1 0x40 SWAP1 KECCAK256 PUSH1 0x1 PUSH1 0x6 DUP3 ADD SLOAD PUSH3 0x10000 SWAP1 DIV PUSH1 0xFF AND PUSH1 0x4 DUP2 GT ISZERO PUSH2 0x8ED JUMPI PUSH2 0x8ED PUSH2 0x65DB JUMP JUMPDEST EQ PUSH2 0x90A JUMPI PUSH1 0x40 MLOAD PUSH3 0x461BCD PUSH1 0xE5 SHL DUP2 MSTORE PUSH1 0x4 ADD PUSH2 0x695 SWAP1 PUSH2 0x63A8 JUMP JUMPDEST PUSH1 0x0 DUP1 DUP3 PUSH1 0x4 ADD DUP1 SLOAD PUSH2 0x91C SWAP1 PUSH2 0x6575 JUMP JUMPDEST DUP1 PUSH1 0x1F ADD PUSH1 0x20 DUP1 SWAP2 DIV MUL PUSH1 0x20 ADD PUSH1 0x40 MLOAD SWAP1 DUP2 ADD PUSH1 0x40 MSTORE DUP1 SWAP3 SWAP2 SWAP1 DUP2 DUP2 MSTORE PUSH1 0x20 ADD DUP3 DUP1 SLOAD PUSH2 0x948 SWAP1 PUSH2 0x6575 JUMP JUMPDEST DUP1 ISZERO PUSH2 0x995 JUMPI DUP1 PUSH1 0x1F LT PUSH2 0x96A JUMPI PUSH2 0x100 DUP1 DUP4 SLOAD DIV MUL DUP4 MSTORE SWAP2 PUSH1 0x20 ADD SWAP2 PUSH2 0x995 JUMP JUMPDEST DUP3 ADD SWAP2 SWAP1 PUSH1 0x0 MSTORE PUSH1 0x20 PUSH1 0x0 KECCAK256 SWAP1 JUMPDEST DUP2 SLOAD DUP2 MSTORE SWAP1 PUSH1 0x1 ADD SWAP1 PUSH1 0x20 ADD DUP1 DUP4 GT PUSH2 0x978 JUMPI DUP3 SWAP1 SUB PUSH1 0x1F AND DUP3 ADD SWAP2 JUMPDEST POP POP POP POP POP DUP1 PUSH1 0x20 ADD SWAP1 MLOAD DUP2 ADD SWAP1 PUSH2 0x9AD SWAP2 SWAP1 PUSH2 0x5C4B JUMP JUMPDEST POP SWAP5 POP POP POP SWAP3 POP POP PUSH1 0x0 DUP1 DUP5 PUSH1 0x5 ADD DUP1 SLOAD PUSH2 0x9C7 SWAP1 PUSH2 0x6575 JUMP JUMPDEST DUP1 PUSH1 0x1F ADD PUSH1 0x20 DUP1 SWAP2 DIV MUL PUSH1 0x20 ADD PUSH1 0x40 MLOAD SWAP1 DUP2 ADD PUSH1 0x40 MSTORE DUP1 SWAP3 SWAP2 SWAP1 DUP2 DUP2 MSTORE PUSH1 0x20 ADD DUP3 DUP1 SLOAD PUSH2 0x9F3 SWAP1 PUSH2 0x6575 JUMP JUMPDEST DUP1 ISZERO PUSH2 0xA40 JUMPI DUP1 PUSH1 0x1F LT PUSH2 0xA15 JUMPI PUSH2 0x100 DUP1 DUP4 SLOAD DIV MUL DUP4 MSTORE SWAP2 PUSH1 0x20 ADD SWAP2 PUSH2 0xA40 JUMP JUMPDEST DUP3 ADD SWAP2 SWAP1 PUSH1 0x0 MSTORE PUSH1 0x20 PUSH1 0x0 KECCAK256 SWAP1 JUMPDEST DUP2 SLOAD DUP2 MSTORE SWAP1 PUSH1 0x1 ADD SWAP1 PUSH1 0x20 ADD DUP1 DUP4 GT PUSH2 0xA23 JUMPI DUP3 SWAP1 SUB PUSH1 0x1F AND DUP3 ADD SWAP2 JUMPDEST POP POP POP POP POP DUP1 PUSH1 0x20 ADD SWAP1 MLOAD DUP2 ADD SWAP1 PUSH2 0xA58 SWAP2 SWAP1 PUSH2 0x5C4B JUMP JUMPDEST POP SWAP5 POP POP POP SWAP3 POP POP DUP3 DUP1 ISZERO PUSH2 0xA6A JUMPI POP DUP1 JUMPDEST ISZERO PUSH2 0xB46 JUMPI PUSH1 0x2 DUP6 ADD SLOAD PUSH1 0x1 PUSH1 0x1 PUSH1 0xA0 SHL SUB AND CALLER EQ DUP1 PUSH2 0xAB8 JUMPI POP DUP5 PUSH1 0x3 ADD SLOAD TIMESTAMP LT ISZERO DUP1 ISZERO PUSH2 0xAB8 JUMPI POP DUP5 SLOAD PUSH1 0x1 PUSH1 0x1 PUSH1 0xA0 SHL SUB AND CALLER EQ DUP1 PUSH2 0xAB8 JUMPI POP PUSH1 0x1 DUP6 ADD SLOAD PUSH1 0x1 PUSH1 0x1 PUSH1 0xA0 SHL SUB AND CALLER EQ JUMPDEST PUSH2 0xB04 JUMPI PUSH1 0x40 MLOAD PUSH3 0x461BCD PUSH1 0xE5 SHL DUP2 MSTORE PUSH1 0x20 PUSH1 0x4 DUP3 ADD MSTORE PUSH1 0x29 PUSH1 0x24 DUP3 ADD MSTORE PUSH1 0x0 DUP1 MLOAD PUSH1 0x20 PUSH2 0x667B DUP4 CODECOPY DUP2 MLOAD SWAP2 MSTORE PUSH1 0x44 DUP3 ADD MSTORE PUSH9 0x747261646520283029 PUSH1 0xB8 SHL PUSH1 0x64 DUP3 ADD MSTORE PUSH1 0x84 ADD PUSH2 0x695 JUMP JUMPDEST PUSH1 0x0 PUSH1 0x6 DUP7 ADD SLOAD PUSH1 0xFF AND PUSH1 0x1 DUP2 GT ISZERO PUSH2 0xB1F JUMPI PUSH2 0xB1F PUSH2 0x65DB JUMP JUMPDEST EQ ISZERO PUSH2 0xB41 JUMPI PUSH2 0xB33 DUP7 PUSH1 0x0 DUP7 PUSH1 0x1 PUSH2 0x36C3 JUMP JUMPDEST PUSH2 0xB41 DUP7 PUSH1 0x1 DUP5 PUSH1 0x1 PUSH2 0x36C3 JUMP JUMPDEST PUSH2 0xD38 JUMP JUMPDEST DUP3 ISZERO PUSH2 0xBFA JUMPI PUSH1 0x2 DUP6 ADD SLOAD PUSH1 0x1 PUSH1 0x1 PUSH1 0xA0 SHL SUB AND CALLER EQ DUP1 PUSH2 0xB7F JUMPI POP DUP5 PUSH1 0x3 ADD SLOAD TIMESTAMP LT ISZERO DUP1 ISZERO PUSH2 0xB7F JUMPI POP DUP5 SLOAD PUSH1 0x1 PUSH1 0x1 PUSH1 0xA0 SHL SUB AND CALLER EQ JUMPDEST PUSH2 0xBCB JUMPI PUSH1 0x40 MLOAD PUSH3 0x461BCD PUSH1 0xE5 SHL DUP2 MSTORE PUSH1 0x20 PUSH1 0x4 DUP3 ADD MSTORE PUSH1 0x29 PUSH1 0x24 DUP3 ADD MSTORE PUSH1 0x0 DUP1 MLOAD PUSH1 0x20 PUSH2 0x667B DUP4 CODECOPY DUP2 MLOAD SWAP2 MSTORE PUSH1 0x44 DUP3 ADD MSTORE PUSH9 0x747261646520283129 PUSH1 0xB8 SHL PUSH1 0x64 DUP3 ADD MSTORE PUSH1 0x84 ADD PUSH2 0x695 JUMP JUMPDEST PUSH1 0x0 PUSH1 0x6 DUP7 ADD SLOAD PUSH1 0xFF AND PUSH1 0x1 DUP2 GT ISZERO PUSH2 0xBE6 JUMPI PUSH2 0xBE6 PUSH2 0x65DB JUMP JUMPDEST EQ ISZERO PUSH2 0xB41 JUMPI PUSH2 0xB41 DUP7 PUSH1 0x0 DUP7 PUSH1 0x1 PUSH2 0x36C3 JUMP JUMPDEST DUP1 ISZERO PUSH2 0xCB1 JUMPI PUSH1 0x2 DUP6 ADD SLOAD PUSH1 0x1 PUSH1 0x1 PUSH1 0xA0 SHL SUB AND CALLER EQ DUP1 PUSH2 0xC36 JUMPI POP DUP5 PUSH1 0x3 ADD SLOAD TIMESTAMP LT ISZERO DUP1 ISZERO PUSH2 0xC36 JUMPI POP PUSH1 0x1 DUP6 ADD SLOAD PUSH1 0x1 PUSH1 0x1 PUSH1 0xA0 SHL SUB AND CALLER EQ JUMPDEST PUSH2 0xC82 JUMPI PUSH1 0x40 MLOAD PUSH3 0x461BCD PUSH1 0xE5 SHL DUP2 MSTORE PUSH1 0x20 PUSH1 0x4 DUP3 ADD MSTORE PUSH1 0x29 PUSH1 0x24 DUP3 ADD MSTORE PUSH1 0x0 DUP1 MLOAD PUSH1 0x20 PUSH2 0x667B DUP4 CODECOPY DUP2 MLOAD SWAP2 MSTORE PUSH1 0x44 DUP3 ADD MSTORE PUSH9 0x747261646520283229 PUSH1 0xB8 SHL PUSH1 0x64 DUP3 ADD MSTORE PUSH1 0x84 ADD PUSH2 0x695 JUMP JUMPDEST PUSH1 0x0 PUSH1 0x6 DUP7 ADD SLOAD PUSH1 0xFF AND PUSH1 0x1 DUP2 GT ISZERO PUSH2 0xC9D JUMPI PUSH2 0xC9D PUSH2 0x65DB JUMP JUMPDEST EQ ISZERO PUSH2 0xB41 JUMPI PUSH2 0xB41 DUP7 PUSH1 0x1 DUP5 PUSH1 0x1 PUSH2 0x36C3 JUMP JUMPDEST PUSH1 0x2 DUP6 ADD SLOAD PUSH1 0x1 PUSH1 0x1 PUSH1 0xA0 SHL SUB AND CALLER EQ DUP1 PUSH2 0xCD5 JUMPI POP DUP5 SLOAD PUSH1 0x1 PUSH1 0x1 PUSH1 0xA0 SHL SUB AND CALLER EQ JUMPDEST DUP1 PUSH2 0xCEC JUMPI POP PUSH1 0x1 DUP6 ADD SLOAD PUSH1 0x1 PUSH1 0x1 PUSH1 0xA0 SHL SUB AND CALLER EQ JUMPDEST PUSH2 0xD38 JUMPI PUSH1 0x40 MLOAD PUSH3 0x461BCD PUSH1 0xE5 SHL DUP2 MSTORE PUSH1 0x20 PUSH1 0x4 DUP3 ADD MSTORE PUSH1 0x29 PUSH1 0x24 DUP3 ADD MSTORE PUSH1 0x0 DUP1 MLOAD PUSH1 0x20 PUSH2 0x667B DUP4 CODECOPY DUP2 MLOAD SWAP2 MSTORE PUSH1 0x44 DUP3 ADD MSTORE PUSH9 0x747261646520283329 PUSH1 0xB8 SHL PUSH1 0x64 DUP3 ADD MSTORE PUSH1 0x84 ADD PUSH2 0x695 JUMP JUMPDEST POP POP POP POP PUSH1 0x6 ADD DUP1 SLOAD PUSH3 0xFF0000 NOT AND PUSH3 0x40000 OR SWAP1 SSTORE POP JUMP JUMPDEST DUP3 PUSH2 0xD5C DUP2 CALLER PUSH2 0x2DC2 JUMP JUMPDEST PUSH2 0xD78 JUMPI PUSH1 0x40 MLOAD PUSH3 0x461BCD PUSH1 0xE5 SHL DUP2 MSTORE PUSH1 0x4 ADD PUSH2 0x695 SWAP1 PUSH2 0x6371 JUMP JUMPDEST POP PUSH1 0x1 PUSH1 0x1 PUSH1 0xA0 SHL SUB SWAP3 DUP4 AND PUSH1 0x0 SWAP1 DUP2 MSTORE PUSH1 0x7 PUSH1 0x20 SWAP1 DUP2 MSTORE PUSH1 0x40 DUP1 DUP4 KECCAK256 SWAP5 SWAP1 SWAP6 AND DUP3 MSTORE SWAP3 SWAP1 SWAP3 MSTORE SWAP2 SWAP1 KECCAK256 DUP1 SLOAD PUSH1 0xFF NOT AND SWAP2 ISZERO ISZERO SWAP2 SWAP1 SWAP2 OR SWAP1 SSTORE JUMP JUMPDEST PUSH1 0x1 PUSH1 0x1 PUSH1 0xA0 SHL SUB DUP1 DUP4 AND PUSH1 0x0 SWAP1 DUP2 MSTORE PUSH1 0x7 PUSH1 0x20 SWAP1 DUP2 MSTORE PUSH1 0x40 DUP1 DUP4 KECCAK256 SWAP4 DUP6 AND DUP4 MSTORE SWAP3 SWAP1 MSTORE KECCAK256 SLOAD PUSH1 0xFF AND JUMPDEST SWAP3 SWAP2 POP POP JUMP JUMPDEST PUSH1 0x0 DUP3 DUP2 MSTORE PUSH1 0x2 PUSH1 0x20 MSTORE PUSH1 0x40 DUP2 KECCAK256 SLOAD PUSH1 0xFF AND ISZERO PUSH2 0xE3A JUMPI PUSH1 0x40 MLOAD PUSH20 0x455243313832305F4143434550545F4D41474943 PUSH1 0x60 SHL PUSH1 0x20 DUP3 ADD MSTORE PUSH1 0x34 ADD PUSH1 0x40 MLOAD PUSH1 0x20 DUP2 DUP4 SUB SUB DUP2 MSTORE SWAP1 PUSH1 0x40 MSTORE DUP1 MLOAD SWAP1 PUSH1 0x20 ADD KECCAK256 SWAP1 POP PUSH2 0xDDD JUMP JUMPDEST POP PUSH1 0x0 PUSH2 0xDDD JUMP JUMPDEST PUSH1 0x0 DUP2 DUP2 MSTORE PUSH1 0x4 PUSH1 0x20 DUP2 SWAP1 MSTORE PUSH1 0x40 DUP3 KECCAK256 DUP1 SLOAD PUSH1 0x1 DUP3 ADD SLOAD PUSH1 0x2 DUP4 ADD SLOAD PUSH1 0x3 DUP5 ADD SLOAD PUSH1 0x6 DUP6 ADD SLOAD SWAP6 DUP6 ADD DUP1 SLOAD DUP9 SWAP8 DUP9 SWAP8 DUP9 SWAP8 PUSH1 0x60 SWAP8 DUP9 SWAP8 DUP11 SWAP8 DUP9 SWAP8 SWAP5 SWAP7 PUSH1 0x1 PUSH1 0x1 PUSH1 0xA0 SHL SUB SWAP5 DUP6 AND SWAP7 SWAP4 DUP6 AND SWAP6 SWAP3 SWAP1 SWAP5 AND SWAP4 SWAP1 SWAP3 PUSH1 0x5 DUP9 ADD SWAP2 PUSH1 0xFF DUP1 DUP4 AND SWAP3 PUSH3 0x10000 SWAP1 DIV AND SWAP1 DUP5 SWAP1 PUSH2 0xEB3 SWAP1 PUSH2 0x6575 JUMP JUMPDEST DUP1 PUSH1 0x1F ADD PUSH1 0x20 DUP1 SWAP2 DIV MUL PUSH1 0x20 ADD PUSH1 0x40 MLOAD SWAP1 DUP2 ADD PUSH1 0x40 MSTORE DUP1 SWAP3 SWAP2 SWAP1 DUP2 DUP2 MSTORE PUSH1 0x20 ADD DUP3 DUP1 SLOAD PUSH2 0xEDF SWAP1 PUSH2 0x6575 JUMP JUMPDEST DUP1 ISZERO PUSH2 0xF2C JUMPI DUP1 PUSH1 0x1F LT PUSH2 0xF01 JUMPI PUSH2 0x100 DUP1 DUP4 SLOAD DIV MUL DUP4 MSTORE SWAP2 PUSH1 0x20 ADD SWAP2 PUSH2 0xF2C JUMP JUMPDEST DUP3 ADD SWAP2 SWAP1 PUSH1 0x0 MSTORE PUSH1 0x20 PUSH1 0x0 KECCAK256 SWAP1 JUMPDEST DUP2 SLOAD DUP2 MSTORE SWAP1 PUSH1 0x1 ADD SWAP1 PUSH1 0x20 ADD DUP1 DUP4 GT PUSH2 0xF0F JUMPI DUP3 SWAP1 SUB PUSH1 0x1F AND DUP3 ADD SWAP2 JUMPDEST POP POP POP POP POP SWAP4 POP DUP3 DUP1 SLOAD PUSH2 0xF3F SWAP1 PUSH2 0x6575 JUMP JUMPDEST DUP1 PUSH1 0x1F ADD PUSH1 0x20 DUP1 SWAP2 DIV MUL PUSH1 0x20 ADD PUSH1 0x40 MLOAD SWAP1 DUP2 ADD PUSH1 0x40 MSTORE DUP1 SWAP3 SWAP2 SWAP1 DUP2 DUP2 MSTORE PUSH1 0x20 ADD DUP3 DUP1 SLOAD PUSH2 0xF6B SWAP1 PUSH2 0x6575 JUMP JUMPDEST DUP1 ISZERO PUSH2 0xFB8 JUMPI DUP1 PUSH1 0x1F LT PUSH2 0xF8D JUMPI PUSH2 0x100 DUP1 DUP4 SLOAD DIV MUL DUP4 MSTORE SWAP2 PUSH1 0x20 ADD SWAP2 PUSH2 0xFB8 JUMP JUMPDEST DUP3 ADD SWAP2 SWAP1 PUSH1 0x0 MSTORE PUSH1 0x20 PUSH1 0x0 KECCAK256 SWAP1 JUMPDEST DUP2 SLOAD DUP2 MSTORE SWAP1 PUSH1 0x1 ADD SWAP1 PUSH1 0x20 ADD DUP1 DUP4 GT PUSH2 0xF9B JUMPI DUP3 SWAP1 SUB PUSH1 0x1F AND DUP3 ADD SWAP2 JUMPDEST POP POP POP POP POP SWAP3 POP SWAP9 POP SWAP9 POP SWAP9 POP SWAP9 POP SWAP9 POP SWAP9 POP SWAP9 POP SWAP9 POP POP SWAP2 SWAP4 SWAP6 SWAP8 POP SWAP2 SWAP4 SWAP6 SWAP8 JUMP JUMPDEST PUSH1 0x0 PUSH2 0xDDD DUP3 PUSH2 0x2FCB JUMP JUMPDEST PUSH1 0x60 PUSH1 0xA DUP1 SLOAD DUP1 PUSH1 0x20 MUL PUSH1 0x20 ADD PUSH1 0x40 MLOAD SWAP1 DUP2 ADD PUSH1 0x40 MSTORE DUP1 SWAP3 SWAP2 SWAP1 DUP2 DUP2 MSTORE PUSH1 0x20 ADD DUP3 DUP1 SLOAD DUP1 ISZERO PUSH2 0x103E JUMPI PUSH1 0x20 MUL DUP3 ADD SWAP2 SWAP1 PUSH1 0x0 MSTORE PUSH1 0x20 PUSH1 0x0 KECCAK256 SWAP1 JUMPDEST DUP2 SLOAD PUSH1 0x1 PUSH1 0x1 PUSH1 0xA0 SHL SUB AND DUP2 MSTORE PUSH1 0x1 SWAP1 SWAP2 ADD SWAP1 PUSH1 0x20 ADD DUP1 DUP4 GT PUSH2 0x1020 JUMPI JUMPDEST POP POP POP POP POP SWAP1 POP SWAP1 JUMP JUMPDEST PUSH1 0x1 PUSH1 0x1 PUSH1 0xA0 SHL SUB DUP1 DUP7 AND PUSH1 0x0 SWAP1 DUP2 MSTORE PUSH1 0x7 PUSH1 0x20 SWAP1 DUP2 MSTORE PUSH1 0x40 DUP1 DUP4 KECCAK256 SWAP4 DUP9 AND DUP4 MSTORE SWAP3 SWAP1 MSTORE KECCAK256 SLOAD PUSH1 0xFF AND DUP1 ISZERO PUSH2 0x10A2 JUMPI POP PUSH1 0x1 PUSH1 0x1 PUSH1 0xA0 SHL SUB DUP1 DUP6 AND PUSH1 0x0 SWAP1 DUP2 MSTORE PUSH1 0x7 PUSH1 0x20 SWAP1 DUP2 MSTORE PUSH1 0x40 DUP1 DUP4 KECCAK256 SWAP4 DUP10 AND DUP4 MSTORE SWAP3 SWAP1 MSTORE KECCAK256 SLOAD PUSH1 0xFF AND JUMPDEST ISZERO PUSH2 0x10EF JUMPI PUSH1 0x40 MLOAD PUSH3 0x461BCD PUSH1 0xE5 SHL DUP2 MSTORE PUSH1 0x20 PUSH1 0x4 DUP3 ADD MSTORE PUSH1 0x1E PUSH1 0x24 DUP3 ADD MSTORE PUSH32 0x436F6D7065746974696F6E206F6E207072696365206F776E6572736869700000 PUSH1 0x44 DUP3 ADD MSTORE PUSH1 0x64 ADD PUSH2 0x695 JUMP JUMPDEST PUSH1 0x1 PUSH1 0x1 PUSH1 0xA0 SHL SUB DUP1 DUP7 AND PUSH1 0x0 SWAP1 DUP2 MSTORE PUSH1 0x7 PUSH1 0x20 SWAP1 DUP2 MSTORE PUSH1 0x40 DUP1 DUP4 KECCAK256 SWAP4 DUP9 AND DUP4 MSTORE SWAP3 SWAP1 MSTORE KECCAK256 SLOAD PUSH1 0xFF AND ISZERO PUSH2 0x1191 JUMPI PUSH2 0x1127 DUP6 CALLER PUSH2 0x2DC2 JUMP JUMPDEST PUSH2 0x118C JUMPI PUSH1 0x40 MLOAD PUSH3 0x461BCD PUSH1 0xE5 SHL DUP2 MSTORE PUSH1 0x20 PUSH1 0x4 DUP3 ADD MSTORE PUSH1 0x30 PUSH1 0x24 DUP3 ADD MSTORE PUSH32 0x507269636520736574746572206973206E6F7420616E206F7261636C6520666F PUSH1 0x44 DUP3 ADD MSTORE PUSH16 0x72207468697320746F6B656E20283129 PUSH1 0x80 SHL PUSH1 0x64 DUP3 ADD MSTORE PUSH1 0x84 ADD PUSH2 0x695 JUMP JUMPDEST PUSH2 0x126B JUMP JUMPDEST PUSH1 0x1 PUSH1 0x1 PUSH1 0xA0 SHL SUB DUP1 DUP6 AND PUSH1 0x0 SWAP1 DUP2 MSTORE PUSH1 0x7 PUSH1 0x20 SWAP1 DUP2 MSTORE PUSH1 0x40 DUP1 DUP4 KECCAK256 SWAP4 DUP10 AND DUP4 MSTORE SWAP3 SWAP1 MSTORE KECCAK256 SLOAD PUSH1 0xFF AND ISZERO PUSH2 0x122E JUMPI PUSH2 0x11C9 DUP5 CALLER PUSH2 0x2DC2 JUMP JUMPDEST PUSH2 0x118C JUMPI PUSH1 0x40 MLOAD PUSH3 0x461BCD PUSH1 0xE5 SHL DUP2 MSTORE PUSH1 0x20 PUSH1 0x4 DUP3 ADD MSTORE PUSH1 0x30 PUSH1 0x24 DUP3 ADD MSTORE PUSH32 0x507269636520736574746572206973206E6F7420616E206F7261636C6520666F PUSH1 0x44 DUP3 ADD MSTORE PUSH16 0x72207468697320746F6B656E20283229 PUSH1 0x80 SHL PUSH1 0x64 DUP3 ADD MSTORE PUSH1 0x84 ADD PUSH2 0x695 JUMP JUMPDEST PUSH1 0x40 MLOAD PUSH3 0x461BCD PUSH1 0xE5 SHL DUP2 MSTORE PUSH1 0x20 PUSH1 0x4 DUP3 ADD MSTORE PUSH1 0x12 PUSH1 0x24 DUP3 ADD MSTORE PUSH18 0x4E6F207072696365206F776E65727368697 PUSH1 0x74 SHL PUSH1 0x44 DUP3 ADD MSTORE PUSH1 0x64 ADD PUSH2 0x695 JUMP JUMPDEST PUSH1 0x1 PUSH1 0x1 PUSH1 0xA0 SHL SUB SWAP5 DUP6 AND PUSH1 0x0 SWAP1 DUP2 MSTORE PUSH1 0x8 PUSH1 0x20 SWAP1 DUP2 MSTORE PUSH1 0x40 DUP1 DUP4 KECCAK256 SWAP7 SWAP1 SWAP8 AND DUP3 MSTORE SWAP5 DUP6 MSTORE DUP6 DUP2 KECCAK256 SWAP4 DUP2 MSTORE SWAP3 DUP5 MSTORE DUP5 DUP4 KECCAK256 SWAP2 DUP4 MSTORE SWAP3 MSTORE SWAP2 SWAP1 SWAP2 KECCAK256 SSTORE JUMP JUMPDEST PUSH1 0x0 DUP2 DUP2 MSTORE PUSH1 0x4 PUSH1 0x20 MSTORE PUSH1 0x40 SWAP1 KECCAK256 PUSH1 0x1 PUSH1 0x6 DUP3 ADD SLOAD PUSH3 0x10000 SWAP1 DIV PUSH1 0xFF AND PUSH1 0x4 DUP2 GT ISZERO PUSH2 0x12D7 JUMPI PUSH2 0x12D7 PUSH2 0x65DB JUMP JUMPDEST EQ PUSH2 0x12F4 JUMPI PUSH1 0x40 MLOAD PUSH3 0x461BCD PUSH1 0xE5 SHL DUP2 MSTORE PUSH1 0x4 ADD PUSH2 0x695 SWAP1 PUSH2 0x63A8 JUMP JUMPDEST PUSH1 0x0 DUP1 PUSH1 0x0 DUP4 PUSH1 0x4 ADD DUP1 SLOAD PUSH2 0x1308 SWAP1 PUSH2 0x6575 JUMP JUMPDEST DUP1 PUSH1 0x1F ADD PUSH1 0x20 DUP1 SWAP2 DIV MUL PUSH1 0x20 ADD PUSH1 0x40 MLOAD SWAP1 DUP2 ADD PUSH1 0x40 MSTORE DUP1 SWAP3 SWAP2 SWAP1 DUP2 DUP2 MSTORE PUSH1 0x20 ADD DUP3 DUP1 SLOAD PUSH2 0x1334 SWAP1 PUSH2 0x6575 JUMP JUMPDEST DUP1 ISZERO PUSH2 0x1381 JUMPI DUP1 PUSH1 0x1F LT PUSH2 0x1356 JUMPI PUSH2 0x100 DUP1 DUP4 SLOAD DIV MUL DUP4 MSTORE SWAP2 PUSH1 0x20 ADD SWAP2 PUSH2 0x1381 JUMP JUMPDEST DUP3 ADD SWAP2 SWAP1 PUSH1 0x0 MSTORE PUSH1 0x20 PUSH1 0x0 KECCAK256 SWAP1 JUMPDEST DUP2 SLOAD DUP2 MSTORE SWAP1 PUSH1 0x1 ADD SWAP1 PUSH1 0x20 ADD DUP1 DUP4 GT PUSH2 0x1364 JUMPI DUP3 SWAP1 SUB PUSH1 0x1F AND DUP3 ADD SWAP2 JUMPDEST POP POP POP POP POP DUP1 PUSH1 0x20 ADD SWAP1 MLOAD DUP2 ADD SWAP1 PUSH2 0x1399 SWAP2 SWAP1 PUSH2 0x5C4B JUMP JUMPDEST POP SWAP5 POP POP POP SWAP3 POP SWAP3 POP PUSH1 0x0 DUP1 PUSH1 0x0 DUP7 PUSH1 0x5 ADD DUP1 SLOAD PUSH2 0x13B6 SWAP1 PUSH2 0x6575 JUMP JUMPDEST DUP1 PUSH1 0x1F ADD PUSH1 0x20 DUP1 SWAP2 DIV MUL PUSH1 0x20 ADD PUSH1 0x40 MLOAD SWAP1 DUP2 ADD PUSH1 0x40 MSTORE DUP1 SWAP3 SWAP2 SWAP1 DUP2 DUP2 MSTORE PUSH1 0x20 ADD DUP3 DUP1 SLOAD PUSH2 0x13E2 SWAP1 PUSH2 0x6575 JUMP JUMPDEST DUP1 ISZERO PUSH2 0x142F JUMPI DUP1 PUSH1 0x1F LT PUSH2 0x1404 JUMPI PUSH2 0x100 DUP1 DUP4 SLOAD DIV MUL DUP4 MSTORE SWAP2 PUSH1 0x20 ADD SWAP2 PUSH2 0x142F JUMP JUMPDEST DUP3 ADD SWAP2 SWAP1 PUSH1 0x0 MSTORE PUSH1 0x20 PUSH1 0x0 KECCAK256 SWAP1 JUMPDEST DUP2 SLOAD DUP2 MSTORE SWAP1 PUSH1 0x1 ADD SWAP1 PUSH1 0x20 ADD DUP1 DUP4 GT PUSH2 0x1412 JUMPI DUP3 SWAP1 SUB PUSH1 0x1F AND DUP3 ADD SWAP2 JUMPDEST POP POP POP POP POP DUP1 PUSH1 0x20 ADD SWAP1 MLOAD DUP2 ADD SWAP1 PUSH2 0x1447 SWAP2 SWAP1 PUSH2 0x5C4B JUMP JUMPDEST POP SWAP5 POP POP POP SWAP3 POP SWAP3 POP DUP4 DUP1 ISZERO PUSH2 0x145A JUMPI POP DUP1 JUMPDEST ISZERO PUSH2 0x14A7 JUMPI PUSH1 0x40 MLOAD PUSH3 0x461BCD PUSH1 0xE5 SHL DUP2 MSTORE PUSH1 0x20 PUSH1 0x4 DUP3 ADD MSTORE PUSH1 0x1A PUSH1 0x24 DUP3 ADD MSTORE PUSH32 0x6578656375746554726164652063616E2062652063616C6C6564000000000000 PUSH1 0x44 DUP3 ADD MSTORE PUSH1 0x64 ADD PUSH2 0x695 JUMP JUMPDEST PUSH1 0x1 PUSH1 0x1 PUSH1 0xA0 SHL SUB DUP7 AND PUSH1 0x0 SWAP1 DUP2 MSTORE PUSH1 0xC PUSH1 0x20 MSTORE PUSH1 0x40 SWAP1 KECCAK256 SLOAD ISZERO DUP1 ISZERO PUSH2 0x14E3 JUMPI POP PUSH1 0x1 PUSH1 0x1 PUSH1 0xA0 SHL SUB DUP4 AND PUSH1 0x0 SWAP1 DUP2 MSTORE PUSH1 0xC PUSH1 0x20 MSTORE PUSH1 0x40 SWAP1 KECCAK256 SLOAD ISZERO JUMPDEST PUSH2 0x154A JUMPI PUSH1 0x40 MLOAD PUSH3 0x461BCD PUSH1 0xE5 SHL DUP2 MSTORE PUSH1 0x20 PUSH1 0x4 DUP3 ADD MSTORE PUSH1 0x32 PUSH1 0x24 DUP3 ADD MSTORE PUSH32 0x54726164652063616E206E6F7420626520666F7263656420696620746F6B656E PUSH1 0x44 DUP3 ADD MSTORE PUSH18 0x73206861766520636F6E74726F6C6C657273 PUSH1 0x70 SHL PUSH1 0x64 DUP3 ADD MSTORE PUSH1 0x84 ADD PUSH2 0x695 JUMP JUMPDEST PUSH1 0x2 DUP8 ADD SLOAD PUSH1 0x1 PUSH1 0x1 PUSH1 0xA0 SHL SUB AND ISZERO PUSH2 0x15CF JUMPI PUSH1 0x2 DUP8 ADD SLOAD PUSH1 0x1 PUSH1 0x1 PUSH1 0xA0 SHL SUB AND CALLER EQ PUSH2 0x15CA JUMPI PUSH1 0x40 MLOAD PUSH3 0x461BCD PUSH1 0xE5 SHL DUP2 MSTORE PUSH1 0x20 PUSH1 0x4 DUP3 ADD MSTORE PUSH1 0x28 PUSH1 0x24 DUP3 ADD MSTORE PUSH32 0x53656E646572206973206E6F7420616C6C6F77656420746F20666F7263652074 PUSH1 0x44 DUP3 ADD MSTORE PUSH8 0x7261646520283029 PUSH1 0xC0 SHL PUSH1 0x64 DUP3 ADD MSTORE PUSH1 0x84 ADD PUSH2 0x695 JUMP JUMPDEST PUSH2 0x1720 JUMP JUMPDEST DUP4 ISZERO PUSH2 0x163F JUMPI DUP7 SLOAD PUSH1 0x1 PUSH1 0x1 PUSH1 0xA0 SHL SUB AND CALLER EQ PUSH2 0x15CA JUMPI PUSH1 0x40 MLOAD PUSH3 0x461BCD PUSH1 0xE5 SHL DUP2 MSTORE PUSH1 0x20 PUSH1 0x4 DUP3 ADD MSTORE PUSH1 0x28 PUSH1 0x24 DUP3 ADD MSTORE PUSH32 0x53656E646572206973206E6F7420616C6C6F77656420746F20666F7263652074 PUSH1 0x44 DUP3 ADD MSTORE PUSH8 0x7261646520283129 PUSH1 0xC0 SHL PUSH1 0x64 DUP3 ADD MSTORE PUSH1 0x84 ADD PUSH2 0x695 JUMP JUMPDEST DUP1 ISZERO PUSH2 0x16B2 JUMPI PUSH1 0x1 DUP8 ADD SLOAD PUSH1 0x1 PUSH1 0x1 PUSH1 0xA0 SHL SUB AND CALLER EQ PUSH2 0x15CA JUMPI PUSH1 0x40 MLOAD PUSH3 0x461BCD PUSH1 0xE5 SHL DUP2 MSTORE PUSH1 0x20 PUSH1 0x4 DUP3 ADD MSTORE PUSH1 0x28 PUSH1 0x24 DUP3 ADD MSTORE PUSH32 0x53656E646572206973206E6F7420616C6C6F77656420746F20666F7263652074 PUSH1 0x44 DUP3 ADD MSTORE PUSH8 0x7261646520283229 PUSH1 0xC0 SHL PUSH1 0x64 DUP3 ADD MSTORE PUSH1 0x84 ADD PUSH2 0x695 JUMP JUMPDEST PUSH1 0x40 MLOAD PUSH3 0x461BCD PUSH1 0xE5 SHL DUP2 MSTORE PUSH1 0x20 PUSH1 0x4 DUP3 ADD MSTORE PUSH1 0x38 PUSH1 0x24 DUP3 ADD MSTORE PUSH32 0x54726164652063616E277420626520666F7263656420617320746F6B656E7320 PUSH1 0x44 DUP3 ADD MSTORE PUSH32 0x617265206E6F7420617661696C61626C6520736F206661720000000000000000 PUSH1 0x64 DUP3 ADD MSTORE PUSH1 0x84 ADD PUSH2 0x695 JUMP JUMPDEST DUP4 ISZERO PUSH2 0x1734 JUMPI PUSH2 0x1734 DUP9 PUSH1 0x0 DUP8 PUSH1 0x0 PUSH2 0x36C3 JUMP JUMPDEST DUP1 ISZERO PUSH2 0x1748 JUMPI PUSH2 0x1748 DUP9 PUSH1 0x1 DUP5 PUSH1 0x0 PUSH2 0x36C3 JUMP JUMPDEST POP POP POP POP PUSH1 0x6 SWAP3 SWAP1 SWAP3 ADD DUP1 SLOAD PUSH3 0xFF0000 NOT AND PUSH3 0x30000 OR SWAP1 SSTORE POP POP POP JUMP JUMPDEST PUSH1 0x0 DUP3 DUP2 MSTORE PUSH1 0x4 PUSH1 0x20 MSTORE PUSH1 0x40 SWAP1 KECCAK256 PUSH1 0x1 PUSH1 0x6 DUP3 ADD SLOAD PUSH3 0x10000 SWAP1 DIV PUSH1 0xFF AND PUSH1 0x4 DUP2 GT ISZERO PUSH2 0x1795 JUMPI PUSH2 0x1795 PUSH2 0x65DB JUMP JUMPDEST EQ PUSH2 0x17B2 JUMPI PUSH1 0x40 MLOAD PUSH3 0x461BCD PUSH1 0xE5 SHL DUP2 MSTORE PUSH1 0x4 ADD PUSH2 0x695 SWAP1 PUSH2 0x63A8 JUMP JUMPDEST PUSH1 0x0 DUP2 PUSH1 0x4 ADD DUP1 SLOAD PUSH2 0x17C3 SWAP1 PUSH2 0x6575 JUMP JUMPDEST DUP1 PUSH1 0x1F ADD PUSH1 0x20 DUP1 SWAP2 DIV MUL PUSH1 0x20 ADD PUSH1 0x40 MLOAD SWAP1 DUP2 ADD PUSH1 0x40 MSTORE DUP1 SWAP3 SWAP2 SWAP1 DUP2 DUP2 MSTORE PUSH1 0x20 ADD DUP3 DUP1 SLOAD PUSH2 0x17EF SWAP1 PUSH2 0x6575 JUMP JUMPDEST DUP1 ISZERO PUSH2 0x183C JUMPI DUP1 PUSH1 0x1F LT PUSH2 0x1811 JUMPI PUSH2 0x100 DUP1 DUP4 SLOAD DIV MUL DUP4 MSTORE SWAP2 PUSH1 0x20 ADD SWAP2 PUSH2 0x183C JUMP JUMPDEST DUP3 ADD SWAP2 SWAP1 PUSH1 0x0 MSTORE PUSH1 0x20 PUSH1 0x0 KECCAK256 SWAP1 JUMPDEST DUP2 SLOAD DUP2 MSTORE SWAP1 PUSH1 0x1 ADD SWAP1 PUSH1 0x20 ADD DUP1 DUP4 GT PUSH2 0x181F JUMPI DUP3 SWAP1 SUB PUSH1 0x1F AND DUP3 ADD SWAP2 JUMPDEST POP POP POP POP POP DUP1 PUSH1 0x20 ADD SWAP1 MLOAD DUP2 ADD SWAP1 PUSH2 0x1854 SWAP2 SWAP1 PUSH2 0x5C4B JUMP JUMPDEST POP POP POP POP POP SWAP1 POP PUSH1 0x0 DUP3 PUSH1 0x5 ADD DUP1 SLOAD PUSH2 0x186C SWAP1 PUSH2 0x6575 JUMP JUMPDEST DUP1 PUSH1 0x1F ADD PUSH1 0x20 DUP1 SWAP2 DIV MUL PUSH1 0x20 ADD PUSH1 0x40 MLOAD SWAP1 DUP2 ADD PUSH1 0x40 MSTORE DUP1 SWAP3 SWAP2 SWAP1 DUP2 DUP2 MSTORE PUSH1 0x20 ADD DUP3 DUP1 SLOAD PUSH2 0x1898 SWAP1 PUSH2 0x6575 JUMP JUMPDEST DUP1 ISZERO PUSH2 0x18E5 JUMPI DUP1 PUSH1 0x1F LT PUSH2 0x18BA JUMPI PUSH2 0x100 DUP1 DUP4 SLOAD DIV MUL DUP4 MSTORE SWAP2 PUSH1 0x20 ADD SWAP2 PUSH2 0x18E5 JUMP JUMPDEST DUP3 ADD SWAP2 SWAP1 PUSH1 0x0 MSTORE PUSH1 0x20 PUSH1 0x0 KECCAK256 SWAP1 JUMPDEST DUP2 SLOAD DUP2 MSTORE SWAP1 PUSH1 0x1 ADD SWAP1 PUSH1 0x20 ADD DUP1 DUP4 GT PUSH2 0x18C8 JUMPI DUP3 SWAP1 SUB PUSH1 0x1F AND DUP3 ADD SWAP2 JUMPDEST POP POP POP POP POP DUP1 PUSH1 0x20 ADD SWAP1 MLOAD DUP2 ADD SWAP1 PUSH2 0x18FD SWAP2 SWAP1 PUSH2 0x5C4B JUMP JUMPDEST POP POP POP POP PUSH1 0x1 PUSH1 0x1 PUSH1 0xA0 SHL SUB DUP5 AND PUSH1 0x0 SWAP1 DUP2 MSTORE PUSH1 0xD PUSH1 0x20 SWAP1 DUP2 MSTORE PUSH1 0x40 DUP1 DUP4 KECCAK256 CALLER DUP5 MSTORE SWAP1 SWAP2 MSTORE SWAP1 KECCAK256 SLOAD SWAP2 SWAP3 POP POP PUSH1 0xFF AND DUP1 PUSH2 0x195A JUMPI POP PUSH1 0x1 PUSH1 0x1 PUSH1 0xA0 SHL SUB DUP2 AND PUSH1 0x0 SWAP1 DUP2 MSTORE PUSH1 0xD PUSH1 0x20 SWAP1 DUP2 MSTORE PUSH1 0x40 DUP1 DUP4 KECCAK256 CALLER DUP5 MSTORE SWAP1 SWAP2 MSTORE SWAP1 KECCAK256 SLOAD PUSH1 0xFF AND JUMPDEST PUSH2 0x19CC JUMPI PUSH1 0x40 MLOAD PUSH3 0x461BCD PUSH1 0xE5 SHL DUP2 MSTORE PUSH1 0x20 PUSH1 0x4 DUP3 ADD MSTORE PUSH1 0x3D PUSH1 0x24 DUP3 ADD MSTORE PUSH32 0x4F6E6C7920746F6B656E20636F6E74726F6C6C657273206F6620696E766F6C76 PUSH1 0x44 DUP3 ADD MSTORE PUSH32 0x656420746F6B656E732063616E20617070726F76652061207472616465000000 PUSH1 0x64 DUP3 ADD MSTORE PUSH1 0x84 ADD PUSH2 0x695 JUMP JUMPDEST PUSH1 0x1 PUSH1 0x1 PUSH1 0xA0 SHL SUB DUP3 AND PUSH1 0x0 SWAP1 DUP2 MSTORE PUSH1 0xD PUSH1 0x20 SWAP1 DUP2 MSTORE PUSH1 0x40 DUP1 DUP4 KECCAK256 CALLER DUP5 MSTORE SWAP1 SWAP2 MSTORE SWAP1 KECCAK256 SLOAD PUSH1 0xFF AND ISZERO PUSH2 0x1AEF JUMPI PUSH1 0x0 DUP1 PUSH1 0x0 DUP1 DUP7 PUSH1 0x4 ADD DUP1 SLOAD PUSH2 0x1A0D SWAP1 PUSH2 0x6575 JUMP JUMPDEST DUP1 PUSH1 0x1F ADD PUSH1 0x20 DUP1 SWAP2 DIV MUL PUSH1 0x20 ADD PUSH1 0x40 MLOAD SWAP1 DUP2 ADD PUSH1 0x40 MSTORE DUP1 SWAP3 SWAP2 SWAP1 DUP2 DUP2 MSTORE PUSH1 0x20 ADD DUP3 DUP1 SLOAD PUSH2 0x1A39 SWAP1 PUSH2 0x6575 JUMP JUMPDEST DUP1 ISZERO PUSH2 0x1A86 JUMPI DUP1 PUSH1 0x1F LT PUSH2 0x1A5B JUMPI PUSH2 0x100 DUP1 DUP4 SLOAD DIV MUL DUP4 MSTORE SWAP2 PUSH1 0x20 ADD SWAP2 PUSH2 0x1A86 JUMP JUMPDEST DUP3 ADD SWAP2 SWAP1 PUSH1 0x0 MSTORE PUSH1 0x20 PUSH1 0x0 KECCAK256 SWAP1 JUMPDEST DUP2 SLOAD DUP2 MSTORE SWAP1 PUSH1 0x1 ADD SWAP1 PUSH1 0x20 ADD DUP1 DUP4 GT PUSH2 0x1A69 JUMPI DUP3 SWAP1 SUB PUSH1 0x1F AND DUP3 ADD SWAP2 JUMPDEST POP POP POP POP POP DUP1 PUSH1 0x20 ADD SWAP1 MLOAD DUP2 ADD SWAP1 PUSH2 0x1A9E SWAP2 SWAP1 PUSH2 0x5C4B JUMP JUMPDEST POP SWAP5 POP SWAP5 POP SWAP5 POP SWAP5 POP POP DUP6 DUP5 DUP5 DUP5 DUP5 DUP13 PUSH1 0x40 MLOAD PUSH1 0x20 ADD PUSH2 0x1AC3 SWAP7 SWAP6 SWAP5 SWAP4 SWAP3 SWAP2 SWAP1 PUSH2 0x621D JUMP JUMPDEST PUSH1 0x40 MLOAD PUSH1 0x20 DUP2 DUP4 SUB SUB DUP2 MSTORE SWAP1 PUSH1 0x40 MSTORE DUP8 PUSH1 0x4 ADD SWAP1 DUP1 MLOAD SWAP1 PUSH1 0x20 ADD SWAP1 PUSH2 0x1AE9 SWAP3 SWAP2 SWAP1 PUSH2 0x5A10 JUMP JUMPDEST POP POP POP POP POP JUMPDEST PUSH1 0x1 PUSH1 0x1 PUSH1 0xA0 SHL SUB DUP2 AND PUSH1 0x0 SWAP1 DUP2 MSTORE PUSH1 0xD PUSH1 0x20 SWAP1 DUP2 MSTORE PUSH1 0x40 DUP1 DUP4 KECCAK256 CALLER DUP5 MSTORE SWAP1 SWAP2 MSTORE SWAP1 KECCAK256 SLOAD PUSH1 0xFF AND ISZERO PUSH2 0x1C12 JUMPI PUSH1 0x0 DUP1 PUSH1 0x0 DUP1 DUP7 PUSH1 0x5 ADD DUP1 SLOAD PUSH2 0x1B30 SWAP1 PUSH2 0x6575 JUMP JUMPDEST DUP1 PUSH1 0x1F ADD PUSH1 0x20 DUP1 SWAP2 DIV MUL PUSH1 0x20 ADD PUSH1 0x40 MLOAD SWAP1 DUP2 ADD PUSH1 0x40 MSTORE DUP1 SWAP3 SWAP2 SWAP1 DUP2 DUP2 MSTORE PUSH1 0x20 ADD DUP3 DUP1 SLOAD PUSH2 0x1B5C SWAP1 PUSH2 0x6575 JUMP JUMPDEST DUP1 ISZERO PUSH2 0x1BA9 JUMPI DUP1 PUSH1 0x1F LT PUSH2 0x1B7E JUMPI PUSH2 0x100 DUP1 DUP4 SLOAD DIV MUL DUP4 MSTORE SWAP2 PUSH1 0x20 ADD SWAP2 PUSH2 0x1BA9 JUMP JUMPDEST DUP3 ADD SWAP2 SWAP1 PUSH1 0x0 MSTORE PUSH1 0x20 PUSH1 0x0 KECCAK256 SWAP1 JUMPDEST DUP2 SLOAD DUP2 MSTORE SWAP1 PUSH1 0x1 ADD SWAP1 PUSH1 0x20 ADD DUP1 DUP4 GT PUSH2 0x1B8C JUMPI DUP3 SWAP1 SUB PUSH1 0x1F AND DUP3 ADD SWAP2 JUMPDEST POP POP POP POP POP DUP1 PUSH1 0x20 ADD SWAP1 MLOAD DUP2 ADD SWAP1 PUSH2 0x1BC1 SWAP2 SWAP1 PUSH2 0x5C4B JUMP JUMPDEST POP SWAP5 POP SWAP5 POP SWAP5 POP SWAP5 POP POP DUP5 DUP5 DUP5 DUP5 DUP5 DUP13 PUSH1 0x40 MLOAD PUSH1 0x20 ADD PUSH2 0x1BE6 SWAP7 SWAP6 SWAP5 SWAP4 SWAP3 SWAP2 SWAP1 PUSH2 0x621D JUMP JUMPDEST PUSH1 0x40 MLOAD PUSH1 0x20 DUP2 DUP4 SUB SUB DUP2 MSTORE SWAP1 PUSH1 0x40 MSTORE DUP8 PUSH1 0x5 ADD SWAP1 DUP1 MLOAD SWAP1 PUSH1 0x20 ADD SWAP1 PUSH2 0x1C0C SWAP3 SWAP2 SWAP1 PUSH2 0x5A10 JUMP JUMPDEST POP POP POP POP POP JUMPDEST PUSH1 0x2 DUP4 ADD SLOAD PUSH1 0x1 PUSH1 0x1 PUSH1 0xA0 SHL SUB AND ISZERO DUP1 PUSH2 0x1C38 JUMPI POP PUSH1 0x2 DUP4 ADD SLOAD PUSH1 0x1 PUSH1 0x1 PUSH1 0xA0 SHL SUB AND CALLER EQ JUMPDEST DUP1 ISZERO PUSH2 0x1C48 JUMPI POP PUSH2 0x1C48 DUP6 PUSH2 0x2FCB JUMP JUMPDEST DUP1 ISZERO PUSH2 0x1C58 JUMPI POP PUSH2 0x1C58 DUP6 PUSH2 0x3276 JUMP JUMPDEST ISZERO PUSH2 0x1C66 JUMPI PUSH2 0x1C66 DUP6 PUSH2 0x345A JUMP JUMPDEST POP POP POP POP POP JUMP JUMPDEST PUSH1 0x0 SLOAD PUSH1 0x1 PUSH1 0x1 PUSH1 0xA0 SHL SUB AND CALLER EQ PUSH2 0x1C97 JUMPI PUSH1 0x40 MLOAD PUSH3 0x461BCD PUSH1 0xE5 SHL DUP2 MSTORE PUSH1 0x4 ADD PUSH2 0x695 SWAP1 PUSH2 0x62FB JUMP JUMPDEST PUSH2 0x1C9F PUSH2 0x3B2C JUMP JUMPDEST PUSH1 0x9 DUP1 SLOAD PUSH2 0xFF00 NOT AND SWAP1 SSTORE JUMP JUMPDEST PUSH1 0x1 PUSH1 0x1 PUSH1 0xA0 SHL SUB DUP2 AND PUSH1 0x0 SWAP1 DUP2 MSTORE PUSH1 0xC PUSH1 0x20 SWAP1 DUP2 MSTORE PUSH1 0x40 SWAP2 DUP3 SWAP1 KECCAK256 DUP1 SLOAD DUP4 MLOAD DUP2 DUP5 MUL DUP2 ADD DUP5 ADD SWAP1 SWAP5 MSTORE DUP1 DUP5 MSTORE PUSH1 0x60 SWAP4 SWAP3 DUP4 ADD DUP3 DUP3 DUP1 ISZERO PUSH2 0x662 JUMPI PUSH1 0x20 MUL DUP3 ADD SWAP2 SWAP1 PUSH1 0x0 MSTORE PUSH1 0x20 PUSH1 0x0 KECCAK256 SWAP1 DUP2 SLOAD PUSH1 0x1 PUSH1 0x1 PUSH1 0xA0 SHL SUB AND DUP2 MSTORE PUSH1 0x1 SWAP1 SWAP2 ADD SWAP1 PUSH1 0x20 ADD DUP1 DUP4 GT PUSH2 0x644 JUMPI POP POP POP POP POP SWAP1 POP SWAP2 SWAP1 POP JUMP JUMPDEST PUSH1 0x0 DUP1 SLOAD PUSH1 0x1 PUSH1 0x1 PUSH1 0xA0 SHL SUB AND CALLER EQ PUSH2 0x1D4B JUMPI PUSH1 0x40 MLOAD PUSH3 0x461BCD PUSH1 0xE5 SHL DUP2 MSTORE PUSH1 0x4 ADD PUSH2 0x695 SWAP1 PUSH2 0x62FB JUMP JUMPDEST PUSH1 0x9 SLOAD PUSH3 0x10000 SWAP1 DIV PUSH1 0xFF AND PUSH2 0x1DC2 JUMPI PUSH1 0x40 MLOAD PUSH3 0x461BCD PUSH1 0xE5 SHL DUP2 MSTORE PUSH1 0x20 PUSH1 0x4 DUP3 ADD MSTORE PUSH1 0x36 PUSH1 0x24 DUP3 ADD MSTORE PUSH32 0x436F6E74726163742068617320616C7265616479206265656E207265636F7264 PUSH1 0x44 DUP3 ADD MSTORE PUSH22 0x656420696E2045524331383230207265676973747279 PUSH1 0x50 SHL PUSH1 0x64 DUP3 ADD MSTORE PUSH1 0x84 ADD PUSH2 0x695 JUMP JUMPDEST PUSH2 0x1DFA PUSH1 0x40 MLOAD DUP1 PUSH1 0x40 ADD PUSH1 0x40 MSTORE DUP1 PUSH1 0x16 DUP2 MSTORE PUSH1 0x20 ADD PUSH22 0x115490CC4D0C0C151BDAD95B9CD49958DA5C1A595B9D PUSH1 0x52 SHL DUP2 MSTORE POP ADDRESS PUSH2 0x3B62 JUMP JUMPDEST POP PUSH1 0x9 DUP1 SLOAD PUSH3 0xFF0000 NOT AND SWAP1 SSTORE PUSH1 0x1 SWAP1 JUMP JUMPDEST PUSH1 0x0 PUSH2 0xDDD DUP3 PUSH2 0x3276 JUMP JUMPDEST PUSH1 0x0 SLOAD PUSH1 0x1 PUSH1 0x1 PUSH1 0xA0 SHL SUB AND CALLER EQ PUSH2 0x1E41 JUMPI PUSH1 0x40 MLOAD PUSH3 0x461BCD PUSH1 0xE5 SHL DUP2 MSTORE PUSH1 0x4 ADD PUSH2 0x695 SWAP1 PUSH2 0x62FB JUMP JUMPDEST PUSH1 0x9 SLOAD PUSH2 0x100 SWAP1 DIV PUSH1 0xFF AND PUSH2 0x1E98 JUMPI PUSH1 0x40 MLOAD PUSH3 0x461BCD PUSH1 0xE5 SHL DUP2 MSTORE PUSH1 0x20 PUSH1 0x4 DUP3 ADD MSTORE PUSH1 0x19 PUSH1 0x24 DUP3 ADD MSTORE PUSH32 0x44565020636F6E7472616374206973206E6F74206F776E656400000000000000 PUSH1 0x44 DUP3 ADD MSTORE PUSH1 0x64 ADD PUSH2 0x695 JUMP JUMPDEST PUSH2 0x8BA DUP3 DUP3 DUP1 DUP1 PUSH1 0x20 MUL PUSH1 0x20 ADD PUSH1 0x40 MLOAD SWAP1 DUP2 ADD PUSH1 0x40 MSTORE DUP1 SWAP4 SWAP3 SWAP2 SWAP1 DUP2 DUP2 MSTORE PUSH1 0x20 ADD DUP4 DUP4 PUSH1 0x20 MUL DUP1 DUP3 DUP5 CALLDATACOPY PUSH1 0x0 SWAP3 ADD SWAP2 SWAP1 SWAP2 MSTORE POP PUSH2 0x3BFD SWAP3 POP POP POP JUMP JUMPDEST CALLER DUP1 PUSH1 0x1 PUSH1 0x1 PUSH1 0xA0 SHL SUB AND PUSH4 0x8DA5CB5B PUSH1 0x40 MLOAD DUP2 PUSH4 0xFFFFFFFF AND PUSH1 0xE0 SHL DUP2 MSTORE PUSH1 0x4 ADD PUSH1 0x20 PUSH1 0x40 MLOAD DUP1 DUP4 SUB DUP2 DUP7 DUP1 EXTCODESIZE ISZERO DUP1 ISZERO PUSH2 0x1F0E JUMPI PUSH1 0x0 DUP1 REVERT JUMPDEST POP GAS STATICCALL ISZERO DUP1 ISZERO PUSH2 0x1F22 JUMPI RETURNDATASIZE PUSH1 0x0 DUP1 RETURNDATACOPY RETURNDATASIZE PUSH1 0x0 REVERT JUMPDEST POP POP POP POP PUSH1 0x40 MLOAD RETURNDATASIZE PUSH1 0x1F NOT PUSH1 0x1F DUP3 ADD AND DUP3 ADD DUP1 PUSH1 0x40 MSTORE POP DUP2 ADD SWAP1 PUSH2 0x1F46 SWAP2 SWAP1 PUSH2 0x5BB9 JUMP JUMPDEST PUSH1 0x1 PUSH1 0x1 PUSH1 0xA0 SHL SUB AND CALLER PUSH1 0x1 PUSH1 0x1 PUSH1 0xA0 SHL SUB AND EQ DUP1 PUSH2 0x1F88 JUMPI POP PUSH1 0x1 PUSH1 0x1 PUSH1 0xA0 SHL SUB DUP2 AND PUSH1 0x0 SWAP1 DUP2 MSTORE PUSH1 0xD PUSH1 0x20 SWAP1 DUP2 MSTORE PUSH1 0x40 DUP1 DUP4 KECCAK256 CALLER DUP5 MSTORE SWAP1 SWAP2 MSTORE SWAP1 KECCAK256 SLOAD PUSH1 0xFF AND JUMPDEST PUSH2 0x1FA4 JUMPI PUSH1 0x40 MLOAD PUSH3 0x461BCD PUSH1 0xE5 SHL DUP2 MSTORE PUSH1 0x4 ADD PUSH2 0x695 SWAP1 PUSH2 0x6330 JUMP JUMPDEST PUSH1 0x0 DUP1 PUSH1 0x0 DUP1 PUSH1 0x0 DUP1 PUSH1 0x0 DUP9 DUP1 PUSH1 0x20 ADD SWAP1 MLOAD DUP2 ADD SWAP1 PUSH2 0x1FC3 SWAP2 SWAP1 PUSH2 0x5BD6 JUMP JUMPDEST SWAP7 POP SWAP7 POP SWAP7 POP SWAP7 POP SWAP7 POP SWAP7 POP SWAP7 POP PUSH1 0x0 DUP8 PUSH1 0x1 PUSH1 0x1 PUSH1 0xA0 SHL SUB AND PUSH4 0x18160DDD PUSH1 0x40 MLOAD DUP2 PUSH4 0xFFFFFFFF AND PUSH1 0xE0 SHL DUP2 MSTORE PUSH1 0x4 ADD PUSH1 0x20 PUSH1 0x40 MLOAD DUP1 DUP4 SUB DUP2 DUP7 DUP1 EXTCODESIZE ISZERO DUP1 ISZERO PUSH2 0x200C JUMPI PUSH1 0x0 DUP1 REVERT JUMPDEST POP GAS STATICCALL ISZERO DUP1 ISZERO PUSH2 0x2020 JUMPI RETURNDATASIZE PUSH1 0x0 DUP1 RETURNDATACOPY RETURNDATASIZE PUSH1 0x0 REVERT JUMPDEST POP POP POP POP PUSH1 0x40 MLOAD RETURNDATASIZE PUSH1 0x1F NOT PUSH1 0x1F DUP3 ADD AND DUP3 ADD DUP1 PUSH1 0x40 MSTORE POP DUP2 ADD SWAP1 PUSH2 0x2044 SWAP2 SWAP1 PUSH2 0x5EBA JUMP JUMPDEST SWAP1 POP PUSH1 0x0 PUSH2 0x2051 DUP10 PUSH2 0x3CE6 JUMP JUMPDEST SWAP1 POP PUSH1 0x0 PUSH2 0x205F DUP9 DUP5 PUSH2 0x6513 JUMP JUMPDEST SWAP1 POP PUSH1 0x0 PUSH2 0x206D DUP10 DUP5 PUSH2 0x6513 JUMP JUMPDEST SWAP1 POP PUSH1 0x0 DUP1 JUMPDEST PUSH1 0x3 SLOAD DUP2 LT ISZERO PUSH2 0x2285 JUMPI PUSH1 0x0 DUP2 DUP2 MSTORE PUSH1 0x4 PUSH1 0x20 MSTORE PUSH1 0x40 DUP2 KECCAK256 PUSH1 0x5 DUP2 ADD DUP1 SLOAD SWAP2 SWAP3 SWAP2 PUSH2 0x209D SWAP1 PUSH2 0x6575 JUMP JUMPDEST DUP1 PUSH1 0x1F ADD PUSH1 0x20 DUP1 SWAP2 DIV MUL PUSH1 0x20 ADD PUSH1 0x40 MLOAD SWAP1 DUP2 ADD PUSH1 0x40 MSTORE DUP1 SWAP3 SWAP2 SWAP1 DUP2 DUP2 MSTORE PUSH1 0x20 ADD DUP3 DUP1 SLOAD PUSH2 0x20C9 SWAP1 PUSH2 0x6575 JUMP JUMPDEST DUP1 ISZERO PUSH2 0x2116 JUMPI DUP1 PUSH1 0x1F LT PUSH2 0x20EB JUMPI PUSH2 0x100 DUP1 DUP4 SLOAD DIV MUL DUP4 MSTORE SWAP2 PUSH1 0x20 ADD SWAP2 PUSH2 0x2116 JUMP JUMPDEST DUP3 ADD SWAP2 SWAP1 PUSH1 0x0 MSTORE PUSH1 0x20 PUSH1 0x0 KECCAK256 SWAP1 JUMPDEST DUP2 SLOAD DUP2 MSTORE SWAP1 PUSH1 0x1 ADD SWAP1 PUSH1 0x20 ADD DUP1 DUP4 GT PUSH2 0x20F9 JUMPI DUP3 SWAP1 SUB PUSH1 0x1F AND DUP3 ADD SWAP2 JUMPDEST POP POP POP POP POP DUP1 PUSH1 0x20 ADD SWAP1 MLOAD DUP2 ADD SWAP1 PUSH2 0x212E SWAP2 SWAP1 PUSH2 0x5C4B JUMP JUMPDEST POP POP POP POP POP SWAP1 POP PUSH1 0x0 DUP3 PUSH1 0x4 ADD DUP1 SLOAD PUSH2 0x2146 SWAP1 PUSH2 0x6575 JUMP JUMPDEST DUP1 PUSH1 0x1F ADD PUSH1 0x20 DUP1 SWAP2 DIV MUL PUSH1 0x20 ADD PUSH1 0x40 MLOAD SWAP1 DUP2 ADD PUSH1 0x40 MSTORE DUP1 SWAP3 SWAP2 SWAP1 DUP2 DUP2 MSTORE PUSH1 0x20 ADD DUP3 DUP1 SLOAD PUSH2 0x2172 SWAP1 PUSH2 0x6575 JUMP JUMPDEST DUP1 ISZERO PUSH2 0x21BF JUMPI DUP1 PUSH1 0x1F LT PUSH2 0x2194 JUMPI PUSH2 0x100 DUP1 DUP4 SLOAD DIV MUL DUP4 MSTORE SWAP2 PUSH1 0x20 ADD SWAP2 PUSH2 0x21BF JUMP JUMPDEST DUP3 ADD SWAP2 SWAP1 PUSH1 0x0 MSTORE PUSH1 0x20 PUSH1 0x0 KECCAK256 SWAP1 JUMPDEST DUP2 SLOAD DUP2 MSTORE SWAP1 PUSH1 0x1 ADD SWAP1 PUSH1 0x20 ADD DUP1 DUP4 GT PUSH2 0x21A2 JUMPI DUP3 SWAP1 SUB PUSH1 0x1F AND DUP3 ADD SWAP2 JUMPDEST POP POP POP POP POP DUP1 PUSH1 0x20 ADD SWAP1 MLOAD DUP2 ADD SWAP1 PUSH2 0x21D7 SWAP2 SWAP1 PUSH2 0x5C4B JUMP JUMPDEST SWAP6 POP POP POP POP POP POP DUP16 PUSH1 0x1 PUSH1 0x1 PUSH1 0xA0 SHL SUB AND DUP3 PUSH1 0x1 PUSH1 0x1 PUSH1 0xA0 SHL SUB AND EQ DUP1 ISZERO PUSH2 0x2201 JUMPI POP PUSH1 0x1 DUP2 ISZERO ISZERO EQ JUMPDEST ISZERO PUSH2 0x226F JUMPI PUSH1 0x2 DUP4 ADD SLOAD PUSH1 0x1 PUSH1 0x1 PUSH1 0xA0 SHL SUB AND CALLER EQ PUSH2 0x2262 JUMPI PUSH1 0x40 MLOAD PUSH3 0x461BCD PUSH1 0xE5 SHL DUP2 MSTORE PUSH1 0x20 PUSH1 0x4 DUP3 ADD MSTORE PUSH1 0x1D PUSH1 0x24 DUP3 ADD MSTORE PUSH32 0x45786563757465722068617320746F206265207468652073656E646572000000 PUSH1 0x44 DUP3 ADD MSTORE PUSH1 0x64 ADD PUSH2 0x695 JUMP JUMPDEST POP POP PUSH1 0x3 ADD SLOAD SWAP2 POP PUSH2 0x2285 JUMP JUMPDEST POP POP POP DUP1 DUP1 PUSH2 0x227D SWAP1 PUSH2 0x65AA JUMP JUMPDEST SWAP2 POP POP PUSH2 0x2073 JUMP JUMPDEST POP DUP1 TIMESTAMP EQ PUSH2 0x22D5 JUMPI PUSH1 0x40 MLOAD PUSH3 0x461BCD PUSH1 0xE5 SHL DUP2 MSTORE PUSH1 0x20 PUSH1 0x4 DUP3 ADD MSTORE PUSH1 0x1F PUSH1 0x24 DUP3 ADD MSTORE PUSH32 0x43616E206F6E6C792062652063616C6C6564206F6E2073616C65206461746500 PUSH1 0x44 DUP3 ADD MSTORE PUSH1 0x64 ADD PUSH2 0x695 JUMP JUMPDEST DUP3 DUP3 EQ ISZERO PUSH2 0x22EC JUMPI PUSH2 0x22E7 DUP13 DUP13 PUSH2 0x3ED9 JUMP JUMPDEST PUSH2 0x2327 JUMP JUMPDEST DUP9 PUSH2 0x2302 PUSH1 0x64 PUSH2 0x22FC DUP6 DUP8 PUSH2 0x4114 JUMP JUMPDEST SWAP1 PUSH2 0x4120 JUMP JUMPDEST LT PUSH2 0x2327 JUMPI PUSH2 0x2327 DUP13 PUSH2 0x2315 DUP6 DUP6 PUSH2 0x412C JUMP JUMPDEST PUSH2 0x231F DUP9 DUP9 PUSH2 0x412C JUMP JUMPDEST DUP12 DUP12 DUP12 PUSH2 0x4138 JUMP JUMPDEST POP POP POP POP POP POP POP POP POP POP POP POP POP POP JUMP JUMPDEST DUP2 PUSH2 0x2342 DUP2 CALLER PUSH2 0x2DC2 JUMP JUMPDEST PUSH2 0x235E JUMPI PUSH1 0x40 MLOAD PUSH3 0x461BCD PUSH1 0xE5 SHL DUP2 MSTORE PUSH1 0x4 ADD PUSH2 0x695 SWAP1 PUSH2 0x6371 JUMP JUMPDEST PUSH2 0x236B PUSH3 0x93A80 TIMESTAMP PUSH2 0x64D9 JUMP JUMPDEST DUP3 GT DUP1 PUSH2 0x2376 JUMPI POP DUP2 ISZERO JUMPDEST PUSH2 0x23DC JUMPI PUSH1 0x40 MLOAD PUSH3 0x461BCD PUSH1 0xE5 SHL DUP2 MSTORE PUSH1 0x20 PUSH1 0x4 DUP3 ADD MSTORE PUSH1 0x31 PUSH1 0x24 DUP3 ADD MSTORE PUSH32 0x53746172742064617465206E6565647320746F20626520736574206174206C65 PUSH1 0x44 DUP3 ADD MSTORE PUSH17 0x6173742061207765656B206265666F7265 PUSH1 0x78 SHL PUSH1 0x64 DUP3 ADD MSTORE PUSH1 0x84 ADD PUSH2 0x695 JUMP JUMPDEST POP PUSH1 0x1 PUSH1 0x1 PUSH1 0xA0 SHL SUB SWAP1 SWAP2 AND PUSH1 0x0 SWAP1 DUP2 MSTORE PUSH1 0xE PUSH1 0x20 MSTORE PUSH1 0x40 SWAP1 KECCAK256 SSTORE JUMP JUMPDEST PUSH1 0x0 PUSH2 0x240B PUSH1 0xA0 DUP4 ADD PUSH1 0x80 DUP5 ADD PUSH2 0x5B9C JUMP JUMPDEST PUSH1 0xA0 DUP4 ADD CALLDATALOAD PUSH1 0xC0 DUP5 ADD CALLDATALOAD PUSH2 0x2426 PUSH2 0x100 DUP7 ADD PUSH1 0xE0 DUP8 ADD PUSH2 0x60A9 JUMP JUMPDEST PUSH1 0x0 DUP1 PUSH1 0x40 MLOAD PUSH1 0x20 ADD PUSH2 0x243E SWAP7 SWAP6 SWAP5 SWAP4 SWAP3 SWAP2 SWAP1 PUSH2 0x621D JUMP JUMPDEST PUSH1 0x40 DUP1 MLOAD PUSH1 0x1F NOT DUP2 DUP5 SUB ADD DUP2 MSTORE SWAP2 SWAP1 MSTORE SWAP1 POP PUSH1 0x0 PUSH2 0x2464 PUSH2 0x120 DUP5 ADD PUSH2 0x100 DUP6 ADD PUSH2 0x5B9C JUMP JUMPDEST PUSH2 0x120 DUP5 ADD CALLDATALOAD PUSH2 0x140 DUP6 ADD CALLDATALOAD PUSH2 0x2482 PUSH2 0x180 DUP8 ADD PUSH2 0x160 DUP9 ADD PUSH2 0x60A9 JUMP JUMPDEST PUSH1 0x0 DUP1 PUSH1 0x40 MLOAD PUSH1 0x20 ADD PUSH2 0x249A SWAP7 SWAP6 SWAP5 SWAP4 SWAP3 SWAP2 SWAP1 PUSH2 0x621D JUMP JUMPDEST PUSH1 0x40 DUP1 MLOAD PUSH1 0x1F NOT DUP2 DUP5 SUB ADD DUP2 MSTORE SWAP2 SWAP1 MSTORE SWAP1 POP PUSH2 0x250C PUSH2 0x24BC PUSH1 0x20 DUP6 ADD DUP6 PUSH2 0x5B9C JUMP JUMPDEST PUSH2 0x24CC PUSH1 0x40 DUP7 ADD PUSH1 0x20 DUP8 ADD PUSH2 0x5B9C JUMP JUMPDEST PUSH2 0x24DC PUSH1 0x60 DUP8 ADD PUSH1 0x40 DUP9 ADD PUSH2 0x5B9C JUMP JUMPDEST PUSH1 0x60 DUP8 ADD CALLDATALOAD DUP7 DUP7 PUSH2 0x24F5 PUSH2 0x1A0 DUP12 ADD PUSH2 0x180 DUP13 ADD PUSH2 0x608C JUMP JUMPDEST PUSH2 0x2507 PUSH2 0x1C0 DUP13 ADD PUSH2 0x1A0 DUP14 ADD PUSH2 0x608C JUMP JUMPDEST PUSH2 0x4286 JUMP JUMPDEST PUSH2 0x2519 PUSH1 0x20 DUP5 ADD DUP5 PUSH2 0x5B9C JUMP JUMPDEST PUSH1 0x1 PUSH1 0x1 PUSH1 0xA0 SHL SUB AND CALLER PUSH1 0x1 PUSH1 0x1 PUSH1 0xA0 SHL SUB AND EQ DUP1 PUSH2 0x2558 JUMPI POP PUSH2 0x2543 PUSH1 0x40 DUP5 ADD PUSH1 0x20 DUP6 ADD PUSH2 0x5B9C JUMP JUMPDEST PUSH1 0x1 PUSH1 0x1 PUSH1 0xA0 SHL SUB AND CALLER PUSH1 0x1 PUSH1 0x1 PUSH1 0xA0 SHL SUB AND EQ JUMPDEST ISZERO PUSH2 0x256C JUMPI PUSH2 0x256C PUSH1 0x3 SLOAD CALLER CALLVALUE PUSH1 0x0 PUSH2 0x46E2 JUMP JUMPDEST POP POP POP JUMP JUMPDEST PUSH1 0x0 PUSH2 0xDDD DUP3 PUSH2 0x4DD7 JUMP JUMPDEST DUP3 DUP1 PUSH1 0x1 PUSH1 0x1 PUSH1 0xA0 SHL SUB AND PUSH4 0x8DA5CB5B PUSH1 0x40 MLOAD DUP2 PUSH4 0xFFFFFFFF AND PUSH1 0xE0 SHL DUP2 MSTORE PUSH1 0x4 ADD PUSH1 0x20 PUSH1 0x40 MLOAD DUP1 DUP4 SUB DUP2 DUP7 DUP1 EXTCODESIZE ISZERO DUP1 ISZERO PUSH2 0x25B6 JUMPI PUSH1 0x0 DUP1 REVERT JUMPDEST POP GAS STATICCALL ISZERO DUP1 ISZERO PUSH2 0x25CA JUMPI RETURNDATASIZE PUSH1 0x0 DUP1 RETURNDATACOPY RETURNDATASIZE PUSH1 0x0 REVERT JUMPDEST POP POP POP POP PUSH1 0x40 MLOAD RETURNDATASIZE PUSH1 0x1F NOT PUSH1 0x1F DUP3 ADD AND DUP3 ADD DUP1 PUSH1 0x40 MSTORE POP DUP2 ADD SWAP1 PUSH2 0x25EE SWAP2 SWAP1 PUSH2 0x5BB9 JUMP JUMPDEST PUSH1 0x1 PUSH1 0x1 PUSH1 0xA0 SHL SUB AND CALLER PUSH1 0x1 PUSH1 0x1 PUSH1 0xA0 SHL SUB AND EQ DUP1 PUSH2 0x2630 JUMPI POP PUSH1 0x1 PUSH1 0x1 PUSH1 0xA0 SHL SUB DUP2 AND PUSH1 0x0 SWAP1 DUP2 MSTORE PUSH1 0xD PUSH1 0x20 SWAP1 DUP2 MSTORE PUSH1 0x40 DUP1 DUP4 KECCAK256 CALLER DUP5 MSTORE SWAP1 SWAP2 MSTORE SWAP1 KECCAK256 SLOAD PUSH1 0xFF AND JUMPDEST PUSH2 0x264C JUMPI PUSH1 0x40 MLOAD PUSH3 0x461BCD PUSH1 0xE5 SHL DUP2 MSTORE PUSH1 0x4 ADD PUSH2 0x695 SWAP1 PUSH2 0x6330 JUMP JUMPDEST PUSH2 0x6DB DUP5 DUP5 DUP5 DUP1 DUP1 PUSH1 0x20 MUL PUSH1 0x20 ADD PUSH1 0x40 MLOAD SWAP1 DUP2 ADD PUSH1 0x40 MSTORE DUP1 SWAP4 SWAP3 SWAP2 SWAP1 DUP2 DUP2 MSTORE PUSH1 0x20 ADD DUP4 DUP4 PUSH1 0x20 MUL DUP1 DUP3 DUP5 CALLDATACOPY PUSH1 0x0 SWAP3 ADD SWAP2 SWAP1 SWAP2 MSTORE POP PUSH2 0x5485 SWAP3 POP POP POP JUMP JUMPDEST PUSH1 0x0 SLOAD PUSH1 0x1 PUSH1 0x1 PUSH1 0xA0 SHL SUB AND CALLER EQ PUSH2 0x26B3 JUMPI PUSH1 0x40 MLOAD PUSH3 0x461BCD PUSH1 0xE5 SHL DUP2 MSTORE PUSH1 0x4 ADD PUSH2 0x695 SWAP1 PUSH2 0x62FB JUMP JUMPDEST PUSH1 0x1 PUSH1 0x1 PUSH1 0xA0 SHL SUB DUP2 AND PUSH2 0x2718 JUMPI PUSH1 0x40 MLOAD PUSH3 0x461BCD PUSH1 0xE5 SHL DUP2 MSTORE PUSH1 0x20 PUSH1 0x4 DUP3 ADD MSTORE PUSH1 0x26 PUSH1 0x24 DUP3 ADD MSTORE PUSH32 0x4F776E61626C653A206E6577206F776E657220697320746865207A65726F2061 PUSH1 0x44 DUP3 ADD MSTORE PUSH6 0x646472657373 PUSH1 0xD0 SHL PUSH1 0x64 DUP3 ADD MSTORE PUSH1 0x84 ADD PUSH2 0x695 JUMP JUMPDEST PUSH2 0x2721 DUP2 PUSH2 0x55D0 JUMP JUMPDEST POP JUMP JUMPDEST CALLER PUSH1 0x1 PUSH1 0x1 PUSH1 0xA0 SHL SUB AND PUSH2 0x275C CALLER PUSH1 0x40 MLOAD DUP1 PUSH1 0x40 ADD PUSH1 0x40 MSTORE DUP1 PUSH1 0xC DUP2 MSTORE PUSH1 0x20 ADD PUSH12 0x22A921989A18182A37B5B2B7 PUSH1 0xA1 SHL DUP2 MSTORE POP PUSH2 0x5620 JUMP JUMPDEST PUSH1 0x1 PUSH1 0x1 PUSH1 0xA0 SHL SUB AND EQ PUSH2 0x2797 JUMPI PUSH1 0x40 MLOAD PUSH3 0x461BCD PUSH1 0xE5 SHL DUP2 MSTORE PUSH1 0x20 PUSH1 0x4 DUP3 ADD MSTORE PUSH1 0x2 PUSH1 0x24 DUP3 ADD MSTORE PUSH2 0x3535 PUSH1 0xF0 SHL PUSH1 0x44 DUP3 ADD MSTORE PUSH1 0x64 ADD PUSH2 0x695 JUMP JUMPDEST PUSH1 0x1 PUSH1 0x1 PUSH1 0xA0 SHL SUB DUP7 AND ADDRESS EQ PUSH2 0x27D4 JUMPI PUSH1 0x40 MLOAD PUSH3 0x461BCD PUSH1 0xE5 SHL DUP2 MSTORE PUSH1 0x20 PUSH1 0x4 DUP3 ADD MSTORE PUSH1 0x2 PUSH1 0x24 DUP3 ADD MSTORE PUSH2 0x353 PUSH1 0xF4 SHL PUSH1 0x44 DUP3 ADD MSTORE PUSH1 0x64 ADD PUSH2 0x695 JUMP JUMPDEST PUSH2 0x2847 DUP5 DUP5 DUP1 DUP1 PUSH1 0x1F ADD PUSH1 0x20 DUP1 SWAP2 DIV MUL PUSH1 0x20 ADD PUSH1 0x40 MLOAD SWAP1 DUP2 ADD PUSH1 0x40 MSTORE DUP1 SWAP4 SWAP3 SWAP2 SWAP1 DUP2 DUP2 MSTORE PUSH1 0x20 ADD DUP4 DUP4 DUP1 DUP3 DUP5 CALLDATACOPY PUSH1 0x0 SWAP3 ADD SWAP2 SWAP1 SWAP2 MSTORE POP POP PUSH1 0x40 DUP1 MLOAD PUSH1 0x20 PUSH1 0x1F DUP9 ADD DUP2 SWAP1 DIV DUP2 MUL DUP3 ADD DUP2 ADD SWAP1 SWAP3 MSTORE DUP7 DUP2 MSTORE SWAP3 POP DUP7 SWAP2 POP DUP6 SWAP1 DUP2 SWAP1 DUP5 ADD DUP4 DUP3 DUP1 DUP3 DUP5 CALLDATACOPY PUSH1 0x0 SWAP3 ADD SWAP2 SWAP1 SWAP2 MSTORE POP PUSH2 0x56D7 SWAP3 POP POP POP JUMP JUMPDEST PUSH2 0x2878 JUMPI PUSH1 0x40 MLOAD PUSH3 0x461BCD PUSH1 0xE5 SHL DUP2 MSTORE PUSH1 0x20 PUSH1 0x4 DUP3 ADD MSTORE PUSH1 0x2 PUSH1 0x24 DUP3 ADD MSTORE PUSH2 0x3537 PUSH1 0xF0 SHL PUSH1 0x44 DUP3 ADD MSTORE PUSH1 0x64 ADD PUSH2 0x695 JUMP JUMPDEST PUSH1 0x0 PUSH2 0x28B9 DUP6 DUP6 DUP1 DUP1 PUSH1 0x1F ADD PUSH1 0x20 DUP1 SWAP2 DIV MUL PUSH1 0x20 ADD PUSH1 0x40 MLOAD SWAP1 DUP2 ADD PUSH1 0x40 MSTORE DUP1 SWAP4 SWAP3 SWAP2 SWAP1 DUP2 DUP2 MSTORE PUSH1 0x20 ADD DUP4 DUP4 DUP1 DUP3 DUP5 CALLDATACOPY PUSH1 0x0 SWAP3 ADD SWAP2 SWAP1 SWAP2 MSTORE POP PUSH2 0x57C2 SWAP3 POP POP POP JUMP JUMPDEST SWAP1 POP PUSH32 0xCCCCCCCCCCCCCCCCCCCCCCCCCCCCCCCCCCCCCCCCCCCCCCCCCCCCCCCCCCCCCCCC DUP2 EQ ISZERO PUSH2 0x2A35 JUMPI PUSH1 0x0 PUSH2 0x2924 DUP7 DUP7 DUP1 DUP1 PUSH1 0x1F ADD PUSH1 0x20 DUP1 SWAP2 DIV MUL PUSH1 0x20 ADD PUSH1 0x40 MLOAD SWAP1 DUP2 ADD PUSH1 0x40 MSTORE DUP1 SWAP4 SWAP3 SWAP2 SWAP1 DUP2 DUP2 MSTORE PUSH1 0x20 ADD DUP4 DUP4 DUP1 DUP3 DUP5 CALLDATACOPY PUSH1 0x0 SWAP3 ADD SWAP2 SWAP1 SWAP2 MSTORE POP PUSH2 0x57C9 SWAP3 POP POP POP JUMP JUMPDEST SWAP1 POP PUSH1 0x0 PUSH2 0x2967 DUP8 DUP8 DUP1 DUP1 PUSH1 0x1F ADD PUSH1 0x20 DUP1 SWAP2 DIV MUL PUSH1 0x20 ADD PUSH1 0x40 MLOAD SWAP1 DUP2 ADD PUSH1 0x40 MSTORE DUP1 SWAP4 SWAP3 SWAP2 SWAP1 DUP2 DUP2 MSTORE PUSH1 0x20 ADD DUP4 DUP4 DUP1 DUP3 DUP5 CALLDATACOPY PUSH1 0x0 SWAP3 ADD SWAP2 SWAP1 SWAP2 MSTORE POP PUSH2 0x57D0 SWAP3 POP POP POP JUMP JUMPDEST SWAP1 POP PUSH1 0x0 PUSH2 0x29AA DUP9 DUP9 DUP1 DUP1 PUSH1 0x1F ADD PUSH1 0x20 DUP1 SWAP2 DIV MUL PUSH1 0x20 ADD PUSH1 0x40 MLOAD SWAP1 DUP2 ADD PUSH1 0x40 MSTORE DUP1 SWAP4 SWAP3 SWAP2 SWAP1 DUP2 DUP2 MSTORE PUSH1 0x20 ADD DUP4 DUP4 DUP1 DUP3 DUP5 CALLDATACOPY PUSH1 0x0 SWAP3 ADD SWAP2 SWAP1 SWAP2 MSTORE POP PUSH2 0x57D7 SWAP3 POP POP POP JUMP JUMPDEST SWAP1 POP PUSH1 0x0 CALLER DUP11 DUP16 PUSH1 0x4 PUSH1 0x1 PUSH1 0x0 PUSH1 0x40 MLOAD PUSH1 0x20 ADD PUSH2 0x29CC SWAP7 SWAP6 SWAP5 SWAP4 SWAP3 SWAP2 SWAP1 PUSH2 0x621D JUMP JUMPDEST PUSH1 0x40 DUP1 MLOAD PUSH1 0x1F NOT DUP2 DUP5 SUB ADD DUP2 MSTORE PUSH1 0x20 PUSH1 0x1F DUP13 ADD DUP2 SWAP1 DIV DUP2 MUL DUP5 ADD DUP2 ADD SWAP1 SWAP3 MSTORE DUP11 DUP4 MSTORE SWAP3 POP PUSH1 0x0 SWAP2 PUSH2 0x2A17 SWAP2 DUP13 SWAP1 DUP13 SWAP1 DUP2 SWAP1 DUP5 ADD DUP4 DUP3 DUP1 DUP3 DUP5 CALLDATACOPY PUSH1 0x0 SWAP3 ADD SWAP2 SWAP1 SWAP2 MSTORE POP PUSH2 0x57DE SWAP3 POP POP POP JUMP JUMPDEST SWAP1 POP PUSH2 0x2A2B DUP14 DUP7 DUP7 DUP7 DUP7 DUP7 PUSH1 0x0 PUSH1 0x1 PUSH2 0x4286 JUMP JUMPDEST POP POP POP POP POP PUSH2 0x2CE1 JUMP JUMPDEST PUSH32 0xDDDDDDDDDDDDDDDDDDDDDDDDDDDDDDDDDDDDDDDDDDDDDDDDDDDDDDDDDDDDDDDD DUP2 EQ ISZERO PUSH2 0x2CE1 JUMPI PUSH1 0x0 PUSH2 0x2A9E DUP7 DUP7 DUP1 DUP1 PUSH1 0x1F ADD PUSH1 0x20 DUP1 SWAP2 DIV MUL PUSH1 0x20 ADD PUSH1 0x40 MLOAD SWAP1 DUP2 ADD PUSH1 0x40 MSTORE DUP1 SWAP4 SWAP3 SWAP2 SWAP1 DUP2 DUP2 MSTORE PUSH1 0x20 ADD DUP4 DUP4 DUP1 DUP3 DUP5 CALLDATACOPY PUSH1 0x0 SWAP3 ADD SWAP2 SWAP1 SWAP2 MSTORE POP PUSH2 0x57C9 SWAP3 POP POP POP JUMP JUMPDEST PUSH1 0x0 DUP2 DUP2 MSTORE PUSH1 0x4 PUSH1 0x20 MSTORE PUSH1 0x40 DUP2 KECCAK256 DUP1 SLOAD SWAP3 SWAP4 POP SWAP2 PUSH1 0x1 PUSH1 0x1 PUSH1 0xA0 SHL SUB DUP13 DUP2 AND SWAP2 AND EQ PUSH2 0x2ACD JUMPI DUP2 PUSH1 0x5 ADD PUSH2 0x2AD2 JUMP JUMPDEST DUP2 PUSH1 0x4 ADD JUMPDEST DUP1 SLOAD PUSH2 0x2ADD SWAP1 PUSH2 0x6575 JUMP JUMPDEST DUP1 PUSH1 0x1F ADD PUSH1 0x20 DUP1 SWAP2 DIV MUL PUSH1 0x20 ADD PUSH1 0x40 MLOAD SWAP1 DUP2 ADD PUSH1 0x40 MSTORE DUP1 SWAP3 SWAP2 SWAP1 DUP2 DUP2 MSTORE PUSH1 0x20 ADD DUP3 DUP1 SLOAD PUSH2 0x2B09 SWAP1 PUSH2 0x6575 JUMP JUMPDEST DUP1 ISZERO PUSH2 0x2B56 JUMPI DUP1 PUSH1 0x1F LT PUSH2 0x2B2B JUMPI PUSH2 0x100 DUP1 DUP4 SLOAD DIV MUL DUP4 MSTORE SWAP2 PUSH1 0x20 ADD SWAP2 PUSH2 0x2B56 JUMP JUMPDEST DUP3 ADD SWAP2 SWAP1 PUSH1 0x0 MSTORE PUSH1 0x20 PUSH1 0x0 KECCAK256 SWAP1 JUMPDEST DUP2 SLOAD DUP2 MSTORE SWAP1 PUSH1 0x1 ADD SWAP1 PUSH1 0x20 ADD DUP1 DUP4 GT PUSH2 0x2B39 JUMPI DUP3 SWAP1 SUB PUSH1 0x1F AND DUP3 ADD SWAP2 JUMPDEST POP POP POP POP POP SWAP1 POP PUSH1 0x0 DUP2 DUP1 PUSH1 0x20 ADD SWAP1 MLOAD DUP2 ADD SWAP1 PUSH2 0x2B73 SWAP2 SWAP1 PUSH2 0x5C4B JUMP JUMPDEST POP POP POP POP POP SWAP1 POP DUP1 PUSH1 0x1 PUSH1 0x1 PUSH1 0xA0 SHL SUB AND CALLER PUSH1 0x1 PUSH1 0x1 PUSH1 0xA0 SHL SUB AND EQ PUSH2 0x2BCE JUMPI PUSH1 0x40 MLOAD PUSH3 0x461BCD PUSH1 0xE5 SHL DUP2 MSTORE PUSH1 0x20 PUSH1 0x4 DUP3 ADD MSTORE PUSH1 0x10 PUSH1 0x24 DUP3 ADD MSTORE PUSH16 0x15DC9BDB99C81D1BDAD95B881CD95B9D PUSH1 0x82 SHL PUSH1 0x44 DUP3 ADD MSTORE PUSH1 0x64 ADD PUSH2 0x695 JUMP JUMPDEST PUSH1 0x0 DUP3 DUP1 PUSH1 0x20 ADD SWAP1 MLOAD DUP2 ADD SWAP1 PUSH2 0x2BE4 SWAP2 SWAP1 PUSH2 0x5C4B JUMP JUMPDEST POP POP POP SWAP3 POP POP POP DUP1 DUP16 EQ PUSH2 0x2C45 JUMPI PUSH1 0x40 MLOAD PUSH3 0x461BCD PUSH1 0xE5 SHL DUP2 MSTORE PUSH1 0x20 PUSH1 0x4 DUP3 ADD MSTORE PUSH1 0x22 PUSH1 0x24 DUP3 ADD MSTORE PUSH32 0x546F6B656E73206F66207468652077726F6E6720706172746974696F6E207365 PUSH1 0x44 DUP3 ADD MSTORE PUSH2 0x1B9D PUSH1 0xF2 SHL PUSH1 0x64 DUP3 ADD MSTORE PUSH1 0x84 ADD PUSH2 0x695 JUMP JUMPDEST PUSH1 0x0 DUP4 DUP1 PUSH1 0x20 ADD SWAP1 MLOAD DUP2 ADD SWAP1 PUSH2 0x2C5B SWAP2 SWAP1 PUSH2 0x5C4B JUMP JUMPDEST POP POP SWAP4 POP POP POP POP DUP1 PUSH1 0x4 DUP2 GT ISZERO PUSH2 0x2C74 JUMPI PUSH2 0x2C74 PUSH2 0x65DB JUMP JUMPDEST PUSH1 0x4 EQ PUSH2 0x2CCD JUMPI PUSH1 0x40 MLOAD PUSH3 0x461BCD PUSH1 0xE5 SHL DUP2 MSTORE PUSH1 0x20 PUSH1 0x4 DUP3 ADD MSTORE PUSH1 0x21 PUSH1 0x24 DUP3 ADD MSTORE PUSH32 0x546F6B656E73206F66207468652077726F6E67207374616E646172642073656E PUSH1 0x44 DUP3 ADD MSTORE PUSH1 0x1D PUSH1 0xFA SHL PUSH1 0x64 DUP3 ADD MSTORE PUSH1 0x84 ADD PUSH2 0x695 JUMP JUMPDEST PUSH2 0x2CDA DUP7 DUP16 PUSH1 0x0 DUP16 PUSH2 0x46E2 JUMP JUMPDEST POP POP POP POP POP POP JUMPDEST POP POP POP POP POP POP POP POP POP POP POP POP JUMP JUMPDEST PUSH1 0x0 PUSH2 0x2D64 DUP6 DUP6 DUP1 DUP1 PUSH1 0x1F ADD PUSH1 0x20 DUP1 SWAP2 DIV MUL PUSH1 0x20 ADD PUSH1 0x40 MLOAD SWAP1 DUP2 ADD PUSH1 0x40 MSTORE DUP1 SWAP4 SWAP3 SWAP2 SWAP1 DUP2 DUP2 MSTORE PUSH1 0x20 ADD DUP4 DUP4 DUP1 DUP3 DUP5 CALLDATACOPY PUSH1 0x0 SWAP3 ADD SWAP2 SWAP1 SWAP2 MSTORE POP POP PUSH1 0x40 DUP1 MLOAD PUSH1 0x20 PUSH1 0x1F DUP10 ADD DUP2 SWAP1 DIV DUP2 MUL DUP3 ADD DUP2 ADD SWAP1 SWAP3 MSTORE DUP8 DUP2 MSTORE SWAP3 POP DUP8 SWAP2 POP DUP7 SWAP1 DUP2 SWAP1 DUP5 ADD DUP4 DUP3 DUP1 DUP3 DUP5 CALLDATACOPY PUSH1 0x0 SWAP3 ADD SWAP2 SWAP1 SWAP2 MSTORE POP PUSH2 0x56D7 SWAP3 POP POP POP JUMP JUMPDEST SWAP13 SWAP12 POP POP POP POP POP POP POP POP POP POP POP POP JUMP JUMPDEST PUSH1 0x1 PUSH1 0x2 PUSH1 0x0 DUP4 PUSH1 0x40 MLOAD PUSH1 0x20 ADD PUSH2 0x2D8B SWAP2 SWAP1 PUSH2 0x615F JUMP JUMPDEST PUSH1 0x40 DUP1 MLOAD DUP1 DUP4 SUB PUSH1 0x1F NOT ADD DUP2 MSTORE SWAP2 DUP2 MSTORE DUP2 MLOAD PUSH1 0x20 SWAP3 DUP4 ADD KECCAK256 DUP4 MSTORE SWAP1 DUP3 ADD SWAP3 SWAP1 SWAP3 MSTORE ADD PUSH1 0x0 KECCAK256 DUP1 SLOAD PUSH1 0xFF NOT AND SWAP2 ISZERO ISZERO SWAP2 SWAP1 SWAP2 OR SWAP1 SSTORE POP JUMP JUMPDEST PUSH1 0x1 PUSH1 0x1 PUSH1 0xA0 SHL SUB DUP1 DUP4 AND PUSH1 0x0 SWAP1 DUP2 MSTORE PUSH1 0x6 PUSH1 0x20 SWAP1 DUP2 MSTORE PUSH1 0x40 DUP1 DUP4 KECCAK256 SWAP4 DUP6 AND DUP4 MSTORE SWAP3 SWAP1 MSTORE SWAP1 DUP2 KECCAK256 SLOAD PUSH1 0xFF AND DUP1 PUSH2 0x2E79 JUMPI POP DUP3 PUSH1 0x1 PUSH1 0x1 PUSH1 0xA0 SHL SUB AND PUSH4 0x8DA5CB5B PUSH1 0x40 MLOAD DUP2 PUSH4 0xFFFFFFFF AND PUSH1 0xE0 SHL DUP2 MSTORE PUSH1 0x4 ADD PUSH1 0x20 PUSH1 0x40 MLOAD DUP1 DUP4 SUB DUP2 DUP7 DUP1 EXTCODESIZE ISZERO DUP1 ISZERO PUSH2 0x2E2C JUMPI PUSH1 0x0 DUP1 REVERT JUMPDEST POP GAS STATICCALL ISZERO DUP1 ISZERO PUSH2 0x2E40 JUMPI RETURNDATASIZE PUSH1 0x0 DUP1 RETURNDATACOPY RETURNDATASIZE PUSH1 0x0 REVERT JUMPDEST POP POP POP POP PUSH1 0x40 MLOAD RETURNDATASIZE PUSH1 0x1F NOT PUSH1 0x1F DUP3 ADD AND DUP3 ADD DUP1 PUSH1 0x40 MSTORE POP DUP2 ADD SWAP1 PUSH2 0x2E64 SWAP2 SWAP1 PUSH2 0x5BB9 JUMP JUMPDEST PUSH1 0x1 PUSH1 0x1 PUSH1 0xA0 SHL SUB AND DUP3 PUSH1 0x1 PUSH1 0x1 PUSH1 0xA0 SHL SUB AND EQ JUMPDEST SWAP4 SWAP3 POP POP POP JUMP JUMPDEST PUSH1 0x0 JUMPDEST PUSH1 0x1 PUSH1 0x1 PUSH1 0xA0 SHL SUB DUP4 AND PUSH1 0x0 SWAP1 DUP2 MSTORE PUSH1 0x5 PUSH1 0x20 MSTORE PUSH1 0x40 SWAP1 KECCAK256 SLOAD DUP2 LT ISZERO PUSH2 0x2F20 JUMPI PUSH1 0x1 PUSH1 0x1 PUSH1 0xA0 SHL SUB DUP4 AND PUSH1 0x0 SWAP1 DUP2 MSTORE PUSH1 0x6 PUSH1 0x20 SWAP1 DUP2 MSTORE PUSH1 0x40 DUP1 DUP4 KECCAK256 PUSH1 0x5 SWAP1 SWAP3 MSTORE DUP3 KECCAK256 DUP1 SLOAD DUP4 SWAP2 SWAP1 DUP6 SWAP1 DUP2 LT PUSH2 0x2EDA JUMPI PUSH2 0x2EDA PUSH2 0x65F1 JUMP JUMPDEST PUSH1 0x0 SWAP2 DUP3 MSTORE PUSH1 0x20 DUP1 DUP4 KECCAK256 SWAP2 SWAP1 SWAP2 ADD SLOAD PUSH1 0x1 PUSH1 0x1 PUSH1 0xA0 SHL SUB AND DUP4 MSTORE DUP3 ADD SWAP3 SWAP1 SWAP3 MSTORE PUSH1 0x40 ADD SWAP1 KECCAK256 DUP1 SLOAD PUSH1 0xFF NOT AND SWAP2 ISZERO ISZERO SWAP2 SWAP1 SWAP2 OR SWAP1 SSTORE DUP1 PUSH2 0x2F18 DUP2 PUSH2 0x65AA JUMP JUMPDEST SWAP2 POP POP PUSH2 0x2E83 JUMP JUMPDEST POP PUSH1 0x0 JUMPDEST DUP2 MLOAD DUP2 LT ISZERO PUSH2 0x2FA1 JUMPI PUSH1 0x1 PUSH1 0x1 PUSH1 0xA0 SHL SUB DUP4 AND PUSH1 0x0 SWAP1 DUP2 MSTORE PUSH1 0x6 PUSH1 0x20 MSTORE PUSH1 0x40 DUP2 KECCAK256 DUP4 MLOAD PUSH1 0x1 SWAP3 SWAP1 DUP6 SWAP1 DUP6 SWAP1 DUP2 LT PUSH2 0x2F5D JUMPI PUSH2 0x2F5D PUSH2 0x65F1 JUMP JUMPDEST PUSH1 0x20 SWAP1 DUP2 MUL SWAP2 SWAP1 SWAP2 ADD DUP2 ADD MLOAD PUSH1 0x1 PUSH1 0x1 PUSH1 0xA0 SHL SUB AND DUP3 MSTORE DUP2 ADD SWAP2 SWAP1 SWAP2 MSTORE PUSH1 0x40 ADD PUSH1 0x0 KECCAK256 DUP1 SLOAD PUSH1 0xFF NOT AND SWAP2 ISZERO ISZERO SWAP2 SWAP1 SWAP2 OR SWAP1 SSTORE DUP1 PUSH2 0x2F99 DUP2 PUSH2 0x65AA JUMP JUMPDEST SWAP2 POP POP PUSH2 0x2F24 JUMP JUMPDEST POP PUSH1 0x1 PUSH1 0x1 PUSH1 0xA0 SHL SUB DUP3 AND PUSH1 0x0 SWAP1 DUP2 MSTORE PUSH1 0x5 PUSH1 0x20 SWAP1 DUP2 MSTORE PUSH1 0x40 SWAP1 SWAP2 KECCAK256 DUP3 MLOAD PUSH2 0x256C SWAP3 DUP5 ADD SWAP1 PUSH2 0x5A94 JUMP JUMPDEST PUSH1 0x0 DUP2 DUP2 MSTORE PUSH1 0x4 PUSH1 0x20 DUP2 SWAP1 MSTORE PUSH1 0x40 DUP3 KECCAK256 SWAP1 DUP2 ADD DUP1 SLOAD DUP4 SWAP2 SWAP1 PUSH2 0x2FEC SWAP1 PUSH2 0x6575 JUMP JUMPDEST DUP1 PUSH1 0x1F ADD PUSH1 0x20 DUP1 SWAP2 DIV MUL PUSH1 0x20 ADD PUSH1 0x40 MLOAD SWAP1 DUP2 ADD PUSH1 0x40 MSTORE DUP1 SWAP3 SWAP2 SWAP1 DUP2 DUP2 MSTORE PUSH1 0x20 ADD DUP3 DUP1 SLOAD PUSH2 0x3018 SWAP1 PUSH2 0x6575 JUMP JUMPDEST DUP1 ISZERO PUSH2 0x3065 JUMPI DUP1 PUSH1 0x1F LT PUSH2 0x303A JUMPI PUSH2 0x100 DUP1 DUP4 SLOAD DIV MUL DUP4 MSTORE SWAP2 PUSH1 0x20 ADD SWAP2 PUSH2 0x3065 JUMP JUMPDEST DUP3 ADD SWAP2 SWAP1 PUSH1 0x0 MSTORE PUSH1 0x20 PUSH1 0x0 KECCAK256 SWAP1 JUMPDEST DUP2 SLOAD DUP2 MSTORE SWAP1 PUSH1 0x1 ADD SWAP1 PUSH1 0x20 ADD DUP1 DUP4 GT PUSH2 0x3048 JUMPI DUP3 SWAP1 SUB PUSH1 0x1F AND DUP3 ADD SWAP2 JUMPDEST POP POP POP POP POP DUP1 PUSH1 0x20 ADD SWAP1 MLOAD DUP2 ADD SWAP1 PUSH2 0x307D SWAP2 SWAP1 PUSH2 0x5C4B JUMP JUMPDEST POP SWAP5 POP POP POP POP POP PUSH1 0x0 DUP3 PUSH1 0x5 ADD DUP1 SLOAD PUSH2 0x3095 SWAP1 PUSH2 0x6575 JUMP JUMPDEST DUP1 PUSH1 0x1F ADD PUSH1 0x20 DUP1 SWAP2 DIV MUL PUSH1 0x20 ADD PUSH1 0x40 MLOAD SWAP1 DUP2 ADD PUSH1 0x40 MSTORE DUP1 SWAP3 SWAP2 SWAP1 DUP2 DUP2 MSTORE PUSH1 0x20 ADD DUP3 DUP1 SLOAD PUSH2 0x30C1 SWAP1 PUSH2 0x6575 JUMP JUMPDEST DUP1 ISZERO PUSH2 0x310E JUMPI DUP1 PUSH1 0x1F LT PUSH2 0x30E3 JUMPI PUSH2 0x100 DUP1 DUP4 SLOAD DIV MUL DUP4 MSTORE SWAP2 PUSH1 0x20 ADD SWAP2 PUSH2 0x310E JUMP JUMPDEST DUP3 ADD SWAP2 SWAP1 PUSH1 0x0 MSTORE PUSH1 0x20 PUSH1 0x0 KECCAK256 SWAP1 JUMPDEST DUP2 SLOAD DUP2 MSTORE SWAP1 PUSH1 0x1 ADD SWAP1 PUSH1 0x20 ADD DUP1 DUP4 GT PUSH2 0x30F1 JUMPI DUP3 SWAP1 SUB PUSH1 0x1F AND DUP3 ADD SWAP2 JUMPDEST POP POP POP POP POP DUP1 PUSH1 0x20 ADD SWAP1 MLOAD DUP2 ADD SWAP1 PUSH2 0x3126 SWAP2 SWAP1 PUSH2 0x5C4B JUMP JUMPDEST POP SWAP5 POP PUSH1 0x1 SWAP4 POP PUSH2 0x3136 SWAP3 POP POP POP JUMP JUMPDEST PUSH1 0x6 DUP5 ADD SLOAD PUSH1 0xFF AND PUSH1 0x1 DUP2 GT ISZERO PUSH2 0x314F JUMPI PUSH2 0x314F PUSH2 0x65DB JUMP JUMPDEST EQ DUP1 ISZERO PUSH2 0x317A JUMPI POP PUSH1 0x1 PUSH1 0x6 DUP5 ADD SLOAD PUSH3 0x10000 SWAP1 DIV PUSH1 0xFF AND PUSH1 0x4 DUP2 GT ISZERO PUSH2 0x3178 JUMPI PUSH2 0x3178 PUSH2 0x65DB JUMP JUMPDEST EQ JUMPDEST ISZERO PUSH2 0x3263 JUMPI DUP3 SLOAD PUSH1 0x4 DUP5 ADD DUP1 SLOAD PUSH2 0x3222 SWAP3 PUSH1 0x1 PUSH1 0x1 PUSH1 0xA0 SHL SUB AND SWAP2 SWAP1 PUSH2 0x319F SWAP1 PUSH2 0x6575 JUMP JUMPDEST DUP1 PUSH1 0x1F ADD PUSH1 0x20 DUP1 SWAP2 DIV MUL PUSH1 0x20 ADD PUSH1 0x40 MLOAD SWAP1 DUP2 ADD PUSH1 0x40 MSTORE DUP1 SWAP3 SWAP2 SWAP1 DUP2 DUP2 MSTORE PUSH1 0x20 ADD DUP3 DUP1 SLOAD PUSH2 0x31CB SWAP1 PUSH2 0x6575 JUMP JUMPDEST DUP1 ISZERO PUSH2 0x3218 JUMPI DUP1 PUSH1 0x1F LT PUSH2 0x31ED JUMPI PUSH2 0x100 DUP1 DUP4 SLOAD DIV MUL DUP4 MSTORE SWAP2 PUSH1 0x20 ADD SWAP2 PUSH2 0x3218 JUMP JUMPDEST DUP3 ADD SWAP2 SWAP1 PUSH1 0x0 MSTORE PUSH1 0x20 PUSH1 0x0 KECCAK256 SWAP1 JUMPDEST DUP2 SLOAD DUP2 MSTORE SWAP1 PUSH1 0x1 ADD SWAP1 PUSH1 0x20 ADD DUP1 DUP4 GT PUSH2 0x31FB JUMPI DUP3 SWAP1 SUB PUSH1 0x1F AND DUP3 ADD SWAP2 JUMPDEST POP POP POP POP POP PUSH2 0x5830 JUMP JUMPDEST PUSH2 0x3231 JUMPI POP PUSH1 0x0 SWAP5 SWAP4 POP POP POP POP JUMP JUMPDEST PUSH1 0x1 DUP4 ADD SLOAD PUSH1 0x5 DUP5 ADD DUP1 SLOAD PUSH2 0x3254 SWAP3 PUSH1 0x1 PUSH1 0x1 PUSH1 0xA0 SHL SUB AND SWAP2 SWAP1 PUSH2 0x319F SWAP1 PUSH2 0x6575 JUMP JUMPDEST PUSH2 0x3263 JUMPI POP PUSH1 0x0 SWAP5 SWAP4 POP POP POP POP JUMP JUMPDEST DUP2 DUP1 ISZERO PUSH2 0x326D JUMPI POP DUP1 JUMPDEST SWAP6 SWAP5 POP POP POP POP POP JUMP JUMPDEST PUSH1 0x0 DUP2 DUP2 MSTORE PUSH1 0x4 PUSH1 0x20 DUP2 SWAP1 MSTORE PUSH1 0x40 DUP3 KECCAK256 SWAP1 DUP2 ADD DUP1 SLOAD DUP4 SWAP2 DUP3 SWAP2 PUSH2 0x3298 SWAP1 PUSH2 0x6575 JUMP JUMPDEST DUP1 PUSH1 0x1F ADD PUSH1 0x20 DUP1 SWAP2 DIV MUL PUSH1 0x20 ADD PUSH1 0x40 MLOAD SWAP1 DUP2 ADD PUSH1 0x40 MSTORE DUP1 SWAP3 SWAP2 SWAP1 DUP2 DUP2 MSTORE PUSH1 0x20 ADD DUP3 DUP1 SLOAD PUSH2 0x32C4 SWAP1 PUSH2 0x6575 JUMP JUMPDEST DUP1 ISZERO PUSH2 0x3311 JUMPI DUP1 PUSH1 0x1F LT PUSH2 0x32E6 JUMPI PUSH2 0x100 DUP1 DUP4 SLOAD DIV MUL DUP4 MSTORE SWAP2 PUSH1 0x20 ADD SWAP2 PUSH2 0x3311 JUMP JUMPDEST DUP3 ADD SWAP2 SWAP1 PUSH1 0x0 MSTORE PUSH1 0x20 PUSH1 0x0 KECCAK256 SWAP1 JUMPDEST DUP2 SLOAD DUP2 MSTORE SWAP1 PUSH1 0x1 ADD SWAP1 PUSH1 0x20 ADD DUP1 DUP4 GT PUSH2 0x32F4 JUMPI DUP3 SWAP1 SUB PUSH1 0x1F AND DUP3 ADD SWAP2 JUMPDEST POP POP POP POP POP DUP1 PUSH1 0x20 ADD SWAP1 MLOAD DUP2 ADD SWAP1 PUSH2 0x3329 SWAP2 SWAP1 PUSH2 0x5C4B JUMP JUMPDEST SWAP6 POP POP POP POP POP SWAP2 POP PUSH1 0x0 DUP1 DUP5 PUSH1 0x5 ADD DUP1 SLOAD PUSH2 0x3343 SWAP1 PUSH2 0x6575 JUMP JUMPDEST DUP1 PUSH1 0x1F ADD PUSH1 0x20 DUP1 SWAP2 DIV MUL PUSH1 0x20 ADD PUSH1 0x40 MLOAD SWAP1 DUP2 ADD PUSH1 0x40 MSTORE DUP1 SWAP3 SWAP2 SWAP1 DUP2 DUP2 MSTORE PUSH1 0x20 ADD DUP3 DUP1 SLOAD PUSH2 0x336F SWAP1 PUSH2 0x6575 JUMP JUMPDEST DUP1 ISZERO PUSH2 0x33BC JUMPI DUP1 PUSH1 0x1F LT PUSH2 0x3391 JUMPI PUSH2 0x100 DUP1 DUP4 SLOAD DIV MUL DUP4 MSTORE SWAP2 PUSH1 0x20 ADD SWAP2 PUSH2 0x33BC JUMP JUMPDEST DUP3 ADD SWAP2 SWAP1 PUSH1 0x0 MSTORE PUSH1 0x20 PUSH1 0x0 KECCAK256 SWAP1 JUMPDEST DUP2 SLOAD DUP2 MSTORE SWAP1 PUSH1 0x1 ADD SWAP1 PUSH1 0x20 ADD DUP1 DUP4 GT PUSH2 0x339F JUMPI DUP3 SWAP1 SUB PUSH1 0x1F AND DUP3 ADD SWAP2 JUMPDEST POP POP POP POP POP DUP1 PUSH1 0x20 ADD SWAP1 MLOAD DUP2 ADD SWAP1 PUSH2 0x33D4 SWAP2 SWAP1 PUSH2 0x5C4B JUMP JUMPDEST PUSH1 0x1 PUSH1 0x1 PUSH1 0xA0 SHL SUB DUP11 AND PUSH1 0x0 SWAP1 DUP2 MSTORE PUSH1 0xC PUSH1 0x20 MSTORE PUSH1 0x40 SWAP1 KECCAK256 SLOAD SWAP6 SWAP8 POP SWAP6 POP POP POP SWAP2 ISZERO DUP1 ISZERO SWAP3 POP SWAP1 POP PUSH2 0x3404 JUMPI POP DUP3 ISZERO JUMPDEST ISZERO PUSH2 0x3416 JUMPI POP PUSH1 0x0 SWAP7 SWAP6 POP POP POP POP POP POP JUMP JUMPDEST PUSH1 0x1 PUSH1 0x1 PUSH1 0xA0 SHL SUB DUP3 AND PUSH1 0x0 SWAP1 DUP2 MSTORE PUSH1 0xC PUSH1 0x20 MSTORE PUSH1 0x40 SWAP1 KECCAK256 SLOAD ISZERO DUP1 ISZERO SWAP1 PUSH2 0x343B JUMPI POP DUP1 ISZERO JUMPDEST ISZERO PUSH2 0x344D JUMPI POP PUSH1 0x0 SWAP7 SWAP6 POP POP POP POP POP POP JUMP JUMPDEST POP PUSH1 0x1 SWAP7 SWAP6 POP POP POP POP POP POP JUMP JUMPDEST PUSH1 0x0 DUP2 DUP2 MSTORE PUSH1 0x4 PUSH1 0x20 MSTORE PUSH1 0x40 DUP2 KECCAK256 SWAP1 PUSH2 0x3472 DUP4 PUSH2 0x4DD7 JUMP JUMPDEST SWAP1 POP PUSH1 0x0 DUP3 PUSH1 0x4 ADD DUP1 SLOAD PUSH2 0x3485 SWAP1 PUSH2 0x6575 JUMP JUMPDEST DUP1 PUSH1 0x1F ADD PUSH1 0x20 DUP1 SWAP2 DIV MUL PUSH1 0x20 ADD PUSH1 0x40 MLOAD SWAP1 DUP2 ADD PUSH1 0x40 MSTORE DUP1 SWAP3 SWAP2 SWAP1 DUP2 DUP2 MSTORE PUSH1 0x20 ADD DUP3 DUP1 SLOAD PUSH2 0x34B1 SWAP1 PUSH2 0x6575 JUMP JUMPDEST DUP1 ISZERO PUSH2 0x34FE JUMPI DUP1 PUSH1 0x1F LT PUSH2 0x34D3 JUMPI PUSH2 0x100 DUP1 DUP4 SLOAD DIV MUL DUP4 MSTORE SWAP2 PUSH1 0x20 ADD SWAP2 PUSH2 0x34FE JUMP JUMPDEST DUP3 ADD SWAP2 SWAP1 PUSH1 0x0 MSTORE PUSH1 0x20 PUSH1 0x0 KECCAK256 SWAP1 JUMPDEST DUP2 SLOAD DUP2 MSTORE SWAP1 PUSH1 0x1 ADD SWAP1 PUSH1 0x20 ADD DUP1 DUP4 GT PUSH2 0x34E1 JUMPI DUP3 SWAP1 SUB PUSH1 0x1F AND DUP3 ADD SWAP2 JUMPDEST POP POP POP POP POP DUP1 PUSH1 0x20 ADD SWAP1 MLOAD DUP2 ADD SWAP1 PUSH2 0x3516 SWAP2 SWAP1 PUSH2 0x5C4B JUMP JUMPDEST POP POP POP POP SWAP2 POP POP PUSH1 0x0 DUP4 PUSH1 0x5 ADD DUP1 SLOAD PUSH2 0x352E SWAP1 PUSH2 0x6575 JUMP JUMPDEST DUP1 PUSH1 0x1F ADD PUSH1 0x20 DUP1 SWAP2 DIV MUL PUSH1 0x20 ADD PUSH1 0x40 MLOAD SWAP1 DUP2 ADD PUSH1 0x40 MSTORE DUP1 SWAP3 SWAP2 SWAP1 DUP2 DUP2 MSTORE PUSH1 0x20 ADD DUP3 DUP1 SLOAD PUSH2 0x355A SWAP1 PUSH2 0x6575 JUMP JUMPDEST DUP1 ISZERO PUSH2 0x35A7 JUMPI DUP1 PUSH1 0x1F LT PUSH2 0x357C JUMPI PUSH2 0x100 DUP1 DUP4 SLOAD DIV MUL DUP4 MSTORE SWAP2 PUSH1 0x20 ADD SWAP2 PUSH2 0x35A7 JUMP JUMPDEST DUP3 ADD SWAP2 SWAP1 PUSH1 0x0 MSTORE PUSH1 0x20 PUSH1 0x0 KECCAK256 SWAP1 JUMPDEST DUP2 SLOAD DUP2 MSTORE SWAP1 PUSH1 0x1 ADD SWAP1 PUSH1 0x20 ADD DUP1 DUP4 GT PUSH2 0x358A JUMPI DUP3 SWAP1 SUB PUSH1 0x1F AND DUP3 ADD SWAP2 JUMPDEST POP POP POP POP POP DUP1 PUSH1 0x20 ADD SWAP1 MLOAD DUP2 ADD SWAP1 PUSH2 0x35BF SWAP2 SWAP1 PUSH2 0x5C4B JUMP JUMPDEST POP POP POP POP SWAP2 POP POP DUP1 DUP4 EQ ISZERO PUSH2 0x35EF JUMPI PUSH2 0x35DC DUP6 PUSH1 0x0 DUP5 PUSH1 0x0 PUSH2 0x36C3 JUMP JUMPDEST PUSH2 0x35EA DUP6 PUSH1 0x1 DUP4 PUSH1 0x0 PUSH2 0x36C3 JUMP JUMPDEST PUSH2 0x36AB JUMP JUMPDEST DUP1 DUP4 GT ISZERO PUSH2 0x3657 JUMPI PUSH1 0x40 MLOAD PUSH3 0x461BCD PUSH1 0xE5 SHL DUP2 MSTORE PUSH1 0x20 PUSH1 0x4 DUP3 ADD MSTORE PUSH1 0x2F PUSH1 0x24 DUP3 ADD MSTORE PUSH32 0x507269636520697320686967686572207468616E20616D6F756E742065736372 PUSH1 0x44 DUP3 ADD MSTORE PUSH15 0x1BDDD9590BD85D5D1A1BDC9A5E9959 PUSH1 0x8A SHL PUSH1 0x64 DUP3 ADD MSTORE PUSH1 0x84 ADD PUSH2 0x695 JUMP JUMPDEST PUSH2 0x3665 DUP6 PUSH1 0x0 DUP5 PUSH1 0x0 PUSH2 0x36C3 JUMP JUMPDEST PUSH2 0x3673 DUP6 PUSH1 0x1 DUP6 PUSH1 0x0 PUSH2 0x36C3 JUMP JUMPDEST PUSH1 0x0 PUSH1 0x6 DUP6 ADD SLOAD PUSH1 0xFF AND PUSH1 0x1 DUP2 GT ISZERO PUSH2 0x368E JUMPI PUSH2 0x368E PUSH2 0x65DB JUMP JUMPDEST EQ ISZERO PUSH2 0x36AB JUMPI PUSH2 0x36AB DUP6 PUSH1 0x1 PUSH2 0x36A4 DUP7 DUP6 PUSH2 0x6532 JUMP JUMPDEST PUSH1 0x1 PUSH2 0x36C3 JUMP JUMPDEST POP POP POP PUSH1 0x6 ADD DUP1 SLOAD PUSH3 0xFF0000 NOT AND PUSH3 0x20000 OR SWAP1 SSTORE POP JUMP JUMPDEST PUSH1 0x0 DUP5 DUP2 MSTORE PUSH1 0x4 PUSH1 0x20 MSTORE PUSH1 0x40 DUP2 KECCAK256 SWAP1 DUP1 DUP6 PUSH1 0x1 DUP2 GT ISZERO PUSH2 0x36E5 JUMPI PUSH2 0x36E5 PUSH2 0x65DB JUMP JUMPDEST EQ PUSH2 0x36FD JUMPI PUSH1 0x1 DUP3 ADD SLOAD PUSH1 0x1 PUSH1 0x1 PUSH1 0xA0 SHL SUB AND PUSH2 0x3709 JUMP JUMPDEST DUP2 SLOAD PUSH1 0x1 PUSH1 0x1 PUSH1 0xA0 SHL SUB AND JUMPDEST SWAP1 POP PUSH1 0x0 DUP1 DUP7 PUSH1 0x1 DUP2 GT ISZERO PUSH2 0x3720 JUMPI PUSH2 0x3720 PUSH2 0x65DB JUMP JUMPDEST EQ PUSH2 0x3735 JUMPI DUP3 SLOAD PUSH1 0x1 PUSH1 0x1 PUSH1 0xA0 SHL SUB AND PUSH2 0x3744 JUMP JUMPDEST PUSH1 0x1 DUP4 ADD SLOAD PUSH1 0x1 PUSH1 0x1 PUSH1 0xA0 SHL SUB AND JUMPDEST SWAP1 POP PUSH1 0x0 DUP1 DUP8 PUSH1 0x1 DUP2 GT ISZERO PUSH2 0x375B JUMPI PUSH2 0x375B PUSH2 0x65DB JUMP JUMPDEST EQ PUSH2 0x3769 JUMPI DUP4 PUSH1 0x5 ADD PUSH2 0x376E JUMP JUMPDEST DUP4 PUSH1 0x4 ADD JUMPDEST DUP1 SLOAD PUSH2 0x3779 SWAP1 PUSH2 0x6575 JUMP JUMPDEST DUP1 PUSH1 0x1F ADD PUSH1 0x20 DUP1 SWAP2 DIV MUL PUSH1 0x20 ADD PUSH1 0x40 MLOAD SWAP1 DUP2 ADD PUSH1 0x40 MSTORE DUP1 SWAP3 SWAP2 SWAP1 DUP2 DUP2 MSTORE PUSH1 0x20 ADD DUP3 DUP1 SLOAD PUSH2 0x37A5 SWAP1 PUSH2 0x6575 JUMP JUMPDEST DUP1 ISZERO PUSH2 0x37F2 JUMPI DUP1 PUSH1 0x1F LT PUSH2 0x37C7 JUMPI PUSH2 0x100 DUP1 DUP4 SLOAD DIV MUL DUP4 MSTORE SWAP2 PUSH1 0x20 ADD SWAP2 PUSH2 0x37F2 JUMP JUMPDEST DUP3 ADD SWAP2 SWAP1 PUSH1 0x0 MSTORE PUSH1 0x20 PUSH1 0x0 KECCAK256 SWAP1 JUMPDEST DUP2 SLOAD DUP2 MSTORE SWAP1 PUSH1 0x1 ADD SWAP1 PUSH1 0x20 ADD DUP1 DUP4 GT PUSH2 0x37D5 JUMPI DUP3 SWAP1 SUB PUSH1 0x1F AND DUP3 ADD SWAP2 JUMPDEST POP POP POP POP POP SWAP1 POP PUSH1 0x0 DUP1 PUSH1 0x0 DUP4 DUP1 PUSH1 0x20 ADD SWAP1 MLOAD DUP2 ADD SWAP1 PUSH2 0x3812 SWAP2 SWAP1 PUSH2 0x5C4B JUMP JUMPDEST POP SWAP4 SWAP7 POP SWAP1 SWAP5 POP SWAP3 POP DUP8 SWAP2 POP PUSH1 0x0 SWAP1 POP PUSH1 0x6 DUP10 ADD SLOAD PUSH1 0xFF AND PUSH1 0x1 DUP2 GT ISZERO PUSH2 0x383B JUMPI PUSH2 0x383B PUSH2 0x65DB JUMP JUMPDEST EQ ISZERO PUSH2 0x3844 JUMPI POP ADDRESS JUMPDEST DUP9 ISZERO PUSH2 0x3852 JUMPI DUP7 SWAP6 POP PUSH2 0x38A6 JUMP JUMPDEST DUP8 PUSH1 0x3 ADD SLOAD TIMESTAMP GT ISZERO PUSH2 0x38A6 JUMPI PUSH1 0x40 MLOAD PUSH3 0x461BCD PUSH1 0xE5 SHL DUP2 MSTORE PUSH1 0x20 PUSH1 0x4 DUP3 ADD MSTORE PUSH1 0x17 PUSH1 0x24 DUP3 ADD MSTORE PUSH32 0x45787069726174696F6E20646174652069732070617374000000000000000000 PUSH1 0x44 DUP3 ADD MSTORE PUSH1 0x64 ADD PUSH2 0x695 JUMP JUMPDEST PUSH1 0x1 DUP3 PUSH1 0x4 DUP2 GT ISZERO PUSH2 0x38BA JUMPI PUSH2 0x38BA PUSH2 0x65DB JUMP JUMPDEST EQ ISZERO PUSH2 0x38FF JUMPI PUSH1 0x40 MLOAD DUP7 SWAP1 PUSH1 0x1 PUSH1 0x1 PUSH1 0xA0 SHL SUB DUP3 AND SWAP1 DUP13 ISZERO PUSH2 0x8FC MUL SWAP1 DUP14 SWAP1 PUSH1 0x0 DUP2 DUP2 DUP2 DUP6 DUP9 DUP9 CALL SWAP4 POP POP POP POP ISZERO DUP1 ISZERO PUSH2 0x38F8 JUMPI RETURNDATASIZE PUSH1 0x0 DUP1 RETURNDATACOPY RETURNDATASIZE PUSH1 0x0 REVERT JUMPDEST POP POP PUSH2 0x2CE1 JUMP JUMPDEST PUSH1 0x2 DUP3 PUSH1 0x4 DUP2 GT ISZERO PUSH2 0x3913 JUMPI PUSH2 0x3913 PUSH2 0x65DB JUMP JUMPDEST EQ ISZERO PUSH2 0x39E3 JUMPI PUSH1 0x1 PUSH1 0x1 PUSH1 0xA0 SHL SUB DUP2 AND ADDRESS EQ ISZERO PUSH2 0x39B3 JUMPI PUSH1 0x40 MLOAD PUSH4 0xA9059CBB PUSH1 0xE0 SHL DUP2 MSTORE PUSH1 0x1 PUSH1 0x1 PUSH1 0xA0 SHL SUB DUP8 DUP2 AND PUSH1 0x4 DUP4 ADD MSTORE PUSH1 0x24 DUP3 ADD DUP13 SWAP1 MSTORE DUP6 AND SWAP1 PUSH4 0xA9059CBB SWAP1 PUSH1 0x44 ADD JUMPDEST PUSH1 0x20 PUSH1 0x40 MLOAD DUP1 DUP4 SUB DUP2 PUSH1 0x0 DUP8 DUP1 EXTCODESIZE ISZERO DUP1 ISZERO PUSH2 0x3975 JUMPI PUSH1 0x0 DUP1 REVERT JUMPDEST POP GAS CALL ISZERO DUP1 ISZERO PUSH2 0x3989 JUMPI RETURNDATASIZE PUSH1 0x0 DUP1 RETURNDATACOPY RETURNDATASIZE PUSH1 0x0 REVERT JUMPDEST POP POP POP POP PUSH1 0x40 MLOAD RETURNDATASIZE PUSH1 0x1F NOT PUSH1 0x1F DUP3 ADD AND DUP3 ADD DUP1 PUSH1 0x40 MSTORE POP DUP2 ADD SWAP1 PUSH2 0x39AD SWAP2 SWAP1 PUSH2 0x5E9D JUMP JUMPDEST POP PUSH2 0x2CE1 JUMP JUMPDEST PUSH1 0x40 MLOAD PUSH4 0x23B872DD PUSH1 0xE0 SHL DUP2 MSTORE PUSH1 0x1 PUSH1 0x1 PUSH1 0xA0 SHL SUB DUP6 AND SWAP1 PUSH4 0x23B872DD SWAP1 PUSH2 0x395B SWAP1 DUP5 SWAP1 DUP11 SWAP1 DUP16 SWAP1 PUSH1 0x4 ADD PUSH2 0x61F9 JUMP JUMPDEST PUSH1 0x3 DUP3 PUSH1 0x4 DUP2 GT ISZERO PUSH2 0x39F7 JUMPI PUSH2 0x39F7 PUSH2 0x65DB JUMP JUMPDEST EQ ISZERO PUSH2 0x3A64 JUMPI PUSH1 0x40 MLOAD PUSH4 0x23B872DD PUSH1 0xE0 SHL DUP2 MSTORE PUSH1 0x1 PUSH1 0x1 PUSH1 0xA0 SHL SUB DUP6 AND SWAP1 PUSH4 0x23B872DD SWAP1 PUSH2 0x3A2D SWAP1 DUP5 SWAP1 DUP11 SWAP1 DUP9 SWAP1 PUSH1 0x4 ADD PUSH2 0x61F9 JUMP JUMPDEST PUSH1 0x0 PUSH1 0x40 MLOAD DUP1 DUP4 SUB DUP2 PUSH1 0x0 DUP8 DUP1 EXTCODESIZE ISZERO DUP1 ISZERO PUSH2 0x3A47 JUMPI PUSH1 0x0 DUP1 REVERT JUMPDEST POP GAS CALL ISZERO DUP1 ISZERO PUSH2 0x3A5B JUMPI RETURNDATASIZE PUSH1 0x0 DUP1 RETURNDATACOPY RETURNDATASIZE PUSH1 0x0 REVERT JUMPDEST POP POP POP POP PUSH2 0x2CE1 JUMP JUMPDEST PUSH1 0x4 DUP3 PUSH1 0x4 DUP2 GT ISZERO PUSH2 0x3A78 JUMPI PUSH2 0x3A78 PUSH2 0x65DB JUMP JUMPDEST EQ ISZERO PUSH2 0x2CE1 JUMPI PUSH1 0x40 MLOAD PUSH4 0x23037BA7 PUSH1 0xE2 SHL DUP2 MSTORE PUSH1 0x4 DUP2 ADD DUP5 SWAP1 MSTORE PUSH1 0x1 PUSH1 0x1 PUSH1 0xA0 SHL SUB DUP3 DUP2 AND PUSH1 0x24 DUP4 ADD MSTORE DUP8 DUP2 AND PUSH1 0x44 DUP4 ADD MSTORE PUSH1 0x64 DUP3 ADD DUP13 SWAP1 MSTORE PUSH1 0xC0 PUSH1 0x84 DUP4 ADD MSTORE PUSH1 0x0 PUSH1 0xC4 DUP4 ADD DUP2 SWAP1 MSTORE PUSH1 0xE0 PUSH1 0xA4 DUP5 ADD MSTORE PUSH1 0xE4 DUP4 ADD MSTORE DUP6 AND SWAP1 PUSH4 0x8C0DEE9C SWAP1 PUSH2 0x104 ADD PUSH1 0x20 PUSH1 0x40 MLOAD DUP1 DUP4 SUB DUP2 PUSH1 0x0 DUP8 DUP1 EXTCODESIZE ISZERO DUP1 ISZERO PUSH2 0x3AF4 JUMPI PUSH1 0x0 DUP1 REVERT JUMPDEST POP GAS CALL ISZERO DUP1 ISZERO PUSH2 0x3B08 JUMPI RETURNDATASIZE PUSH1 0x0 DUP1 RETURNDATACOPY RETURNDATASIZE PUSH1 0x0 REVERT JUMPDEST POP POP POP POP PUSH1 0x40 MLOAD RETURNDATASIZE PUSH1 0x1F NOT PUSH1 0x1F DUP3 ADD AND DUP3 ADD DUP1 PUSH1 0x40 MSTORE POP DUP2 ADD SWAP1 PUSH2 0x39AD SWAP2 SWAP1 PUSH2 0x5EBA JUMP JUMPDEST PUSH1 0x0 SLOAD PUSH1 0x1 PUSH1 0x1 PUSH1 0xA0 SHL SUB AND CALLER EQ PUSH2 0x3B56 JUMPI PUSH1 0x40 MLOAD PUSH3 0x461BCD PUSH1 0xE5 SHL DUP2 MSTORE PUSH1 0x4 ADD PUSH2 0x695 SWAP1 PUSH2 0x62FB JUMP JUMPDEST PUSH2 0x3B60 PUSH1 0x0 PUSH2 0x55D0 JUMP JUMPDEST JUMP JUMPDEST PUSH1 0x0 DUP3 PUSH1 0x40 MLOAD PUSH1 0x20 ADD PUSH2 0x3B75 SWAP2 SWAP1 PUSH2 0x615F JUMP JUMPDEST PUSH1 0x40 DUP1 MLOAD DUP1 DUP4 SUB PUSH1 0x1F NOT ADD DUP2 MSTORE SWAP1 DUP3 SWAP1 MSTORE DUP1 MLOAD PUSH1 0x20 SWAP1 SWAP2 ADD KECCAK256 PUSH1 0x1 SLOAD PUSH4 0x29965A1D PUSH1 0xE0 SHL DUP4 MSTORE ADDRESS PUSH1 0x4 DUP5 ADD MSTORE PUSH1 0x24 DUP4 ADD DUP3 SWAP1 MSTORE PUSH1 0x1 PUSH1 0x1 PUSH1 0xA0 SHL SUB DUP6 DUP2 AND PUSH1 0x44 DUP6 ADD MSTORE SWAP2 SWAP4 POP AND SWAP1 PUSH4 0x29965A1D SWAP1 PUSH1 0x64 ADD PUSH1 0x0 PUSH1 0x40 MLOAD DUP1 DUP4 SUB DUP2 PUSH1 0x0 DUP8 DUP1 EXTCODESIZE ISZERO DUP1 ISZERO PUSH2 0x3BE0 JUMPI PUSH1 0x0 DUP1 REVERT JUMPDEST POP GAS CALL ISZERO DUP1 ISZERO PUSH2 0x3BF4 JUMPI RETURNDATASIZE PUSH1 0x0 DUP1 RETURNDATACOPY RETURNDATASIZE PUSH1 0x0 REVERT JUMPDEST POP POP POP POP POP POP POP JUMP JUMPDEST PUSH1 0x0 JUMPDEST PUSH1 0xA SLOAD DUP2 LT ISZERO PUSH2 0x3C69 JUMPI PUSH1 0x0 PUSH1 0xB PUSH1 0x0 PUSH1 0xA DUP5 DUP2 SLOAD DUP2 LT PUSH2 0x3C23 JUMPI PUSH2 0x3C23 PUSH2 0x65F1 JUMP JUMPDEST PUSH1 0x0 SWAP2 DUP3 MSTORE PUSH1 0x20 DUP1 DUP4 KECCAK256 SWAP2 SWAP1 SWAP2 ADD SLOAD PUSH1 0x1 PUSH1 0x1 PUSH1 0xA0 SHL SUB AND DUP4 MSTORE DUP3 ADD SWAP3 SWAP1 SWAP3 MSTORE PUSH1 0x40 ADD SWAP1 KECCAK256 DUP1 SLOAD PUSH1 0xFF NOT AND SWAP2 ISZERO ISZERO SWAP2 SWAP1 SWAP2 OR SWAP1 SSTORE DUP1 PUSH2 0x3C61 DUP2 PUSH2 0x65AA JUMP JUMPDEST SWAP2 POP POP PUSH2 0x3C00 JUMP JUMPDEST POP PUSH1 0x0 JUMPDEST DUP2 MLOAD DUP2 LT ISZERO PUSH2 0x3CD2 JUMPI PUSH1 0x1 PUSH1 0xB PUSH1 0x0 DUP5 DUP5 DUP2 MLOAD DUP2 LT PUSH2 0x3C8E JUMPI PUSH2 0x3C8E PUSH2 0x65F1 JUMP JUMPDEST PUSH1 0x20 SWAP1 DUP2 MUL SWAP2 SWAP1 SWAP2 ADD DUP2 ADD MLOAD PUSH1 0x1 PUSH1 0x1 PUSH1 0xA0 SHL SUB AND DUP3 MSTORE DUP2 ADD SWAP2 SWAP1 SWAP2 MSTORE PUSH1 0x40 ADD PUSH1 0x0 KECCAK256 DUP1 SLOAD PUSH1 0xFF NOT AND SWAP2 ISZERO ISZERO SWAP2 SWAP1 SWAP2 OR SWAP1 SSTORE DUP1 PUSH2 0x3CCA DUP2 PUSH2 0x65AA JUMP JUMPDEST SWAP2 POP POP PUSH2 0x3C6D JUMP JUMPDEST POP DUP1 MLOAD PUSH2 0x8BA SWAP1 PUSH1 0xA SWAP1 PUSH1 0x20 DUP5 ADD SWAP1 PUSH2 0x5A94 JUMP JUMPDEST PUSH1 0x0 DUP1 DUP1 JUMPDEST PUSH1 0x3 SLOAD DUP2 LT ISZERO PUSH2 0x3ED2 JUMPI PUSH1 0x0 DUP2 DUP2 MSTORE PUSH1 0x4 PUSH1 0x20 DUP2 SWAP1 MSTORE PUSH1 0x40 DUP3 KECCAK256 SWAP1 DUP2 ADD DUP1 SLOAD SWAP2 SWAP3 SWAP2 PUSH2 0x3D16 SWAP1 PUSH2 0x6575 JUMP JUMPDEST DUP1 PUSH1 0x1F ADD PUSH1 0x20 DUP1 SWAP2 DIV MUL PUSH1 0x20 ADD PUSH1 0x40 MLOAD SWAP1 DUP2 ADD PUSH1 0x40 MSTORE DUP1 SWAP3 SWAP2 SWAP1 DUP2 DUP2 MSTORE PUSH1 0x20 ADD DUP3 DUP1 SLOAD PUSH2 0x3D42 SWAP1 PUSH2 0x6575 JUMP JUMPDEST DUP1 ISZERO PUSH2 0x3D8F JUMPI DUP1 PUSH1 0x1F LT PUSH2 0x3D64 JUMPI PUSH2 0x100 DUP1 DUP4 SLOAD DIV MUL DUP4 MSTORE SWAP2 PUSH1 0x20 ADD SWAP2 PUSH2 0x3D8F JUMP JUMPDEST DUP3 ADD SWAP2 SWAP1 PUSH1 0x0 MSTORE PUSH1 0x20 PUSH1 0x0 KECCAK256 SWAP1 JUMPDEST DUP2 SLOAD DUP2 MSTORE SWAP1 PUSH1 0x1 ADD SWAP1 PUSH1 0x20 ADD DUP1 DUP4 GT PUSH2 0x3D72 JUMPI DUP3 SWAP1 SUB PUSH1 0x1F AND DUP3 ADD SWAP2 JUMPDEST POP POP POP POP POP DUP1 PUSH1 0x20 ADD SWAP1 MLOAD DUP2 ADD SWAP1 PUSH2 0x3DA7 SWAP2 SWAP1 PUSH2 0x5C4B JUMP JUMPDEST SWAP6 POP POP POP POP POP POP PUSH1 0x0 DUP1 PUSH1 0x0 DUP5 PUSH1 0x5 ADD DUP1 SLOAD PUSH2 0x3DC2 SWAP1 PUSH2 0x6575 JUMP JUMPDEST DUP1 PUSH1 0x1F ADD PUSH1 0x20 DUP1 SWAP2 DIV MUL PUSH1 0x20 ADD PUSH1 0x40 MLOAD SWAP1 DUP2 ADD PUSH1 0x40 MSTORE DUP1 SWAP3 SWAP2 SWAP1 DUP2 DUP2 MSTORE PUSH1 0x20 ADD DUP3 DUP1 SLOAD PUSH2 0x3DEE SWAP1 PUSH2 0x6575 JUMP JUMPDEST DUP1 ISZERO PUSH2 0x3E3B JUMPI DUP1 PUSH1 0x1F LT PUSH2 0x3E10 JUMPI PUSH2 0x100 DUP1 DUP4 SLOAD DIV MUL DUP4 MSTORE SWAP2 PUSH1 0x20 ADD SWAP2 PUSH2 0x3E3B JUMP JUMPDEST DUP3 ADD SWAP2 SWAP1 PUSH1 0x0 MSTORE PUSH1 0x20 PUSH1 0x0 KECCAK256 SWAP1 JUMPDEST DUP2 SLOAD DUP2 MSTORE SWAP1 PUSH1 0x1 ADD SWAP1 PUSH1 0x20 ADD DUP1 DUP4 GT PUSH2 0x3E1E JUMPI DUP3 SWAP1 SUB PUSH1 0x1F AND DUP3 ADD SWAP2 JUMPDEST POP POP POP POP POP DUP1 PUSH1 0x20 ADD SWAP1 MLOAD DUP2 ADD SWAP1 PUSH2 0x3E53 SWAP2 SWAP1 PUSH2 0x5C4B JUMP JUMPDEST SWAP6 POP POP POP POP SWAP3 POP SWAP3 POP DUP9 PUSH1 0x1 PUSH1 0x1 PUSH1 0xA0 SHL SUB AND DUP4 PUSH1 0x1 PUSH1 0x1 PUSH1 0xA0 SHL SUB AND EQ DUP1 ISZERO PUSH2 0x3E7F JUMPI POP PUSH1 0x1 DUP5 ISZERO ISZERO EQ JUMPDEST DUP1 ISZERO PUSH2 0x3EA8 JUMPI POP PUSH1 0x0 PUSH1 0x6 DUP7 ADD SLOAD PUSH2 0x100 SWAP1 DIV PUSH1 0xFF AND PUSH1 0x1 DUP2 GT ISZERO PUSH2 0x3EA6 JUMPI PUSH2 0x3EA6 PUSH2 0x65DB JUMP JUMPDEST EQ JUMPDEST ISZERO PUSH2 0x3EBA JUMPI PUSH2 0x3EB7 DUP8 DUP4 PUSH2 0x5A04 JUMP JUMPDEST SWAP7 POP JUMPDEST POP POP POP POP POP DUP1 DUP1 PUSH2 0x3ECA SWAP1 PUSH2 0x65AA JUMP JUMPDEST SWAP2 POP POP PUSH2 0x3CEB JUMP JUMPDEST POP SWAP3 SWAP2 POP POP JUMP JUMPDEST PUSH1 0x0 JUMPDEST PUSH1 0x3 SLOAD DUP2 LT ISZERO PUSH2 0x256C JUMPI PUSH1 0x0 DUP2 DUP2 MSTORE PUSH1 0x4 PUSH1 0x20 MSTORE PUSH1 0x40 DUP2 KECCAK256 PUSH1 0x5 DUP2 ADD DUP1 SLOAD SWAP2 SWAP3 SWAP2 PUSH2 0x3F06 SWAP1 PUSH2 0x6575 JUMP JUMPDEST DUP1 PUSH1 0x1F ADD PUSH1 0x20 DUP1 SWAP2 DIV MUL PUSH1 0x20 ADD PUSH1 0x40 MLOAD SWAP1 DUP2 ADD PUSH1 0x40 MSTORE DUP1 SWAP3 SWAP2 SWAP1 DUP2 DUP2 MSTORE PUSH1 0x20 ADD DUP3 DUP1 SLOAD PUSH2 0x3F32 SWAP1 PUSH2 0x6575 JUMP JUMPDEST DUP1 ISZERO PUSH2 0x3F7F JUMPI DUP1 PUSH1 0x1F LT PUSH2 0x3F54 JUMPI PUSH2 0x100 DUP1 DUP4 SLOAD DIV MUL DUP4 MSTORE SWAP2 PUSH1 0x20 ADD SWAP2 PUSH2 0x3F7F JUMP JUMPDEST DUP3 ADD SWAP2 SWAP1 PUSH1 0x0 MSTORE PUSH1 0x20 PUSH1 0x0 KECCAK256 SWAP1 JUMPDEST DUP2 SLOAD DUP2 MSTORE SWAP1 PUSH1 0x1 ADD SWAP1 PUSH1 0x20 ADD DUP1 DUP4 GT PUSH2 0x3F62 JUMPI DUP3 SWAP1 SUB PUSH1 0x1F AND DUP3 ADD SWAP2 JUMPDEST POP POP POP POP POP DUP1 PUSH1 0x20 ADD SWAP1 MLOAD DUP2 ADD SWAP1 PUSH2 0x3F97 SWAP2 SWAP1 PUSH2 0x5C4B JUMP JUMPDEST POP POP POP POP POP SWAP1 POP PUSH1 0x0 DUP3 PUSH1 0x4 ADD DUP1 SLOAD PUSH2 0x3FAF SWAP1 PUSH2 0x6575 JUMP JUMPDEST DUP1 PUSH1 0x1F ADD PUSH1 0x20 DUP1 SWAP2 DIV MUL PUSH1 0x20 ADD PUSH1 0x40 MLOAD SWAP1 DUP2 ADD PUSH1 0x40 MSTORE DUP1 SWAP3 SWAP2 SWAP1 DUP2 DUP2 MSTORE PUSH1 0x20 ADD DUP3 DUP1 SLOAD PUSH2 0x3FDB SWAP1 PUSH2 0x6575 JUMP JUMPDEST DUP1 ISZERO PUSH2 0x4028 JUMPI DUP1 PUSH1 0x1F LT PUSH2 0x3FFD JUMPI PUSH2 0x100 DUP1 DUP4 SLOAD DIV MUL DUP4 MSTORE SWAP2 PUSH1 0x20 ADD SWAP2 PUSH2 0x4028 JUMP JUMPDEST DUP3 ADD SWAP2 SWAP1 PUSH1 0x0 MSTORE PUSH1 0x20 PUSH1 0x0 KECCAK256 SWAP1 JUMPDEST DUP2 SLOAD DUP2 MSTORE SWAP1 PUSH1 0x1 ADD SWAP1 PUSH1 0x20 ADD DUP1 DUP4 GT PUSH2 0x400B JUMPI DUP3 SWAP1 SUB PUSH1 0x1F AND DUP3 ADD SWAP2 JUMPDEST POP POP POP POP POP DUP1 PUSH1 0x20 ADD SWAP1 MLOAD DUP2 ADD SWAP1 PUSH2 0x4040 SWAP2 SWAP1 PUSH2 0x5C4B JUMP JUMPDEST SWAP6 POP POP POP POP POP POP DUP6 PUSH1 0x1 PUSH1 0x1 PUSH1 0xA0 SHL SUB AND DUP3 PUSH1 0x1 PUSH1 0x1 PUSH1 0xA0 SHL SUB AND EQ DUP1 ISZERO PUSH2 0x406A JUMPI POP PUSH1 0x1 DUP2 ISZERO ISZERO EQ JUMPDEST DUP1 ISZERO PUSH2 0x4093 JUMPI POP PUSH1 0x0 PUSH1 0x6 DUP5 ADD SLOAD PUSH2 0x100 SWAP1 DIV PUSH1 0xFF AND PUSH1 0x1 DUP2 GT ISZERO PUSH2 0x4091 JUMPI PUSH2 0x4091 PUSH2 0x65DB JUMP JUMPDEST EQ JUMPDEST ISZERO PUSH2 0x40FE JUMPI PUSH2 0x40A5 DUP5 DUP7 PUSH1 0x0 DUP1 PUSH2 0x46E2 JUMP JUMPDEST PUSH1 0x40 MLOAD PUSH4 0x19DD7381 PUSH1 0xE2 SHL DUP2 MSTORE PUSH1 0x4 DUP2 ADD DUP6 SWAP1 MSTORE PUSH1 0x1 PUSH1 0x24 DUP3 ADD MSTORE ADDRESS SWAP1 PUSH4 0x6775CE04 SWAP1 PUSH1 0x44 ADD PUSH1 0x0 PUSH1 0x40 MLOAD DUP1 DUP4 SUB DUP2 PUSH1 0x0 DUP8 DUP1 EXTCODESIZE ISZERO DUP1 ISZERO PUSH2 0x40E5 JUMPI PUSH1 0x0 DUP1 REVERT JUMPDEST POP GAS CALL ISZERO DUP1 ISZERO PUSH2 0x40F9 JUMPI RETURNDATASIZE PUSH1 0x0 DUP1 RETURNDATACOPY RETURNDATASIZE PUSH1 0x0 REVERT JUMPDEST POP POP POP POP JUMPDEST POP POP POP DUP1 DUP1 PUSH2 0x410C SWAP1 PUSH2 0x65AA JUMP JUMPDEST SWAP2 POP POP PUSH2 0x3EDC JUMP JUMPDEST PUSH1 0x0 PUSH2 0x2E79 DUP3 DUP5 PUSH2 0x64F1 JUMP JUMPDEST PUSH1 0x0 PUSH2 0x2E79 DUP3 DUP5 PUSH2 0x6513 JUMP JUMPDEST PUSH1 0x0 PUSH2 0x2E79 DUP3 DUP5 PUSH2 0x6532 JUMP JUMPDEST PUSH1 0x40 DUP1 MLOAD PUSH2 0x1C0 DUP2 ADD DUP3 MSTORE PUSH1 0x1 PUSH1 0x1 PUSH1 0xA0 SHL SUB DUP9 AND DUP2 MSTORE PUSH1 0x0 PUSH1 0x20 DUP3 ADD DUP2 SWAP1 MSTORE CALLER SWAP3 DUP3 ADD SWAP3 SWAP1 SWAP3 MSTORE PUSH1 0x60 DUP2 ADD PUSH2 0x4171 TIMESTAMP PUSH3 0x15180 PUSH2 0x64D9 JUMP JUMPDEST DUP2 MSTORE PUSH1 0x1 PUSH1 0x1 PUSH1 0xA0 SHL SUB DUP7 AND PUSH1 0x20 DUP3 ADD MSTORE PUSH1 0x40 DUP2 ADD DUP9 SWAP1 MSTORE PUSH1 0x60 DUP2 ADD DUP6 SWAP1 MSTORE PUSH1 0x80 ADD PUSH1 0x2 DUP2 MSTORE PUSH1 0x1 PUSH1 0x1 PUSH1 0xA0 SHL SUB DUP10 AND PUSH1 0x20 DUP3 ADD MSTORE PUSH1 0x40 DUP2 ADD DUP8 SWAP1 MSTORE PUSH1 0x60 DUP2 ADD DUP5 SWAP1 MSTORE PUSH1 0x80 ADD PUSH1 0x4 DUP2 MSTORE PUSH1 0x20 ADD PUSH1 0x0 DUP2 MSTORE PUSH1 0x20 ADD PUSH1 0x0 SWAP1 MSTORE PUSH1 0x40 MLOAD PUSH4 0xD0B49AF PUSH1 0xE4 SHL DUP2 MSTORE SWAP1 SWAP2 POP ADDRESS SWAP1 PUSH4 0xD0B49AF0 SWAP1 PUSH2 0x41EF SWAP1 DUP5 SWAP1 PUSH1 0x4 ADD PUSH2 0x63D6 JUMP JUMPDEST PUSH1 0x0 PUSH1 0x40 MLOAD DUP1 DUP4 SUB DUP2 PUSH1 0x0 DUP8 DUP1 EXTCODESIZE ISZERO DUP1 ISZERO PUSH2 0x4209 JUMPI PUSH1 0x0 DUP1 REVERT JUMPDEST POP GAS CALL ISZERO DUP1 ISZERO PUSH2 0x421D JUMPI RETURNDATASIZE PUSH1 0x0 DUP1 RETURNDATACOPY RETURNDATASIZE PUSH1 0x0 REVERT JUMPDEST POP POP PUSH1 0x3 SLOAD PUSH1 0x40 MLOAD PUSH4 0x19DD7381 PUSH1 0xE2 SHL DUP2 MSTORE PUSH1 0x4 DUP2 ADD SWAP2 SWAP1 SWAP2 MSTORE PUSH1 0x1 PUSH1 0x24 DUP3 ADD MSTORE ADDRESS SWAP3 POP PUSH4 0x6775CE04 SWAP2 POP PUSH1 0x44 ADD PUSH1 0x0 PUSH1 0x40 MLOAD DUP1 DUP4 SUB DUP2 PUSH1 0x0 DUP8 DUP1 EXTCODESIZE ISZERO DUP1 ISZERO PUSH2 0x4265 JUMPI PUSH1 0x0 DUP1 REVERT JUMPDEST POP GAS CALL ISZERO DUP1 ISZERO PUSH2 0x4279 JUMPI RETURNDATASIZE PUSH1 0x0 DUP1 RETURNDATACOPY RETURNDATASIZE PUSH1 0x0 REVERT JUMPDEST POP POP POP POP POP POP POP POP POP POP POP JUMP JUMPDEST PUSH1 0x0 DUP5 DUP1 PUSH1 0x20 ADD SWAP1 MLOAD DUP2 ADD SWAP1 PUSH2 0x429C SWAP2 SWAP1 PUSH2 0x5C4B JUMP JUMPDEST POP POP SWAP4 POP POP POP POP PUSH1 0x0 DUP5 DUP1 PUSH1 0x20 ADD SWAP1 MLOAD DUP2 ADD SWAP1 PUSH2 0x42B9 SWAP2 SWAP1 PUSH2 0x5C4B JUMP JUMPDEST POP SWAP1 SWAP5 POP PUSH1 0x1 SWAP4 POP PUSH2 0x42CA SWAP3 POP POP POP JUMP JUMPDEST DUP3 PUSH1 0x4 DUP2 GT ISZERO PUSH2 0x42DC JUMPI PUSH2 0x42DC PUSH2 0x65DB JUMP JUMPDEST EQ DUP1 PUSH2 0x42F9 JUMPI POP PUSH1 0x1 DUP2 PUSH1 0x4 DUP2 GT ISZERO PUSH2 0x42F7 JUMPI PUSH2 0x42F7 PUSH2 0x65DB JUMP JUMPDEST EQ JUMPDEST ISZERO PUSH2 0x436E JUMPI PUSH1 0x0 DUP5 PUSH1 0x1 DUP2 GT ISZERO PUSH2 0x4312 JUMPI PUSH2 0x4312 PUSH2 0x65DB JUMP JUMPDEST EQ PUSH2 0x436E JUMPI PUSH1 0x40 MLOAD PUSH3 0x461BCD PUSH1 0xE5 SHL DUP2 MSTORE PUSH1 0x20 PUSH1 0x4 DUP3 ADD MSTORE PUSH1 0x26 PUSH1 0x24 DUP3 ADD MSTORE PUSH32 0x457468657220747261646573206E65656420746F206265206F66207479706520 PUSH1 0x44 DUP3 ADD MSTORE PUSH6 0x457363726F77 PUSH1 0xD0 SHL PUSH1 0x64 DUP3 ADD MSTORE PUSH1 0x84 ADD PUSH2 0x695 JUMP JUMPDEST PUSH1 0x9 SLOAD PUSH2 0x100 SWAP1 DIV PUSH1 0xFF AND ISZERO PUSH2 0x441A JUMPI PUSH1 0x1 PUSH1 0x1 PUSH1 0xA0 SHL SUB DUP9 AND PUSH1 0x0 SWAP1 DUP2 MSTORE PUSH1 0xB PUSH1 0x20 MSTORE PUSH1 0x40 SWAP1 KECCAK256 SLOAD PUSH1 0xFF AND PUSH2 0x441A JUMPI PUSH1 0x40 MLOAD PUSH3 0x461BCD PUSH1 0xE5 SHL DUP2 MSTORE PUSH1 0x20 PUSH1 0x4 DUP3 ADD MSTORE PUSH1 0x45 PUSH1 0x24 DUP3 ADD MSTORE PUSH32 0x5472616465206578656375746572206E6565647320746F2062656C6F6E672074 PUSH1 0x44 DUP3 ADD MSTORE PUSH32 0x6F20746865206C697374206F6620616C6C6F7765642074726164652065786563 PUSH1 0x64 DUP3 ADD MSTORE PUSH5 0x7574657273 PUSH1 0xD8 SHL PUSH1 0x84 DUP3 ADD MSTORE PUSH1 0xA4 ADD PUSH2 0x695 JUMP JUMPDEST PUSH1 0x9 SLOAD PUSH1 0xFF AND ISZERO PUSH2 0x4497 JUMPI PUSH1 0x0 DUP5 PUSH1 0x1 DUP2 GT ISZERO PUSH2 0x4439 JUMPI PUSH2 0x4439 PUSH2 0x65DB JUMP JUMPDEST EQ ISZERO PUSH2 0x4497 JUMPI PUSH1 0x40 MLOAD PUSH3 0x461BCD PUSH1 0xE5 SHL DUP2 MSTORE PUSH1 0x20 PUSH1 0x4 DUP3 ADD MSTORE PUSH1 0x27 PUSH1 0x24 DUP3 ADD MSTORE PUSH32 0x546869732044565020636F6E747261637420646F65736E277420616C6C6F7720 PUSH1 0x44 DUP3 ADD MSTORE PUSH7 0x457363726F7773 PUSH1 0xC8 SHL PUSH1 0x64 DUP3 ADD MSTORE PUSH1 0x84 ADD PUSH2 0x695 JUMP JUMPDEST PUSH1 0x1 PUSH1 0x1 PUSH1 0xA0 SHL SUB DUP11 AND PUSH2 0x4506 JUMPI PUSH1 0x40 MLOAD PUSH3 0x461BCD PUSH1 0xE5 SHL DUP2 MSTORE PUSH1 0x20 PUSH1 0x4 DUP3 ADD MSTORE PUSH1 0x30 PUSH1 0x24 DUP3 ADD MSTORE PUSH32 0x412074726164652063616E206E6F742062652063726561746564207769746820 PUSH1 0x44 DUP3 ADD MSTORE PUSH16 0x746865207A65726F2061646472657373 PUSH1 0x80 SHL PUSH1 0x64 DUP3 ADD MSTORE PUSH1 0x84 ADD PUSH2 0x695 JUMP JUMPDEST PUSH1 0x3 DUP1 SLOAD SWAP1 PUSH1 0x0 PUSH2 0x4516 DUP4 PUSH2 0x65AA JUMP JUMPDEST SWAP2 SWAP1 POP SSTORE POP PUSH1 0x0 TIMESTAMP DUP9 GT PUSH2 0x4536 JUMPI PUSH2 0x4531 PUSH3 0x278D00 TIMESTAMP PUSH2 0x64D9 JUMP JUMPDEST PUSH2 0x4538 JUMP JUMPDEST DUP8 JUMPDEST SWAP1 POP PUSH1 0x40 MLOAD DUP1 PUSH2 0x120 ADD PUSH1 0x40 MSTORE DUP1 DUP13 PUSH1 0x1 PUSH1 0x1 PUSH1 0xA0 SHL SUB AND DUP2 MSTORE PUSH1 0x20 ADD DUP12 PUSH1 0x1 PUSH1 0x1 PUSH1 0xA0 SHL SUB AND DUP2 MSTORE PUSH1 0x20 ADD DUP11 PUSH1 0x1 PUSH1 0x1 PUSH1 0xA0 SHL SUB AND DUP2 MSTORE PUSH1 0x20 ADD DUP3 DUP2 MSTORE PUSH1 0x20 ADD DUP9 DUP2 MSTORE PUSH1 0x20 ADD DUP8 DUP2 MSTORE PUSH1 0x20 ADD DUP7 PUSH1 0x1 DUP2 GT ISZERO PUSH2 0x4597 JUMPI PUSH2 0x4597 PUSH2 0x65DB JUMP JUMPDEST DUP2 MSTORE PUSH1 0x20 ADD DUP6 PUSH1 0x1 DUP2 GT ISZERO PUSH2 0x45AE JUMPI PUSH2 0x45AE PUSH2 0x65DB JUMP JUMPDEST DUP2 MSTORE PUSH1 0x20 ADD PUSH1 0x1 SWAP1 MSTORE PUSH1 0x3 DUP1 SLOAD PUSH1 0x0 SWAP1 DUP2 MSTORE PUSH1 0x4 PUSH1 0x20 DUP2 DUP2 MSTORE PUSH1 0x40 SWAP3 DUP4 SWAP1 KECCAK256 DUP6 MLOAD DUP2 SLOAD PUSH1 0x1 PUSH1 0x1 PUSH1 0xA0 SHL SUB NOT SWAP1 DUP2 AND PUSH1 0x1 PUSH1 0x1 PUSH1 0xA0 SHL SUB SWAP3 DUP4 AND OR DUP4 SSTORE DUP8 DUP5 ADD MLOAD PUSH1 0x1 DUP5 ADD DUP1 SLOAD DUP4 AND SWAP2 DUP5 AND SWAP2 SWAP1 SWAP2 OR SWAP1 SSTORE SWAP5 DUP8 ADD MLOAD PUSH1 0x2 DUP4 ADD DUP1 SLOAD SWAP1 SWAP7 AND SWAP2 AND OR SWAP1 SWAP4 SSTORE PUSH1 0x60 DUP6 ADD MLOAD SWAP4 DUP4 ADD SWAP4 SWAP1 SWAP4 SSTORE PUSH1 0x80 DUP5 ADD MLOAD DUP1 MLOAD SWAP3 SWAP4 PUSH2 0x4638 SWAP4 SWAP3 DUP6 ADD SWAP3 SWAP2 ADD SWAP1 PUSH2 0x5A10 JUMP JUMPDEST POP PUSH1 0xA0 DUP3 ADD MLOAD DUP1 MLOAD PUSH2 0x4654 SWAP2 PUSH1 0x5 DUP5 ADD SWAP2 PUSH1 0x20 SWAP1 SWAP2 ADD SWAP1 PUSH2 0x5A10 JUMP JUMPDEST POP PUSH1 0xC0 DUP3 ADD MLOAD PUSH1 0x6 DUP3 ADD DUP1 SLOAD PUSH1 0xFF NOT AND PUSH1 0x1 DUP4 DUP2 DUP2 GT ISZERO PUSH2 0x4677 JUMPI PUSH2 0x4677 PUSH2 0x65DB JUMP JUMPDEST MUL OR SWAP1 SSTORE POP PUSH1 0xE0 DUP3 ADD MLOAD PUSH1 0x6 DUP3 ADD DUP1 SLOAD PUSH2 0xFF00 NOT AND PUSH2 0x100 DUP4 PUSH1 0x1 DUP2 GT ISZERO PUSH2 0x46A1 JUMPI PUSH2 0x46A1 PUSH2 0x65DB JUMP JUMPDEST MUL OR SWAP1 SSTORE POP PUSH2 0x100 DUP3 ADD MLOAD PUSH1 0x6 DUP3 ADD DUP1 SLOAD PUSH3 0xFF0000 NOT AND PUSH3 0x10000 DUP4 PUSH1 0x4 DUP2 GT ISZERO PUSH2 0x46CE JUMPI PUSH2 0x46CE PUSH2 0x65DB JUMP JUMPDEST MUL OR SWAP1 SSTORE POP POP POP POP POP POP POP POP POP POP POP POP POP POP JUMP JUMPDEST PUSH1 0x0 DUP5 DUP2 MSTORE PUSH1 0x4 PUSH1 0x20 MSTORE PUSH1 0x40 SWAP1 KECCAK256 PUSH1 0x1 PUSH1 0x6 DUP3 ADD SLOAD PUSH3 0x10000 SWAP1 DIV PUSH1 0xFF AND PUSH1 0x4 DUP2 GT ISZERO PUSH2 0x4711 JUMPI PUSH2 0x4711 PUSH2 0x65DB JUMP JUMPDEST EQ PUSH2 0x472E JUMPI PUSH1 0x40 MLOAD PUSH3 0x461BCD PUSH1 0xE5 SHL DUP2 MSTORE PUSH1 0x4 ADD PUSH2 0x695 SWAP1 PUSH2 0x63A8 JUMP JUMPDEST DUP1 SLOAD PUSH1 0x0 SWAP1 PUSH1 0x1 PUSH1 0x1 PUSH1 0xA0 SHL SUB DUP7 DUP2 AND SWAP2 AND EQ ISZERO PUSH2 0x4757 JUMPI POP DUP1 SLOAD PUSH1 0x1 PUSH1 0x1 PUSH1 0xA0 SHL SUB AND PUSH2 0x4816 JUMP JUMPDEST PUSH1 0x1 DUP3 ADD SLOAD PUSH1 0x1 PUSH1 0x1 PUSH1 0xA0 SHL SUB DUP7 DUP2 AND SWAP2 AND EQ ISZERO PUSH2 0x4783 JUMPI POP PUSH1 0x1 DUP2 ADD SLOAD PUSH1 0x1 PUSH1 0x1 PUSH1 0xA0 SHL SUB AND PUSH2 0x4816 JUMP JUMPDEST PUSH1 0x1 DUP3 ADD SLOAD PUSH1 0x1 PUSH1 0x1 PUSH1 0xA0 SHL SUB AND PUSH2 0x47BB JUMPI POP PUSH1 0x1 DUP2 ADD DUP1 SLOAD PUSH1 0x1 PUSH1 0x1 PUSH1 0xA0 SHL SUB NOT AND PUSH1 0x1 PUSH1 0x1 PUSH1 0xA0 SHL SUB DUP7 AND SWAP1 DUP2 OR SWAP1 SWAP2 SSTORE PUSH2 0x4816 JUMP JUMPDEST PUSH1 0x40 MLOAD PUSH3 0x461BCD PUSH1 0xE5 SHL DUP2 MSTORE PUSH1 0x20 PUSH1 0x4 DUP3 ADD MSTORE PUSH1 0x2A PUSH1 0x24 DUP3 ADD MSTORE PUSH32 0x4F6E6C79207265676973746572656420686F6C646572732063616E2061636365 PUSH1 0x44 DUP3 ADD MSTORE PUSH10 0x70742061207472616465 PUSH1 0xB0 SHL PUSH1 0x64 DUP3 ADD MSTORE PUSH1 0x84 ADD PUSH2 0x695 JUMP JUMPDEST DUP2 SLOAD PUSH1 0x0 SWAP1 PUSH1 0x1 PUSH1 0x1 PUSH1 0xA0 SHL SUB DUP4 DUP2 AND SWAP2 AND EQ PUSH2 0x4836 JUMPI DUP3 PUSH1 0x5 ADD PUSH2 0x483B JUMP JUMPDEST DUP3 PUSH1 0x4 ADD JUMPDEST DUP1 SLOAD PUSH2 0x4846 SWAP1 PUSH2 0x6575 JUMP JUMPDEST DUP1 PUSH1 0x1F ADD PUSH1 0x20 DUP1 SWAP2 DIV MUL PUSH1 0x20 ADD PUSH1 0x40 MLOAD SWAP1 DUP2 ADD PUSH1 0x40 MSTORE DUP1 SWAP3 SWAP2 SWAP1 DUP2 DUP2 MSTORE PUSH1 0x20 ADD DUP3 DUP1 SLOAD PUSH2 0x4872 SWAP1 PUSH2 0x6575 JUMP JUMPDEST DUP1 ISZERO PUSH2 0x48BF JUMPI DUP1 PUSH1 0x1F LT PUSH2 0x4894 JUMPI PUSH2 0x100 DUP1 DUP4 SLOAD DIV MUL DUP4 MSTORE SWAP2 PUSH1 0x20 ADD SWAP2 PUSH2 0x48BF JUMP JUMPDEST DUP3 ADD SWAP2 SWAP1 PUSH1 0x0 MSTORE PUSH1 0x20 PUSH1 0x0 KECCAK256 SWAP1 JUMPDEST DUP2 SLOAD DUP2 MSTORE SWAP1 PUSH1 0x1 ADD SWAP1 PUSH1 0x20 ADD DUP1 DUP4 GT PUSH2 0x48A2 JUMPI DUP3 SWAP1 SUB PUSH1 0x1F AND DUP3 ADD SWAP2 JUMPDEST POP POP POP POP POP SWAP1 POP PUSH1 0x0 DUP1 PUSH1 0x0 DUP1 PUSH1 0x0 DUP1 DUP7 DUP1 PUSH1 0x20 ADD SWAP1 MLOAD DUP2 ADD SWAP1 PUSH2 0x48E3 SWAP2 SWAP1 PUSH2 0x5C4B JUMP JUMPDEST SWAP6 POP SWAP6 POP SWAP6 POP SWAP6 POP SWAP6 POP SWAP6 POP DUP2 ISZERO PUSH2 0x4949 JUMPI PUSH1 0x40 MLOAD PUSH3 0x461BCD PUSH1 0xE5 SHL DUP2 MSTORE PUSH1 0x20 PUSH1 0x4 DUP3 ADD MSTORE PUSH1 0x24 DUP1 DUP3 ADD MSTORE PUSH32 0x547261646520616C72656164792061636365707465642062792074686520686F PUSH1 0x44 DUP3 ADD MSTORE PUSH4 0x363232B9 PUSH1 0xE1 SHL PUSH1 0x64 DUP3 ADD MSTORE PUSH1 0x84 ADD PUSH2 0x695 JUMP JUMPDEST PUSH1 0x0 PUSH1 0x6 DUP11 ADD SLOAD PUSH1 0xFF AND PUSH1 0x1 DUP2 GT ISZERO PUSH2 0x4964 JUMPI PUSH2 0x4964 PUSH2 0x65DB JUMP JUMPDEST EQ ISZERO PUSH2 0x4CA6 JUMPI PUSH1 0x1 DUP4 PUSH1 0x4 DUP2 GT ISZERO PUSH2 0x497E JUMPI PUSH2 0x497E PUSH2 0x65DB JUMP JUMPDEST EQ ISZERO PUSH2 0x49D8 JUMPI DUP5 DUP12 EQ PUSH2 0x49D3 JUMPI PUSH1 0x40 MLOAD PUSH3 0x461BCD PUSH1 0xE5 SHL DUP2 MSTORE PUSH1 0x20 PUSH1 0x4 DUP3 ADD MSTORE PUSH1 0x1C PUSH1 0x24 DUP3 ADD MSTORE PUSH32 0x416D6F756E74206F6620455448206973206E6F7420636F727265637400000000 PUSH1 0x44 DUP3 ADD MSTORE PUSH1 0x64 ADD PUSH2 0x695 JUMP JUMPDEST PUSH2 0x4D22 JUMP JUMPDEST PUSH1 0x2 DUP4 PUSH1 0x4 DUP2 GT ISZERO PUSH2 0x49EC JUMPI PUSH2 0x49EC PUSH2 0x65DB JUMP JUMPDEST EQ ISZERO PUSH2 0x4A7A JUMPI PUSH1 0x40 MLOAD PUSH4 0x23B872DD PUSH1 0xE0 SHL DUP2 MSTORE PUSH1 0x1 PUSH1 0x1 PUSH1 0xA0 SHL SUB DUP8 AND SWAP1 PUSH4 0x23B872DD SWAP1 PUSH2 0x4A22 SWAP1 DUP16 SWAP1 ADDRESS SWAP1 DUP11 SWAP1 PUSH1 0x4 ADD PUSH2 0x61F9 JUMP JUMPDEST PUSH1 0x20 PUSH1 0x40 MLOAD DUP1 DUP4 SUB DUP2 PUSH1 0x0 DUP8 DUP1 EXTCODESIZE ISZERO DUP1 ISZERO PUSH2 0x4A3C JUMPI PUSH1 0x0 DUP1 REVERT JUMPDEST POP GAS CALL ISZERO DUP1 ISZERO PUSH2 0x4A50 JUMPI RETURNDATASIZE PUSH1 0x0 DUP1 RETURNDATACOPY RETURNDATASIZE PUSH1 0x0 REVERT JUMPDEST POP POP POP POP PUSH1 0x40 MLOAD RETURNDATASIZE PUSH1 0x1F NOT PUSH1 0x1F DUP3 ADD AND DUP3 ADD DUP1 PUSH1 0x40 MSTORE POP DUP2 ADD SWAP1 PUSH2 0x4A74 SWAP2 SWAP1 PUSH2 0x5E9D JUMP JUMPDEST POP PUSH2 0x4D22 JUMP JUMPDEST PUSH1 0x3 DUP4 PUSH1 0x4 DUP2 GT ISZERO PUSH2 0x4A8E JUMPI PUSH2 0x4A8E PUSH2 0x65DB JUMP JUMPDEST EQ ISZERO PUSH2 0x4AFB JUMPI PUSH1 0x40 MLOAD PUSH4 0x23B872DD PUSH1 0xE0 SHL DUP2 MSTORE PUSH1 0x1 PUSH1 0x1 PUSH1 0xA0 SHL SUB DUP8 AND SWAP1 PUSH4 0x23B872DD SWAP1 PUSH2 0x4AC4 SWAP1 DUP16 SWAP1 ADDRESS SWAP1 DUP10 SWAP1 PUSH1 0x4 ADD PUSH2 0x61F9 JUMP JUMPDEST PUSH1 0x0 PUSH1 0x40 MLOAD DUP1 DUP4 SUB DUP2 PUSH1 0x0 DUP8 DUP1 EXTCODESIZE ISZERO DUP1 ISZERO PUSH2 0x4ADE JUMPI PUSH1 0x0 DUP1 REVERT JUMPDEST POP GAS CALL ISZERO DUP1 ISZERO PUSH2 0x4AF2 JUMPI RETURNDATASIZE PUSH1 0x0 DUP1 RETURNDATACOPY RETURNDATASIZE PUSH1 0x0 REVERT JUMPDEST POP POP POP POP PUSH2 0x4D22 JUMP JUMPDEST PUSH1 0x4 DUP4 PUSH1 0x4 DUP2 GT ISZERO PUSH2 0x4B0F JUMPI PUSH2 0x4B0F PUSH2 0x65DB JUMP JUMPDEST EQ DUP1 ISZERO PUSH2 0x4B1A JUMPI POP DUP10 ISZERO JUMPDEST ISZERO PUSH2 0x4C22 JUMPI DUP6 PUSH1 0x1 PUSH1 0x1 PUSH1 0xA0 SHL SUB AND PUSH4 0x8C0DEE9C DUP6 DUP15 ADDRESS DUP10 PUSH32 0xAAAAAAAAAAAAAAAAAAAAAAAAAAAAAAAAAAAAAAAAAAAAAAAAAAAAAAAAAAAAAAAA PUSH1 0x0 SHL PUSH1 0x40 MLOAD PUSH1 0x20 ADD PUSH2 0x4B68 SWAP2 DUP2 MSTORE PUSH1 0x20 ADD SWAP1 JUMP JUMPDEST PUSH1 0x40 DUP1 MLOAD DUP1 DUP4 SUB PUSH1 0x1F NOT ADD DUP2 MSTORE DUP3 DUP3 MSTORE PUSH32 0xAAAAAAAAAAAAAAAAAAAAAAAAAAAAAAAAAAAAAAAAAAAAAAAAAAAAAAAAAAAAAAAA PUSH1 0x20 DUP5 ADD MSTORE SWAP2 ADD PUSH1 0x40 MLOAD PUSH1 0x20 DUP2 DUP4 SUB SUB DUP2 MSTORE SWAP1 PUSH1 0x40 MSTORE PUSH1 0x40 MLOAD DUP8 PUSH4 0xFFFFFFFF AND PUSH1 0xE0 SHL DUP2 MSTORE PUSH1 0x4 ADD PUSH2 0x4BD0 SWAP7 SWAP6 SWAP5 SWAP4 SWAP3 SWAP2 SWAP1 PUSH2 0x62B0 JUMP JUMPDEST PUSH1 0x20 PUSH1 0x40 MLOAD DUP1 DUP4 SUB DUP2 PUSH1 0x0 DUP8 DUP1 EXTCODESIZE ISZERO DUP1 ISZERO PUSH2 0x4BEA JUMPI PUSH1 0x0 DUP1 REVERT JUMPDEST POP GAS CALL ISZERO DUP1 ISZERO PUSH2 0x4BFE JUMPI RETURNDATASIZE PUSH1 0x0 DUP1 RETURNDATACOPY RETURNDATASIZE PUSH1 0x0 REVERT JUMPDEST POP POP POP POP PUSH1 0x40 MLOAD RETURNDATASIZE PUSH1 0x1F NOT PUSH1 0x1F DUP3 ADD AND DUP3 ADD DUP1 PUSH1 0x40 MSTORE POP DUP2 ADD SWAP1 PUSH2 0x4A74 SWAP2 SWAP1 PUSH2 0x5EBA JUMP JUMPDEST PUSH1 0x4 DUP4 PUSH1 0x4 DUP2 GT ISZERO PUSH2 0x4C36 JUMPI PUSH2 0x4C36 PUSH2 0x65DB JUMP JUMPDEST EQ DUP1 ISZERO PUSH2 0x4C42 JUMPI POP DUP10 ISZERO ISZERO JUMPDEST ISZERO PUSH2 0x49D3 JUMPI DUP5 DUP11 EQ PUSH2 0x49D3 JUMPI PUSH1 0x40 MLOAD PUSH3 0x461BCD PUSH1 0xE5 SHL DUP2 MSTORE PUSH1 0x20 PUSH1 0x4 DUP3 ADD MSTORE PUSH1 0x27 PUSH1 0x24 DUP3 ADD MSTORE PUSH32 0x416D6F756E74206F66204552433134303020746F6B656E73206973206E6F7420 PUSH1 0x44 DUP3 ADD MSTORE PUSH7 0x18DBDC9C9958DD PUSH1 0xCA SHL PUSH1 0x64 DUP3 ADD MSTORE PUSH1 0x84 ADD PUSH2 0x695 JUMP JUMPDEST PUSH2 0x4CB0 DUP13 DUP9 PUSH2 0x5830 JUMP JUMPDEST PUSH2 0x4D22 JUMPI PUSH1 0x40 MLOAD PUSH3 0x461BCD PUSH1 0xE5 SHL DUP2 MSTORE PUSH1 0x20 PUSH1 0x4 DUP3 ADD MSTORE PUSH1 0x3C PUSH1 0x24 DUP3 ADD MSTORE PUSH32 0x416C6C6F77616E6365206E6565647320746F2062652070726F76696465642069 PUSH1 0x44 DUP3 ADD MSTORE PUSH32 0x6E20746F6B656E20736D61727420636F6E747261637420666972737400000000 PUSH1 0x64 DUP3 ADD MSTORE PUSH1 0x84 ADD PUSH2 0x695 JUMP JUMPDEST PUSH1 0x0 DUP7 DUP7 DUP7 DUP7 PUSH1 0x1 DUP7 PUSH1 0x40 MLOAD PUSH1 0x20 ADD PUSH2 0x4D40 SWAP7 SWAP6 SWAP5 SWAP4 SWAP3 SWAP2 SWAP1 PUSH2 0x621D JUMP JUMPDEST PUSH1 0x40 DUP1 MLOAD PUSH1 0x1F NOT DUP2 DUP5 SUB ADD DUP2 MSTORE SWAP2 SWAP1 MSTORE DUP11 SLOAD SWAP1 SWAP2 POP PUSH1 0x1 PUSH1 0x1 PUSH1 0xA0 SHL SUB DUP11 DUP2 AND SWAP2 AND EQ ISZERO PUSH2 0x4D83 JUMPI DUP1 MLOAD PUSH2 0x4D7D SWAP1 PUSH1 0x4 DUP13 ADD SWAP1 PUSH1 0x20 DUP5 ADD SWAP1 PUSH2 0x5A10 JUMP JUMPDEST POP PUSH2 0x4D9A JUMP JUMPDEST DUP1 MLOAD PUSH2 0x4D98 SWAP1 PUSH1 0x5 DUP13 ADD SWAP1 PUSH1 0x20 DUP5 ADD SWAP1 PUSH2 0x5A10 JUMP JUMPDEST POP JUMPDEST PUSH1 0x2 DUP11 ADD SLOAD PUSH1 0x1 PUSH1 0x1 PUSH1 0xA0 SHL SUB AND ISZERO DUP1 ISZERO PUSH2 0x4DB9 JUMPI POP PUSH2 0x4DB9 DUP15 PUSH2 0x2FCB JUMP JUMPDEST DUP1 ISZERO PUSH2 0x4DC9 JUMPI POP PUSH2 0x4DC9 DUP15 PUSH2 0x3276 JUMP JUMPDEST ISZERO PUSH2 0x2327 JUMPI PUSH2 0x2327 DUP15 PUSH2 0x345A JUMP JUMPDEST PUSH1 0x0 DUP2 DUP2 MSTORE PUSH1 0x4 PUSH1 0x20 DUP2 SWAP1 MSTORE PUSH1 0x40 DUP3 KECCAK256 SWAP1 DUP2 ADD DUP1 SLOAD DUP4 SWAP2 DUP3 SWAP2 DUP3 SWAP2 SWAP1 PUSH2 0x4DFC SWAP1 PUSH2 0x6575 JUMP JUMPDEST DUP1 PUSH1 0x1F ADD PUSH1 0x20 DUP1 SWAP2 DIV MUL PUSH1 0x20 ADD PUSH1 0x40 MLOAD SWAP1 DUP2 ADD PUSH1 0x40 MSTORE DUP1 SWAP3 SWAP2 SWAP1 DUP2 DUP2 MSTORE PUSH1 0x20 ADD DUP3 DUP1 SLOAD PUSH2 0x4E28 SWAP1 PUSH2 0x6575 JUMP JUMPDEST DUP1 ISZERO PUSH2 0x4E75 JUMPI DUP1 PUSH1 0x1F LT PUSH2 0x4E4A JUMPI PUSH2 0x100 DUP1 DUP4 SLOAD DIV MUL DUP4 MSTORE SWAP2 PUSH1 0x20 ADD SWAP2 PUSH2 0x4E75 JUMP JUMPDEST DUP3 ADD SWAP2 SWAP1 PUSH1 0x0 MSTORE PUSH1 0x20 PUSH1 0x0 KECCAK256 SWAP1 JUMPDEST DUP2 SLOAD DUP2 MSTORE SWAP1 PUSH1 0x1 ADD SWAP1 PUSH1 0x20 ADD DUP1 DUP4 GT PUSH2 0x4E58 JUMPI DUP3 SWAP1 SUB PUSH1 0x1F AND DUP3 ADD SWAP2 JUMPDEST POP POP POP POP POP DUP1 PUSH1 0x20 ADD SWAP1 MLOAD DUP2 ADD SWAP1 PUSH2 0x4E8D SWAP2 SWAP1 PUSH2 0x5C4B JUMP JUMPDEST POP POP POP SWAP3 POP SWAP3 POP SWAP3 POP PUSH1 0x0 DUP1 PUSH1 0x0 DUP7 PUSH1 0x5 ADD DUP1 SLOAD PUSH2 0x4EAA SWAP1 PUSH2 0x6575 JUMP JUMPDEST DUP1 PUSH1 0x1F ADD PUSH1 0x20 DUP1 SWAP2 DIV MUL PUSH1 0x20 ADD PUSH1 0x40 MLOAD SWAP1 DUP2 ADD PUSH1 0x40 MSTORE DUP1 SWAP3 SWAP2 SWAP1 DUP2 DUP2 MSTORE PUSH1 0x20 ADD DUP3 DUP1 SLOAD PUSH2 0x4ED6 SWAP1 PUSH2 0x6575 JUMP JUMPDEST DUP1 ISZERO PUSH2 0x4F23 JUMPI DUP1 PUSH1 0x1F LT PUSH2 0x4EF8 JUMPI PUSH2 0x100 DUP1 DUP4 SLOAD DIV MUL DUP4 MSTORE SWAP2 PUSH1 0x20 ADD SWAP2 PUSH2 0x4F23 JUMP JUMPDEST DUP3 ADD SWAP2 SWAP1 PUSH1 0x0 MSTORE PUSH1 0x20 PUSH1 0x0 KECCAK256 SWAP1 JUMPDEST DUP2 SLOAD DUP2 MSTORE SWAP1 PUSH1 0x1 ADD SWAP1 PUSH1 0x20 ADD DUP1 DUP4 GT PUSH2 0x4F06 JUMPI DUP3 SWAP1 SUB PUSH1 0x1F AND DUP3 ADD SWAP2 JUMPDEST POP POP POP POP POP DUP1 PUSH1 0x20 ADD SWAP1 MLOAD DUP2 ADD SWAP1 PUSH2 0x4F3B SWAP2 SWAP1 PUSH2 0x5C4B JUMP JUMPDEST POP POP POP PUSH1 0x1 PUSH1 0x1 PUSH1 0xA0 SHL SUB DUP1 DUP11 AND PUSH1 0x0 SWAP1 DUP2 MSTORE PUSH1 0x7 PUSH1 0x20 SWAP1 DUP2 MSTORE PUSH1 0x40 DUP1 DUP4 KECCAK256 SWAP4 DUP8 AND DUP4 MSTORE SWAP3 SWAP1 MSTORE KECCAK256 SLOAD SWAP3 SWAP6 POP SWAP1 SWAP4 POP SWAP2 POP PUSH1 0xFF AND DUP1 ISZERO PUSH2 0x4FA0 JUMPI POP PUSH1 0x1 PUSH1 0x1 PUSH1 0xA0 SHL SUB DUP1 DUP5 AND PUSH1 0x0 SWAP1 DUP2 MSTORE PUSH1 0x7 PUSH1 0x20 SWAP1 DUP2 MSTORE PUSH1 0x40 DUP1 DUP4 KECCAK256 SWAP4 DUP11 AND DUP4 MSTORE SWAP3 SWAP1 MSTORE KECCAK256 SLOAD PUSH1 0xFF AND JUMPDEST ISZERO PUSH2 0x4FED JUMPI PUSH1 0x40 MLOAD PUSH3 0x461BCD PUSH1 0xE5 SHL DUP2 MSTORE PUSH1 0x20 PUSH1 0x4 DUP3 ADD MSTORE PUSH1 0x1E PUSH1 0x24 DUP3 ADD MSTORE PUSH32 0x436F6D7065746974696F6E206F6E207072696365206F776E6572736869700000 PUSH1 0x44 DUP3 ADD MSTORE PUSH1 0x64 ADD PUSH2 0x695 JUMP JUMPDEST PUSH1 0x1 PUSH1 0x1 PUSH1 0xA0 SHL SUB DUP7 AND PUSH1 0x0 SWAP1 DUP2 MSTORE PUSH1 0xE PUSH1 0x20 MSTORE PUSH1 0x40 SWAP1 KECCAK256 SLOAD ISZERO DUP1 PUSH2 0x5029 JUMPI POP PUSH1 0x1 PUSH1 0x1 PUSH1 0xA0 SHL SUB DUP7 AND PUSH1 0x0 SWAP1 DUP2 MSTORE PUSH1 0xE PUSH1 0x20 MSTORE PUSH1 0x40 SWAP1 KECCAK256 SLOAD TIMESTAMP LT JUMPDEST ISZERO PUSH2 0x503A JUMPI POP SWAP8 SWAP7 POP POP POP POP POP POP POP JUMP JUMPDEST PUSH1 0x1 PUSH1 0x1 PUSH1 0xA0 SHL SUB DUP1 DUP8 AND PUSH1 0x0 SWAP1 DUP2 MSTORE PUSH1 0x7 PUSH1 0x20 SWAP1 DUP2 MSTORE PUSH1 0x40 DUP1 DUP4 KECCAK256 SWAP4 DUP8 AND DUP4 MSTORE SWAP3 SWAP1 MSTORE KECCAK256 SLOAD PUSH1 0xFF AND DUP1 PUSH2 0x5093 JUMPI POP PUSH1 0x1 PUSH1 0x1 PUSH1 0xA0 SHL SUB DUP1 DUP5 AND PUSH1 0x0 SWAP1 DUP2 MSTORE PUSH1 0x7 PUSH1 0x20 SWAP1 DUP2 MSTORE PUSH1 0x40 DUP1 DUP4 KECCAK256 SWAP4 DUP11 AND DUP4 MSTORE SWAP3 SWAP1 MSTORE KECCAK256 SLOAD PUSH1 0xFF AND JUMPDEST ISZERO PUSH2 0x5479 JUMPI PUSH1 0x1 PUSH1 0x1 PUSH1 0xA0 SHL SUB DUP1 DUP8 AND PUSH1 0x0 SWAP1 DUP2 MSTORE PUSH1 0x8 PUSH1 0x20 SWAP1 DUP2 MSTORE PUSH1 0x40 DUP1 DUP4 KECCAK256 SWAP4 DUP8 AND DUP4 MSTORE SWAP3 DUP2 MSTORE DUP3 DUP3 KECCAK256 DUP8 DUP4 MSTORE DUP2 MSTORE DUP3 DUP3 KECCAK256 DUP5 DUP4 MSTORE SWAP1 MSTORE KECCAK256 SLOAD ISZERO PUSH2 0x5121 JUMPI PUSH1 0x1 PUSH1 0x1 PUSH1 0xA0 SHL SUB DUP1 DUP8 AND PUSH1 0x0 SWAP1 DUP2 MSTORE PUSH1 0x8 PUSH1 0x20 SWAP1 DUP2 MSTORE PUSH1 0x40 DUP1 DUP4 KECCAK256 SWAP4 DUP8 AND DUP4 MSTORE SWAP3 DUP2 MSTORE DUP3 DUP3 KECCAK256 DUP8 DUP4 MSTORE DUP2 MSTORE DUP3 DUP3 KECCAK256 DUP5 DUP4 MSTORE SWAP1 MSTORE KECCAK256 SLOAD PUSH2 0x5114 SWAP1 DUP7 SWAP1 PUSH2 0x4120 JUMP JUMPDEST SWAP10 SWAP9 POP POP POP POP POP POP POP POP POP JUMP JUMPDEST PUSH1 0x1 PUSH1 0x1 PUSH1 0xA0 SHL SUB DUP1 DUP5 AND PUSH1 0x0 SWAP1 DUP2 MSTORE PUSH1 0x8 PUSH1 0x20 SWAP1 DUP2 MSTORE PUSH1 0x40 DUP1 DUP4 KECCAK256 SWAP4 DUP11 AND DUP4 MSTORE SWAP3 DUP2 MSTORE DUP3 DUP3 KECCAK256 DUP5 DUP4 MSTORE DUP2 MSTORE DUP3 DUP3 KECCAK256 DUP8 DUP4 MSTORE SWAP1 MSTORE KECCAK256 SLOAD ISZERO PUSH2 0x519D JUMPI PUSH1 0x1 PUSH1 0x1 PUSH1 0xA0 SHL SUB DUP1 DUP5 AND PUSH1 0x0 SWAP1 DUP2 MSTORE PUSH1 0x8 PUSH1 0x20 SWAP1 DUP2 MSTORE PUSH1 0x40 DUP1 DUP4 KECCAK256 SWAP4 DUP11 AND DUP4 MSTORE SWAP3 DUP2 MSTORE DUP3 DUP3 KECCAK256 DUP5 DUP4 MSTORE DUP2 MSTORE DUP3 DUP3 KECCAK256 DUP8 DUP4 MSTORE SWAP1 MSTORE KECCAK256 SLOAD PUSH2 0x5114 SWAP1 DUP7 SWAP1 PUSH2 0x4114 JUMP JUMPDEST PUSH1 0x1 PUSH1 0x1 PUSH1 0xA0 SHL SUB DUP1 DUP8 AND PUSH1 0x0 SWAP1 DUP2 MSTORE PUSH1 0x8 PUSH1 0x20 SWAP1 DUP2 MSTORE PUSH1 0x40 DUP1 DUP4 KECCAK256 SWAP4 DUP8 AND DUP4 MSTORE SWAP3 DUP2 MSTORE DUP3 DUP3 KECCAK256 DUP8 DUP4 MSTORE DUP2 MSTORE DUP3 DUP3 KECCAK256 DUP3 DUP1 MSTORE SWAP1 MSTORE KECCAK256 SLOAD ISZERO PUSH2 0x5219 JUMPI PUSH1 0x1 PUSH1 0x1 PUSH1 0xA0 SHL SUB DUP1 DUP8 AND PUSH1 0x0 SWAP1 DUP2 MSTORE PUSH1 0x8 PUSH1 0x20 SWAP1 DUP2 MSTORE PUSH1 0x40 DUP1 DUP4 KECCAK256 SWAP4 DUP8 AND DUP4 MSTORE SWAP3 DUP2 MSTORE DUP3 DUP3 KECCAK256 DUP8 DUP4 MSTORE DUP2 MSTORE DUP3 DUP3 KECCAK256 DUP3 DUP1 MSTORE SWAP1 MSTORE KECCAK256 SLOAD PUSH2 0x5114 SWAP1 DUP7 SWAP1 PUSH2 0x4120 JUMP JUMPDEST PUSH1 0x1 PUSH1 0x1 PUSH1 0xA0 SHL SUB DUP1 DUP5 AND PUSH1 0x0 SWAP1 DUP2 MSTORE PUSH1 0x8 PUSH1 0x20 SWAP1 DUP2 MSTORE PUSH1 0x40 DUP1 DUP4 KECCAK256 SWAP4 DUP11 AND DUP4 MSTORE SWAP3 DUP2 MSTORE DUP3 DUP3 KECCAK256 DUP3 DUP1 MSTORE DUP2 MSTORE DUP3 DUP3 KECCAK256 DUP8 DUP4 MSTORE SWAP1 MSTORE KECCAK256 SLOAD ISZERO PUSH2 0x5295 JUMPI PUSH1 0x1 PUSH1 0x1 PUSH1 0xA0 SHL SUB DUP1 DUP5 AND PUSH1 0x0 SWAP1 DUP2 MSTORE PUSH1 0x8 PUSH1 0x20 SWAP1 DUP2 MSTORE PUSH1 0x40 DUP1 DUP4 KECCAK256 SWAP4 DUP11 AND DUP4 MSTORE SWAP3 DUP2 MSTORE DUP3 DUP3 KECCAK256 DUP3 DUP1 MSTORE DUP2 MSTORE DUP3 DUP3 KECCAK256 DUP8 DUP4 MSTORE SWAP1 MSTORE KECCAK256 SLOAD PUSH2 0x5114 SWAP1 DUP7 SWAP1 PUSH2 0x4114 JUMP JUMPDEST PUSH1 0x1 PUSH1 0x1 PUSH1 0xA0 SHL SUB DUP1 DUP8 AND PUSH1 0x0 SWAP1 DUP2 MSTORE PUSH1 0x8 PUSH1 0x20 SWAP1 DUP2 MSTORE PUSH1 0x40 DUP1 DUP4 KECCAK256 SWAP4 DUP8 AND DUP4 MSTORE SWAP3 DUP2 MSTORE DUP3 DUP3 KECCAK256 DUP3 DUP1 MSTORE DUP2 MSTORE DUP3 DUP3 KECCAK256 DUP5 DUP4 MSTORE SWAP1 MSTORE KECCAK256 SLOAD ISZERO PUSH2 0x5311 JUMPI PUSH1 0x1 PUSH1 0x1 PUSH1 0xA0 SHL SUB DUP1 DUP8 AND PUSH1 0x0 SWAP1 DUP2 MSTORE PUSH1 0x8 PUSH1 0x20 SWAP1 DUP2 MSTORE PUSH1 0x40 DUP1 DUP4 KECCAK256 SWAP4 DUP8 AND DUP4 MSTORE SWAP3 DUP2 MSTORE DUP3 DUP3 KECCAK256 DUP3 DUP1 MSTORE DUP2 MSTORE DUP3 DUP3 KECCAK256 DUP5 DUP4 MSTORE SWAP1 MSTORE KECCAK256 SLOAD PUSH2 0x5114 SWAP1 DUP7 SWAP1 PUSH2 0x4120 JUMP JUMPDEST PUSH1 0x1 PUSH1 0x1 PUSH1 0xA0 SHL SUB DUP1 DUP5 AND PUSH1 0x0 SWAP1 DUP2 MSTORE PUSH1 0x8 PUSH1 0x20 SWAP1 DUP2 MSTORE PUSH1 0x40 DUP1 DUP4 KECCAK256 SWAP4 DUP11 AND DUP4 MSTORE SWAP3 DUP2 MSTORE DUP3 DUP3 KECCAK256 DUP5 DUP4 MSTORE DUP2 MSTORE DUP3 DUP3 KECCAK256 DUP3 DUP1 MSTORE SWAP1 MSTORE KECCAK256 SLOAD ISZERO PUSH2 0x538D JUMPI PUSH1 0x1 PUSH1 0x1 PUSH1 0xA0 SHL SUB DUP1 DUP5 AND PUSH1 0x0 SWAP1 DUP2 MSTORE PUSH1 0x8 PUSH1 0x20 SWAP1 DUP2 MSTORE PUSH1 0x40 DUP1 DUP4 KECCAK256 SWAP4 DUP11 AND DUP4 MSTORE SWAP3 DUP2 MSTORE DUP3 DUP3 KECCAK256 DUP5 DUP4 MSTORE DUP2 MSTORE DUP3 DUP3 KECCAK256 DUP3 DUP1 MSTORE SWAP1 MSTORE KECCAK256 SLOAD PUSH2 0x5114 SWAP1 DUP7 SWAP1 PUSH2 0x4114 JUMP JUMPDEST PUSH1 0x1 PUSH1 0x1 PUSH1 0xA0 SHL SUB DUP1 DUP8 AND PUSH1 0x0 SWAP1 DUP2 MSTORE PUSH1 0x8 PUSH1 0x20 SWAP1 DUP2 MSTORE PUSH1 0x40 DUP1 DUP4 KECCAK256 SWAP4 DUP8 AND DUP4 MSTORE SWAP3 DUP2 MSTORE DUP3 DUP3 KECCAK256 DUP3 DUP1 MSTORE DUP2 MSTORE DUP3 DUP3 KECCAK256 SWAP1 MSTORE KECCAK256 SLOAD ISZERO PUSH2 0x5403 JUMPI PUSH1 0x1 PUSH1 0x1 PUSH1 0xA0 SHL SUB DUP1 DUP8 AND PUSH1 0x0 SWAP1 DUP2 MSTORE PUSH1 0x8 PUSH1 0x20 SWAP1 DUP2 MSTORE PUSH1 0x40 DUP1 DUP4 KECCAK256 SWAP4 DUP8 AND DUP4 MSTORE SWAP3 DUP2 MSTORE DUP3 DUP3 KECCAK256 DUP3 DUP1 MSTORE DUP2 MSTORE DUP3 DUP3 KECCAK256 SWAP1 MSTORE KECCAK256 SLOAD PUSH2 0x5114 SWAP1 DUP7 SWAP1 PUSH2 0x4120 JUMP JUMPDEST PUSH1 0x1 PUSH1 0x1 PUSH1 0xA0 SHL SUB DUP1 DUP5 AND PUSH1 0x0 SWAP1 DUP2 MSTORE PUSH1 0x8 PUSH1 0x20 SWAP1 DUP2 MSTORE PUSH1 0x40 DUP1 DUP4 KECCAK256 SWAP4 DUP11 AND DUP4 MSTORE SWAP3 DUP2 MSTORE DUP3 DUP3 KECCAK256 DUP3 DUP1 MSTORE DUP2 MSTORE DUP3 DUP3 KECCAK256 SWAP1 MSTORE KECCAK256 SLOAD ISZERO PUSH2 0x5479 JUMPI PUSH1 0x1 PUSH1 0x1 PUSH1 0xA0 SHL SUB DUP1 DUP5 AND PUSH1 0x0 SWAP1 DUP2 MSTORE PUSH1 0x8 PUSH1 0x20 SWAP1 DUP2 MSTORE PUSH1 0x40 DUP1 DUP4 KECCAK256 SWAP4 DUP11 AND DUP4 MSTORE SWAP3 DUP2 MSTORE DUP3 DUP3 KECCAK256 DUP3 DUP1 MSTORE DUP2 MSTORE DUP3 DUP3 KECCAK256 SWAP1 MSTORE KECCAK256 SLOAD PUSH2 0x5114 SWAP1 DUP7 SWAP1 PUSH2 0x4114 JUMP JUMPDEST POP SWAP8 SWAP7 POP POP POP POP POP POP POP JUMP JUMPDEST PUSH1 0x0 JUMPDEST PUSH1 0x1 PUSH1 0x1 PUSH1 0xA0 SHL SUB DUP4 AND PUSH1 0x0 SWAP1 DUP2 MSTORE PUSH1 0xC PUSH1 0x20 MSTORE PUSH1 0x40 SWAP1 KECCAK256 SLOAD DUP2 LT ISZERO PUSH2 0x5525 JUMPI PUSH1 0x1 PUSH1 0x1 PUSH1 0xA0 SHL SUB DUP4 AND PUSH1 0x0 SWAP1 DUP2 MSTORE PUSH1 0xD PUSH1 0x20 SWAP1 DUP2 MSTORE PUSH1 0x40 DUP1 DUP4 KECCAK256 PUSH1 0xC SWAP1 SWAP3 MSTORE DUP3 KECCAK256 DUP1 SLOAD DUP4 SWAP2 SWAP1 DUP6 SWAP1 DUP2 LT PUSH2 0x54DF JUMPI PUSH2 0x54DF PUSH2 0x65F1 JUMP JUMPDEST PUSH1 0x0 SWAP2 DUP3 MSTORE PUSH1 0x20 DUP1 DUP4 KECCAK256 SWAP2 SWAP1 SWAP2 ADD SLOAD PUSH1 0x1 PUSH1 0x1 PUSH1 0xA0 SHL SUB AND DUP4 MSTORE DUP3 ADD SWAP3 SWAP1 SWAP3 MSTORE PUSH1 0x40 ADD SWAP1 KECCAK256 DUP1 SLOAD PUSH1 0xFF NOT AND SWAP2 ISZERO ISZERO SWAP2 SWAP1 SWAP2 OR SWAP1 SSTORE DUP1 PUSH2 0x551D DUP2 PUSH2 0x65AA JUMP JUMPDEST SWAP2 POP POP PUSH2 0x5488 JUMP JUMPDEST POP PUSH1 0x0 JUMPDEST DUP2 MLOAD DUP2 LT ISZERO PUSH2 0x55A6 JUMPI PUSH1 0x1 PUSH1 0x1 PUSH1 0xA0 SHL SUB DUP4 AND PUSH1 0x0 SWAP1 DUP2 MSTORE PUSH1 0xD PUSH1 0x20 MSTORE PUSH1 0x40 DUP2 KECCAK256 DUP4 MLOAD PUSH1 0x1 SWAP3 SWAP1 DUP6 SWAP1 DUP6 SWAP1 DUP2 LT PUSH2 0x5562 JUMPI PUSH2 0x5562 PUSH2 0x65F1 JUMP JUMPDEST PUSH1 0x20 SWAP1 DUP2 MUL SWAP2 SWAP1 SWAP2 ADD DUP2 ADD MLOAD PUSH1 0x1 PUSH1 0x1 PUSH1 0xA0 SHL SUB AND DUP3 MSTORE DUP2 ADD SWAP2 SWAP1 SWAP2 MSTORE PUSH1 0x40 ADD PUSH1 0x0 KECCAK256 DUP1 SLOAD PUSH1 0xFF NOT AND SWAP2 ISZERO ISZERO SWAP2 SWAP1 SWAP2 OR SWAP1 SSTORE DUP1 PUSH2 0x559E DUP2 PUSH2 0x65AA JUMP JUMPDEST SWAP2 POP POP PUSH2 0x5529 JUMP JUMPDEST POP PUSH1 0x1 PUSH1 0x1 PUSH1 0xA0 SHL SUB DUP3 AND PUSH1 0x0 SWAP1 DUP2 MSTORE PUSH1 0xC PUSH1 0x20 SWAP1 DUP2 MSTORE PUSH1 0x40 SWAP1 SWAP2 KECCAK256 DUP3 MLOAD PUSH2 0x256C SWAP3 DUP5 ADD SWAP1 PUSH2 0x5A94 JUMP JUMPDEST PUSH1 0x0 DUP1 SLOAD PUSH1 0x1 PUSH1 0x1 PUSH1 0xA0 SHL SUB DUP4 DUP2 AND PUSH1 0x1 PUSH1 0x1 PUSH1 0xA0 SHL SUB NOT DUP4 AND DUP2 OR DUP5 SSTORE PUSH1 0x40 MLOAD SWAP2 SWAP1 SWAP3 AND SWAP3 DUP4 SWAP2 PUSH32 0x8BE0079C531659141344CD1FD0A4F28419497F9722A3DAAFE3B4186F6B6457E0 SWAP2 SWAP1 LOG3 POP POP JUMP JUMPDEST PUSH1 0x0 DUP1 DUP3 PUSH1 0x40 MLOAD PUSH1 0x20 ADD PUSH2 0x5634 SWAP2 SWAP1 PUSH2 0x615F JUMP JUMPDEST PUSH1 0x40 DUP1 MLOAD DUP1 DUP4 SUB PUSH1 0x1F NOT ADD DUP2 MSTORE SWAP1 DUP3 SWAP1 MSTORE DUP1 MLOAD PUSH1 0x20 SWAP1 SWAP2 ADD KECCAK256 PUSH1 0x1 SLOAD PUSH4 0x555DDC65 PUSH1 0xE1 SHL DUP4 MSTORE PUSH1 0x1 PUSH1 0x1 PUSH1 0xA0 SHL SUB DUP8 DUP2 AND PUSH1 0x4 DUP6 ADD MSTORE PUSH1 0x24 DUP5 ADD DUP4 SWAP1 MSTORE SWAP2 SWAP4 POP AND SWAP1 PUSH4 0xAABBB8CA SWAP1 PUSH1 0x44 ADD PUSH1 0x20 PUSH1 0x40 MLOAD DUP1 DUP4 SUB DUP2 DUP7 DUP1 EXTCODESIZE ISZERO DUP1 ISZERO PUSH2 0x5697 JUMPI PUSH1 0x0 DUP1 REVERT JUMPDEST POP GAS STATICCALL ISZERO DUP1 ISZERO PUSH2 0x56AB JUMPI RETURNDATASIZE PUSH1 0x0 DUP1 RETURNDATACOPY RETURNDATASIZE PUSH1 0x0 REVERT JUMPDEST POP POP POP POP PUSH1 0x40 MLOAD RETURNDATASIZE PUSH1 0x1F NOT PUSH1 0x1F DUP3 ADD AND DUP3 ADD DUP1 PUSH1 0x40 MSTORE POP DUP2 ADD SWAP1 PUSH2 0x56CF SWAP2 SWAP1 PUSH2 0x5BB9 JUMP JUMPDEST SWAP5 SWAP4 POP POP POP POP JUMP JUMPDEST PUSH1 0x0 DUP2 MLOAD PUSH1 0x0 EQ ISZERO PUSH2 0x56EB JUMPI POP PUSH1 0x0 PUSH2 0xDDD JUMP JUMPDEST PUSH1 0x0 PUSH2 0x56F8 DUP5 PUSH1 0x20 ADD MLOAD SWAP1 JUMP JUMPDEST SWAP1 POP DUP4 MLOAD PUSH2 0x100 EQ DUP1 ISZERO PUSH2 0x572B JUMPI POP PUSH32 0xCCCCCCCCCCCCCCCCCCCCCCCCCCCCCCCCCCCCCCCCCCCCCCCCCCCCCCCCCCCCCCCC DUP2 EQ JUMPDEST ISZERO PUSH2 0x573A JUMPI PUSH1 0x1 SWAP2 POP POP PUSH2 0xDDD JUMP JUMPDEST DUP4 MLOAD PUSH1 0x40 EQ DUP1 ISZERO PUSH2 0x576A JUMPI POP PUSH32 0xDDDDDDDDDDDDDDDDDDDDDDDDDDDDDDDDDDDDDDDDDDDDDDDDDDDDDDDDDDDDDDDD DUP2 EQ JUMPDEST ISZERO PUSH2 0x5779 JUMPI PUSH1 0x1 SWAP2 POP POP PUSH2 0xDDD JUMP JUMPDEST DUP4 MLOAD PUSH1 0x20 EQ DUP1 ISZERO PUSH2 0x57A9 JUMPI POP PUSH32 0xAAAAAAAAAAAAAAAAAAAAAAAAAAAAAAAAAAAAAAAAAAAAAAAAAAAAAAAAAAAAAAAA DUP2 EQ JUMPDEST ISZERO PUSH2 0x57B8 JUMPI PUSH1 0x1 SWAP2 POP POP PUSH2 0xDDD JUMP JUMPDEST PUSH1 0x0 SWAP2 POP POP PUSH2 0xDDD JUMP JUMPDEST PUSH1 0x20 ADD MLOAD SWAP1 JUMP JUMPDEST PUSH1 0x40 ADD MLOAD SWAP1 JUMP JUMPDEST PUSH1 0x60 ADD MLOAD SWAP1 JUMP JUMPDEST PUSH1 0x80 ADD MLOAD SWAP1 JUMP JUMPDEST PUSH1 0xA0 DUP2 ADD MLOAD PUSH1 0xC0 DUP3 ADD MLOAD PUSH1 0xE0 DUP4 ADD MLOAD PUSH2 0x100 DUP5 ADD MLOAD PUSH1 0x40 MLOAD PUSH1 0x60 SWAP5 SWAP4 SWAP3 SWAP2 SWAP1 PUSH2 0x5816 SWAP1 DUP6 SWAP1 DUP6 SWAP1 DUP6 SWAP1 DUP6 SWAP1 PUSH1 0x0 SWAP1 DUP2 SWAP1 PUSH1 0x20 ADD PUSH2 0x621D JUMP JUMPDEST PUSH1 0x40 MLOAD PUSH1 0x20 DUP2 DUP4 SUB SUB DUP2 MSTORE SWAP1 PUSH1 0x40 MSTORE SWAP5 POP POP POP POP POP SWAP2 SWAP1 POP JUMP JUMPDEST PUSH1 0x0 DUP1 PUSH1 0x0 DUP1 PUSH1 0x0 DUP6 DUP1 PUSH1 0x20 ADD SWAP1 MLOAD DUP2 ADD SWAP1 PUSH2 0x584C SWAP2 SWAP1 PUSH2 0x5C4B JUMP JUMPDEST POP SWAP4 SWAP8 POP SWAP2 SWAP6 POP SWAP4 POP SWAP2 POP PUSH1 0x2 SWAP1 POP DUP2 PUSH1 0x4 DUP2 GT ISZERO PUSH2 0x586D JUMPI PUSH2 0x586D PUSH2 0x65DB JUMP JUMPDEST EQ ISZERO PUSH2 0x5903 JUMPI PUSH1 0x40 MLOAD PUSH4 0x6EB1769F PUSH1 0xE1 SHL DUP2 MSTORE PUSH1 0x1 PUSH1 0x1 PUSH1 0xA0 SHL SUB DUP9 DUP2 AND PUSH1 0x4 DUP4 ADD MSTORE ADDRESS PUSH1 0x24 DUP4 ADD MSTORE DUP5 SWAP2 SWAP1 DUP7 AND SWAP1 PUSH4 0xDD62ED3E SWAP1 PUSH1 0x44 ADD JUMPDEST PUSH1 0x20 PUSH1 0x40 MLOAD DUP1 DUP4 SUB DUP2 DUP7 DUP1 EXTCODESIZE ISZERO DUP1 ISZERO PUSH2 0x58BE JUMPI PUSH1 0x0 DUP1 REVERT JUMPDEST POP GAS STATICCALL ISZERO DUP1 ISZERO PUSH2 0x58D2 JUMPI RETURNDATASIZE PUSH1 0x0 DUP1 RETURNDATACOPY RETURNDATASIZE PUSH1 0x0 REVERT JUMPDEST POP POP POP POP PUSH1 0x40 MLOAD RETURNDATASIZE PUSH1 0x1F NOT PUSH1 0x1F DUP3 ADD AND DUP3 ADD DUP1 PUSH1 0x40 MSTORE POP DUP2 ADD SWAP1 PUSH2 0x58F6 SWAP2 SWAP1 PUSH2 0x5EBA JUMP JUMPDEST LT ISZERO SWAP5 POP POP POP POP POP PUSH2 0xDDD JUMP JUMPDEST PUSH1 0x3 DUP2 PUSH1 0x4 DUP2 GT ISZERO PUSH2 0x5917 JUMPI PUSH2 0x5917 PUSH2 0x65DB JUMP JUMPDEST EQ ISZERO PUSH2 0x59AC JUMPI PUSH1 0x40 MLOAD PUSH4 0x20604BF PUSH1 0xE2 SHL DUP2 MSTORE PUSH1 0x4 DUP2 ADD DUP4 SWAP1 MSTORE ADDRESS SWAP1 PUSH1 0x1 PUSH1 0x1 PUSH1 0xA0 SHL SUB DUP7 AND SWAP1 PUSH4 0x81812FC SWAP1 PUSH1 0x24 ADD PUSH1 0x20 PUSH1 0x40 MLOAD DUP1 DUP4 SUB DUP2 DUP7 DUP1 EXTCODESIZE ISZERO DUP1 ISZERO PUSH2 0x595F JUMPI PUSH1 0x0 DUP1 REVERT JUMPDEST POP GAS STATICCALL ISZERO DUP1 ISZERO PUSH2 0x5973 JUMPI RETURNDATASIZE PUSH1 0x0 DUP1 RETURNDATACOPY RETURNDATASIZE PUSH1 0x0 REVERT JUMPDEST POP POP POP POP PUSH1 0x40 MLOAD RETURNDATASIZE PUSH1 0x1F NOT PUSH1 0x1F DUP3 ADD AND DUP3 ADD DUP1 PUSH1 0x40 MSTORE POP DUP2 ADD SWAP1 PUSH2 0x5997 SWAP2 SWAP1 PUSH2 0x5BB9 JUMP JUMPDEST PUSH1 0x1 PUSH1 0x1 PUSH1 0xA0 SHL SUB AND EQ SWAP5 POP POP POP POP POP PUSH2 0xDDD JUMP JUMPDEST PUSH1 0x4 DUP2 PUSH1 0x4 DUP2 GT ISZERO PUSH2 0x59C0 JUMPI PUSH2 0x59C0 PUSH2 0x65DB JUMP JUMPDEST EQ ISZERO PUSH2 0x344D JUMPI PUSH1 0x40 MLOAD PUSH4 0xBF641E5 PUSH1 0xE1 SHL DUP2 MSTORE PUSH1 0x4 DUP2 ADD DUP4 SWAP1 MSTORE PUSH1 0x1 PUSH1 0x1 PUSH1 0xA0 SHL SUB DUP9 DUP2 AND PUSH1 0x24 DUP4 ADD MSTORE ADDRESS PUSH1 0x44 DUP4 ADD MSTORE DUP5 SWAP2 SWAP1 DUP7 AND SWAP1 PUSH4 0x17EC83CA SWAP1 PUSH1 0x64 ADD PUSH2 0x58A6 JUMP JUMPDEST PUSH1 0x0 PUSH2 0x2E79 DUP3 DUP5 PUSH2 0x64D9 JUMP JUMPDEST DUP3 DUP1 SLOAD PUSH2 0x5A1C SWAP1 PUSH2 0x6575 JUMP JUMPDEST SWAP1 PUSH1 0x0 MSTORE PUSH1 0x20 PUSH1 0x0 KECCAK256 SWAP1 PUSH1 0x1F ADD PUSH1 0x20 SWAP1 DIV DUP2 ADD SWAP3 DUP3 PUSH2 0x5A3E JUMPI PUSH1 0x0 DUP6 SSTORE PUSH2 0x5A84 JUMP JUMPDEST DUP3 PUSH1 0x1F LT PUSH2 0x5A57 JUMPI DUP1 MLOAD PUSH1 0xFF NOT AND DUP4 DUP1 ADD OR DUP6 SSTORE PUSH2 0x5A84 JUMP JUMPDEST DUP3 DUP1 ADD PUSH1 0x1 ADD DUP6 SSTORE DUP3 ISZERO PUSH2 0x5A84 JUMPI SWAP2 DUP3 ADD JUMPDEST DUP3 DUP2 GT ISZERO PUSH2 0x5A84 JUMPI DUP3 MLOAD DUP3 SSTORE SWAP2 PUSH1 0x20 ADD SWAP2 SWAP1 PUSH1 0x1 ADD SWAP1 PUSH2 0x5A69 JUMP JUMPDEST POP PUSH2 0x5A90 SWAP3 SWAP2 POP PUSH2 0x5AE9 JUMP JUMPDEST POP SWAP1 JUMP JUMPDEST DUP3 DUP1 SLOAD DUP3 DUP3 SSTORE SWAP1 PUSH1 0x0 MSTORE PUSH1 0x20 PUSH1 0x0 KECCAK256 SWAP1 DUP2 ADD SWAP3 DUP3 ISZERO PUSH2 0x5A84 JUMPI SWAP2 PUSH1 0x20 MUL DUP3 ADD JUMPDEST DUP3 DUP2 GT ISZERO PUSH2 0x5A84 JUMPI DUP3 MLOAD DUP3 SLOAD PUSH1 0x1 PUSH1 0x1 PUSH1 0xA0 SHL SUB NOT AND PUSH1 0x1 PUSH1 0x1 PUSH1 0xA0 SHL SUB SWAP1 SWAP2 AND OR DUP3 SSTORE PUSH1 0x20 SWAP1 SWAP3 ADD SWAP2 PUSH1 0x1 SWAP1 SWAP2 ADD SWAP1 PUSH2 0x5AB4 JUMP JUMPDEST JUMPDEST DUP1 DUP3 GT ISZERO PUSH2 0x5A90 JUMPI PUSH1 0x0 DUP2 SSTORE PUSH1 0x1 ADD PUSH2 0x5AEA JUMP JUMPDEST DUP1 CALLDATALOAD PUSH2 0x5B09 DUP2 PUSH2 0x663D JUMP JUMPDEST SWAP2 SWAP1 POP JUMP JUMPDEST PUSH1 0x0 DUP1 DUP4 PUSH1 0x1F DUP5 ADD SLT PUSH2 0x5B20 JUMPI PUSH1 0x0 DUP1 REVERT JUMPDEST POP DUP2 CALLDATALOAD PUSH8 0xFFFFFFFFFFFFFFFF DUP2 GT ISZERO PUSH2 0x5B38 JUMPI PUSH1 0x0 DUP1 REVERT JUMPDEST PUSH1 0x20 DUP4 ADD SWAP2 POP DUP4 PUSH1 0x20 DUP3 PUSH1 0x5 SHL DUP6 ADD ADD GT ISZERO PUSH2 0x5B53 JUMPI PUSH1 0x0 DUP1 REVERT JUMPDEST SWAP3 POP SWAP3 SWAP1 POP JUMP JUMPDEST PUSH1 0x0 DUP1 DUP4 PUSH1 0x1F DUP5 ADD SLT PUSH2 0x5B6C JUMPI PUSH1 0x0 DUP1 REVERT JUMPDEST POP DUP2 CALLDATALOAD PUSH8 0xFFFFFFFFFFFFFFFF DUP2 GT ISZERO PUSH2 0x5B84 JUMPI PUSH1 0x0 DUP1 REVERT JUMPDEST PUSH1 0x20 DUP4 ADD SWAP2 POP DUP4 PUSH1 0x20 DUP3 DUP6 ADD ADD GT ISZERO PUSH2 0x5B53 JUMPI PUSH1 0x0 DUP1 REVERT JUMPDEST PUSH1 0x0 PUSH1 0x20 DUP3 DUP5 SUB SLT ISZERO PUSH2 0x5BAE JUMPI PUSH1 0x0 DUP1 REVERT JUMPDEST DUP2 CALLDATALOAD PUSH2 0x2E79 DUP2 PUSH2 0x663D JUMP JUMPDEST PUSH1 0x0 PUSH1 0x20 DUP3 DUP5 SUB SLT ISZERO PUSH2 0x5BCB JUMPI PUSH1 0x0 DUP1 REVERT JUMPDEST DUP2 MLOAD PUSH2 0x2E79 DUP2 PUSH2 0x663D JUMP JUMPDEST PUSH1 0x0 DUP1 PUSH1 0x0 DUP1 PUSH1 0x0 DUP1 PUSH1 0x0 PUSH1 0xE0 DUP9 DUP11 SUB SLT ISZERO PUSH2 0x5BF1 JUMPI PUSH1 0x0 DUP1 REVERT JUMPDEST DUP8 MLOAD PUSH2 0x5BFC DUP2 PUSH2 0x663D JUMP JUMPDEST PUSH1 0x20 DUP10 ADD MLOAD SWAP1 SWAP8 POP PUSH2 0x5C0D DUP2 PUSH2 0x663D JUMP JUMPDEST DUP1 SWAP7 POP POP PUSH1 0x40 DUP9 ADD MLOAD SWAP5 POP PUSH1 0x60 DUP9 ADD MLOAD SWAP4 POP PUSH1 0x80 DUP9 ADD MLOAD PUSH2 0x5C2D DUP2 PUSH2 0x663D JUMP JUMPDEST DUP1 SWAP4 POP POP PUSH1 0xA0 DUP9 ADD MLOAD SWAP2 POP PUSH1 0xC0 DUP9 ADD MLOAD SWAP1 POP SWAP3 SWAP6 SWAP9 SWAP2 SWAP5 SWAP8 POP SWAP3 SWAP6 POP JUMP JUMPDEST PUSH1 0x0 DUP1 PUSH1 0x0 DUP1 PUSH1 0x0 DUP1 PUSH1 0xC0 DUP8 DUP10 SUB SLT ISZERO PUSH2 0x5C64 JUMPI PUSH1 0x0 DUP1 REVERT JUMPDEST DUP7 MLOAD PUSH2 0x5C6F DUP2 PUSH2 0x663D JUMP JUMPDEST DUP1 SWAP7 POP POP PUSH1 0x20 DUP8 ADD MLOAD SWAP5 POP PUSH1 0x40 DUP8 ADD MLOAD SWAP4 POP PUSH1 0x60 DUP8 ADD MLOAD PUSH2 0x5C8F DUP2 PUSH2 0x666D JUMP JUMPDEST PUSH1 0x80 DUP9 ADD MLOAD SWAP1 SWAP4 POP PUSH2 0x5CA0 DUP2 PUSH2 0x6652 JUMP JUMPDEST PUSH1 0xA0 DUP9 ADD MLOAD SWAP1 SWAP3 POP PUSH2 0x5CB1 DUP2 PUSH2 0x6652 JUMP JUMPDEST DUP1 SWAP2 POP POP SWAP3 SWAP6 POP SWAP3 SWAP6 POP SWAP3 SWAP6 JUMP JUMPDEST PUSH1 0x0 DUP1 PUSH1 0x40 DUP4 DUP6 SUB SLT ISZERO PUSH2 0x5CD2 JUMPI PUSH1 0x0 DUP1 REVERT JUMPDEST DUP3 CALLDATALOAD PUSH2 0x5CDD DUP2 PUSH2 0x663D JUMP JUMPDEST SWAP2 POP PUSH1 0x20 DUP4 ADD CALLDATALOAD PUSH2 0x5CED DUP2 PUSH2 0x663D JUMP JUMPDEST DUP1 SWAP2 POP POP SWAP3 POP SWAP3 SWAP1 POP JUMP JUMPDEST PUSH1 0x0 DUP1 PUSH1 0x0 PUSH1 0x60 DUP5 DUP7 SUB SLT ISZERO PUSH2 0x5D0D JUMPI PUSH1 0x0 DUP1 REVERT JUMPDEST DUP4 CALLDATALOAD PUSH2 0x5D18 DUP2 PUSH2 0x663D JUMP JUMPDEST SWAP3 POP PUSH1 0x20 DUP5 ADD CALLDATALOAD PUSH2 0x5D28 DUP2 PUSH2 0x663D JUMP JUMPDEST SWAP2 POP PUSH1 0x40 DUP5 ADD CALLDATALOAD PUSH2 0x5D38 DUP2 PUSH2 0x6652 JUMP JUMPDEST DUP1 SWAP2 POP POP SWAP3 POP SWAP3 POP SWAP3 JUMP JUMPDEST PUSH1 0x0 DUP1 PUSH1 0x0 DUP1 PUSH1 0x80 DUP6 DUP8 SUB SLT ISZERO PUSH2 0x5D59 JUMPI PUSH1 0x0 DUP1 REVERT JUMPDEST DUP5 CALLDATALOAD PUSH2 0x5D64 DUP2 PUSH2 0x663D JUMP JUMPDEST SWAP4 POP PUSH1 0x20 DUP6 ADD CALLDATALOAD PUSH2 0x5D74 DUP2 PUSH2 0x663D JUMP JUMPDEST SWAP4 SWAP7 SWAP4 SWAP6 POP POP POP POP PUSH1 0x40 DUP3 ADD CALLDATALOAD SWAP2 PUSH1 0x60 ADD CALLDATALOAD SWAP1 JUMP JUMPDEST PUSH1 0x0 DUP1 PUSH1 0x0 DUP1 PUSH1 0x0 PUSH1 0xA0 DUP7 DUP9 SUB SLT ISZERO PUSH2 0x5DA1 JUMPI PUSH1 0x0 DUP1 REVERT JUMPDEST DUP6 CALLDATALOAD PUSH2 0x5DAC DUP2 PUSH2 0x663D JUMP JUMPDEST SWAP5 POP PUSH1 0x20 DUP7 ADD CALLDATALOAD PUSH2 0x5DBC DUP2 PUSH2 0x663D JUMP JUMPDEST SWAP5 SWAP8 SWAP5 SWAP7 POP POP POP POP PUSH1 0x40 DUP4 ADD CALLDATALOAD SWAP3 PUSH1 0x60 DUP2 ADD CALLDATALOAD SWAP3 PUSH1 0x80 SWAP1 SWAP2 ADD CALLDATALOAD SWAP2 POP JUMP JUMPDEST PUSH1 0x0 DUP1 PUSH1 0x0 PUSH1 0x40 DUP5 DUP7 SUB SLT ISZERO PUSH2 0x5DEF JUMPI PUSH1 0x0 DUP1 REVERT JUMPDEST DUP4 CALLDATALOAD PUSH2 0x5DFA DUP2 PUSH2 0x663D JUMP JUMPDEST SWAP3 POP PUSH1 0x20 DUP5 ADD CALLDATALOAD PUSH8 0xFFFFFFFFFFFFFFFF DUP2 GT ISZERO PUSH2 0x5E16 JUMPI PUSH1 0x0 DUP1 REVERT JUMPDEST PUSH2 0x5E22 DUP7 DUP3 DUP8 ADD PUSH2 0x5B0E JUMP JUMPDEST SWAP5 SWAP8 SWAP1 SWAP7 POP SWAP4 SWAP5 POP POP POP POP JUMP JUMPDEST PUSH1 0x0 DUP1 PUSH1 0x40 DUP4 DUP6 SUB SLT ISZERO PUSH2 0x5E42 JUMPI PUSH1 0x0 DUP1 REVERT JUMPDEST DUP3 CALLDATALOAD PUSH2 0x5E4D DUP2 PUSH2 0x663D JUMP JUMPDEST SWAP5 PUSH1 0x20 SWAP4 SWAP1 SWAP4 ADD CALLDATALOAD SWAP4 POP POP POP JUMP JUMPDEST PUSH1 0x0 DUP1 PUSH1 0x20 DUP4 DUP6 SUB SLT ISZERO PUSH2 0x5E6E JUMPI PUSH1 0x0 DUP1 REVERT JUMPDEST DUP3 CALLDATALOAD PUSH8 0xFFFFFFFFFFFFFFFF DUP2 GT ISZERO PUSH2 0x5E85 JUMPI PUSH1 0x0 DUP1 REVERT JUMPDEST PUSH2 0x5E91 DUP6 DUP3 DUP7 ADD PUSH2 0x5B0E JUMP JUMPDEST SWAP1 SWAP7 SWAP1 SWAP6 POP SWAP4 POP POP POP POP JUMP JUMPDEST PUSH1 0x0 PUSH1 0x20 DUP3 DUP5 SUB SLT ISZERO PUSH2 0x5EAF JUMPI PUSH1 0x0 DUP1 REVERT JUMPDEST DUP2 MLOAD PUSH2 0x2E79 DUP2 PUSH2 0x6652 JUMP JUMPDEST PUSH1 0x0 PUSH1 0x20 DUP3 DUP5 SUB SLT ISZERO PUSH2 0x5ECC JUMPI PUSH1 0x0 DUP1 REVERT JUMPDEST POP MLOAD SWAP2 SWAP1 POP JUMP JUMPDEST PUSH1 0x0 DUP1 PUSH1 0x40 DUP4 DUP6 SUB SLT ISZERO PUSH2 0x5EE6 JUMPI PUSH1 0x0 DUP1 REVERT JUMPDEST DUP3 CALLDATALOAD SWAP2 POP PUSH1 0x20 DUP4 ADD CALLDATALOAD PUSH2 0x5CED DUP2 PUSH2 0x663D JUMP JUMPDEST PUSH1 0x0 DUP1 PUSH1 0x0 DUP1 PUSH1 0x0 DUP1 PUSH1 0x0 DUP1 PUSH1 0x0 DUP1 PUSH1 0x0 PUSH2 0x100 DUP13 DUP15 SUB SLT ISZERO PUSH2 0x5F1A JUMPI PUSH1 0x0 DUP1 REVERT JUMPDEST PUSH8 0xFFFFFFFFFFFFFFFF DUP1 DUP14 CALLDATALOAD GT ISZERO PUSH2 0x5F31 JUMPI PUSH1 0x0 DUP1 REVERT JUMPDEST PUSH2 0x5F3E DUP15 DUP15 CALLDATALOAD DUP16 ADD PUSH2 0x5B5A JUMP JUMPDEST SWAP1 SWAP13 POP SWAP11 POP PUSH1 0x20 DUP14 ADD CALLDATALOAD SWAP10 POP PUSH2 0x5F56 PUSH1 0x40 DUP15 ADD PUSH2 0x5AFE JUMP JUMPDEST SWAP9 POP PUSH2 0x5F64 PUSH1 0x60 DUP15 ADD PUSH2 0x5AFE JUMP JUMPDEST SWAP8 POP PUSH2 0x5F72 PUSH1 0x80 DUP15 ADD PUSH2 0x5AFE JUMP JUMPDEST SWAP7 POP PUSH1 0xA0 DUP14 ADD CALLDATALOAD SWAP6 POP DUP1 PUSH1 0xC0 DUP15 ADD CALLDATALOAD GT ISZERO PUSH2 0x5F8C JUMPI PUSH1 0x0 DUP1 REVERT JUMPDEST PUSH2 0x5F9C DUP15 PUSH1 0xC0 DUP16 ADD CALLDATALOAD DUP16 ADD PUSH2 0x5B5A JUMP JUMPDEST SWAP1 SWAP6 POP SWAP4 POP PUSH1 0xE0 DUP14 ADD CALLDATALOAD DUP2 LT ISZERO PUSH2 0x5FB2 JUMPI PUSH1 0x0 DUP1 REVERT JUMPDEST POP PUSH2 0x5FC3 DUP14 PUSH1 0xE0 DUP15 ADD CALLDATALOAD DUP15 ADD PUSH2 0x5B5A JUMP JUMPDEST DUP2 SWAP4 POP DUP1 SWAP3 POP POP POP SWAP3 SWAP6 SWAP9 SWAP12 POP SWAP3 SWAP6 SWAP9 SWAP12 SWAP1 SWAP4 SWAP7 SWAP10 POP JUMP JUMPDEST PUSH1 0x0 PUSH1 0x20 DUP3 DUP5 SUB SLT ISZERO PUSH2 0x5FED JUMPI PUSH1 0x0 DUP1 REVERT JUMPDEST DUP2 CALLDATALOAD PUSH8 0xFFFFFFFFFFFFFFFF DUP1 DUP3 GT ISZERO PUSH2 0x6005 JUMPI PUSH1 0x0 DUP1 REVERT JUMPDEST DUP2 DUP5 ADD SWAP2 POP DUP5 PUSH1 0x1F DUP4 ADD SLT PUSH2 0x6019 JUMPI PUSH1 0x0 DUP1 REVERT JUMPDEST DUP2 CALLDATALOAD DUP2 DUP2 GT ISZERO PUSH2 0x602B JUMPI PUSH2 0x602B PUSH2 0x6607 JUMP JUMPDEST PUSH1 0x40 MLOAD PUSH1 0x1F DUP3 ADD PUSH1 0x1F NOT SWAP1 DUP2 AND PUSH1 0x3F ADD AND DUP2 ADD SWAP1 DUP4 DUP3 GT DUP2 DUP4 LT OR ISZERO PUSH2 0x6053 JUMPI PUSH2 0x6053 PUSH2 0x6607 JUMP JUMPDEST DUP2 PUSH1 0x40 MSTORE DUP3 DUP2 MSTORE DUP8 PUSH1 0x20 DUP5 DUP8 ADD ADD GT ISZERO PUSH2 0x606C JUMPI PUSH1 0x0 DUP1 REVERT JUMPDEST DUP3 PUSH1 0x20 DUP7 ADD PUSH1 0x20 DUP4 ADD CALLDATACOPY PUSH1 0x0 SWAP3 DUP2 ADD PUSH1 0x20 ADD SWAP3 SWAP1 SWAP3 MSTORE POP SWAP6 SWAP5 POP POP POP POP POP JUMP JUMPDEST PUSH1 0x0 PUSH1 0x20 DUP3 DUP5 SUB SLT ISZERO PUSH2 0x609E JUMPI PUSH1 0x0 DUP1 REVERT JUMPDEST DUP2 CALLDATALOAD PUSH2 0x2E79 DUP2 PUSH2 0x6660 JUMP JUMPDEST PUSH1 0x0 PUSH1 0x20 DUP3 DUP5 SUB SLT ISZERO PUSH2 0x60BB JUMPI PUSH1 0x0 DUP1 REVERT JUMPDEST DUP2 CALLDATALOAD PUSH2 0x2E79 DUP2 PUSH2 0x666D JUMP JUMPDEST PUSH1 0x0 PUSH2 0x1C0 DUP3 DUP5 SUB SLT ISZERO PUSH2 0x60D9 JUMPI PUSH1 0x0 DUP1 REVERT JUMPDEST POP SWAP2 SWAP1 POP JUMP JUMPDEST PUSH1 0x0 PUSH1 0x20 DUP3 DUP5 SUB SLT ISZERO PUSH2 0x60F1 JUMPI PUSH1 0x0 DUP1 REVERT JUMPDEST POP CALLDATALOAD SWAP2 SWAP1 POP JUMP JUMPDEST PUSH1 0x0 DUP1 PUSH1 0x40 DUP4 DUP6 SUB SLT ISZERO PUSH2 0x610B JUMPI PUSH1 0x0 DUP1 REVERT JUMPDEST DUP3 CALLDATALOAD SWAP2 POP PUSH1 0x20 DUP4 ADD CALLDATALOAD PUSH2 0x5CED DUP2 PUSH2 0x6652 JUMP JUMPDEST PUSH1 0x0 DUP2 MLOAD DUP1 DUP5 MSTORE PUSH2 0x6135 DUP2 PUSH1 0x20 DUP7 ADD PUSH1 0x20 DUP7 ADD PUSH2 0x6549 JUMP JUMPDEST PUSH1 0x1F ADD PUSH1 0x1F NOT AND SWAP3 SWAP1 SWAP3 ADD PUSH1 0x20 ADD SWAP3 SWAP2 POP POP JUMP JUMPDEST PUSH2 0x6152 DUP2 PUSH2 0x661D JUMP JUMPDEST SWAP1 MSTORE JUMP JUMPDEST PUSH2 0x6152 DUP2 PUSH2 0x662D JUMP JUMPDEST PUSH1 0x0 DUP3 MLOAD PUSH2 0x6171 DUP2 DUP5 PUSH1 0x20 DUP8 ADD PUSH2 0x6549 JUMP JUMPDEST SWAP2 SWAP1 SWAP2 ADD SWAP3 SWAP2 POP POP JUMP JUMPDEST PUSH1 0x1 PUSH1 0x1 PUSH1 0xA0 SHL SUB DUP10 DUP2 AND DUP3 MSTORE DUP9 DUP2 AND PUSH1 0x20 DUP4 ADD MSTORE DUP8 AND PUSH1 0x40 DUP3 ADD MSTORE PUSH1 0x60 DUP2 ADD DUP7 SWAP1 MSTORE PUSH2 0x100 PUSH1 0x80 DUP3 ADD DUP2 SWAP1 MSTORE PUSH1 0x0 SWAP1 PUSH2 0x61B7 DUP4 DUP3 ADD DUP9 PUSH2 0x611D JUMP JUMPDEST SWAP1 POP DUP3 DUP2 SUB PUSH1 0xA0 DUP5 ADD MSTORE PUSH2 0x61CB DUP2 DUP8 PUSH2 0x611D JUMP JUMPDEST SWAP2 POP POP PUSH2 0x61D7 DUP5 PUSH2 0x661D JUMP JUMPDEST DUP4 PUSH1 0xC0 DUP4 ADD MSTORE PUSH2 0x61E6 DUP4 PUSH2 0x662D JUMP JUMPDEST DUP3 PUSH1 0xE0 DUP4 ADD MSTORE SWAP10 SWAP9 POP POP POP POP POP POP POP POP POP JUMP JUMPDEST PUSH1 0x1 PUSH1 0x1 PUSH1 0xA0 SHL SUB SWAP4 DUP5 AND DUP2 MSTORE SWAP2 SWAP1 SWAP3 AND PUSH1 0x20 DUP3 ADD MSTORE PUSH1 0x40 DUP2 ADD SWAP2 SWAP1 SWAP2 MSTORE PUSH1 0x60 ADD SWAP1 JUMP JUMPDEST PUSH1 0x1 PUSH1 0x1 PUSH1 0xA0 SHL SUB DUP8 AND DUP2 MSTORE PUSH1 0x20 DUP2 ADD DUP7 SWAP1 MSTORE PUSH1 0x40 DUP2 ADD DUP6 SWAP1 MSTORE PUSH1 0xC0 DUP2 ADD PUSH2 0x6244 DUP6 PUSH2 0x662D JUMP JUMPDEST PUSH1 0x60 DUP3 ADD SWAP5 SWAP1 SWAP5 MSTORE SWAP2 ISZERO ISZERO PUSH1 0x80 DUP4 ADD MSTORE ISZERO ISZERO PUSH1 0xA0 SWAP1 SWAP2 ADD MSTORE SWAP4 SWAP3 POP POP POP JUMP JUMPDEST PUSH1 0x20 DUP1 DUP3 MSTORE DUP3 MLOAD DUP3 DUP3 ADD DUP2 SWAP1 MSTORE PUSH1 0x0 SWAP2 SWAP1 DUP5 DUP3 ADD SWAP1 PUSH1 0x40 DUP6 ADD SWAP1 DUP5 JUMPDEST DUP2 DUP2 LT ISZERO PUSH2 0x62A4 JUMPI DUP4 MLOAD PUSH1 0x1 PUSH1 0x1 PUSH1 0xA0 SHL SUB AND DUP4 MSTORE SWAP3 DUP5 ADD SWAP3 SWAP2 DUP5 ADD SWAP2 PUSH1 0x1 ADD PUSH2 0x627F JUMP JUMPDEST POP SWAP1 SWAP7 SWAP6 POP POP POP POP POP POP JUMP JUMPDEST DUP7 DUP2 MSTORE PUSH1 0x1 PUSH1 0x1 PUSH1 0xA0 SHL SUB DUP7 DUP2 AND PUSH1 0x20 DUP4 ADD MSTORE DUP6 AND PUSH1 0x40 DUP3 ADD MSTORE PUSH1 0x60 DUP2 ADD DUP5 SWAP1 MSTORE PUSH1 0xC0 PUSH1 0x80 DUP3 ADD DUP2 SWAP1 MSTORE PUSH1 0x0 SWAP1 PUSH2 0x62E9 SWAP1 DUP4 ADD DUP6 PUSH2 0x611D JUMP JUMPDEST DUP3 DUP2 SUB PUSH1 0xA0 DUP5 ADD MSTORE PUSH2 0x5114 DUP2 DUP6 PUSH2 0x611D JUMP JUMPDEST PUSH1 0x20 DUP1 DUP3 MSTORE DUP2 DUP2 ADD MSTORE PUSH32 0x4F776E61626C653A2063616C6C6572206973206E6F7420746865206F776E6572 PUSH1 0x40 DUP3 ADD MSTORE PUSH1 0x60 ADD SWAP1 JUMP JUMPDEST PUSH1 0x20 DUP1 DUP3 MSTORE PUSH1 0x21 SWAP1 DUP3 ADD MSTORE PUSH32 0x53656E646572206973206E6F74206120746F6B656E20636F6E74726F6C6C6572 PUSH1 0x40 DUP3 ADD MSTORE PUSH1 0x17 PUSH1 0xF9 SHL PUSH1 0x60 DUP3 ADD MSTORE PUSH1 0x80 ADD SWAP1 JUMP JUMPDEST PUSH1 0x20 DUP1 DUP3 MSTORE PUSH1 0x1D SWAP1 DUP3 ADD MSTORE PUSH32 0x53656E646572206973206E6F742061207072696365206F7261636C652E000000 PUSH1 0x40 DUP3 ADD MSTORE PUSH1 0x60 ADD SWAP1 JUMP JUMPDEST PUSH1 0x20 DUP1 DUP3 MSTORE PUSH1 0x14 SWAP1 DUP3 ADD MSTORE PUSH20 0x5472616465206973206E6F742070656E64696E67 PUSH1 0x60 SHL PUSH1 0x40 DUP3 ADD MSTORE PUSH1 0x60 ADD SWAP1 JUMP JUMPDEST DUP2 MLOAD PUSH1 0x1 PUSH1 0x1 PUSH1 0xA0 SHL SUB AND DUP2 MSTORE PUSH2 0x1C0 DUP2 ADD PUSH1 0x20 DUP4 ADD MLOAD PUSH2 0x6402 PUSH1 0x20 DUP5 ADD DUP3 PUSH1 0x1 PUSH1 0x1 PUSH1 0xA0 SHL SUB AND SWAP1 MSTORE JUMP JUMPDEST POP PUSH1 0x40 DUP4 ADD MLOAD PUSH2 0x641D PUSH1 0x40 DUP5 ADD DUP3 PUSH1 0x1 PUSH1 0x1 PUSH1 0xA0 SHL SUB AND SWAP1 MSTORE JUMP JUMPDEST POP PUSH1 0x60 DUP4 ADD MLOAD PUSH1 0x60 DUP4 ADD MSTORE PUSH1 0x80 DUP4 ADD MLOAD PUSH2 0x6442 PUSH1 0x80 DUP5 ADD DUP3 PUSH1 0x1 PUSH1 0x1 PUSH1 0xA0 SHL SUB AND SWAP1 MSTORE JUMP JUMPDEST POP PUSH1 0xA0 DUP4 ADD MLOAD PUSH1 0xA0 DUP4 ADD MSTORE PUSH1 0xC0 DUP4 ADD MLOAD PUSH1 0xC0 DUP4 ADD MSTORE PUSH1 0xE0 DUP4 ADD MLOAD PUSH2 0x6469 PUSH1 0xE0 DUP5 ADD DUP3 PUSH2 0x6156 JUMP JUMPDEST POP PUSH2 0x100 DUP4 DUP2 ADD MLOAD PUSH1 0x1 PUSH1 0x1 PUSH1 0xA0 SHL SUB AND SWAP1 DUP4 ADD MSTORE PUSH2 0x120 DUP1 DUP5 ADD MLOAD SWAP1 DUP4 ADD MSTORE PUSH2 0x140 DUP1 DUP5 ADD MLOAD SWAP1 DUP4 ADD MSTORE PUSH2 0x160 DUP1 DUP5 ADD MLOAD PUSH2 0x64A7 DUP3 DUP6 ADD DUP3 PUSH2 0x6156 JUMP JUMPDEST POP POP PUSH2 0x180 DUP1 DUP5 ADD MLOAD PUSH2 0x64BC DUP3 DUP6 ADD DUP3 PUSH2 0x6149 JUMP JUMPDEST POP POP PUSH2 0x1A0 DUP1 DUP5 ADD MLOAD PUSH2 0x64D1 DUP3 DUP6 ADD DUP3 PUSH2 0x6149 JUMP JUMPDEST POP POP SWAP3 SWAP2 POP POP JUMP JUMPDEST PUSH1 0x0 DUP3 NOT DUP3 GT ISZERO PUSH2 0x64EC JUMPI PUSH2 0x64EC PUSH2 0x65C5 JUMP JUMPDEST POP ADD SWAP1 JUMP JUMPDEST PUSH1 0x0 DUP3 PUSH2 0x650E JUMPI PUSH4 0x4E487B71 PUSH1 0xE0 SHL PUSH1 0x0 MSTORE PUSH1 0x12 PUSH1 0x4 MSTORE PUSH1 0x24 PUSH1 0x0 REVERT JUMPDEST POP DIV SWAP1 JUMP JUMPDEST PUSH1 0x0 DUP2 PUSH1 0x0 NOT DIV DUP4 GT DUP3 ISZERO ISZERO AND ISZERO PUSH2 0x652D JUMPI PUSH2 0x652D PUSH2 0x65C5 JUMP JUMPDEST POP MUL SWAP1 JUMP JUMPDEST PUSH1 0x0 DUP3 DUP3 LT ISZERO PUSH2 0x6544 JUMPI PUSH2 0x6544 PUSH2 0x65C5 JUMP JUMPDEST POP SUB SWAP1 JUMP JUMPDEST PUSH1 0x0 JUMPDEST DUP4 DUP2 LT ISZERO PUSH2 0x6564 JUMPI DUP2 DUP2 ADD MLOAD DUP4 DUP3 ADD MSTORE PUSH1 0x20 ADD PUSH2 0x654C JUMP JUMPDEST DUP4 DUP2 GT ISZERO PUSH2 0x6DB JUMPI POP POP PUSH1 0x0 SWAP2 ADD MSTORE JUMP JUMPDEST PUSH1 0x1 DUP2 DUP2 SHR SWAP1 DUP3 AND DUP1 PUSH2 0x6589 JUMPI PUSH1 0x7F DUP3 AND SWAP2 POP JUMPDEST PUSH1 0x20 DUP3 LT DUP2 EQ ISZERO PUSH2 0x60D9 JUMPI PUSH4 0x4E487B71 PUSH1 0xE0 SHL PUSH1 0x0 MSTORE PUSH1 0x22 PUSH1 0x4 MSTORE PUSH1 0x24 PUSH1 0x0 REVERT JUMPDEST PUSH1 0x0 PUSH1 0x0 NOT DUP3 EQ ISZERO PUSH2 0x65BE JUMPI PUSH2 0x65BE PUSH2 0x65C5 JUMP JUMPDEST POP PUSH1 0x1 ADD SWAP1 JUMP JUMPDEST PUSH4 0x4E487B71 PUSH1 0xE0 SHL PUSH1 0x0 MSTORE PUSH1 0x11 PUSH1 0x4 MSTORE PUSH1 0x24 PUSH1 0x0 REVERT JUMPDEST PUSH4 0x4E487B71 PUSH1 0xE0 SHL PUSH1 0x0 MSTORE PUSH1 0x21 PUSH1 0x4 MSTORE PUSH1 0x24 PUSH1 0x0 REVERT JUMPDEST PUSH4 0x4E487B71 PUSH1 0xE0 SHL PUSH1 0x0 MSTORE PUSH1 0x32 PUSH1 0x4 MSTORE PUSH1 0x24 PUSH1 0x0 REVERT JUMPDEST PUSH4 0x4E487B71 PUSH1 0xE0 SHL PUSH1 0x0 MSTORE PUSH1 0x41 PUSH1 0x4 MSTORE PUSH1 0x24 PUSH1 0x0 REVERT JUMPDEST PUSH1 0x2 DUP2 LT PUSH2 0x2721 JUMPI PUSH2 0x2721 PUSH2 0x65DB JUMP JUMPDEST PUSH1 0x5 DUP2 LT PUSH2 0x2721 JUMPI PUSH2 0x2721 PUSH2 0x65DB JUMP JUMPDEST PUSH1 0x1 PUSH1 0x1 PUSH1 0xA0 SHL SUB DUP2 AND DUP2 EQ PUSH2 0x2721 JUMPI PUSH1 0x0 DUP1 REVERT JUMPDEST DUP1 ISZERO ISZERO DUP2 EQ PUSH2 0x2721 JUMPI PUSH1 0x0 DUP1 REVERT JUMPDEST PUSH1 0x2 DUP2 LT PUSH2 0x2721 JUMPI PUSH1 0x0 DUP1 REVERT JUMPDEST PUSH1 0x5 DUP2 LT PUSH2 0x2721 JUMPI PUSH1 0x0 DUP1 REVERT INVALID MSTORE8 PUSH6 0x6E6465722069 PUSH20 0x206E6F7420616C6C6F77656420746F2063616E63 PUSH6 0x6C20A2646970 PUSH7 0x735822122040D2 DUP13 0xC0 SWAP5 PUSH7 0x8929FF84204069 MLOAD PUSH26 0x8BC7900FD9D8C07FAAC9635CF24A9BFE2364736F6C6343000807 STOP CALLER "
		},
		"gasEstimates": {
			"creation": {
				"codeDepositCost": "5264000",
				"executionCost": "infinite",
				"totalCost": "infinite"
			},
			"external": {
				"approveTrade(uint256,bool)": "infinite",
				"canImplementInterfaceForAddress(bytes32,address)": "2840",
				"canReceive(bytes,bytes32,address,address,address,uint256,bytes,bytes)": "infinite",
				"cancelTrade(uint256)": "infinite",
				"enableExecution(bytes)": "infinite",
				"executeTrade(uint256)": "infinite",
				"forceTrade(uint256)": "infinite",
				"getNbTrades()": "2403",
				"getPrice(uint256)": "infinite",
				"getPriceOwnership(address,address)": "infinite",
				"getTokenPrice(address,address,bytes32,bytes32)": "infinite",
				"getTrade(uint256)": "infinite",
				"getTradeAcceptanceStatus(uint256)": "infinite",
				"getTradeApprovalStatus(uint256)": "infinite",
				"owner()": "2346",
				"priceOracles(address)": "infinite",
				"registerContract()": "infinite",
				"renounceOwnership()": "54607",
				"requestTrade((address,address,address,uint256,address,uint256,bytes32,uint8,address,uint256,bytes32,uint8,uint8,uint8))": "infinite",
				"setPriceOracles(address,address[])": "infinite",
				"setPriceOwnership(address,address,bool)": "infinite",
				"setTokenControllers(address,address[])": "infinite",
				"setTokenPrice(address,address,bytes32,bytes32,uint256)": "infinite",
				"setTradeExecuters(address[])": "infinite",
				"setVariablePriceStartDate(address,uint256)": "infinite",
				"tokenControllers(address)": "infinite",
				"tokensReceived(bytes,bytes32,address,address,address,uint256,bytes,bytes)": "infinite",
				"tradeExecuters()": "infinite",
				"transferOwnership(address)": "infinite",
				"variablePriceStartDate(address)": "2599"
			},
			"internal": {
				"_acceptTrade(uint256,address,uint256,uint256)": "infinite",
				"_allowanceIsProvided(address,bytes memory)": "infinite",
				"_canReceive(bytes memory,bytes memory)": "infinite",
				"_checkPriceOracle(address,address)": "infinite",
				"_computePropertyOffer(address)": "infinite",
				"_executeTrade(uint256)": "infinite",
				"_getPrice(uint256)": "infinite",
				"_getTradeExecuter(bytes memory)": "infinite",
				"_getTradeExpirationDate(bytes memory)": "infinite",
				"_getTradeFlag(bytes memory)": "infinite",
				"_getTradeIndex(bytes memory)": "infinite",
				"_getTradeRecipient(bytes memory)": "infinite",
				"_getTradeTokenData(bytes memory)": "infinite",
				"_makeSale(address,address)": "infinite",
				"_requestTrade(address,address,address,uint256,bytes memory,bytes memory,enum DVP.TradeType,enum DVP.SaleType)": "infinite",
				"_setPartiallySold(address,uint256,uint256,address,bytes32,bytes32)": "infinite",
				"_setPriceOracles(address,address[] memory)": "infinite",
				"_setTokenControllers(address,address[] memory)": "infinite",
				"_setTradeExecuters(address[] memory)": "infinite",
				"_tradeisAccepted(uint256)": "infinite",
				"_tradeisApproved(uint256)": "infinite",
				"_transferUsersTokens(uint256,enum DVP.Holder,uint256,bool)": "infinite"
			}
		},
		"methodIdentifiers": {
			"approveTrade(uint256,bool)": "6775ce04",
			"canImplementInterfaceForAddress(bytes32,address)": "249cb3fa",
			"canReceive(bytes,bytes32,address,address,address,uint256,bytes,bytes)": "f55886df",
			"cancelTrade(uint256)": "09ec6cc7",
			"enableExecution(bytes)": "bb46be98",
			"executeTrade(uint256)": "02d2838b",
			"forceTrade(uint256)": "61108c06",
			"getNbTrades()": "ebbca407",
			"getPrice(uint256)": "e7572230",
			"getPriceOwnership(address,address)": "1af6649f",
			"getTokenPrice(address,address,bytes32,bytes32)": "8595240b",
			"getTrade(uint256)": "2db25e05",
			"getTradeAcceptanceStatus(uint256)": "35341464",
			"getTradeApprovalStatus(uint256)": "935259a8",
			"owner()": "8da5cb5b",
			"priceOracles(address)": "01374518",
			"registerContract()": "7feffff3",
			"renounceOwnership()": "715018a6",
			"requestTrade((address,address,address,uint256,address,uint256,bytes32,uint8,address,uint256,bytes32,uint8,uint8,uint8))": "d0b49af0",
			"setPriceOracles(address,address[])": "01636f4e",
			"setPriceOwnership(address,address,bool)": "0baf41a6",
			"setTokenControllers(address,address[])": "ec96dfb4",
			"setTokenPrice(address,address,bytes32,bytes32,uint256)": "58727467",
			"setTradeExecuters(address[])": "a22ae631",
			"setVariablePriceStartDate(address,uint256)": "c9adffe2",
			"tokenControllers(address)": "759561fa",
			"tokensReceived(bytes,bytes32,address,address,address,uint256,bytes,bytes)": "f464b576",
			"tradeExecuters()": "45a06cb2",
			"transferOwnership(address)": "f2fde38b",
			"variablePriceStartDate(address)": "30f97699"
		}
	},
	"abi": [
		{
			"inputs": [
				{
					"internalType": "bool",
					"name": "owned",
					"type": "bool"
				},
				{
					"internalType": "bool",
					"name": "escrowForbidden",
					"type": "bool"
				}
			],
			"stateMutability": "nonpayable",
			"type": "constructor"
		},
		{
			"anonymous": false,
			"inputs": [
				{
					"indexed": true,
					"internalType": "address",
					"name": "previousOwner",
					"type": "address"
				},
				{
					"indexed": true,
					"internalType": "address",
					"name": "newOwner",
					"type": "address"
				}
			],
			"name": "OwnershipTransferred",
			"type": "event"
		},
		{
			"inputs": [
				{
					"internalType": "uint256",
					"name": "index",
					"type": "uint256"
				},
				{
					"internalType": "bool",
					"name": "approved",
					"type": "bool"
				}
			],
			"name": "approveTrade",
			"outputs": [],
			"stateMutability": "nonpayable",
			"type": "function"
		},
		{
			"inputs": [
				{
					"internalType": "bytes32",
					"name": "interfaceHash",
					"type": "bytes32"
				},
				{
					"internalType": "address",
					"name": "addr",
					"type": "address"
				}
			],
			"name": "canImplementInterfaceForAddress",
			"outputs": [
				{
					"internalType": "bytes32",
					"name": "",
					"type": "bytes32"
				}
			],
			"stateMutability": "view",
			"type": "function"
		},
		{
			"inputs": [
				{
					"internalType": "bytes",
					"name": "",
					"type": "bytes"
				},
				{
					"internalType": "bytes32",
					"name": "",
					"type": "bytes32"
				},
				{
					"internalType": "address",
					"name": "",
					"type": "address"
				},
				{
					"internalType": "address",
					"name": "",
					"type": "address"
				},
				{
					"internalType": "address",
					"name": "",
					"type": "address"
				},
				{
					"internalType": "uint256",
					"name": "",
					"type": "uint256"
				},
				{
					"internalType": "bytes",
					"name": "data",
					"type": "bytes"
				},
				{
					"internalType": "bytes",
					"name": "operatorData",
					"type": "bytes"
				}
			],
			"name": "canReceive",
			"outputs": [
				{
					"internalType": "bool",
					"name": "",
					"type": "bool"
				}
			],
			"stateMutability": "view",
			"type": "function"
		},
		{
			"inputs": [
				{
					"internalType": "uint256",
					"name": "index",
					"type": "uint256"
				}
			],
			"name": "cancelTrade",
			"outputs": [],
			"stateMutability": "nonpayable",
			"type": "function"
		},
		{
			"inputs": [
				{
					"internalType": "bytes",
					"name": "data",
					"type": "bytes"
				}
			],
			"name": "enableExecution",
			"outputs": [],
			"stateMutability": "nonpayable",
			"type": "function"
		},
		{
			"inputs": [
				{
					"internalType": "uint256",
					"name": "index",
					"type": "uint256"
				}
			],
			"name": "executeTrade",
			"outputs": [],
			"stateMutability": "nonpayable",
			"type": "function"
		},
		{
			"inputs": [
				{
					"internalType": "uint256",
					"name": "index",
					"type": "uint256"
				}
			],
			"name": "forceTrade",
			"outputs": [],
			"stateMutability": "nonpayable",
			"type": "function"
		},
		{
			"inputs": [],
			"name": "getNbTrades",
			"outputs": [
				{
					"internalType": "uint256",
					"name": "",
					"type": "uint256"
				}
			],
			"stateMutability": "view",
			"type": "function"
		},
		{
			"inputs": [
				{
					"internalType": "uint256",
					"name": "index",
					"type": "uint256"
				}
			],
			"name": "getPrice",
			"outputs": [
				{
					"internalType": "uint256",
					"name": "",
					"type": "uint256"
				}
			],
			"stateMutability": "view",
			"type": "function"
		},
		{
			"inputs": [
				{
					"internalType": "address",
					"name": "tokenAddress1",
					"type": "address"
				},
				{
					"internalType": "address",
					"name": "tokenAddress2",
					"type": "address"
				}
			],
			"name": "getPriceOwnership",
			"outputs": [
				{
					"internalType": "bool",
					"name": "",
					"type": "bool"
				}
			],
			"stateMutability": "view",
			"type": "function"
		},
		{
			"inputs": [
				{
					"internalType": "address",
					"name": "tokenAddress1",
					"type": "address"
				},
				{
					"internalType": "address",
					"name": "tokenAddress2",
					"type": "address"
				},
				{
					"internalType": "bytes32",
					"name": "tokenId1",
					"type": "bytes32"
				},
				{
					"internalType": "bytes32",
					"name": "tokenId2",
					"type": "bytes32"
				}
			],
			"name": "getTokenPrice",
			"outputs": [
				{
					"internalType": "uint256",
					"name": "",
					"type": "uint256"
				}
			],
			"stateMutability": "view",
			"type": "function"
		},
		{
			"inputs": [
				{
					"internalType": "uint256",
					"name": "index",
					"type": "uint256"
				}
			],
			"name": "getTrade",
			"outputs": [
				{
					"internalType": "address",
					"name": "",
					"type": "address"
				},
				{
					"internalType": "address",
					"name": "",
					"type": "address"
				},
				{
					"internalType": "address",
					"name": "",
					"type": "address"
				},
				{
					"internalType": "uint256",
					"name": "",
					"type": "uint256"
				},
				{
					"internalType": "bytes",
					"name": "",
					"type": "bytes"
				},
				{
					"internalType": "bytes",
					"name": "",
					"type": "bytes"
				},
				{
					"internalType": "enum DVP.TradeType",
					"name": "",
					"type": "uint8"
				},
				{
					"internalType": "enum DVP.State",
					"name": "",
					"type": "uint8"
				}
			],
			"stateMutability": "view",
			"type": "function"
		},
		{
			"inputs": [
				{
					"internalType": "uint256",
					"name": "index",
					"type": "uint256"
				}
			],
			"name": "getTradeAcceptanceStatus",
			"outputs": [
				{
					"internalType": "bool",
					"name": "",
					"type": "bool"
				}
			],
			"stateMutability": "view",
			"type": "function"
		},
		{
			"inputs": [
				{
					"internalType": "uint256",
					"name": "index",
					"type": "uint256"
				}
			],
			"name": "getTradeApprovalStatus",
			"outputs": [
				{
					"internalType": "bool",
					"name": "",
					"type": "bool"
				}
			],
			"stateMutability": "view",
			"type": "function"
		},
		{
			"inputs": [],
			"name": "owner",
			"outputs": [
				{
					"internalType": "address",
					"name": "",
					"type": "address"
				}
			],
			"stateMutability": "view",
			"type": "function"
		},
		{
			"inputs": [
				{
					"internalType": "address",
					"name": "tokenAddress",
					"type": "address"
				}
			],
			"name": "priceOracles",
			"outputs": [
				{
					"internalType": "address[]",
					"name": "",
					"type": "address[]"
				}
			],
			"stateMutability": "view",
			"type": "function"
		},
		{
			"inputs": [],
			"name": "registerContract",
			"outputs": [
				{
					"internalType": "bool",
					"name": "",
					"type": "bool"
				}
			],
			"stateMutability": "nonpayable",
			"type": "function"
		},
		{
			"inputs": [],
			"name": "renounceOwnership",
			"outputs": [],
			"stateMutability": "nonpayable",
			"type": "function"
		},
		{
			"inputs": [
				{
					"components": [
						{
							"internalType": "address",
							"name": "holder1",
							"type": "address"
						},
						{
							"internalType": "address",
							"name": "holder2",
							"type": "address"
						},
						{
							"internalType": "address",
							"name": "executer",
							"type": "address"
						},
						{
							"internalType": "uint256",
							"name": "expirationDate",
							"type": "uint256"
						},
						{
							"internalType": "address",
							"name": "tokenAddress1",
							"type": "address"
						},
						{
							"internalType": "uint256",
							"name": "tokenValue1",
							"type": "uint256"
						},
						{
							"internalType": "bytes32",
							"name": "tokenId1",
							"type": "bytes32"
						},
						{
							"internalType": "enum DVP.Standard",
							"name": "tokenStandard1",
							"type": "uint8"
						},
						{
							"internalType": "address",
							"name": "tokenAddress2",
							"type": "address"
						},
						{
							"internalType": "uint256",
							"name": "tokenValue2",
							"type": "uint256"
						},
						{
							"internalType": "bytes32",
							"name": "tokenId2",
							"type": "bytes32"
						},
						{
							"internalType": "enum DVP.Standard",
							"name": "tokenStandard2",
							"type": "uint8"
						},
						{
							"internalType": "enum DVP.TradeType",
							"name": "tradeType",
							"type": "uint8"
						},
						{
							"internalType": "enum DVP.SaleType",
							"name": "saleType",
							"type": "uint8"
						}
					],
					"internalType": "struct DVP.TradeRequestInput",
					"name": "inputData",
					"type": "tuple"
				}
			],
			"name": "requestTrade",
			"outputs": [],
			"stateMutability": "payable",
			"type": "function"
		},
		{
			"inputs": [
				{
					"internalType": "address",
					"name": "tokenAddress",
					"type": "address"
				},
				{
					"internalType": "address[]",
					"name": "oracles",
					"type": "address[]"
				}
			],
			"name": "setPriceOracles",
			"outputs": [],
			"stateMutability": "nonpayable",
			"type": "function"
		},
		{
			"inputs": [
				{
					"internalType": "address",
					"name": "tokenAddress1",
					"type": "address"
				},
				{
					"internalType": "address",
					"name": "tokenAddress2",
					"type": "address"
				},
				{
					"internalType": "bool",
					"name": "priceOwnership",
					"type": "bool"
				}
			],
			"name": "setPriceOwnership",
			"outputs": [],
			"stateMutability": "nonpayable",
			"type": "function"
		},
		{
			"inputs": [
				{
					"internalType": "address",
					"name": "tokenAddress",
					"type": "address"
				},
				{
					"internalType": "address[]",
					"name": "operators",
					"type": "address[]"
				}
			],
			"name": "setTokenControllers",
			"outputs": [],
			"stateMutability": "nonpayable",
			"type": "function"
		},
		{
			"inputs": [
				{
					"internalType": "address",
					"name": "tokenAddress1",
					"type": "address"
				},
				{
					"internalType": "address",
					"name": "tokenAddress2",
					"type": "address"
				},
				{
					"internalType": "bytes32",
					"name": "tokenId1",
					"type": "bytes32"
				},
				{
					"internalType": "bytes32",
					"name": "tokenId2",
					"type": "bytes32"
				},
				{
					"internalType": "uint256",
					"name": "newPrice",
					"type": "uint256"
				}
			],
			"name": "setTokenPrice",
			"outputs": [],
			"stateMutability": "nonpayable",
			"type": "function"
		},
		{
			"inputs": [
				{
					"internalType": "address[]",
					"name": "operators",
					"type": "address[]"
				}
			],
			"name": "setTradeExecuters",
			"outputs": [],
			"stateMutability": "nonpayable",
			"type": "function"
		},
		{
			"inputs": [
				{
					"internalType": "address",
					"name": "tokenAddress",
					"type": "address"
				},
				{
					"internalType": "uint256",
					"name": "startDate",
					"type": "uint256"
				}
			],
			"name": "setVariablePriceStartDate",
			"outputs": [],
			"stateMutability": "nonpayable",
			"type": "function"
		},
		{
			"inputs": [
				{
					"internalType": "address",
					"name": "tokenAddress",
					"type": "address"
				}
			],
			"name": "tokenControllers",
			"outputs": [
				{
					"internalType": "address[]",
					"name": "",
					"type": "address[]"
				}
			],
			"stateMutability": "view",
			"type": "function"
		},
		{
			"inputs": [
				{
					"internalType": "bytes",
					"name": "",
					"type": "bytes"
				},
				{
					"internalType": "bytes32",
					"name": "partition",
					"type": "bytes32"
				},
				{
					"internalType": "address",
					"name": "",
					"type": "address"
				},
				{
					"internalType": "address",
					"name": "from",
					"type": "address"
				},
				{
					"internalType": "address",
					"name": "to",
					"type": "address"
				},
				{
					"internalType": "uint256",
					"name": "value",
					"type": "uint256"
				},
				{
					"internalType": "bytes",
					"name": "data",
					"type": "bytes"
				},
				{
					"internalType": "bytes",
					"name": "operatorData",
					"type": "bytes"
				}
			],
			"name": "tokensReceived",
			"outputs": [],
			"stateMutability": "nonpayable",
			"type": "function"
		},
		{
			"inputs": [],
			"name": "tradeExecuters",
			"outputs": [
				{
					"internalType": "address[]",
					"name": "",
					"type": "address[]"
				}
			],
			"stateMutability": "view",
			"type": "function"
		},
		{
			"inputs": [
				{
					"internalType": "address",
					"name": "newOwner",
					"type": "address"
				}
			],
			"name": "transferOwnership",
			"outputs": [],
			"stateMutability": "nonpayable",
			"type": "function"
		},
		{
			"inputs": [
				{
					"internalType": "address",
					"name": "tokenAddress",
					"type": "address"
				}
			],
			"name": "variablePriceStartDate",
			"outputs": [
				{
					"internalType": "uint256",
					"name": "",
					"type": "uint256"
				}
			],
			"stateMutability": "view",
			"type": "function"
		}
	]
}