{
	"data": {
		"bytecode": {
			"linkReferences": {},
			"object": "608060405234801561001057600080fd5b5061093d806100206000396000f3fe608060405234801561001057600080fd5b50600436106100885760003560e01c8063a41e7d511161005b578063a41e7d5114610106578063aabbb8ca14610119578063b70567651461012c578063f712f3e81461014f57600080fd5b806329965a1d1461008d5780633d584063146100a25780635df8122f146100d257806365ba36c1146100e5575b600080fd5b6100a061009b3660046107ec565b610162565b005b6100b56100b036600461076d565b6103bd565b6040516001600160a01b0390911681526020015b60405180910390f35b6100a06100e036600461078f565b610406565b6100f86100f3366004610885565b6104da565b6040519081526020016100c9565b6100a0610114366004610828565b61050e565b6100b56101273660046107c2565b61058b565b61013f61013a366004610828565b610602565b60405190151581526020016100c9565b61013f61015d366004610828565b6106a4565b60006001600160a01b03841615610179578361017b565b335b905033610187826103bd565b6001600160a01b0316146101d45760405162461bcd60e51b815260206004820152600f60248201526e2737ba103a34329036b0b730b3b2b960891b60448201526064015b60405180910390fd5b6001600160e01b03831661022a5760405162461bcd60e51b815260206004820152601a60248201527f4d757374206e6f7420626520616e20455243313635206861736800000000000060448201526064016101cb565b6001600160a01b0382161580159061024b57506001600160a01b0382163314155b156103595760405173455243313832305f4143434550545f4d4147494360601b602082015260340160408051601f1981840301815290829052805160209091012063124e59fd60e11b8252600482018590526001600160a01b03838116602484015290919084169063249cb3fa9060440160206040518083038186803b1580156102d457600080fd5b505afa1580156102e8573d6000803e3d6000fd5b505050506040513d601f19601f8201168201806040525081019061030c919061086c565b146103595760405162461bcd60e51b815260206004820181905260248201527f446f6573206e6f7420696d706c656d656e742074686520696e7465726661636560448201526064016101cb565b6001600160a01b0381811660008181526020818152604080832088845290915280822080546001600160a01b0319169487169485179055518692917f93baa6efbd2244243bfee6ce4cfdd1d04fc4c0e9a786abd3a41313bd352db15391a450505050565b6001600160a01b038181166000908152600160205260408120549091166103e2575090565b506001600160a01b039081166000908152600160205260409020541690565b919050565b33610410836103bd565b6001600160a01b0316146104585760405162461bcd60e51b815260206004820152600f60248201526e2737ba103a34329036b0b730b3b2b960891b60448201526064016101cb565b816001600160a01b0316816001600160a01b031614610477578061047a565b60005b6001600160a01b0383811660008181526001602052604080822080546001600160a01b0319169585169590951790945592519184169290917f605c2dbf762e5f7d60a546d42e7205dcb1b011ebc62a61736a57c9089d3a43509190a35050565b600082826040516020016104ef9291906108f7565b6040516020818303038152906040528051906020012090505b92915050565b6105188282610602565b610523576000610525565b815b6001600160a01b039283166000818152602081815260408083206001600160e01b03199690961680845295825280832080546001600160a01b0319169590971694909417909555908152600284528181209281529190925220805460ff19166001179055565b6000806001600160a01b038416156105a357836105a5565b335b90506001600160e01b0383166105d657826105c082826106a4565b6105cb5760006105cd565b815b92505050610508565b6001600160a01b0390811660009081526020818152604080832086845290915290205416905092915050565b60008080610617856301ffc9a760e01b610722565b9092509050811580610627575080155b1561063757600092505050610508565b610649856001600160e01b0319610722565b909250905081158061065a57508015155b1561066a57600092505050610508565b6106748585610722565b90925090506001821480156106895750806001145b1561069957600192505050610508565b506000949350505050565b6001600160a01b03821660009081526002602090815260408083206001600160e01b03198516845290915281205460ff166106ea576106e38383610602565b9050610508565b506001600160a01b038083166000818152602081815260408083206001600160e01b0319871684529091529020549091161492915050565b6040516301ffc9a760e01b8082526004820183905260009182919060208160248189617530fa905190969095509350505050565b80356001600160a01b038116811461040157600080fd5b60006020828403121561077f57600080fd5b61078882610756565b9392505050565b600080604083850312156107a257600080fd5b6107ab83610756565b91506107b960208401610756565b90509250929050565b600080604083850312156107d557600080fd5b6107de83610756565b946020939093013593505050565b60008060006060848603121561080157600080fd5b61080a84610756565b92506020840135915061081f60408501610756565b90509250925092565b6000806040838503121561083b57600080fd5b61084483610756565b915060208301356001600160e01b03198116811461086157600080fd5b809150509250929050565b60006020828403121561087e57600080fd5b5051919050565b6000806020838503121561089857600080fd5b823567ffffffffffffffff808211156108b057600080fd5b818501915085601f8301126108c457600080fd5b8135818111156108d357600080fd5b8660208285010111156108e557600080fd5b60209290920196919550909350505050565b818382376000910190815291905056fea2646970667358221220f070246dafd49cb1475430b47d3f9f3c98db14b1850b90d90f02c0fe934d59e564736f6c63430008070033",
			"opcodes": "PUSH1 0x80 PUSH1 0x40 MSTORE CALLVALUE DUP1 ISZERO PUSH2 0x10 JUMPI PUSH1 0x0 DUP1 REVERT JUMPDEST POP PUSH2 0x93D DUP1 PUSH2 0x20 PUSH1 0x0 CODECOPY PUSH1 0x0 RETURN INVALID PUSH1 0x80 PUSH1 0x40 MSTORE CALLVALUE DUP1 ISZERO PUSH2 0x10 JUMPI PUSH1 0x0 DUP1 REVERT JUMPDEST POP PUSH1 0x4 CALLDATASIZE LT PUSH2 0x88 JUMPI PUSH1 0x0 CALLDATALOAD PUSH1 0xE0 SHR DUP1 PUSH4 0xA41E7D51 GT PUSH2 0x5B JUMPI DUP1 PUSH4 0xA41E7D51 EQ PUSH2 0x106 JUMPI DUP1 PUSH4 0xAABBB8CA EQ PUSH2 0x119 JUMPI DUP1 PUSH4 0xB7056765 EQ PUSH2 0x12C JUMPI DUP1 PUSH4 0xF712F3E8 EQ PUSH2 0x14F JUMPI PUSH1 0x0 DUP1 REVERT JUMPDEST DUP1 PUSH4 0x29965A1D EQ PUSH2 0x8D JUMPI DUP1 PUSH4 0x3D584063 EQ PUSH2 0xA2 JUMPI DUP1 PUSH4 0x5DF8122F EQ PUSH2 0xD2 JUMPI DUP1 PUSH4 0x65BA36C1 EQ PUSH2 0xE5 JUMPI JUMPDEST PUSH1 0x0 DUP1 REVERT JUMPDEST PUSH2 0xA0 PUSH2 0x9B CALLDATASIZE PUSH1 0x4 PUSH2 0x7EC JUMP JUMPDEST PUSH2 0x162 JUMP JUMPDEST STOP JUMPDEST PUSH2 0xB5 PUSH2 0xB0 CALLDATASIZE PUSH1 0x4 PUSH2 0x76D JUMP JUMPDEST PUSH2 0x3BD JUMP JUMPDEST PUSH1 0x40 MLOAD PUSH1 0x1 PUSH1 0x1 PUSH1 0xA0 SHL SUB SWAP1 SWAP2 AND DUP2 MSTORE PUSH1 0x20 ADD JUMPDEST PUSH1 0x40 MLOAD DUP1 SWAP2 SUB SWAP1 RETURN JUMPDEST PUSH2 0xA0 PUSH2 0xE0 CALLDATASIZE PUSH1 0x4 PUSH2 0x78F JUMP JUMPDEST PUSH2 0x406 JUMP JUMPDEST PUSH2 0xF8 PUSH2 0xF3 CALLDATASIZE PUSH1 0x4 PUSH2 0x885 JUMP JUMPDEST PUSH2 0x4DA JUMP JUMPDEST PUSH1 0x40 MLOAD SWAP1 DUP2 MSTORE PUSH1 0x20 ADD PUSH2 0xC9 JUMP JUMPDEST PUSH2 0xA0 PUSH2 0x114 CALLDATASIZE PUSH1 0x4 PUSH2 0x828 JUMP JUMPDEST PUSH2 0x50E JUMP JUMPDEST PUSH2 0xB5 PUSH2 0x127 CALLDATASIZE PUSH1 0x4 PUSH2 0x7C2 JUMP JUMPDEST PUSH2 0x58B JUMP JUMPDEST PUSH2 0x13F PUSH2 0x13A CALLDATASIZE PUSH1 0x4 PUSH2 0x828 JUMP JUMPDEST PUSH2 0x602 JUMP JUMPDEST PUSH1 0x40 MLOAD SWAP1 ISZERO ISZERO DUP2 MSTORE PUSH1 0x20 ADD PUSH2 0xC9 JUMP JUMPDEST PUSH2 0x13F PUSH2 0x15D CALLDATASIZE PUSH1 0x4 PUSH2 0x828 JUMP JUMPDEST PUSH2 0x6A4 JUMP JUMPDEST PUSH1 0x0 PUSH1 0x1 PUSH1 0x1 PUSH1 0xA0 SHL SUB DUP5 AND ISZERO PUSH2 0x179 JUMPI DUP4 PUSH2 0x17B JUMP JUMPDEST CALLER JUMPDEST SWAP1 POP CALLER PUSH2 0x187 DUP3 PUSH2 0x3BD JUMP JUMPDEST PUSH1 0x1 PUSH1 0x1 PUSH1 0xA0 SHL SUB AND EQ PUSH2 0x1D4 JUMPI PUSH1 0x40 MLOAD PUSH3 0x461BCD PUSH1 0xE5 SHL DUP2 MSTORE PUSH1 0x20 PUSH1 0x4 DUP3 ADD MSTORE PUSH1 0xF PUSH1 0x24 DUP3 ADD MSTORE PUSH15 0x2737BA103A34329036B0B730B3B2B9 PUSH1 0x89 SHL PUSH1 0x44 DUP3 ADD MSTORE PUSH1 0x64 ADD JUMPDEST PUSH1 0x40 MLOAD DUP1 SWAP2 SUB SWAP1 REVERT JUMPDEST PUSH1 0x1 PUSH1 0x1 PUSH1 0xE0 SHL SUB DUP4 AND PUSH2 0x22A JUMPI PUSH1 0x40 MLOAD PUSH3 0x461BCD PUSH1 0xE5 SHL DUP2 MSTORE PUSH1 0x20 PUSH1 0x4 DUP3 ADD MSTORE PUSH1 0x1A PUSH1 0x24 DUP3 ADD MSTORE PUSH32 0x4D757374206E6F7420626520616E204552433136352068617368000000000000 PUSH1 0x44 DUP3 ADD MSTORE PUSH1 0x64 ADD PUSH2 0x1CB JUMP JUMPDEST PUSH1 0x1 PUSH1 0x1 PUSH1 0xA0 SHL SUB DUP3 AND ISZERO DUP1 ISZERO SWAP1 PUSH2 0x24B JUMPI POP PUSH1 0x1 PUSH1 0x1 PUSH1 0xA0 SHL SUB DUP3 AND CALLER EQ ISZERO JUMPDEST ISZERO PUSH2 0x359 JUMPI PUSH1 0x40 MLOAD PUSH20 0x455243313832305F4143434550545F4D41474943 PUSH1 0x60 SHL PUSH1 0x20 DUP3 ADD MSTORE PUSH1 0x34 ADD PUSH1 0x40 DUP1 MLOAD PUSH1 0x1F NOT DUP2 DUP5 SUB ADD DUP2 MSTORE SWAP1 DUP3 SWAP1 MSTORE DUP1 MLOAD PUSH1 0x20 SWAP1 SWAP2 ADD KECCAK256 PUSH4 0x124E59FD PUSH1 0xE1 SHL DUP3 MSTORE PUSH1 0x4 DUP3 ADD DUP6 SWAP1 MSTORE PUSH1 0x1 PUSH1 0x1 PUSH1 0xA0 SHL SUB DUP4 DUP2 AND PUSH1 0x24 DUP5 ADD MSTORE SWAP1 SWAP2 SWAP1 DUP5 AND SWAP1 PUSH4 0x249CB3FA SWAP1 PUSH1 0x44 ADD PUSH1 0x20 PUSH1 0x40 MLOAD DUP1 DUP4 SUB DUP2 DUP7 DUP1 EXTCODESIZE ISZERO DUP1 ISZERO PUSH2 0x2D4 JUMPI PUSH1 0x0 DUP1 REVERT JUMPDEST POP GAS STATICCALL ISZERO DUP1 ISZERO PUSH2 0x2E8 JUMPI RETURNDATASIZE PUSH1 0x0 DUP1 RETURNDATACOPY RETURNDATASIZE PUSH1 0x0 REVERT JUMPDEST POP POP POP POP PUSH1 0x40 MLOAD RETURNDATASIZE PUSH1 0x1F NOT PUSH1 0x1F DUP3 ADD AND DUP3 ADD DUP1 PUSH1 0x40 MSTORE POP DUP2 ADD SWAP1 PUSH2 0x30C SWAP2 SWAP1 PUSH2 0x86C JUMP JUMPDEST EQ PUSH2 0x359 JUMPI PUSH1 0x40 MLOAD PUSH3 0x461BCD PUSH1 0xE5 SHL DUP2 MSTORE PUSH1 0x20 PUSH1 0x4 DUP3 ADD DUP2 SWAP1 MSTORE PUSH1 0x24 DUP3 ADD MSTORE PUSH32 0x446F6573206E6F7420696D706C656D656E742074686520696E74657266616365 PUSH1 0x44 DUP3 ADD MSTORE PUSH1 0x64 ADD PUSH2 0x1CB JUMP JUMPDEST PUSH1 0x1 PUSH1 0x1 PUSH1 0xA0 SHL SUB DUP2 DUP2 AND PUSH1 0x0 DUP2 DUP2 MSTORE PUSH1 0x20 DUP2 DUP2 MSTORE PUSH1 0x40 DUP1 DUP4 KECCAK256 DUP9 DUP5 MSTORE SWAP1 SWAP2 MSTORE DUP1 DUP3 KECCAK256 DUP1 SLOAD PUSH1 0x1 PUSH1 0x1 PUSH1 0xA0 SHL SUB NOT AND SWAP5 DUP8 AND SWAP5 DUP6 OR SWAP1 SSTORE MLOAD DUP7 SWAP3 SWAP2 PUSH32 0x93BAA6EFBD2244243BFEE6CE4CFDD1D04FC4C0E9A786ABD3A41313BD352DB153 SWAP2 LOG4 POP POP POP POP JUMP JUMPDEST PUSH1 0x1 PUSH1 0x1 PUSH1 0xA0 SHL SUB DUP2 DUP2 AND PUSH1 0x0 SWAP1 DUP2 MSTORE PUSH1 0x1 PUSH1 0x20 MSTORE PUSH1 0x40 DUP2 KECCAK256 SLOAD SWAP1 SWAP2 AND PUSH2 0x3E2 JUMPI POP SWAP1 JUMP JUMPDEST POP PUSH1 0x1 PUSH1 0x1 PUSH1 0xA0 SHL SUB SWAP1 DUP2 AND PUSH1 0x0 SWAP1 DUP2 MSTORE PUSH1 0x1 PUSH1 0x20 MSTORE PUSH1 0x40 SWAP1 KECCAK256 SLOAD AND SWAP1 JUMP JUMPDEST SWAP2 SWAP1 POP JUMP JUMPDEST CALLER PUSH2 0x410 DUP4 PUSH2 0x3BD JUMP JUMPDEST PUSH1 0x1 PUSH1 0x1 PUSH1 0xA0 SHL SUB AND EQ PUSH2 0x458 JUMPI PUSH1 0x40 MLOAD PUSH3 0x461BCD PUSH1 0xE5 SHL DUP2 MSTORE PUSH1 0x20 PUSH1 0x4 DUP3 ADD MSTORE PUSH1 0xF PUSH1 0x24 DUP3 ADD MSTORE PUSH15 0x2737BA103A34329036B0B730B3B2B9 PUSH1 0x89 SHL PUSH1 0x44 DUP3 ADD MSTORE PUSH1 0x64 ADD PUSH2 0x1CB JUMP JUMPDEST DUP2 PUSH1 0x1 PUSH1 0x1 PUSH1 0xA0 SHL SUB AND DUP2 PUSH1 0x1 PUSH1 0x1 PUSH1 0xA0 SHL SUB AND EQ PUSH2 0x477 JUMPI DUP1 PUSH2 0x47A JUMP JUMPDEST PUSH1 0x0 JUMPDEST PUSH1 0x1 PUSH1 0x1 PUSH1 0xA0 SHL SUB DUP4 DUP2 AND PUSH1 0x0 DUP2 DUP2 MSTORE PUSH1 0x1 PUSH1 0x20 MSTORE PUSH1 0x40 DUP1 DUP3 KECCAK256 DUP1 SLOAD PUSH1 0x1 PUSH1 0x1 PUSH1 0xA0 SHL SUB NOT AND SWAP6 DUP6 AND SWAP6 SWAP1 SWAP6 OR SWAP1 SWAP5 SSTORE SWAP3 MLOAD SWAP2 DUP5 AND SWAP3 SWAP1 SWAP2 PUSH32 0x605C2DBF762E5F7D60A546D42E7205DCB1B011EBC62A61736A57C9089D3A4350 SWAP2 SWAP1 LOG3 POP POP JUMP JUMPDEST PUSH1 0x0 DUP3 DUP3 PUSH1 0x40 MLOAD PUSH1 0x20 ADD PUSH2 0x4EF SWAP3 SWAP2 SWAP1 PUSH2 0x8F7 JUMP JUMPDEST PUSH1 0x40 MLOAD PUSH1 0x20 DUP2 DUP4 SUB SUB DUP2 MSTORE SWAP1 PUSH1 0x40 MSTORE DUP1 MLOAD SWAP1 PUSH1 0x20 ADD KECCAK256 SWAP1 POP JUMPDEST SWAP3 SWAP2 POP POP JUMP JUMPDEST PUSH2 0x518 DUP3 DUP3 PUSH2 0x602 JUMP JUMPDEST PUSH2 0x523 JUMPI PUSH1 0x0 PUSH2 0x525 JUMP JUMPDEST DUP2 JUMPDEST PUSH1 0x1 PUSH1 0x1 PUSH1 0xA0 SHL SUB SWAP3 DUP4 AND PUSH1 0x0 DUP2 DUP2 MSTORE PUSH1 0x20 DUP2 DUP2 MSTORE PUSH1 0x40 DUP1 DUP4 KECCAK256 PUSH1 0x1 PUSH1 0x1 PUSH1 0xE0 SHL SUB NOT SWAP7 SWAP1 SWAP7 AND DUP1 DUP5 MSTORE SWAP6 DUP3 MSTORE DUP1 DUP4 KECCAK256 DUP1 SLOAD PUSH1 0x1 PUSH1 0x1 PUSH1 0xA0 SHL SUB NOT AND SWAP6 SWAP1 SWAP8 AND SWAP5 SWAP1 SWAP5 OR SWAP1 SWAP6 SSTORE SWAP1 DUP2 MSTORE PUSH1 0x2 DUP5 MSTORE DUP2 DUP2 KECCAK256 SWAP3 DUP2 MSTORE SWAP2 SWAP1 SWAP3 MSTORE KECCAK256 DUP1 SLOAD PUSH1 0xFF NOT AND PUSH1 0x1 OR SWAP1 SSTORE JUMP JUMPDEST PUSH1 0x0 DUP1 PUSH1 0x1 PUSH1 0x1 PUSH1 0xA0 SHL SUB DUP5 AND ISZERO PUSH2 0x5A3 JUMPI DUP4 PUSH2 0x5A5 JUMP JUMPDEST CALLER JUMPDEST SWAP1 POP PUSH1 0x1 PUSH1 0x1 PUSH1 0xE0 SHL SUB DUP4 AND PUSH2 0x5D6 JUMPI DUP3 PUSH2 0x5C0 DUP3 DUP3 PUSH2 0x6A4 JUMP JUMPDEST PUSH2 0x5CB JUMPI PUSH1 0x0 PUSH2 0x5CD JUMP JUMPDEST DUP2 JUMPDEST SWAP3 POP POP POP PUSH2 0x508 JUMP JUMPDEST PUSH1 0x1 PUSH1 0x1 PUSH1 0xA0 SHL SUB SWAP1 DUP2 AND PUSH1 0x0 SWAP1 DUP2 MSTORE PUSH1 0x20 DUP2 DUP2 MSTORE PUSH1 0x40 DUP1 DUP4 KECCAK256 DUP7 DUP5 MSTORE SWAP1 SWAP2 MSTORE SWAP1 KECCAK256 SLOAD AND SWAP1 POP SWAP3 SWAP2 POP POP JUMP JUMPDEST PUSH1 0x0 DUP1 DUP1 PUSH2 0x617 DUP6 PUSH4 0x1FFC9A7 PUSH1 0xE0 SHL PUSH2 0x722 JUMP JUMPDEST SWAP1 SWAP3 POP SWAP1 POP DUP2 ISZERO DUP1 PUSH2 0x627 JUMPI POP DUP1 ISZERO JUMPDEST ISZERO PUSH2 0x637 JUMPI PUSH1 0x0 SWAP3 POP POP POP PUSH2 0x508 JUMP JUMPDEST PUSH2 0x649 DUP6 PUSH1 0x1 PUSH1 0x1 PUSH1 0xE0 SHL SUB NOT PUSH2 0x722 JUMP JUMPDEST SWAP1 SWAP3 POP SWAP1 POP DUP2 ISZERO DUP1 PUSH2 0x65A JUMPI POP DUP1 ISZERO ISZERO JUMPDEST ISZERO PUSH2 0x66A JUMPI PUSH1 0x0 SWAP3 POP POP POP PUSH2 0x508 JUMP JUMPDEST PUSH2 0x674 DUP6 DUP6 PUSH2 0x722 JUMP JUMPDEST SWAP1 SWAP3 POP SWAP1 POP PUSH1 0x1 DUP3 EQ DUP1 ISZERO PUSH2 0x689 JUMPI POP DUP1 PUSH1 0x1 EQ JUMPDEST ISZERO PUSH2 0x699 JUMPI PUSH1 0x1 SWAP3 POP POP POP PUSH2 0x508 JUMP JUMPDEST POP PUSH1 0x0 SWAP5 SWAP4 POP POP POP POP JUMP JUMPDEST PUSH1 0x1 PUSH1 0x1 PUSH1 0xA0 SHL SUB DUP3 AND PUSH1 0x0 SWAP1 DUP2 MSTORE PUSH1 0x2 PUSH1 0x20 SWAP1 DUP2 MSTORE PUSH1 0x40 DUP1 DUP4 KECCAK256 PUSH1 0x1 PUSH1 0x1 PUSH1 0xE0 SHL SUB NOT DUP6 AND DUP5 MSTORE SWAP1 SWAP2 MSTORE DUP2 KECCAK256 SLOAD PUSH1 0xFF AND PUSH2 0x6EA JUMPI PUSH2 0x6E3 DUP4 DUP4 PUSH2 0x602 JUMP JUMPDEST SWAP1 POP PUSH2 0x508 JUMP JUMPDEST POP PUSH1 0x1 PUSH1 0x1 PUSH1 0xA0 SHL SUB DUP1 DUP4 AND PUSH1 0x0 DUP2 DUP2 MSTORE PUSH1 0x20 DUP2 DUP2 MSTORE PUSH1 0x40 DUP1 DUP4 KECCAK256 PUSH1 0x1 PUSH1 0x1 PUSH1 0xE0 SHL SUB NOT DUP8 AND DUP5 MSTORE SWAP1 SWAP2 MSTORE SWAP1 KECCAK256 SLOAD SWAP1 SWAP2 AND EQ SWAP3 SWAP2 POP POP JUMP JUMPDEST PUSH1 0x40 MLOAD PUSH4 0x1FFC9A7 PUSH1 0xE0 SHL DUP1 DUP3 MSTORE PUSH1 0x4 DUP3 ADD DUP4 SWAP1 MSTORE PUSH1 0x0 SWAP2 DUP3 SWAP2 SWAP1 PUSH1 0x20 DUP2 PUSH1 0x24 DUP2 DUP10 PUSH2 0x7530 STATICCALL SWAP1 MLOAD SWAP1 SWAP7 SWAP1 SWAP6 POP SWAP4 POP POP POP POP JUMP JUMPDEST DUP1 CALLDATALOAD PUSH1 0x1 PUSH1 0x1 PUSH1 0xA0 SHL SUB DUP2 AND DUP2 EQ PUSH2 0x401 JUMPI PUSH1 0x0 DUP1 REVERT JUMPDEST PUSH1 0x0 PUSH1 0x20 DUP3 DUP5 SUB SLT ISZERO PUSH2 0x77F JUMPI PUSH1 0x0 DUP1 REVERT JUMPDEST PUSH2 0x788 DUP3 PUSH2 0x756 JUMP JUMPDEST SWAP4 SWAP3 POP POP POP JUMP JUMPDEST PUSH1 0x0 DUP1 PUSH1 0x40 DUP4 DUP6 SUB SLT ISZERO PUSH2 0x7A2 JUMPI PUSH1 0x0 DUP1 REVERT JUMPDEST PUSH2 0x7AB DUP4 PUSH2 0x756 JUMP JUMPDEST SWAP2 POP PUSH2 0x7B9 PUSH1 0x20 DUP5 ADD PUSH2 0x756 JUMP JUMPDEST SWAP1 POP SWAP3 POP SWAP3 SWAP1 POP JUMP JUMPDEST PUSH1 0x0 DUP1 PUSH1 0x40 DUP4 DUP6 SUB SLT ISZERO PUSH2 0x7D5 JUMPI PUSH1 0x0 DUP1 REVERT JUMPDEST PUSH2 0x7DE DUP4 PUSH2 0x756 JUMP JUMPDEST SWAP5 PUSH1 0x20 SWAP4 SWAP1 SWAP4 ADD CALLDATALOAD SWAP4 POP POP POP JUMP JUMPDEST PUSH1 0x0 DUP1 PUSH1 0x0 PUSH1 0x60 DUP5 DUP7 SUB SLT ISZERO PUSH2 0x801 JUMPI PUSH1 0x0 DUP1 REVERT JUMPDEST PUSH2 0x80A DUP5 PUSH2 0x756 JUMP JUMPDEST SWAP3 POP PUSH1 0x20 DUP5 ADD CALLDATALOAD SWAP2 POP PUSH2 0x81F PUSH1 0x40 DUP6 ADD PUSH2 0x756 JUMP JUMPDEST SWAP1 POP SWAP3 POP SWAP3 POP SWAP3 JUMP JUMPDEST PUSH1 0x0 DUP1 PUSH1 0x40 DUP4 DUP6 SUB SLT ISZERO PUSH2 0x83B JUMPI PUSH1 0x0 DUP1 REVERT JUMPDEST PUSH2 0x844 DUP4 PUSH2 0x756 JUMP JUMPDEST SWAP2 POP PUSH1 0x20 DUP4 ADD CALLDATALOAD PUSH1 0x1 PUSH1 0x1 PUSH1 0xE0 SHL SUB NOT DUP2 AND DUP2 EQ PUSH2 0x861 JUMPI PUSH1 0x0 DUP1 REVERT JUMPDEST DUP1 SWAP2 POP POP SWAP3 POP SWAP3 SWAP1 POP JUMP JUMPDEST PUSH1 0x0 PUSH1 0x20 DUP3 DUP5 SUB SLT ISZERO PUSH2 0x87E JUMPI PUSH1 0x0 DUP1 REVERT JUMPDEST POP MLOAD SWAP2 SWAP1 POP JUMP JUMPDEST PUSH1 0x0 DUP1 PUSH1 0x20 DUP4 DUP6 SUB SLT ISZERO PUSH2 0x898 JUMPI PUSH1 0x0 DUP1 REVERT JUMPDEST DUP3 CALLDATALOAD PUSH8 0xFFFFFFFFFFFFFFFF DUP1 DUP3 GT ISZERO PUSH2 0x8B0 JUMPI PUSH1 0x0 DUP1 REVERT JUMPDEST DUP2 DUP6 ADD SWAP2 POP DUP6 PUSH1 0x1F DUP4 ADD SLT PUSH2 0x8C4 JUMPI PUSH1 0x0 DUP1 REVERT JUMPDEST DUP2 CALLDATALOAD DUP2 DUP2 GT ISZERO PUSH2 0x8D3 JUMPI PUSH1 0x0 DUP1 REVERT JUMPDEST DUP7 PUSH1 0x20 DUP3 DUP6 ADD ADD GT ISZERO PUSH2 0x8E5 JUMPI PUSH1 0x0 DUP1 REVERT JUMPDEST PUSH1 0x20 SWAP3 SWAP1 SWAP3 ADD SWAP7 SWAP2 SWAP6 POP SWAP1 SWAP4 POP POP POP POP JUMP JUMPDEST DUP2 DUP4 DUP3 CALLDATACOPY PUSH1 0x0 SWAP2 ADD SWAP1 DUP2 MSTORE SWAP2 SWAP1 POP JUMP INVALID LOG2 PUSH5 0x6970667358 0x22 SLT KECCAK256 CREATE PUSH17 0x246DAFD49CB1475430B47D3F9F3C98DB14 0xB1 DUP6 SIGNEXTEND SWAP1 0xD9 0xF MUL 0xC0 INVALID SWAP4 0x4D MSIZE 0xE5 PUSH5 0x736F6C6343 STOP ADDMOD SMOD STOP CALLER "
		},
		"gasEstimates": {
			"creation": {
				"codeDepositCost": "473000",
				"executionCost": "505",
				"totalCost": "473505"
			},
			"external": {
				"getInterfaceImplementer(address,bytes32)": "infinite",
				"getManager(address)": "4809",
				"implementsERC165Interface(address,bytes4)": "infinite",
				"implementsERC165InterfaceNoCache(address,bytes4)": "infinite",
				"interfaceHash(string)": "infinite",
				"setInterfaceImplementer(address,bytes32,address)": "infinite",
				"setManager(address,address)": "infinite",
				"updateERC165Cache(address,bytes4)": "infinite"
			},
			"internal": {
				"isERC165Interface(bytes32)": "infinite",
				"noThrowCall(address,bytes4)": "infinite"
			}
		},
		"methodIdentifiers": {
			"getInterfaceImplementer(address,bytes32)": "aabbb8ca",
			"getManager(address)": "3d584063",
			"implementsERC165Interface(address,bytes4)": "f712f3e8",
			"implementsERC165InterfaceNoCache(address,bytes4)": "b7056765",
			"interfaceHash(string)": "65ba36c1",
			"setInterfaceImplementer(address,bytes32,address)": "29965a1d",
			"setManager(address,address)": "5df8122f",
			"updateERC165Cache(address,bytes4)": "a41e7d51"
		}
	},
	"abi": [
		{
			"anonymous": false,
			"inputs": [
				{
					"indexed": true,
					"internalType": "address",
					"name": "account",
					"type": "address"
				},
				{
					"indexed": true,
					"internalType": "bytes32",
					"name": "interfaceHash",
					"type": "bytes32"
				},
				{
					"indexed": true,
					"internalType": "address",
					"name": "implementer",
					"type": "address"
				}
			],
			"name": "InterfaceImplementerSet",
			"type": "event"
		},
		{
			"anonymous": false,
			"inputs": [
				{
					"indexed": true,
					"internalType": "address",
					"name": "account",
					"type": "address"
				},
				{
					"indexed": true,
					"internalType": "address",
					"name": "newManager",
					"type": "address"
				}
			],
			"name": "ManagerChanged",
			"type": "event"
		},
		{
			"inputs": [
				{
					"internalType": "address",
					"name": "_addr",
					"type": "address"
				},
				{
					"internalType": "bytes32",
					"name": "_interfaceHash",
					"type": "bytes32"
				}
			],
			"name": "getInterfaceImplementer",
			"outputs": [
				{
					"internalType": "address",
					"name": "",
					"type": "address"
				}
			],
			"stateMutability": "view",
			"type": "function"
		},
		{
			"inputs": [
				{
					"internalType": "address",
					"name": "_addr",
					"type": "address"
				}
			],
			"name": "getManager",
			"outputs": [
				{
					"internalType": "address",
					"name": "",
					"type": "address"
				}
			],
			"stateMutability": "view",
			"type": "function"
		},
		{
			"inputs": [
				{
					"internalType": "address",
					"name": "_contract",
					"type": "address"
				},
				{
					"internalType": "bytes4",
					"name": "_interfaceId",
					"type": "bytes4"
				}
			],
			"name": "implementsERC165Interface",
			"outputs": [
				{
					"internalType": "bool",
					"name": "",
					"type": "bool"
				}
			],
			"stateMutability": "view",
			"type": "function"
		},
		{
			"inputs": [
				{
					"internalType": "address",
					"name": "_contract",
					"type": "address"
				},
				{
					"internalType": "bytes4",
					"name": "_interfaceId",
					"type": "bytes4"
				}
			],
			"name": "implementsERC165InterfaceNoCache",
			"outputs": [
				{
					"internalType": "bool",
					"name": "",
					"type": "bool"
				}
			],
			"stateMutability": "view",
			"type": "function"
		},
		{
			"inputs": [
				{
					"internalType": "string",
					"name": "_interfaceName",
					"type": "string"
				}
			],
			"name": "interfaceHash",
			"outputs": [
				{
					"internalType": "bytes32",
					"name": "",
					"type": "bytes32"
				}
			],
			"stateMutability": "pure",
			"type": "function"
		},
		{
			"inputs": [
				{
					"internalType": "address",
					"name": "_addr",
					"type": "address"
				},
				{
					"internalType": "bytes32",
					"name": "_interfaceHash",
					"type": "bytes32"
				},
				{
					"internalType": "address",
					"name": "_implementer",
					"type": "address"
				}
			],
			"name": "setInterfaceImplementer",
			"outputs": [],
			"stateMutability": "nonpayable",
			"type": "function"
		},
		{
			"inputs": [
				{
					"internalType": "address",
					"name": "_addr",
					"type": "address"
				},
				{
					"internalType": "address",
					"name": "_newManager",
					"type": "address"
				}
			],
			"name": "setManager",
			"outputs": [],
			"stateMutability": "nonpayable",
			"type": "function"
		},
		{
			"inputs": [
				{
					"internalType": "address",
					"name": "_contract",
					"type": "address"
				},
				{
					"internalType": "bytes4",
					"name": "_interfaceId",
					"type": "bytes4"
				}
			],
			"name": "updateERC165Cache",
			"outputs": [],
			"stateMutability": "nonpayable",
			"type": "function"
		}
	]
}